:100000000C94D4020C94E6020C94E6020C94E602E2
:100010000C94E6020C94E6020C94E6020C94E602C0
:100020000C94E6020C94E6020C94E6020C942F1059
:100030000C94E6020C94E6020C94170C0C94E60265
:100040000C94E6020C94E6020C94E6020C94E60290
:100050000C94E6020C94E6020C94E6020C94E60280
:100060000C94E6020C94E602080B0907000A200D26
:10007000080B097F000A1B0AD2313233D234352DE6
:100080002EDE2C213AAB3B2261627363646573669A
:100090006D6E6F7A7071727AC3363738C339302B10
:1000A0002ACD2F2428CD293D676873696A6B736C4C
:1000B0007475767A7778797A007C40330034352D00
:1000C0007F00253F7B007D274142534344455346F3
:1000D0004D4E4F5A5051525A0036373800393C3E37
:1000E0005E005C605B005D26474853494A4B534CB9
:1000F0005455565A5758595A10050520202020208B
:10010000202020202020052020202020202020200A
:10011000208484840607848484848484840684847C
:1001200084840784848484848484A020201595009A
:10013000A00115A0A0011595A020159500A00115FE
:10014000A0A001A020201595A020A0159520A01505
:1001500095A0201595A020A0159520A0A0202015E1
:100160009502A0A0159520A0159502A0159502A0B6
:1001700003159520A020202020202020A020202032
:10018000202020202020202020202020202020206F
:1001900020202020A00320202020202020202020FC
:1001A000202020202020203F7FFFFFFFFFFFFFFCBB
:1001B000FEFFFFFFFFFFFFFFFFFFFFFFFF7F3FFF90
:1001C000FFFFFFFFFFFEFC00FF00FF00FF00FFFF3F
:1001D000FFFFFFFFFFFF000F0F0F0F0F0F0F00F0CC
:1001E000F0F0F0F0F0F000FF80808080808080FFF1
:1001F00000000000000000FF010101010101018079
:1002000080808080808080010101010101010180E6
:10021000808080808080FF00000000000000FF01DF
:10022000010101010101FF3F7FFFFFFFFFFF000F01
:100230000F0F0F00000000F0F0F0F000000000FFD2
:10024000FFFFFF00000000000000000F0F0F0F0F66
:100250000F0F0F0F0F0F0FF0F0F0F00F0F0F0FFF3A
:10026000FFFFFF0F0F0F0F0000000055AA55AA5502
:10027000AA55AA0000000050505050505050505500
:10028000AA55AA55AA55AA0000183C3C1800003CE3
:100290007EFFFFFFFF7E3C3E419CAC9F403F000045
:1002A000008E9526C8F0000000000000000000004D
:1002B00010101010001000002424000000000000A6
:1002C000247E24247E240000081E281C0A3C0800EA
:1002D00062640810264600001028102A443A0000E4
:1002E00008100000000000000408080808040000CE
:1002F00020101010102000000014083E0814000008
:100300000008083E0808000000000000080810006F
:100310000000003E0000000000000000181800006F
:1003200000020408102000003C464A52623C0000D3
:1003300018280808083E00003C42023C407E0000AD
:100340003C420C02423C0000081828487E0800008D
:100350007E407C02423C00003C407C42423C00002B
:100360007E020408101000003C423C42423C000067
:100370003C42423E023C0000000010000010000021
:1003800000100000101020000004081008040000F5
:1003900000003E003E0000000010080408100000AD
:1003A0003C420408000800003C4A565E403C000005
:1003B0003C42427E424200007C427C42427C000041
:1003C0003C424040423C00007844424244780000B5
:1003D0007E407C40407E00007E407C4040400000EB
:1003E0003C42404E423C000042427E4242420000BB
:1003F0003E080808083E000002020242423C00009B
:10040000444870484442000040404040407E000064
:1004100042665A42424200004262524A464200004C
:100420003C424242423C00007C42427C4040000050
:100430003C4242524A3C00007C42427C4442000022
:100440003C403C02423C0000FE1010101010000026
:1004500042424242423C00004242424224180000D2
:1004600041412A2A14140000422418182442000092
:1004700082442810101000007E040810207E000026
:100480000E080808080E00000040201008040000B4
:1004900070101010107000001028440000000000C0
:1004A000000000000000FF001C227820207E0000D9
:1004B0000038043C443C000020203C22223C000048
:1004C000001C2020201C000004043C44443C00008C
:1004D00000384478403C00000C1018101010000048
:1004E000003C44443C04380040407844444400000C
:1004F0001000301010380000040004040424180018
:10050000202830302824000010101010100C00009B
:10051000006854545454000000784444444400009B
:100520000038444444380000007844447840400097
:10053000003C44443C040600001C20202020000015
:10054000003840380478000010381010100C0000FB
:10055000004444444438000000444428281000006B
:10056000004454545428000000442810284400003B
:10057000004444443C043800007C0810207C000403
:1005800008083008080400000808080808080020C7
:1005900010100C1010200000142800000000003C77
:1005A0004299A1A199423C0011241FBECFEFD4E093
:1005B000DEBFCDBF13E0A6E0B1E001C01D92AF3EAB
:1005C000B107E1F70E94AD030C949C110C9400005C
:1005D0002A9886E00E94D90B2A9A08950F931F93B8
:1005E000CF93DF938C01EB012A9883E00E94D90B13
:1005F000812F0E94D90B802F0E94D90B80E00E948E
:10060000D90B00E010E00E94DE0B89930F5F1F4FB3
:1006100081E000301807B9F72A9ADF91CF911F9136
:100620000F9108950F931F932A988FE90E94D90B79
:100630000E94DE0B90E08F37910519F40E94DE0BCB
:1006400090E0C79719F02FEF3FEF0AC00E94DE0B32
:10065000182F00E00E94DE0B282F30E0202B312BDA
:100660002A9AC9011F910F9108952A9885E00E9446
:10067000D90B0E94DE0B2A9A08950E94350380FD53
:10068000FCCF08950F931F93CF93DF938C01EB0161
:100690000E94E8022A9882E00E94D90B812F0E94D2
:1006A000D90B802F0E94D90B80E00E94D90B00E06B
:1006B00010E089910E94D90B0F5F1F4F81E000303D
:1006C0001807B9F72A9A0E943D03DF91CF911F9135
:1006D0000F9108950F931F93CF93DF938C010E9486
:1006E000120380708050904219F4C8EDD0E002C02F
:1006F000C0E2D0E00E94E8022A988C2F0E94D90B19
:10070000812F0E94D90B802F0E94D90B80E00E947C
:10071000D90B2A9A0E943D03DF91CF911F910F912F
:10072000089583B7816083BF1092C10080E187B9CB
:100730003D98459A8AB18E7B8AB98BB181648BB919
:100740000E940D110E94CC060E94CB0B0E94BA0B96
:100750000E94F60F0E94E30B08950E9491030E94ED
:10076000140B8FEF8DBF0C94740D08950CC0809105
:10077000ED039091EE0324E0959587952A95E1F796
:1007800081700E94730B0E940C07882381F30895E7
:10079000299A8CB58F7B8CBD209184003091850087
:1007A0002F5F3F4F8DB58EB580918400909185006D
:1007B000A901481B590B57FFF5CF8CB580648CBD40
:1007C00008950F931F93CF93DF93FC01EB018A01F0
:1007D0004115510559F1299A8CB58F7B8CBD20911B
:1007E0008400309185002F5F3F4F8DB58EB580918D
:1007F000840090918500A901481B590B57FFF5CF44
:100800008CB580648CBDCF019F7768810E948B0B73
:1008100003C088810E94D90B015010402196011518
:100820001105B9F71092EC031092EB03DF91CF9111
:100830001F910F9108959EE16902B001112499273B
:1008400087FD9095680F791F615F7E4FCB010895FA
:100850000F931F93CF93DF93EC01062F60C00A30F4
:1008600001F10B3040F4083049F1093008F5073048
:1008700009F04EC045C00D3049F10E3020F40B3068
:1008800009F046C006C0033C19F10D3C09F040C018
:1008900032C089818150898387FF44C083E1898385
:1008A00041C089818F5F89838431E4F119823AC024
:1008B00088818F5F88838E31ACF108C08881815038
:1008C000888387FF2FC08DE18883E3CF1882E9CF2B
:1008D0001A81812F6B810E941B04FC0100811F5F24
:1008E0001A831E31E4F01A828B818F5F8B838431EF
:1008F000B4F01B8214C088818A8389818B8312C0E3
:10090000888169810E941B04FC0180E28083D6CF2C
:10091000888169810E941B04FC010083C9CF0023E8
:1009200009F09DCFDF91CF911F910F910895AF9264
:10093000BF92CF92DF92EF92FF920F93DF93CF930C
:1009400000D0CDB7DEB77C016B015A0180E065E1D4
:100950000E941B049A8389838FE3E981FA81808353
:100960000E941C07082FE981FA818083873509F4EA
:1009700050C0883550F4853409F453C0843509F4E7
:1009800056C0873009F065C024C08A3509F44CC0D0
:10099000893621F0883509F05CC041C080E0F5015E
:1009A00061810E941B047C018DE162E10E941B04B5
:1009B000FC0103C08081868F3197EE15FF05D0F7CB
:1009C000C7014E9620E201C02193E817F907E0F332
:1009D00044C080E0F50161810E941B047C0180E03D
:1009E00063E10E941B049C0104C0F701868D819382
:1009F0007F01E216F306C8F3C9014E9620E205C056
:100A00000894E11CF11CF7012083E816F906C0F3F5
:100A100024C0C701B6014FE051E00E94D2090BE1AA
:100A20001CC00E94140AFBCF0E94140B16C00E9427
:100A30002C0813C0F501808161810E941B04FC0118
:100A40008081880F880F880F802B80830E941C076D
:100A5000082F0053083070F300E0802F0F900F90A4
:100A6000CF91DF910F91FF90EF90DF90CF90BF90EB
:100A7000AF90089597FD02C080E008958FE091E067
:100A800060E070E040E052E00E948C1181E0089547
:100A9000EF92FF920F931F93CF93DF938C018FEF11
:100AA0009FEF6FE071E00E94AF087C01C8010E94D7
:100AB0003A05882319F0CEEFDFEF06C0C8016FE0DA
:100AC00071E00E94CE08EC01CE15DF0511F40E9402
:100AD000140B81E065E10E945E0AC8010E94DE0AF3
:100AE00080E40E94850ACE010E94DE0A81E20E9413
:100AF000850AC7010E94DE0AC701DF91CF911F91CD
:100B00000F91FF90EF9008952F923F924F925F9236
:100B10006F927F928F929F92AF92BF92CF92DF920D
:100B2000EF92FF920F931F93DF93CF9300D000D0EB
:100B3000CDB7DEB74C0119821A828FEF8B830E94EA
:100B4000140BC4010E9448052C0197FE04C0909428
:100B500081949108939483E9682E1E010894211CC6
:100B6000311CE090ED03F090EE0389816A810E94D0
:100B70001B045C018B816C810E941B046C01F501DC
:100B80007080FC0100818091ED039091EE0397014C
:100B9000281B390B12161306B4F0F50190819058FA
:100BA00090838B818F3F39F097FF03C0F6016082FD
:100BB00002C0F6010083E090ED03F090EE0322E323
:100BC00030E0E20EF31E0E940C07182F8823D9F2A2
:100BD000F5017082F60100838B3A39F4C401B20149
:100BE000A1010E949704182F04C0C101612F0E9427
:100BF00028041B3109F0B5CF80E064E10E945E0A51
:100C00000F900F900F900F90CF91DF911F910F9148
:100C1000FF90EF90DF90CF90BF90AF909F908F901C
:100C20007F906F905F904F903F902F900895482F46
:100C3000282F30E082FF02C082E004C0C9019695EF
:100C40008795817023FD83E024FD84E025FD85E008
:100C500026FD86E047FD87E008951F93CF93DF933D
:100C6000282FC0910A01D0910B01109107018091AA
:100C7000EA032817F1F4CE0183709070029720F0F8
:100C80008091090187FF07C0219709F081C08091F9
:100C90000901863024F081508093090179C086E0F3
:100CA0008093090185E090E090930B0180930A0105
:100CB0006FC02093EA03C130D10559F0C130D1058E
:100CC00058F0C230D10579F0C330D10509F059C0D0
:100CD0002BC0222309F453C0822F0E941706809351
:100CE000070122964EC0222309F58091090187FD54
:100CF00046C0E0910801143029F481E08E1B8093F6
:100D000008013DC0F0E063E0EE0FFF1F6A95E1F7D8
:100D1000E10FF11DE859FF4FE491E09306011092B5
:100D20000801C4E0D0E02DC0222349F181E090E029
:100D3000012E02C0880F991F0A94E2F7281B822F08
:100D40000E941706E0910801F0E053E0EE0FFF1F4C
:100D50005A95E1F7E10FF11D43E0EE0FFF1F4A95B1
:100D6000E1F7E80FF11DE858FF4F8491823D21F033
:100D70008093060110920801C5E0D0E002C0C0E0F7
:100D8000D0E080E180930901D0930B01C0930A0168
:100D9000DF91CF911F91089587B1807F87B988B186
:100DA0008F6088B957985F9A2098289A0895209163
:100DB0000D01222351F486B180958F7080930E012E
:100DC0002098289A579A5F980EC096B190959F7078
:100DD00080910E018295807F892B80930E01579818
:100DE0005F9A209A28982F5F217020930D0180919F
:100DF0000E0108950E94D706982F80910D01882337
:100E000051F480910C01981721F4892F0E942D062E
:100E1000089590930C01089520910A0130910B01DF
:100E200022FD02C080E00895809106012B7F30935F
:100E30000B0120930A010895CF93DF938091E10382
:100E4000C091DF03D091E003C80FD11D8881805885
:100E500088830E940C07982F8823D9F388818058B3
:100E60008883892FDF91CF9108950E94120320E299
:100E70008331920749F020E28331920740F0835199
:100E80009043029720F406C020E031E005C020E046
:100E900030E002C020E130E0C90108950E94120351
:100EA00020E28331920749F020E28331920740F03B
:100EB00083519043029720F406C020E031E005C042
:100EC00020E030E002C020E830E0C9010895CF936F
:100ED000DF930E94120320E38331920739F020E36D
:100EE0008431920749F08351904219F4C0E0D8E070
:100EF00005C0C0E0D0E002C0C0E0D0E10E944E07D3
:100F00009E01281B390BC901DF91CF9108950F93E2
:100F10001F93CF93DF93EC010E9467078C010E941F
:100F20003507081B190B16950795C017D10710F444
:100F300020E00BC00E94350720E001979695879529
:100F40008C239D23892B09F421E0822FDF91CF91FF
:100F50001F910F910895CF92DF92EF92FF920F931E
:100F60001F936C017B010E9467078C011695079502
:100F700001501040C801880F892F881F990B919547
:100F80008E0D9F1DB6010E94EE020F771070000FAC
:100F9000111F0C0D1D1DF801808191811F910F9172
:100FA000FF90EF90DF90CF900895CF93DF93EC0107
:100FB0000E94C803CE0160E070E00E94AB078F5F23
:100FC0009F4FE1F40E946707FC01F695E795329781
:100FD000EF77F070EE0FFF1FEC0FFD1F8081918106
:100FE0008F5F9F4F41F0CE0160E170E00E94AB0740
:100FF0008F5F9F4F19F020E130E002C020E030E029
:10100000C901DF91CF910895EF92FF921F93CF9383
:10101000DF93EC017B01CB010E94D507892B21F0E6
:1010200080E090E4C827D927D6FD02C010E001C0B7
:1010300010E1DF73CC0FCD2FCC1FDD0BD1951C0F32
:10104000812F90E0B7010E94EE02812FDF91CF91B6
:101050001F91FF90EF900895CF93DF930E94C803F4
:101060000E94140BC0E0D0E015C080E065E10E9452
:101070005E0A8FE091E00E94D5078C0F9D1F0E94B1
:10108000DE0ACE0140966FE071E00E94EE020E94FF
:101090001C0721960E94670796958795C817D90760
:1010A00020F31092EC031092EB03DF91CF9108959F
:1010B0008F929F92AF92BF92CF92DF92EF92FF9268
:1010C0000F931F93CF93DF935C016B010E9467071F
:1010D0004C0196948794E12C40E8F42EC0E0D0E0D7
:1010E000CE019F738815990520F0C070D07CC05048
:1010F000D04C8E010F7710700115110521F4CE012F
:10110000B6010E940408000F111F0C0D1D1DF801EF
:10111000808191818A159B0549F08F5F9F4F61F413
:1011200020E0E21620E8F20651F417C08FEFA8166F
:101130008FEFB80691F07E012196D7FFD1CFC7017E
:10114000DF91CF911F910F91FF90EF90DF90CF90A3
:10115000BF90AF909F908F9008957E01F0CFCF9277
:10116000DF92EF92FF920F931F938C017B010E94FD
:10117000C8030E944E076C01C801B7010E945808BD
:101180009C013F73220F331F2C0D3D1DC9011F9180
:101190000F91FF90EF90DF90CF9008950F931F93E2
:1011A000CF93DF93EC018B0196FF04C00E94C8032C
:1011B000DF7309C00E94AF08EC01B80160507F4F97
:1011C00001960E94EE02CE01B8010E94EE0210923A
:1011D000EC031092EB03CE01DF91CF911F910F91A1
:1011E0000895EF92FF920F931F93CF93DF937C01AB
:1011F0008B018FEF9FEF0E945808EC010E94670758
:10120000969587958150904CC817D90748F0C8012A
:101210000E94D5070E946A0380E090E4C827D9277E
:10122000CE01B8010E940408CF77D070CC0FDD1F2B
:10123000C00FD11FF982E88290E0B8010E944203FA
:10124000DF91CF911F910F91FF90EF900895CF9371
:10125000DF93EC01DF730E946707C817D90720F0FE
:101260000E946707C81BD90B0E944E079E01220FE0
:10127000331F280F391FC901DF91CF9108954F9275
:101280005F926F927F928F929F92AF92BF92CF9216
:10129000DF92EF92FF920F931F93CF93DF938C0116
:1012A0006B010E94350796958795782E0E946707F7
:1012B000272D30E0FC01F695E795E21BF30BC80102
:1012C0009F738E179F0720F0E801CE1BDF0B07C02E
:1012D000E901C00FD11F80E090E4C827D927672C0F
:1012E000CE010E9427092C01C8010E9427095C0138
:1012F000B60160507F4FCE010E940408FE01EF77D7
:10130000F070E058FF4FEE0FFF1FEC0DFD1D8080C9
:101310009180C401B6010E945808C817D90731F559
:101320000E944E078E011F73000F111F080F191F17
:10133000C801B6010E94EE0275010894E11CF11C7F
:10134000C501B6010E944203C8010196B6010E9480
:10135000EE0257010894A11CB11CC701B6010E94FE
:101360004203C401B6010E94F1086A947A9411F014
:101370002196C4CFC2010E946A0380E016140CF0CB
:1013800081E0DF91CF911F910F91FF90EF90DF905F
:10139000CF90BF90AF909F908F907F906F905F9015
:1013A0004F900895CF92DF92EF92FF920F931F9389
:1013B000CF93DF937C018B01EA010E94C803C8012F
:1013C000BE010E944203C12C31E0D32ECC0EDD1EA3
:1013D000C8010196B6010E944203C701BE010E94E6
:1013E000F108EE24E3948FEF9FEFBE010E945808AE
:1013F0008C01B6010E948707882349F0EE2039F05E
:10140000C801BE010E943F09E82E882361F71092AF
:10141000EC031092EB03DF91CF911F910F91FF909E
:10142000EF90DF90CF900895CF92DF92EF92FF92EE
:101430000F931F93CF93DF930E9412036C010E94BE
:101440003507C0E0D0E07C010894E108F10820C035
:1014500083E1C81680E2D80681F4209771F0C0318C
:10146000D10559F0C032D10541F0C034D10529F081
:10147000CE018E219F21892B51F480E065E10E94ED
:101480005E0ACE010E94DE0ACE010E946A036096C7
:101490000E9467078C010E944E07080F191FC01792
:1014A000D107B0F2DF91CF911F910F91FF90EF9094
:1014B000DF90CF9008950E94B60308959EE1699F42
:1014C000B0011124615F7E4F7093E0036093DF03EE
:1014D0008093E1030895EFE0F1E0868D819383E04E
:1014E000E13CF807D0F302C0819301C080E293E0B1
:1014F000EF3DF907C8F38091DF039091E0034E9729
:101500009093E0038093DF0308950F931F93182FA8
:10151000873041F08D3021F48EE18093E10310E0BB
:1015200001E016C08091E103882321F0815080936F
:10153000E1030CC08DE18093E1038091DF03909182
:10154000E0034E979093E0038093DF0310E200E006
:101550008091E1038E3170F01092E1038091DF03FE
:101560009091E0034E969093E0038093DF0302C0D6
:101570000E946B0A8091DF039091E00323E08F3D8E
:101580009207B0F78F50914030F48FE091E0909344
:10159000E0038093DF03112371F08091E103E09178
:1015A000DF03F091E003E80FF11D10838091E10368
:1015B000080F0093E1031F910F910895EF92FF929E
:1015C0000F931F93CF93DF93EC0180E30E94850A72
:1015D00088E70E94850A10E000E07E019F2D929529
:1015E0009F70905D892F91332CF4133019F00023F4
:1015F00041F001C001E09A3314F0892F895D0E9407
:10160000850A1F5F143031F084E0CC0FDD1F8A950E
:10161000E1F7E3CF80E20E94850ADF91CF911F912D
:101620000F91FF90EF900895EFE0F1E080E2819359
:1016300093E0EF3DF907D9F780E060E00E945E0A91
:101640000895282F8C3308F04DC0603308F04AC04D
:10165000862F86959EE1899FF0011124822F869521
:10166000E80FF11DE15FFE4F60FD02C052E001C0D6
:1016700058E020FD5695F19902C030E001C0352FA9
:10168000F09902C040E001C0452F9081903A31F0BE
:10169000892F8877803111F020E006C0292F277824
:1016A00027FF02C08FE82827852F80958323942F5A
:1016B000932B9095982B9223309535233423932B9D
:1016C000452320954223942B93FF02C08FE898274F
:1016D000292F205F822F90E087709070892B09F46A
:1016E000205F2083089598B1811180E19F7E892B2E
:1016F00088B908950F931F938C01299883E00E9465
:10170000D90B812F0E94D90B802F0E94D90B1EBCB0
:101710001F910F910895FF920F931F93182F092F78
:10172000F62E299882E00E94D90B802F0E94D90BB7
:10173000812F0E94D90B8F2D0E94D90B1F910F91E1
:10174000FF900895FF920F931F93182F092FF62EE5
:10175000299882E00E94D90B802F0E94D90B812FFB
:101760000E94D90B8F2D0E94D90B299A1F910F919E
:10177000FF900895299881E00E94D90B81E40E948E
:10178000D90B299A0895299885E00E94D90B0E94C7
:10179000DE0B299A089584B1817C8E6284B985B16B
:1017A000817C866085B98DB581608DBD80E58CBDFD
:1017B00008958EBD0DB407FEFDCF089580E00E9410
:1017C000D90B8EB508951F93CF93DF93C8EFD0E068
:1017D0000E94140B18E082E0612F0E945E0A80E0F4
:1017E00090E0FE01E80FF91F2491E091DF03F091F2
:1017F000E0032193F093E003E093DF030196893146
:10180000910579F769961F5F1F3029F72091ED0345
:101810003091EE032C593F4F8091ED039091EE03F0
:1018200028173907C9F7DF91CF911F910895789450
:101830008F939F93809100018A958093000171F0AE
:1018400092E180FD93E197BD9091010108949795F5
:101850009093010182E828F482EC03C080E085BD0A
:1018600082E084BD9F918F9118958F930F9385B5DA
:101870008823E9F7009301010BE00093000182E166
:1018800087BD82E884BD80E086BD83E085BD0F9181
:101890008F910895082FE9CF8F939F935E9A569A60
:1018A000882785BD80916E00826080936E00789459
:1018B0009F918F910895CF93DF93CDB7DEB7EF93CC
:1018C000FF932F933F934F935F936F937F938F93E8
:1018D0009F93AF93BF93FB81EC81EE0FFF1F259188
:1018E0003591F695E795EC83FB83F901F695E7953D
:1018F0000995BF91AF919F918F917F916F915F916A
:101900004F913F912F91FF91EF91DF91CF910895EA
:101910000F931F93CF93DF93EC010E94C803E881DC
:10192000F0E0998190958081892380830CC0EA81C1
:10193000FB818191FB83EA830E94D90B8C819D817D
:1019400001979D838C838C819D81892B81F70EC0AB
:101950001E810F810E94DE0BE12FF02F8193FF8308
:10196000EE838885998501979987888788859985E9
:10197000892B71F7E881F0E080819981892B808340
:101980001092EC031092EB03DF91CF911F910F9116
:101990000895D7FD04C0FE01849121960AC02196C6
:1019A000C093EB03D093EC038DB587FFFDCF8EB5CD
:1019B0008EBD089597FF1EC06F936DB567FFFDCF75
:1019C000299A7F934F935F930E947A0B9F918F91F7
:1019D000BF91AF9101C06EBD6DB567FFFDCF6EB514
:1019E0006D930197C1F7299A6EBD1092EB03109287
:1019F000EC030895FC01DB01CA0145914D93019769
:101A0000E1F708954115510571F1903168F1703198
:101A100090F1DF92CF92AF929F928F927F926F92CE
:101A20006A013C014B01A6014830510508F048E02D
:101A3000A42E50E0C30162EE73E0BCDFC40162EE8D
:101A400073E04A2D50E00E94E1036A0C711C8A0C7D
:101A5000911CCA18D10839F76F907F908F909F9092
:101A6000AF90CF90DF900895703130F0FC01CB0142
:101A7000BF010C94E1039ECFFC01DB01CA018191FF
:101A80008D930197E1F708956115710531F190315A
:101A900028F1DF92CF92BF92AF926C015B01683068
:101AA000710508F068E070E0A2EEB3E018D0C6015E
:101AB00048E050E0A416B50608F4A501A41AB50A3A
:101AC000C40ED51E62EE73E00E94E103A114B104BE
:101AD00071F7AF90BF90CF90DF900895DC01CB01FC
:101AE0004D930197E9F708950E94E90FEC011092D8
:101AF000EB031092EC0380E090E00E947A0B8FEEF3
:101B000093E07C018BEA9FE03C01D7FF2AC08DB5B2
:101B100087FFFDCF299ACE010E947A0B12C0D7FF12
:101B20000AC0CDB5C7FFFDCFCEB5299AD82DCE01BD
:101B30000E947A0B06C0FE01C491D82D12C0D7FFB7
:101B400010C02196C093EB03D093EC038DB587FFB3
:101B5000FDCF8EB58EBD8E3368F4F301E80FF11D15
:101B60000994FE01849121968E3320F4F301E80F4D
:101B7000F11D0994882E0DDF982DCF93DF93EC0192
:101B8000C4CFD7010D931D937D0103DF182F01DF13
:101B9000082FD5CFC801D7011E910E917D018E333C
:101BA000910520F3CF93DF93EC01AFCFD7011E91C6
:101BB0000E917D01C4CF012BD7011E910E917D01A5
:101BC00011F02296A2CFE5DE882EA9CFE2DE882E84
:101BD000D60111966D01CA14DB040AF4A0CFD9DE38
:101BE000DF90CF90BF90AF90AACFD3DE882ED601E2
:101BF000A00FB11F6D01AA19BB09B127F7011291FE
:101C000002917F01B7FDEACFEACFAF92BF92CF92A8
:101C1000DF92D7016801BE90AE901E910E917D01BA
:101C20008ECFD7017E916E914427069F4001169F6B
:101C3000612D900C641F079F900C611D179F712DE3
:101C4000600D741F8B018D929D9211247D0177CFC1
:101C5000D70111978E9111976E91F801F894008138
:101C60008023862B8083789411277D0168CFD7014C
:101C70009E918E917E916E9121E2441B551B07C06F
:101C8000441F551F4017510710F0401B510B661F92
:101C9000771F881F991F2A9599F7609570954D9326
:101CA0005D938B017D014BCFD7019E918E910823CF
:101CB00019237D0144CFD7019E918E91082B192BBA
:101CC0007D013DCFD7019E918E91082719277D0177
:101CD00036CF650134CFD7010D931D937D011F9140
:101CE0000F912DCFD7010D931D937D01EDB7FEB759
:101CF0001181028124CF0F931F93D7011E910E9162
:101D00007D011DCF012B09F00FEF0095102F17CF8C
:101D1000002717FD0095102F12CFD7019E918E91AD
:101D2000080F191F7D010BCFD7019E918E917E91D7
:101D30006E915E914E91840F951F061F171F8D9314
:101D40009D937D01FCCE109501951F4FF8CED701D4
:101D50009E918E9190950095109581959F4F0F4F74
:101D60001F4F8D939D937D01EACED7010D931D9357
:101D70007D0114970D911D91E2CED7019E918E9118
:101D80000D931D938C01DBCED7010D931D937D0127
:101D9000D6CE42E068E003C041E069E08824C80193
:101DA00070E050E007DE092D182DAFCE41E0D701DD
:101DB00011978E9004C042E0D7018E909E90C8018A
:101DC0001E910E9168E070E050E07D010E94E103F9
:101DD0009CCED7010D931D9386017D01B0CE0F5F80
:101DE0001F4FADCEFE01F695E7950994D8010C91F1
:101DF0001127A5CED70111978E91F8011E910E9152
:101E00007D0180839CCED8010D911C9198CED70185
:101E10009E918E91F8011E910E917D018193908388
:101E20008ECEC8010E94850AC1CEC8010E94DE0A7A
:101E3000BDCE0E940C079927D7010D931D938C01ED
:101E40007D017DCE0E941C07F6CFEEE5FAE0D701BA
:101E50009E918E917D01B8010995A8CEDF91CF9119
:101E600054CE015010406BCEE4E4FDE051C00E941E
:101E7000140B65CED7019E918E9104C0892F9927AE
:101E8000085F1F4F08301005C8F702C09695879568
:101E90000A95E2F78C017D0152CED7019E918E9179
:101EA00004C0982F8827085F1F4F08301005C8F717
:101EB00002C0880F991F0A95E2F78C017D013FCE81
:101EC000C8010E94840580912D0090E0299885E04A
:101ED0008EBDD7011E910E917D0117CEC8010E94C3
:101EE00048058C0180E09EE96FE071E040E052E03F
:101EF0000E94E1030ACEC801D7017E916E914FE0A6
:101F000051E07D010E94D209E1CFE2E0FDE000C096
:101F1000A801D7017E916E919E918E917D010995C8
:101F2000D8CFE1E2FBE093CFC8010E94880CD1CF6B
:101F300006CEC8013BCED7010D931D937D018E01C6
:101F40008DCFD7010D931D937D0123DD182F21DD4A
:101F5000082F84CFC9CDF3CD14CE1CCE27CE2BCEE7
:101F600032CE34CE42CE51CE5CCE72CE80CE9CCE1E
:101F7000A2CEA8CEAECEAFCEAECEB4CEBCCEC2CE6A
:101F8000C7CECBCED1CEDFCEE2CEEFCEF6CEFCCEDC
:101F900000CF02CF0BCF0FCF1CCF21CF23CF26CF27
:101FA00029CF31CF34CF3DCF40CF3FCF42CF4ACFE3
:101FB0004CCF54CF56CF58CF5ACF5CCF6ECF80CFB7
:101FC0008DCF99CFA2CFADCFAFCFB2CFB2CFB3CF5E
:101FD000B8CFECE3F3E224913196E491922F80E0C4
:101FE0002E2F30E0282B392BC901089583E883BDBB
:101FF00083E38093B0008AE08093B1001092B20036
:102000008FE58093B30086E08093B4001092800047
:1020100022E020938100109285001092840086E0D7
:1020200090E0909389008093880020936F005098EF
:102030008AB18A608AB98BB1857F8BB988E0809339
:102040000201E4ECF0E01182108280EC8093C20087
:102050001092C10011821082789413BC08951F92CF
:102060000F920FB60F9211242F938F939F939091FD
:1020700002019730D1F50E940E1182E080936E002C
:1020800080910501882329F58091090187FD07C00A
:1020900080918800909189008A50984E06C0809166
:1020A0008800909189008A539E4E90938900809376
:1020B000880088E0809302018091ED039091EE0307
:1020C00001969093EE038093ED030E945B0CF40D58
:1020D0009CC080918800909189008A5A9F4F90936C
:1020E00089008093880086E025C0933009F441C0C0
:1020F000943028F4913009F1923070F50AC096308E
:1021000009F466C0983009F474C0943009F07DC0B9
:1021100041C08FE28093B30083E08093B40080914C
:1021200088009091890089509F4F909389008093F7
:10213000880081E08093020168C08BE28093B40044
:10214000809188009091890080519F4F90938900E1
:102150008093880082E0EECF10926E00809188001C
:10216000909189008596909389008093880083E000
:10217000E1CF82E080936E009093B400809188005C
:10218000909189008C509F4F909389008093880094
:1021900084E0D0CF8FE58093B30026E02093B40095
:1021A0008FE091E090930401809303011092050168
:1021B000809188009091890089529E4E9093890069
:1021C00080938800209302010E945B0CF40D1DC0D7
:1021D00080918800909189000A969093890080935D
:1021E000880010926E0087E08093020178948895B1
:1021F0000CC08091880090918900875A9F4F9093DE
:10220000890080938800109202019F918F912F91F5
:102210000F900FBE0F901F90189508950F921F9268
:10222000EF93FF930F931F932F93AF93BF93CF938E
:10223000DF9320910501203CB8F5C7EAD1E0277073
:10224000C20FC11D2BEF1F9318E1A0910301B091A4
:10225000040108E0F0E0E8E0F093C600E093C1007C
:102260001D91019FFE011222E00DF11DE49117FF67
:10227000E095E093C6001D91019FFE011222E00D42
:10228000F11DE49117FFE095E093C6001D91019FB9
:10229000FE011222E00DF11DE49117FFE095E0939D
:1022A000C6001350EAF606C0C0910501CF5FC03DDD
:1022B00078F40FC0C73024F0A0930301B093040159
:1022C000C0910501CF5FC03C20F0F0910901F7FFFC
:1022D000C0E0F091C000F5FFFCCFA0E0A093C100EA
:1022E000C03C51F4E0918800F0918900E85DFF4F17
:1022F000F0938900E0938800C09305011F91DF915E
:10230000CF91BF91AF912F911F910F91FF91EF91BD
:102310001F900F9008950000DC01CB01FC01F9999A
:10232000FECF06C0F2BDE1BDF89A319600B40D9221
:0C23300041505040B8F70895F894FFCFDA
:10233C006D23046B65726E0000633E1C1601635ABC
:10234C00161D1C010008321B010008330D2EA701BD
:10235C008765786563757465633E635C0281696348
:10236C005C636921856C65617665636963700F8355
:10237C00616E646370637B0C826F72637B63840D2C
:10238C0083786F726384638C0E823E3E638C63959C
:10239C0032823C3C6395639D33823B73639D63A5A2
:1023AC002E82723E63A563AD11823E7263AD63B53E
:1023BC0013817263B563BD1282303D63BD63C41477
:1023CC0082303C63C463CC15812B63CC63D41682FE
:1023DC00642B63D463DB17856D696E757363DB6384
:1023EC00E31886646D696E757363E363EE19846F2D
:1023FC0076657263EE63FA1A8464726F7063FA64C2
:10240C00040384737761706404640E1B83647570B9
:10241C00640E64181C8140641864211D826340643E
:10242C002164281E81216428643020826321643059
:10243C0064371F82752A6437643F0982752F643FA5
:10244C0064470B84656D69746447644F28836B65BE
:10245C0079644F64592C85696E6B65796459646233
:10246C002B84706C6F746462646D3882312B646D74
:10247C0064772285636D6F76656477647F378466D5
:10248C00696C6C647F648A3083696340648A649489
:10249C0024836963216494649D25826940649D64EE
:1024AC00A62682692164A664AE27863E706F72747C
:1024BC003E64AE64B60A8373706964B664C23982D2
:1024CC00312D64C264CB2F82617464CB64D32D83B1
:1024DC00636C7364D364DB31842E68657864DB646D
:1024EC00E42A846564697464E464EE3484626C6B1D
:1024FC003E64EE64F835843E626C6B64F8650236BB
:10250C008574726163656502650C3A026372650CD1
:10251C00651701000D282E05636F756E74651765C0
:10252C00231C221B1E2E047479706565236532678B
:10253C00EF04654D1A161B08211E28066544056517
:10254C004E032E0573706163656532654F662A28EC
:10255C002E06737061636573654F655D66056D89E5
:10256C0067EF04657966050865590665742E0428BD
:10257C002E2229655D657A12652D1C2211161365B4
:10258C003B2E422E22657A658E01002266FA1D04CE
:10259C0065AD695F65836AEC67691E2267770565BF
:1025AC00B56AEC6769652D653B2E056572617365CF
:1025BC00658E65B66605302E06626C616E6B736552
:1025CC00B665C4662A302E0376617265C465D3691C
:1025DC00A2678269C0102E05636F6E737465D36534
:1025EC00E30565F3101D2E01003D6B8B698E679121
:1025FC0067822E013065E365FF3D0000013165FF08
:10260C0066083D00010132660866113D0002013387
:10261C006611661A3D000302626C661A66233D0061
:10262C0020047672616D6623662D3D010F05636C87
:10263C006F636B662D66393D03ED077379737661B5
:10264C007273663966463D03DF0269276646665536
:10265C003D000A0272706655665F3D005D02737044
:10266C00665F66693D000E03737030666966733D84
:10267C0003EF8022001F00018082800C800C70CF41
:10268C00037469626673668C3D80000577696474B7
:10269C0068668C66973D8002077761726E696E671B
:1026AC00669766A43D800402647066A466B33D80A0
:1026BC000607636F6E7465787466B366BD3D8008FB
:1026CC000763757272656E7466BD66CC3D800A02D6
:1026DC00696E66CC66DB3D8012036F757466DB66D3
:1026EC00E53D801405737461746566E566F03D80A4
:1026FC0016046261736566F066FD3D8018036470B4
:10270C006C66FD67093D801A03666C646709671483
:10271C003D801C03686C646714671F3D801E046257
:10272C006C6B23671F672A3D8020022B21672A6769
:10273C00361B1A1D161B202E06746F67676C656797
:10274C003667441A1E0E1B1F2E02322B6744675528
:10275C006617162E04686572656755676066BA1D44
:10276C002E05616C6C6F746760676D66BA673D2E81
:10277C00012C676D677C676920661767772E02638B
:10278C002C677C678A67691F660E67772E012D6739
:10279C008A679918162E013D679967A2679F142EB8
:1027AC00013C67A267AC679F15002E00013E67AC29
:1027BC0067B81B67B22E03726F7467B867C2131BBE
:1027CC00111B2E043264757067C267CF1A1A2E0360
:1027DC006E697067CF67DB1B032E043F64757067EF
:1027EC00DB67E61C0467F41C2E02753C67E667F594
:1027FC0067D80E150468071B03152E679F152E0648
:10280C006C617465737467F5680B66D81D1D2E07B3
:10281C007066613E636661680B681B1C68401E0134
:10282C0000800C0468331E2E077066613E6E666174
:10283C00681B68346617679F1D2E076E66613E6CB9
:10284C006661683468461C1E01001F0C16222E0798
:10285C006E66613E7066616846685B685201000492
:10286C00162E0369642E685B686E1C221B1E010009
:10287C001F0C653B65592E076D6573736167656841
:10288C006E688365830645727220232070062E05C0
:10289C006572726F726883689B66B01D150468AEB2
:1028AC006CEE6769652D653B6583023F20688F6C14
:1028BC00CC063F6572726F72689B68BD1B0468CE54
:1028CC0068A5032E053F636F6D7068BD68D066FA0E
:1028DC001D1401001168C82E053F6578656368D02A
:1028EC0068E466FA1D01001268C82E063F70616923
:1028FC00727368E468F7679F01001368C82E413A49
:10290C0068F7690A68EE6B8B697C2E413B690A6932
:10291C0017695F002E698E69702E09696D6D65648B
:10292C0069617465691769266816010040674F2E46
:10293C0002782C6926693C1C01FF000C0469506765
:10294C008205695267912E07636F6D70696C6569BA
:10295C003C695368DA111C1D6943675C132E415B9B
:10296C006953696A660566FA202E015D696A6976A3
:10297C0001004066FA202E06736D756467656976F2
:10298C0069836816010020674F2E073C6275696CDD
:10299C006473698369966B8B698E660567822E45B5
:1029AC00646F65733E699669AB0169C0678201000B
:1029BC001067912E1168166867202E412869AB6943
:1029CC00C70100296AEC2E0368657869C769D301D1
:1029DC0000106706202E07646563696D616C69D30E
:1029EC0069E201000A6706202E056469676974694B
:1029FC00E269F513010030679F0100091A67B20400
:102A0C006A1A010007679F1C01000A67B20D1C11AE
:102A1C0067FC2E08286E756D6265722969F56A1F50
:102A2C00221C131E67061D69FF046A561B67061DD0
:102A3C00090367CA67061D091767111D22046A522C
:102A4C00660E6711673D11056A2C03112E066E7513
:102A5C006D6265726A1F6A596605660567CA1C2233
:102A6C001E01002D67A81C13679F01FFFF67112033
:102A7C006A2C1C1E662A679F046A971C1E01003A6A
:102A8C00679F660568C86605056A790311046A9D27
:102A9C00192E07656E636C6F73656A596A9E131CF9
:102AAC001C1C1E662A67A8046ABA22056AAD67D880
:102ABC001B679F67CA67CA1C1E046AD41C1E126758
:102ACC009F046ADB22056AC31B679F1C11032E112E
:102ADC00031B679F1C222E04776F72646A9E6AE345
:102AEC0066941D66E21D161B6AAA676901002265C1
:102AFC00CF66E2673D1A679F131267691F166769F5
:102B0C002211372E67CA67CA1A1E1A1E679F046BDA
:102B1C002003032E67CA660E679F1C046B3767CAB7
:102B2C00660E1667CA660E16056B1467E367E32E0E
:102B3C00052D66696E646AE36B3C662A6AEC67690C
:102B4C0068161A1E1A1E01002F0C67A8046B6B1A4C
:102B5C00221A1C221B1E01001F0C6B10046B7568C3
:102B6C00521D1C046B7F056B4E67E31C68671B1EB4
:102B7C0001FFFF2E066372656174656B3C6B806BA5
:102B8C0046046B9E0368406876010004688F6559A3
:102B9C0067691C1C1E66A11D6D771C2267770100DE
:102BAC00200D1A1F68166782678266D81D202E4971
:102BBC005B636F6D70696C655D6B806BBB6B461492
:102BCC00660568C803682769432E476C697465728B
:102BDC00616C6BBB6BD666FA1D046BEE695F000112
:102BEC0067822E48646C69746572616C6BD66BEF8E
:102BFC0066FA1D046C071B6BE26BE22E066578709F
:102C0C006563746BEF6C081A16131C66051A1F2C7F
:102C1C001C01000767A8046C38031A1A67B2046C0D
:102C2C0035660E679F01000728056C171A1267B2EC
:102C3C001A01000D67A8140C046C4E1C281A1F22D4
:102C4C00660501000D67A8046C1711030303655991
:102C5C002E406C086C5D01802266942011032E09B5
:102C6C00696E746572707265746C5D6C6B6B460426
:102C7C006C9701007F0C66FA1D67B2046C91682793
:102C8C006943056C79682702056C796A6467111DC4
:102C9C0022046CA56BFC056C79036BE2056C790561
:102CAC0071756572796C6B6CAB66941D0100506C20
:102CBC0013660566E2202E04717569746CAB6CC3E7
:102CCC006970651E6CB56C7966FA1D14046CE1654F
:102CDC008303204F4B056CCE0561626F72746CC31D
:102CEC006CE4667B66702069EE651E65831E464942
:102CFC00476E6974696F6E200D7F6E696368656DD0
:102D0C00616368696E657320323031316CCC046359
:102D1C006F6C646CE46D1A01667E01800001000E1C
:102D2C00376CEE04732D3E646D1A6D2F1C152E023C
:102D3C002B2D6D2F6D3B15046D47182E03642B2D19
:102D4C006D3B6D4815046D55192E036162736D480A
:102D5C006D561C6D422E04646162736D566D621C5F
:102D6C006D502E036D696E6D626D6F1A1A67BE041D
:102D7C006D7F1B032E036D61786D6F6D811A1A6761
:102D8C00B2046D911B032E026D2A6D816D931A1A7C
:102D9C000E136D5E1B6D5E09116D502E012A6D9325
:102DAC006DA809032E052A2F6D6F646DA86DB113E4
:102DBC006D9A116DD52E022A2F6DB16DC26DBB1B94
:102DCC00032E026D2F6DC26DCE1A13136D6B126D27
:102DDC005E0B11120E6D421B116D421B2E042F6DDA
:102DEC006F646DCE6DE9136D38116DD52E012F6D9D
:102DFC00E96DF96DF21B032E036D6F646DF96E04B2
:102E0C006DF2032E056D2F6D6F646E046E101366DC
:102E1C0005120B111B130B112E41276E106E256B17
:102E2C004614660568C8036BE22E046261636B6E20
:102E3C00256E3667822E45626567696E6E366E4208
:102E4C0068DA6769660E2E45656E6469666E426E59
:102E5C005368DA6617690267691B202E447468652B
:102E6C006E6E536E686E5D2E42646F6E686E746922
:102E7C005F0008676966202E446C6F6F706E746E0D
:102E8C008466206902695F00066E3F2E452B6C6FCD
:102E9C006F706E846E9866206902695F00076E3FE2
:102EAC002E45756E74696C6E986EAD660E6902690E
:102EBC005F00046E3F2E43656E646EAD6EC26EB7DE
:102ECC002E45616761696E6EC26ECD660E690269D0
:102EDC005F00056E3F2E467265706561746ECD6E37
:102EEC00E213136ED711116617679F6E5D2E426940
:102EFC00666EE26EFA695F00046769660567826652
:102F0C00172E44656C73656EFA6F0E66176902694D
:102F1C005F00056769660567821B66176E5D66173D
:102F2C002E457768696C656F0E6F2D6F01675C2E8F
:102F3C0004686F6C646F2D6F3C01FFFF6727673D62
:102F4C0067271D1F2E037061646F3C6F5167690109
:102F5C000044162E023C236F516F606F5967272077
:102F6C002E02233E6F606F6D030367271D6F591A86
:102F7C00679F2E047369676E6F6D6F7F67CA150448
:102F8C006F9301002D6F452E01236F7F6F946706A1
:102F9C001D6E1A67CA0100091A67B2046FAE0100F0
:102FAC000716010030166F452E0223736F946FB510
:102FBC006F9A1A1A0D14046FBC2E03642E726FB51F
:102FCC006FC6131B1A6D6B6F676FBC6F886F7411B4
:102FDC001A679F6568653B2E02642E6FC66FE466A8
:102FEC00056FCE65592E022E726FE46FF2136D3899
:102FFC00116FCE2E012E6FF270006D386FEB2E011B
:10300C003F7000700B1D70062E046C6F6164700BAA
:10301C007015019E0066941C1D1320660566E21C4B
:10302C001D132067331D131C673320356605019F64
:10303C00F41F6C79111166E220111C669420019D1D
:10304C00FF67BE04705E1C673320356605019FF474
:10305C001F2E032E046D6F7265701570600103DFF7
:10306C0026663601023E1667BE0470846583066DC3
:10307C006F72653E3E2C03312E05766C697374704D
:10308C0060708531681670691C687668521D67EF30
:10309C00140470922E06666F72676574708570A149
:1030AC006B460470C00368401C66BA2068521D66EB
:1030BC00D81D202E032E0370656E70A170C2010006
:1030CC003E252E046C69737470C270CF35032E00CC
:0630DC00000000000000EE
:00000001FF
:000000