:100000000C947C000E94B9050E94B9050C94B50CB3
:100010000E94B9050E94B9050E94B9050E94B90560
:100020000E94B9050E94B9050E94B9050C94A50A61
:100030000E94B9050E94B9050C9410060E94B905EA
:100040000E94B9050E94B9050E94B9050E94B90530
:100050000E94B9050E94B9050E94B9050E94B90520
:100060000E94B9050E94B905D2313233D234352D00
:100070002EDE2C213AAB3B226162736364657366AA
:100080006D6E6F7A7071727AC3363738C339302B20
:100090002ACD2F2428CD293D676873696A6B736C5C
:1000A0007475767A7778797A007C402300345F7EA5
:1000B0007F00253F7B607D274142534344455346A3
:1000C0004D4E4F5A5051525A0036373800393C3E47
:1000D0005E005C605B005D26474853494A4B534CC9
:1000E0005455565A5758595A080B0907000A200DFB
:1000F0000E110F1B0010A08D11241FBECFEFD4E0F6
:10010000DEBFCDBF11E0A0E0B1E0E2EEF7E302C058
:1001100005900D92A230B107D9F714E0A2E0B1E04A
:1001200001C01D92A030B107E1F70E94010D0C94AF
:10013000600F0C9400002A9885E00E9405060E943A
:100140000A062A9A08950E949B0080FDFCCF08951C
:100150002A9886E00E9405062A9A0895CF93DF9395
:100160002A988FE90E9405060E940A0690E08F37C0
:10017000910519F40E940A0690E08733910559F41D
:100180000E940A06D82F80E0C82F0E940A0690E03D
:100190008C2B9D2B02C08FEF9FEF2A9ADF91CF917E
:1001A00008950F931F93CF93DF93182F092F0E9469
:1001B000AE009C01207080E22030380719F0C0E2C8
:1001C000D0E002C0C8EDD0E00E94A8002A988C2F91
:1001D0000E940506802F0E940506812F0E940506B9
:1001E00080E00E9405062A9A0E94A300DF91CF9129
:1001F0001F910F910895EF92FF920F931F93CF934A
:10020000DF930F92CDB7DEB7E82E8B012A9883E0FB
:1002100099830E9405069981892F0E9405068E2DDB
:100220000E94050680E00E940506E12C81E0F82E80
:100230000E940A06F80181938F010894E108F108F1
:10024000E114F104A9F72A9A0F90DF91CF911F9141
:100250000F91FF90EF900895EF92FF920F931F93ED
:10026000CF93DF930F92CDB7DEB7E82E8B01998342
:100270000E94A8002A9882E00E9405069981892F91
:100280000E9405068E2D0E94050680E00E9405064C
:10029000E12C91E0F92EF80181918F010E94050671
:1002A0000894E108F108E114F104A9F72A9A0E94E0
:1002B000A3000F90DF91CF911F910F91FF90EF90CE
:1002C000089583958894982F82E092FF80E291FDB3
:1002D00002C0880F880F90FF880F90E0891F089553
:1002E00098E0890288E692E0800D911D112408951E
:1002F000887F962F9770890F99278851914174E1D3
:10030000687F679F800D911D11240895695F687F44
:10031000795F769576957695679F9C01CA01A001D5
:10032000DFDFBC01C90111240C94E10690910D019D
:1003300090931901890F80931A0190910B0190936A
:100340000C01690F60931B010895E42D1C15E8F45E
:100350002DB527FFFDCF2EB52EBD2D9321961395DC
:100360001C15B0F31F1500F500C000000EC02DB520
:100370002EB52EBD24233885369D15222125399191
:10038000369D052220252D9313951E1780F3E42D0D
:10039000E760E3951E17A8F4EF1508F0EF2D1F1581
:1003A00018F4C30DD51DE3CFE760E3952DB527FF06
:1003B000FDCF2EB52EBD2D93219613951E17B0F3AC
:1003C0004F10C319D5095A2D4F2F1850085008F057
:1003D000BCCF093F20F000275B214829B6CF089504
:1003E000FF91EF912F923F924F925F926F927F9287
:1003F0008F929F92AF92BF92CF92DF920F931F93F3
:10040000CF93DF93EF92FF920994FF91EF91FF90CA
:10041000EF90DF91CF911F910F91DF90CF90BF9020
:10042000AF909F908F907F906F905F904F903F9094
:100430002F90112409945524D0900D016D2CED2C92
:1004400020911901D21608F4D22E9D2D987FDE2D11
:10045000D87F9D1BCE2DC77009F48395C0900B01EA
:10046000FC2C3324E60EE0920D01695F687F762E46
:100470003F2D3770432E19F028EF260F322E3C2DDA
:1004800020910C01C21608F4C22ECC2DC87F1C2F5F
:10049000410EDF2DD87FCD1B4112C850C595C595A3
:1004A000C595C602E001C90FD51D98E0989FC00D03
:1004B000D11DC05ADD4F20911A012E1508F4E22EED
:1004C000A0E0B4E087E08E0D887F9D2D987F891B8A
:1004D000A81BB0403F2D31953770C30FC51DF70ED7
:1004E00020911B012F1508F4F22E862DEBDE682ECD
:1004F0008D2DE8DE8A9509F48FEF982E8E2DE2DEA1
:100500008195B82E2FEFA22E8D2D6C2D687FF0DEF9
:10051000CC010D2D087F0195E00E0895FFEF2F2EE1
:10052000822C2F932DB527FFFDCF299A0000299803
:100530000E94E8052F916C2F7A2F592D422D0E2DF8
:1005400045DF6C1B6195C61BD0407A1B7195A71BBC
:10055000B040C70DD51D472F5527BD010E94B406D9
:1005600080569F4F28E0420E4F1408F04F2C185F22
:100570001F15B8F2089534DF5EDF08F4CFDF45DFE2
:100580000895B8019E918E917D012ADF54DF08F411
:10059000C5DFA0911C01A0930D01A0911D01A093A6
:1005A0000B01BF91AF917E916E9111978E91AF9398
:1005B000BF9341DF08F4B2DF28DF089511DF7F9396
:1005C0006F9390910D019F938F932F934F934F9320
:1005D00032DF30F4292C2094FF278B2C8094A1DF6C
:1005E000CDB7DEB78C816E817F814F9141507AF714
:1005F0004F912F9121504AF09D8190930D01909140
:100600000B01970F90930B01E0CF8F919F916F910A
:100610007F91FBDE089583B7816083BF1092C10094
:1006200080E187B93D98459A8AB18E7B8AB98BB1B2
:1006300081648BB91EBA0E94F4030E94F7050E94E0
:10064000DF051EBA10926B00109268000895299A77
:100650008CB58F7B8CBD8091840090918500019634
:100660002DB52EB52091840030918500AC01421B40
:10067000530B57FFF5CF8CB580648CBD0895282FA0
:10068000982F82FD05C081E021FD03C080E001C0FC
:1006900082E093FD83E094FD84E095FD85E096FD86
:1006A00086E027FD87E008951F93CF93DF93C091E5
:1006B0000501D09106011091090190911601891749
:1006C00001F5CE01837090708230910520F0809109
:1006D000070187FF08C0C130D10509F081C08091B2
:1006E0000701863024F081508093070179C086E0AD
:1006F0008093070185E090E09093060180930501C7
:100700006FC080931601C130D10559F0C130D105B9
:1007100058F0C230D10571F0C330D10509F055C091
:100720002AC0882309F459C00E943F03809309011D
:1007300022964BC0882309F58091070187FD4DC0A3
:10074000E0910801143029F481E08E1B80930801A8
:1007500044C0F0E033E0EE0FFF1F3A95E1F7E10F00
:10076000F11DE851FF4FE491E0930A011092080156
:10077000C4E0D0E02AC0882381F1C091080121E0C3
:1007800030E0012E02C0220F331F0A94E2F7821BD1
:100790000E943F03EC2FF0E093E0EE0FFF1F9A95CD
:1007A000E1F7E10FF11D23E0EE0FFF1F2A95E1F7BE
:1007B000E80FF11DE859FF4FE491E23D21F0E0938D
:1007C0000A0110920801C5E0D0E080E180930701A2
:1007D000D0930601C093050103C0C0E0D0E0F5CF7F
:1007E000DF91CF911F91089587B1807F87B988B13C
:1007F0008F6088B957985F9A2098289A08958091B9
:100800000301882351F486B180958F708093020193
:100810002098289A579A5F980EC096B190959F702D
:10082000809102018295807F892B809302015798E5
:100830005F9A209A2898809103018F5F817080933E
:1008400003018091020108950E94FF03909103012A
:10085000992349F490910401891719F40E945403D3
:1008600008958093040108952091050130910601B7
:1008700022FF08C080910A012B7F3093060120934C
:100880000501089580E00895F09B0DC090910D0141
:1008900090931C0190910B0190931D01685C6093F3
:1008A0000B01885C0AC099E1699FB0011124685D61
:1008B0007E4F70930C0160930B0180930D0108959E
:1008C000A8E2B1E059968C915997FD018193DF011F
:1008D00083E0E736F807B0F302C0819301C080E2FD
:1008E00093E0E038F907C8F380910B0190910C0177
:1008F000499790930C0180930B010895CF93DF9358
:10090000EC0103C081E00E94600480910B01909192
:100910000C018C179D07B0F7DF91CF91089590E0FF
:1009200023E0880F991F2A95E1F78154954E68E0DE
:1009300078E040E30E94860180E368E078E040E0F0
:1009400020E00E94DE0280910D01883D60F08091E0
:100950000B01885F80930B0198E390930D01883D14
:1009600010F010920B010895CF93DF93EC01F09BF0
:1009700003C00E948F042BC08D30910529F489E1BA
:1009800080930D01C0E0D0E080910D01893158F0D5
:1009900010920D0180910B0190910C01499690935A
:1009A0000C0180930B0180E893E00E947E04209765
:1009B00071F080910D01E0910B01F0910C01E80FB5
:1009C000F11DC08380910D018F5F80930D01DF9138
:1009D000CF9108950F931F93CF93DF93EC0184E29F
:1009E0000E94A40600E010E09D2F92959F70892F31
:1009F000805D81332CF4133039F0002341F005C0C1
:100A00008A3314F0892F895A01E00E94A40634E049
:100A1000CC0FDD1F3A95E1F71F5F143029F780E214
:100A20000E94A406DF91CF911F910F9108950F931B
:100A30001F93CF93DF93182F803AC8F5603AB8F52B
:100A4000685C885C0E947801EC01812F0E94610142
:100A50000AB401FC02C000E001C0082F0AB400FC87
:100A600002C010E001C0182F84E00DB407FC02C0E2
:100A70008150D9F78EB5299A00002998CE010E949D
:100A8000E8050DB407FEFDCF9EB5812F892B202FE1
:100A900020958223909590239123892B80930E019A
:100AA000CE016EE071E041E050E00E94D906DF9196
:100AB000CF911F910F910895823308F051C0603398
:100AC00008F04EC0262F269599E1299F9001112408
:100AD000982F9695290F311D60FF02C098E001C044
:100AE00092E080FD96950AB401FC02C050E001C07E
:100AF000592F0AB400FC02C040E001C0492FF9019F
:100B0000E85DFE4F8081803A21F0282F2877203140
:100B100021F4877887FF05C002C080E002C02FE87B
:100B20008227392F30953523242F252B2095232BF1
:100B30002823352F309539233423232B9423809574
:100B40009823292B23FF02C08FE82827322F305FFC
:100B5000832F90E087709070009709F4305F3083A6
:100B60000895F09B03C00E94170508950E945C053C
:100B7000089578949F939FB79F938F93FF93EF93DC
:100B8000EDB7FEB78781869582500E9461019781FB
:100B900094311CF48093220107C094321CF480939A
:100BA000230102C0809324019F9196839F91978394
:100BB0008F919F919FBF9F91EF91FF9108952998E9
:100BC00081E00E94050681E40E940506299A0895A5
:100BD00023E02EBD0DB407FEFDCF9EBD0DB407FE74
:100BE000FDCF8EBD0DB407FEFDCF1EBC089584B1B0
:100BF000817C8E6284B985B1817C866085B98DB532
:100C000081608DBD80E58CBD08958EBD0DB407FE5D
:100C1000FDCF08951EBC0DB407FEFDCF8EB508951F
:100C200078948F938FB78F939F9380911F018A95AC
:100C300080931F0171F090E280FD91E297BD909149
:100C40001E010894979590931E0182E828F482EC87
:100C500003C080E085BD82E084BD9F918F918FBFEE
:100C60008F910895CF93DF93CDB7DEB7EF93FF93C6
:100C70002F933F934F935F936F937F938F939F93A4
:100C8000AF93BF930F921F921FB61F921124FB8147
:100C9000EC81EE0FFF1F25913591F695E795EC83DA
:100CA000FB83F901F695E79509951F901FBE1F90EC
:100CB0000F90BF91AF919F918F917F916F915F91B5
:100CC0004F913F912F91FF91EF91DF91CF91089537
:100CD0000F931F93CF93DF93EC010E942703E881CA
:100CE000F0E0998190958081892380830CC0EA810E
:100CF000FB818191FB83EA830E9405068C819D81A3
:100D000001979D838C838C819D81009781F70DC015
:100D10000E811F810E940A06F8018193FF83EE83F2
:100D2000888599850197998788878885998500970F
:100D300079F7E881F0E080819981892B8083DF91C8
:100D4000CF911F910F91089599270C94B404D7FD6A
:100D500004C0FE018591219606C021968DB587FFBE
:100D6000FDCF8EB58EBD0895EF93FF93E42FE52B55
:100D7000E9F0FB017DB577FFFDCF299A00002998A6
:100D800062E06EBD7DB577FFFDCF9EBD7DB577FF7F
:100D9000FDCF8EBDF03110F0659101C061917DB540
:100DA00077FFFDCF6EBD41505040A1F7FF91EF910D
:100DB0000895EF93FF93E42FE52BC1F3FB01299AEC
:100DC000DDCF97FF1BC06F936DB567FFFDCF299AED
:100DD0007F934F935F9329980E94E8059F918F918D
:100DE000BF91AF9101C06EBD6DB567FFFDCF6EB510
:100DF0006D930197C1F7299A6EBD0895FC01DB013F
:100E0000CA0145914D930197E1F70895FF91EF9144
:100E100020F42197332444245524DF93CF93EF9378
:100E2000FF93C0912001D0912101E2E2F1E00D9306
:100E30001D93F8940281128278940D931D92F89478
:100E4000008110827894F8941181118278942DB5E4
:100E500027FFFDCF299A00C000C0299800C003C019
:100E60002EBD089403C023E02EBD8894209122015A
:100E700030912301232B30912401232B39F62DB5FA
:100E800027FFFDCFDEBD24E0A030B207A8F02DB7CC
:100E90003EB728523040A217B30788F42DB527FF7C
:100EA000FDCFCEBD309116013639F79B59F02DB5E7
:100EB00027FFFDCFCEBD08950FEE14E605C00BEF62
:100EC00014E602C006E015E62DB527FFFDCF299AEE
:100ED00024E0F8942EBF2FEF2DBF78946E01A0E090
:100EE000B4E08CE095E6B0C0299A8EBD08956C0CF4
:100EF0007D1C8C0C9D1CA6014830510508F048E073
:100F0000641A7108841A9108A42E50E0C3016EE09F
:100F100071E057DFC4016EE071E04A2D50E024DF3C
:100F2000CA18D10841F72CC04115510581F1903103
:100F300078F1703198F1DF92CF92AF929F928F92B9
:100F40007F926F926A013C014B018617970778F2F6
:100F5000A6014830510508F048E0A42E50E0C30136
:100F60006EE071E02EDFC4016EE071E04A2D50E0CA
:100F7000FBDE6A0C711C8A0C911CCA18D10841F75F
:100F80006F907F908F909F90AF90CF90DF9008955B
:100F9000703130F0FC01CB01BF01E6CE12DF0895C5
:100FA000FC01DB01CA01EA17FB0728F061916D9390
:100FB0000197E1F70895E80FF91FA80FB91F629193
:100FC0006E930197E1F7089529988EBD05D08DB5F0
:100FD00087FFFDCF299A08956115710529F1903198
:100FE00020F1DF92CF92BF92AF926C015B0168302B
:100FF000710508F068E070E0AEE0B1E017D0C6011E
:1010000048E050E0A416B50608F4A501A41AB50AF4
:10101000C40ED51E6EE071E0A7DEA114B10479F70D
:10102000AF90BF90CF90DF900895DC01CB014D933E
:101030000197E9F708950DB407FEFDCF299A0895A9
:101040000E94A20AA0E0B4E0EC014424552480E010
:1010500090E029980E94E8058DE59AE03C01D7FFD1
:1010600052C08DB587FFFDCF299A23E02998FCDE79
:1010700032C0D7FF27C08DB587FFFDCF8EB5299A27
:10108000C80FD11D87FF11C0DA95C415D50531F4FD
:10109000219623E02998E4DE832D23C02E0123E04E
:1010A0002998E2DE54DE382E1CC023E02998DCDECD
:1010B00012C0CDB5C7FFFDCFCEB5299A23E0299840
:1010C000D3DE09C0FE01849187FDDA95C80FD11DDA
:1010D0001AC0D7FF18C021968DB587FFFDCF8EB5FA
:1010E0008EBD853420F4F301E80FF11D099421969B
:1010F000DF93CF93D82F87FDDCCFCDB5C7FFFDCFD2
:10110000CEB5299ACEBDFE0185912196853420F475
:10111000F301E80FF11D09942196DF93CF93D82FA7
:10112000C591F1CFC8011E910E918534910580F3D0
:10113000DF93CF93EC0193CF0D931D9310E000E06C
:10114000C8CF90E002C003DE982F0D931D93FFDD02
:101150008C01BFCF1E910E91BCCF012B1E910E9121
:1011600061F487CFF60131966F01CA14DB040AF4EB
:1011700080CFCF90DF90AF90BF90E9DDAACFF6018E
:10118000E00FF11F6F01EA19FB09F1271E910E9183
:10119000F7FDEECFEECFBF92AF92DF92CF92680114
:1011A000BE90AE901E910E9194CF7E916E91442789
:1011B000069F4001169F612D900C641F079F900CA5
:1011C000611D179F712D600D741F8B018D929D9273
:1011D00011247FCF11978E9111976E91F801F89499
:1011E00000818023862B80837894112772CF9E9173
:1011F0008E917E916E918017910798F441E107C01E
:10120000881F991F8017910710F0801B910B661F94
:10121000771F4A95A9F7609570958D939D938B01E3
:1012200058CF8FEF9FEFF9CF9E918E91082319230E
:1012300050CF9E918E91082B192B4BCF9E918E9162
:101240000827192746CF650144CF0D931D930F91B1
:101250001F913FCF0D931D93EDB7FEB70181128112
:1012600038CF1F930F931E910E9133CF012B09F0AE
:101270000FEF0095102F2DCF002717FD0095102F91
:1012800028CF109501951F4F9E918E91080F191F21
:1012900020CF9E918E917E916E915E914E91840FA2
:1012A000951F061F171F8D939D9313CF10950195C2
:1012B0001F4F0FCF9E918E9190950095109581951F
:1012C0009F4F0F4F1F4F8D939D9303CF9E918E91F4
:1012D00012960D931D938C01FCCE9E918E910D93D1
:1012E0001D938C01F6CE0D931D93F3CE42E068E082
:1012F00003C041E069E08824C80170E050E07D014E
:1013000060DDD701092D182DAACE41E011978E90EE
:1013100003C042E08E909E90C8011E910E9168E03D
:1013200070E050E021DD9BCE0D931D938601D1CE60
:101330000F5F1F4FCECEFE013196F695E7950994CB
:10134000F80100811127C5CE11978E91F8011E91E9
:101350000E918083BECE0D931D93009117011091C5
:101360001801080F111D0895F2DCF5DFF801F8945B
:10137000019110817894ADCEEADCEDDF9E918E91E3
:10138000F8011E910E91F894819390837894A1CEE8
:10139000C8017D010E94B404D701F09BDBCE60C080
:1013A000C8017D010E94EA04D701F09BD3CE58C04A
:1013B000E4E4F4E0B8014FC0CF91DF9150CE01508A
:1013C000104087CEECEEF7E043C09E918E9104C0B2
:1013D000892F99270850104008301105C8F702C01E
:1013E000969587950A95E2F78C0173CE9E918E9122
:1013F00004C0982F88270850104008301105C8F7FE
:1014000002C0880F991F0A95E2F78C0162CEEBEFBC
:10141000F0E0B8019E918E917D010DDE099529982D
:1014200085E08EBD1CC0ECE2F1E0F3CFE1EDF0E031
:10143000C801F2CF7D01FFDD0E94AE00D7010D9300
:101440001D938C01299885E08EBD09CEE4E9F7E073
:10145000A8017E916E919E918E917D010995D70193
:101460001E910E91FCCDE1EBF5E0A4CFC8017D010A
:101470000E946806D701F4CF2CCEC8016BCE0D9325
:101480001D938E0199CF0D931D9361DC182F5FDCA6
:10149000082F92CFE6E8F1E0DBCFEBEBF2E08ACF6A
:1014A0000E94C102E7CFEEEDF2E098015E914E910D
:1014B000D0CFE6E9F1E07ECFC3CD0BCE44CE32CE25
:1014C00049CE4BCE4ECE4ECE5ACE65CE6ECE82CECD
:1014D0008ECEAACEAECEB2CEB6CEB7CEB6CEBACE27
:1014E000C0CEC4CEC9CED0CED4CEE0CEE3CEEECEEA
:1014F000F4CEF9CEFBCEFDCE08CF0BCF15CF18CF53
:101500001ACF1ECF21CF32CF39CF42CF2DCF48CFE8
:1015100013CE17CE4DCF50CF52CF54CF2DCF55CF66
:1015200065CF75CF80CF92CF9ECFA0CFA5CFA5CFCF
:10153000A6CFA9CFAFCFB1CFB3CFB5CFBACFA1CEC2
:1015400075CF78CF89EB9AE608951F920F920FB668
:101550000F9211248F939F9380912701873009F078
:101560003FC00E949C0B80910001882371F58091FF
:10157000070187FD07C080918800909189008E52F5
:10158000974E06C080918800909189008654914FB3
:101590009093890080938800F09B0AC08091880016
:1015A000909189008051964F909389008093880094
:1015B00088E0809327018091250190912601019672
:1015C000909326018093250183C08091880090919B
:1015D000890081569F4F9093890080938800A5C011
:1015E000833009F43FC0843028F48130F9F0823030
:1015F00070F50AC0853009F46FC0853008F441C029
:10160000883009F092C085C08FE48093B30085E0F4
:101610008093B4008091880090918900845B9E4FF4
:10162000909389008093880081E00EC089E48093C4
:10163000B400809188009091890080579E4F9093CC
:1016400089008093880082E0809327016EC080919A
:10165000880090918900CE969093890080938800AD
:1016600083E0F2CF85E08093B40080918800909170
:1016700089008A569E4F909389008093880084E069
:10168000E3CF8EE98093B3008BE08093B400F09BAE
:101690000FC080E1809300018091880090918900C3
:1016A00083509D4E909389008093880085E00DC003
:1016B000109200018091880090918900855F914F80
:1016C000909389008093880087E080932701789425
:1016D0000E943206480829C08091880090918900B4
:1016E00082509B4F909389008093880087E080937D
:1016F000270180916B00826080936B00809168006D
:10170000816080936800D89A299B0FC02998299AF4
:101710000CC080918800909189008D569F4F9093C6
:10172000890080938800109227019F918F910F90DC
:101730000FBE0F901F9018950F921F92EF93FF937B
:101740000F93AF93BF93CF93DF93E4E8F0E0008073
:101750001080C081D08103940081A081B081E0819C
:10176000C01529F0D01541F0E01579F40EC0101421
:1017700031F0A01541F407C0B01521F403C00015E5
:1017800021F403C000C0000000C000918800025F87
:10179000A091840000C00000A017D2F3D0910001F6
:1017A000D03CA0F5F39998C0A9E1BD2FB695B695A8
:1017B000B695AB9FA8E2B1E0A00DB11DD7701F9305
:1017C00018E108E0F0E0E8E0F093C600E093C10023
:1017D000ED91CE2FEF770E9F0D0EE03130F0EFEB55
:1017E000FAE1E00DF11DE49106C0E0E8F3E0E00D60
:1017F000F11DE08100C0C7FDE095F091C000F5FF4C
:10180000FCCFE093C60011501AF73CC01F93E09143
:101810000801E0FDE0E4F0910901FF0FFF0FFF0F69
:10182000EF0FF0E0D3FDEC5FA8E6B0E0AE0FBF1F16
:10183000EFEBFAE1CD2FC770D0E0CE0FDF1F10E045
:10184000E8E0E093C100FD010491003208F400E2F9
:10185000E8E0F02FFF77EF9FFE01E00DF11D04900F
:1018600007FF0094F091C000F5FFFCCF0092C60086
:1018700011961F5F143038F3D0910001DF5FD03D27
:1018800048F409C0D0910001DF5FD03C20F0F09116
:101890000701F7FFD0E0F091C000F5FFFCCFA0E01A
:1018A000A093C100D03C51F4E0918800F0918900F0
:1018B000E85DFF4FF0938900E0938800D09300012A
:1018C0001F91DF91CF91BF91AF910F91FF91EF9158
:1018D0001F900F90089500001F93F49B3DC0A8E255
:1018E000B1E008EC11E0F801D3FD8D01D3FDDF017B
:1018F000F0E0D770AD0FBF1FE4E1DE9FE801C00D3F
:10190000D11D14E1E8E0F093C600E093C1000DB5ED
:1019100007FFFDCF0EB50EBD0993EC91189600910F
:10192000C00005FFFCCFE093C6001A9581F7D09167
:101930000001DF3A08F4A6CF0DB507FFFDCFF29BFB
:101940000EB5D05F299AF49B05C09ECFC0E405C0B8
:10195000C0E203C0C0E101C0C8E0DC2FB09BFECFF5
:10196000B09ADA95D9F7349AF8CF0F930FB70F934F
:1019700000910001003109F0EBCFF499E7CFF19825
:101980002999F19A00916B000D7F00936B001F93D2
:10199000AF93BF931F9211240DB5F29807FDF29AF1
:1019A000299AF39AF49AA0E8B3E71BD000EAA8E2D8
:1019B000B1E01DB517FFFDCF1EB50EBD1D930A95F5
:1019C000C1F7D89A7894299BFECFF19B2998F39878
:1019D000F4981F90BF91AF911F910F910FBF0F917E
:1019E0001895299803E00EBD0DB507FFFDCFBEBDCC
:1019F0000DB507FFFDCFAEBD0DB507FFFDCF0EBD89
:101A000008950E940B038FEF8DBF0C94200808955A
:101A10001005052020202020202020202020052027
:101A200020202020202020202084848406078484F5
:101A30008484848484068484848407848484848461
:101A40008484A02020159500A00115A0A001159563
:101A5000A020159500A00115A0A001A0202015959B
:101A6000A020A0159520A01595A0201595A020A038
:101A7000159520A0A02020159502A0A0159520A0C6
:101A8000159502A0159502A003159520A0202020F1
:101A900020202020A02020202020202020202020C6
:101AA000202020202020202020202020A0032020D3
:101AB0002020202020202020202020202020203F07
:101AC0007FFFFFFFFFFFFFFCFEFFFFFFFFFFFFFFAA
:101AD000FFFFFFFFFF7F3FFFFFFFFFFFFFFEFC0059
:101AE000FF00FF00FF00FFFFFFFFFFFFFFFF000FF2
:101AF0000F0F0F0F0F0F00F0F0F0F0F0F0F000FFFD
:101B000080808080808080FF00000000000000FF57
:101B100001010101010101808080808080808001BD
:101B20000101010101010180808080808080FF002F
:101B3000000000000000FF01010101010101FF3F61
:101B40007FFFFFFFFFFF000F0F0F0F00000000F0EF
:101B5000F0F0F000000000FFFFFFFF0000000000B9
:101B60000000000F0F0F0F0F0F0F0F0F0F0F0FF0D1
:101B7000F0F0F00F0F0F0FFFFFFFFF0F0F0F0F0021
:101B800000000055AA55AA55AA55AA000000005009
:101B90005050505050505055AA55AA55AA55AA0019
:101BA00000183C3C1800003C7EFFFFFFFF7E3C3EDF
:101BB000419CAC9F403F0000008E9526C8F000007D
:101BC00000000000000000001010101000100000C5
:101BD0002424000000000000247E24247E24000031
:101BE000081E281C0A3C08006264081026460000F3
:101BF0001028102A443A00000810000000000000DD
:101C0000040808080804000020101010102000002C
:101C10000014083E081400000008083E08080000F0
:101C200000000000080810000000003E0000000056
:101C30000000000018180000000204081020000036
:101C40003C464A52623C000018280808083E000042
:101C50003C42023C407E00003C420C02423C000000
:101C6000081828487E0800007E407C02423C0000A4
:101C70003C407C42423C00007E0204081010000000
:101C80003C423C42423C00003C42423E023C00009E
:101C900000001000001000000010000010102000D4
:101CA000000408100804000000003E003E00000090
:101CB00000100804081000003C420408000800005E
:101CC0003C4A565E403C00003C42427E424200009C
:101CD0007C427C42427C00003C424040423C00004E
:101CE00078444242447800007E407C40407E0000C0
:101CF0007E407C40404000003C42404E423C000060
:101D000042427E42424200003E080808083E00006F
:101D100002020242423C0000444870484442000033
:101D200040404040407E000042665A42424200002D
:101D30004262524A464200003C424242423C00005B
:101D40007C42427C404000003C4242524A3C0000FF
:101D50007C42427C444200003C403C02423C000049
:101D6000FE1010101010000042424242423C00009F
:101D7000424242422418000041412A2A1414000021
:101D80004224181824420000824428101010000039
:101D90007E040810207E00000E080808080E0000CF
:101DA0000040201008040000701010101070000097
:101DB0001028440000000000000000000000FF00A8
:101DC0001C227820207E00000038043C443C0000A7
:101DD00020203C22223C0000001C2020201C00006F
:101DE00004043C44443C000000384478403C00007B
:101DF0000C10181010100000003C44443C04380043
:101E00004040784444440000100030101038000076
:101E10000400040404241800202830302824000082
:101E200010101010100C000000685454545400009E
:101E300000784444444400000038444444380000DE
:101E40000078444478404000003C44443C04060090
:101E5000001C2020202000000038403804780000BA
:101E600010381010100C00000044444444380000A6
:101E70000044442828100000004454545428000012
:101E80000044281028440000004444443C04380026
:101E9000007C0810207C00040808300808040000BA
:101EA000080808080808002010100C101020000076
:101EB000142800000000003C4299A1A199423C0076
:041EC000F894FFCFC4
:101EC4006AB90000006B65726E001C161C6AFE0184
:101ED4005EE6161D1B15040A1C2C08321B2C083345
:101EE4000D2E1ABF000061DC635A6675669A6E0790
:101EF4007221620A60BA64135EC680657865630005
:101F0400825EFC806900A15F05806C656176650076
:101F14008F5F0B80616E64008C5F15806F72008D23
:101F24005F1D80786F72008E5F24803E3E00B25F3A
:101F34002C803C3C00B35F33803B7300AE5F3A803F
:101F4400723E00915F41803E7200935F4880720050
:101F5400925F4F80303D00945F5580303C00955F28
:101F64005C802B00965F63802D00C25F6980642BC8
:101F740000975F6F806E656700985F7680646E651A
:101F84006700995F7E806F766572009A5F878064D0
:101F9400726F7000835F908073776170009B5F99AC
:101FA40080647570009C5FA28040009D5FAA80637E
:101FB40040009E5FB0802100A05FB7806321009F36
:101FC4005FBD80752A00895FC480752F008B5FCB4D
:101FD40080656D697400A85FD280706C6F7400B7FF
:101FE4005FDB80312B00A25FE480636D6F76650058
:101FF400B65FEB8066696C6C00B05FF58069634026
:1020040000A45FFE8069632100A56006806940002A
:10201400A6600E80692100A76015803E706F7274FF
:102024003E008A601C8073706900B8602780312D7F
:1020340000AF602F80617400AD6036802E686578D3
:1020440000AA603D8074696C6500BD604680626C66
:102054007400BE604F8032626C7400BF605780624F
:102064006C747300C0606080636C697000C16069E7
:10207400802A000903607280322B0022226079805A
:10208400732D3E64001C156081802D31002B2F6060
:102094008B80322A001C166093006C6F63730011EE
:1020A4001B6291261B181A161C629127628826133C
:1020B40062882713132E1111116288276291270356
:1020C4002E609B406C6F633B0065CB60BA65DB2E72
:1020D400638D63351D65DB629A261313693F1163B3
:1020E4003520629A2611420164E6652A638D2E60CA
:1020F400C5406C3E002C2960D42E60F3403E6C0039
:102104002C3160D42E60FE006B6579000161286279
:102114007F1C261B2222241670AC2E610900696ED6
:102124006B65790023007D010E9434049927D7014F
:102134000D931D938C01CF91DF910E9434070C9471
:102144002F0801003E242C010C2E611F00636C73C8
:10215400002B2B2D6146040F2CA02CA04101F380F1
:10216400010C802B050862650102582C20302E6179
:102174004E0069270023C501DBCF61730063720041
:102184002C0D282E617E00747970650063CA040CDE
:102194001A161B08211E2806FC0502032E6188005E
:1021A400737061636500625A282E61A100737061C7
:1021B400636573002B6B2563CA04072B0861AA06A9
:1021C400FD2E050328221C1E1C1404F9032E61AEE7
:1021D40000222E0061C6032E1161C622132E2C226A
:1021E400679D6368670C2263752E61D2402E2200BE
:1021F40063351D040965CB61DC61E205092C2267A6
:102204009D636861D82E111C1D1322222E61EE409D
:10221400220063351D041265CB620A63682B637F59
:1022240061E263681B20050361E22E62110076619E
:1022340072002C3B050C622F00636F6E7374002CCC
:102244003C689F63682F1F637F2E623A803000AB27
:10225400624E00626C003C00206254007672616D34
:10226400003C0128625D00636C6F636B003C0125D8
:1022740062680073797376617273003C010B627457
:10228400007366003C01176282007270003C005DBE
:10229400628B007370003C001A629400737030000B
:1022A4003C040080220001FFFFFFFF00000000004B
:1022B400008082801277BC629D00746962003C8059
:1022C4000062BB007761726E696E67003C800262D7
:1022D400C5006D61726B6572003C800462D300744A
:1022E4006F70003C800662E000626C6B2A003C80E8
:1022F4000862EA00626C6B732A003C800A62F50093
:10230400626C6B23003C800C6301006470003C80B1
:102314000E630C0063757272656E74003C8010630A
:102324001500696E003C8012632300737461746548
:10233400003C8014632C0062617365003C8016636A
:102344003800686C64003C80186343002B21001B38
:102354001A1D161B202E1A1E0E1B1F2E634D0068FD
:102364006572650063121D2E636000616C6C6F748E
:1023740000631263532E636C002C006368202C02EC
:1023840063752E637A00632C0063681F2C016375E8
:102394002E6387803D0042146395803C00421563A0
:1023A4009C003E001B42152E63A300726F74001341
:1023B4001B111B2E63AC8032647570001A1A63B84B
:1023C400003F647570001C04021C2E63C200753C3F
:1023D400002B1B2B19171B032E2C3F242C020C142F
:1023E40004F81C2C08322C42252C41252E63CF00E6
:1023F4006563400063DD2C0101FFFE2C3F0A032CC2
:1024040040242E63F1006563210063DD2C40252305
:10241400F894FA9AF99A78948ECE640700656D6FF1
:1024240076653E002B081A63F81A1F1B221B22062E
:10243400F603032E23008CE193E07D010E947E04C9
:10244400D7010C94DC09641E006C6174657374001C
:1024540063201D1D2E644A006C66613E6366610044
:1024640064871C64A41B1E2C800C040C1D1C150406
:10247400072C08322C7F0C2E6459006C66613E6672
:1024840066610022222E647C006C66613E6E666189
:10249400002C03162E648A006666613E7066610035
:1024A400221C670C16222E6499003E6C666100643F
:1024B4005405021D1A1A63D5141A1D140D04F51BB4
:1024C400032E57686174277320004D69736D61741E
:1024D400636865640057726F6E6720737461746516
:1024E4003A00426164205265663A00537461636B3A
:1024F40020456D70747900537461636B2046756C6C
:102504006C00427265616B0061D861AA61DC696E1E
:1025140020002164B3649561D869FC2E64AB003F4C
:102524006572726F72001B041E63351D040F61DC3B
:10253400496E20006454649561D861AA61D861AA87
:10254400636861D869FC032E6520003F636F6D707A
:102554000063351D140164D9652A2E63351D016499
:10256400D9652A2E654C003F70616972730042017F
:1025740064CE652A2E6568403A00655F689F01FF56
:10258400FF637565E52E6579403B0065CB002E65DC
:10259400DB2E658A00696D6D65646961746500642C
:1025A4005464872C40635A2E659600782C001C01D5
:1025B400FF000C0405637F0503638D2E65AC006387
:1025C4006F6D70696C65006555111C1D65B2222222
:1025D400132E65C0405B002B6335202E65D6005D4D
:1025E400002C406335202E65E000736D75646765CB
:1025F40000645464872C20635A2E65EB003C62759A
:10260400696C647300689F2B638D2E65FE40646F54
:1026140065733E00016622637F2C10638D2E116466
:1026240054648764A4202E660F4028002C29679DDB
:102634002E662B00686578002C106340202E6635CA
:1026440000646563696D616C002C0A6340202E662A
:102654004200646967697400132C30422C091A42E1
:1026640015040A2C07421C2C0A42150D1C1163D5B3
:102674002E05141B63401D090363B363401D091732
:102684001122111C1516131C131E63401D665C14C5
:1026940004E20311112E1C1E2C2D42141B1A422B72
:1026A4002B63B32C016675131363B3040219111160
:1026B4002E6653006E756D6265720063401D131CB7
:1026C4001E2C2442140404663C22669A1A1E2C64AE
:1026D4004214040503222C021B1E140C1163402017
:1026E4002E66B50063496E2200131A1815161A16C1
:1026F4001C1E1C1242141B140D04F411031B032E84
:1027040066E500226C656E002C011A2B66ED1B42F7
:102714002E1C1E1C140437031C62F21D0102001639
:102724004214042763091D042262F21D01010016EC
:102734001C743B420101003663091D221C630920FD
:10274400770A1B743B421B743B421C1E142E670405
:102754000022736B6970426C001C0502221C1E2F40
:102764002CE00C04F8671504F21B032E6752006575
:102774006E636C6F736500131C0502221C1E1C2CF7
:102784000E42151B1242140D04F2671504EC1103DA
:102794002E677000776F72640062C21D675D1B67ED
:1027A4007B1C1C1E14144262C2201A421C13636850
:1027B4001B362B116368161F2E679500223C3E00C2
:1027C4000506031B221B221A1E1C131A1E421C116F
:1027D400140D04EF1B031C151B1815421B1E142C8F
:1027E400080C332E67BD40617363002C20679D6322
:1027F400681E63351D04072C2C638D638D2E67E8DA
:10280400002221001A670C22362E680200222B00B7
:102814001C670C1668082E680E0022637574001677
:102824002B1B1F2E681B002266726F6D001A670C2B
:102834006B15162E6828006172720066091C1663F7
:10284400756622101A16162E68380062797465733C
:102854000066096375662210162E684C0066696E60
:102864006400625A679D636864541C64871E2C204C
:102874000C04021D0505110311031C131A1A649597
:1028840067C414131D1C14120D04EC030311110C62
:102894002E685E00637265617465006454637F63CF
:1028A400682C024263201D202B638D625A679D634E
:1028B40068670C22637501003B638D2E6895405B4D
:1028C400636F6D70696C655D0068661C142B652A06
:1028D400646465B22E68C0406C69746572616C0092
:1028E40063351D041E63CA04161C01FF000C040892
:1028F4002C01638D637F2E2C2C638D638D2E2C2BEA
:10290400638D2E68D940646C69746572616C006370
:10291400351D04061B68E468E42E68D900627965F5
:102924000011030505691E4000110311032E6929D6
:1029340000696E746572707265740068661C042F99
:102944001C64871E2C7F0C63351D421504076464C8
:1029540065B2051964641C0145004215040E1C018E
:10296400010E252C08320201010E2402051F036307
:102974006866BF1C1404090363680164C6652A2CD5
:1029840001421404060368E4050369132E69320046
:102994002272756E00693F05FD2E699100746F7097
:1029A400210001FFFF1C131E2B121F019FFF1C1E81
:1029B4001A121B1F1A121E140D62E7201B1F111F6F
:1029C4002E699E00636C61696D0022221862E71D06
:1029D4001C13161C62E720111A2022222E69C5003E
:1029E4007265636C61696D002C02421D62E7202EE2
:1029F40069E100717569740062A4629A270104FF99
:102A040062912765DB61840180221C62C2207418F4
:102A14002C0162C26353699963351D14040661DC99
:102A24004F4B0005E169F40061626F72740062A4A7
:102A3400629A270104FF62912769A6664D61842B7F
:102A44006EC12C016E6161DC4649476E6974696F21
:102A54006E200D7F6E696368656D616368696E657C
:102A64007320323031312D323031340D0062E71DA4
:102A74006368426D3B61DC627974657320667265DC
:102A8400652E0069FC6A29007061757365001C6A13
:102A9400FE627126161A15040A01011624040403A1
:102AA400032E1C627126421504EC03032E6A89006E
:102AB400636F6C64000162A70180002C14366E9869
:102AC4006155011ABF0103802C8036011A100101DF
:102AD400F00100AF3601FF9C6A926A326AB1002BA2
:102AE4002D00150402182E6AE000642B2D00150435
:102AF40002192E6AEB00616273001C6AE62E6AF703
:102B04000064616273001C6AF22E6B02006D696ED0
:102B1400001A1A63A804021B032E6B0E006D617861
:102B2400001A1A421504021B032E6B1E006D2A00A4
:102B34001A1A0E136AFE1B6AFE09116AF22E6B2E14
:102B4400002A2F6D6F6400136B34116B632E6B427C
:102B5400002A2F006B4B1B032E6B52006D2F001AA3
:102B640013136B0A126AFE0B11120E6AE61B116A2A
:102B7400E61B2E6B5D002F6D6F6400131C15116B2B
:102B8400632E6B77002F006B7F1B032E6B86006D0B
:102B94006F64006B7F032E6B90006D2F6D6F64006C
:102BA400132B120B111B130B112E63B36572638D60
:102BB400636842638D2E6B9B4069660065CB00049D
:102BC40063682B638D2C022E6BBA407468656E00AB
:102BD40065552C02657263681A421B1F2E6BCC402C
:102BE400656C7365002C02657265CB000563682B08
:102BF400638D1B2C026BD42C022E6BE140646F009E
:102C040065CB000863682C032E6BFE406C6F6F70FD
:102C1400002C062C036BAE2E6C0D402B6C6F6F706A
:102C2400002C072C036BAE2E6C1C40626567696E2A
:102C340000655563682C012E6C2C40756E74696CAC
:102C4400002C042C016BAE2E6C3C407768696C65DB
:102C5400006BC022222E6C4C40726570656174005A
:102C640013132C052C016BAE11112C02426BD42EC4
:102C74001A4214111B04071B03222205021D132EE2
:102C84006C5A00686F6C640001FFFF634A6353630E
:102C94004A1D1F2E6C84007061640063682C431607
:102CA4002E6C98003C23006C9F2B1A1F634A202E25
:102CB4006CA500233E000303634A1D6C9F1A422E39
:102CC4006CB4007369676E0063B31504052C2D6C36
:102CD4008C2E6CC400230063401D6BA463B32C09C9
:102CE4001A421504042C07162C30166C8C2E6CD644
:102CF400002373006CDB1A1A0D1404F92E6CF20015
:102D0400642E7200131B1A6B0A6CAB6CF86CCC6CDF
:102D1400BA111A4261B861902E6D0100642E002B25
:102D24006D0861AA2E6D1D002E7200131C15116D05
:102D3400082E6D29002E001C156D232E6D36003FC4
:102D4400001D6D3B2E615561DC4C6F6164696E67DB
:102D5400200063091D6D3B2E6D40006C6F61647330
:102D6400001B62F21D1363091D1C1404142B0103C0
:102D74000169CE010100161C62F220010200161F37
:102D840062C21D13131B2B0862F21D62C2201C6356
:102D94000920770A6D49699963091D2206EB03111D
:102DA4001162C2201C63092063CA0407770A6D49B3
:102DB400050A62F21D0101004269EC1162F2202E43
:102DC4006D5C006C6F6164002C016D652E6DC40038
:102DD4006370001B770A773D61552E01010B266253
:102DE4006501023E1663A82E6DD1006D6F726500F9
:102DF4006DDF040F61DC6D6F72653E3E0061100390
:102E040061552E1312021A1A649567C42CFF0C1410
:102E140004081C649561D861AA1D63CA1404E603FE
:102E240011032E6DEC40766C6973740061552C208F
:102E3400679D63686454016DF46E072E6E27006607
:102E44006F7267657400686663CA040A1C1D632098
:102E54001D206312202E6E400070656E0001004A32
:102E6400252E1C221E1A1E2522221C1E1404F403C5
:102E74002EB033B10AB200B39EB40B800081028538
:102E84000084008900880B6F02C2C0C100C500C461
:102E9400014300002C832C43252C0A2CFE2C2A0AE7
:102EA400032B2CFD2C2B0A032C0801012725016E72
:102EB400756E662E6E5A00766D6F6465002C610C1B
:102EC4002C432404036E982B6A921C2C9E01003E12
:102ED4000A0314040361552E0000000000FE0000E4
:102EE4000000000000001900130028616EB80061A2
:102EF400743E002C190903166265162E6EF00063E9
:102F04007572736F720001010D2401010B26626555
:102F1400422C196B8B2E6EF000636C426F78001399
:102F2400136EF7111B112B081A1A1B2C20302C19A5
:102F34001606F603032E131A1B1166ED1B15422EFB
:102F44001B15161E2E01FFFF1A2C0D6F3A42291372
:102F54006B972E131A1514120C131A1A2C0D6F3AA0
:102F64001A421C6AFE29132F114263A804181C6A12
:102F7400FE29136B151B6AE61B1A161B6AFE111633
:102F840029134205441C13161A131A1A6F441C14ED
:102F940014110C13042C1A16111103131A1A2C0DE4
:102FA4006F3A1A426AFE63B315040929136B971B1F
:102FB4001A421B1163B363B3116B151B1A161B055D
:102FC400081B03111B1111162E290D290342150488
:102FD4001729091C221A1829011622290D221C312D
:102FE4000D16361C29091F032E1A131C131A131548
:102FF400141329136B15111B1304051A1A12362CFA
:1030040019161B12161B1118111611221A141A293B
:10301400152F63A80D04D51B03111C29136B9713DB
:1030240012140C04071B2C19161B221C29152242EE
:10303400151A18150C040F1A2C19421216121829F5
:1030440013162C203011032E290122290F291129AE
:103054000B426EF7290B181305191A1C2C011B2C93
:103064000D66ED1B42116FED131B1C1E2C0D42143B
:10307400421B1A1E141229152F63A80D04DD030325
:103084001129151A63A8041113290F1229111629DD
:1030940013291511426F232B032E2917290F2905F4
:1030A4001629112907166EF71C13241B6271261C9E
:1030B40062712642150410614614040812242C80FF
:1030C4000E12252C32161A0263CA04E41B031B03D6
:1030D4001B116146140403252E03032E2F1A6B15AE
:1030E4002B6B251B1A422E31053109290716291588
:1030F40070E01C290B16310B1B31072E29092905F9
:103104006F5770EB2E29091A1A6F441C042F2C0DCB
:10311400421404141A161B1504091C6F4901FFFFFD
:1031240005042B2C01050F1A161B29051629131645
:103134002B29130B2F63B363B370EB2E0303032B01
:103144002E6FCD2C017109032C012E29092F290181
:10315400421C04191329091C2F290D11422201FFB5
:10316400FF71090336290D2F310D2C012E29097207
:10317400D82B2E2B62DD1D1C221B1E14140C0413D1
:103184000362DD1D1C1C2909421516222272D81E59
:1031940071452E2C076C7471A1714F056C2C086C51
:1031A4007471AE01FFFF7109055F2C096C7471BA6B
:1031B4002C01710905532C0A6C7471C62C01710021
:1031C40005472C0B6C7471D301FFFF7100053A2C79
:1031D4000D6C7471DF2C0D7145052E2CCD6C747142
:1031E400E9717105242CC36C7471F37177051A2C81
:1031F400AB6C747200032C8D2C01050D2CA06C7427
:10320400720A2C010503032B2E1C2C1F63A81A2CF5
:103214008042150C04057145050371972E04037053
:103224004C709E1C720D1B2C8D421404F12E1C2C10
:103234002F63A81A2C3842150C040F2C304229098C
:103244001E2C03330D29091F2B032E016EDC0101F3
:1032540017262C05162C143631031C310122310992
:103264002E2C09322E2C122C131A1A2D2C0761B86D
:103274002D61DC436D643F0061101C282C776C7455
:10328400729B61552919290122290D0101FF16722A
:103294006577C5032B05352C246C7472B42C122C61
:1032A400132D61DC285368656C6C29006A07051CC2
:1032B4002C7A6C7472CD2B2901221C31091F2B31FD
:1032C4000D2B31052B3107050372322E6F1A006D59
:1032D40061726B0062DD202E6DDF040311112E621A
:1032E400650101F4160100642C20302B2C142D2EC2
:1032F40061281C04591C2C214215040C291B0403AD
:1033040072E32B311B05471C2CA042140425291BF6
:10331400041B62650101F316291B16636842221C13
:10332400241C7145032C20421404F4036368311BEC
:10333400051C291B0418291B1A1A1F2B1A221F22C9
:10334400311B72E3636864540172DC6E072E72D021
:103354000065646974002C1C60A362E71D63684205
:1033640001014242743B180C1C69CE1B2C024272B0
:103374004F29012B1A200172F431172B311B1A6AC1
:10338400FE31192229037265778C032B2901290345
:1033940016221F29091C1E2CFF421404052B290187
:1033A40020670C310D2B2C132D61DC426C6B3A2001
:1033B4000029192C046D2F61AA61DC4C656E3A005A
:1033C400290D2C056D2F2C2F2829032C056D2F2C4E
:1033D4000172211C040372691404CB290169EC6095
:1033E400BA735200626F786564002C1860A31313DB
:1033F4001A670C13724F11310D1111311531136FFE
:103404000A3111310F2C01722160BA73E500717514
:10341400657279001364386F0A2B2C142D112B1A42
:10342400202C4F2C192C0473EE032D2E740F0062E4
:103434006C6B73697A65003C0200440120136C7460
:10344400744B01010005190130136C7474562C80FF
:10345400050E0130146C7474612C800503032B2E4B
:10346400440120136C7474710101000519013013B7
:103474006C74747C2C10050E0130146C7474872CDD
:10348400100503032B2E440120136C747497010858
:1034940000051B0130136C7474A3010800050F01AF
:1034A40030146C7474AF0110000503032B743E4296
:1034B4002E2C01322E013FFF0C1C16743E162E7466
:1034C4008A74B52E748A74644274B52E013FFF0C5D
:1034D400748A1A1A2F63A80C421C16743E162E7492
:1034E4003000666469736B00440120134274647491
:1034F4008A743E162B081A1A212F0C140D21140D50
:10350400212C1042140D212C2042140D212C404258
:10351400140D04092B2C142D212A21432C1007D718
:1035240003032E1A16162E74C32F13122C073216E9
:103534001A34112C7F0C1B7527262E1C2B752B017E
:10354400FFFF42141B1A042174C32F2F2C7F0C1A63
:1035540075272601FFFF4204101B031C0100107590
:103564002B01FFFF4214141B032C100C2E0101002D
:10357400162E75711A1616262E1A753F040501406B
:10358400000E1C013FFF0C2C07321B0140000C14E1
:10359400142C100C161B1A1B342E3B28746F702924
:1035A400003B28626F74290001800013131374C355
:1035B4002B1A1A013FFF0C224215040901C0000C0A
:1035C400014000161C2C7F0C1C1404071A121B75D6
:1035D4007D03127527261A1A111B1C1242141B0193
:1035E400FFFF4214111201800042141B130C0D043E
:1035F400081A1111031B131313031B221B01FFFFD2
:1036040042141A01800063D5140D04A6030311119A
:103614000303112E75AC74B92E1C0140000C040771
:10362400013FFF0C050C1A1B76181A75711A221B20
:10363400341B1A1B342E1C74C863D5141B74642FDA
:1036440074B50C140C2E1A01FFFF75AC1C748A742B
:10365400B5013FFF1663D514040B131A753F4311CC
:103664000140000E131A1201007F0C1A75271B115A
:10367400757D1327111B352E746474B513748A7405
:10368400B512421A013FFF0C1A63D5140406181A26
:10369400160509031C12160140000E131A75711148
:1036A4001B1A757D031B74D01A74D0111B131B1ABB
:1036B4002B0813131A1A131201007F0C1A75761BA8
:1036C4001A1A1B75AC1C114214111A0C13041E7423
:1036D400B91A1A1B341A111B121B3513221A34116E
:1036E4001A12221B35131B764A2B2B2B030303229E
:1036F4001111222206BD1143031B031B032E74E385
:1037040000626C6B3E0062F21D63CA140409743BD0
:1037140069CE1C62F2201A15040A2B1B743B642820
:1037240003050E1362651B761D03626511743B3637
:103734002E7702003E626C6B001362651C01FFFF72
:1037440076181A62F21D1B743B361A1A1B351C01BB
:10375400C0000C014000420422221A7571351C116C
:10376400764A1C01FFFF75AC1C763A1C0406031A4A
:103774001A767C1B031404EB032E030311032E7728
:103784003500626C6B733E0062F21D131B62F22003
:103794002B031A770A1B221B2F1C1462F21C1D0117
:1037A40001FF161B1A221B201E141B1A0D04E313FF
:1037B4000303111162F2202E7783003E626C6B7357
:1037C4000062F21D131B62F2202B081C773D2201BC
:0E37D400020062F2635306F4031162F2202E2B
:0237E2000000E5
:00000001FF
:000000