:100000000C94DC020C94F9020C94F9020C94F902A1
:100010000C94F9020C94F9020C94F9020C94F90274
:100020000C94F9020C94F9020C94F9020C946D03EF
:100030000C94F9020C94F9020C94C6110C94F90278
:100040000C94F9020C94F9020C94F9020C94F90244
:100050000C94F9020C94F9020C94F9020C94F90234
:100060000C94F9020C94F9023F7FFFFFFFFFFFFFA2
:10007000FCFEFFFFFFFFFFFFFFFFFFFFFFFF7F3FD4
:10008000FFFFFFFFFFFFFEFC00FF00FF00FF00FF80
:10009000FFFFFFFFFFFFFF000F0F0F0F0F0F0F00FE
:1000A000F0F0F0F0F0F0F000FF8080808080808041
:1000B000FF00000000000000FF010101010101013B
:1000C0008080808080808080010101010101010128
:1000D00080808080808080FF00000000000000FFA2
:1000E00001010101010101FF3F7FFFFFFFFFFF0051
:1000F0000F0F0F0F00000000F0F0F0F00000000004
:10010000FFFFFFFF00000000000000000F0F0F0FB7
:100110000F0F0F0F0F0F0F0FF0F0F0F00F0F0F0F6B
:10012000FFFFFFFF0F0F0F0F0000000055AA55AA99
:1001300055AA55AA00000000505050505050505041
:1001400055AA55AA55AA55AA0000183C3C1800000B
:100150003C7EFFFFFFFF7E3C3E419CAC9F403F004A
:1001600000008E9526C8F00000000000000000008E
:1001700000101010100010000024240000000000E7
:1001800000247E24247E240000083E283E0A3E08E7
:100190000062640810264600001028102A443A0025
:1001A000000810000000000000040808080804000F
:1001B0000020101010102000000014083E08140049
:1001C000000008083E0808000000000000080810B1
:1001D000000000003E0000000000000000181800B1
:1001E0000000020408102000003C464A52623C0015
:1001F0000018280808083E00003C42023C407E00EF
:10020000003C420C02423C0000081828487E0800CE
:10021000007E407C02423C00003C407C42423C006C
:10022000007E020408101000003C423C42423C00A8
:10023000003C42423E023C00000000100000100062
:100240000000100000101020000004081008040036
:100250000000003E003E00000000100804081000EE
:10026000003C420408000800003C4A565E403C0046
:10027000003C42427E424200007C427C42427C0082
:10028000003C424040423C000078444242447800F6
:10029000007E407C40407E00007E407C404040002C
:1002A000003C42404E423C000042427E42424200FC
:1002B000003E080808083E000002020242423C00DC
:1002C00000444870484442000040404040407E00A6
:1002D0000042665A42424200004262524A4642008E
:1002E000003C424242423C00007C42427C40400092
:1002F000003C4242524A3C00007C42427C44420064
:10030000003C403C02423C0000FE10101010100067
:100310000042424242423C00004242424224180013
:1003200000424242425A240000422418182442004B
:100330000082442810101000007E040810207E0067
:10034000000E080808080E000000402010080400F5
:1003500000701010101070000010385410101000B1
:1003600000000000000000FF001C227820207E001A
:10037000000038043C443C000020203C22223C0089
:1003800000001C2020201C000004043C44443C00CD
:100390000000384478403C00000C10181010100089
:1003A00000003C44443C043800404078444444004D
:1003B0000010003010103800000400040404241859
:1003C00000202830302824000010101010100C00DD
:1003D00000006854545454000000784444444400DD
:1003E00000003844444438000000784444784040D9
:1003F00000003C44443C040600001C202020200057
:1004000000003840380478000010381010100C003C
:1004100000004444444438000000444428281000AC
:10042000000044545454280000004428102844007C
:1004300000004444443C043800007C0810207C0048
:10044000000E083008080E00000808080808080018
:100450000070100C10107000001428000000000044
:100460003C4299A1A199423C0D200A0007090B08C2
:100470007A7978777A7675746C736B6A6973686762
:100480003D29CD28242FCD2A2B3039C3383736C308
:100490007A7271707A6F6E6D667365646373626190
:1004A000223BAB3A212CDE2E2D3534003332310085
:1004B0000A200A007F090B085A5958575A565554B2
:1004C0004C534B4A49534847265D005B605C005ED5
:1004D0003E3C3900383736005A5251505A4F4E4D33
:1004E0004653454443534241277B007D3F25007FCF
:1004F0007E35340033407C000F070B030D050901E6
:100500000E060A020C0408001005052020202020F9
:1005100020202020202005202020202020202020F6
:100520002084848406078484848484848406848468
:1005300084840784848484848484A0202015950086
:10054000A00115A0A0011595A020159500A00115EA
:10055000A0A001A020201595A020A0159520A015F1
:1005600095A0201595A020A0159520A0A0202015CD
:100570009502A0A0159520A0159502A0159502A0A2
:1005800003159520A020202020202020A02020201E
:10059000202020202020202020202020202020205B
:1005A00020202020A00320202020202020202020E8
:1005B000202020202020200011241FBECFEFD4E0D7
:1005C000DEBFCDBF11E0A0E0B1E0ECECF2E302C091
:1005D00005900D92A830B107D9F713E0A8E0B1E07B
:1005E00001C01D92AB3FB107E1F70E9417030C94C5
:1005F000A2120C94000083B7816083BF1092C100E7
:1006000080E187B93D98459A8AB18E7B8AB98BB1D2
:1006100081648BB90E943B040E94C4060E94850538
:100620000E94DD050E9432030E94530E08950E942D
:10063000FB020E9419058FEF8DBF0C94400F0895A7
:100640000CC08091EC039091ED0324E09595879583
:100650002A95E1F781700E9488120E94F60688238D
:1006600081F3089583E883BD83E38093B0008AE03B
:100670008093B1001092B2008FE98093B3008BE0B9
:100680008093B4001092800022E0209381001092A9
:100690008500109284008BE090E090938900809315
:1006A000880020936F0050988AB18A608AB98BB114
:1006B000857F8BB988E080930301E4ECF0E0118240
:1006C000108280EC8093C2001092C10081E090E023
:1006D00091838083789413BC08951F920F920FB674
:1006E0000F9211242F938F939F9380910301873052
:1006F00069F50E94371282E080936E0080910401B8
:100700009091050189569340D0F080918800909196
:10071000890081519D4D909389008093880088E0E5
:10072000809303018091EC039091ED0301969093E7
:10073000ED038093EC030E940A129C1194C08091F7
:1007400088009091890081579F4F68C0833009F4D9
:100750003FC0843028F48130F9F0823060F50AC05F
:10076000863009F463C0883009F471C0843009F020
:100770007AC040C08FE48093B30085E08093B400DA
:10078000809188009091890084569E4F90938900B3
:100790008093880081E047C089E48093B400809111
:1007A00088009091890080579E4F90938900809394
:1007B000880082E038C010926E008091880090918D
:1007C0008900CE96909389008093880083E02BC0A7
:1007D00082E080936E0085E08093B4008091880071
:1007E000909189008A569E4F90938900809388004B
:1007F00084E019C08FE98093B3008BE08093B4004C
:1008000081E191E09093050180930401109206012B
:10081000809188009091890084549D4D9093890027
:100820008093880086E0809303011DC0809188003A
:10083000909189004196909389008093880010924E
:100840006E0087E080930301789488950CC08091B6
:100850008800909189008C569F4F909389008093D7
:100860008800109203019F918F912F910F900FBEDE
:100870000F901F90189528E630E0A9E6B3E005C078
:10088000F90184918D932F5F3F4FF3E0A93EBF079D
:10089000B8F3089529E1629F90011124280F311DBA
:1008A0002F5E3E4F3093EA032093E9038093EB03DE
:1008B0006093EE030895E1E1F1E0818D819383E09F
:1008C000E035F807D0F302C0819301C080E293E0E5
:1008D000E936F907C8F308951F93182F873041F0C0
:1008E0008D3011F51092EB038091EE038F5F16C0EF
:1008F000E091E903F091EA0380E280838091EB03C9
:10090000882321F081508093EB030DC088E1809310
:10091000EB038091EE03181624F481508093EE03CC
:1009200002C01092EE0310E08091EB03893168F071
:100930001092EB038091EE038F5F05C00E945B0471
:100940008091EE0381508093EE036091EE03683155
:10095000A8F78091EB030E944A04112371F0E09103
:10096000E903F091EA031193F093EA03E093E903BA
:100970008091EB038F5F8093EB031F910895CF93DA
:10098000DF93EC0103C021960E946C0488818823C8
:10099000D1F7DF91CF910895EF92FF921F93CF93FC
:1009A000DF93EC0180E30E946C0488E70E946C04F2
:1009B000CE018070907F892B11F010E01EC034E0D2
:1009C000CC0FDD1F3A95E1F7CE018070907F892B27
:1009D00011F011E012C024E0CC0FDD1F2A95E1F7E1
:1009E000CE018070907F892B39F494E0CC0FDD1F0D
:1009F0009A95E1F713E001C012E07E019F2D9295D8
:100A00009F70892F805D8A330CF0895D0E946C0491
:100A100084E0CC0FDD1F8A95E1F71F5F143069F782
:100A200080E20E946C04DF91CF911F91FF90EF90C4
:100A3000089580E060E00E944A0480E090E020E2B7
:100A4000E091E903F091EA032193F093EA03E09344
:100A5000E903019632E08835930791F780E060E082
:100A60000E944A040895282F823308F04DC0603355
:100A700008F04AC0862F869599E1899FF0011124DC
:100A8000822F8695E80FF11DEF5EFE4F60FD02C0DC
:100A900052E001C058E020FD5695F19902C030E0C7
:100AA00001C0352FF09902C040E001C0452F908170
:100AB000903A31F0892F8877803111F020E006C01C
:100AC000292F277827FF02C08FE82827852F8095B8
:100AD0008323942F932B9095982B92233095352335
:100AE0003423932B452320954223942B93FF02C05C
:100AF0008FE89827292F205F822F90E087709070D1
:100B0000892B09F4205F2083089584B1817C8E6253
:100B100084B985B1817C866085B98DB581608DBDD4
:100B200080E58CBD08958EBD0DB407FEFDCF089500
:100B300080E00E9493058EB508950F931F938C015A
:100B4000299883E00E949305812F0E949305802FAE
:100B50000E9493051EBC1F910F910895FF920F9361
:100B60001F93182F092FF62E299882E00E949305D3
:100B7000802F0E949305812F0E9493058F2D0E9444
:100B800093051F910F91FF900895FF920F931F936C
:100B9000182F092FF62E299882E00E949305802FA6
:100BA0000E949305812F0E9493058F2D0E9493052B
:100BB000299A1F910F91FF900895299881E00E9432
:100BC000930581E40E949305299A0895299885E068
:100BD0000E9493050E949805299A08952A9886E014
:100BE0000E9493052A9A08950F931F93CF93DF9342
:100BF0008C01EB012A9883E00E949305812F0E94CB
:100C00009305802F0E94930580E00E94930500E0E9
:100C100010E00E94980589930F5F1F4F81E000301C
:100C20001807B9F72A9ADF91CF911F910F91089574
:100C30000F931F932A988FE90E9493050E949805AD
:100C400090E08F37910519F40E94980590E0C797BE
:100C500019F02FEF3FEF0AC00E949805182F00E00F
:100C60000E949805282F30E0202B312B2A9AC901A9
:100C70001F910F9108952A9885E00E9493050E9484
:100C800098052A9A08950E943B0680FDFCCF08959E
:100C90000F931F93CF93DF938C01EB010E94EE051E
:100CA0002A9882E00E949305812F0E949305802F4D
:100CB0000E94930580E00E94930500E010E0899176
:100CC0000E9493050F5F1F4F81E000301807B9F7AE
:100CD0002A9A0E944306DF91CF911F910F910895A8
:100CE0000F931F93CF93DF938C010E94180680709F
:100CF0008050904219F4C8EDD0E002C0C0E2D0E0CC
:100D00000E94EE052A988C2F0E949305812F0E9445
:100D10009305802F0E94930580E00E9493052A9AF4
:100D20000E944306DF91CF911F910F910895282FC4
:100D300030E0C901019782239323892B19F049E000
:100D400050E016C0822F807F49F0822F807C19F4FA
:100D500045E050E00DC047E050E00AC0C9018C708A
:100D60009070892B19F441E050E002C043E050E05C
:100D7000042E02C0359527950A94E2F74150504061
:100D8000240F351FC901089587B1807F87B988B1C5
:100D90008F6088B957985F98209828980895909107
:100DA0000F01992361F4E6B1F0E0EF70F070E850C4
:100DB000FB4FE491E09310015798209A10C0E6B1E0
:100DC000F0E0EF70F070E850FB4FE491809110017B
:100DD0008295807F8E2B809310012098579A9F5F79
:100DE000917090930F0180911001089580910801F6
:100DF000882311F0109208010895E091E903F09121
:100E0000EA038081805880830E94F606982F882309
:100E1000D9F3E091E903F091EA038081805880835F
:100E2000892F0895CF92DF92EF92FF920F931F9335
:100E3000182FF62ED42EC22E8DE00E946C04812F26
:100E400090E00E94CC0480E20E946C048F2D90E020
:100E50000E94CC0480E20E946C048D2D90E00E94E0
:100E6000CC0480E20E946C048C2D90E00E94CC04A3
:100E700080E20E946C04802F90E00E94CC0480E20B
:100E80000E946C048E2D90E00E94CC0480E20E94AF
:100E90006C041F910F91FF90EF90DF90CF90089519
:100EA000CF92DF92EF92FF920F931F93CF93DF9336
:100EB000E090E903F090EA03C090EB03D090EE03DA
:100EC00006E1C4E0D0E08BE0602F0E944A04CE012E
:100ED0008450182F06C0E151FC4F80810E946C04A1
:100EE0001F5FE12FF0E0EC17FD07ACF30F5F2496D6
:100EF000083149F7F092EA03E092E903C092EB036C
:100F0000D092EE03DF91CF911F910F91FF90EF9060
:100F1000DF90CF900895BF92CF92DF92EF92FF9231
:100F20000F931F93CF93DF93E090E903F090EA03D0
:100F3000C090EB03D090EE0306E1C4E0D0E099E06E
:100F4000B92E8BE0602F0E944A04CE018450182FE6
:100F500026C0E0910A01F0E0319680910B018B9D53
:100F6000C0011124E80FF91F83E0EE0FFF1F8A95DF
:100F7000E1F7EA1BFB0BE159FB4F8491803208F447
:100F800080E28058E091E903F091EA03E081E817FC
:100F900019F0A151BC4FEC930E946C041F5FA12F6C
:100FA000B0E0AC17BD07ACF20F5F2496083149F6EC
:100FB000F092EA03E092E903C092EB03D092EE03D1
:100FC000DF91CF911F910F91FF90EF90DF90CF9025
:100FD000BF90089580910C0190910D018130910591
:100FE00011F0039769F480910001882321F081506A
:100FF0008093000108958FEF809300010E948B077A
:1010000008950F931F93082F80910901081719F471
:101010000E94EA07C0C08091000118168CF08091F0
:101020000C0190910D018130910511F0039741F46D
:101030000E945007002321F410920D0110920C0120
:1010400088E08093000120910C0130910D01213046
:101050003105C9F02130310548F02230310509F45D
:1010600051C02330310509F094C05CC08091090162
:10107000801708F08EC0802F0E94970680930A0187
:1010800081E090E07DC08091090110910A018017F4
:1010900010F5012E02C0220F331F0A94E2F7802FB1
:1010A000821B0E949706E12FF0E0319620910B0100
:1010B00049E0249F90011124E20FF31F33E0EE0F6B
:1010C000FF1F3A95E1F7E80FF91FE859FB4FE4914C
:1010D000E093080151C090910B01133029F481E095
:1010E000891B80930B0151C0E8E49E9FF0011124FD
:1010F000E10FF11DE859FB4FE491E09308011092D4
:101100000B0143C0002309F440C080910901081776
:1011100008F03FC0802F0E94970680930A0183E069
:1011200090E02EC080910901801778F510910A0196
:1011300081E090E0012E02C0880F991F0A94E2F727
:10114000202F281B822F0E949706E12FF0E0319676
:1011500020910B0149E0249F90011124E20FF31F1D
:1011600023E0EE0FFF1F2A95E1F7E80FF91FE8597A
:10117000FB4F84918093080110920B0182E090E074
:1011800090930D0180930C0104C010920D011092F8
:101190000C01009309011F910F9108950E94CF0641
:1011A000982F80910F01882351F480910E01981798
:1011B00021F4892F0E940108089590930E0108954B
:1011C00099E16902B0011124992787FD9095680F74
:1011D000791F6F5E7E4FCB0108950F931F93CF93BE
:1011E000DF93EC01062F60C00A3001F10B3040F4B0
:1011F000083049F1093008F5073009F04EC045C004
:101200000D3049F10E3020F40B3009F046C006C015
:10121000033C19F10D3C09F040C032C08981815076
:10122000898387FF44C083E1898341C089818F5FBF
:1012300089838431E4F119823AC088818F5F888381
:101240008931ACF108C088818150888387FF2FC025
:1012500088E18883E3CF1882E9CF1A81812F6B81DF
:101260000E94E008FC0100811F5F1A831931E4F03D
:101270001A828B818F5F8B838431B4F01B8214C000
:1012800088818A8389818B8312C0888169810E94C9
:10129000E008FC0180E28083D6CF888169810E94CA
:1012A000E008FC010083C9CF002309F09DCFDF9146
:1012B000CF911F910F910895AF92BF92CF92DF927D
:1012C000EF92FF920F93DF93CF9300D0CDB7DEB7AD
:1012D0007C016B015A0180E065E10E94E0089A837D
:1012E00089838FE3E981FA8180830E94FD06082FBC
:1012F000E981FA818083873509F44EC0883550F43E
:10130000853409F451C0843509F454C0873009F09C
:1013100063C024C08A3509F44AC0893621F0883573
:1013200009F05AC03FC080E0F50161810E94E008E9
:101330007C0188E162E10E94E008FC0103C0808139
:10134000818F3197EE15FF05D0F7C701499620E24E
:1013500001C02193E817F907E0F342C080E0F501EE
:1013600061810E94E0087C0180E063E10E94E00866
:101370009C0104C0F701818D81937F01E216F30681
:10138000C8F3C901499620E203C0F70121937F0108
:10139000E816F906D0F324C0C701B60141E151E0D7
:1013A0000E94770D0BE11CC00E94B90DFBCF0E947B
:1013B000190516C00E94D10B13C0F501808161810F
:1013C0000E94E008FC018081880F880F880F802B25
:1013D00080830E94FD06082F0053083070F300E060
:1013E000802F0F900F90CF91DF910F91FF90EF9092
:1013F000DF90CF90BF90AF90089597FD02C080E03E
:10140000089581E191E060E070E040E052E00E94E8
:10141000921281E00895EF92FF920F931F93CF9362
:10142000DF938C018FEF9FEF61E171E00E94540C1C
:101430007C01C8010E94FD09882319F0CEEFDFEF7F
:1014400006C0C80161E171E00E94730CEC01CE1589
:10145000DF0511F40E94190581E065E10E944A044C
:10146000C8010E94CC0480E40E946C04CE010E945A
:10147000CC0481E20E946C04C7010E94CC04C70125
:10148000DF91CF911F910F91FF90EF9008952F92D0
:101490003F924F925F926F927F928F929F92AF9204
:1014A000BF92CF92DF92EF92FF920F931F93DF9341
:1014B000CF9300D000D0CDB7DEB74C0119821A828D
:1014C0008FEF8B830E941905C4010E940B0A2C0127
:1014D00097FE04C0909481949108939483E8682EB9
:1014E0001E010894211C311CE090EC03F090ED03E8
:1014F00089816A810E94E0085C018B816C810E9475
:10150000E0086C01F5017080FC0100811FC0809132
:10151000EC039091ED039701281B390B37FF16C0A0
:10152000F5019081905890838B818F3F39F097FF20
:1015300003C0F601608202C0F6010083E090EC0374
:10154000F090ED0322E330E0E20EF31E0E94F60677
:10155000182F8823E1F2F5017082F60100838B3A9F
:1015600039F4C401B201A1010E945C09182F04C022
:10157000C101612F0E94ED081B3109F0B5CF80E059
:1015800064E10E944A040F900F900F900F90CF914A
:10159000DF911F910F91FF90EF90DF90CF90BF9060
:1015A000AF909F908F907F906F905F904F903F9003
:1015B0002F9008950E94180620E28331920749F087
:1015C00020E28331920740F083519043029720F448
:1015D00006C020E031E005C020E030E002C020E19C
:1015E00030E0C90108950E94180620E28331920775
:1015F00049F020E28331920740F0835190430297F3
:1016000020F406C020E031E005C020E030E002C058
:1016100020E830E0C9010895CF93DF930E941806B7
:1016200020E38331920739F020E38431920749F0B7
:101630008351904219F4C0E0D8E005C0C0E0D0E08A
:1016400002C0C0E0D0E10E94F30A9E01281B390BC2
:10165000C901DF91CF9108950F931F93CF93DF932B
:10166000EC010E940C0B8C010E94DA0A081B190B7A
:1016700016950795C017D10710F420E00BC00E9403
:10168000DA0A20E00197969587958C239D23892B74
:1016900009F421E0822FDF91CF911F910F910895DE
:1016A000CF92DF92EF92FF920F931F936C017B0119
:1016B0000E940C0B8C011695079501501040C80133
:1016C000880F892F881F990B91958E0D9F1DB6014C
:1016D0000E94F4050F771070000F111F0C0D1D1DD7
:1016E000F801808191811F910F91FF90EF90DF9021
:1016F000CF900895CF93DF93EC010E94000ECE01AE
:1017000060E070E00E94500B8F5F9F4FE1F40E94F9
:101710000C0BFC01F695E7953297EF77F070EE0F22
:10172000FF1FEC0FFD1F808191818F5F9F4F41F064
:10173000CE0160E170E00E94500B8F5F9F4F19F067
:1017400020E130E002C020E030E0C901DF91CF911C
:101750000895EF92FF921F93CF93DF93EC017B01EB
:10176000CB010E947A0B892B21F080E090E4C827FE
:10177000D927D6FD02C010E001C010E1DF73CC0F05
:10178000CD2FCC1FDD0BD1951C0F812F90E0B70121
:101790000E94F405812FDF91CF911F91FF90EF9070
:1017A0000895CF93DF930E94000E0E941905C0E0B8
:1017B000D0E015C080E065E10E944A0481E191E03B
:1017C0000E947A0B8C0F9D1F0E94CC04CE01409684
:1017D00061E171E00E94F4050E94FD0621960E94DD
:1017E0000C0B96958795C817D90720F31092FA032A
:1017F0001092F903DF91CF9108958F929F92AF924B
:10180000BF92CF92DF92EF92FF920F931F93CF93ED
:10181000DF935C016B010E940C0B4C019694879442
:10182000E12C40E8F42EC0E0D0E0CE019F73881593
:10183000990520F0C070D07CC050D04C8E010F773D
:1018400010700115110521F4CE01B6010E94A90BFB
:10185000000F111F0C0D1D1DF801808191818A154B
:101860009B0549F08F5F9F4F61F420E0E21620E86E
:10187000F20651F417C08FEFA8168FEFB80691F05B
:101880007E012196D7FFD1CFC701DF91CF911F9164
:101890000F91FF90EF90DF90CF90BF90AF909F900F
:1018A0008F9008957E01F0CFCF92DF92EF92FF925A
:1018B0000F931F938C017B010E94000E0E94F30A7C
:1018C0006C01C801B7010E94FD0B9C013F73220F00
:1018D000331F2C0D3D1DC9011F910F91FF90EF90FB
:1018E000DF90CF9008950F931F93CF93DF93EC0178
:1018F0008B0196FF04C00E94000EDF7309C00E9496
:10190000540CEC01B80160507F4F01960E94F40521
:10191000CE01B8010E94F4051092FA031092F90367
:10192000CE01DF91CF911F910F910895EF92FF9219
:101930000F931F93CF93DF937C018B018FEF9FEF6A
:101940000E94FD0BEC010E940C0B9695879581502F
:10195000904CC817D90748F0C8010E947A0B0E9422
:10196000700680E090E4C827D927CE01B8010E9414
:10197000A90BCF77D070CC0FDD1FC00FD11FF9821C
:10198000E88290E0B8010E944806DF91CF911F9154
:101990000F91FF90EF900895CF93DF93EC01DF73E9
:1019A0000E940C0BC817D90720F00E940C0BC81B13
:1019B000D90B0E94F30A9E01220F331F280F391FF3
:1019C000C901DF91CF9108954F925F926F927F92FC
:1019D0008F929F92AF92BF92CF92DF92EF92FF923F
:1019E0000F931F93CF93DF938C016B010E94DA0A50
:1019F00096958795782E0E940C0B272D30E0FC01E0
:101A0000F695E795E21BF30BC8019F738E179F07AE
:101A100020F0E801CE1BDF0B07C0E901C00FD11F8A
:101A200080E090E4C827D927672CCE010E94CC0C17
:101A30002C01C8010E94CC0C5C01B60160507F4FA4
:101A4000CE010E94A90BFE01EF77F070E058FF4F26
:101A5000EE0FFF1FEC0DFD1D80809180C401B601CB
:101A60000E94FD0BC817D90731F50E94F30A8E01B9
:101A70001F73000F111F080F191FC801B6010E9424
:101A8000F40575010894E11CF11CC501B6010E9422
:101A90004806C8010196B6010E94F4055701089452
:101AA000A11CB11CC701B6010E944806C401B601C1
:101AB0000E94960C6A947A9411F02196C4CFC201C8
:101AC0000E94700680E016140CF081E0DF91CF9147
:101AD0001F910F91FF90EF90DF90CF90BF90AF904C
:101AE0009F908F907F906F905F904F900895CF92CE
:101AF000DF92EF92FF920F931F93CF93DF937C01BE
:101B00008B01EA010E94000EC801BE010E94480636
:101B1000C12C31E0D32ECC0EDD1EC8010196B601DA
:101B20000E944806C701BE010E94960CEE24E39471
:101B30008FEF9FEFBE010E94FD0B8C01B6010E944A
:101B40002C0B882349F0EE2039F0C801BE010E9419
:101B5000E40CE82E882361F71092FA031092F9033F
:101B6000DF91CF911F910F91FF90EF90DF90CF9079
:101B70000895CF92DF92EF92FF920F931F93CF932E
:101B8000DF930E9418066C010E94DA0AC0E0D0E0E0
:101B90007C010894E108F10820C083E1C81680E2C6
:101BA000D80681F4209771F0C031D10559F0C032C8
:101BB000D10541F0C034D10529F0CE018E219F21FD
:101BC000892B51F480E065E10E944A04CE010E9415
:101BD000CC04CE010E94700660960E940C0B8C0112
:101BE0000E94F30A080F191FC017D107B0F2DF9146
:101BF000CF911F910F91FF90EF90DF90CF900895BC
:101C0000299A8CB58F7B8CBD209184003091850002
:101C10002F5F3F4F8DB58EB58091840090918500E8
:101C2000A901481B590B57FFF5CF8CB580648CBDBB
:101C300008950F931F93CF93DF93FC01EB018A016B
:101C40004115510559F1299A8CB58F7B8CBD209196
:101C50008400309185002F5F3F4F8DB58EB5809108
:101C6000840090918500A901481B590B57FFF5CFBF
:101C70008CB580648CBDCF019F7768810E94AE05D2
:101C800003C088810E9493050150104021960115E0
:101C90001105B9F71092FA031092F903DF91CF9171
:101CA0001F910F9108951F93CF93DF93C8E0D5E064
:101CB0000E94190518E080E0612F0E944A0480E02C
:101CC00090E0FE01E80FF91F2491E091E903F09103
:101CD000EA032193F093EA03E093E9030196893143
:101CE000910579F769961F5F1F3029F72091EC0362
:101CF0003091ED032C593F4F8091EC039091ED030F
:101D000028173907C9F7DF91CF911F9108950F93D5
:101D10001F93CF93DF93EC010E94000EE881F0E067
:101D2000998190958081892380830CC0EA81FB8111
:101D30008191FB83EA830E9493058C819D810197A9
:101D40009D838C838C819D81892B81F70EC01E81A0
:101D50000F810E949805E12FF02F8193FF83EE837E
:101D60008885998501979987888788859985892BA2
:101D700071F7E881F0E080819981892B808310924E
:101D8000FA031092F903DF91CF911F910F910895FB
:101D9000EF92FF920F931F93CF93DF938C01EB0190
:101DA0007A0180E10030180728F4F80180818093DF
:101DB000F70307C0C80167EF73E041E050E00E94FD
:101DC000150FF0E1C030DF0720F48091F70388831E
:101DD00007C0CE0167EF73E041E050E00E94190EAA
:101DE0000894E108F1081E141F0424F40F5F1F4F2C
:101DF0002196D7CFDF91CF911F910F91FF90EF9058
:101E00000895D7FD07C0FE01FF71E85BFA4D84918C
:101E100021960AC02196C093F903D093FA038DB599
:101E200087FFFDCF8EB58EBD089597FF1EC06F93BF
:101E30006DB567FFFDCF299A7F934F935F930E9403
:101E40009D059F918F91BF91AF9101C06EBD6DB502
:101E500067FFFDCF6EB56D930197C1F7299A6EBDEF
:101E60001092F9031092FA030895FC01FF71E85BE8
:101E7000FA4DDB01CA0145914D930197E1F70895B1
:101E80000E94B911EC011092F9031092FA0380E05C
:101E900090E00E949D058BEF93E07C018BE791E140
:101EA0003C01D7FF2DC08DB587FFFDCF299ACE010C
:101EB0000E949D0515C0D7FF0AC0CDB5C7FFFDCF55
:101EC000CEB5299AD82DCE010E949D0509C0FE01EC
:101ED000FF71E85BFA4DC491D82D12C0D7FF10C036
:101EE0002196C093F903D093FA038DB587FFFDCFF8
:101EF0008EB58EBD8E3380F4F301E80FF11D099489
:101F0000FE01FF71E85BFA4D849121968E3320F437
:101F1000F301E80FF11D0994882E73DF982DCF93FC
:101F2000DF93EC01BECFD7010D931D937D0169DFD7
:101F3000182F67DF082FD2CFC801D7011E910E914D
:101F40007D018E33910520F3CF93DF93EC01A9CF70
:101F5000D7011E910E917D01C1CF012BD7011E919A
:101F60000E917D0111F022969CCF4BDF882EA3CFDE
:101F700048DF882ED60111966D01CA14DB040AF4DD
:101F80009ACF3FDFDF90CF90BF90AF90A7CF39DFE0
:101F9000882ED601A00FB11F6D01AA19BB09B12768
:101FA000F701129102917F01B7FDEACFEACFAF921C
:101FB000BF92CF92DF92D7016801BE90AE901E9182
:101FC0000E917D018BCFD7017E916E914427069FA4
:101FD0004001169F612D900C641F079F900C611D9E
:101FE000179F712D600D741F8B018D929D9211248E
:101FF0007D0174CFD70111978E9111976E91F801E1
:10200000F89400818023862B8083789411277D01AA
:1020100065CFD7019E918E917E916E9121E2441BF6
:10202000551B07C0441F551F4017510710F0401B98
:10203000510B661F771F881F991F2A9599F7609586
:1020400070954D935D938B017D0148CFD7019E9193
:102050008E91082319237D0141CFD7019E918E9146
:10206000082B192B7D013ACFD7019E918E9108271D
:1020700019277D0133CF650131CFD7010D931D9312
:102080007D011F910F912ACFD7010D931D937D01E3
:10209000EDB7FEB71181028121CF0F931F93D701B6
:1020A0001E910E917D011ACF012B09F00FEF0095C3
:1020B000102F14CF002717FD0095102F0FCFD70139
:1020C0009E918E91080F191F7D0108CFD7019E9117
:1020D0008E917E916E915E914E91840F951F061F99
:1020E000171F8D939D937D01F9CE109501951F4F7C
:1020F000F5CED7019E918E91909500951095819582
:102100009F4F0F4F1F4F8D939D937D01E7CED701BA
:102110000D931D937D0114970D911D91DFCED70175
:102120009E918E910D931D938C01D8CED7010D9366
:102130001D937D01D3CE42E068E003C041E069E039
:102140008824C80170E050E070DE092D182DA9CE5A
:1021500041E0D70111978E9004C042E0D7018E90E4
:102160009E90C8011E910E9168E070E050E00E94C0
:10217000190E7D0196CED7010D931D9386017D0129
:10218000ADCED7010D931D9385017D01A7CEFFCF65
:10219000D8010C911127A2CED70111978E91F80189
:1021A00080831E910E917D0199CED8010D911C91D5
:1021B00095CED7019E918E91F801819390831E91C7
:1021C0000E917D018BCEC8010E946C04C1CEC80166
:1021D0000E94CC04BDCE0E94F6069927D7010D932C
:1021E0001D938C017D017ACE0E94FD06F6CFEAE4B4
:1021F000F4E0D7019E918E917D01B8010995A8CE9A
:10220000DF91CF914ECE81E191E0E8CF8CEE93E06B
:10221000E5CF0E94190562CED7019E918E9104C030
:10222000892F9927085F1F4F08301005C8F702C093
:10223000969587950A95E2F78C017D014FCED701DF
:102240009E918E9104C0982F8827085F1F4F0830F9
:102250001005C8F702C0880F991F0A95E2F78C0194
:102260007D013CCEC8010E94470A80912D0090E07C
:10227000299885E08EBDD7011E910E917D0111CE6A
:10228000C8010E940B0A8C0180E09EE961E171E0C7
:1022900040E052E00E94190E04CEC801D7017E91A1
:1022A0006E9141E151E07D010E94770DE1CFA801DF
:1022B000D7017E916E919E918E917D010E94C80EF4
:1022C000DACFE3E3F5E095CFC8010E94870E40CE58
:1022D00005CEC8013DCED7010D931D937D018E0122
:1022E0008FCFD7010D931D937D018BDD182F89DDD5
:1022F000082F86CFC5CDF2CD16CE1ECE29CE2DCE3F
:1023000034CE36CE44CE53CE5ECE74CE82CE9ECE6A
:10231000A4CEAACEB0CEB1CEB0CEB6CEBECEC4CEB6
:10232000C9CECDCED3CEE1CEE4CEF1CEF8CEFECE28
:1023300002CF04CF0DCF11CF1ECF23CF28CF28CF70
:102340002BCF33CF36CF3FCF42CF41CF44CF4CCF2F
:102350004ECF56CF58CF5ACF5CCF5ECF70CF82CF03
:102360008FCF9BCFA4CFADCFAFCFB2CFB2CFB3CFB4
:10237000B8CFE8E4F5E224913196E491922F80E021
:102380002E2F30E0282B392BC901089578948F9394
:102390009F93809101018A958093010171F090E2F1
:1023A00080FD91E297BD90910201089497959093DA
:1023B000020182E828F482EC03C080E085BD82E05F
:1023C00084BD9F918F9118958F930F9385B5882326
:1023D000E9F7009302010BE00093010180E287BD61
:1023E00082E884BD80E086BD83E085BD0F918F913A
:1023F0000895082FE9CF8F939F935E9A569A882766
:1024000085BD80916E00826080936E0078949F916C
:102410008F910895CF93DF93CDB7DEB7EF93FF93FE
:102420002F933F934F935F936F937F938F939F93DC
:10243000AF93BF93FB81EC81EE0FFF1F2591359188
:10244000F695E795EC83FB83F901F695E7950995F9
:10245000BF91AF919F918F917F916F915F914F91BC
:102460003F912F91FF91EF91DF91CF9108950F92BE
:102470001F92EF93FF930F9300E0E8E0AF93BF93B9
:10248000CF93DF930093C600E093C100D091060183
:10249000D7701F9318E1A0910401B091050108E0E5
:1024A000ED91CE2FEF770E9F0D0EE83030F0E8E67D
:1024B000F0E0E00DF11DE49106C0E9E6F3E0E00D87
:1024C000F11DE08100C0C7FDE095E093C60000006B
:1024D00000C000C000C011501AF7D73024F0A093FC
:1024E0000401B0930501D0910601DF5FD09306018E
:1024F00000C0A0E0A093C1001F91DF91CF91BF91D8
:10250000AF910F91FF91EF911F900F9008950000F0
:1025100098B1811180E19F7E892B88B908950E942E
:1025200020030895DC01CB01FC01F999FECF06C020
:10253000F2BDE1BDF89A319600B40D924150504081
:08254000B8F70895F894FFCFED
:1025480049F0836C6974000040020187657865630F
:102558007574654002400B02866272616E63684062
:102568000B40180587306272616E6368401840241A
:102578000486286C6F6F7029402440310687282B09
:102588006C6F6F70294031403D078428646F294083
:102598003D404A088169404A405421856C6561760E
:1025A800654054405B0F83616E64405B40660C82FB
:1025B8006F724066406F0D83786F72406F40770E80
:1025C800823E3E4077408032823C3C4080408833A7
:1025D800823B73408840902E8628646F657329403B
:1025E8009040981082723E409840A411823E7240FA
:1025F800A440AC13817240AC40B41282303D40B468
:1026080040BB1482303C40BB40C315812B40C340C3
:10261800CB1682642B40CB40D217856D696E7573DB
:1026280040D240DA1886646D696E757340DA40E509
:1026380019846F76657240E540F11A8464726F7090
:1026480040F140FB03847377617040FB41051B83B5
:102658006475704105410F1C8140410F41181D826E
:1026680063404118411F1E8121411F412720826379
:10267800214127412E1F82752A412E413609827534
:102688002F4136413E0B84656D6974413E414628B1
:10269800836B6579414641502C85696E6B6579413C
:1026A8005041592B84706C6F744159416438826968
:1026B800274164416E2285636D6F7665416E417670
:1026C800378369634041764181248369632141816D
:1026D800418A25826940418A419326826921419332
:1026E800419B27863E706F72743E419B41A30A83CB
:1026F80073706941A341AF39847672616D41AF410E
:10270800B82F85636C6F636B41B841C230826174C6
:1027180041C241CD2D83636C7341CD41D531842EA7
:1027280068657841D541DE2A846564697441DE4173
:10273800E83484626C6B3E41E841F235843E626C59
:102748006B41F241FC3685747261636541FC420657
:102758003A0263724206421101000D282E05636F8A
:10276800756E744211421D1C44151B1E2E0474798B
:102778007065421D422D44B30442481A161B0821B5
:102788001E2806423F054249032E057370616365A2
:10279800422D424A4340282E067370616365734296
:1027A8004A4258431B4A5644B3044274431B0842E6
:1027B8005406426F2E04282E22294258427512428E
:1027C800271C441511161342362E422E22427542FA
:1027D8008A01002243BF1D0442AA4625427E47B80B
:1027E800442D1E4415443B0542B247B8442D4227A8
:1027F80042362E0466696C6C428A42B31B131A1F58
:102808001C44151143244463372E056572617365B2
:1028180042B342CA431B42BC2E06626C616E6B73A4
:1028280042CA42D9434042BC2E0376617242D94221
:10283800E9466844464686102E05636F6E737442F7
:10284800E942F9054309101D2E01003D485A465436
:10285800445544462E013042F943153D00000131EC
:102868004315431E3D00010132431E43273D00022C
:102878000133432743303D000302626C4330433940
:102888003D00208020001F00018080800C800C4DBE
:102898007703746962433943513D80000577696461
:1028A80074684351435C3D8002077761726E696EBC
:1028B80067435C43693D8004026470436943783D23
:1028C800800607636F6E74657874437843823D8031
:1028D800080763757272656E74438243913D800A7E
:1028E80002696E439143A03D8012036F757443A043
:1028F80043AA3D801405737461746543AA43B53DCA
:102908008016046261736543B543C23D8018036451
:10291800706C43C243CE3D801A03666C6443CE4359
:10292800D93D801C03686C6443D943E43D801E0292
:102938002B2143E443EF1B1A1D161B202E06746F30
:1029480067676C6543EF43FD1A1E0E1B1F2E02318D
:102958002B43FD440E4324162E02322B440E4419F9
:10296800432D162E046865726544194424437F1D5F
:102978002E05616C6C6F7444244431437F43F62EFA
:10298800012C44314440442D20432D443B2E026306
:102998002C4440444E442D1F4324443B2E012D44D7
:1029A8004E445D18162E013D445D44664463142E62
:1029B800013C44664470446315002E00013E447097
:1029C800447C1B44762E03726F74447C4486131B2C
:1029D800111B2E0432647570448644931A1A2E0310
:1029E8006E69704493449F1B032E043F64757044C2
:1029F8009F44AA1C0444B81C2E02753C44AA44B93E
:102A0800449C0E150444CB1B03152E4463152E0657
:102A18006C617465737444B944CF439D1D1D2E07C2
:102A28007066613E63666144CF44DF1C45041E0145
:102A380000800C0444F71E2E077066613E6E6661C6
:102A480044DF44F8432D44631D2E076E66613E6CD7
:102A5800666144F8450A1C1E01001F0C1644152E19
:102A6800076E66613E706661450A4520451601009D
:102A780004162E0369642E452045331C44151B1E7D
:102A880001001F0C423642542E076D65737361674F
:102A98006545334549427E064572722023204CD352
:102AA8002E056572726F724549456143751D15049F
:102AB800457449C0442D42274236427E023F204594
:102AC80055499E063F6572726F72456145831B04C6
:102AD8004594456B032E053F636F6D70458345969E
:102AE80043BF1D14010011458E2E053F65786563AF
:102AF800459645AA43BF1D010012458E2E063F701C
:102B08006169727345AA45BD4463010013458E2E61
:102B1800413A45BD45D045B4485A46422E413B4509
:102B2800D045DD4625002E465446362E09696D6D82
:102B380065646961746545DD45EC44DA010040442B
:102B4800082E02782C45EC46021C01FF000C0446B6
:102B580016444605461844552E07636F6D70696C18
:102B6800654602461945A0111C1D46094420132E2E
:102B7800415B46194630431B43BF202E015D46305A
:102B8800463C01004043BF202E06736D756467659F
:102B9800463C464944DA01002044082E073C627549
:102BA800696C64734649465C485A4654431B44461C
:102BB8002E45646F65733E465C4671014686444601
:102BC80001001044552E1144DA452C202E41284688
:102BD80071468D01002947B82E03686578468D46F1
:102BE8009901001043CB202E07646563696D616C01
:102BF800469946A801000A43CB202E0564696769F7
:102C08007446A846BB1301003044630100091A4406
:102C1800760446E001000744631C01000A44760D6F
:102C28001C1144C02E08286E756D6265722946BB5A
:102C380046E544151C131E43CB1D46C504471E1B01
:102C480043CB1D0903448E43CB1D091743D61D44AE
:102C58001504471A432443D643F6110546F20311D7
:102C68002E066E756D62657246E54721431B431B50
:102C7800448E1C44151E01002D446C1C1344630132
:102C8800FFFF43D62046F21C1E43404463044760BE
:102C98001C1E01003A4463431B458E431B054742F3
:102CA8000311044766192E07656E636C6F736547D9
:102CB800214767131C1C1C1E4340446C0447844472
:102CC80015054776449C1B4463448E448E1C1E04A1
:102CD800479F1C1E1244630447A6441505478D1BD5
:102CE80044631C11032E11031B44631C44152E045A
:102CF800776F7264476747AF43591D43A71D161B7B
:102D08004773442D01002242E443A743F61A446363
:102D18001312442D1F16442D441511372E448E448A
:102D28008E1A1E1A1E44630447ED03032E448E4375
:102D38002444631C044804448E432416448E4324CC
:102D4800160547E144A744A72E052D66696E64471A
:102D5800AF4809434047B8442D44DA1A1E1A1E01E9
:102D6800002F0C446C04483A1A44151A1C44151BCD
:102D78001E01001F0C47DD04484445161D1C04486D
:102D88004E05481B44A71C452C1B1E01FFFF2E06A1
:102D98006372656174654809484F481304486D03B8
:102DA8004504453B01000445554254442D1C1C1E56
:102DB80043661D4A441C4415443B0100200D1A1F5C
:102DC80044DA44464446439D1D202E495B636F6D9B
:102DD80070696C655D484F488B481314431B458EDA
:102DE8000344EB46092E476C69746572616C488B25
:102DF80048A643BF1D0448BE4625000144462E4848
:102E0800646C69746572616C48A648BF43BF1D0451
:102E180048D71B48B248B22E066578706563744877
:102E2800BF48D81A16131C431B1A1F2C1C01000775
:102E3800446C044908031A1A447604490543244497
:102E480063010007280548E71A1244761A01000DA5
:102E5800446C140C04491F1C281A1F4415431B01F9
:102E6800000D446C0448E71103030342542E404804
:102E7800D8492E01802043592011032E09696E7408
:102E8800657270726574492E493C4813044968019B
:102E9800007F0C43BF1D447604496244EB46090594
:102EA800494A44EB0205494A472C43D61D441504B8
:102EB800497748CC05494A0348B205494A0571751E
:102EC800657279493C497D43591D01005048E343E7
:102ED8001B43A7202E0471756974497D49954636B0
:102EE80042184987494A43BF1D140449B3427E0327
:102EF800204F4B0549A00561626F7274499549B628
:102F080046B44218427E1E4649476E6974696F6E20
:102F1800200D7F6E696368656D616368696E6573AE
:102F28002032303131499E04636F6C6449B649E7F9
:102F380001434301800001000E3749C004732D3E50
:102F48006449E749FC1C152E022B2D49FC4A08153B
:102F5800044A14182E03642B2D4A084A1515044AEE
:102F680022192E036162734A154A231C4A0F2E0444
:102F7800646162734A234A2F1C4A1D2E036D696ED1
:102F88004A2F4A3C1A1A4482044A4C1B032E036DEA
:102F980061784A3C4A4E1A1A4476044A5E1B032E4C
:102FA800026D2A4A4E4A601A1A0E134A2B1B4A2BE4
:102FB80009114A1D2E012A4A604A7509032E052A5D
:102FC8002F6D6F644A754A7E134A67114AA22E0212
:102FD8002A2F4A7E4A8F4A881B032E026D2F4A8F5A
:102FE8004A9B1A13134A38124A2B0B11120E4A0F16
:102FF8001B114A0F1B2E042F6D6F644A9B4AB61390
:103008004A05114AA22E012F4AB64AC64ABF1B03D7
:103018002E036D6F644AC64AD14ABF032E056D2F31
:103028006D6F644AD14ADD13431B120B111B130B3E
:10303800112E41274ADD4AF2481314431B458E03DB
:1030480048B22E046261636B4AF24B0344462E4534
:10305800626567696E4B034B0F45A0442D43242ED0
:1030680045656E6469664B0F4B2045A0432D45C8E6
:10307800442D1B202E447468656E4B204B354B2A1B
:103088002E42646F4B354B4146250008442D43368C
:103098002E446C6F6F704B414B51433645C84625E3
:1030A80000064B0C2E452B6C6F6F704B514B6543D4
:1030B8003645C8462500074B0C2E45756E74696C5D
:1030C8004B654B7A432445C8462500044B0C2E43D8
:1030D800656E644B7A4B8F4B842E45616761696ED0
:1030E8004B8F4B9A432445C8462500054B0C2E466A
:1030F8007265706561744B9A4BAF13134BA4111131
:10310800432D44634B2A2E4269664BAF4BC7462575
:103118000004442D431B4446432D2E44656C7365BF
:103128004BC74BDB432D45C846250005442D431BA3
:1031380044461B432D4B2A432D2E457768696C6501
:103148004BDB4BFA4BCE44202E04686F6C644BFA71
:103158004C0901FFFF43EC43F643EC1D1F2E03709F
:1031680061644C094C1E442D010044162E023C2378
:103178004C1E4C2D4C2643EC202E02233E4C2D4C4D
:103188003A030343EC1D4C261A44632E0473696703
:103198006E4C3A4C4C448E15044C6001002D4C1278
:1031A8002E01234C4C4C6143CB1D4AE7448E010051
:1031B800091A4476044C7B01000716010030164CAE
:1031C800122E0223734C614C824C671A1A0D140498
:1031D8004C892E03642E724C824C93131B1A4A3866
:1031E8004C344C894C554C41111A44634263423665
:1031F8002E02642E4C934CB1431B4C9B42542E021E
:103208002E724CB14CBF134A05114C9B2E012E4C0B
:10321800BF4CCD4A054CB82E013F4CCD4CD81D4C67
:10322800D32E046C6F61644CD84CE2019E00435964
:1032380020431B43A72035431B019FF41F2E046D19
:103248006F72654CE24CFE01E9031C010008321B59
:10325800010008330D262F01023F164482044D2C2D
:10326800427E066D6F72653E3E2C03312E05766CEC
:103278006973744CFE4D2D3144DA4D071C453B45AE
:10328800161D44B314044D3A2E06666F72676574B2
:103298004D2D4D494813044D670345041C45161D23
:1032A800439D1D20054D6903032E0370656E4D492E
:1032B8004D6A01003E252E046C6973744D6A4D7782
:0432C80035032E009C
:0832CC000800000000000000F2
:00000001FF
:000000