:100000000C94BD020C94DA020C94DA020C94DA021D
:100010000C94DA020C94DA020C94DA020C94DA02F0
:100020000C94DA020C94DA020C94DA020C941703A2
:100030000C94DA020C94DA020C94840E0C94DA021A
:100040000C94DA020C94DA020C94DA020C94DA02C0
:100050000C94DA020C94DA020C94DA020C94DA02B0
:100060000C94DA020C94DA02B609D3094A0CED09B1
:10007000080A170A380A610A740A9B09880AAF0A33
:10008000B90AC30ACD0ACF0ADB0AE70AF50AF80A59
:10009000FC0AFF0A090B390B3E0B500B580B600B87
:1000A0006A0B7B0B7F0B8F0BA00BAA0B7A0CB50B8B
:1000B000B80BBE0BC20BCA0BCE0BCE0BD20BDE0B9A
:1000C000EC0BF80BFB0B080C160C190C270C360C60
:1000D0003F0C520C9B094A0C00000000000000007D
:1000E0000F0F0F0F00000000F0F0F0F00000000014
:1000F000FFFFFFFF00000000000000000F0F0F0FC8
:100100000F0F0F0F0F0F0F0FF0F0F0F00F0F0F0F7B
:10011000FFFFFFFF0F0F0F0F0000000000000000A7
:100120000F0F0F0F00000000F0F0F0F000000000D3
:10013000FFFFFFFF00000000000000000F0F0F0F87
:100140000F0F0F0F0F0F0F0FF0F0F0F00F0F0F0F3B
:10015000FFFFFFFF0F0F0F0FFF80808080808080E8
:10016000FF00000000000000FF010101010101018A
:100170008080808080808080010101010101010177
:1001800080808080808080FF00000000000000FFF1
:1001900001010101010101FF0000000055AA55AA5B
:1001A00055AA55AA000000005050505050505050D1
:1001B00055AA55AA55AA55AA0000183C3C1800009B
:1001C0003C7EFFFFFFFF7E3C3E419CAC9F403F00DA
:1001D00000008E9526C8F00000000000000000001E
:1001E0000010101010001000002424000000000077
:1001F00000247E24247E240000083E283E0A3E0877
:100200000062640810264600001028102A443A00B4
:10021000000810000000000000040808080804009E
:100220000020101010102000000014083E081400D8
:10023000000008083E080800000000000008081040
:10024000000000003E000000000000000018180040
:100250000000020408102000003C464A52623C00A4
:100260000018280808083E00003C42023C407E007E
:10027000003C420C02423C0000081828487E08005E
:10028000007E407C02423C00003C407C42423C00FC
:10029000007E020408101000003C423C42423C0038
:1002A000003C42423E023C000000001000001000F2
:1002B00000001000001010200000040810080400C6
:1002C0000000003E003E000000001008040810007E
:1002D000003C420408000800003C4A565E403C00D6
:1002E000003C42427E424200007C427C42427C0012
:1002F000003C424040423C00007844424244780086
:10030000007E407C40407E00007E407C40404000BB
:10031000003C42404E423C000042427E424242008B
:10032000003E080808083E000002020242423C006B
:1003300000444870484442000040404040407E0035
:100340000042665A42424200004262524A4642001D
:10035000003C424242423C00007C42427C40400021
:10036000003C4242524A3C00007C42427C444200F3
:10037000003C403C02423C0000FE101010101000F7
:100380000042424242423C000042424242241800A3
:1003900000424242425A24000042241818244200DB
:1003A0000082442810101000007E040810207E00F7
:1003B000000E080808080E00000040201008040085
:1003C0000070101010107000001038541010100041
:1003D00000000000000000FF001C227820207E00AA
:1003E000000038043C443C000020203C22223C0019
:1003F00000001C2020201C000004043C44443C005D
:100400000000384478403C00000C10181010100018
:1004100000003C44443C04380040407844444400DC
:1004200000100030101038000004000404042418E8
:1004300000202830302824000010101010100C006C
:10044000000068545454540000007844444444006C
:100450000000384444443800000078444478404068
:1004600000003C44443C040600001C2020202000E6
:1004700000003840380478000010381010100C00CC
:10048000000044444444380000004444282810003C
:10049000000044545454280000004428102844000C
:1004A00000004444443C043800007C0810207C00D8
:1004B000000E083008080E000008080808080800A8
:1004C0000070100C101070000014280000000000D4
:1004D0003C4299A1A199423C0D200A0007090B0852
:1004E0007A7978777A7675746C736B6A69736867F2
:1004F0003D29CD28242FCD2A2B3039C3383736C398
:100500007A7271707A6F6E6D66736564637362611F
:10051000223BAB3A212CDE2E2D3534003332310014
:100520000A200A007F090B085A5958575A56555441
:100530004C534B4A49534847265D005B605C005E64
:100540003E3C3900383736005A5251505A4F4E4DC2
:100550004653454443534241277B007D3F25007F5E
:100560007E35340033407C000F070B030D05090175
:100570000E060A020C040800230011241FBECFEF50
:10058000D4E0DEBFCDBF11E0A0E0B1E0EEE2FCE2DE
:1005900002C005900D92AC30B107D9F713E0ACE082
:1005A000B1E001C01D92A13CB107E1F70E946209D0
:1005B0000C949F0F0C940000089583E883BD83E39F
:1005C0008093B0008AE08093B1001092B2008FE96E
:1005D0008093B3008BE08093B4001092800022E0FF
:1005E0002093810010928500109284008BE090E0AF
:1005F000909389008093880020936F0050988AB16F
:100600008A608AB98BB1857F8BB988E080930601B7
:10061000E4ECF0E01182108280EC8093C200109232
:10062000C10081E090E09183808313BC08951F9204
:100630000F920FB60F9211242F938F939F93809157
:100640000601873069F50E94C80E82E080936E0033
:1006500080910701909108018C579340D0F08091D0
:1006600088009091890081519D4D909389008093DD
:10067000880088E0809306018091190190911A0109
:10068000019690931A01809319010E94310FD20DA7
:1006900094C0809188009091890081579F4F68C0D5
:1006A000833009F43FC0843028F48130F9F082307F
:1006B00060F50AC0863009F463C0883009F471C05F
:1006C000843009F07AC040C08FE48093B30085E0A5
:1006D0008093B400809188009091890084519E4F4E
:1006E000909389008093880081E047C089E48093DB
:1006F000B4008091880090918900805C9E4F909317
:1007000089008093880082E038C010926E0080914A
:10071000880090918900CE969093890080938800FC
:1007200083E02BC082E080936E0085E08093B4006C
:1007300080918800909189008E559E4F90938900FA
:100740008093880084E019C08FE98093B3008BE028
:100750008093B40084E291E09093080180930701B4
:1007600010920901809188009091890080559D4DDB
:10077000909389008093880086E0809306011DC0D5
:100780008091880090918900419690938900809390
:10079000880010926E0087E0809306017894889517
:1007A0000CC080918800909189008C569F4F909347
:1007B000890080938800109206019F918F912F915C
:1007C0000F900FBE0F901F90189528ED30E0ACE70A
:1007D000B3E005C0F90184918D932F5F3F4FF3E0A3
:1007E000AC3BBF07B8F3089529E1629F9001112443
:1007F000280F311D2C5D3E4F3093180120931701B7
:100800008093BC03609323010895E4E2F1E0818DBD
:10081000819383E0E336F807D0F302C0819301C0EF
:1008200080E293E0EC37F907C8F308951F93182F7F
:10083000873041F08D3011F51092BC038091230177
:100840008F5F16C0E0911701F091180180E280835C
:100850008091BC03882321F081508093BC030DC09C
:1008600088E18093BC0380912301181624F4815001
:100870008093230102C01092230110E08091BC03F9
:10088000893168F01092BC03809123018F5F05C00D
:100890000E9405048091230181508093230160917F
:1008A00023016831A8F78091BC030E94F40311234F
:1008B00071F0E0911701F09118011193F093180174
:1008C000E09317018091BC038F5F8093BC031F915D
:1008D0000895CF93DF93EC0103C021960E94160484
:1008E00088818823D1F7DF91CF9108951F93CF930B
:1008F000DF93EC0180E30E94160488E70E9416044F
:1009000010E008C024E0CC0FDD1F2A95E1F71F5F3F
:100910001730C9F0CE018070907F892B99F313C0F6
:100920009E0120E13202212D330B1124822F805DA4
:100930008A330CF0895D0E94160484E0CC0FDD1F21
:100940008A95E1F71F5F183058F380E20E94160481
:10095000DF91CF911F91089580E060E00E94F40341
:1009600080E090E020E2E0911701F09118012193DE
:10097000F0931801E0931701019632E08835930750
:1009800091F780E060E00E94F403089598B181112E
:1009900080E19F7E892B88B90895BF92CF92DF9224
:1009A000EF92FF920F931F93CF93DF93E090170185
:1009B000F0901801C090BC03D090230106E1C4E080
:1009C000D0E049E0B42E8BE0602F0E94F403CE010A
:1009D0008450182F23C0E0910E01F0E031968091F1
:1009E0000F018B9DC0011124E80FF91F33E0EE0FBA
:1009F000FF1F3A95E1F7EA1BFB0BE152FB4F849195
:100A00008058E0911701F0911801E081E81719F082
:100A1000A55EBE4FEC930E9416041F5FA12FB0E0AD
:100A2000AC17BD07C4F20F5F2496083161F6F0924F
:100A30001801E0921701C092BC03D0922301DF910C
:100A4000CF911F910F91FF90EF90DF90CF90BF90CB
:100A50000895CF92DF92EF92FF920F931F93CF935F
:100A6000DF93E0901701F0901801C090BC03D09084
:100A7000230106E1C4E0D0E08BE0602F0E94F40384
:100A8000CE018450182F06C0E55EFE4F80810E9483
:100A900016041F5FE12FF0E0EC17FD07ACF30F5FCA
:100AA0002496083149F7F0921801E0921701C0929C
:100AB000BC03D0922301DF91CF911F910F91FF9042
:100AC000EF90DF90CF900895282F30E0C901019773
:100AD00082239323892B19F049E050E016C0822F1E
:100AE000807F49F0822F807C19F445E050E00DC0F2
:100AF00047E050E00AC0C9018C709070892B19F44E
:100B000041E050E002C043E050E0042E02C03595C1
:100B100027950A94E2F741505040240F351FC90130
:100B2000089580911001909111018130910511F08B
:100B3000039769F480910101882321F0815080930B
:100B4000010108958FEF809301010E94CD04089563
:100B50000F931F93082F80910D01081719F40E941D
:100B60009105C0C08091010118168CF08091100190
:100B7000909111018130910511F0039741F40E9489
:100B80002905002321F4109211011092100188E030
:100B90008093010120911001309111012130310524
:100BA000C9F02130310548F02230310509F451C037
:100BB0002330310509F094C05CC080910D0180178D
:100BC00008F08EC0802F0E94640580930E0181E0A2
:100BD00090E07DC080910D0110910E01801710F5FD
:100BE000012E02C0220F331F0A94E2F7802F821BCE
:100BF0000E946405E12FF0E0319620910F0149E059
:100C0000249F90011124E20FF31F63E0EE0FFF1FFA
:100C10006A95E1F7E80FF91FE852FB4FE491E09382
:100C20000C0151C090910F01133029F481E0891B10
:100C300080930F0151C0E8E49E9FF0011124E10F61
:100C4000F11DE852FB4FE491E0930C0110920F016B
:100C500043C0002309F440C080910D01081708F03B
:100C60003FC0802F0E94640580930E0183E090E0D6
:100C70002EC080910D01801778F510910E0181E052
:100C800090E0012E02C0880F991F0A94E2F7202FEE
:100C9000281B822F0E946405E12FF0E031962091FD
:100CA0000F0149E0249F90011124E20FF31F53E04C
:100CB000EE0FFF1F5A95E1F7E80FF91FE852FB4FBF
:100CC000849180930C0110920F0182E090E0909348
:100CD00011018093100104C01092110110921001B3
:100CE00000930D011F910F91089587B1807F87B9FF
:100CF00088B18F6088B957985F9A2098289A08958C
:100D0000CF92DF92EF92FF920F931F93182FF62E40
:100D1000D42EC22E8DE00E941604812F90E00E94F6
:100D2000760480E20E9416048F2D90E00E947604E3
:100D300080E20E9416048D2D90E00E94760480E2ED
:100D40000E9416048C2D90E00E94760480E20E949E
:100D50001604802F90E00E94760480E20E94160420
:100D60008E2D90E00E94760480E20E9416041F916E
:100D70000F91FF90EF90DF90CF9008959091130125
:100D8000992371F4E6B1F0E0EF70F070E859FA4F92
:100D9000E491E093140157985F9A209A289812C022
:100DA000E6B1F0E0EF70F070E859FA4FE49180910D
:100DB00014018295807F8E2B809314012098289AAD
:100DC000579A5F989F5F91709093130180911401DF
:100DD00008950E94BE06982F80911301882351F434
:100DE00080911201981721F4892F0E94A805089577
:100DF00090931201089580910C01882311F01092B4
:100E00000C0108951F93E0911701F0911801808162
:100E1000805880830E94FB06182F8823D9F3E09125
:100E20001701F0911801808180588083809113010F
:100E30000E94C604812F1F9108950CC08091190152
:100E400090911A0174E0959587957A95E1F78170F4
:100E50000E94C6040E94FB06882381F3089590E057
:100E600044EF51E009C024EF31E0FA013197F1F786
:100E700021503040D1F79F5F9817A8F3089594E16F
:100E8000899F802D11240E942F070895EF92FF92D1
:100E90000F931F9320911501309116012F5F3F4F43
:100EA0004BE450E0249F7001259FF00C349FF00C20
:100EB0001124F0921601E092150100E010E09C016F
:100EC00040E050E0C801B7010E945E0F9C0144273A
:100ED0005527C9011F910F91FF90EF90089584B19C
:100EE000817C8E6284B985B1817C866085B981E51B
:100EF0008CBD08958EBD0DB407FEFDCF089580E032
:100F00000E947A078EB50895299881E00E947A0799
:100F100081E40E947A07299A0895299885E00E9421
:100F20007A070E947F07299A0895FF920F931F93D3
:100F3000182F092FF62E299882E00E947A07802F19
:100F40000E947A07812F0E947A078F2D0E947A07CC
:100F5000299A1F910F91FF900895FF920F931F936D
:100F6000182F092FF62E299882E00E947A07802FE9
:100F70000E947A07812F0E947A078F2D0E947A079C
:100F80001F910F91FF9008950F931F938C01299843
:100F900083E00E947A07812F0E947A07802F0E94A7
:100FA0007A070E947F07299A1F910F9108950F9346
:100FB0001F938C01299883E00E947A07812F0E9459
:100FC0007A07802F0E947A070E947F071F910F9156
:100FD00008952A9885E00E947A070E947F072A9A3E
:100FE00008950E94E90780FDFCCF08952A9886E0C5
:100FF0000E947A072A9A08950F931F938C010E94EA
:10100000F6072A9888ED0E947A07812F0E947A07B6
:10101000802F0E947A0780E00E947A072A9A0E9415
:10102000F1071F910F9108950F931F93CF93DF93B3
:101030008C01EB012A9883E00E947A07812F0E949D
:101040007A07802F0E947A0780E00E947A0700E0EA
:1010500010E00E947F0789930F5F1F4F81E00030EF
:101060001807B9F72A9ADF91CF911F910F91089530
:101070000F931F93CF93DF938C01EB010E94F60730
:101080002A9882E00E947A07812F0E947A07802F97
:101090000E947A0780E00E947A0700E010E08991C0
:1010A0000E947A070F5F1F4F81E000301807B9F7E1
:1010B0002A9A0E94F107DF91CF911F910F91089515
:1010C000E2E4FFE124913196E491922F80E02E2F0B
:1010D00030E0282B392BC9010895299A8CB58F7BD4
:1010E0008CBD20918400309185002F5F3F4F8DB5DE
:1010F0008EB58091840090918500A901481B590B01
:1011000057FFF5CF8CB580648CBD0895FC0197FD29
:1011100005C0FF71EE5BF04E849108958091BF038E
:101120009091C0033196F093C003E093BF033197D1
:10113000E817F90729F40DB407FEFDCF8EB51CC0E2
:10114000299A8CB58F7B8CBD2091840030918500CD
:101150002F5F3F4F8DB58EB58091840090918500B3
:10116000A901481B590B57FFF5CF8CB580648CBD86
:10117000CF019F770E94D7071EBC08950F931F933E
:10118000CF93DF93FC01EB018A014115510559F121
:10119000299A8CB58F7B8CBD20918400309185007D
:1011A0002F5F3F4F8DB58EB5809184009091850063
:1011B000A901481B590B57FFF5CF8CB580648CBD36
:1011C000CF019F7768810E94AD0703C088810E948C
:1011D0007A0701501040219601151105B9F71092B8
:1011E000C0031092BF03DF91CF911F910F9108951B
:1011F0000E94AC040895EF92FF920F931F93CF9338
:10120000DF937C018B01EA01C7010E94860880936D
:10121000BD031092BE030894E11CF11CC8016DEBE4
:1012200073E041E050E00E94BE080F5F1F4F21971E
:1012300059F7DF91CF911F910F91FF90EF90089593
:101240000F931F9383B7816083BF1092C10080E129
:1012500087B90E94B90E20E044EF51E008C0FA01BE
:101260003197F1F70197D9F72F5F243619F08CE207
:1012700091E0F5CF87E40E94B70E00E017E41F5F0E
:101280001F3709F411E2812F0E94B70E0F5F083259
:10129000B1F782E70E94B70E85E50E94B70E0E9463
:1012A000E50386E70E94B70E83E50E94B70E0E9411
:1012B00075060E946F070E9484070E94DD021F913D
:1012C0000F9108952F923F924F925F926F927F926B
:1012D0008F929F92AF92BF92CF92DF92EF92FF9246
:1012E0000F931F93DF93CF93CDB7DEB72E970FB633
:1012F000F894DEBF0FBECDBF0E9420090E94AC044F
:101300000E9460088C011092C0031092BF0321EC70
:1013100033E03E872D8780E20E941604CC24DD2432
:10132000662477244424552407C0CC24CA94DC2C9A
:1013300002C0CC24DD24840148010894811C911C46
:10134000C8010E948608182F893308F0BFC2812F78
:1013500090E0FC013197E833F10568F7EC5CFF4F52
:10136000EE0FFF1F0590F491E02D09948D859E8569
:1013700002969E878D87FC01D182C08284010F5F17
:101380001F4FC4010E948608F82E48010894811C52
:10139000911CC8010E9486083F2C2224C82EDD24FF
:1013A000C228D328C8CF2D853E8522503040F9E38E
:1013B000CF16D10440F41C2DED85FE85C080D18070
:1013C0003E872D87C4CF8F929F92ED85FE858081C9
:1013D00091813E872D87460171C174010894E11CFB
:1013E000F11CC4010E948608182FC7010E948608BC
:1013F000CD2829F047010894811C911C4BC21E8303
:101400001D82882E99242D813E81822A932A42C2F0
:10141000C4010E948608182FC40101960E94860804
:1014200018871F82882E99242F8138853EC0089402
:10143000611C711C74010894E11CF11CC4010E9420
:101440008608182FC7010E948608641475043CF4AE
:101450001C831B82882E99248B819C8148C2470162
:101460000894811C911C7F906F905F904F9063CF88
:101470006C0C7D1CED85FE85C080D1803297FE8787
:10148000ED8774010894E11CF11CC4010E948608D8
:10149000182FC7010E948608641475044CF41A833F
:1014A0001982882E992429813A81822A932A43CF4E
:1014B00047010894811C911C7F906F905F904F9022
:1014C0003ACF4F925F926F927F92ED85FE8540807A
:1014D000518032979F01225030403E872D87360140
:1014E00020813181C901EAC0ED85FE85608171816D
:1014F00080E090E0960140E050E00E945E0FED85B4
:10150000FE8571836083BC01882799276B0113CF07
:10151000ED85FE8580819181A0E0B0E0DC01992716
:101520008827F290E290FE87ED8700E010E0E82A3D
:10153000F92A0A2B1B2B5601CC24DD24C801B70144
:10154000A60195010E947D0FED85FE857183608364
:10155000C801B701A60195010E947D0F85C1ED85E7
:10156000FE85808191813297FE87ED87C822D9223E
:10157000E2CEED85FE85808191813297FE87ED87F1
:10158000C82AD92AD8CEED85FE85808191813297EF
:10159000FE87ED87C826D926CECE3201CCCE2D854A
:1015A0003E852E5F3F4F3E872D87F901D182C08255
:1015B000DF90CF90C0CE2D853E852E5F3F4F3E877A
:1015C0002D87F901D182C082DF90CF90B4CE2D85D6
:1015D0003E852E5F3F4F3E872D87F901D182C08225
:1015E000DF90CF90CF92DF92A6CECF92DF9252C102
:1015F000CD2809F49ACE9DCED7FE9BCE96CEED8512
:10160000FE85808191813297FE87ED87C80ED91EB5
:1016100092CE2D853E8522503040C601A0E0B0E03C
:10162000DC0199278827ED85FE85E080F18000E0C8
:1016300010E0E82AF92A0A2B1B2BF90120813181BD
:1016400040E050E0A9013327222792918291FE8742
:10165000ED87A0E0B0E0822B932BA42BB52B8E0D51
:101660009F1DA01FB11F91838083CD01AA27BB2797
:1016700025C0D094C194D108D3945DCEED85FE856C
:1016800080819181909581959F4F91838083C094B3
:10169000D094892B09F04FCE0894C11CD11C4BCE9D
:1016A000ED85FE85808191813296FE87ED8704C0AD
:1016B000ED85FE8580819181D182C0826C013BCE17
:1016C0002D853E852E5F3F4F3E872D87F901C082D5
:1016D000D18231CEC6010E948608182FC60101961C
:1016E0000E9486081A871986C82EDD2429853A8526
:1016F000C22AD32A20CEC6010E9486086AC0C6012B
:101700006D857E8541E050E00E94BE08ED85FE8536
:10171000D290C290CF0102979E878D870CCE0D8507
:101720001E85F801908181818093BD039093BE0353
:10173000C6016DEB73E042E050E00E94BE08BDC000
:101740008D859E8502969E878D87FC01D182C08201
:101750006301F1CD2D853E852E5F3F4F3E872D875E
:10176000F901D182C0826201E6CDF601808131C0EB
:10177000ED85FE858081F601808334C0F601C0804E
:10178000D180D9CDED85FE8580819181F60191834F
:10179000808328C08C2D0E9416047CC0C6010E9444
:1017A000760478C02D853E852E5F3F4F3E872D877E
:1017B000F901D182C0820E94FB060BC02D853E85B7
:1017C0002E5F3F4F3E872D87F901D182C0820E9454
:1017D0000207C82EDD24AFCDED85FE8580816C2DFE
:1017E0000E94F403ED85FE85D290C2909F0169C0EE
:1017F0009F908F90A0CD8D859E8502969E878D8728
:10180000FC01D182C082A4E2CA2EA1E0DA2E93CDDF
:101810002D853E852E5F3F4F3E872D87F901D18272
:10182000C082F9E1CF2EF1E0DF2E85CD0E94AC041D
:1018300082CDED85FE85808191813297FE87ED878F
:101840009C0102C036952795CA94E2F70DC0ED853C
:10185000FE85808191813297FE87ED879C0102C0D1
:10186000220F331FCA94E2F7690165CD0D851E85ED
:10187000F80180819181B6010E94D50D1EC0C6017C
:101880000E94100D80E09EE964E271E040E052E0C9
:101890000E94BE08ED85FE85C080D1803297FE870C
:1018A000ED8749CD0D851E85F8016081718192918A
:1018B00082918F01A6010E94FB08F801D290C2908C
:1018C0009F01225030403E872D8735CD0894811CE2
:1018D000911C8F929F92089481089108C4010E94E4
:1018E0008608882E99241C871B868B859C85882AD0
:1018F000992A21CD2E960FB6F894DEBF0FBECDBF2C
:10190000CF91DF911F910F91FF90EF90DF90CF90DB
:10191000BF90AF909F908F907F906F905F904F900F
:101920003F902F900895CF93DF93EC01FE01219615
:101930008491882319F00E94B70EF8CFDF91CF91E0
:10194000089599E16902B0011124992787FD9095C6
:10195000680F791F6C5D7E4FCB0108950F931F9325
:10196000CF93DF93EC01062F0A30D1F00B3040F417
:10197000083019F10930D8F4073009F045C03CC0EF
:101980000D30F9F00E3018F40B30F1F505C0033CC2
:10199000D1F00D3CC9F52BC08981815089833BC0B2
:1019A00089818F5F89838431B0F1198234C0888145
:1019B0008F5F8883893128F42EC088818150888385
:1019C0002AC01882EDCF1A81812F6B810E94A10C51
:1019D000FC0100811F5F1A83193130F21A828B815A
:1019E0008F5F8B83843108F4BFCF1B82BDCF88818A
:1019F0008A8389818B830FC0888169810E94A10CB1
:101A0000FC0180E28083D9CF888169810E94A10C8A
:101A1000FC010083CCCFDF91CF911F910F910895EE
:101A20000F931F938C010E946D08C80180589F4F2F
:101A3000880F991F64E271E00E941408000F111FC3
:101A4000C8018F5F9E4F64E272E00E9414081092FA
:101A5000C0031092BF031F910F9108950F931F931E
:101A60008C010E946D08C80180589F4F880F991FF4
:101A700064E271E00E943808000F111FC8018F5FF7
:101A80009E4F64E272E00E9438081092C0031092E8
:101A9000BF031F910F910895AF92BF92CF92DF9233
:101AA000EF92FF920F93DF93CF9300D0CDB7DEB7C5
:101AB0005C017B016A0180E065E10E94A10C9A83D0
:101AC00089838FE3E981FA8180830E940207082FCE
:101AD000E981FA818083873509F449C0883528F483
:101AE000873039F1853441F447C08A3509F44EC056
:101AF000893621F08835F1F100E04AC080E0F60136
:101B000061810E94A10C7C0188E162E10E94A10C2C
:101B1000FC0103C08081818F3197EE15FF05D0F75E
:101B2000C701499620E201C02193E817F907E0F3C5
:101B30002FC080E0F60161810E94A10C7C0180E051
:101B400063E10E94A10C9C0104C0F701818D819387
:101B50007F01E216F306C8F3C901499620E203C0EB
:101B6000F70121937F01E816F906D0F311C0C701F0
:101B70000E942E0D0BE10CC080E890E0A80EB91E6B
:101B8000C501880F991F0E94FC07F4CF0E94AC0486
:101B9000802F0F900F90CF91DF910F91FF90EF90DA
:101BA000DF90CF90BF90AF9008953F924F925F9299
:101BB0006F927F928F929F92AF92BF92CF92DF925D
:101BC000EF92FF920F931F93DF93CF9300D000D03B
:101BD000CDB7DEB74C013B0119821A828FEF8B83A0
:101BE0000E94AC04C4010E94100D80E065E10E94D7
:101BF000F403C4010E94760480E20E941604C3012B
:101C00000E94760463E8362E2E010894411C511C74
:101C10000091190110911A0189816A810E94A10C19
:101C20005C018B816C810E94A10C6C01FC01E08045
:101C30001DC08091190190911A019801281B390B40
:101C400037FF14C0F5019081905890838B818F3FAE
:101C500039F097FF03C0F601308202C0F601E0823E
:101C60000091190110911A010E5C1F4F0E94FB0692
:101C7000F82E8823F1F2F50180818F778083F601B9
:101C8000E082FBEAFF1639F4C401B301A2010E940D
:101C90004C0DF82E04C0C2016F2D0E94AE0C2BE13A
:101CA000F21609F0B5CF80E064E10E94F4030F90D2
:101CB0000F900F900F90CF91DF911F910F91FF9098
:101CC000EF90DF90CF90BF90AF909F908F907F90DC
:101CD0006F905F904F903F9008950F931F930BB1BB
:101CE000102F037F1C5F1C70012B0BB900910201A8
:101CF0000A95009302011F910F9108950F9304E636
:101D0000009302010F91089578944F935F9340914F
:101D100003014A954093030171F050E240FD51E206
:101D200057BD50910501089457955093050142E81D
:101D300028F442EC03C040E045BD42E044BD5F9161
:101D40004F9118954F936F9345B54423E9F76093EE
:101D500005016BE06093030140E247BD42E844BDEA
:101D600040E046BD43E045BD6F914F910895682F17
:101D7000E9CF4F935F935E9A569A442745BD4091B1
:101D80006E00426040936E0078945F914F91089589
:101D90000F921F92EF93FF930F9300E0E8E0AF9351
:101DA000BF93CF93DF930093C600E093C100D0911F
:101DB0000901D7701F9318E1A0910701B0910801A4
:101DC00008E0ED91CE2FEF770E9F0D0EE83030F04A
:101DD000E8EDF0E0E00DF11DE49106C0ECE7F3E082
:101DE000E00DF11DE08100C0C7FDE095E093C60065
:101DF000000000C000C000C011501AF7D73024F016
:101E0000A0930701B0930801D0910901DF5FD0933F
:101E1000090100C0A0E0A093C1001F91DF91CF9104
:101E2000BF91AF910F91FF91EF911F900F90089587
:101E30000000BF93AF931F93A0910701B0910801D9
:101E40001D911093C600A0930701B0930801109153
:101E50000A01115000F410930A011F91AF91BF9134
:101E60001895CF93DF93CDB7DEB7EF93FF932F9302
:101E70003F934F935F936F937F938F939F93AF9312
:101E8000BF93FB81EC81EE0FFF1F25913591F695F5
:101E9000E795EC83FB83F901F695E7950995BF91EA
:101EA000AF919F918F917F916F915F914F913F91F2
:101EB0002F91FF91EF91DF91CF910895629FD00113
:101EC000739FF001829FE00DF11D649FE00DF11DF5
:101ED000929FF00D839FF00D749FF00D659FF00DA4
:101EE0009927729FB00DE11DF91F639FB00DE11D91
:101EF000F91FBD01CF0111240895A1E21A2EAA1BDA
:101F0000BB1BFD010DC0AA1FBB1FEE1FFF1FA217A9
:101F1000B307E407F50720F0A21BB30BE40BF50BA6
:101F2000661F771F881F991F1A9469F7609570952F
:101F3000809590959B01AC01BD01CF010895F89467
:021F4000FFCFD1
:101F420049DD836C6974000040020187657865632E
:101F52007574654002400B02866272616E6368406E
:101F62000B40180587306272616E63684018402426
:101F72000486286C6F6F7029402440310687282B15
:101F82006C6F6F70294031403D078428646F29408F
:101F92003D404A088169404A405421856C6561761A
:101FA200654054405B0F83616E64405B40660C8207
:101FB2006F724066406F0D83786F72406F40770E8C
:101FC200823E3E4077408032823C3C4080408833B3
:101FD200823B73408840902E8628646F6573294047
:101FE2009040981082723E409840A411823E724006
:101FF200A440AC13817240AC40B41282303D40B474
:1020020040BB1482303C40BB40C315812B40C340CF
:10201200CB1682642B40CB40D217856D696E7573E7
:1020220040D240DA1886646D696E757340DA40E515
:1020320019846F76657240E540F11A8464726F709C
:1020420040F140FB03847377617040FB41051B83C1
:102052006475704105410F1C8140410F41181D827A
:1020620063404118411F1E8121411F412720826385
:10207200214127412E1F82752A412E413609827540
:102082002F4136413E0B84656D6974413E414628BD
:10209200836B6579414641502C85696E6B65794148
:1020A2005041592B82692741594164228369634017
:1020B2004164416C2483696321416C4175258269C5
:1020C200404175417E26826921417E418627847680
:1020D20072616D4186418E2F85636C6F636B418E99
:1020E200419830826174419841A32D83636C73419E
:1020F200A341AB31842E68657841AB41B42A846533
:1021020064697441B441BE34846C69737441BE41E4
:10211200C83585747261636541C841D23702637202
:1021220041D241DD01000D282E05636F756E7441A9
:10213200DD41E91C44071B1E2E047479706541E9D8
:1021420041F944A50442151A161B08211E0028064F
:10215200420B054216032E05737061636541F94215
:10216200174324282E067370616365734217422554
:1021720042FB4A4444A504424142FB084221064232
:102182003C2E04282E2229422542421241F31C44AD
:102192000711161342022E422E22424242570100DA
:1021A2002243AC1D0442774617424B47AA441F1EE6
:1021B2004407442D05427F47AA441F41F342022EA1
:1021C20005636D6F76654257428042FB081A2116FD
:1021D2001E1A21161F06428D03032E0466696C6CBB
:1021E2004280429B1B131A1F1C440711430544558E
:1021F200428A2E056572617365429B42B342FB427D
:10220200A42E06626C616E6B7342B342C2432442D7
:10221200A42E0376617242C242D2465A44384678AC
:10222200102E05636F6E737442D242E2465A4438EE
:102232004678101D2E013042E242F542F2000001C2
:102242003142F542FF42F20001013242FF430942AC
:10225200F2000201334309431342F2000302626CAB
:102262004313431D42F200208020001F00018080A2
:10227200800C800C4CD003746962431D433642F2D9
:1022820080000577696474684336434242F28002F3
:10229200077761726E696E674342435042F280046F
:1022A2000264704350436042F2800607636F6E74AB
:1022B2006578744360436B42F280080763757272FB
:1022C200656E74436B437B42F2800A02696E437B04
:1022D200438B42F28012036F7574438B439642F232
:1022E2008014057374617465439643A242F28016AA
:1022F200046261736543A243B042F28018036470C2
:102302006C43B043BD42F2801A03666C6443BD4322
:10231200C942F2801C03686C6443C943D542F2800F
:102322001E022B2143D543E11B1A1D161B202E062C
:10233200746F67676C6543E143EF1A1E0E1B1F2E15
:1023420002312B43EF44004305162E02322B440088
:10235200440B430F162E0468657265440B44164302
:10236200671D2E05616C6C6F7444164423436743EA
:10237200E82E012C44234432441F20430F442D2EC7
:1023820002632C44324440441F1F4305442D2E0156
:102392002D4440444F18162E013D444F4458445595
:1023A200142E013C44584462445515002E00013E4F
:1023B2004462446E1B44682E03726F74446E447808
:1023C200131B111B2E0432647570447844851A1A4B
:1023D2002E036E6970448544911B032E043F64757D
:1023E200704491449C1C0444AA1C2E02753C449CDB
:1023F20044AB448E0E150444BD1B03152E445515E3
:102402002E066C617465737444AB44C143871D1D11
:102412002E077066613E63666144C144D11C44F676
:102422001E0100800C0444E91E2E077066613E6E98
:10243200666144D144EA430F44551D2E076E66611E
:102442003E6C666144EA44FC1C1E01001F0C1644EB
:10245200072E076E66613E70666144FC45124508B0
:10246200010004162E0369642E451245251C4407FB
:102472001B1E01001F0C420242212E076D65737361
:102482006167654525453B424B064D534720232056
:102492004CC12E056572726F72453B4553435C1DFC
:1024A2001504456649AD441F41F34202424B023FC7
:1024B200204547498B063F6572726F7245534575D9
:1024C2001B044586455D032E053F636F6D704575A0
:1024D200458843AC1D1401001145802E053F6578E7
:1024E20065634588459C43AC1D01001245802E065C
:1024F2003F7061697273459C45AF445501001345B5
:10250200802E413A45AF45C245A6484D46342E413C
:102512003B45C245CF4617002E464646282E09693E
:102522006D6D65646961746545CF45DE44CC01001B
:102532004043FA2E02782C45DE45F41C01FF000CC4
:10254200044608443805460A44472E07636F6D70F7
:10255200696C6545F4460B4592111C1D45FB4412FE
:10256200132E415B460B462242FB43AC202E015DFB
:102572004622462E01004043AC202E06736D756440
:102582006765462E463B44CC01002043FA2E073CA9
:102592006275696C6473463B464E484D464642FB43
:1025A20044382E45646F65733E464E466301467855
:1025B200443801001044472E1144CC451E202E41C0
:1025C200284663467F01002947AA2E03686578469C
:1025D2007F468B01001043B9202E07646563696D45
:1025E200616C468B469A01000A43B9202E05646944
:1025F200676974469A46AD130100304455010009DB
:102602001A44680446D201000744551C01000A44DA
:10261200680D1C1144B22E08286E756D6265722910
:1026220046AD46D744071C131E43B91D46B704479F
:10263200101B43B91D0903448043B91D091743C543
:102642001D440704470C430543C543E8110546E40E
:1026520003112E066E756D62657246D7471342FBF3
:1026620042FB44801C44071E01002D445E1C13449F
:102672005501FFFF43C52046E41C1E432444550474
:1026820047521C1E01002E445542FB458042FB0569
:1026920047340311044758192E07656E636C6F7334
:1026A2006547134759131C1C1C1E4324445E0447F0
:1026B200764407054768448E1B4455448044801C79
:1026C2001E0447911C1E12445504479844070547AF
:1026D2007F1B44551C11032E11031B44551C440738
:1026E2002E04776F7264475947A1433E1D43921DE2
:1026F200161B4765441F01002242CD439243E81A4C
:1027020044551312441F1F16441F440711428A2EB8
:10271200448044801A1E1A1E44550447E003032EC7
:102722004480430544551C0447F74480430516443E
:10273200804305160547D4449944992E052D6669B0
:102742006E6447A147FC432447AA441F44CC1A1E87
:102752001A1E01002F0C445E04482D1A44071A1C4D
:1027620044071B1E01001F0C47D004483745081DB3
:102772001C04484105480E44991C451E1B1E01FFBE
:10278200FF2E0663726561746547FC484248060481
:1027920048600344F6452D01000445474221441F89
:1027A2001C1C1E434C1D4A321C4407442D010020B0
:1027B2000D1A1F44CC4438443843871D202E495BF0
:1027C200636F6D70696C655D4842487E48061442CD
:1027D200FB45800344DD45FB2E476C6974657261DD
:1027E2006C487E489943AC1D0448B1461700014429
:1027F200382E48646C69746572616C489948B243BA
:10280200AC1D0448CA1B48A548A52E06657870650C
:10281200637448B248CB1A161A082C1C01000744EC
:102822005E0448FA030100071A21445E141C04489E
:10283200F31A281B030748DA032E1C01000D445E1D
:1028420004490C0F03432442FB05490D1C211F427E
:10285200FB2144071F280648DA032E4048CB491BB8
:10286200018020433E2011032E09696E7465727047
:10287200726574491B4929480604495501007F0CB9
:1028820043AC1D446804494F44DD45FB05493744C8
:10289200DD02054937471E43C51D44070449644804
:1028A200BF0549370348A505493705717565727932
:1028B2004929496A433E1D01005048D642FB4392D2
:1028C200202E0471756974496A4982462841E44997
:1028D20074493743AC1D140449A0424B03204F4BAB
:1028E20005498D0561626F7274498249A346A6410A
:1028F200E4424B1E4649476E6974696F6E200D7F34
:102902006E696368656D616368696E6573203230F4
:102912003131498B04636F6C6449A349D401432864
:1029220001800001000E428A49AD04732D3E6449C4
:10293200D449EA1C152E022B2D49EA49F615044A00
:1029420002182E03642B2D49F64A0315044A101966
:102952002E036162734A034A111C49FD2E0464610D
:1029620062734A114A1D1C4A0B2E036D696E4A1D81
:102972004A2A1A1A4474044A3A1B032E036D6178D8
:102982004A2A4A3C1A1A4468044A4C1B032E026D16
:102992002A4A3C4A4E1A1A0E134A191B4A1909119D
:1029A2004A0B2E012A4A4E4A6309032E052A2F6D2D
:1029B2006F644A634A6C134A55114A902E022A2FB9
:1029C2004A6C4A7D4A761B032E026D2F4A7D4A8944
:1029D2001A13134A26124A190B11120E49FD1B1122
:1029E20049FD1B2E042F6D6F644A894AA41349F3D3
:1029F200114A902E012F4AA44AB44AAD1B032E035A
:102A02006D6F644AB44ABF4AAD032E056D2F6D6FD8
:102A1200644ABF4ACB1342FB120B111B130B112E3C
:102A220041274ACB4AE048061442FB45800348A5A9
:102A32002E046261636B4AE04AF144382E456265B6
:102A420067696E4AF14AFD4592441F43052E45656A
:102A52006E6469664AFD4B0E4592430F45BA441FA8
:102A62001B202E447468656E4B0E4B234B182E426E
:102A7200646F4B234B2F46170008441F43192E4403
:102A82006C6F6F704B2F4B3F431945BA46170006C8
:102A92004AFA2E452B6C6F6F704B3F4B53431945CF
:102AA200BA461700074AFA2E45756E74696C4B5385
:102AB2004B68430545BA461700044AFA2E43656E31
:102AC200644B684B7D4B722E45616761696E4B7D2D
:102AD2004B88430545BA461700054AFA2E467265E9
:102AE200706561744B884B9D13134B921111430F08
:102AF20044554B182E4269664B9D4BB54617000450
:102B0200441F42FB4438430F2E44656C73654BB53A
:102B12004BC9430F45BA46170005441F42FB4438D0
:102B22001B430F4B18430F2E457768696C654BC9E1
:102B32004BE84BBC44122E04686F6C644BE84BF7B5
:102B420001FFFF43DD43E843DD1D1F2E0370616477
:102B52004BF74C0C441F010044162E023C234C0C34
:102B62004C1B4C1443DD202E02233E4C1B4C2803ED
:102B72000343DD1D4C141A44552E047369676E4CD1
:102B8200284C3A448015044C4E01002D4C002E0175
:102B9200234C3A4C4F43B91D4AD544800100091ACF
:102BA2004468044C6901000716010030164C002EDF
:102BB2000223734C4F4C704C551A1A0D14044C7767
:102BC2002E03642E724C704C81131B1A4A264C221F
:102BD2004C774C434C2F111A4455423042022E027C
:102BE200642E4C814C9F42FB4C8942212E022E7254
:102BF2004C9F4CAD1349F3114C892E012E4CAD4C18
:102C0200BB49F34CA62E013F4CBB4CC61D4CC12EFA
:102C1200046C6F61644CC64CD0019E00433E20425E
:0C2C2200FB4392203542FB019FF41F2E63
:0C2C2E00A6086400000000000000000088
:00000001FF
:000000