:100000000C94DC020C94EE020C94EE020C94EE02C2
:100010000C94EE020C94EE020C94EE020C94EE02A0
:100020000C94EE020C94EE020C94EE020C9462031B
:100030000C94EE020C94EE020C94B4110C94EE02AB
:100040000C94EE020C94EE020C94EE020C94EE0270
:100050000C94EE020C94EE020C94EE020C94EE0260
:100060000C94EE020C94EE023F7FFFFFFFFFFFFFB8
:10007000FCFEFFFFFFFFFFFFFFFFFFFFFFFF7F3FD4
:10008000FFFFFFFFFFFFFEFC00FF00FF00FF00FF80
:10009000FFFFFFFFFFFFFF000F0F0F0F0F0F0F00FE
:1000A000F0F0F0F0F0F0F000FF8080808080808041
:1000B000FF00000000000000FF010101010101013B
:1000C0008080808080808080010101010101010128
:1000D00080808080808080FF00000000000000FFA2
:1000E00001010101010101FF3F7FFFFFFFFFFF0051
:1000F0000F0F0F0F00000000F0F0F0F00000000004
:10010000FFFFFFFF00000000000000000F0F0F0FB7
:100110000F0F0F0F0F0F0F0FF0F0F0F00F0F0F0F6B
:10012000FFFFFFFF0F0F0F0F0000000055AA55AA99
:1001300055AA55AA00000000505050505050505041
:1001400055AA55AA55AA55AA0000183C3C1800000B
:100150003C7EFFFFFFFF7E3C3E419CAC9F403F004A
:1001600000008E9526C8F00000000000000000008E
:1001700000101010100010000024240000000000E7
:1001800000247E24247E240000083E283E0A3E08E7
:100190000062640810264600001028102A443A0025
:1001A000000810000000000000040808080804000F
:1001B0000020101010102000000014083E08140049
:1001C000000008083E0808000000000000080810B1
:1001D000000000003E0000000000000000181800B1
:1001E0000000020408102000003C464A52623C0015
:1001F0000018280808083E00003C42023C407E00EF
:10020000003C420C02423C0000081828487E0800CE
:10021000007E407C02423C00003C407C42423C006C
:10022000007E020408101000003C423C42423C00A8
:10023000003C42423E023C00000000100000100062
:100240000000100000101020000004081008040036
:100250000000003E003E00000000100804081000EE
:10026000003C420408000800003C4A565E403C0046
:10027000003C42427E424200007C427C42427C0082
:10028000003C424040423C000078444242447800F6
:10029000007E407C40407E00007E407C404040002C
:1002A000003C42404E423C000042427E42424200FC
:1002B000003E080808083E000002020242423C00DC
:1002C00000444870484442000040404040407E00A6
:1002D0000042665A42424200004262524A4642008E
:1002E000003C424242423C00007C42427C40400092
:1002F000003C4242524A3C00007C42427C44420064
:10030000003C403C02423C0000FE10101010100067
:100310000042424242423C00004242424224180013
:1003200000424242425A240000422418182442004B
:100330000082442810101000007E040810207E0067
:10034000000E080808080E000000402010080400F5
:1003500000701010101070000010385410101000B1
:1003600000000000000000FF001C227820207E001A
:10037000000038043C443C000020203C22223C0089
:1003800000001C2020201C000004043C44443C00CD
:100390000000384478403C00000C10181010100089
:1003A00000003C44443C043800404078444444004D
:1003B0000010003010103800000400040404241859
:1003C00000202830302824000010101010100C00DD
:1003D00000006854545454000000784444444400DD
:1003E00000003844444438000000784444784040D9
:1003F00000003C44443C040600001C202020200057
:1004000000003840380478000010381010100C003C
:1004100000004444444438000000444428281000AC
:10042000000044545454280000004428102844007C
:1004300000004444443C043800007C0810207C0048
:10044000000E083008080E00000808080808080018
:100450000070100C10107000001428000000000044
:100460003C4299A1A199423C0D200A0007090B08C2
:100470007A7978777A7675746C736B6A6973686762
:100480003D29CD28242FCD2A2B3039C3383736C308
:100490007A7271707A6F6E6D667365646373626190
:1004A000223BAB3A212CDE2E2D3534003332310085
:1004B0000A200A007F090B085A5958575A565554B2
:1004C0004C534B4A49534847265D005B605C005ED5
:1004D0003E3C3900383736005A5251505A4F4E4D33
:1004E0004653454443534241277B007D3F25007FCF
:1004F0007E35340033407C000F070B030D050901E6
:100500000E060A020C0408001005052020202020F9
:1005100020202020202005202020202020202020F6
:100520002084848406078484848484848406848468
:1005300084840784848484848484A0202015950086
:10054000A00115A0A0011595A020159500A00115EA
:10055000A0A001A020201595A020A0159520A015F1
:1005600095A0201595A020A0159520A0A0202015CD
:100570009502A0A0159520A0159502A0159502A0A2
:1005800003159520A020202020202020A02020201E
:10059000202020202020202020202020202020205B
:1005A00020202020A00320202020202020202020E8
:1005B000202020202020200011241FBECFEFD4E0D7
:1005C000DEBFCDBF13E0A6E0B1E001C01D92AA3F9F
:1005D000B107E1F70E940C030C9490120C940000F8
:1005E00083B7816083BF1092C10080E187B93D98D5
:1005F000459A8AB18E7B8AB98BB181648BB90E948E
:1006000030040E94B9060E947A050E94D2050E9419
:1006100027030E94480E08950E94F0020E940E05D2
:100620008FEF8DBF0C94350F08950CC08091EB03B4
:100630009091EC0324E0959587952A95E1F78170D8
:100640000E9476120E94EB06882381F3089583E8C6
:1006500083BD83E38093B0008AE08093B100109261
:10066000B2008FE98093B3008BE08093B4001092C6
:10067000800022E020938100109285001092840077
:100680008BE090E0909389008093880020936F0026
:1006900050988AB18A608AB98BB1857F8BB988E01E
:1006A00080930201E4ECF0E01182108280EC8093F0
:1006B000C2001092C10081E090E091838083789421
:1006C00013BC08951F920F920FB60F9211242F930F
:1006D0008F939F9380910201873069F50E942512C4
:1006E00082E080936E00809103019091040188560E
:1006F0009340D0F0809188009091890081519D4D68
:10070000909389008093880088E080930201809113
:10071000EB039091EC0301969093EC038093EB0331
:100720000E94F811861194C08091880090918900F0
:1007300081579F4F68C0833009F43FC0843028F44C
:100740008130F9F0823060F50AC0863009F463C068
:10075000883009F471C0843009F07AC040C08FE459
:100760008093B30085E08093B400809188009091DD
:10077000890084569E4F909389008093880081E081
:1007800047C089E48093B4008091880090918900EB
:1007900080579E4F909389008093880082E038C0F4
:1007A00010926E008091880090918900CE9690936F
:1007B00089008093880083E02BC082E080936E00E4
:1007C00085E08093B40080918800909189008A56DA
:1007D0009E4F909389008093880084E019C08FE930
:1007E0008093B3008BE08093B40080E191E090931C
:1007F000040180930301109205018091880090917B
:10080000890084549D4D909389008093880086E0F0
:10081000809302011DC080918800909189004196CB
:10082000909389008093880010926E0087E08093F7
:100830000201789488950CC080918800909189007D
:100840008C569F4F909389008093880010920201EC
:100850009F918F912F910F900FBE0F901F90189521
:1008600028E630E0A8E6B3E005C0F90184918D9355
:100870002F5F3F4FF3E0A83EBF07B8F3089529E18B
:10088000629F90011124280F311D205F3E4F30934D
:10089000E9032093E8038093EA036093ED0308954E
:1008A000E0E1F1E0818D819383E0EF34F807D0F34C
:1008B00002C0819301C080E293E0E836F907C8F3F3
:1008C00008951F93182F873041F08D3011F5109245
:1008D000EA038091ED038F5F16C0E091E803F09189
:1008E000E90380E280838091EA03882321F081502C
:1008F0008093EA030DC088E18093EA038091ED03C1
:10090000181624F481508093ED0302C01092ED0379
:1009100010E08091EA03893168F01092EA03809137
:10092000ED038F5F05C00E9450048091ED0381505C
:100930008093ED036091ED036831A8F78091EA039D
:100940000E943F04112371F0E091E803F091E90364
:100950001193F093E903E093E8038091EA038F5F3A
:100960008093EA031F910895CF93DF93EC0103C0B6
:1009700021960E94610488818823D1F7DF91CF916D
:100980000895EF92FF921F93CF93DF93EC0180E3E2
:100990000E94610488E70E946104CE018070907F0C
:1009A000892B11F010E01EC034E0CC0FDD1F3A950A
:1009B000E1F7CE018070907F892B11F011E012C019
:1009C00024E0CC0FDD1F2A95E1F7CE018070907FE7
:1009D000892B39F494E0CC0FDD1F9A95E1F713E0F1
:1009E00001C012E07E019F2D92959F70892F805D3E
:1009F0008A330CF0895D0E94610484E0CC0FDD1F16
:100A00008A95E1F71F5F143069F780E20E94610464
:100A1000DF91CF911F91FF90EF90089580E060E00B
:100A20000E943F0480E090E020E2E091E803F09132
:100A3000E9032193F093E903E093E803019632E0A0
:100A40008835930791F780E060E00E943F040895A5
:100A5000282F823308F04DC0603308F04AC0862F3B
:100A6000869599E1899FF0011124822F8695E80FE0
:100A7000F11DE05FFE4F60FD02C052E001C058E092
:100A800020FD5695F19902C030E001C0352FF09954
:100A900002C040E001C0452F9081903A31F0892F8B
:100AA0008877803111F020E006C0292F277827FFB2
:100AB00002C08FE82827852F80958323942F932BBE
:100AC0009095982B9223309535233423932B4523EF
:100AD00020954223942B93FF02C08FE89827292F5B
:100AE000205F822F90E087709070892B09F4205F3F
:100AF0002083089584B1817C8E6284B985B1817C24
:100B0000866085B98DB581608DBD80E58CBD089509
:100B10008EBD0DB407FEFDCF089580E00E948805CC
:100B20008EB508950F931F938C01299883E00E943E
:100B30008805812F0E948805802F0E9488051EBC91
:100B40001F910F910895FF920F931F93182F092F54
:100B5000F62E299882E00E948805802F0E94880541
:100B6000812F0E9488058F2D0E9488051F910F916B
:100B7000FF900895FF920F931F93182F092FF62EC1
:100B8000299882E00E948805802F0E948805812F85
:100B90000E9488058F2D0E948805299A1F910F9128
:100BA000FF900895299881E00E94880581E40E94C1
:100BB0008805299A0895299885E00E9488050E9451
:100BC0008D05299A08952A9886E00E9488052A9A18
:100BD00008950F931F93CF93DF938C01EB012A9815
:100BE00083E00E948805812F0E948805802F0E9443
:100BF000880580E00E94880500E010E00E948D05D5
:100C000089930F5F1F4F81E000301807B9F72A9AC8
:100C1000DF91CF911F910F9108950F931F932A9801
:100C20008FE90E9488050E948D0590E08F3791051D
:100C300019F40E948D0590E0C79719F02FEF3FEF50
:100C40000AC00E948D05182F00E00E948D05282FF4
:100C500030E0202B312B2A9AC9011F910F91089562
:100C60002A9885E00E9488050E948D052A9A089599
:100C70000E94300680FDFCCF08950F931F93CF9301
:100C8000DF938C01EB010E94E3052A9882E00E9429
:100C90008805812F0E948805802F0E94880580E0AA
:100CA0000E94880500E010E089910E9488050F5F8E
:100CB0001F4F81E000301807B9F72A9A0E943806C2
:100CC000DF91CF911F910F9108950F931F93CF93B1
:100CD000DF938C010E940D0680708050904219F4C1
:100CE000C8EDD0E002C0C0E2D0E00E94E3052A983F
:100CF0008C2F0E948805812F0E948805802F0E94DA
:100D0000880580E00E9488052A9A0E943806DF91B3
:100D1000CF911F910F910895282F30E0C9010197BD
:100D200082239323892B19F049E050E016C0822FCB
:100D3000807F49F0822F807C19F445E050E00DC09F
:100D400047E050E00AC0C9018C709070892B19F4FB
:100D500041E050E002C043E050E0042E02C035956F
:100D600027950A94E2F741505040240F351FC901DE
:100D7000089587B1807F87B988B18F6088B9579807
:100D80005F9820982898089590910E01992361F416
:100D9000E6B1F0E0EF70F070E850FB4FE491E093C3
:100DA0000F015798209A10C0E6B1F0E0EF70F07094
:100DB000E850FB4FE49180910F018295807F8E2B4C
:100DC00080930F012098579A9F5F917090930E0126
:100DD00080910F01089580910601882311F01092EF
:100DE00006010895E091E803F091E90380818058BD
:100DF00080830E94EB06982F8823D9F3E091E803C3
:100E0000F091E903808180588083892F0895CF92E3
:100E1000DF92EF92FF920F931F93182FF62ED42E8E
:100E2000C22E8DE00E946104812F90E00E94C104D7
:100E300080E20E9461048F2D90E00E94C10480E254
:100E40000E9461048D2D90E00E94C10480E20E9406
:100E500061048C2D90E00E94C10480E20E94610434
:100E6000802F90E00E94C10480E20E9461048E2DD8
:100E700090E00E94C10480E20E9461041F910F91E2
:100E8000FF90EF90DF90CF900895CF92DF92EF9296
:100E9000FF920F931F93CF93DF93E090E803F090BE
:100EA000E903C090EA03D090ED0306E1C4E0D0E08E
:100EB0008BE0602F0E943F04CE018450182F06C0A3
:100EC000E251FC4F80810E9461041F5FE12FF0E03E
:100ED000EC17FD07ACF30F5F2496083149F7F09249
:100EE000E903E092E803C092EA03D092ED03DF91B8
:100EF000CF911F910F91FF90EF90DF90CF900895C9
:100F0000BF92CF92DF92EF92FF920F931F93CF93F6
:100F1000DF93E090E803F090E903C090EA03D090FB
:100F2000ED0306E1C4E0D0E099E0B92E8BE0602F3C
:100F30000E943F04CE018450182F26C0E091080182
:100F4000F0E03196809109018B9DC0011124E80FDA
:100F5000F91F83E0EE0FFF1F8A95E1F7EA1BFB0BF9
:100F6000E159FB4F8491803208F480E28058E0918F
:100F7000E803F091E903E081E81719F0A251BC4FB2
:100F8000EC930E9461041F5FA12FB0E0AC17BD0776
:100F9000ACF20F5F2496083149F6F092E903E09233
:100FA000E803C092EA03D092ED03DF91CF911F9145
:100FB0000F91FF90EF90DF90CF90BF9008958091B8
:100FC0000B0190910C018130910511F0039769F4A8
:100FD00080910A01882321F0815080930A010895AD
:100FE0008FEF80930A010E94800708950F931F934B
:100FF000082F80910701081719F40E94DF07C0C06D
:1010000080910A0118168CF080910B0190910C01CF
:101010008130910511F0039741F40E9445070023A8
:1010200021F410920C0110920B0188E080930A01C8
:1010300020910B0130910C0121303105C9F0213094
:10104000310548F02230310509F451C02330310513
:1010500009F094C05CC080910701801708F08EC031
:10106000802F0E948C068093080181E090E07DC073
:101070008091070110910801801710F5012E02C020
:10108000220F331F0A94E2F7802F821B0E948C06E6
:10109000E12FF0E031962091090149E0249F900171
:1010A0001124E20FF31F33E0EE0FFF1F3A95E1F733
:1010B000E80FF91FE859FB4FE491E093060151C096
:1010C00090910901133029F481E0891B8093090173
:1010D00051C0E8E49E9FF0011124E10FF11DE85991
:1010E000FB4FE491E09306011092090143C00023F5
:1010F00009F440C080910701081708F03FC0802F15
:101100000E948C068093080183E090E02EC08091BD
:101110000701801778F51091080181E090E0012E19
:1011200002C0880F991F0A94E2F7202F281B822FF4
:101130000E948C06E12FF0E031962091090149E0F0
:10114000249F90011124E20FF31F23E0EE0FFF1FF5
:101150002A95E1F7E80FF91FE859FB4F8491809336
:1011600006011092090182E090E090930C018093B7
:101170000B0104C010920C0110920B0100930701A7
:101180001F910F9108950E94C406982F80910E011F
:10119000882351F480910D01981721F4892F0E9422
:1011A000F607089590930D01089599E16902B00141
:1011B0001124992787FD9095680F791F605F7E4FF6
:1011C000CB0108950F931F93CF93DF93EC01062F6C
:1011D00060C00A3001F10B3040F4083049F10930A9
:1011E00008F5073009F04EC045C00D3049F10E300A
:1011F00020F40B3009F046C006C0033C19F10D3C49
:1012000009F040C032C089818150898387FF44C082
:1012100083E1898341C089818F5F89838431E4F1CF
:1012200019823AC088818F5F88838931ACF108C008
:1012300088818150888387FF2FC088E18883E3CF2E
:101240001882E9CF1A81812F6B810E94D508FC0199
:1012500000811F5F1A831931E4F01A828B818F5F3E
:101260008B838431B4F01B8214C088818A83898186
:101270008B8312C0888169810E94D508FC0180E2BD
:101280008083D6CF888169810E94D508FC010083C4
:10129000C9CF002309F09DCFDF91CF911F910F910E
:1012A0000895AF92BF92CF92DF92EF92FF920F9389
:1012B000DF93CF9300D0CDB7DEB77C016B015A012D
:1012C00080E065E10E94D5089A8389838FE3E981F4
:1012D000FA8180830E94F206082FE981FA818083D7
:1012E000873509F44EC0883550F4853409F451C06F
:1012F000843509F454C0873009F063C024C08A35AE
:1013000009F44AC0893621F0883509F05AC03FC037
:1013100080E0F50161810E94D5087C0188E162E1ED
:101320000E94D508FC0103C08081818F3197EE15A2
:10133000FF05D0F7C701499620E201C02193E817C5
:10134000F907E0F342C080E0F50161810E94D50811
:101350007C0180E063E10E94D5089C0104C0F70194
:10136000818D81937F01E216F306C8F3C901499686
:1013700020E203C0F70121937F01E816F906D0F3BC
:1013800024C0C701B60140E151E00E946C0D0BE1A1
:101390001CC00E94AE0DFBCF0E940E0516C00E941D
:1013A000C60B13C0F501808161810E94D508FC0144
:1013B0008081880F880F880F802B80830E94F2061F
:1013C000082F0053083070F300E0802F0F900F902B
:1013D000CF91DF910F91FF90EF90DF90CF90BF9072
:1013E000AF90089597FD02C080E0089580E191E0FC
:1013F00060E070E040E052E00E94801281E00895D9
:10140000EF92FF920F931F93CF93DF938C018FEF97
:101410009FEF60E171E00E94490C7C01C8010E94CD
:10142000F209882319F0CEEFDFEF06C0C80160E1B2
:1014300071E00E94680CEC01CE15DF0511F40E94EA
:101440000E0581E065E10E943F04C8010E94C104CD
:1014500080E40E946104CE010E94C10481E20E94E6
:101460006104C7010E94C104C701DF91CF911F91A0
:101470000F91FF90EF9008952F923F924F925F92BD
:101480006F927F928F929F92AF92BF92CF92DF9294
:10149000EF92FF920F931F93DF93CF9300D000D072
:1014A000CDB7DEB74C0119821A828FEF8B830E9471
:1014B0000E05C4010E94000A2C0197FE04C09094FE
:1014C00081949108939483E9682E1E010894211C4D
:1014D000311CE090EB03F090EC0389816A810E945B
:1014E000D5085C018B816C810E94D5086C01F501E7
:1014F0007080FC0100811FC08091EB039091EC0390
:101500009701281B390B37FF16C0F50190819058C1
:1015100090838B818F3F39F097FF03C0F601608283
:1015200002C0F6010083E090EB03F090EC0322E3AD
:1015300030E0E20EF31E0E94EB06182F8823E1F242
:10154000F5017082F60100838B3A39F4C401B201CF
:10155000A1010E945109182F04C0C101612F0E94EE
:10156000E2081B3109F0B5CF80E064E10E943F043E
:101570000F900F900F900F90CF91DF911F910F91CF
:10158000FF90EF90DF90CF90BF90AF909F908F90A3
:101590007F906F905F904F903F902F9008950E94A2
:1015A0000D0620E28331920749F020E28331920751
:1015B00040F083519043029720F406C020E031E0D0
:1015C00005C020E030E002C020E130E0C90108950C
:1015D0000E940D0620E28331920749F020E2833118
:1015E000920740F083519043029720F406C020E018
:1015F00031E005C020E030E002C020E830E0C90161
:101600000895CF93DF930E940D0620E38331920764
:1016100039F020E38431920749F08351904219F464
:10162000C0E0D8E005C0C0E0D0E002C0C0E0D0E13A
:101630000E94E80A9E01281B390BC901DF91CF9156
:1016400008950F931F93CF93DF93EC010E94010B3A
:101650008C010E94CF0A081B190B16950795C0171D
:10166000D10710F420E00BC00E94CF0A20E00197C0
:10167000969587958C239D23892B09F421E0822F51
:10168000DF91CF911F910F910895CF92DF92EF924A
:10169000FF920F931F936C017B010E94010B8C0141
:1016A0001695079501501040C801880F892F881F93
:1016B000990B91958E0D9F1DB6010E94E9050F773C
:1016C0001070000F111F0C0D1D1DF80180819181FC
:1016D0001F910F91FF90EF90DF90CF900895CF93DF
:1016E000DF93EC010E94F50DCE0160E070E00E94F6
:1016F000450B8F5F9F4FE1F40E94010BFC01F695B3
:10170000E7953297EF77F070EE0FFF1FEC0FFD1F9C
:10171000808191818F5F9F4F41F0CE0160E170E049
:101720000E94450B8F5F9F4F19F020E130E002C00F
:1017300020E030E0C901DF91CF910895EF92FF9250
:101740001F93CF93DF93EC017B01CB010E946F0BC2
:10175000892B21F080E090E4C827D927D6FD02C06C
:1017600010E001C010E1DF73CC0FCD2FCC1FDD0BDB
:10177000D1951C0F812F90E0B7010E94E905812FC0
:10178000DF91CF911F91FF90EF900895CF93DF935A
:101790000E94F50D0E940E05C0E0D0E015C080E06B
:1017A00065E10E943F0480E191E00E946F0B8C0F85
:1017B0009D1F0E94C104CE01409660E171E00E942D
:1017C000E9050E94F20621960E94010B96958795E5
:1017D000C817D90720F31092F9031092F803DF918C
:1017E000CF9108958F929F92AF92BF92CF92DF9246
:1017F000EF92FF920F931F93CF93DF935C016B01E6
:101800000E94010B4C0196948794E12C40E8F42E41
:10181000C0E0D0E0CE019F738815990520F0C0701C
:10182000D07CC050D04C8E010F771070011511057F
:1018300021F4CE01B6010E949E0B000F111F0C0D6A
:101840001D1DF801808191818A159B0549F08F5FEC
:101850009F4F61F420E0E21620E8F20651F417C031
:101860008FEFA8168FEFB80691F07E012196D7FF73
:10187000D1CFC701DF91CF911F910F91FF90EF90D2
:10188000DF90CF90BF90AF909F908F9008957E0192
:10189000F0CFCF92DF92EF92FF920F931F938C01C4
:1018A0007B010E94F50D0E94E80A6C01C801B70196
:1018B0000E94F20B9C013F73220F331F2C0D3D1D24
:1018C000C9011F910F91FF90EF90DF90CF90089585
:1018D0000F931F93CF93DF93EC018B0196FF04C00E
:1018E0000E94F50DDF7309C00E94490CEC01B8019C
:1018F00060507F4F01960E94E905CE01B8010E9419
:10190000E9051092F9031092F803CE01DF91CF910F
:101910001F910F910895EF92FF920F931F93CF9312
:10192000DF937C018B018FEF9FEF0E94F20BEC01A4
:101930000E94010B969587958150904CC817D90746
:1019400048F0C8010E946F0B0E94650680E090E499
:10195000C827D927CE01B8010E949E0BCF77D0703F
:10196000CC0FDD1FC00FD11FF982E88290E0B801D3
:101970000E943D06DF91CF911F910F91FF90EF9054
:101980000895CF93DF93EC01DF730E94010BC8171A
:10199000D90720F00E94010BC81BD90B0E94E80A4E
:1019A0009E01220F331F280F391FC901DF91CF91EC
:1019B00008954F925F926F927F928F929F92AF9213
:1019C000BF92CF92DF92EF92FF920F931F93CF932C
:1019D000DF938C016B010E94CF0A96958795782E34
:1019E0000E94010B272D30E0FC01F695E795E21BE4
:1019F000F30BC8019F738E179F0720F0E801CE1BE1
:101A0000DF0B07C0E901C00FD11F80E090E4C827B9
:101A1000D927672CCE010E94C10C2C01C8010E945D
:101A2000C10C5C01B60160507F4FCE010E949E0B3D
:101A3000FE01EF77F070E058FF4FEE0FFF1FEC0D47
:101A4000FD1D80809180C401B6010E94F20BC81771
:101A5000D90731F50E94E80A8E011F73000F111F8C
:101A6000080F191FC801B6010E94E9057501089405
:101A7000E11CF11CC501B6010E943D06C80101969A
:101A8000B6010E94E90557010894A11CB11CC701C9
:101A9000B6010E943D06C401B6010E948B0C6A94F7
:101AA0007A9411F02196C4CFC2010E94650680E0AD
:101AB00016140CF081E0DF91CF911F910F91FF90F0
:101AC000EF90DF90CF90BF90AF909F908F907F90DE
:101AD0006F905F904F900895CF92DF92EF92FF92B8
:101AE0000F931F93CF93DF937C018B01EA010E9438
:101AF000F50DC801BE010E943D06C12C31E0D32E78
:101B0000CC0EDD1EC8010196B6010E943D06C7013C
:101B1000BE010E948B0CEE24E3948FEF9FEFBE0179
:101B20000E94F20B8C01B6010E94210B882349F020
:101B3000EE2039F0C801BE010E94D90CE82E88239E
:101B400061F71092F9031092F803DF91CF911F9182
:101B50000F91FF90EF90DF90CF900895CF92DF929A
:101B6000EF92FF920F931F93CF93DF930E940D0686
:101B70006C010E94CF0AC0E0D0E07C010894E1082B
:101B8000F10820C083E1C81680E2D80681F42097CE
:101B900071F0C031D10559F0C032D10541F0C034E7
:101BA000D10529F0CE018E219F21892B51F480E0AF
:101BB00065E10E943F04CE010E94C104CE010E9453
:101BC000650660960E94010B8C010E94E80A080FCE
:101BD000191FC017D107B0F2DF91CF911F910F915C
:101BE000FF90EF90DF90CF900895299A8CB58F7B6E
:101BF0008CBD20918400309185002F5F3F4F8DB5C3
:101C00008EB58091840090918500A901481B590BE5
:101C100057FFF5CF8CB580648CBD08950F931F934B
:101C2000CF93DF93FC01EB018A014115510559F176
:101C3000299A8CB58F7B8CBD2091840030918500D2
:101C40002F5F3F4F8DB58EB58091840090918500B8
:101C5000A901481B590B57FFF5CF8CB580648CBD8B
:101C6000CF019F7768810E94A30503C088810E94ED
:101C7000880501501040219601151105B9F7109201
:101C8000F9031092F803DF91CF911F910F910895FE
:101C90001F93CF93DF93C8E0D5E00E940E0518E0B4
:101CA00080E0612F0E943F0480E090E0FE01E80F99
:101CB000F91F2491E091E803F091E9032193F09357
:101CC000E903E093E80301968931910579F7699674
:101CD0001F5F1F3029F72091EB033091EC032C5943
:101CE0003F4F8091EB039091EC0328173907C9F718
:101CF000DF91CF911F9108950F931F93CF93DF939F
:101D0000EC010E94F50DE881F0E0998190958081C9
:101D1000892380830CC0EA81FB818191FB83EA8364
:101D20000E9488058C819D8101979D838C838C8185
:101D30009D81892B81F70EC01E810F810E948D0528
:101D4000E12FF02F8193FF83EE838885998501979A
:101D50009987888788859985892B71F7E881F0E0D4
:101D600080819981892B80831092F9031092F80366
:101D7000DF91CF911F910F910895EF92FF920F93F2
:101D80001F93CF93DF938C01EB017A0180E1003048
:101D9000180728F4F80180818093F60307C0C80172
:101DA00066EF73E041E050E00E940A0FF0E1C030BE
:101DB000DF0720F48091F603888307C0CE0166EF29
:101DC00073E041E050E00E940E0E0894E108F10833
:101DD0001E141F0424F40F5F1F4F2196D7CFDF91ED
:101DE000CF911F910F91FF90EF900895D7FD07C0FD
:101DF000FE01FF71EC5DFA4D849121960AC0219697
:101E0000C093F803D093F9038DB587FFFDCF8EB54E
:101E10008EBD089597FF1EC06F936DB567FFFDCF10
:101E2000299A7F934F935F930E9492059F918F9180
:101E3000BF91AF9101C06EBD6DB567FFFDCF6EB5AF
:101E40006D930197C1F7299A6EBD1092F803109215
:101E5000F9030895FC01FF71EC5DFA4DDB01CA0145
:101E600045914D930197E1F708950E94A711EC0168
:101E70001092F8031092F90380E090E00E9492051E
:101E80008AEF93E07C0189E691E13C01D7FF2DC008
:101E90008DB587FFFDCF299ACE010E94920515C00E
:101EA000D7FF0AC0CDB5C7FFFDCFCEB5299AD82D33
:101EB000CE010E94920509C0FE01FF71EC5DFA4D52
:101EC000C491D82D12C0D7FF10C02196C093F8033B
:101ED000D093F9038DB587FFFDCF8EB58EBD8E33C0
:101EE00080F4F301E80FF11D0994FE01FF71EC5D30
:101EF000FA4D849121968E3320F4F301E80FF11D01
:101F00000994882E73DF982DCF93DF93EC01BECF19
:101F1000D7010D931D937D0169DF182F67DF082F0F
:101F2000D2CFC801D7011E910E917D018E3391054C
:101F300020F3CF93DF93EC01A9CFD7011E910E912F
:101F40007D01C1CF012BD7011E910E917D0111F0B2
:101F500022969CCF4BDF882EA3CF48DF882ED60158
:101F600011966D01CA14DB040AF49ACF3FDFDF90AB
:101F7000CF90BF90AF90A7CF39DF882ED601A00FAA
:101F8000B11F6D01AA19BB09B127F7011291029186
:101F90007F01B7FDEACFEACFAF92BF92CF92DF9237
:101FA000D7016801BE90AE901E910E917D018BCF3E
:101FB000D7017E916E914427069F4001169F612DA7
:101FC000900C641F079F900C611D179F712D600D71
:101FD000741F8B018D929D9211247D0174CFD701C6
:101FE00011978E9111976E91F801F89400818023DA
:101FF000862B8083789411277D0165CFD7019E9130
:102000008E917E916E9121E2441B551B07C0441FA7
:10201000551F4017510710F0401B510B661F771FCB
:10202000881F991F2A9599F7609570954D935D9338
:102030008B017D0148CFD7019E918E9108231923F2
:102040007D0141CFD7019E918E91082B192B7D01E7
:102050003ACFD7019E918E91082719277D0133CF62
:10206000650131CFD7010D931D937D011F910F9114
:102070002ACFD7010D931D937D01EDB7FEB71181D6
:10208000028121CF0F931F93D7011E910E917D01E5
:102090001ACF012B09F00FEF0095102F14CF002756
:1020A00017FD0095102F0FCFD7019E918E91080F2D
:1020B000191F7D0108CFD7019E918E917E916E915F
:1020C0005E914E91840F951F061F171F8D939D9350
:1020D0007D01F9CE109501951F4FF5CED7019E9148
:1020E0008E9190950095109581959F4F0F4F1F4FA2
:1020F0008D939D937D01E7CED7010D931D937D01B7
:1021000014970D911D91DFCED7019E918E910D9365
:102110001D938C01D8CED7010D931D937D01D3CE95
:1021200042E068E003C041E069E08824C80170E053
:1021300050E070DE092D182DA9CE41E0D70111978E
:102140008E9004C042E0D7018E909E90C8011E91EF
:102150000E9168E070E050E07D010E940E0E96CE78
:10216000D7010D931D9386017D01ADCE0F5F1F4FEB
:10217000AACED8010C911127A6CED70111978E9126
:10218000F80180831E910E917D019DCED8010D91A5
:102190001C9199CED7019E918E91F80181939083E5
:1021A0001E910E917D018FCEC8010E946104C5CEA3
:1021B000C8010E94C104C1CE0E94EB069927D70135
:1021C0000D931D938C017D017ECE0E94F206F6CF09
:1021D000EFE3F4E0D7019E918E917D01B80109955E
:1021E000ACCEDF91CF9152CE01501040E8CF0E948B
:1021F0000E0569CED7019E918E9104C0892F992733
:10220000085F1F4F08301005C8F702C096958795E4
:102210000A95E2F78C017D0156CED7019E918E91F1
:1022200004C0982F8827085F1F4F08301005C8F793
:1022300002C0880F991F0A95E2F78C017D0143CEF9
:10224000C8010E943C0A80912D0090E0299885E009
:102250008EBDD7011E910E917D0118CEC8010E943E
:10226000000A8C0180E09EE960E171E040E052E00C
:102270000E940E0E0BCEC801D7017E916E9140E1F7
:1022800051E07D010E946C0DE1CFA801D7017E9144
:102290006E919E918E917D010E94BD0EDACFE8E293
:1022A000F5E098CFC8010E947C0ED3CF0CCEC801B8
:1022B00044CED7010D931D937D018E0192CFD7019E
:1022C0000D931D937D0192DD182F90DD082F89CF8E
:1022D000CCCDF9CD1DCE25CE30CE34CE3BCE3DCEAD
:1022E0004BCE5ACE65CE7BCE89CEA5CEABCEB1CE6F
:1022F000B7CEB8CEB7CEBDCEC5CECBCED0CED4CE57
:10230000DACEE8CEEBCEF8CEFFCE05CF09CF0BCF9D
:1023100014CF18CF25CF2ACFDBCF2BCF2ECF36CF60
:1023200039CF42CF45CF44CF47CF4FCF51CF59CFF1
:102330005BCFCECF5CCF5ECF70CF82CF8FCF9BCF26
:10234000A4CFADCFAFCFB2CFB2CFB3CFB8CFE4E24F
:10235000F5E224913196E491922F80E02E2F30E027
:10236000282B392BC901089578948F939F938091DE
:1023700000018A958093000171F090E280FD91E266
:1023800097BD90910101089497959093010182E87F
:1023900028F482EC03C080E085BD82E084BD9F917B
:1023A0008F9118958F930F9385B58823E9F7009344
:1023B00001010BE00093000180E287BD82E884BD4B
:1023C00080E086BD83E085BD0F918F910895082F31
:1023D000E9CF8F939F935E9A569A882785BD809107
:1023E0006E00826080936E0078949F918F91089523
:1023F000CF93DF93CDB7DEB7EF93FF932F933F9348
:102400004F935F936F937F938F939F93AF93BF93FC
:10241000FB81EC81EE0FFF1F25913591F695E79535
:10242000EC83FB83F901F695E7950995BF91AF9190
:102430009F918F917F916F915F914F913F912F91DC
:10244000FF91EF91DF91CF9108950F921F92EF933B
:10245000FF930F9300E0E8E0AF93BF93CF93DF9338
:102460000093C600E093C100D0910501D7701F937F
:1024700018E1A0910301B091040108E0ED91CE2F85
:10248000EF770E9F0D0EE03130F0E8E6F0E0E00D62
:10249000F11DE49106C0E8E6F3E0E00DF11DE081F6
:1024A00000C0C7FDE095E093C600000000C000C07A
:1024B00000C011501AF7D73024F0A0930301B09355
:1024C0000401D0910501DF5FD093050100C0A0E0B9
:1024D000A093C1001F91DF91CF91BF91AF910F9158
:1024E000FF91EF911F900F900895000098B1811116
:1024F00080E19F7E892B88B908950E941503089575
:10250000DC01CB01FC01F999FECF06C0F2BDE1BDB3
:10251000F89A319600B40D9241505040B8F70895A2
:04252000F894FFCF5D
:1025240049C8876578656375746500004002028157
:10253400694002400F21856C65617665400F401645
:102544000F83616E64401640210C826F72402140FB
:102554002A0D83786F72402A40320E823E3E40320A
:10256400403B32823C3C403B404333823B734043DC
:10257400404B2E82723E404B405311823E72405378
:10258400405B138172405B40631282303D40634084
:102594006A1482303C406A407215812B4072407A42
:1025A4001682642B407A408117856D696E7573407D
:1025B4008140891886646D696E75734089409419E9
:1025C400846F766572409440A01A8464726F704080
:1025D400A040AA03847377617040AA40B41B83644B
:1025E400757040B440BE1C814040BE40C71D82632C
:1025F4004040C740CE1E812140CE40D62082632178
:1026040040D640DD1F82752A40DD40E50982752FE2
:1026140040E540ED0B84656D697440ED40F5288319
:102624006B657940F540FF2C85696E6B657940FFD9
:1026340041082B84706C6F74410841133882312B2C
:102644004113411D2285636D6F7665411D41253718
:1026540083696340412541302483696321413041CA
:1026640039258269404139414226826921414241EA
:102674004A27863E706F72743E414A41520A837300
:1026840070694152415E3982312D415E41672F822A
:1026940061744167416F2D83636C73416F4177317E
:1026A400842E686578417741802A84656469744121
:1026B40080418A3484626C6B3E418A419435843E05
:1026C400626C6B4194419E36857472616365419E70
:1026D40041A83A02637241A841B301000D282E05B6
:1026E400636F756E7441B341BF1C221B1E2E0474AC
:1026F40079706541BF41CE44940441E91A161B0820
:10270400211E280641E00541EA032E05737061632A
:102714006541CE41EB42DE282E067370616365731A
:1027240041EB41F942B94A2E449404421542B90896
:1027340041F50642102E04282E222941F942161290
:1027440041C91C2211161341D72E422E2242164291
:102754002A010022439F1D0442494604421F479117
:10276400440E1E22441C0542514791440E41C94166
:10277400D72E0466696C6C422A42521B131A1F1C22
:10278400221142C24444372E056572617365425278
:10279400426842B9425B2E06626C616E6B7342689A
:1027A400427742DE425B2E0376617242774287466D
:1027B4004744274665102E05636F6E737442874243
:1027C400970542A7101D2E01003D4830463344367C
:1027D40044272E0130429742B33D0000013142B3F9
:1027E40042BC3D0001013242BC42C53D00020133FE
:1027F40042C542CE3D000302626C42CE42D73D0048
:1028040020047672616D42D742E13D011005636C8C
:102814006F636B42E142ED3D03EB02692742ED42F7
:10282400FA3D000A02727042FA43043D005D0273ED
:10283400704304430E3D000E03737030430E43187F
:102844003D03FA8022001F00018280800C800C4D21
:102854007403746962431843313D800005776964E9
:1028640074684331433C3D8002077761726E696E40
:1028740067433C43493D8004026470434943583DE7
:10288400800607636F6E74657874435843623D80B5
:10289400080763757272656E74436243713D800A02
:1028A40002696E437143803D8012036F75744380E7
:1028B400438A3D8014057374617465438A43953D6E
:1028C40080160462617365439543A23D80180364D6
:1028D400706C43A243AE3D801A03666C6443AE43FE
:1028E400B93D801C03686C6443B943C43D801E0435
:1028F400626C6B2343C443CF3D8020022B2143CF22
:1029040043DB1B1A1D161B202E06746F67676C654C
:1029140043DB43E91A1E0E1B1F2E02322B43E943ED
:10292400FA42CB162E046865726543FA4405435F88
:102934001D2E05616C6C6F7444054412435F43E2C1
:102944002E012C44124421440E2042CB441C2E025E
:10295400632C4421442F440E1F42C2441C2E012DDB
:10296400442F443E18162E013D443E44474444142B
:102974002E013C44474451444415002E00013E447A
:1029840051445D1B44572E03726F74445D446713B6
:102994001B111B2E0432647570446744741A1A2E7A
:1029A400036E6970447444801B032E043F64757085
:1029B4004480448B1C0444991C2E02753C448B4473
:1029C4009A447D0E150444AC1B03152E4444152E65
:1029D400066C6174657374449A44B0437D1D1D2E66
:1029E400077066613E63666144B044C01C44E51EE2
:1029F4000100800C0444D81E2E077066613E6E668A
:102A04006144C044D942CB44441D2E076E66613EE6
:102A14006C666144D944EB1C1E01001F0C16222E67
:102A2400076E66613E70666144EB450044F7010041
:102A340004162E0369642E450045131C221B1E0137
:102A4400001F0C41D741F52E076D657373616765EF
:102A540045134528421F064572722023204CAB2E95
:102A6400056572726F724528454043551D1504452E
:102A7400534993440E41C941D7421F023F20453474
:102A84004971063F6572726F72454045621B044589
:102A940073454A032E053F636F6D70456245754368
:102AA4009F1D14010011456D2E053F657865634532
:102AB400754589439F1D010012456D2E063F7061C7
:102AC4006972734589459C4444010013456D2E4148
:102AD4003A459C45AF4593483046212E413B45AF8E
:102AE40045BC4604002E463346152E09696D6D65B6
:102AF400646961746545BC45CB44BB01004043F443
:102B04002E02782C45CB45E11C01FF000C0445F551
:102B140044270545F744362E07636F6D70696C656D
:102B240045E145F8457F111C1D45E84401132E413C
:102B34005B45F8460F42B9439F202E015D460F4680
:102B44001B010040439F202E06736D756467654624
:102B54001B462844BB01002043F42E073C627569E0
:102B64006C64734628463B4830463342B944272EAA
:102B740045646F65733E463B4650014665442701F4
:102B8400001044362E1144BB450C202E41284650DB
:102B9400466C01002947912E03686578466C467897
:102BA40001001043AB202E07646563696D616C46B8
:102BB40078468701000A43AB202E0564696769746F
:102BC4004687469A1301003044440100091A4457C9
:102BD4000446BF01000744441C01000A44570D1C6D
:102BE4001144A12E08286E756D62657229469A46B5
:102BF400C4221C131E43AB1D46A40446FB1B43AB5B
:102C04001D0903446F43AB1D091743B61D22044637
:102C1400F742C243B643E2110546D103112E066EB4
:102C2400756D62657246C446FE42B942B9446F1C72
:102C3400221E01002D444D1C13444401FFFF43B6E2
:102C44002046D11C1E42DE444404473C1C1E0100A5
:102C54003A444442B9456D42B905471E031104473D
:102C640042192E07656E636C6F736546FE47431306
:102C74001C1C1C1E42DE444D04475F22054752447F
:102C84007D1B4444446F446F1C1E0447791C1E1270
:102C94004444044780220547681B44441C11032E06
:102CA40011031B44441C222E04776F72644743476C
:102CB4008843391D43871D161B474F440E010022CC
:102CC4004282438743E21A44441312440E1F1644BB
:102CD4000E2211372E446F446F1A1E1A1E444404E8
:102CE40047C503032E446F42C244441C0447DC44DA
:102CF4006F42C216446F42C2160547B944884488DD
:102D04002E052D66696E64478847E142DE4791448B
:102D14000E44BB1A1E1A1E01002F0C444D04481009
:102D24001A221A1C221B1E01001F0C47B504481A44
:102D340044F71D1C0448240547F344881C450C1B18
:102D44001E01FFFF2E0663726561746547E1482525
:102D540047EB0448430344E5451B01000445344163
:102D6400F5440E1C1C1E43461D4A1C1C22441C0117
:102D740000200D1A1F44BB44274427437D1D202EE9
:102D8400495B636F6D70696C655D4825486047EB0E
:102D94001442B9456D0344CC45E82E476C6974650B
:102DA40072616C4860487B439F1D0448934604004D
:102DB4000144272E48646C69746572616C487B48D1
:102DC40094439F1D0448AC1B488748872E066578AA
:102DD40070656374489448AD1A16131C42B91A1FDF
:102DE4002C1C010007444D0448DD031A1A445704FF
:102DF40048DA42C24444010007280548BC1A124478
:102E0400571A01000D444D140C0448F31C281A1FD2
:102E14002242B901000D444D0448BC11030303418F
:102E2400F52E4048AD490201802243392011032E7A
:102E340009696E746572707265744902491047EBD2
:102E440004493C01007F0C439F1D44570449364408
:102E5400CC45E805491E44CC0205491E470943B642
:102E64001D2204494A48A105491E03488705491EF5
:102E74000571756572794910495043391D01005037
:102E840048B842B94387202E047175697449504982
:102E940068461541BA495A491E439F1D1404498680
:102EA400421F03204F4B0549730561626F727449D9
:102EB4006849894320431520469341BA421F1E4660
:102EC40049476E6974696F6E200D7F6E696368652A
:102ED4006D616368696E6573203230313149710404
:102EE400636F6C64498949BF014323018000010079
:102EF4000E37499304732D3E6449BF49D41C152EE3
:102F0400022B2D49D449E0150449EC182E03642BF7
:102F14002D49E049ED150449FA192E0361627349FC
:102F2400ED49FB1C49E72E046461627349FB4A07BF
:102F34001C49F52E036D696E4A074A141A1A446334
:102F4400044A241B032E036D61784A144A261A1A74
:102F54004457044A361B032E026D2A4A264A381A5D
:102F64001A0E134A031B4A03091149F52E012A4A72
:102F7400384A4D09032E052A2F6D6F644A4D4A566F
:102F8400134A3F114A7A2E022A2F4A564A674A6048
:102F94001B032E026D2F4A674A731A13134A101229
:102FA4004A030B11120E49E71B1149E71B2E042F8C
:102FB4006D6F644A734A8E1349DD114A7A2E012FCC
:102FC4004A8E4A9E4A971B032E036D6F644A9E4A9B
:102FD400A94A97032E056D2F6D6F644AA94AB5134C
:102FE40042B9120B111B130B112E41274AB54ACAC1
:102FF40047EB1442B9456D0348872E046261636B45
:103004004ACA4ADB44272E45626567696E4ADB4A31
:10301400E7457F440E42C22E45656E6469664AE701
:103024004AF8457F42CB45A7440E1B202E447468C2
:10303400656E4AF84B0D4B022E42646F4B0D4B19D3
:1030440046040008440E42D42E446C6F6F704B1932
:103054004B2942D445A7460400064AE42E452B6C6E
:103064006F6F704B294B3D42D445A7460400074A75
:10307400E42E45756E74696C4B3D4B5242C245A7B4
:10308400460400044AE42E43656E644B524B674B7E
:103094005C2E45616761696E4B674B7242C245A7FE
:1030A400460400054AE42E467265706561744B72ED
:1030B4004B8713134B7C111142CB44444B022E42D9
:1030C40069664B874B9F46040004440E42B944276B
:1030D40042CB2E44656C73654B9F4BB342CB45A7E3
:1030E40046040005440E42B944271B42CB4B02421E
:1030F400CB2E457768696C654BB34BD24BA6440124
:103104002E04686F6C644BD24BE101FFFF43CC4348
:10311400E243CC1D1F2E037061644BE14BF6440E59
:10312400010044162E023C234BF64C054BFE43CCC7
:10313400202E02233E4C054C12030343CC1D4BFEB0
:103144001A44442E047369676E4C124C24446F1560
:10315400044C3801002D4BEA2E01234C244C3943F6
:10316400AB1D4ABF446F0100091A4457044C530174
:10317400000716010030164BEA2E0223734C394C1B
:103184005A4C3F1A1A0D14044C612E03642E724CCF
:103194005A4C6B131B1A4A104C0C4C614C2D4C1995
:1031A400111A4444420441D72E02642E4C6B4C89BC
:1031B40042B94C7341F52E022E724C894C97134937
:1031C400DD114C732E012E4C974CA549DD4C902EED
:1031D400013F4CA54CB01D4CAB2E046C6F61644C8C
:1031E400B04CBA019E0043391C1D132042B94387D9
:1031F4001C1D132043D81D131C43D8203542B9018C
:103204009FF41F491E1111438720111C43392001CB
:103214009DFF4463044D031C43D8203542B9019FEC
:10322400F41F2E032E046D6F72654CBA4D05010315
:10323400E82642EA01023F164463044D29421F0670
:103244006D6F72653E3E2C03312E05766C69737486
:103254004D054D2A3144BB4D0E1C451B44F71D44FE
:103264009414044D372E06666F726765744D2A4DAB
:103274004647EB044D650344E51C435F2044F71DBA
:10328400437D1D202E032E0370656E4D464D670150
:10329400003E252E046C6973744D674D7435032EFE
:0632A40000000000000024
:00000001FF
:000000