:100000000C94F0020C940D030C940D030C940D034E
:100010000C940D030C940D030C940D030C940D0320
:100020000C940D030C940D030C940D030C944A03D3
:100030000C940D030C940D030C944F100C940D03B1
:100040000C940D030C940D030C940D030C940D03F0
:100050000C940D030C940D030C940D030C940D03E0
:100060000C940D030C940D03560A730AE40C8D0ACC
:10007000A80AB70AD80A010B140B3B0A280B4F0B2E
:10008000590B630B6D0B6F0B7B0B870B950B980B51
:100090009C0B9F0BA90BD90BDE0BF00BF80B000C84
:1000A0000A0C1B0C1F0C2F0C440C4E0C230D590C6E
:1000B0005C0C620C660C6E0C720C720C760C820C72
:1000C000900C970C9A0CA70CB50CB80CC60CD50C60
:1000D000D90CEC0CFF0C3B0AE40C3F7FFFFFFFFF49
:1000E000FFFFFCFEFFFFFFFFFFFFFFFFFFFFFFFF24
:1000F0007F3FFFFFFFFFFFFFFEFC00FF00FF00FF51
:1001000000FFFFFFFFFFFFFFFF000F0F0F0F0F0F9D
:100110000F00F0F0F0F0F0F0F000FF8080808080C1
:100120008080FF00000000000000FF0101010101CC
:1001300001018080808080808080010101010101B7
:10014000010180808080808080FF0000000000002E
:1001500000FF01010101010101FF3F7FFFFFFFFFE0
:10016000FF000F0F0F0F00000000F0F0F0F0000094
:100170000000FFFFFFFF00000000000000000F0F65
:100180000F0F0F0F0F0F0F0F0F0FF0F0F0F00F0FFB
:100190000F0FFFFFFFFF0F0F0F0F0000000055AA0A
:1001A00055AA55AA55AA0000000050505050505072
:1001B000505055AA55AA55AA55AA0000183C3C18FB
:1001C00000003C7EFFFFFFFF7E3C3E419CAC9F4019
:1001D0003F0000008E9526C8F000000000000000DF
:1001E0000000001010101000100000242400000077
:1001F000000000247E24247E240000083E283E0ABD
:100200003E080062640810264600001028102A44A8
:100210003A00000810000000000000040808080868
:1002200004000020101010102000000014083E08E8
:100230001400000008083E08080000000000000844
:100240000810000000003E00000000000000001840
:1002500018000000020408102000003C464A5262C8
:100260003C000018280808083E00003C42023C40C0
:100270007E00003C420C02423C0000081828487EE8
:100280000800007E407C02423C00003C407C424230
:100290003C00007E020408101000003C423C424238
:1002A0003C00003C42423E023C00000000100000C6
:1002B00010000000100000101020000004081008BA
:1002C00004000000003E003E00000000100804088A
:1002D0001000003C420408000800003C4A565E4002
:1002E0003C00003C42427E424200007C427C424252
:1002F0007C00003C424040423C0000784442424482
:100300007800007E407C40407E00007E407C404083
:100310004000003C42404E423C000042427E42428D
:100320004200003E080808083E0000020202424265
:100330003C00004448704844420000404040404077
:100340007E000042665A42424200004262524A46E1
:100350004200003C424242423C00007C42427C401F
:100360004000003C4242524A3C00007C42427C44F5
:100370004200003C403C02423C0000FE10101010C5
:1003800010000042424242423C00004242424224AB
:10039000180000424242425A240000422418182405
:1003A00042000082442810101000007E0408102033
:1003B0007E00000E080808080E000000402010080B
:1003C000040000701010101070000010385410104D
:1003D000100000000000000000FF001C2278202018
:1003E0007E00000038043C443C000020203C2222D7
:1003F0003C0000001C2020201C000004043C44445D
:100400003C000000384478403C00000C10181010EC
:10041000100000003C44443C043800404078444410
:1004200044000010003010103800000400040404E0
:10043000241800202830302824000010101010103C
:100440000C000000685454545400000078444444A4
:1004500044000000384444443800000078444478A4
:10046000404000003C44443C040600001C20202086
:1004700020000000384038047800001038101010B8
:100480000C00000044444444380000004444282840
:100490001000000044545454280000004428102840
:1004A000440000004444443C043800007C08102010
:1004B0007C00000E083008080E0000080808080834
:1004C00008000070100C10107000001428000000CC
:1004D00000003C4299A1A199423C0D200A00070965
:1004E0000B087A7978777A7675746C736B6A6973AE
:1004F00068673D29CD28242FCD2A2B3039C33837C2
:1005000036C37A7271707A6F6E6D667365646373E9
:100510006261223BAB3A212CDE2E2D353400333282
:1005200031000A200A007F090B085A5958575A56B9
:1005300055544C534B4A49534847265D005B605C19
:10054000005E3E3C3900383736005A5251505A4FFF
:100550004E4D4653454443534241277B007D3F2542
:10056000007F7E35340033407C000F070B030D0500
:1005700009010E060A020C04080023000000000016
:10058000000000000000000000000000000000006B
:10059000000000000000000000000000000000005B
:1005A000000000000000000000000000000000004B
:1005B000000000000000000000000000000000003B
:1005C000000000000000000000000000000000002B
:1005D000000000000000000000000000000000001B
:1005E00011241FBECFEFD4E0DEBFCDBF11E0A0E0ED
:1005F000B1E0E6E1F0E302C005900D92AC30B10746
:10060000D9F713E0ACE0B1E001C01D92A13CB10705
:10061000E1F70E94020A0C946A110C9400000895FC
:1006200083E883BD83E38093B0008AE08093B100C8
:100630001092B2008FE98093B3008BE08093B400F6
:100640001092800022E02093810010928500109289
:1006500084008BE090E09093890080938800209341
:100660006F0050988AB18A608AB98BB1857F8BB947
:1006700088E080930601E4ECF0E01182108280ECC7
:100680008093C2001092C10081E090E0918380834A
:1006900013BC08951F920F920FB60F9211242F933F
:1006A0008F939F9380910601873069F50E94931084
:1006B00082E080936E0080910701909108018C5731
:1006C0009340D0F0809188009091890081519D4D98
:1006D000909389008093880088E080930601809140
:1006E000190190911A01019690931A0180931901B2
:1006F0000E94FC100A0F94C080918800909189009C
:1007000081579F4F68C0833009F43FC0843028F47C
:100710008130F9F0823060F50AC0863009F463C098
:10072000883009F471C0843009F07AC040C08FE489
:100730008093B30085E08093B4008091880090910D
:10074000890084519E4F909389008093880081E0B6
:1007500047C089E48093B40080918800909189001B
:10076000805C9E4F909389008093880082E038C01F
:1007700010926E008091880090918900CE9690939F
:1007800089008093880083E02BC082E080936E0014
:1007900085E08093B40080918800909189008E5507
:1007A0009E4F909389008093880084E019C08FE960
:1007B0008093B3008BE08093B40084E291E0909347
:1007C000080180930701109209018091880090919F
:1007D000890080559D4D909389008093880086E024
:1007E000809306011DC080918800909189004196F8
:1007F000909389008093880010926E0087E0809328
:100800000601789488950CC08091880090918900A9
:100810008C569F4F90938900809388001092060118
:100820009F918F912F910F900FBE0F901F90189551
:100830002AED30E0ACE7B3E005C0F90184918D9377
:100840002F5F3F4FF3E0AC3BBF07B8F3089529E1BA
:10085000629F90011124280F311D2C5D3E4F309373
:100860001801209317018093BC036093230108951E
:10087000E4E2F1E0818D819383E0E336F807D0F381
:1008800002C0819301C080E293E0EC37F907C8F31E
:1008900008951F93182F873041F08D3011F5109275
:1008A000BC03809123018F5F16C0E0911701F09186
:1008B000180180E280838091BC03882321F081505D
:1008C0008093BC030DC088E18093BC038091230119
:1008D000181624F481508093230102C01092230142
:1008E00010E08091BC03893168F01092BC038091C4
:1008F00023018F5F05C00E9438048091230181503D
:1009000080932301609123016831A8F78091BC0393
:100910000E942704112371F0E0911701F091180152
:100920001193F0931801E09317018091BC038F5F3E
:100930008093BC031F910895CF93DF93EC0103C014
:1009400021960E94490488818823D1F7DF91CF91B5
:100950000895EF92FF921F93CF93DF93EC0180E312
:100960000E94490488E70E944904CE018070907F6C
:10097000892B11F010E01EC034E0CC0FDD1F3A953A
:10098000E1F7CE018070907F892B11F011E012C049
:1009900024E0CC0FDD1F2A95E1F7CE018070907F17
:1009A000892B39F494E0CC0FDD1F9A95E1F713E021
:1009B00001C012E07E019F2D92959F70892F805D6E
:1009C0008A330CF0895D0E94490484E0CC0FDD1F5E
:1009D0008A95E1F71F5F143069F780E20E944904AD
:1009E000DF91CF911F91FF90EF90089580E060E03C
:1009F0000E94270480E090E020E2E0911701F0914E
:100A000018012193F0931801E0931701019632E049
:100A10008835930791F780E060E00E9427040895ED
:100A2000282F823308F04DC0603308F04AC0862F6B
:100A3000869599E1899FF0011124822F8695E80F10
:100A4000F11DEC5DFE4F60FD02C052E001C058E0B8
:100A500020FD5695F19902C030E001C0352FF09984
:100A600002C040E001C0452F9081903A31F0892FBB
:100A70008877803111F020E006C0292F277827FFE2
:100A800002C08FE82827852F80958323942F932BEE
:100A90009095982B9223309535233423932B45231F
:100AA00020954223942B93FF02C08FE89827292F8B
:100AB000205F822F90E087709070892B09F4205F6F
:100AC0002083089598B1811180E19F7E892B88B998
:100AD0000895BF92CF92DF92EF92FF920F931F93F0
:100AE000CF93DF93E0901701F0901801C090BC0302
:100AF000D090230106E1C4E0D0E059E0B52E8BE0B0
:100B0000602F0E942704CE018450182F23C0E0914B
:100B10000E01F0E0319680910F018B9DC0011124F0
:100B2000E80FF91F43E0EE0FFF1F4A95E1F7EA1BBC
:100B3000FB0BEF51FB4F84918058E0911701F0912E
:100B40001801E081E81719F0A55EBE4FEC930E94F2
:100B500049041F5FA12FB0E0AC17BD07C4F20F5FBF
:100B60002496083161F6F0921801E0921701C092C4
:100B7000BC03D0922301DF91CF911F910F91FF9081
:100B8000EF90DF90CF90BF900895CF92DF92EF92D9
:100B9000FF920F931F93CF93DF93E0901701F09094
:100BA0001801C090BC03D090230106E1C4E0D0E05E
:100BB0008BE0602F0E942704CE018450182F06C0BE
:100BC000E55EFE4F80810E9449041F5FE12FF0E047
:100BD000EC17FD07ACF30F5F2496083149F7F0924C
:100BE0001801E0921701C092BC03D0922301DF915B
:100BF000CF911F910F91FF90EF90DF90CF900895CC
:100C0000282F30E0C901019782239323892B19F003
:100C100049E050E016C0822F807F49F0822F807C0F
:100C200019F445E050E00DC047E050E00AC0C901AA
:100C30008C709070892B19F441E050E002C043E0C1
:100C400050E0042E02C0359527950A94E2F74150F2
:100C50005040240F351FC9010895809110019091D3
:100C600011018130910511F0039769F48091010120
:100C7000882321F081508093010108958FEF8093A4
:100C800001010E94690508950F931F93082F809119
:100C90000D01081719F40E942D06C0C080910101B2
:100CA00018168CF0809110019091110181309105FE
:100CB00011F0039741F40E94C505002321F410921E
:100CC00011011092100188E0809301012091100120
:100CD0003091110121303105C9F02130310548F042
:100CE0002230310509F451C02330310509F094C098
:100CF0005CC080910D01801708F08EC0802F0E948B
:100D0000000680930E0181E090E07DC080910D018E
:100D100010910E01801710F5012E02C0220F331F13
:100D20000A94E2F7802F821B0E940006E12FF0E078
:100D3000319620910F0149E0249F90011124E20F88
:100D4000F31F73E0EE0FFF1F7A95E1F7E80FF91F2D
:100D5000E652FB4FE491E0930C0151C090910F01DA
:100D6000133029F481E0891B80930F0151C0E8E41E
:100D70009E9FF0011124E10FF11DE652FB4FE4911B
:100D8000E0930C0110920F0143C0002309F440C00E
:100D900080910D01081708F03FC0802F0E940006C7
:100DA00080930E0183E090E02EC080910D018017AA
:100DB00078F510910E0181E090E0012E02C0880FBD
:100DC000991F0A94E2F7202F281B822F0E94000609
:100DD000E12FF0E0319620910F0149E0249F90012E
:100DE0001124E20FF31F63E0EE0FFF1F6A95E1F796
:100DF000E80FF91FE652FB4F849180930C0110928B
:100E00000F0182E090E0909311018093100104C0E3
:100E1000109211011092100100930D011F910F917A
:100E2000089587B1807F87B988B18F6088B9579856
:100E30005F9A2098289A0895CF92DF92EF92FF92BE
:100E40000F931F93182FF62ED42EC22E8DE00E94E2
:100E50004904812F90E00E94A90480E20E94490485
:100E60008F2D90E00E94A90480E20E9449048D2DFC
:100E700090E00E94A90480E20E9449048C2D90E039
:100E80000E94A90480E20E944904802F90E00E9401
:100E9000A90480E20E9449048E2D90E00E94A904DA
:100EA00080E20E9449041F910F91FF90EF90DF9024
:100EB000CF90089590911301992371F4E6B1F0E079
:100EC000EF70F070E659FA4FE491E09314015798EF
:100ED0005F9A209A289812C0E6B1F0E0EF70F070A7
:100EE000E659FA4FE491809114018295807F8E2B10
:100EF000809314012098289A579A5F989F5F917069
:100F0000909313018091140108950E945A07982F1D
:100F100080911301882351F480911201981721F4D4
:100F2000892F0E944406089590931201089580919C
:100F30000C01882311F010920C0108951F93E09189
:100F40001701F09118018081805880830E949707D3
:100F5000182F8823D9F3E0911701F09118018081AF
:100F600080588083809113010E946205812F1F9118
:100F700008950CC08091190190911A01E4E09595B3
:100F80008795EA95E1F781700E9462050E949707B4
:100F9000882381F3089590E044EF51E009C024EFE5
:100FA00031E0FA013197F1F721503040D1F79F5FDE
:100FB0009817A8F3089594E1899F802D11240E9429
:100FC000CB070895EF92FF920F931F932091150185
:100FD000309116012F5F3F4F4BE450E0249F70018A
:100FE000259FF00C349FF00C1124F0921601E09232
:100FF000150100E010E09C0140E050E0C801B7019D
:101000000E9429119C0144275527C9011F910F9166
:10101000FF90EF90089584B1817C8E6284B985B190
:10102000817C866085B98DB581608DBD80E58CBD84
:1010300008958EBD0DB407FEFDCF089580E00E9497
:1010400019088EB50895299881E00E94190881E455
:101050000E941908299A0895299885E00E94190884
:101060000E941E08299A0895FF920F931F93182F2C
:10107000092FF62E299882E00E941908802F0E94DD
:101080001908812F0E9419088F2D0E941908299A8A
:101090001F910F91FF900895FF920F931F93182FA8
:1010A000092FF62E299882E00E941908802F0E94AD
:1010B0001908812F0E9419088F2D0E9419081F916D
:1010C0000F91FF9008950F931F938C01299883E04F
:1010D0000E941908812F0E941908802F0E94190868
:1010E0000E941E08299A1F910F9108950F931F9334
:1010F0008C01299883E00E941908812F0E94190809
:10110000802F0E9419080E941E081F910F910895B8
:101110002A9885E00E9419080E941E082A9A0895BC
:101120000E94880880FDFCCF08952A9886E00E94DE
:1011300019082A9A08950F931F938C010E9495080D
:101140002A9888ED0E941908812F0E941908802F83
:101150000E94190880E00E9419082A9A0E949008AB
:101160001F910F9108950F931F93CF93DF938C01DD
:10117000EB012A9883E00E941908812F0E94190828
:10118000802F0E94190880E00E94190800E010E0FA
:101190000E941E0889930F5F1F4F81E000301807DF
:1011A000B9F72A9ADF91CF911F910F9108950F936C
:1011B0001F93CF93DF938C01EB010E9495082A982F
:1011C00082E00E941908812F0E941908802F0E9436
:1011D000190880E00E94190800E010E089910E943F
:1011E00019080F5F1F4F81E000301807B9F72A9ADE
:1011F0000E949008DF91CF911F910F910895E8ED23
:10120000F2E224913196E491922F80E02E2F30E08B
:10121000282B392BC9010895299A8CB58F7B8CBD59
:1012200020918400309185002F5F3F4F8DB58EB5A2
:101230008091840090918500A901481B590B57FFAC
:10124000F5CF8CB580648CBD0895FC0197FD05C079
:10125000FF71E852FD4D849108958091BF039091F4
:10126000C0033196F093C003E093BF033197E817B2
:10127000F90729F40DB407FEFDCF8EB51CC0299ADD
:101280008CB58F7B8CBD20918400309185002F5FC1
:101290003F4F8DB58EB58091840090918500A90156
:1012A000481B590B57FFF5CF8CB580648CBDCF011F
:1012B0009F770E9476081EBC08950F931F93CF93CB
:1012C000DF93FC01EB018A014115510559F1299A7F
:1012D0008CB58F7B8CBD20918400309185002F5F71
:1012E0003F4F8DB58EB58091840090918500A90106
:1012F000481B590B57FFF5CF8CB580648CBDCF01CF
:101300009F7768810E944C0803C088810E94190859
:1013100001501040219601151105B9F71092C00334
:101320001092BF03DF91CF911F910F9108950E94FA
:10133000F60408950895EF92FF920F931F93CF93B1
:10134000DF937C018B01EA01C7010E94250980938C
:10135000BD031092BE030894E11CF11CC8016DEBA3
:1013600073E041E050E00E945D090F5F1F4F21973D
:1013700059F7DF91CF911F910F91FF90EF90089552
:101380000F931F9383B7816083BF1092C10080E1E8
:1013900087B90E94841020E044EF51E008C0FA01B0
:1013A0003197F1F70197D9F72F5F243619F08CE2C6
:1013B00091E0F5CF87E40E94821000E017E41F5F00
:1013C0001F3709F411E2812F0E9482100F5F08324B
:1013D000B1F782E70E94821085E50E9482100E9488
:1013E000180486E70E94821083E50E9482100E9402
:1013F00011070E940B080E9423080E9410031F91EE
:101400000F9108952F923F924F925F926F927F9229
:101410008F929F92AF92BF92CF92DF92EF92FF9204
:101420000F931F93DF93CF93CDB7DEB72E970FB6F1
:10143000F894DEBF0FBECDBF0E94C0090E94F60423
:101440000E94FF088C011092C0031092BF0321EC90
:1014500033E03E872D8780E20E944904CC24DD24BE
:10146000662477244424552407C0CC24CA94DC2C59
:1014700002C0CC24DD24840148010894811C911C05
:10148000C8010E942509182F8A3308F0C8C2812F8D
:1014900090E0FC013197E933F10568F7EC5CFF4F10
:1014A000EE0FFF1F0590F491E02D09948D859E8528
:1014B00002969E878D87FC01D182C08284010F5FD6
:1014C0001F4FC4010E942509F82E48010894811C71
:1014D000911CC8010E9425093F2C2224C82EDD241E
:1014E000C228D328C8CF2D853E8522503040FAE34C
:1014F000CF16D10440F41C2DED85FE85C080D1802F
:101500003E872D87C4CF8F929F92ED85FE85808187
:1015100091813E872D87460171C174010894E11CB9
:10152000F11CC4010E942509182FC7010E9425093A
:10153000CD2829F047010894811C911C45C21E83C7
:101540001D82882E99242D813E81822A932A3CC2B5
:10155000C4010E942509182FC40101960E94250983
:1015600018871F82882E99242F8138853EC00894C1
:10157000611C711C74010894E11CF11CC4010E94DF
:101580002509182FC7010E942509641475043CF42D
:101590001C831B82882E99248B819C8151C2470118
:1015A0000894811C911C7F906F905F904F9063CF47
:1015B0006C0C7D1CED85FE85C080D1803297FE8746
:1015C000ED8774010894E11CF11CC4010E942509F7
:1015D000182FC7010E942509641475044CF41A835E
:1015E0001982882E992429813A81822A932A43CF0D
:1015F00047010894811C911C7F906F905F904F90E1
:101600003ACF4F925F926F927F92ED85FE85408038
:10161000518032979F01225030403E872D873601FE
:1016200020813181C901EAC0ED85FE85608171812B
:1016300080E090E0960140E050E00E942911ED85A5
:10164000FE8571836083BC01882799276B0113CFC6
:10165000ED85FE8580819181A0E0B0E0DC019927D5
:101660008827F290E290FE87ED8700E010E0E82AFC
:10167000F92A0A2B1B2B5601CC24DD24C801B70103
:10168000A60195010E944811ED85FE857183608356
:10169000C801B701A60195010E94481184C1ED85DA
:1016A000FE85808191813297FE87ED87C822D922FD
:1016B000E2CEED85FE85808191813297FE87ED87B0
:1016C000C82AD92AD8CEED85FE85808191813297AE
:1016D000FE87ED87C826D926CECE3201CCCE2D8509
:1016E0003E852E5F3F4F3E872D87F901D182C08214
:1016F000DF90CF90C0CE2D853E852E5F3F4F3E8739
:101700002D87F901D182C082DF90CF90B4CE2D8594
:101710003E852E5F3F4F3E872D87F901D182C082E3
:10172000DF90CF90CF92DF92A6CECF92DF924CC1C6
:10173000CD2809F49ACE9DCED7FE9BCE96CEED85D0
:10174000FE85808191813297FE87ED87C80ED91E74
:1017500092CE2D853E8522503040C601A0E0B0E0FB
:10176000DC0199278827ED85FE85E080F18000E087
:1017700010E0E82AF92A0A2B1B2BF901208131817C
:1017800040E050E0A9013327222792918291FE8701
:10179000ED87A0E0B0E0822B932BA42BB52B8E0D10
:1017A0009F1DA01FB11F91838083CD01AA27BB2756
:1017B00025C0D094C194D108D3945DCEED85FE852B
:1017C00080819181909581959F4F91838083C09472
:1017D000D094892B09F04FCE0894C11CD11C4BCE5C
:1017E000ED85FE85808191813296FE87ED8704C06C
:1017F000ED85FE8580819181D182C0826C013BCED6
:101800002D853E852E5F3F4F3E872D87F901C08293
:10181000D18231CEC6010E942509182FC60101963A
:101820000E9425091A871986C82EDD2429853A8544
:10183000C22AD32A20CEC6010E9425096EC0C60145
:101840006D857E8541E050E00E945D09ED85FE8555
:10185000D290C290CF0102979E878D870CCE0D85C6
:101860001E85F801908181818093BD039093BE0312
:10187000C6016DEB73E042E050E00E945D09F801A3
:10188000D290C2909F01C6C08D859E8502969E878C
:101890008D87FC01D182C0826301EDCD2D853E850F
:1018A0002E5F3F4F3E872D87F901D182C0826201B2
:1018B000E2CDF601808131C0ED85FE858081F601A3
:1018C0008083A3C0F601C080D180D5CDED85FE8593
:1018D00080819181F6019183808397C08C2D0E9435
:1018E000490472C0C6010E94A9046EC02D853E85C0
:1018F0002E5F3F4F3E872D87F901D182C0820E9423
:1019000097070BC02D853E852E5F3F4F3E872D8765
:10191000F901D182C0820E949E07C82EDD24ABCD82
:10192000ED85FE8580816C2D0E9427046EC09F90FE
:101930008F90A1CD8D859E8502969E878D87FC0117
:10194000D182C082B4E2CB2EB1E0DB2E94CD2D85C6
:101950003E852E5F3F4F3E872D87F901D182C082A1
:10196000A9E1CA2EA1E0DA2E86CD0E94F60483CD2D
:10197000ED85FE85808191813297FE87ED879C0100
:1019800002C036952795CA94E2F70DC0ED85FE8515
:10199000808191813297FE87ED879C0102C0220FE2
:1019A000331FCA94E2F7690166CDC6010E94BF0EDB
:1019B0000BC0C6010E94B90D80E09EE964E271E0AF
:1019C00040E052E00E945D09ED85FE85C080D18037
:1019D0003297FE87ED874FCD0D851E85F80160811A
:1019E0007181929182918F01A6010E949B09F80159
:1019F000D290C2909F01225030403E872D87ED85C6
:101A0000FE8580816C2D0E941005ED85FE85D290AB
:101A1000C2909F01225030403E872D872CCD0894E4
:101A2000811C911C8F929F92089481089108C40197
:101A30000E942509882E99241C871B868B859C85EE
:101A4000882A992A18CD2E960FB6F894DEBF0FBEBD
:101A5000CDBFCF91DF911F910F91FF90EF90DF905D
:101A6000CF90BF90AF909F908F907F906F905F903E
:101A70004F903F902F900895CF93DF93EC01FE019C
:101A800021968491882319F00E948210F8CFDF916B
:101A9000CF91089599E16902B0011124992787FD3A
:101AA0009095680F791F6C5D7E4FCB0108950F9361
:101AB0001F93CF93DF93EC01062F0A30D1F00B3048
:101AC00040F4083019F10930D8F4073009F045C066
:101AD0003CC00D30F9F00E3018F40B30F1F505C0B4
:101AE000033CD1F00D3CC9F52BC08981815089831D
:101AF0003BC089818F5F89838431B0F1198234C002
:101B000088818F5F8883893128F42EC08881815035
:101B100088832AC01882EDCF1A81812F6B810E94A1
:101B20004A0DFC0100811F5F1A83193130F21A82BD
:101B30008B818F5F8B83843108F4BFCF1B82BDCF35
:101B400088818A8389818B830FC0888169810E9403
:101B50004A0DFC0180E28083D9CF888169810E948F
:101B60004A0DFC010083CCCFDF91CF911F910F91E3
:101B70000895EF92FF920F931F93CF93DF937C0111
:101B80008FEF9FEF64E271E00E94650FEC01C701E7
:101B900064E271E00E9414108C018C179D0711F40F
:101BA0000E94F60481E065E10E942704C7010E94BB
:101BB000A90480E40E944904C8010E94A90481E2AA
:101BC0000E944904CE010E94A904CE01DF91CF9169
:101BD0001F910F91FF90EF90089544E251E00E9411
:101BE000ED0F0895AF92BF92CF92DF92FF920F93C5
:101BF0001F93CF93DF936C015B01EA0180E065E105
:101C00000E944A0D8C018FE3F80180830E949E0799
:101C1000F82EF8018083F7E58F1709F44EC0F81706
:101C200068F085E4F81609F44DC0E4E5FE1609F401
:101C300062C0F7E0FF1609F08FC026C08AE5F816EB
:101C400009F456C0E9E6FE1629F0F8E5FF1609F09A
:101C500083C088C080E069810E944A0DEC0188E160
:101C600062E10E944A0DFC0103C08081818F31979F
:101C7000EC17FD07D0F7CE01499620E201C0219371
:101C8000E817F907E0F370C080E069810E944A0D0F
:101C9000EC0180E063E10E944A0D9C0102C0898D45
:101CA0008993C217D307D8F3C901499620E201C02E
:101CB0002993C817D907E0F357C0C601B5010E94A0
:101CC000ED0D50C0C0E0D0E000E010E080E065E144
:101CD0000E942704CE010E94A904C8010E949B080B
:101CE0002196085F1F4F88E0C030D80779F73AC0C7
:101CF0000E94F60439C00E940C090E94F604C0E05C
:101D0000D0E080E065E10E94270484E291E00E9437
:101D10004C0F8C0F9D1F0E94A904CE01409664E2D7
:101D200071E00E94B3080E949E072196CF30D10532
:101D300041F71092C0031092BF0316C088816981D9
:101D40000E944A0DFC018081880F880F880F812B2B
:101D500080830E949E07F82E1F2D1053183070F3B9
:101D6000FF2402C08BE1F82E8F2DDF91CF911F91C0
:101D70000F91FF90DF90CF90BF90AF9008952F927A
:101D80003F924F925F926F927F928F929F92AF920B
:101D9000BF92CF92DF92EF92FF920F931F93DF9348
:101DA000CF9300D000D0CDB7DEB74C0119821A8294
:101DB0008FEF8B830E94F604C4010E94B90D2C01A1
:101DC00093E8692E1E010894211C311CE090190132
:101DD000F0901A0189816A810E944A0D5C018B8111
:101DE0006C810E944A0D6C01F5017080FC0100813C
:101DF0001FC08091190190911A019701281B390B7E
:101E000037FF16C0F5019081905890838B818F3FEA
:101E100039F097FF03C0F601608202C0F60100832B
:101E2000E0901901F0901A0122E330E0E20EF31E77
:101E30000E949707182F8823E1F2F5017082F601BE
:101E400000838B3A39F4C401B201A1010E94F20D62
:101E5000182F04C0C101612F0E94570D1B3109F0DA
:101E6000B5CF80E064E10E9427040F900F900F909F
:101E70000F90CF91DF911F910F91FF90EF90DF9026
:101E8000CF90BF90AF909F908F907F906F905F901A
:101E90004F903F902F9008950F931F938C010E94B5
:101EA0000C0980E090E0B8010E94B308F80180813D
:101EB00091818F5F9F4F19F020E030E002C020E158
:101EC00030E0C9011F910F9108958F929F92AF92B8
:101ED000BF92CF92DF92EF92FF920F931F93CF9317
:101EE000DF934C016B01CB010E944C0F5C01C0E4FD
:101EF000D0E0EE24EA94FE2C00E010E0C8018A0D48
:101F00009B1DB6010E94B30880E0E82FF0E0EE0FC1
:101F1000FF1FEC0DFD1D0190F081E02DE815F90586
:101F200009F47E01EF5FFF4F39F48FEFE8168FEF72
:101F3000F80669F0E7010BC021968F5F803829F71A
:101F40000F5F1F4F0F301105C9F6CEEFDFEFCE0147
:101F5000DF91CF911F910F91FF90EF90DF90CF9085
:101F6000BF90AF909F908F900895CF92DF92EF92A5
:101F7000FF920F931F93CF93DF936C018B01CB01E3
:101F80000E944C0F7C018FEF9FEFB8010E94650FFC
:101F9000EC018FEFCE3FD807B1F0C054D040FE0126
:101FA000EF77F070EE0FFF1FE00FF11FD182C082BC
:101FB000CE01880F892F881F990B91958E0D9F1D3B
:101FC000B8010E94D708CE01DF91CF911F910F91E8
:101FD000FF90EF90DF90CF900895CF92DF92EF9235
:101FE000FF920F931F936C018B017A010E940C09E1
:101FF000000F111FC801B7010E94D708B701605038
:102000007F4FC80101960E94D708C601B7010E9400
:10201000B50F1092C0031092BF031F910F91FF9054
:10202000EF90DF90CF900895CF92DF92EF92FF92E2
:102030000F931F938B010E94650F7C016C01CC0CE8
:10204000DD1CC601B8010E94B30800501F4FC60135
:102050000196B8010E94B3081092C0031092BF030A
:10206000C7011F910F91FF90EF90DF90CF900895DF
:102070000F931F930BB1102F037F1C5F1C70012B5C
:102080000BB9009102010A95009302011F910F9173
:1020900008950F9304E6009302010F910895789438
:1020A0004F935F93409103014A954093030171F070
:1020B00050E240FD51E257BD5091050108945795FB
:1020C0005093050142E828F442EC03C040E045BDCE
:1020D00042E044BD5F914F9118954F936F9345B582
:1020E0004423E9F7609305016BE06093030140E24C
:1020F00047BD42E844BD40E046BD43E045BD6F9169
:102100004F910895682FE9CF4F935F935E9A569A47
:10211000442745BD40916E00426040936E00789424
:102120005F914F9108950F921F92EF93FF930F933A
:1021300000E0E8E0AF93BF93CF93DF930093C60036
:10214000E093C100D0910901D7701F9318E1A091CD
:102150000701B091080108E0ED91CE2FEF770E9FB7
:102160000D0EE83030F0EAEDF0E0E00DF11DE49105
:1021700006C0ECE7F3E0E00DF11DE08100C0C7FD13
:10218000E095E093C600000000C000C000C0115000
:102190001AF7D73024F0A0930701B0930801D0912B
:1021A0000901DF5FD093090100C0A0E0A093C10046
:1021B0001F91DF91CF91BF91AF910F91FF91EF915F
:1021C0001F900F9008950000BF93AF931F93A091AD
:1021D0000701B09108011D911093C600A09307015B
:1021E000B093080110910A01115000F410930A01F4
:1021F0001F91AF91BF911895CF93DF93CDB7DEB705
:10220000EF93FF932F933F934F935F936F937F933E
:102210008F939F93AF93BF93FB81EC81EE0FFF1FD2
:1022200025913591F695E795EC83FB83F901F695B9
:10223000E7950995BF91AF919F918F917F916F9194
:102240005F914F913F912F91FF91EF91DF91CF914E
:102250000895629FD001739FF001829FE00DF11DF0
:10226000649FE00DF11D929FF00D839FF00D749F10
:10227000F00D659FF00D9927729FB00DE11DF91FBC
:10228000639FB00DE11DF91FBD01CF011124089519
:10229000A1E21A2EAA1BBB1BFD010DC0AA1FBB1F6A
:1022A000EE1FFF1FA217B307E407F50720F0A21BDC
:1022B000B30BE40BF50B661F771F881F991F1A9449
:1022C00069F760957095809590959B01AC01BD0173
:0822D000CF010895F894FFCF3F
:1022D800E749836C6974000002400187657865638B
:1022E80075746502400B4002866272616E63680B0A
:1022F8004018400587306272616E63681840244058
:102308000486286C6F6F7029244031400687282B7B
:102318006C6F6F702931403D40078428646F293DF8
:10232800404A400881694A40544021856C6561767D
:102338006554405B400F83616E645B4066400C826D
:102348006F7266406F400D83786F726F4077400EF2
:10235800823E3E7740804032823C3C804088403319
:10236800823B73884090402E8628646F657329905D
:102378004098401082723E9840A44011823E72A458
:1023880040AC40138172AC40B4401282303DB4403E
:10239800BB401482303CBB40C34015812BC340CBAB
:1023A800401682642BCB40D24017856D696E7573D9
:1023B800D240DA401886646D696E7573DA40E5407C
:1023C80019846F766572E540F1401A8464726F7003
:1023D800F140FB40038473776170FB4005411B8328
:1023E80064757005410F411C81400F4118411D82E1
:1023F800634018411F411E81211F412741208263EC
:102408002127412E411F82752A2E413641098275A6
:102418002F36413E410B84656D69743E4146412823
:10242800836B6579464150412C85696E6B6579509F
:102438004159412B84706C6F7459416441378269EA
:102448002764416E4122836963406E41764124834B
:1024580069632176417F41258269407F4188412611
:102468008269218841904127847672616D904198F4
:10247800412F85636C6F636B9841A2413082617410
:10248800A241AD412D83636C73AD41B54131842EBA
:10249800686578B541BE412A8465646974BE41C8DF
:1024A8004134846C697374C841D241358574726152
:1024B8006365D241DC4138026372DC41E7410100C7
:1024C8000D282E05636F756E74E741F3411C1144A6
:1024D8001B1E2E0474797065F3410342AF44041F38
:1024E800421A161B08211E00280615420520420321
:1024F8002E057370616365034221422E43282E0620
:1025080073706163657321422F4205434E4AAF449D
:10251800044B420543082B420646422E04282E222D
:10252800292F424C4212FD411C11441116130C4232
:102538002E422E224C426142010022B6431D0481E4
:102548004221465542B44729441E1144374405895F
:1025580042B4472944FD410C422E05636D6F7665F0
:1025680061428A420543081A21161E1A21161F06BF
:10257800974203032E0466696C6C8A42A5421B13BA
:102588001A1F1C1144110F435F4494422E056572B3
:10259800617365A542BD420543AE422E06626C6179
:1025A8006E6B73BD42CC422E43AE422E03766172EF
:1025B800CC42DC42644642448246102E05636F6E6C
:1025C8007374DC42EC42644642448246101D2E017C
:1025D80030EC42FF42FC4200000131FF420943FC5B
:1025E800420001013209431343FC42000201331344
:1025F800431D43FC42000302626C1D432743FC4217
:1026080000202080001F000180800C800C80304D4D
:102618000374696227434043FC420080057769647C
:10262800746840434C43FC420280077761726E69CC
:102638006E674C435A43FC4204800264705A436AF2
:1026480043FC42068007636F6E746578746A43754D
:1026580043FC4208800763757272656E7475438522
:1026680043FC420A8002696E85439543FC4212800E
:10267800036F75749543A043FC421480057374611D
:102688007465A043AC43FC4216800462617365AC78
:1026980043BA43FC4218800364706CBA43C743FCD6
:1026A800421A8003666C64C743D343FC421C800310
:1026B800686C64D343DF43FC421E80022B21DF4356
:1026C800EB431B1A1D161B202E06746F67676C657B
:1026D800EB43F9431A1E0E1B1F2E02312BF9430A36
:1026E800440F43162E02322B0A4415441943162E62
:1026F80004686572651544204471431D2E05616C9C
:102708006C6F7420442D447143F2432E012C2D44E8
:102718003C44294420194337442E02632C3C444A44
:102728004429441F0F4337442E012D4A4459441865
:10273800162E013D594462445F44142E013C624404
:102748006C445F4415002E00013E6C4478441B72B3
:10275800442E03726F7478448244131B111B2E0499
:102768003264757082448F441A1A2E036E69708F12
:10277800449B441B032E043F6475709B44A6441C71
:1027880004B4441C2E02753CA644B54498440E1566
:1027980004C7441B03152E5F44152E066C6174652F
:1027A8007374B544CB4491431D1D2E077066613E7A
:1027B800636661CB44DB441C00451E0100800C04A9
:1027C800F3441E2E077066613E6E6661DB44F44476
:1027D80019435F441D2E076E66613E6C6661F444C2
:1027E80006451C1E01001F0C1611442E076E66615B
:1027F8003E70666106451C451245010004162E030D
:1028080069642E1C452F451C11441B1E01001F0C1A
:102818000C422B422E076D6573736167652F454522
:1028280045554206457272202320CB4C2E05657211
:10283800726F7245455D4566431D15047045B7497D
:102848002944FD410C425542023F20514595490615
:102858003F6572726F725D457F451B049045674501
:10286800032E053F636F6D707F459245B6431D1477
:102878000100118A452E053F657865639245A64596
:10288800B6431D0100128A452E063F7061697273B6
:10289800A645B9455F440100138A452E413AB9451A
:1028A800CC45B04557483E462E413BCC45D94521FD
:1028B80046002E504632462E09696D6D6564696181
:1028C8007465D945E845D64401004004442E027891
:1028D8002CE845FE451C01FF000C04124642440545
:1028E800144651442E07636F6D70696C65FE45157B
:1028F800469C45111C1D05461C44132E415B15467C
:102908002C460543B643202E015D2C46384601006F
:1029180040B643202E06736D756467653846454694
:10292800D64401002004442E073C6275696C647328
:102938004546584657485046054342442E45646F1D
:1029480065733E58466D4601824642440100105167
:10295800442E11D6442845202E41286D468946012B
:102968000029B4472E03686578894695460100100A
:10297800C343202E07646563696D616C9546A44660
:1029880001000AC343202E056469676974A446B729
:1029980046130100305F440100091A724404DC4602
:1029A8000100075F441C01000A72440D1C11BC445D
:1029B8002E08286E756D62657229B746E146114486
:1029C8001C131EC3431DC146041A471BC3431D09DC
:1029D800038A44C3431D0917CF431D1144041647F6
:1029E8000F43CF43F2431105EE4603112E066E75D1
:1029F8006D626572E1461D47054305438A441C1113
:102A0800441E01002D68441C135F4401FFFFCF439F
:102A180020EE461C1E2E435F44045C471C1E01002A
:102A28002E5F4405438A450543053E47031104626A
:102A380047192E07656E636C6F73651D47634713EF
:102A48001C1C1C1E2E436844048047114405724711
:102A580098441B5F448A448A441C1E049B471C1EDE
:102A6800125F4404A24711440589471B5F441C11A7
:102A7800032E11031B5F441C11442E04776F7264EC
:102A88006347AB4748431D9C431D161B6F472944AA
:102A9800010022D7429C43F2431A5F44131229448F
:102AA8001F16294411441194422E8A448A441A1E3E
:102AB8001A1E5F4404EA4703032E8A440F435F4407
:102AC8001C0401488A440F43168A440F431605DE46
:102AD80047A344A3442E052D66696E64AB47064898
:102AE8002E43B4472944D6441A1E1A1E01002F0C3F
:102AF80068440437481A11441A1C11441B1E01006B
:102B08001F0CDA4704414812451D1C044B480518A0
:102B180048A3441C28451B1E01FFFF2E066372654F
:102B280061746506484C481048046A4803004537F4
:102B38004501000451452B4229441C1C1E56431DC7
:102B48003C4A1C114437440100200D1A1FD6444248
:102B580044424491431D202E495B636F6D70696C3C
:102B6800655D4C48884810481405438A4503E74486
:102B780005462E476C69746572616C8848A348B62F
:102B8800431D04BB482146000142442E48646C6939
:102B9800746572616CA348BC48B6431D04D4481BD5
:102BA800AF48AF482E06657870656374BC48D54851
:102BB8001A161A082C1C010007684404044903016A
:102BC80000071A216844141C04FD481A281B03072F
:102BD800E448032E1C01000D68440416490F032E17
:102BE8004305430517491C211F05432111441F288C
:102BF80006E448032E40D548254901208048432053
:102C080011032E09696E74657270726574254933F3
:102C1800491048045F4901007F0CB6431D72440403
:102C28005949E7440546054149E744020541492811
:102C380047CF431D1144046E49C94805414903AFB4
:102C480048054149057175657279334974494843A6
:102C58001D010050E04805439C43202E047175690E
:102C68007474498C493246EE417E494149B6431D48
:102C78001404AA49554203204F4B05974905616240
:102C88006F72748C49AD49B046EE4155421E4649B3
:102C9800476E6974696F6E200D7F6E696368656D34
:102CA800616368696E657320323031319549046318
:102CB8006F6C64AD49DE4901324301008001000EAA
:102CC8009442B74904732D3E64DE49F4491C152E1D
:102CD800022B2DF449004A15040C4A182E03642BC4
:102CE8002D004A0D4A15041A4A192E036162730D04
:102CF8004A1B4A1C074A2E04646162731B4A274A0E
:102D08001C154A2E036D696E274A344A1A1A7E44E6
:102D180004444A1B032E036D6178344A464A1A1A42
:102D2800724404564A1B032E026D2A464A584A1A10
:102D38001A0E13234A1B234A0911154A2E012A5831
:102D48004A6D4A09032E052A2F6D6F646D4A764A2B
:102D5800135F4A119A4A2E022A2F764A874A804AD6
:102D68001B032E026D2F874A934A1A1313304A12F7
:102D7800234A0B11120E074A1B11074A1B2E042F58
:102D88006D6F64934AAE4A13FD49119A4A2E012F7A
:102D9800AE4ABE4AB74A1B032E036D6F64BE4AC9CA
:102DA8004AB74A032E056D2F6D6F64C94AD54A1379
:102DB8000543120B111B130B112E4127D54AEA4A62
:102DC80010481405438A4503AF482E046261636BBB
:102DD800EA4AFB4A42442E45626567696EFB4A0728
:102DE8004B9C4529440F432E45656E646966074B25
:102DF800184B9C451943C44529441B202E4474682C
:102E0800656E184B2D4B224B2E42646F2D4B394B60
:102E180021460008294423432E446C6F6F70394BB8
:102E2800494B2343C44521460006044B2E452B6CD1
:102E38006F6F70494B5D4B2343C44521460007041F
:102E48004B2E45756E74696C5D4B724B0F43C445D0
:102E580021460004044B2E43656E64724B874B7CFD
:102E68004B2E45616761696E874B924B0F43C44592
:102E780021460005044B2E46726570656174924BBD
:102E8800A74B13139C4B111119435F44224B2E423D
:102E98006966A74BBF4B21460004294405434244B9
:102EA80019432E44656C7365BF4BD34B1943C44516
:102EB800214600052944054342441B1943224B1966
:102EC800432E457768696C65D34BF24BC64B1C445F
:102ED8002E04686F6C64F24B014C01FFFFE743F26C
:102EE80043E7431D1F2E03706164014C164C2944AF
:102EF800010044162E023C23164C254C1E4CE74379
:102F0800202E02233E254C324C0303E7431D1E4C62
:102F18001A5F442E047369676E324C444C8A441518
:102F280004584C01002D0A4C2E0123444C594CC323
:102F3800431DDF4A8A440100091A724404734C0194
:102F4800000716010030160A4C2E022373594C7ADA
:102F58004C5F4C1A1A0D1404814C2E03642E727A9D
:102F68004C8B4C131B1A304A2C4C814C4D4C394C11
:102F7800111A5F443A420C422E02642E8B4CA94C23
:102F88000543934C2B422E022E72A94CB74C13FDCD
:102F98004911934C2E012EB74CC54CFD49B04C2E0F
:102FA800013FC54CD04C1DCB4C2E046C6F6164D0D6
:102FB8004CDA4C019E0048432005439C43203505CC
:102FC80043019FF41F2E05766C697374DA4CF64C36
:102FD800D6441C374512451DAF441404024D2E0635
:102FE800666F72676574F64C0F4D1048042D4D03DB
:102FF80000451C12451D91431D20052F4D03032E2E
:0E3008000370656E0F4D304D01003E252E0009
:0C301600A608640000000000000000009C
:00000001FF
