:100000000C9417030C9434030C9434030C943403B1
:100010000C9434030C9434030C9434030C94340384
:100020000C9434030C9434030C9434030C94780330
:100030000C9434030C9434030C949B110C943403EF
:100040000C9434030C9434030C9434030C94340354
:100050000C9434030C9434030C9434030C94340344
:100060000C9434030C943403E4080109940B1B0929
:100070003609450968099109A409C908B809DF09C1
:10008000E909F309FD09FF090B0A170A250A280ADD
:100090002C0A2F0A390A690A6E0A800A880A900A0D
:1000A0009A0AAB0AAF0ABF0AD00ADA0AAE0BE50A0F
:1000B000E80AEE0AF20AFA0AFE0AFE0A020B0E0B20
:1000C0001C0B230B260B330B410B440B520B610B08
:1000D000650B710B810B910BC908940B3F7FFFFFE0
:1000E000FFFFFFFFFCFEFFFFFFFFFFFFFFFFFFFF24
:1000F000FFFF7F3FFFFFFFFFFFFFFEFC00FF00FF52
:1001000000FF00FFFFFFFFFFFFFFFF000F0F0F0FBC
:100110000F0F0F00F0F0F0F0F0F0F000FF808080A3
:1001200080808080FF00000000000000FF010101CE
:1001300001010101808080808080808001010101B7
:100140000101010180808080808080FF000000002C
:10015000000000FF01010101010101FF3F7FFFFFDE
:10016000FFFFFF000F0F0F0F00000000F0F0F0F096
:1001700000000000FFFFFFFF000000000000000083
:100180000F0F0F0F0F0F0F0F0F0F0F0FF0F0F0F0FB
:100190000F0F0F0FFFFFFFFF0F0F0F0F00000000EB
:1001A00055AA55AA55AA55AA000000005050505013
:1001B0005050505055AA55AA55AA55AA0000183CAF
:1001C0003C1800003C7EFFFFFFFF7E3C3E419CACA4
:1001D0009F403F0000008E9526C8F0000000000000
:1001E0000000000000101010100010000024240077
:1001F0000000000000247E24247E240000083E2805
:100200003E0A3E08006264081026460000102810CE
:100210002A443A000008100000000000000408080A
:10022000080804000020101010102000000014081E
:100230003E081400000008083E0808000000000006
:1002400000080810000000003E0000000000000050
:10025000001818000000020408102000003C464A64
:1002600052623C000018280808083E00003C420288
:100270003C407E00003C420C02423C000008182832
:10028000487E0800007E407C02423C00003C407CEE
:1002900042423C00007E020408101000003C423C38
:1002A00042423C00003C42423E023C000000001042
:1002B00000001000000010000010102000000408D2
:1002C000100804000000003E003E0000000010087E
:1002D00004081000003C420408000800003C4A5694
:1002E0005E403C00003C42427E424200007C427C38
:1002F00042427C00003C424040423C000078444284
:1003000042447800007E407C40407E00007E407C7D
:1003100040404000003C42404E423C000042427E91
:1003200042424200003E080808083E000002020265
:1003300042423C0000444870484442000040404073
:1003400040407E000042665A4242420000426252F1
:100350004A464200003C424242423C00007C42424B
:100360007C404000003C4242524A3C00007C4242F9
:100370007C444200003C403C02423C0000FE101025
:10038000101010000042424242423C0000424242F1
:100390004224180000424242425A240000422418DB
:1003A000182442000082442810101000007E040827
:1003B00010207E00000E080808080E0000004020F3
:1003C0001008040000701010101070000010385455
:1003D0001010100000000000000000FF001C227838
:1003E00020207E00000038043C443C000020203CDB
:1003F00022223C0000001C2020201C000004043CA1
:1004000044443C000000384478403C00000C101884
:100410001010100000003C44443C04380040407878
:100420004444440000100030101038000004000460
:100430000404241800202830302824000010101054
:1004400010100C000000685454545400000078440C
:1004500044444400000038444444380000007844D8
:100460004478404000003C44443C040600001C200A
:100470002020200000003840380478000010381098
:1004800010100C0000004444444438000000444470
:100490002828100000004454545428000000442828
:1004A0001028440000004444443C043800007C0808
:1004B00010207C00000E083008080E000008080814
:1004C000080808000070100C1010700000142800BC
:1004D000000000003C4299A1A199423C2300100574
:1004E0000520202020202020202020200520202042
:1004F0002020202020202084848406078484848473
:1005000084848406848484840784848484848484A6
:10051000A02020159500A00115A0A0011595A020F0
:10052000159500A00115A0A001A020201595A020E0
:10053000A0159520A01595A0201595A020A0159593
:1005400020A0A02020159502A0A0159520A015950B
:1005500002A0159502A003159520A02020202020A0
:100560002020A0202020202020202020202020200B
:1005700020202020202020202020A0032020202018
:10058000202020202020202020202020200D200A94
:100590000007090B087A7978777A7675746C736B33
:1005A0006A697368673D29CD28242FCD2A2B3039FD
:1005B000C3383736C37A7271707A6F6E6D66736541
:1005C0006463736261223BAB3A212CDE2E2D3534FD
:1005D00000333231000A200A007F090B085A5958AB
:1005E000575A5655544C534B4A49534847265D0079
:1005F0005B605C005E3E3C3900383736005A525131
:10060000505A4F4E4D4653454443534241277B0079
:100610007D3F25007F7E35340033407C000F070B83
:10062000030D0509010E060A020C0408000011243E
:100630001FBECFEFD4E0DEBFCDBF11E0A0E0B1E040
:10064000EEEDF2E302C005900D92A830B107D9F7A4
:1006500013E0A8E0B1E001C01D92AD3FB107E1F7A2
:100660000E9490080C94B2120C9400000895FC01B2
:100670000196E491EE23D9F7089583E883BD83E3DF
:100680008093B0008AE08093B1001092B2008FE9AD
:100690008093B3008BE08093B4001092800022E03E
:1006A0002093810010928500109284008BE090E0EE
:1006B000909389008093880020936F0050988AB1AE
:1006C0008A608AB98BB1857F8BB988E080930301FA
:1006D000E4ECF0E01182108280EC8093C200109272
:1006E000C10081E090E091838083789413BC0895E9
:1006F0001F920F920FB60F9211242F938F939F93F7
:1007000080910301873069F50E94DF1182E08093B8
:100710006E0080910401909105018E569340D0F0B7
:10072000809188009091890081519D4D909389001E
:100730008093880088E08093030180911301909159
:100740001401019690931401809313010E944412A6
:100750000A1C94C0809188009091890081579F4F16
:1007600068C0833009F43FC0843028F48130F9F048
:10077000823060F50AC0863009F463C0883009F41D
:1007800071C0843009F07AC040C08FE48093B30018
:1007900085E08093B4008091880090918900845115
:1007A0009E4F909389008093880081E047C089E440
:1007B0008093B4008091880090918900805C9E4F66
:1007C000909389008093880082E038C010926E0078
:1007D0008091880090918900CE96909389008093B3
:1007E000880083E02BC082E080936E0085E08093D8
:1007F000B40080918800909189008E559E4F90930F
:1008000089008093880084E019C08FE98093B30049
:100810008BE08093B40086E191E090930501809392
:100820000401109206018091880090918900805502
:100830009D4D909389008093880086E0809303010A
:100840001DC0809188009091890041969093890005
:100850008093880010926E0087E080930301789463
:1008600088950CC080918800909189008C569F4F8C
:100870009093890080938800109203019F918F913B
:100880002F910F900FBE0F901F9018952CED30E018
:10089000AEE6B3E005C0F90184918D932F5F3F4F21
:1008A000F3E0AE3EBF07B8F3089529E1629F9001DF
:1008B0001124280F311D2A5E3E4F3093EF03209301
:1008C000EE038093F003609315010895E6E1F1E0F3
:1008D000818D819383E0E535F807D0F302C08193E1
:1008E00001C080E293E0EE36F907C8F308951F9344
:1008F000182F873041F08D3011F51092F003809160
:1009000015018F5F16C0E091EE03F091EF0380E2D6
:1009100080838091F003882321F081508093F0033D
:100920000DC088E18093F00380911501181624F41E
:1009300081508093150102C01092150110E0809142
:10094000F003893168F01092F003809115018F5FF8
:1009500005C00E94660480911501815080931501A5
:10096000609115016831A8F78091F0030E94550449
:10097000112371F0E091EE03F091EF031193F093E6
:10098000EF03E093EE038091F0038F5F8093F00319
:100990001F910895CF93DF93EC0103C021960E942D
:1009A000770488818823D1F7DF91CF910895EF9262
:1009B000FF921F93CF93DF93EC0180E30E947704B3
:1009C00088E70E947704CE018070907F892B11F018
:1009D00010E01EC034E0CC0FDD1F3A95E1F7CE01E8
:1009E0008070907F892B11F011E012C024E0CC0FB1
:1009F000DD1F2A95E1F7CE018070907F892B39F4B5
:100A000094E0CC0FDD1F9A95E1F713E001C012E0EE
:100A10007E019F2D92959F70892F805D8A330CF007
:100A2000895D0E94770484E0CC0FDD1F8A95E1F791
:100A30001F5F143069F780E20E947704DF91CF9145
:100A40001F91FF90EF90089580E060E00E945504B0
:100A500080E090E020E2E091EE03F091EF0321933B
:100A6000F093EF03E093EE03019632E088359307AD
:100A700091F780E060E00E9455040895282F8233AA
:100A800008F04DC0603308F04AC0862F869599E182
:100A9000899FF0011124822F8695E80FF11DEA5EEF
:100AA000FE4F60FD02C052E001C058E020FD5695A7
:100AB000F19902C030E001C0352FF09902C040E04A
:100AC00001C0452F9081903A31F0892F887780318D
:100AD00011F020E006C0292F277827FF02C08FE8F9
:100AE0002827852F80958323942F932B9095982BDF
:100AF0009223309535233423932B4523209542238D
:100B0000942B93FF02C08FE89827292F205F822F14
:100B100090E087709070892B09F4205F20830895FE
:100B200098B1811180E19F7E892B88B9089590E06A
:100B300044EF51E009C024EF31E0FA013197F1F7B9
:100B400021503040D1F79F5F9817A8F3089594E1A2
:100B5000899F802D11240E9497050895EF92FF929E
:100B60000F931F9320910801309109012F5F3F4F90
:100B70004BE450E0249F7001259FF00C349FF00C53
:100B80001124F0920901E092080100E010E09C01BC
:100B900040E050E0C801B7010E9471129B01AC0116
:100BA0009A0144275527C9011F910F91FF90EF909B
:100BB000089584B1817C8E6284B985B1817C866020
:100BC00085B98DB581608DBD80E58CBD08958EBDE4
:100BD0000DB407FEFDCF089580E00E94E7058EB5B5
:100BE0000895299881E00E94E70581E40E94E705C5
:100BF000299A0895299885E00E94E7050E94EC054E
:100C0000299A0895FF920F931F93182F092FF62EFC
:100C1000299882E00E94E705802F0E94E705812F36
:100C20000E94E7058F2D0E94E705299A1F910F91D9
:100C3000FF900895FF920F931F93182F092FF62E00
:100C4000299882E00E94E705802F0E94E705812F06
:100C50000E94E7058F2D0E94E7051F910F91FF90DD
:100C600008950F931F938C01299883E00E94E70554
:100C7000812F0E94E705802F0E94E7050E94EC0566
:100C8000299A1F910F9108950F931F938C01299812
:100C900083E00E94E705812F0E94E705802F0E94D4
:100CA000E7050E94EC051F910F9108952A9885E0B1
:100CB0000E94E7050E94EC052A9A08950E945606B4
:100CC00080FDFCCF08952A9886E00E94E7052A9AC5
:100CD00008950F931F938C010E9463062A9888ED54
:100CE0000E94E705812F0E94E705802F0E94E705FB
:100CF00080E00E94E7052A9A0E945E061F910F91EC
:100D000008950F931F93CF93DF938C01EB012A98E3
:100D100083E00E94E705812F0E94E705802F0E9453
:100D2000E70580E00E94E70500E010E00E94EC0586
:100D300089930F5F1F4F81E000301807B9F72A9A97
:100D4000DF91CF911F910F9108950F931F93CF9330
:100D5000DF938C01EB010E9463062A9882E00E94D7
:100D6000E705812F0E94E705802F0E94E70580E0BC
:100D70000E94E70500E010E089910E94E7050F5FFF
:100D80001F4F81E000301807B9F72A9A0E945E06CB
:100D9000DF91CF911F910F9108950F931F932A9880
:100DA0008FE90E94E7050E94EC0590E08F379105DE
:100DB00019F40E94EC0590E0C79719F02FEF3FEF70
:100DC0000AC00E94EC05182F00E00E94EC05282FB5
:100DD00030E0202B312B2A9AC9011F910F910895E1
:100DE000E8E6F5E224913196E491922F80E02E2FEF
:100DF00030E0282B392BC9010895299A8CB58F7BB7
:100E00008CBD20918400309185002F5F3F4F8DB5C0
:100E10008EB58091840090918500A901481B590BE3
:100E200057FFF5CF8CB580648CBD0895FC0197FD0C
:100E300005C0FF71E859FA4D849108958091F3033C
:100E40009091F4033196F093F403E093F303319718
:100E5000E817F90729F40DB407FEFDCF8EB51CC0C5
:100E6000299A8CB58F7B8CBD2091840030918500B0
:100E70002F5F3F4F8DB58EB5809184009091850096
:100E8000A901481B590B57FFF5CF8CB580648CBD69
:100E9000CF019F770E9444061EBC08950F931F93B5
:100EA000CF93DF93FC01EB018A014115510559F104
:100EB000299A8CB58F7B8CBD209184003091850060
:100EC0002F5F3F4F8DB58EB5809184009091850046
:100ED000A901481B590B57FFF5CF8CB580648CBD19
:100EE000CF019F7768810E941A0603C088810E9403
:100EF000E70501501040219601151105B9F7109230
:100F0000F4031092F303DF91CF911F910F91089595
:100F10000E94240508951F93CF93DF93CEEDD4E074
:100F20000E94240518E080E0612F0E94550480E0B3
:100F300090E0FE01E80FF91F2491E091EE03F0919B
:100F4000EF032193F093EF03E093EE0301968931D1
:100F5000910579F769961F5F1F3029F720911301DA
:100F6000309114012C593F4F80911301909114013D
:100F700028173907C9F7DF91CF911F910895EF9294
:100F8000FF920F931F93CF93DF937C018B01EA01B4
:100F9000C7010E9416078093F1031092F203089490
:100FA000E11CF11CC80161EF73E041E050E00E94D8
:100FB0004E070F5F1F4F219759F7DF91CF911F9178
:100FC0000F91FF90EF900895AF92BF92CF92DF9272
:100FD000EF92FF920F931F93DF93CF93CDB7DEB7BE
:100FE0002A970FB6F894DEBF0FBECDBF8C010E94CA
:100FF0001607E82EC80101960E941607F82EC801B0
:1010000002960E9416078C83C80103960E94160759
:101010008B83C80104960E9416078E83C80105962B
:101020000E9416078D83C80106960E941607A82EF7
:10103000C80107960E941607B82EC80108960E949C
:101040001607C82EC80109960E941607D82E0E94BE
:10105000FD06EE2DF0E0F09480818F2180830D81DC
:101060001E81EB80FC8007C0F70181917F010E9407
:10107000E7050150104001151105B1F7A886BF82A0
:10108000CA86D98609851A85EF80F88407C00E9430
:10109000EC05F70181937F01015010400115110506
:1010A000B1F72A960FB6F894DEBF0FBECDBFCF9131
:1010B000DF911F910F91FF90EF90DF90CF90BF9045
:1010C000AF9008950CC0809113019091140174E0C9
:1010D000959587957A95E1F781700E9490050E9419
:1010E0002A0C882381F3089583B7816083BF10920F
:1010F000C10080E187B93D98459A8AB18E7B8AB953
:101100008BB181648BB90E9446040E94F40B0E944B
:10111000D9050E94F1050E943D030E948B070895A6
:101120002F923F924F925F926F927F928F929F92F7
:10113000AF92BF92CF92DF92EF92FF920F931F93E5
:10114000DF93CF93CDB7DEB72E970FB6F894DEBFFF
:101150000FBECDBF0E9474080E9424050E94F006B5
:101160008C011092F4031092F3032DEF33E03E87CD
:101170002D8780E20E947704CC24DD246624772426
:101180004424552407C0CC24CA94DC2C02C0CC24AF
:10119000DD24840148010894811C911CC8010E942F
:1011A0001607182F8B3308F0C7C2812F90E0FC017F
:1011B0003197EA33F10568F7EC5CFF4FEE0FFF1F44
:1011C0000590F491E02D09948D859E8502969E8769
:1011D0008D87FC01D182C08284010F5F1F4FC40143
:1011E0000E941607F82E48010894811C911CC80122
:1011F0000E9416073F2C2224C82EDD24C228D328A3
:10120000C8CF2D853E8522503040FBE3CF16D10458
:1012100040F41C2DED85FE85C080D1803E872D8752
:10122000C4CF8F929F92ED85FE85808191813E870C
:101230002D87460173C174010894E11CF11CC4019F
:101240000E941607182FC7010E941607CD2829F003
:1012500047010894811C911C67C21E831D82882E41
:1012600099242D813E81822A932A5EC2C4010E9464
:101270001607182FC40101960E94160718871F82AF
:10128000882E99242F81388540C00894611C711CD8
:1012900074010894E11CF11CC4010E941607182F68
:1012A000C7010E941607641475044CF41C831B824A
:1012B000882E99248B819C81882A992A6ACF47019C
:1012C0000894811C911C7F906F905F904F9061CF2C
:1012D0006C0C7D1CED85FE85C080D1803297FE8729
:1012E000ED8774010894E11CF11CC4010E941607EB
:1012F000182FC7010E941607641475044CF41A8352
:101300001982882E992429813A81822A932A41CFF1
:1013100047010894811C911C7F906F905F904F90C3
:1013200038CF4F925F926F927F92ED85FE8540801D
:10133000518032979F01225030403E872D873601E1
:1013400020813181C901EAC0ED85FE85608171810E
:1013500080E090E0960140E050E00E947112ED853F
:10136000FE8571836083BC01882799276B0111CFAB
:10137000ED85FE8580819181A0E0B0E0DC019927B8
:101380008827F290E290FE87ED8700E010E0E82ADF
:10139000F92A0A2B1B2B5601CC24DD24C801B701E6
:1013A000A60195010E949012ED85FE8571836083F0
:1013B000C801B701A60195010E94901280C1ED8578
:1013C000FE85808191813297FE87ED87C822D922E0
:1013D000E0CEED85FE85808191813297FE87ED8795
:1013E000C82AD92AD6CEED85FE8580819181329793
:1013F000FE87ED87C826D926CCCE3201CACE2D85F0
:101400003E852E5F3F4F3E872D87F901D182C082F6
:10141000DF90CF90BECE2D853E852E5F3F4F3E871D
:101420002D87F901D182C082DF90CF90B2CE2D8579
:101430003E852E5F3F4F3E872D87F901D182C082C6
:10144000DF90CF90CF92DF92A4CECF92DF926CC18B
:10145000CD2809F498CE9BCED7FE99CE94CEED85BB
:10146000FE85808191813297FE87ED87C80ED91E57
:1014700090CE2D853E8522503040C601A0E0B0E0E0
:10148000DC0199278827ED85FE85E080F18000E06A
:1014900010E0E82AF92A0A2B1B2BF901208131815F
:1014A00040E050E0A9013327222792918291FE87E4
:1014B000ED87A0E0B0E0822B932BA42BB52B8E0DF3
:1014C0009F1DA01FB11F91838083CD01AA27BB2739
:1014D00025C0D094C194D108D3945BCEED85FE8510
:1014E00080819181909581959F4F91838083C09455
:1014F000D094892B09F04DCE0894C11CD11C49CE43
:10150000ED85FE85808191813296FE87ED8704C04E
:10151000ED85FE8580819181D182C0826C0139CEBA
:101520002D853E852E5F3F4F3E872D87F901C08276
:10153000D1822FCEC6010E941607182FC601019630
:101540000E9416071A871986C82EDD2429853A8538
:10155000C22AD32A1ECEC6010E9416076AC0C6013F
:101560006D857E8541E050E00E944E07ED85FE8549
:10157000D290C290CF0102979E878D870ACE0D85AB
:101580001E85F801908181818093F1039093F2038D
:10159000C60161EF73E042E050E00E944E07ACC02C
:1015A0008D859E8502969E878D87FC01D182C082A3
:1015B0006301EFCD2D853E852E5F3F4F3E872D8702
:1015C000F901D182C0826201E4CDF601808131C08F
:1015D000ED85FE858081F601808399C0F601C0808B
:1015E000D180D7CDED85FE8580819181F6019183F3
:1015F00080838DC08C2D0E94770496C0C6010E9406
:10160000D70492C02D853E852E5F3F4F3E872D87A4
:10161000F901D182C0820E942A0C0BC02D853E8523
:101620002E5F3F4F3E872D87F901D182C0820E94F5
:10163000310CC82EDD24ADCDED85FE8580816C2D6D
:101640000E94550464C09F908F90A3CD8D859E8588
:1016500002969E878D87FC01D182C082F6E1CF2E53
:10166000F1E0DF2E96CD2D853E852E5F3F4F3E87E4
:101670002D87F901D182C082E3E1CE2EE1E0DE2E9A
:1016800088CD0E94240585CDED85FE8580819181E0
:101690003297FE87ED879C0102C036952795CA9444
:1016A000E2F70DC0ED85FE85808191813297FE873E
:1016B000ED879C0102C0220F331FCA94E2F7690133
:1016C00068CDC6010E94920F2FC0C6010E94930EE2
:1016D00080E09EE966E171E040E052E00E944E0742
:1016E00023C00D851E85F8016081718192918291E0
:1016F0008F01A6010E94BF07F801D290C2909F01FE
:101700000BC0ED85FE8580816C2D0E943E05ED8528
:10171000FE85D290C2909F01225030403E872D8797
:1017200038CDC6010E94E407ED85FE85C080D180DA
:101730003297FE87ED872DCD0894811C911C8F92E6
:101740009F92089481089108C4010E941607882E70
:1017500099241C871B862B853C85D7CD2E960FB6EA
:10176000F894DEBF0FBECDBFCF91DF911F910F91D7
:10177000FF90EF90DF90CF90BF90AF909F908F90B1
:101780007F906F905F904F903F902F900895282FFB
:1017900030E0C901019782239323892B19F049E096
:1017A00050E016C0822F807F49F0822F807C19F490
:1017B00045E050E00DC047E050E00AC0C9018C7020
:1017C0009070892B19F441E050E002C043E050E0F2
:1017D000042E02C0359527950A94E2F741505040F7
:1017E000240F351FC901089587B1807F87B988B15B
:1017F0008F6088B957985F9A2098289A0895909199
:101800001101992371F4E6B1F0E0EF70F070E35E3E
:10181000F94FE491E093120157985F9A209A289823
:1018200012C0E6B1F0E0EF70F070E35EF94FE491C2
:10183000809112018295807F8E2B809312012098D7
:10184000289A579A5F989F5F9170909311018091A9
:101850001201089580910A01882311F010920A0163
:1018600008951F93E091EE03F091EF03808180587B
:1018700080830E942A0C182F8823D9F3E091EE036D
:10188000F091EF03808180588083809111010E9444
:101890009005812F1F910895CF92DF92EF92FF92D2
:1018A0000F931F93182FF62ED42EC22E8DE00E9478
:1018B0007704812F90E00E94D70480E20E94770491
:1018C0008F2D90E00E94D70480E20E9477048D2D36
:1018D00090E00E94D70480E20E9477048C2D90E073
:1018E0000E94D70480E20E947704802F90E00E943B
:1018F000D70480E20E9477048E2D90E00E94D704E6
:1019000080E20E9477041F910F91FF90EF90DF908B
:10191000CF900895CF92DF92EF92FF920F931F9393
:10192000CF93DF93E090EE03F090EF03C090F003CD
:10193000D090150106E1C4E0D0E08BE0602F0E945A
:101940005504CE018450182F06C0EB50FC4F808107
:101950000E9477041F5FE12FF0E0EC17FD07ACF366
:101960000F5F2496083149F7F092EF03E092EE03FF
:10197000C092F003D0921501DF91CF911F910F918A
:10198000FF90EF90DF90CF900895BF92CF92DF92BB
:10199000EF92FF920F931F93CF93DF93E090EE03AC
:1019A000F090EF03C090F003D090150106E1C4E081
:1019B000D0E099E0B92E8BE0602F0E945504CE0153
:1019C0008450182F23C0E0910C01F0E031968091F3
:1019D0000D018B9DC0011124E80FF91F83E0EE0F6C
:1019E000FF1F8A95E1F7EA1BFB0BEC56FA4F849137
:1019F0008058E091EE03F091EF03E081E81719F0D1
:101A0000AB50BC4FEC930E9477041F5FA12FB0E056
:101A1000AC17BD07C4F20F5F2496083161F6F0924F
:101A2000EF03E092EE03C092F003D0921501DF9134
:101A3000CF911F910F91FF90EF90DF90CF90BF90CB
:101A4000089580910E0190910F018130910511F060
:101A5000039769F480910001882321F081508093DD
:101A6000000108958FEF809300010E94C50C089536
:101A70000F931F93082F80910B01081719F40E94F0
:101A8000210DC0C08091000118168CF080910E01CC
:101A900090910F018130910511F0039741F40E945C
:101AA0008A0C002321F410920F0110920E0188E09D
:101AB0008093000120910E0130910F0121303105FA
:101AC000C9F02130310548F02230310509F451C008
:101AD0002330310509F094C05CC080910B01801760
:101AE00008F08EC0802F0E94C70B80930C0181E00C
:101AF00090E07DC080910B0110910C01801710F5D2
:101B0000012E02C0220F331F0A94E2F7802F821B9E
:101B10000E94C70BE12FF0E0319620910D0149E0C2
:101B2000249F90011124E20FF31F33E0EE0FFF1FFB
:101B30003A95E1F7E80FF91FE357FA4FE491E09384
:101B40000A0151C090910D01133029F481E0891BE5
:101B500080930D0151C0E8E49E9FF0011124E10F34
:101B6000F11DE357FA4FE491E0930A0110920D0141
:101B700043C0002309F440C080910B01081708F00E
:101B80003FC0802F0E94C70B80930C0183E090E040
:101B90002EC080910B01801778F510910C0181E027
:101BA00090E0012E02C0880F991F0A94E2F7202FBF
:101BB000281B822F0E94C70BE12FF0E03196209165
:101BC0000D0149E0249F90011124E20FF31F23E04F
:101BD000EE0FFF1F2A95E1F7E80FF91FE357FA4FC1
:101BE000849180930A0110920D0182E090E090931D
:101BF0000F0180930E0104C010920F0110920E018C
:101C000000930B011F910F9108950E94FF0B982FD5
:101C100080911101882351F480911001981721F4CB
:101C2000892F0E94380D089590931001089599E12D
:101C30006902B0011124992787FD9095680F791FDB
:101C40006A5E7E4FCB0108950F931F93CF93DF936E
:101C5000EC01062F60C00A3001F10B3040F408306F
:101C600049F1093008F5073009F04EC045C00D3084
:101C700049F10E3020F40B3009F046C006C0033C99
:101C800019F10D3C09F040C032C08981815089832F
:101C900087FF44C083E1898341C089818F5F898345
:101CA0008431E4F119823AC088818F5F8883893159
:101CB000ACF108C088818150888387FF2FC088E1FC
:101CC0008883E3CF1882E9CF1A81812F6B810E942C
:101CD000170EFC0100811F5F1A831931E4F01A828C
:101CE0008B818F5F8B838431B4F01B8214C0888119
:101CF0008A8389818B8312C0888169810E94170E33
:101D0000FC0180E28083D6CF888169810E94170E12
:101D1000FC010083C9CF002309F09DCFDF91CF9153
:101D20001F910F910895EF92FF920F931F93CF93FE
:101D3000DF937C018FEF9FEF66E171E00E948F10CF
:101D4000EC01C70166E171E00E9442118C018C1721
:101D50009D0711F40E94240581E065E10E9455046D
:101D6000C7010E94D70480E40E947704C8010E9442
:101D7000D70481E20E947704CE010E94D704CE01ED
:101D8000DF91CF911F910F91FF90EF90089546E161
:101D900051E00E941D110895AF92BF92CF92DF9241
:101DA000EF92FF920F93DF93CF9300D0CDB7DEB7C2
:101DB0007C016B015A0180E065E10E94170E9A8355
:101DC00089838FE3E981FA8180830E94310C082F97
:101DD000E981FA818083873509F44EC0883550F453
:101DE000853409F44FC0843509F452C0873009F0B6
:101DF00088C024C08A3509F448C0893621F0883566
:101E000009F07FC03DC080E0F50161810E94170E9E
:101E10007C0188E162E10E94170EFC0103C0808111
:101E2000818F3197EE15FF05D0F7C701499620E263
:101E300001C02193E817F907E0F367C080E0F501DE
:101E400061810E94170E7C0180E063E10E94170E01
:101E50009C0104C0F701818D81937F01E216F30696
:101E6000C8F3C901499620E203C0F70121937F011D
:101E7000E816F906D0F349C0C701B6010E94C70EA3
:101E80000BE143C00E945E11FBCF0E9424053DC0C0
:101E90000E94FD060E942405EE24FF2417C080E066
:101EA00065E10E94550486E191E00E941F108E0DAD
:101EB0009F1D0E94D704C701409666E171E00E9411
:101EC00081060E94310C0894E11CF11C0E946610EE
:101ED00096958795E816F90610F31092F403109280
:101EE000F30313C0F501808161810E94170EFC018C
:101EF0008081880F880F880F802B80830E94310C8F
:101F0000082F0053083070F300E0802F0F900F90DF
:101F1000CF91DF910F91FF90EF90DF90CF90BF9026
:101F2000AF9008952F923F924F925F926F927F925F
:101F30008F929F92AF92BF92CF92DF92EF92FF92D9
:101F40000F931F93DF93CF9300D000D0CDB7DEB7B0
:101F50004C0119821A828FEF8B830E942405C401E1
:101F60000E94930E2C0133E8632E1E010894211C5D
:101F7000311CE0901301F090140189816A810E9464
:101F8000170E5C018B816C810E94170E6C01F501AC
:101F90007080FC0100811FC0809113019091140199
:101FA0009701281B390B37FF16C0F5019081905817
:101FB00090838B818F3F39F097FF03C0F6016082D9
:101FC00002C0F6010083E0901301F090140122E3B7
:101FD00030E0E20EF31E0E942A0C182F8823E1F253
:101FE000F5017082F60100838B3A39F4C401B20125
:101FF000A1010E94CC0E182F04C0C101612F0E94C4
:10200000240E1B3109F0B5CF80E064E10E94550435
:102010000F900F900F900F90CF91DF911F910F9124
:10202000FF90EF90DF90CF90BF90AF909F908F90F8
:102030007F906F905F904F903F902F9008950F93F7
:102040001F938C010E94FD0680E090E0B8010E9481
:102050008106F801808191818F5F9F4F19F020E008
:1020600030E002C020E130E0C9011F910F910895D6
:102070000E94CD0620E28431920769F020E383318B
:10208000920749F08351904219F420E031E005C0F5
:1020900020E030E002C020E130E0C90108950E9454
:1020A000CD0620E28431920769F020E38331920764
:1020B00049F08351904219F420E031E005C020E05E
:1020C00030E002C020E830E0C90108950F931F936B
:1020D000CF93DF930E94CD0620E28431920769F00E
:1020E00020E38331920719F08351904219F4C0E044
:1020F000D0E405C0C0E0D0E002C0C0E0D0E80E945B
:102100004F108C010E9438109E01201B310B281BA0
:10211000390BC901DF91CF911F910F9108956F92F3
:102120007F928F929F92BF92CF92DF92EF92FF9217
:102130000F931F93CF93DF933C016B010E94FD0629
:102140000E944F10EC01C6010E941F104C01EE24AA
:10215000EA94FE2CBB2423C0C801880D991DB6014A
:102160000E94810680E0E82FF0E0EE0FFF1FEC0DEB
:10217000FD1D0190F081E02DE615F70509F47E01C3
:10218000EF5FFF4F39F48FEFE8168FEFF80691F00D
:10219000E70110C022968F5F803829F7B3940B2D8A
:1021A00010E00E9466109695879508171907A0F20F
:1021B000CEEFDFEFCE01DF91CF911F910F91FF9016
:1021C000EF90DF90CF90BF909F908F907F906F9017
:1021D0000895CF92DF92EF92FF920F931F93CF93C8
:1021E000DF936C018B01CB010E941F107C018FEFEC
:1021F0009FEFB8010E948F10EC018FEFCE3FD80700
:1022000091F00E944F10C81BD90BFE01EE7FF070B9
:10221000E00FF11FD182C0828D2F99278E0D9F1D57
:10222000B8010E94A506CE01DF91CF911F910F91B9
:10223000FF90EF90DF90CF900895CF92DF92EF92D2
:10224000FF920F931F936C017B018A010E94FD0690
:10225000C701B8010E94A506B80160507F4FC701B1
:1022600001960E94A506C601B8010E94E9101092CD
:10227000F4031092F3031F910F91FF90EF90DF9002
:10228000CF900895EF92FF920F931F938B010E94BE
:102290008F107C01B8010E94810600501F4FC701BA
:1022A0000196B8010E9481061092F4031092F30384
:1022B000C7011F910F91FF90EF900895EF92FF9249
:1022C0000F931F93CF93DF930E94CD067C010E9452
:1022D0003810C0E0D0E08C010150104020C083E1F4
:1022E000E81680E2F80681F4209771F0C031D1053C
:1022F00059F0C032D10541F0C034D10529F0CE01EA
:1023000080239123892B51F480E065E10E945504DC
:10231000CE010E94D704CE010E94690660960E94F9
:102320006610C817D907D8F2DF91CF911F910F918E
:10233000FF90EF90089578944F935F93409101013F
:102340004A954093010171F050E240FD51E257BDC2
:1023500050910201089457955093020142E828F4E5
:1023600042EC03C040E045BD42E044BD5F914F9167
:1023700018954F936F9345B54423E9F76093020195
:102380006BE06093010140E247BD42E844BD40E09C
:1023900046BD43E045BD6F914F910895682FE9CF49
:1023A0004F935F935E9A569A442745BD40916E00C5
:1023B000426040936E0078945F914F9108950F9220
:1023C0001F92EF93FF930F9300E0E8E0AF93BF936A
:1023D000CF93DF930093C600E093C100D091060134
:1023E000D7701F9318E1A0910401B091050108E096
:1023F000ED91CE2FEF770E9F0D0EE83030F0ECED23
:10240000F0E0E00DF11DE49106C0EEE6F3E0E00D32
:10241000F11DE08100C0C7FDE095E093C60000001B
:1024200000C000C000C011501AF7D73024F0A093AC
:102430000401B0930501D0910601DF5FD09306013E
:1024400000C0A0E0A093C1001F91DF91CF91BF9188
:10245000AF910F91FF91EF911F900F9008950000A1
:10246000BF93AF931F93A0910401B09105011D91FB
:102470001093C600A0930401B0930501115000F41D
:102480001F91AF91BF911895CF93DF93CDB7DEB772
:10249000EF93FF932F933F934F935F936F937F93AC
:1024A0008F939F93AF93BF93FB81EC81EE0FFF1F40
:1024B00025913591F695E795EC83FB83F901F69527
:1024C000E7950995BF91AF919F918F917F916F9102
:1024D0005F914F913F912F91FF91EF91DF91CF91BC
:1024E0000895629FD001739FF001829FE00DF11D5E
:1024F000649FE00DF11D929FF00D839FF00D749F7E
:10250000F00D659FF00D9927729FB00DE11DF91F29
:10251000639FB00DE11DF91FBD01CF011124089586
:10252000A1E21A2EAA1BBB1BFD010DC0AA1FBB1FD7
:10253000EE1FFF1FA217B307E407F50720F0A21B49
:10254000B30BE40BF50B661F771F881F991F1A94B6
:1025500069F760957095809590959B01AC01BD01E0
:08256000CF010895F894FFCFAC
:1025680049ED836C697400004002018765786563F2
:102578007574654002400B02866272616E63684042
:102588000B40180587306272616E636840184024FA
:102598000486286C6F6F7029402440310687282BE9
:1025A8006C6F6F70294031403D078428646F294063
:1025B8003D404A088169404A405421856C656176EE
:1025C800654054405B0F83616E64405B40660C82DB
:1025D8006F724066406F0D83786F72406F40770E60
:1025E800823E3E4077408032823C3C408040883387
:1025F800823B73408840902E8628646F657329401B
:102608009040981082723E409840A411823E7240D9
:10261800A440AC13817240AC40B41282303D40B447
:1026280040BB1482303C40BB40C315812B40C340A3
:10263800CB1682642B40CB40D217856D696E7573BB
:1026480040D240DA1886646D696E757340DA40E5E9
:1026580019846F76657240E540F11A8464726F7070
:1026680040F140FB03847377617040FB41051B8395
:102678006475704105410F1C8140410F41181D824E
:1026880063404118411F1E8121411F412720826359
:10269800214127412E1F82752A412E413609827514
:1026A8002F4136413E0B84656D6974413E41462891
:1026B800836B6579414641502C85696E6B6579411C
:1026C8005041592B84706C6F744159416437826949
:1026D800274164416E2283696340416E41762483B9
:1026E8006963214176417F25826940417F4188267F
:1026F8008269214188419027847672616D419041B9
:10270800982F85636C6F636B419841A23082617426
:1027180041A241AD2D83636C7341AD41B531842E27
:1027280068657841B541BE2A846564697441BE41D3
:10273800C834846C69737441C841D2358574726138
:10274800636541D241DC3902637241DC41E7010033
:102758000D282E05636F756E7441E741F31C441113
:102768001B1E2E047479706541F3420344AF044282
:102778001F1A161B08211E002806421505422003B1
:102788002E05737061636542034221432E282E068D
:102798007370616365734221422F43054A5444AF05
:1027A80004424B430508422B0642462E04282E229B
:1027B80029422F424C1241FD1C4411111613420CA0
:1027C8002E422E22424C426101002243B61D044291
:1027D800814621425547B444291E441144370542D5
:1027E8008947B4442941FD420C2E05636D6F766517
:1027F8004261428A4305081A21161E1A21161F062D
:10280800429703032E0466696C6C428A42A51B1327
:102818001A1F1C441111430F445F42942E05657220
:1028280061736542A542BD430542AE2E06626C61E6
:102838006E6B7342BD42CC432E42AE2E037661725C
:1028480042CC42DC466444424682102E05636F6ED9
:10285800737442DC42EC466444424682101D2E01E9
:102868003042EC42FF42FC0000013142FF43094282
:10287800FC000101324309431342FC0002013343C7
:1028880013431D42FC000302626C431D432742FCB4
:1028980000208020001F00018080800C800C4D6883
:1028A800037469624327434042FC800005776964EA
:1028B80074684340434C42FC8002077761726E693A
:1028C8006E67434C435A42FC8004026470435A4387
:1028D8006A42FC800607636F6E74657874436A43C6
:1028E8007542FC80080763757272656E74437543A0
:1028F8008542FC800A02696E4385439542FC80123A
:10290800036F7574439543A042FC8014057374618A
:10291800746543A043AC42FC80160462617365434E
:10292800AC43BA42FC80180364706C43BA43C74294
:10293800FC801A03666C6443C743D342FC801C03C3
:10294800686C6443D343DF42FC801E022B2143DFC3
:1029580043EB1B1A1D161B202E06746F67676C65E8
:1029680043EB43F91A1E0E1B1F2E02312B43F94469
:102978000A430F162E02322B440A44154319162E09
:1029880004686572654415442043711D2E05616C09
:102998006C6F744420442D437143F22E012C442D56
:1029A800443C442920431944372E02632C443C44B8
:1029B8004A44291F430F44372E012D444A445918CD
:1029C800162E013D44594462445F142E013C446272
:1029D800446C445F15002E00013E446C44781B444F
:1029E800722E03726F7444784482131B111B2E04D9
:1029F800326475704482448F1A1A2E036E697044CB
:102A08008F449B1B032E043F647570449B44A61C93
:102A18000444B41C2E02753C44A644B544980E15D3
:102A28000444C71B03152E445F152E066C6174659C
:102A3800737444B544CB43911D1D2E077066613EE7
:102A480063666144CB44DB1C45001E0100800C0416
:102A580044F31E2E077066613E6E666144DB44F4E3
:102A68004319445F1D2E076E66613E6C666144F42F
:102A780045061C1E01001F0C1644112E076E6661C8
:102A88003E7066614506451C4512010004162E037A
:102A980069642E451C452F1C44111B1E01001F0C88
:102AA800420C422B2E076D657373616765452F4590
:102AB800454255064572722023204CD12E05657279
:102AC800726F724545455D43661D1504457049BDE5
:102AD800442941FD420C4255023F204551499B067D
:102AE8003F6572726F72455D457F1B04459045676F
:102AF800032E053F636F6D70457F459243B61D14E5
:102B0800010011458A2E053F65786563459245A603
:102B180043B61D010012458A2E063F706169727323
:102B280045A645B9445F010013458A2E413A45B987
:102B380045CC45B04857463E2E413B45CC45D94645
:102B480021002E465046322E09696D6D6564696113
:102B5800746545D945E844D601004044042E0278FE
:102B68002C45E845FE1C01FF000C044612444205B2
:102B7800461444512E07636F6D70696C6545FE46B7
:102B880015459C111C1D4605441C132E415B46151A
:102B9800462C430543B6202E015D462C46380100DD
:102BA8004043B6202E06736D756467654638464502
:102BB80044D601002044042E073C6275696C647396
:102BC8004645465848574650430544422E45646F8B
:102BD80065733E4658466D014682444201001044E2
:102BE800512E1144D64528202E4128466D4689018C
:102BF800002947B42E036865784689469501001078
:102C080043C3202E07646563696D616C469546A4CD
:102C180001000A43C3202E05646967697446A44607
:102C2800B713010030445F0100091A44720446DCFE
:102C3800010007445F1C01000A44720D1C1144BCCA
:102C48002E08286E756D6265722946B746E14411F3
:102C58001C131E43C31D46C104471A1B43C31D0949
:102C680003448A43C31D091743CF1D441104471663
:102C7800430F43CF43F2110546EE03112E066E753E
:102C88006D62657246E1471D43054305448A1C444D
:102C9800111E01002D44681C13445F01FFFF43CF40
:102CA8002046EE1C1E432E445F04475C1C1E010098
:102CB8003A445F4305458A430505473E03110447E7
:102CC80062192E07656E636C6F7365471D47631342
:102CD8001C1C1C1E432E446804478044110547727F
:102CE80044981B445F448A448A1C1E04479B1C1E4C
:102CF80012445F0447A244110547891B445F1C1115
:102D0800032E11031B445F1C44112E04776F726459
:102D1800476347AB43481D439C1D161B476F442917
:102D280001002242D7439C43F21A445F13124429FC
:102D38001F16442944111142942E448A448A1A1EAB
:102D48001A1E445F0447EA03032E448A430F445F74
:102D58001C044801448A430F16448A430F1605474A
:102D6800DE44A344A32E052D66696E6447AB48066E
:102D7800432E47B4442944D61A1E1A1E01002F0CAC
:102D880044680448371A44111A1C44111B1E0100D8
:102D98001F0C47DA04484145121D1C04484B0548DE
:102DA8001844A31C45281B1E01FFFF2E06637265ED
:102DB8006174654806484C481004486A0345004554
:102DC800370100044551422B44291C1C1E43561D43
:102DD8004A421C441144370100200D1A1F44D644AE
:102DE80042444243911D202E495B636F6D70696CAC
:102DF800655D484C48884810144305458A0344E7F4
:102E080046052E476C69746572616C488848A3430F
:102E1800B61D0448BB4621000144422E48646C6933
:102E2800746572616C48A348BC43B61D0448D41B42
:102E380048AF48AF2E0665787065637448BC48D5BE
:102E48001A16131C43051A1F2C1C0100074468049A
:102E58004905031A1A4472044902430F445F0100EA
:102E680007280548E41A1244721A01000D44681430
:102E78000C04491C1C281A1F4411430501000D4469
:102E8800680448E411030303422B2E4048D5492B1C
:102E980001802043482011032E09696E7465727001
:102EA800726574492B4939481004496501007F0C43
:102EB80043B61D447204495F44E746050549474443
:102EC800E702054947472843CF1D44110449744880
:102ED800C90549470348AF054947057175657279C2
:102EE8004939497A43481D01005048E04305439C4D
:102EF800202E0471756974497A4992463241EE4927
:102F080084494743B61D140449B0425503204F4B2A
:102F180005499D0561626F7274499249B346B04193
:102F2800EE42551E4649476E6974696F6E200D7FE3
:102F38006E696368656D616368696E6573203230B8
:102F48003131499B04636F6C6449B349E4014332EE
:102F580001800001000E429449BD04732D3E64496E
:102F6800E449FA1C152E022B2D49FA4A0615044A83
:102F780012182E03642B2D4A064A1315044A2019E9
:102F88002E036162734A134A211C4A0D2E046461A0
:102F980062734A214A2D1C4A1B2E036D696E4A2D05
:102FA8004A3A1A1A447E044A4A1B032E036D617872
:102FB8004A3A4A4C1A1A4472044A5C1B032E026DA0
:102FC8002A4A4C4A5E1A1A0E134A291B4A29091121
:102FD8004A1B2E012A4A5E4A7309032E052A2F6DC1
:102FE8006F644A734A7C134A65114AA02E022A2F3D
:102FF8004A7C4A8D4A861B032E026D2F4A8D4A99B8
:103008001A13134A36124A290B11120E4A0D1B11B4
:103018004A0D1B2E042F6D6F644A994AB4134A0354
:10302800114AA02E012F4AB44AC44ABD1B032E03DD
:103038006D6F644AC44ACF4ABD032E056D2F6D6F6C
:10304800644ACF4ADB134305120B111B130B112ED5
:1030580041274ADB4AF04810144305458A0348AF24
:103068002E046261636B4AF04B0144422E4562654F
:1030780067696E4B014B0D459C4429430F2E4565EE
:103088006E6469664B0D4B1E459C431945C4442923
:103098001B202E447468656E4B1E4B334B282E4202
:1030A800646F4B334B3F46210008442943232E4489
:1030B8006C6F6F704B3F4B4F432345C4462100064E
:1030C8004B0A2E452B6C6F6F704B4F4B6343234558
:1030D800C4462100074B0A2E45756E74696C4B6314
:1030E8004B78430F45C4462100044B0A2E43656EB6
:1030F800644B784B8D4B822E45616761696E4B8DB1
:103108004B98430F45C4462100054B0A2E4672656D
:10311800706561744B984BAD13134BA21111431991
:10312800445F4B282E4269664BAD4BC546210004CF
:1031380044294305444243192E44656C73654BC5C5
:103148004BD9431945C44621000544294305444247
:103158001B43194B2843192E457768696C654BD971
:103168004BF84BCC441C2E04686F6C644BF84C072E
:1031780001FFFF43E743F243E71D1F2E037061641D
:103188004C074C1C4429010044162E023C234C1CBD
:103198004C2B4C2443E7202E02233E4C2B4C380367
:1031A8000343E71D4C241A445F2E047369676E4C71
:1031B800384C4A448A15044C5E01002D4C102E01EF
:1031C800234C4A4C5F43C31D4AE5448A0100091A4F
:1031D8004472044C7901000716010030164C102E79
:1031E8000223734C5F4C804C651A1A0D14044C87EB
:1031F8002E03642E724C804C91131B1A4A364C32A3
:103208004C874C534C3F111A445F423A420C2E02F1
:10321800642E4C914CAF43054C99422B2E022E72D2
:103228004CAF4CBD134A03114C992E012E4CBD4C8A
:10323800CB4A034CB62E013F4CCB4CD61D4CD12E5D
:10324800046C6F61644CD64CE0019E0043482043F7
:1032580005439C20354305019FF41F2E046D6F72B2
:10326800654CE04CFC01EE031C010008321B010018
:1032780008330D262F01023F16447E044D2A42557D
:10328800066D6F72653E3E2C03312E05766C6973B0
:10329800744CFC4D2B3144D64D051C453745121D49
:1032A80044AF14044D382E06666F726765744D2B53
:1032B8004D474810044D650345001C45121D4391B8
:1032C8001D20054D6703032E0370656E4D474D683D
:0632D80001003E252E005E
:0832DE000800000000000000E0
:00000001FF
:000000