:100000000C947C000C9499000C9499000C94A80F0B
:100010000C9499000C9499000C9499000C949900FC
:100020000C9499000C9499000C9499000C94A80DD0
:100030000C9499000C9499000C942B090C94990041
:100040000C9499000C9499000C9499000C949900CC
:100050000C9499000C9499000C9499000C949900BC
:100060000C9499000C949900D2313233D234352D4E
:100070002EDE2C213AAB3B226162736364657366AA
:100080006D6E6F7A7071727AC3363738C339302B20
:100090002ACD2F2428CD293D676873696A6B736C5C
:1000A0007475767A7778797A007C40230034352D20
:1000B0007F00253F7B007D27414253434445534603
:1000C0004D4E4F5A5051525A0036373800393C3E47
:1000D0005E005C605B005D26474853494A4B534CC9
:1000E0005455565A5758595A080B0907000A200DFB
:1000F0000E110F1B0010A08D11241FBECFEFD4E0F6
:10010000DEBFCDBF11E0A0E0B1E0EAECF4E202C056
:1001100005900D92A430B107D9F713E0A4E0B1E047
:1001200001C01D92AB3FB107E1F70E94F40F0C94A0
:1001300063120C9400002A9885E00E9420090E9416
:1001400025092A9A08950E949B0080FDFCCF0895FE
:100150002A9886E00E9420092A9A0895CF93DF9377
:100160002A988FE90E9420090E94250990E08F3784
:10017000910519F40E94250990E08733910559F4FF
:100180000E942509D82F80E0C82F0E94250990E001
:100190008C2B9D2B02C08FEF9FEF2A9ADF91CF917E
:1001A00008950F931F93CF93DF93182F092F0E9469
:1001B000AE009C01207080E22030380719F0C0E2C8
:1001C000D0E002C0C8EDD0E00E94A8002A988C2F91
:1001D0000E942009802F0E942009812F0E9420095F
:1001E00080E00E9420092A9A0E94A300DF91CF910B
:1001F0001F910F910895EF92FF920F931F93CF934A
:10020000DF930F92CDB7DEB7E82E8B012A9883E0FB
:1002100099830E9420099981892F0E9420098E2D9F
:100220000E94200980E00E942009E12C81E0F82E44
:100230000E942509F80181938F010894E108F108D3
:10024000E114F104A9F72A9A0F90DF91CF911F9141
:100250000F91FF90EF900895EF92FF920F931F93ED
:10026000CF93DF930F92CDB7DEB7E82E8B01998342
:100270000E94A8002A9882E00E9420099981892F73
:100280000E9420098E2D0E94200980E00E942009F2
:10029000E12C91E0F92EF80181918F010E94200953
:1002A0000894E108F108E114F104A9F72A9A0E94E0
:1002B000A3000F90DF91CF911F910F91FF90EF90CE
:1002C000089583958894982F82E092FF80E291FDB3
:1002D00002C0880F880F90FF880F90E0891F089553
:1002E00098E0890283E692E0800D911D1124089523
:1002F000887F962F9770890F99278851914174E1D3
:10030000687F679F800D911D11240895695F687F44
:10031000795F769576957695679F9C01CA01A001D5
:10032000DFDFBC01C90111240C941E0A90910F015A
:1003300090931B01890F80931C0190910D01909364
:100340000E01690F60931D010895E42D1C15E8F45A
:100350002DB527FFFDCF2EB52EBD2D9321961395DC
:100360001C15B0F31F1500F500C000000EC02DB520
:100370002EB52EBD24233885369D15222125399191
:10038000369D052220252D9313951E1780F3E42D0D
:10039000E760E3951E17A8F4EF1508F0EF2D1F1581
:1003A00018F4C30DD51DE3CFE760E3952DB527FF06
:1003B000FDCF2EB52EBD2D93219613951E17B0F3AC
:1003C0004F10C319D5095A2D4F2F1850085008F057
:1003D000BCCF093F20F000275B214829B6CF089504
:1003E000FF91EF912F923F924F925F926F927F9287
:1003F0008F929F92AF92BF92CF92DF920F931F93F3
:10040000CF93DF93EF92FF920994FF91EF91FF90CA
:10041000EF90DF91CF911F910F91DF90CF90BF9020
:10042000AF909F908F907F906F905F904F903F9094
:100430002F90112409945524D0900F01ED2C209178
:100440001B01D21608F4D22E9D2D987FDE2DD87F69
:100450009D1BCE2DC77009F48395C0900D01FC2C17
:100460003324E60EE0920F01695F687F762E3F2D00
:100470003770432E19F028EF260F322E3C2D209195
:100480000E01C21608F4C22ECC2DC87F1C2F410EBF
:10049000DF2DD87FCD1B4112C850C595C595C59598
:1004A000C602E001C90FD51D98E0989FC00DD11D6F
:1004B000C55ADD4F20911C012E1508F4E22EABEF3A
:1004C000B3E087E08E0D887F9D2D987F891BA81B48
:1004D000B0403F2D31953770C30FC51DF70E2091E9
:1004E0001D012F1508F4F22E80910F01EBDE682E0E
:1004F0008D2DE8DE8A9509F48FEF982E8E2DE2DEA1
:100500008195B82E2FEFA22E8D2D6C2D687FF0DEF9
:10051000CC010D2D087F0195E00E0895FFEF2F2EE1
:10052000822C2F932DB527FFFDCF299A0000299803
:100530000E9403092F916C2F7A2F592D422D0E2DD9
:1005400045DF6C1B6195C61BD0407A1B7195A71BBC
:10055000B040C70DD51D472F5527BD010E94F10999
:1005600080569F4F28E0420E4F1408F04F2C185F22
:100570001F15B8F2089534DF5EDF08F4CFDF45DFE2
:100580000895B8019E918E917D012ADF54DF08F411
:10059000C5DFA0911E01A0930F01A0911F01A093A0
:1005A0000D01BF91AF917E916E9111978E91AF9396
:1005B000BF9341DF08F4B2DF28DF089511DF7F9396
:1005C0006F9390910F019F938F932F934F934F931E
:1005D00032DF30F4292C2094FF278B2C8094A1DF6C
:1005E000CDB7DEB78C816E817F814F9141507AF714
:1005F0004F912F9121504AF09D8190930F0190913E
:100600000D01970F90930D01E0CF8F919F916F9106
:100610007F91FBDE089583B7816083BF1092C10094
:1006200080E187B93D98459A8AB18E7B8AB98BB1B2
:1006300081648BB91EBA0E94F6030E9412090E94BF
:10064000FA081EBA10926B00109268000E946D0D9D
:100650000895299A8CB58F7B8CBD809184009091F0
:10066000850001962DB52EB520918400309185002E
:10067000AC01421B530B57FFF5CF8CB580648CBD8A
:100680000895282F982F82FD05C081E021FD03C029
:1006900080E001C082E093FD83E094FD84E095FD5D
:1006A00085E096FD86E027FD87E008951F93CF93B0
:1006B000DF93C0910701D091080110910B01909137
:1006C0001801891701F5CE01837090708230910571
:1006D00020F08091090187FF08C0C130D10509F0E1
:1006E00081C080910901863024F0815080930901F6
:1006F00079C086E08093090185E090E0909308013D
:10070000809307016FC080931801C130D10559F063
:10071000C130D10558F0C230D10571F0C330D105D8
:1007200009F055C02AC0882309F459C00E9441032A
:1007300080930B0122964BC0882309F58091090113
:1007400087FD4DC0E0910A01143029F481E08E1B31
:1007500080930A0144C0F0E033E0EE0FFF1F3A95AA
:10076000E1F7E10FF11DE851FF4FE491E0930C0137
:1007700010920A01C4E0D0E02AC0882381F1C09120
:100780000A0121E030E0012E02C0220F331F0A943B
:10079000E2F7821B0E944103EC2FF0E093E0EE0FA2
:1007A000FF1F9A95E1F7E10FF11D23E0EE0FFF1F08
:1007B0002A95E1F7E80FF11DE859FF4FE491E23D7A
:1007C00021F0E0930C0110920A01C5E0D0E080E135
:1007D00080930901D0930801C093070103C0C0E0D2
:1007E000D0E0F5CFDF91CF911F91089587B1807F41
:1007F00087B988B18F6088B957985F9A2098289AEE
:10080000089580910501882351F486B180958F70F9
:10081000809304012098289A579A5F980EC096B149
:1008200090959F70809104018295807F892B8093A1
:10083000040157985F9A209A2898809105018F5F4C
:100840008170809305018091040108950E94010444
:1008500090910501992349F490910601891719F4A3
:100860000E94560308958093060108952091070180
:100870003091080122FF08C080910C012B7F30933A
:10088000080120930701089580E00895CF93DF9336
:1008900080910F01C0910D01D0910E01C80FD11DA3
:1008A000F09903C08881805888830E943604882389
:1008B000E1F3F09903C0988190589883DF91CF912C
:1008C00008950E94AE0020E28331920779F020E281
:1008D0008331920728F0835190438230910518F0BC
:1008E00080E090E0089580E890E0089580E091E055
:1008F00008950E94AE0020E28331920779F020E251
:100900008331920728F0835190438230910518F08B
:1009100080E090E0089580E190E0089580E091E02B
:100920000895CF93DF930E94AE0020E383319207B6
:1009300071F030E38431930739F020E2833192077C
:1009400031F0C0E0D0E005C0C0E0D0E102C0C0E0BE
:10095000D8E00E9461049E01281B390BC901DF9178
:10096000CF910895CF93DF93EC01DF730E94910440
:10097000C817D90720F00E949104C81BD90B0E9408
:100980006104CC0FDD1FC80FD91FCE01DF91CF91BD
:100990000895CF92DF92EF92FF920F931F93CF9320
:1009A000DF930E94AE007C010E94790400E010E019
:1009B0006C010894C108D10822C083E1E81680E2E6
:1009C000F80689F40115110571F00031110559F08F
:1009D0000032110541F00034110529F0C8018C21C5
:1009E0009D21009751F480E064E10E948507C801D1
:1009F0000E942B08C8010E94D100005F1F4F0E9477
:100A00009104EC010E946104C80FD91F0C171D0747
:100A1000A0F2DF91CF911F910F91FF90EF90DF90A7
:100A2000CF900895EF92FF920F931F93CF93DF9390
:100A30007C018B010E949104EC01D695C79521970A
:100A4000CE01880F892F881F990B9195800F911FD8
:100A5000B7010E94FB00CF77D070CC0FDD1FCE0D09
:100A6000DF1D88819981DF91CF911F910F91FF90B8
:100A7000EF900895CF93DF93EC010E942903CE01FC
:100A800060E070E00E9412052FEF8F3F9207D9F4CB
:100A90000E949104FC01F695E7953297EF77F0708C
:100AA000EE0FFF1FEC0FFD1F808191812FEF8F3F15
:100AB000920761F0CE0160E170E00E9412052FEF15
:100AC0008F3F920719F480E090E002C080E190E04F
:100AD000DF91CF9108950F931F93CF93DF93EC0194
:100AE0008B01CB010E943A05009721F080E090E451
:100AF000C827D927CE01880F892F881F990B919578
:100B00008F77D6FF02C090E101C090E0C92FC80FD7
:100B10008C2F90E0B8010E94FB008C2FDF91CF91C9
:100B20001F910F9108958F929F92AF92BF92CF9293
:100B3000DF92EF92FF920F931F93CF93DF936C019D
:100B40005B010E9491044C019694879400E010E0B0
:100B5000E12CC0E8FC2EC8019F738815990520F090
:100B60000070107C0050104CE801CF77D0702097B7
:100B700021F4C801B5010E946B05FE01EE0FFF1FB5
:100B8000EA0DFB1D808191818C159D0551F02FEFA1
:100B90008F3F920761F480E0E81680E8F80659F488
:100BA00018C078012FEFC2162FEFD20621F00F5F89
:100BB0001F4F17FFD0CFC701DF91CF911F910F912A
:100BC000FF90EF90DF90CF90BF90AF909F908F906D
:100BD00008957801F0CFEF92FF920F931F93CF9378
:100BE000DF938C01EB010E9429030E9461047C01C8
:100BF000C801BE010E9493059F73880F991F8E0D37
:100C00009F1DDF91CF911F910F91FF90EF9008955D
:100C10000F931F93CF93DF93EC018B0196FF04C0DA
:100C20000E942903DF7309C00E94EB05EC01B801A3
:100C300060507F4F01960E94FB00CE01B8010E94D8
:100C4000FB00CE01DF91CF911F910F9108950F937B
:100C50001F93CF93DF938C010E949104EC010E94BB
:100C60007904C81BD90BD695C7950C171D0768F0DA
:100C70000E9479049C01215030403695279520230D
:100C8000312381E02115310509F080E0DF91CF911A
:100C90001F910F910895EF92FF920F931F93CF939F
:100CA000DF937C018B018FEF9FEF0E949305EC0196
:100CB0000E949104969587958150904CC817D9074A
:100CC00048F0C8010E943A050E94D10080E090E4FB
:100CD000C827D927CE01B8010E946B05CF77D07005
:100CE000CC0FDD1FC00FD11FF982E88290E0B80160
:100CF0000E942C01DF91CF911F910F91FF90EF90F7
:100D000008954F925F926F927F928F929F92AF92CF
:100D1000BF92CF92DF92EF92FF920F931F93CF93E8
:100D2000DF938C016B010E94790496958795882E3C
:100D3000782E0E949104282D30E096958795821B8D
:100D4000930BA8015F734817590720F0E801C81BEF
:100D5000D90B07C0E901C00FD11F80E090E4C8277C
:100D6000D927CE010E94B2042C01C8010E94B2040E
:100D70005C01B60160507F4FCE010E946B057E0181
:100D8000682C6C0EF701EF77F070E058FF4FEE0F14
:100D9000FF1FEC0DFD1D80809180C401B6010E94F3
:100DA0009305E816F90629F50E946104E701DF734F
:100DB000CC0FDD1FC80FD91FCE01B6010E94FB006A
:100DC00085010F5F1F4FC501B6010E942C01CE01A6
:100DD0000196B6010E94FB0082E090E0A80EB91EC9
:100DE000C801B6010E942C01C401B6010E944B0645
:100DF0007A940894E11CF11C6E1421F6C2010E9441
:100E0000D10081E017140CF480E0DF91CF911F91A5
:100E10000F91FF90EF90DF90CF90BF90AF909F9099
:100E20008F907F906F905F904F900895CF92DF9258
:100E3000EF92FF920F931F93CF93DF936C018B017F
:100E4000EA010E942903C801BE010E942C01C801C9
:100E50008070907C20E48030920721F1E12C81E0C9
:100E6000F82EEC0EFD1EC8010196B7010E942C0160
:100E7000C601BE010E944B06CC24C3948FEF9FEFA6
:100E8000BE010E9493058C01B7010E9427068823AA
:100E900049F0CC2039F0C801BE010E948106C82E5D
:100EA000882361F7DF91CF911F910F91FF90EF9011
:100EB000DF90CF90089597FF0AC083E291E060E051
:100EC00070E040E052E00E94FB0F81E0089580E076
:100ED00008950F931F93CF93DF93EC018FEF9FEF54
:100EE00063E271E00E94EB058C01CE010E945B077A
:100EF000882329F4CE0163E271E00E940806C8014C
:100F0000DF91CF911F910F910895F09B0DC09091AB
:100F10000F0190931E0190910D0190931F01685C49
:100F200060930D01885C0AC099E1699FB0011124AA
:100F30006D5D7E4F70930E0160930D0180930F01E4
:100F40000895A3E2B1E059968C915997FD018193E0
:100F5000DF0183E0E236F807B0F302C0819301C0FD
:100F600080E293E0EB37F907C8F380910D0190918F
:100F70000E01499790930E0180930D010895CF9330
:100F8000DF93EC0103C081E00E94A10780910D0175
:100F900090910E018C179D07B0F7DF91CF910895C6
:100FA00090E023E0880F991F2A95E1F78B539F4D1E
:100FB00068E078E040E30E94860180E368E078E042
:100FC00040E020E00E94DE0280910F01883D60F049
:100FD00080910D01885F80930D0198E390930F013C
:100FE000883D10F010920D010895CF93DF93EC012E
:100FF000F09B03C00E94D0072BC08D30910529F4CF
:1010000089E180930F01C0E0D0E080910F01893128
:1010100058F010920F0180910D0190910E014996A8
:1010200090930E0180930D018BE793E00E94BF0720
:10103000209771F080910F01E0910D01F0910E0168
:10104000E80FF11DC08380910F018F5F80930F0126
:10105000DF91CF9108950F931F93CF93DF93EC010E
:1010600084E20E94E10900E010E09D2F92959F70BC
:10107000892F805D81332CF4133039F0002341F047
:1010800005C08A3314F0892F895A01E00E94E109D2
:1010900034E0CC0FDD1F3A95E1F71F5F143029F7DC
:1010A00080E20E94E109DF91CF911F910F91089595
:1010B0000F931F93CF93DF93182F803AC8F5603AB0
:1010C000B8F5685C885C0E947801EC01812F0E9471
:1010D00061010AB401FC02C000E001C0082F0AB49B
:1010E00000FC02C010E001C0182F84E00DB407FC22
:1010F00002C08150D9F78EB5299A00002998CE01F7
:101100000E9403090DB407FEFDCF9EB5812F892BE8
:10111000202F20958223909590239123892B8093D3
:101120001001CE0160E171E041E050E00E94160A3A
:10113000DF91CF911F910F910895823308F051C034
:10114000603308F04EC0262F269599E1299F900123
:101150001124982F9695290F311D60FF02C098E049
:1011600001C092E080FD96950AB401FC02C050E0F7
:1011700001C0592F0AB400FC02C040E001C0492F51
:10118000F901ED5DFE4F8081803A21F0282F28770C
:10119000203121F4877887FF05C002C080E002C0BB
:1011A0002FE88227392F30953523242F252B2095A2
:1011B000232B2823352F309539233423232B9423B5
:1011C00080959823292B23FF02C08FE82827322FF0
:1011D000305F832F90E087709070009709F4305F44
:1011E00030830895F09B03C00E94580808950E9420
:1011F0009D080895299881E00E94200981E40E94B9
:101200002009299A089523E02EBD0DB407FEFDCFD5
:101210009EBD0DB407FEFDCF8EBD0DB407FEFDCF04
:101220001EBC089584B1817C8E6284B985B1817CB5
:10123000866085B98DB581608DBD80E58CBD0895D2
:101240008EBD0DB407FEFDCF08951EBC0DB407FE84
:10125000FDCF8EB5089578948F939F938091000170
:101260008A958093000171F090E280FD91E297BD34
:1012700090910101089497959093010182E828F4D8
:1012800082EC03C080E085BD82E084BD9F918F9198
:1012900018958F930F9385B58823E9F70093010183
:1012A0000BE00093000180E287BD82E884BD80E00E
:1012B00086BD83E085BD0F918F910895082FE9CFFA
:1012C0008F939F935E9A569A882785BD80916E0072
:1012D000826080936E0078949F918F910895CF9350
:1012E000DF93CDB7DEB7EF93FF932F933F934F93E9
:1012F0005F936F937F938F939F93AF93BF930F925F
:101300001F921FB61F921124FB81EC81EE0FFF1F6D
:1013100025913591F695E795EC83FB83F901F695D8
:10132000E79509951F901FBE1F900F90BF91AF9139
:101330009F918F917F916F915F914F913F912F91ED
:10134000FF91EF91DF91CF9108950F931F93CF936A
:10135000DF93EC010E942903E881F0E099819095E8
:101360008081892380830CC0EA81FB818191FB838A
:10137000EA830E9420098C819D8101979D838C8343
:101380008C819D81009781F70DC00E811F810E9485
:101390002509F8018193FF83EE838885998501975C
:1013A0009987888788859985009779F7E881F0E0A3
:1013B00080819981892B8083DF91CF911F910F913B
:1013C000089599270C94F507D7FD04C0FE01859177
:1013D000219606C021968DB587FFFDCF8EB58EBDB7
:1013E0000895EF93FF93E42FE52BE9F0FB017DB522
:1013F00077FFFDCF299A0000299862E06EBD7DB588
:1014000077FFFDCF9EBD7DB577FFFDCF8EBDF0315F
:1014100010F0659101C061917DB577FFFDCF6EBD84
:1014200041505040A1F7FF91EF910895EF93FF9342
:10143000E42FE52BC1F3FB01299ADDCF97FF1BC0F9
:101440006F936DB567FFFDCF299A7F934F935F939D
:1014500029980E9403099F918F91BF91AF9101C07C
:101460006EBD6DB567FFFDCF6EB56D930197C1F78A
:10147000299A6EBD0895FC01DB01CA0145914D9387
:101480000197E1F70895299A8EBD08956C0C7D1C93
:101490008C0C9D1CA6014830510508F048E0641AE8
:1014A0007108841A9108A42E50E0C30160E171E034
:1014B000C5DFC40160E171E04A2D50E092DFCA1837
:1014C000D10841F72CC04115510581F1903178F1D7
:1014D000703198F1DF92CF92AF929F928F927F926C
:1014E0006F926A013C014B018617970778F2A601BB
:1014F0004830510508F048E0A42E50E0C30160E1F7
:1015000071E09CDFC40160E171E04A2D50E069DFC9
:101510006A0C711C8A0C911CCA18D10841F76F9093
:101520007F908F909F90AF90CF90DF900895703113
:1015300030F0FC01CB01BF0154CF80DF0895FC01E6
:10154000DB01CA01EA17FB0728F061916D9301974F
:10155000E1F70895E80FF91FA80FB91F62916E9384
:101560000197E1F7089529988EBD05D08DB587FFC5
:10157000FDCF299A08956115710529F1903120F167
:10158000DF92CF92BF92AF926C015B016830710520
:1015900008F068E070E0A0E1B1E017D0C60148E0D3
:1015A00050E0A416B50608F4A501A41AB50AC40EA5
:1015B000D51E60E171E015DFA114B10479F7AF9099
:1015C000BF90CF90DF900895DC01CB014D93019740
:1015D000E9F708950E946A0DEC014424552480E047
:1015E00090E029980E9403098BEF93E0DC0187E2E9
:1015F0009DE03C01D7FF57C08DB587FFFDCF299AED
:10160000CE0129980E94030936C0D7FF2BC08DB5A3
:1016100087FFFDCF8EB5299AC80FD11D87FF13C054
:10162000DA95C415D50539F42196CE0129980E9482
:101630000309832D26C02E01CE0129980E9403099B
:10164000C3DE382E1EC0CE0129980E94030913C0A4
:10165000CDB5C7FFFDCFCEB5299ACE0129980E94FE
:10166000030909C0FE01849187FDDA95C80FD11DD9
:101670001AC0D7FF18C021968DB587FFFDCF8EB554
:101680008EBD833420F4F301E80FF11D09942196F7
:10169000DF93CF93D82F87FDDBCFCDB5C7FFFDCF2D
:1016A000CEB5299ACEBDFE0185912196833420F4D2
:1016B000F301E80FF11D09942196DF93CF93D82F02
:1016C000C591F1CFC8011E910E918334910580F32D
:1016D000DF93CF93EC018ECF0D931D9310E000E0CC
:1016E000C8CF90E002C070DE982F0D931D936CDE82
:1016F0008C01BFCF1E910E91BCCF012B1E910E917C
:1017000061F483CFF60131966F01CA14DB040AF449
:101710007CCFCF90DF90AF90BF9056DEAACFF6017E
:10172000E00FF11F6F01EA19FB09F1271E910E91DD
:10173000F7FDEECFEECFBF92AF92DF92CF9268016E
:10174000BE90AE901E910E9194CF7E916E914427E3
:10175000069F4001169F612D900C641F079F900CFF
:10176000611D179F712D600D741F8B018D929D92CD
:1017700011247FCF11978E9111976E91F801F894F3
:1017800000818023862B80837894112772CF9E91CD
:101790008E917E916E9121E2441B551B07C0441F20
:1017A000551F4017510710F0401B510B661F771F44
:1017B000881F991F2A9599F7609570954D935D93B1
:1017C0008B0157CF9E918E910823192352CF9E9162
:1017D0008E91082B192B4DCF9E918E91082719279A
:1017E00048CF650146CF0D931D930F911F9141CFB7
:1017F0000D931D93EDB7FEB7018112813ACF1F9370
:101800000F931E910E9135CF012B09F00FEF00952C
:10181000102F2FCF002717FD0095102F2ACF1095DE
:1018200001951F4F9E918E91080F191F22CF9E91F7
:101830008E917E916E915E914E91840F951F061F41
:10184000171F8D939D9315CF109501951F4F11CFA5
:101850009E918E9190950095109581959F4F0F4F79
:101860001F4F8D939D9305CF9E918E9112960D9350
:101870001D938C01FECE9E918E910D931D938C0134
:10188000F8CE0D931D93F5CE42E068E003C041E031
:1018900069E08824C80170E050E07D01CFDDD70108
:1018A000092D182DA7CE41E011978E9003C042E07C
:1018B0008E909E90C8011E910E9168E070E050E0FD
:1018C00090DD98CE0D931D938601D3CE0F5F1F4FF1
:1018D000D0CEFE013196F695E7950994F801008186
:1018E0001127C7CE11978E91F8011E910E9180831A
:1018F000C0CE0D931D930091190110911A01080F8C
:10190000111D089561DDF5DFF801F8940191108152
:101910007894AFCE59DDEDDF9E918E91F8011E9146
:101920000E91F894819390837894A3CEC8017D01A1
:101930000E94F507D701F09BDDCE5CC0C8017D0198
:101940000E942B08D701F09BD5CE54C0E5E8F7E004
:10195000B8014BC0CF91DF914DCE0150104089CEE0
:10196000EBEBFAE03FC09E918E9104C0892F99273E
:10197000085F1F4F08301005C8F702C0969587957D
:101980000A95E2F78C0175CE9E918E9104C0982F36
:101990008827085F1F4F08301005C8F702C0880F5E
:1019A000991F0A95E2F78C0164CEC8017D010E945F
:1019B0006907D7018C0180E09EEF63E271E040E0AF
:1019C00052E034DD17CEC8017E916E9143E251E0C2
:1019D0007D010E941607D701299885E08EBD0AC0B7
:1019E000E3E6FAE0A8017E916E919E918E917D01D1
:1019F0000995D7011E910E91FDCDE2EFF8E0A8CF39
:101A0000C8017D010E94A509D701F4CF32CEC801DB
:101A100071CE0D931D938E019DCF0D931D93D4DC3C
:101A2000182FD2DC082F96CFE6E8F1E0DBCFEBEB06
:101A3000F2E08ECF0E94C102E7CFEEEDF2E0980116
:101A40005E914E91D0CFE6E9F1E082CFC3CD11CEC9
:101A50004ACE38CE4FCE51CE54CE54CE60CE6BCE81
:101A600074CE88CE94CEAECEB2CEB6CEBACEBBCEEB
:101A7000BACEBECEC4CEC8CECDCED4CED8CEE4CE95
:101A8000E7CEF2CEF8CEFDCEFFCE01CF0CCF0FCFFA
:101A900019CF1CCF1ECF22CF25CF36CF3DCF46CF7B
:101AA00031CF4CCF19CE1DCE51CF54CF56CF58CFBA
:101AB00031CF59CF69CF79CF86CF92CF9ECFA0CFEC
:101AC000A5CFA5CFA6CFA9CFAFCFB1CFB3CFB5CF3D
:101AD000BACFA5CE8EE492E6089583E883BD83E372
:101AE0008093B0008AE08093B1001092B2008FE939
:101AF0008093B3008BE08093B4001092800022E0CA
:101B00002093810010928500109284008BE090E079
:101B1000909389008093880020936F0050988AB139
:101B20008A608AB98BB1857F8BB988E08093220166
:101B3000E4ECF0E01182108280EC8093C2001092FD
:101B4000C10081E090E091838083789413BC089574
:101B50001F920F920FB60F9211248F939F93809133
:101B60002201873009F040C00E94B80E8091020126
:101B7000882371F58091090187FD07C08091880055
:101B8000909189008151984D06C080918800909174
:101B900089008953924E9093890080938800F09B2E
:101BA0000AC080918800909189008050964F909350
:101BB00089008093880088E0809322018091200131
:101BC000909121010196909321018093200187C07B
:101BD000809188009091890081579F4F9093890050
:101BE0008093880086E028C0833009F442C08430A6
:101BF00028F4813021F1823088F50DC0853009F458
:101C000072C0853008F444C0863009F489C0883039
:101C100009F0A7C09AC08FE48093B30085E0809359
:101C2000B4008091880090918900845B9E4F9093CE
:101C300089008093880081E08093220192C089E42A
:101C40008093B400809188009091890080579E4FC6
:101C5000909389008093880082E0EECF8091880085
:101C600090918900CE96909389008093880083E0BC
:101C7000E3CF85E08093B400809188009091890043
:101C80008A569E4F909389008093880084E0D4CF39
:101C90008FE98093B3008BE08093B400F09B0FC07A
:101CA00080E18093020180918800909189008454A2
:101CB0009D4D909389008093880085E00DC010921F
:101CC000020180918800909189008454924E9093F3
:101CD00089008093880086E08093220178940E9496
:101CE0006F094C083EC08091880090918900805017
:101CF0009B4F909389008093880086E08093220117
:101D000080916B00826080936B008091680081609D
:101D100080936800D89A299B24C02998299A21C0C9
:101D200080916B008D7F80936B00D89A80918800A2
:101D3000909189004196909389008093880087E074
:101D400080932201789488950CC0809188009091AE
:101D500089008C569F4F9093890080938800109241
:101D600022019F918F910F900FBE0F901F90189599
:101D70000F921F92EF93FF930F93AF93BF93CF9365
:101D8000DF93D0910201D03CA0F5F39998C0A9E16E
:101D9000BD2FB695B695B695AB9FA3E2B1E0A00D69
:101DA000B11DD7701F9318E108E0F0E0E8E0F09370
:101DB000C600E093C100ED91CE2FEF770E9F0D0E80
:101DC000E03130F0E5ECF0E2E00DF11DE49106C009
:101DD000EBE7F3E0E00DF11DE08100C0C7FDE09509
:101DE000F091C000F5FFFCCFE093C60011501AF748
:101DF0003CC01F93E0910A01E0FDE0E4F0910B018B
:101E0000FF0FFF0FFF0FEF0FF0E0D3FDEC5FA8E631
:101E1000B0E0AE0FBF1FE5ECF0E2CD2FC770D0E011
:101E2000CE0FDF1F10E0E8E0E093C100FD01049158
:101E3000003208F400E2E8E0F02FFF77EF9FFE01A8
:101E4000E00DF11D049007FF0094F091C000F5FF34
:101E5000FCCF0092C60011961F5F143038F3D0916A
:101E60000201DF5FD03D48F409C0D0910201DF5F7D
:101E7000D03C20F0F0910901F7FFD0E0F091C000D4
:101E8000F5FFFCCFA0E0A093C100D03C51F4E0915D
:101E90008800F0918900E85DFF4FF0938900E0939E
:101EA0008800D09302011F91DF91CF91BF91AF9134
:101EB0000F91FF91EF911F900F90089500001F93D5
:101EC000F49B3DC0A3E2B1E003EC11E0F801D3FDC7
:101ED0008D01D3FDDF01F0E0D770AD0FBF1FE4E14E
:101EE000DE9FE801C00DD11D14E1E8E0F093C600CB
:101EF000E093C1000DB507FFFDCF0EB50EBD0993F0
:101F0000EC9118960091C00005FFFCCFE093C6004D
:101F10001A9581F7D0910201DF3A08F4A6CF0DB5EA
:101F200007FFFDCFF29B0EB5D05F299AF49B05C049
:101F30009ECFC0E405C0C0E203C0C0E101C0C8E05C
:101F4000DC2FB09BFECFB09ADA95D9F7349AF8CF50
:101F50000F930FB70F9300910201003109F0EBCFFF
:101F6000F499E7CFF1982999F19A00916B000D7FD0
:101F700000936B001F93AF93BF931F9211240DB575
:101F8000F29807FDF29A299AF39AF49AA0E8B3E737
:101F90001BD000EAA3E2B1E01DB517FFFDCF1EB5CF
:101FA0000EBD1D930A95C1F7D89A7894299BFECF50
:101FB000F19B2998F398F4981F90BF91AF911F91CE
:101FC0000F910FBF0F911895299803E00EBD0DB525
:101FD00007FFFDCFBEBD0DB507FFFDCFAEBD0DB5F3
:101FE00007FFFDCF0EBD08950E940B038FEF8DBF3D
:101FF0000C94EA0A0895DC01CB01FC01F999FECFAB
:1020000006C0F2BDE1BDF89A319600B40D92415080
:102010005040B8F7089510050520202020202020EA
:102020002020202005202020202020202020208467
:1020300084840607848484848484840684848484D9
:102040000784848484848484A02020159500A001C2
:1020500015A0A0011595A020159500A00115A0A020
:1020600001A020201595A020A0159520A01595A0D1
:10207000201595A020A0159520A0A0202015950240
:10208000A0A0159520A0159502A0159502A00315F6
:102090009520A020202020202020A02020202020CB
:1020A0002020202020202020202020202020202030
:1020B0002020A003202020202020202020202020BD
:1020C00020202020203F7FFFFFFFFFFFFFFCFEFFBF
:1020D000FFFFFFFFFFFFFFFFFFFFFF7F3FFFFFFF50
:1020E000FFFFFFFEFC00FF00FF00FF00FFFFFFFF00
:1020F000FFFFFFFF000F0F0F0F0F0F0F00F0F0F0AB
:10210000F0F0F0F000FF80808080808080FF000091
:102110000000000000FF0101010101010180808039
:1021200080808080800101010101010101808080A7
:1021300080808080FF00000000000000FF0101019E
:1021400001010101FF3F7FFFFFFFFFFF000F0F0FA6
:102150000F00000000F0F0F0F000000000FFFFFFB3
:10216000FF00000000000000000F0F0F0F0F0F0F07
:102170000F0F0F0F0FF0F0F0F00F0F0F0FFFFFFF1B
:10218000FF0F0F0F0F0000000055AA55AA55AA55C2
:10219000AA00000000505050505050505055AA55C1
:1021A000AA55AA55AA0000183C3C1800003C7EFF26
:1021B000FFFFFF7E3C3E419CAC9F403F0000008EF5
:1021C0009526C8F00000000000000000000010107C
:1021D0001010001000002424000000000000247EE5
:1021E00024247E240000081E281C0A3C0800626487
:1021F0000810264600001028102A443A0000081053
:102200000000000000000408080808040000201076
:102210001010102000000014083E081400000008F0
:10222000083E080800000000000008081000000038
:10223000003E00000000000000001818000000022E
:102240000408102000003C464A52623C0000182856
:102250000808083E00003C42023C407E00003C4230
:102260000C02423C0000081828487E0800007E400E
:102270007C02423C00003C407C42423C00007E022A
:102280000408101000003C423C42423C00003C422A
:10229000423E023C00000000100000100000001050
:1022A00000001010200000040810080400000000C6
:1022B0003E003E00000000100804081000003C42F0
:1022C0000408000800003C4A565E403C00003C42C6
:1022D000427E424200007C427C42427C00003C4202
:1022E0004040423C000078444242447800007E4036
:1022F0007C40407E00007E407C40404000003C42EC
:10230000404E423C000042427E42424200003E08B3
:102310000808083E000002020242423C0000444815
:1023200070484442000040404040407E0000426609
:102330005A42424200004262524A464200003C4237
:102340004242423C00007C42427C404000003C4211
:1023500042524A3C00007C42427C444200003C40E5
:102360003C02423C0000FE101010101000004242DF
:102370004242423C00004242424224180000414195
:102380002A2A14140000422418182442000082440F
:102390002810101000007E040810207E00000E0897
:1023A0000808080E0000004020100804000070100B
:1023B0001010107000001028440000000000000001
:1023C00000000000FF001C227820207E0000003862
:1023D000043C443C000020203C22223C0000001C25
:1023E0002020201C000004043C44443C0000003831
:1023F0004478403C00000C10181010100000003C05
:1024000044443C04380040407844444400001000F8
:1024100030101038000004000404042418002028A0
:1024200030302824000010101010100C000000683C
:10243000545454540000007844444444000000388C
:102440004444443800000078444478404000003C54
:1024500044443C040600001C2020202000000038DA
:1024600040380478000010381010100C00000044B0
:10247000444444380000004444282810000000442C
:1024800054545428000000442810284400000044FC
:1024900044443C043800007C0810207C00040808F8
:1024A0003008080400000808080808080020101078
:1024B0000C1010200000142800000000003C42997D
:0A24C000A1A199423C00F894FFCF5F
:0424CA00000000000E
:10580000624E0000006B65726E001C161C629101F6
:105810005822161D1B15040A1C2C08321B2C083399
:105820000D2E20C500985B245C6A5ED95EFE65780B
:1058300069295B525A085A57580280657865630097
:10584000825838806900A15841806C656176650096
:105850008F584780616E64008C5851806F72008D44
:10586000585980786F72008E5860803E3E00B25862
:1058700068803C3C00B3586F803B7300AE58768024
:10588000723E0091587D803E720093588480720071
:1058900092588B80303D0094589180303C00955850
:1058A00098802B0096589F802D00C258A580642BAD
:1058B000009758AB806E6567009858B280646E653B
:1058C00067009958BA806F766572009A58C38064F1
:1058D000726F70008358CC8073776170009B58D5CD
:1058E00080647570009C58DE8040009D58E680639F
:1058F00040009E58EC802100A058F3806321009F57
:1059000058F980752A0089590080752F008B590736
:1059100080656D697400A8590E80706C6F7400B753
:10592000591780312B00A2592080636D6F76650076
:10593000B659278066696C6C00B059318069634044
:1059400000A4593A8069632100A55942806940004A
:10595000A6594A80692100A75951803E706F727420
:105960003E008A59588073706900B8596380312DA0
:1059700000AF596B80617400AD5972802E686578F4
:1059800000AA597980626C6B3E00B45982803E62F5
:105990006C6B00B5598B8074696C6500BD5994803F
:1059A000626C7400BE599D8032626C7400BF59A550
:1059B00080626C747300C059AE80636C697000C102
:1059C00059B7802A00090359C080322B002222597E
:1059D000C780732D3E64001C1559CF802D31002BDC
:1059E0002F59D980322A001C1659E1006C6F63735D
:1059F00000111B5BD9261B181A161C5BD9275BD01C
:105A000026135BD02713132E1111115BD0275BD9FE
:105A100027032E59E9406C6F633B005E2F5A085EE6
:105A20003F2E5C9D5C3A1D5E3F5BE2261313615185
:105A3000115C3A205BE2261142015D735D865C9D3C
:105A40002E5A13406C3E002C295A222E5A41403EB9
:105A50006C002C315A222E23F894FA9AF99A7894F1
:105A600015C05A4C006B657900237D010E944604E5
:105A700008C05A6200696E6B657900237D010E943F
:105A80003604D70199270D931D938C010C94AA0C11
:105A90005A7200636C73002B2B2D01003E242C01E5
:105AA0000C040F2CA02CA04101F380010C802B05CD
:105AB000085BAD0102582C20302E5A900069270057
:105AC0002300C501E0CF5ABA006372002C0D282EC6
:105AD0005AC60074797065005CDA040C1A161B084B
:105AE000211E2806FC0502032E5AD0007370616344
:105AF00065005BA2282E5AE900737061636573002C
:105B00002B62B85CDA04072B085AF206FD2E050357
:105B100028221C1E1C1404F9032E5AF600222E0003
:105B20005B0E032E115B0E22132E2C225FB85C78C5
:105B30005F70225C852E5B1A402E22005C3A1D04A9
:105B4000095E2F5B245B2A05092C225FB85C785B19
:105B5000202E111C1D1322222E5B364022005C3A9F
:105B60001D04125E2F5B525C782B5C8F5B2A5C7885
:105B70001B2005035B2A2E5B5900766172002C3BCB
:105B8000050C5B7700636F6E7374002C3C60BC5C2B
:105B9000782F1F5C8F2E5B82803000AB5B9600629B
:105BA0006C003C00205B9C007672616D003C012320
:105BB0005BA500636C6F636B003C01205BB00073FE
:105BC000797376617273003C010D5BBC00736600F3
:105BD0003C01195BCA007270003C005D5BD300732E
:105BE00070003C001A5BDC00737030003C03FB80EB
:105BF000220001808280086ADC5BE5007469620033
:105C00003C80005BF9007761726E696E67003C80D2
:105C1000025C03006470003C80045C1100637572D8
:105C200072656E74003C80065C1A00696E003C80F0
:105C3000085C28007374617465003C800A5C310064
:105C400062617365003C800C5C3D00686C64003CE4
:105C5000800E5C4800626C6B23003C80105C52003C
:105C60002B21001B1A1D161B202E1A1E0E1B1F2E69
:105C70005C5D0068657265005C171D2E5C700061DC
:105C80006C6C6F74005C175C632E5C7C002C005C99
:105C900078202C025C852E5C8A00632C005C781FC7
:105CA0002C015C852E5C97803D0042145CA5803CF5
:105CB0000042155CAC003E001B42152E5CB3007226
:105CC0006F7400131B111B2E5CBC80326475700056
:105CD0001A1A5CC8003F647570001C04021C2E5C1C
:105CE000D200753C001A1A0E1504051B03152E422E
:105CF000152E5CDF006C6174657374005C251D1DDE
:105D00002E5CF2006C66613E636661005D2F1C5D77
:105D10004C1B1E2C800C040C1D1C1504072C083277
:105D20002C7F0C2E5D01006C66613E666661002270
:105D3000222E5D24006C66613E6E6661002C0316A7
:105D40002E5D32006666613E70666100221C5F70E7
:105D500016222E57686174277320004D69736D6198
:105D600074636865640057726F6E67207374617442
:105D7000653A00426164205265663A005D32003F38
:105D80006572726F72001B04265C0E1D15040361A0
:105D9000E55C3A1D040F5B24496E20005CFC5D3D10
:105DA0005B205AF25B205AF25C785B2061B8032ECC
:105DB0005D7C003F636F6D70005C3A1D14015D6691
:105DC0005D862E5C3A1D015D665D862E5DB0003FEE
:105DD00070616972730042015D5B5D862E5DCC402F
:105DE0003A005DC360BC01FFFF5C855E492E5DDD4E
:105DF000403B005E2F002E5E3F2E5DEE00696D6D14
:105E0000656469617465005CFC5D2F2C405C6A2EE2
:105E10005DFA00782C001C01FF000C04055C8F0566
:105E2000035C9D2E5E1000636F6D70696C65005D94
:105E3000B9111C1D5E162222132E5E24405B002B1E
:105E40005C3A202E5E3A005D002C405C3A202E5ECB
:105E50004400736D75646765005CFC5D2F2C205CED
:105E60006A2E5E4F003C6275696C64730060BC2BE7
:105E70005C9D2E5E6240646F65733E00015E865CD1
:105E80008F2C105C9D2E115CFC5D2F5D4C202E5ED6
:105E9000734028002C295FB82E5E8F00686578005B
:105EA0002C105C45202E5E9900646563696D616C01
:105EB000002C0A5C45202E5EA600646967697400A8
:105EC000132C30422C091A4215040A2C07421C2CB0
:105ED0000A42150D1C115CE52E05141B5C451D09BD
:105EE000035CC35C451D09171122111C1516131CF8
:105EF000131E5C451D5EC01404E20311112E1C1E0E
:105F00002C2D42141B1A422B2B5CC32C015ED9137F
:105F1000135CC304021911112E5EB7006E756D6219
:105F20006572005C451D131C1E2C24421404045E83
:105F3000A0225EFE1A1E2C644214040503222C02C9
:105F40001B1E140C115C45202E5F190063496E2244
:105F500000131A1815161A161C1E1C1242141B14B4
:105F60000D04F411031B032E5F4900226C656E00C3
:105F70002C011A2B5F511B422E5F680022736B6944
:105F800070426C000502221C1E2F2CE00C04F82E1F
:105F90005F7900656E636C6F736500130502221CE8
:105FA0001E1C2C0E42151B1242140D04F211032E5E
:105FB0005F9000776F7264005C001D5F841C5CC39F
:105FC0005F9B1C1C1E1414425C00201A421C135CB4
:105FD000781B362B115C78161F2E5FB000223C3EDA
:105FE000000506031B221B221A1E1C131A1E421C2C
:105FF00011140D04EF1B031C151B1815421B1E1456
:106000002C080C332E5FDA40617363002C205FB8DC
:106010005C781E5C3A1D04072C2C5C9D5C9D2E60F8
:1060200005002221001A5F7022362E601F00222BED
:10603000001C5F701660252E602B002263757400B3
:10604000162B1B1F2E6038002266726F6D001A5FC0
:106050007062A8162E604500617272005E6D1C169B
:106060005C855E86101A16162E605500627974657E
:1060700073005E6D5C855E8610162E606900666931
:106080006E64005BA25FB85C785CFC1C5D2F1E2C0C
:10609000200C04021D0505110311031C131A1A5DBF
:1060A0003D5FE114131D1C14120D04EC03031111C8
:1060B0000C2E607B00637265617465005CFC5C8F14
:1060C0005C782C02425C251D202B5C9D5BA25FB896
:1060D0005C785F70225C8501003B5C9D2E60B24065
:1060E0005B636F6D70696C655D0060831C142B5D74
:1060F000865D0C5E162E60DD406C69746572616CA5
:10610000005C3A1D041E5CDA04161C01FF000C043E
:10611000082C015C9D5C8F2E2C2C5C9D5C9D2E2C94
:106120002B5C9D2E60F640646C69746572616C0036
:106130005C3A1D04061B610161012E60F6400011EE
:106140000311032E613B00696E7465727072657491
:106150000060831C042F1C5D2F1E2C7F0C5C3A1DDD
:10616000421504075D0C5E1605195D0C1C01430009
:106170004215040E1C010110252C083202010110E9
:106180002402051F035C785F231C140409035C7858
:10619000015D535D862C0142140406036101050371
:1061A00061302E6144002272756E00615105FD2E32
:1061B00061A300717569740011035E3F5ACC0180C0
:1061C000221C5C00206AE52C015C005C6361AB5C16
:1061D0003A1D1404065B244F4B0005E161B00061D9
:1061E000626F72740011035BEC5BE2275EB15ACC04
:1061F0005A972C0165D25B244649476E6974696FD2
:106200006E200D7F6E696368656D616368696E6598
:106210007320323031312D323031330061B861DCDE
:10622000007061757365001C62915BB926161A15C2
:10623000040A01011824040403032E1C5BB926423E
:106240001504EC03032E621E00636F6C6400015B97
:10625000EF0180002C0A365A970120C501037B2CE0
:1062600080360120160101EB0100AF3601FF9C6270
:106270002761E56246002B2D00150402182E62737B
:1062800000642B2D00150402192E627E00616273DA
:10629000001C62792E628A0064616273001C628550
:1062A0002E6295006D696E001A1A5CB804021B0319
:1062B0002E62A1006D6178001A1A421504021B03B8
:1062C0002E62B1006D2A001A1A0E1362911B6291A0
:1062D000091162852E62C1002A2F6D6F640013625E
:1062E000C71162F62E62D5002A2F0062DE1B032E34
:1062F00062E5006D2F001A1313629D1262910B115B
:10630000120E62791B1162791B2E62F0002F6D6FE5
:106310006400131C151162F62E630A002F0063122D
:106320001B032E6319006D6F64006312032E632339
:10633000006D2F6D6F6400132B120B111B130B11CB
:106340002E5CC35DD65C9D5C78425C9D2E632E40C6
:106350006966005E2F00045C782B5C9D2C022E6326
:106360004D407468656E005DB92C025DD65C781A8C
:10637000421B1F2E635F40656C7365002C025DD667
:106380005E2F00055C782B5C9D1B2C0263672C0242
:106390002E637440646F005E2F00085C782C032E1F
:1063A0006391406C6F6F70002C062C0363412E6369
:1063B000A0402B6C6F6F70002C072C0363412E6381
:1063C000AF40626567696E005DB95C782C012E6331
:1063D000BF40756E74696C002C042C0163412E6300
:1063E000CF407768696C6500635322222E63DF40DB
:1063F0007265706561740013132C052C01634111E3
:10640000112C024263672E1A4214111B04071B034E
:10641000222205021D132E63ED00686F6C640001DB
:10642000FFFF5C4F5C635C4F1D1F2E6417007061A3
:1064300064005C782C43162E642B003C23006432ED
:106440002B1A1F5C4F202E643800233E0003035C90
:106450004F1D64321A422E6447007369676E005CF8
:10646000C31504052C2D641F2E64570023005C45C2
:106470001D63375CC32C091A421504042C07162C23
:106480003016641F2E646900237300646E1A1A0D9F
:106490001404F92E648500642E7200131B1A629D89
:1064A000643E648B645F644D111A425B005AD82EBF
:1064B000649400642E002B649B5AF22E64B0002E6C
:1064C0007200131C1511649B2E64BC002E001C1559
:1064D00064B62E64C9003F001D64CE2E5A975B241B
:1064E0004C6F6164696E6720005C5A1D64CE2E6437
:1064F000D3006C6F61640001FE005C001C1D132062
:106500005C5A1D131C5C5A203464DC2B01FFFF1FF6
:106510000361AB11111C5C002001FDFF5CB8040F8E
:106520001C5C5A203464DC032B01FFFF1F2E032E5A
:1065300064EF006C6F616473001A161B082164F726
:1065400006FC2E6530006370001B341B355A972EF5
:1065500001010D265BAD01023E165CB82E654300BD
:106560006D6F7265006550040F5B246D6F72653E40
:106570003E005A69035A972E1312021A1A5D3D5FA4
:10658000E12CFF0C1404081C5D3D5B205AF21D5CDD
:10659000DA1404E60311032E655D40766C697374AA
:1065A000005A972C205FB85C785CFC0165656578C3
:1065B0002E659800666F726765740060835CDA040C
:1065C0000A1C1D5C251D205C17202E65B10070651E
:1065D0006E0001004A252E65CB00766D6F64650064
:1065E0002CE10C2B62271C2C1E01003E0A032C01FF
:1065F0000C1404035A972EFFFD0000000000FE005B
:1066000000FFFF00000000000019001300FF017BE5
:106610005A65D70061743E002C190903165BAD164C
:106620002E661100637572736F720001010F2401F1
:10663000010D265BAD422C19631E2E661100636CA2
:10664000426F780013136618111B112B081A1A1BBE
:106650002C20302C191606F603032E131A1B115F7B
:10666000511B15422E1B15161E2E01FFFF1A2C0D55
:10667000665B422912632A2E131A1514120C131A80
:106680001A2C0D665B1A421C629129122F11425C72
:10669000B804181C6291291262A81B62791B1A1691
:1066A0001B6291111629124205441C13161A131A63
:1066B0001A66651C1414110C13042C1A16111103FC
:1066C000131A1A2C0D665B1A4262915CC3150409F9
:1066D0002912632A1B1A421B115CC35CC31162A8F6
:1066E0001B1A161B05081B03111B1111162E290C52
:1066F00029164215041729061C221A1829001622E9
:10670000290C221C310C16361C29061F032E1A13C5
:106710001C131A13151413291262A8111B13040554
:106720001A1A12362C19161B12161B1118111611D3
:10673000221A141A29142F5CB80D04D51B03111C3E
:106740002912632A1312140C04071B2C19161B227E
:106750001C29142242151A18150C040F1A2C194260
:10676000121612182912162C203011032E2900227D
:10677000290E291029084266182908181305191A24
:106780001C2C011B2C0D5F511B4211670E131B1C8F
:106790001E2C0D4214421B1A1E141229142F5CB811
:1067A0000D04DD03031129141A5CB8041113290E1A
:1067B0001229101629122914114266442B032E297E
:1067C0000E290216291029041666181C13245BB919
:1067D000261C5BB9264215040B12242C800E1225B0
:1067E0002C32162918025CDA04E81B031B11252E33
:1067F0002F1A62A82B62B81B1A422E3102310629C9
:106800000416291467F01C29081631081B31042EC0
:1068100029062902667867FB2E29061A1A66651C66
:10682000042F2C0D421404141A161B1504091C669F
:106830006A01FFFF05042B2C01050F1A161B290204
:10684000162912162B29120B2F5CC35CC367FB2E73
:106850000303032B2E66EE2C016819032C012E294D
:10686000062F2900421C04191329061C2F290C117C
:10687000422201FFFF68190336290C2F310C2C012D
:106880002E2906310A2B2E2B290A22041203290A4B
:106890001C1C29064215162222310A1E68552E2C70
:1068A00007640768A9685F056C2C08640768B6016F
:1068B000FFFF6819055F2C09640768C22C0168197D
:1068C00005532C0A640768CE2C01681005472C0B71
:1068D000640768DB01FFFF6810053A2C0D64076848
:1068E000E72C0D6855052E2CCD640768F1688105ED
:1068F000242CC3640768FB6887051A2CAB640769FE
:1069000008032C8D2C01050D2CA0640769122C01A5
:106910000503032B2E1C2C1F5CB81A2C8042150C6F
:10692000040568550503689F2E0403676D67BF1C47
:1069300069151B2C8D421404F12E1C2C2F5CB81AE7
:106940002C3842150C040F2C304229061E2C033320
:106950000D29061F2B032E0165F7010119262C1A9C
:10696000362E23007D010E94C904D7010C94AA0C85
:106970002C122C132D5B24436D643F005A691C2894
:106980002C776407699C5A972900225BAD290C2259
:1069900036291C291A35676D032B051F2C7A6407CD
:1069A00069A6695705152C45640769B85A692C59B9
:1069B0004214040369620503693A2E655004031109
:1069C000112E5BAD0101F4160100642C20302B2C3C
:1069D000142D2E5A7B1C04591C2C214215040C2901
:1069E0001E040369C22B311E05471C2CA04214044F
:1069F00025291E041B5BAD0101F316291E165C78C8
:106A000042221C241C6855032C20421404F4035C0D
:106A100078311E051C291E0418291E1A1A1F2B1A4C
:106A2000221F22311E69C25C785CFC0169BB65785B
:106A30002E663B0065646974002C2059F169572B60
:106A40002900200169D331182B311E1C6291311AA3
:106A500034311C2B01FFFF1F29061C1E2CFF421482
:106A600004052B2900205F70310C2B2C132D5B2487
:106A7000506167653A2000291A2C0464C25AF25BFF
:106A8000244C656E3A00290C2C0364C22C075B0071
:106A90002C0169291C040369701404CF5A086A3157
:106AA00000626F786564002C1A59F16957662B31C2
:106AB00010310E3114311231161C31001C223106F6
:106AC0005F70310C2C0169295A08230087E193E09B
:106AD0007D010E94BF07D7010C94AA0C6A9E007129
:106AE0007565727900136ACA662B2B2C142D112B35
:0E6AF0001A202C4F2C192C046AA7032D2E00FF
:00000001FF
:000000