:100000000C94D4020C94E6020C94E6020C94E410D6
:100010000C94E6020C94E6020C94E6020C94E602C0
:100020000C94E6020C94E6020C94E6020C94D20EB8
:100030000C94E6020C94E6020C94700A0C94E6020E
:100040000C94E6020C94E6020C94E6020C94E60290
:100050000C94E6020C94E6020C94E6020C94E60280
:100060000C94E6020C94E602080B0907000A200D26
:100070000F0B0F1B000AA08DD2313233D234352D35
:100080002EDE2C213AAB3B2261627363646573669A
:100090006D6E6F7A7071727AC3363738C339302B10
:1000A0002ACD2F2428CD293D676873696A6B736C4C
:1000B0007475767A7778797A007C40230034352D10
:1000C0007F00253F7B007D274142534344455346F3
:1000D0004D4E4F5A5051525A0036373800393C3E37
:1000E0005E005C605B005D26474853494A4B534CB9
:1000F0005455565A5758595A10050520202020208B
:10010000202020202020052020202020202020200A
:10011000208484840607848484848484840684847C
:1001200084840784848484848484A020201595009A
:10013000A00115A0A0011595A020159500A00115FE
:10014000A0A001A020201595A020A0159520A01505
:1001500095A0201595A020A0159520A0A0202015E1
:100160009502A0A0159520A0159502A0159502A0B6
:1001700003159520A020202020202020A020202032
:10018000202020202020202020202020202020206F
:1001900020202020A00320202020202020202020FC
:1001A000202020202020203F7FFFFFFFFFFFFFFCBB
:1001B000FEFFFFFFFFFFFFFFFFFFFFFFFF7F3FFF90
:1001C000FFFFFFFFFFFEFC00FF00FF00FF00FFFF3F
:1001D000FFFFFFFFFFFF000F0F0F0F0F0F0F00F0CC
:1001E000F0F0F0F0F0F000FF80808080808080FFF1
:1001F00000000000000000FF010101010101018079
:1002000080808080808080010101010101010180E6
:10021000808080808080FF00000000000000FF01DF
:10022000010101010101FF3F7FFFFFFFFFFF000F01
:100230000F0F0F00000000F0F0F0F000000000FFD2
:10024000FFFFFF00000000000000000F0F0F0F0F66
:100250000F0F0F0F0F0F0FF0F0F0F00F0F0F0FFF3A
:10026000FFFFFF0F0F0F0F0000000055AA55AA5502
:10027000AA55AA0000000050505050505050505500
:10028000AA55AA55AA55AA0000183C3C1800003CE3
:100290007EFFFFFFFF7E3C3E419CAC9F403F000045
:1002A000008E9526C8F0000000000000000000004D
:1002B00010101010001000002424000000000000A6
:1002C000247E24247E240000081E281C0A3C0800EA
:1002D00062640810264600001028102A443A0000E4
:1002E00008100000000000000408080808040000CE
:1002F00020101010102000000014083E0814000008
:100300000008083E0808000000000000080810006F
:100310000000003E0000000000000000181800006F
:1003200000020408102000003C464A52623C0000D3
:1003300018280808083E00003C42023C407E0000AD
:100340003C420C02423C0000081828487E0800008D
:100350007E407C02423C00003C407C42423C00002B
:100360007E020408101000003C423C42423C000067
:100370003C42423E023C0000000010000010000021
:1003800000100000101020000004081008040000F5
:1003900000003E003E0000000010080408100000AD
:1003A0003C420408000800003C4A565E403C000005
:1003B0003C42427E424200007C427C42427C000041
:1003C0003C424040423C00007844424244780000B5
:1003D0007E407C40407E00007E407C4040400000EB
:1003E0003C42404E423C000042427E4242420000BB
:1003F0003E080808083E000002020242423C00009B
:10040000444870484442000040404040407E000064
:1004100042665A42424200004262524A464200004C
:100420003C424242423C00007C42427C4040000050
:100430003C4242524A3C00007C42427C4442000022
:100440003C403C02423C0000FE1010101010000026
:1004500042424242423C00004242424224180000D2
:1004600041412A2A14140000422418182442000092
:1004700082442810101000007E040810207E000026
:100480000E080808080E00000040201008040000B4
:1004900070101010107000001028440000000000C0
:1004A000000000000000FF001C227820207E0000D9
:1004B0000038043C443C000020203C22223C000048
:1004C000001C2020201C000004043C44443C00008C
:1004D00000384478403C00000C1018101010000048
:1004E000003C44443C04380040407844444400000C
:1004F0001000301010380000040004040424180018
:10050000202830302824000010101010100C00009B
:10051000006854545454000000784444444400009B
:100520000038444444380000007844447840400097
:10053000003C44443C040600001C20202020000015
:10054000003840380478000010381010100C0000FB
:10055000004444444438000000444428281000006B
:10056000004454545428000000442810284400003B
:10057000004444443C043800007C0810207C000403
:1005800008083008080400000808080808080020C7
:1005900010100C1010200000142800000000003C77
:1005A0004299A1A199423C0011241FBECFEFD4E093
:1005B000DEBFCDBF13E0A4E0B1E001C01D92A63FB5
:1005C000B107E1F70E94B3030C9440110C940000B2
:1005D0002A9886E00E94360A2A9A08950F931F935C
:1005E000CF93DF938C01EB012A9883E00E94360AB7
:1005F000812F0E94360A802F0E94360A80E00E94D6
:10060000360A00E010E00E943B0A89930F5F1F4FFB
:1006100081E000301807B9F72A9ADF91CF911F9136
:100620000F9108950F931F932A988FE90E94360A1D
:100630000E943B0A90E08F37910519F40E943B0A13
:1006400090E0C79719F02FEF3FEF0AC00E943B0AD6
:10065000182F00E00E943B0A282F30E0202B312B7E
:100660002A9AC9011F910F9108952A9885E00E9446
:10067000360A0E943B0A2A9A08950E94350380FD9B
:10068000FCCF08950F931F93CF93DF938C01EB0161
:100690000E94E8022A9882E00E94360A812F0E9476
:1006A000360A802F0E94360A80E00E94360A00E057
:1006B00010E089910E94360A0F5F1F4F81E00030E1
:1006C0001807B9F72A9A0E943D03DF91CF911F9135
:1006D0000F9108950F931F93CF93DF938C010E9486
:1006E000120380708050904219F4C8EDD0E002C02F
:1006F000C0E2D0E00E94E8022A988C2F0E94360ABD
:10070000812F0E94360A802F0E94360A80E00E94C4
:10071000360A2A9A0E943D03DF91CF911F910F91D3
:10072000089583B7816083BF1092C10080E187B9CB
:100730003D98459A8AB18E7B8AB98BB181648BB919
:100740001EBA0E94E50F0E94C1040E94280A0E945E
:10075000170A1EBA10926B00109268000E94970E42
:100760000E94410A08950E9491030E94DC088FEFC5
:100770008DBF0C94060C08950CC080911B019091C4
:100780001C0124E0959587952A95E1F781700E94D8
:10079000D3090E940105882381F30895299A8CB515
:1007A0008F7B8CBD20918400309185002F5F3F4F5F
:1007B0008DB58EB58091840090918500A901481B6C
:1007C000590B57FFF5CF8CB580648CBD0895FB01A4
:1007D0004115510501F19C013F7784E00DB407FC00
:1007E00002C08150D9F78EB5299A0000299882E07D
:1007F0008EBD0DB407FEFDCF3EBD0DB407FEFDCF8F
:100800002EBD0DB407FEFDCF80818EBD41505040FE
:1008100011F03196F6CF0895482F282F30E082FF4F
:1008200002C082E004C0C90196958795817023FDBE
:1008300083E024FD84E025FD85E026FD86E047FD7C
:1008400087E008951F93CF93DF93282FC09108016D
:10085000D091090110910501809118012817F1F438
:10086000CE0183709070029720F08091070187FF7E
:1008700007C0219709F081C080910701863024F0DC
:1008800081508093070179C086E08093070185E05D
:1008900090E090930901809308016FC020931801A4
:1008A000C130D10559F0C130D10558F0C230D10561
:1008B00079F0C330D10509F059C02BC0222309F4C7
:1008C00053C0822F0E940C048093050122964EC0D3
:1008D000222309F58091070187FD46C0E0910601BA
:1008E000143029F481E08E1B809306013DC0F0E0B6
:1008F00063E0EE0FFF1F6A95E1F7E10FF11DE85984
:10090000FF4FE491E093040110920601C4E0D0E0AF
:100910002DC0222349F181E090E0012E02C0880F12
:10092000991F0A94E2F7281B822F0E940C04E09181
:100930000601F0E053E0EE0FFF1F5A95E1F7E10FDB
:10094000F11D43E0EE0FFF1F4A95E1F7E80FF11D9F
:10095000E858FF4F8491823D21F08093040110926A
:100960000601C5E0D0E002C0C0E0D0E080E18093A5
:100970000701D0930901C0930801DF91CF911F9126
:10098000089587B1807F87B988B18F6088B95798FB
:100990005F9A2098289A089520910B01222351F400
:1009A00086B180958F7080930C012098289A579A71
:1009B0005F980EC096B190959F7080910C018295C2
:1009C000807F892B80930C0157985F9A209A2898F2
:1009D0002F5F217020930B0180910C0108950E94DC
:1009E000CC04982F80910B01882351F480910A0147
:1009F000981721F4892F0E942204089590930A01E8
:100A00000895209108013091090122FD02C080E083
:100A10000895809104012B7F3093090120930801F0
:100A20000895CF93DF9380910F01C0910D01D09174
:100A30000E01C80FD11D8881805888830E9401054E
:100A4000982F8823D9F3888180588883892FDF9154
:100A5000CF9108950E94120320E28331920749F05A
:100A600020E28331920740F083519043029720F4B3
:100A700006C020E031E005C020E030E002C020E107
:100A800030E0C90108950E94120320E283319207E9
:100A900049F020E28331920740F08351904302975E
:100AA00020F406C020E031E005C020E030E002C0C4
:100AB00020E830E0C9010895CF93DF930E9412032C
:100AC00020E38331920739F020E38431920749F023
:100AD0008351904219F4C0E0D8E005C0C0E0D0E0F6
:100AE00002C0C0E0D0E10E9443059E01281B390BE3
:100AF000C901DF91CF9108950F931F93CF93DF9397
:100B0000EC010E945C058C010E942A05081B190B50
:100B100016950795C017D10710F420E00BC00E946E
:100B20002A0520E00197969587958C239D23892B94
:100B300009F421E0822FDF91CF911F910F91089549
:100B4000CF92DF92EF92FF920F931F936C017B0184
:100B50000E945C058C011695079501501040C80154
:100B6000880F892F881F990B91958E0D9F1DB601B7
:100B70000E94EE020F771070000F111F0C0D1D1D4B
:100B8000F801808191811F910F91FF90EF90DF908C
:100B9000CF900895CF93DF93EC010E94CE03CE0156
:100BA00060E070E00E94A0058F5F9F4FE1F40E941B
:100BB0005C05FC01F695E7953297EF77F070EE0F44
:100BC000FF1FEC0FFD1F808191818F5F9F4F41F0D0
:100BD000CE0160E170E00E94A0058F5F9F4F19F089
:100BE00020E130E002C020E030E0C901DF91CF9188
:100BF0000895EF92FF921F93CF93DF93EC017B0157
:100C0000CB010E94CA05892B21F080E090E4C8271F
:100C1000D927D6FD02C010E001C010E1DF73CC0F70
:100C2000CD2FCC1FDD0BD1951C0F812F90E0B7018C
:100C30000E94EE02812FDF91CF911F91FF90EF90E4
:100C40000895CF93DF930E94CE030E94DC08C0E09A
:100C5000D0E015C080E065E10E9473088EE191E06C
:100C60000E94CA058C0F9D1F0E949D09CE014096CF
:100C70006EE171E00E94EE020E94110521960E9431
:100C80005C0596958795C817D90720F3DF91CF911A
:100C900008958F929F92AF92BF92CF92DF92EF9280
:100CA000FF920F931F93CF93DF935C016B010E9420
:100CB0005C054C0196948794E12C40E8F42EC0E04A
:100CC000D0E0CE019F738815990520F0C070D07CCC
:100CD000C050D04C8E010F7710700115110521F412
:100CE000CE01B6010E94F905000F111F0C0D1D1D4C
:100CF000F801808191818A159B0549F08F5F9F4F94
:100D000061F420E0E21620E8F20651F417C08FEFFC
:100D1000A8168FEFB80691F07E012196D7FFD1CFAC
:100D2000C701DF91CF911F910F91FF90EF90DF905E
:100D3000CF90BF90AF909F908F9008957E01F0CF9D
:100D4000CF92DF92EF92FF920F931F938C017B0162
:100D50000E94CE030E9443056C01C801B7010E94A6
:100D600049069C013F73220F331F2C0D3D1DC90105
:100D70001F910F91FF90EF90DF90CF9008950F9308
:100D80001F93CF93DF93EC018B0196FF04C00E9469
:100D9000CE03DF7309C00E94A006EC01B8016050C9
:100DA0007F4F01960E94EE02CE01B8010E94EE0232
:100DB000CE01DF91CF911F910F910895EF92FF9295
:100DC0000F931F93CF93DF937C018B018FEF9FEFE6
:100DD0000E944906EC010E945C059695879581501A
:100DE000904CC817D90748F0C8010E94CA050E9454
:100DF0006A0380E090E4C827D927CE01B8010E9499
:100E0000F905CF77D070CC0FDD1FC00FD11FF9824D
:100E1000E88290E0B8010E944203DF91CF911F91D8
:100E20000F91FF90EF900895CF93DF93EC01DF7364
:100E30000E945C05C817D90720F00E945C05C81BFA
:100E4000D90B0E9443059E01220F331F280F391F23
:100E5000C901DF91CF9108954F925F926F927F9277
:100E60008F929F92AF92BF92CF92DF92EF92FF92BA
:100E70000F931F93CF93DF938C016B010E942A0580
:100E800096958795782E0E945C05272D30E0FC0111
:100E9000F695E795E21BF30BC8019F738E179F072A
:100EA00020F0E801CE1BDF0B07C0E901C00FD11F06
:100EB00080E090E4C827D927672CCE010E94140750
:100EC0002C01C8010E9414075C01B60160507F4FDD
:100ED000CE010E94F905FE01EF77F070E058FF4F58
:100EE000EE0FFF1FEC0DFD1D80809180C401B60147
:100EF0000E944906C817D90731F50E9443058E01A3
:100F00001F73000F111F080F191FC801B6010E949F
:100F1000EE0275010894E11CF11CC501B6010E94A6
:100F20004203C8010196B6010E94EE0257010894DF
:100F3000A11CB11CC701B6010E944203C401B60145
:100F40000E94DE066A947A9411F02196C4CFC20101
:100F50000E946A0380E016140CF081E0DF91CF91CB
:100F60001F910F91FF90EF90DF90CF90BF90AF90C7
:100F70009F908F907F906F905F904F900895CF9249
:100F8000DF92EF92FF920F931F93CF93DF937C0139
:100F90008B01EA010E94CE03C801BE010E944203F8
:100FA000C12C31E0D32ECC0EDD1EC8010196B60156
:100FB0000E944203C701BE010E94DE06EE24E394B4
:100FC0008FEF9FEFBE010E9449068C01B6010E947F
:100FD0007C05882349F0EE2039F0C801BE010E944B
:100FE0002C07E82E882361F7DF91CF911F910F9195
:100FF000FF90EF90DF90CF900895CF92DF92EF9225
:10100000FF920F931F93CF93DF930E9412036C0103
:101010000E942A05C0E0D0E07C010894E108F108B4
:1010200020C083E1C81680E2D80681F4209771F0D1
:10103000C031D10559F0C032D10541F0C034D105DD
:1010400029F0CE018E219F21892B51F480E064E1AB
:101050000E947308CE010E949D09CE010E946A037E
:1010600060960E945C058C010E944305080F191FC1
:10107000C017D107B0F2DF91CF911F910F91FF9070
:10108000EF90DF90CF9008950E94BC03089597FDE4
:1010900002C080E008958EE191E060E070E040E001
:1010A00052E00E94301181E008950F931F93CF9377
:1010B000DF93EC018FEF9FEF6EE171E00E94A006DD
:1010C000182F092FCE010E944708882329F4CE014A
:1010D0006EE171E00E94BF06812F902FDF91CF91CA
:1010E0001F910F91089599E1699FB0011124625EEB
:1010F0007E4F70930E0160930D0180930F01089550
:10110000EEE1F1E0818D819383E0ED35F807D0F3D6
:1011100002C0819301C080E293E0E637F907C8F38B
:1011200080910D0190910E01499790930E0180934B
:101130000D010895CF93DF93EC0103C081E00E947D
:10114000800880910D0190910E018C179D07B0F7DA
:10115000DF91CF910895CF93DF93EC018D3091050E
:1011600029F489E180930F01C0E0D0E080910F0164
:10117000893158F010920F0180910D0190910E016C
:10118000499690930E0180930D0186E793E00E94AB
:101190009A08209771F080910F01E0910D01F09174
:1011A0000E01E80FF11DC08380910F018F5F8093C6
:1011B0000F01DF91CF910895EEE1F1E080E281939C
:1011C00093E0E637F907D8F380E060E00E94730807
:1011D0000895282F823308F04FC0603308F04CC0C8
:1011E000862F869599E1899FF0011124822F86959B
:1011F000E80FF11DE25EFE4F60FD02C052E001C04B
:1012000058E020FD56950AB401FC02C030E001C050
:10121000352F0AB400FC02C040E001C0452F908188
:10122000903A31F0892F8877803111F020E006C0A4
:10123000292F277827FF02C08FE82827852F809540
:101240008323942F932B9095982B922330953523BD
:101250003423932B452320954223942B93FF02C0E4
:101260008FE89827292F205F822F90E08770907059
:10127000892B09F4205F208308950F931F93CF9348
:10128000DF938F3908F04CC06F3908F049C090E007
:10129000EC01C87FD070C058DC46262F2770C20FE3
:1012A000D11D24E1687F629FC00DD11D112487707C
:1012B000907040E850E002C0559547958A95E2F756
:1012C000242F0AB401FC02C010E001C0142F0AB49C
:1012D00000FC02C000E001C0022F84E00DB407FC56
:1012E00002C08150D9F78EB5299A00002998CE0105
:1012F0000E94DA090DB407FEFDCF8EB5202F282BF2
:10130000912F90952923809518231023212B20932A
:101310001001CE0160E171E041E050E00E94E7037E
:10132000DF91CF911F910F910895F09B03C00E9410
:101330003D0908950E94E9080895EF92FF920F93E6
:101340001F93CF93DF93EC0180E30E94270B88E784
:101350000E94270B10E000E07E019F2D92959F7068
:10136000905D892F91332CF4133019F0002341F054
:1013700001C001E09A3314F0892F895D0E94270B88
:101380001F5F143031F084E0CC0FDD1F8A95E1F748
:10139000E3CF80E20E94270BDF91CF911F910F9145
:1013A000FF90EF90089598B1811180E19F7E892B85
:1013B00088B90895282F83E08EBD0DB407FEFDCFB8
:1013C0009EBD0DB407FEFDCF2EBD0DB407FEFDCFB3
:1013D0001EBC0895FF920F931F93182F092FF62E0E
:1013E000299882E00E94360A802F0E94360A812FB7
:1013F0000E94360AFEBC1F910F91FF900895FF9244
:101400000F931F93182F092FF62E299882E00E9420
:10141000360A802F0E94360A812F0E94360A8F2DAD
:101420000E94360A299A1F910F91FF9008952998DA
:1014300081E00E94360A81E40E94360A299A0895C2
:10144000299885E00E94360A0E943B0A299A08954D
:1014500084B1817C8E6284B985B1817C866085B9D6
:101460008DB581608DBD80E58CBD08958EBD0DB4B8
:1014700007FEFDCF08951EBC0DB407FEFDCF8EB54F
:101480000895CF93DF93C8EFD0E00E94DC0826EEEA
:1014900031E013C0FE01E80FF91FE491D901A80F54
:1014A000B91FEC93019689319105A1F7699682E005
:1014B0002C37380729F0275E3F4F80E090E0EACFD5
:1014C00020911B0130911C012C593F4F80911B0131
:1014D00090911C0128173907C9F7DF91CF91089522
:1014E00078948F939F93809100018A958093000157
:1014F00071F090E280FD91E297BD90910101089416
:1015000097959093010182E828F482EC03C080E073
:1015100085BD82E084BD9F918F9118958F930F9325
:1015200085B58823E9F7009301010BE000930001E2
:1015300080E287BD82E884BD80E086BD83E085BD12
:101540000F918F910895082FE9CF8F939F935E9A03
:10155000569A882785BD80916E00826080936E00C8
:1015600078949F918F910895CF93DF93CDB7DEB795
:10157000EF93FF932F933F934F935F936F937F93DB
:101580008F939F93AF93BF930F921F921FB61F929B
:101590001124FB81EC81EE0FFF1F25913591F6950B
:1015A000E795EC83FB83F901F695E79509951F9084
:1015B0001FBE1F900F90BF91AF919F918F917F9110
:1015C0006F915F914F913F912F91FF91EF91DF913B
:1015D000CF9108950F931F93CF93DF93EC010E9457
:1015E000CE03E881F0E09981909580818923808302
:1015F0000CC0EA81FB818191FB83EA830E94360A59
:101600008C819D8101979D838C838C819D81892B09
:1016100081F70EC01E810F810E943B0AE12FF02F3F
:101620008193FF83EE8388859985019799878887C1
:1016300088859985892B71F7E881F0E0808199810F
:10164000892B8083DF91CF911F910F910895992766
:101650000C94AB08D7FD04C0FE018591219606C00D
:1016600021968DB587FFFDCF8EB58EBD089597FF6E
:101670001BC06F936DB567FFFDCF299A7F934F9382
:101680005F9329980E94DA099F918F91BF91AF9142
:1016900001C06EBD6DB567FFFDCF6EB56D9301974F
:1016A000C1F7299A6EBD0895FC01DB01CA0145917D
:1016B0004D930197E1F70895299A8EBD08956C0C1A
:1016C0007D1C8C0C9D1CA6014830510508F048E09B
:1016D000641A7108841A9108A42E50E0C30160E1D5
:1016E00071E0C5DFC40160E171E04A2D50E00E9465
:1016F000E703CA18D10839F72DC04115510589F102
:10170000903180F17031A8F1DF92CF92AF929F9229
:101710008F927F926F926A013C014B018617970767
:1017200070F2A6014830510508F048E0A42E50E0C0
:10173000C30160E171E09BDFC40160E171E04A2D0B
:1017400050E00E94E7036A0C711C8A0C911CCA18B5
:10175000D10839F76F907F908F909F90AF90CF9086
:10176000DF900895703130F0FC01CB01BF010C9483
:10177000E7037DCFFC01DB01CA01EA17FB0728F074
:1017800061916D930197E1F70895E80FF91FA80F94
:10179000B91F62916E930197E1F7089529988EBD64
:1017A00005D08DB587FFFDCF299A08956115710584
:1017B00031F1903128F1DF92CF92BF92AF926C015C
:1017C0005B016830710508F068E070E0A0E1B1E00D
:1017D00018D0C60148E050E0A416B50608F4A501EB
:1017E000A41AB50AC40ED51E60E171E00E94E70399
:1017F000A114B10471F7AF90BF90CF90DF9008951E
:10180000DC01CB014D930197E9F708950E948A0E00
:10181000EC0180E090E029980E94DA0986EF93E0DD
:101820007C018DE49EE03C01D7FF34C08DB587FF7D
:10183000FDCF299ACE0129980E94DA0913C0D7FF5B
:101840000BC0D82DCDB5C7FFFDCFCEB5299ACE019F
:1018500029980E94DA0906C0FE01C491D82D1AC049
:10186000D7FF18C021968DB587FFFDCF8EB58EBDF1
:101870008D3320F4F301E80FF11D09942196DF93D5
:10188000CF93D82F87FDDECFCDB5C7FFFDCFCEB527
:10189000299ACEBDFE01859121968D3320F4F30166
:1018A000E80FF11D09942196DF93CF93D82FC591AE
:1018B000F1CFC801D7011E910E917D018D339105A5
:1018C00070F3DF93CF93EC01AFCFD7010D931D934E
:1018D0007D0110E000E0C4CF90E002C0BBDE982F95
:1018E000D7010D931D937D01B5DE8C01B9CFD701D2
:1018F0001E910E917D01B4CF012BD7011E910E9147
:101900007D0111F0229690CFA5DE882E98CFA2DE21
:10191000882ED60111966D01CA14DB040AF48FCF0C
:1019200099DECF90DF90AF90BF909ACF93DE882E54
:10193000D601A00FB11F6D01AA19BB09B127F7018C
:10194000129102917F01B7FDEACFEACFBF92AF9229
:10195000DF92CF92D7016801BE90AE901E910E919A
:101960007D017ECFD7017E916E914427069F400175
:10197000169F612D900C641F079F900C611D179F8F
:10198000712D600D741F8B018D929D9211247D012C
:1019900067CFD70111978E9111976E91F801F89446
:1019A00000818023862B8083789411277D0158CF76
:1019B000D7019E918E917E916E9121E2441B551B21
:1019C00007C0441F551F4017510710F0401B510B13
:1019D000661F771F881F991F2A9599F76095709544
:1019E0004D935D938B017D013BCFD7019E918E91ED
:1019F000082319237D0134CFD7019E918E91082BA6
:101A0000192B7D012DCFD7019E918E910827192783
:101A10007D0126CF650124CFD7010D931D937D0154
:101A20000F911F911DCFD7010D931D937D01EDB730
:101A3000FEB70181128114CF1F930F93D7011E911E
:101A40000E917D010DCF012B09F00FEF0095102FA6
:101A500007CF002717FD0095102F02CFD7019E91C9
:101A60008E91080F191F7D01FBCED7019E918E919B
:101A70007E916E915E914E91840F951F061F171FE8
:101A80008D939D937D01ECCE109501951F4FE8CE6F
:101A9000D7019E918E9190950095109581959F4FBD
:101AA0000F4F1F4F8D939D937D01DACED7010D937C
:101AB0001D937D0114970D911D91D2CED7019E915A
:101AC0008E910D931D938C01CBCED7010D931D9359
:101AD0007D01C6CE42E068E003C041E069E08824B1
:101AE000C80170E050E0C3DD092D182D9DCE41E006
:101AF000D70111978E9004C042E0D7018E909E903E
:101B0000C8011E910E9168E070E050E07D010E94D6
:101B1000E7038ACED7010D931D9386017D01A0CEE8
:101B20000F5F1F4F9DCEFE013196F695E795099404
:101B3000D8010C91112794CED70111978E91F801FD
:101B40001E910E917D0180838BCED7010D931D9345
:101B50007D010091190110911A01080F111D0895BE
:101B600079DDF3DFD8010D911C917ACE73DDEDDFC5
:101B7000D7019E918E91F8011E910E917D01F894EE
:101B80008193908378946CCEC8010E94AB08AFCE4D
:101B9000C8010E949D09ABCEE3E7F8E0D7019E9112
:101BA0008E917D01B8010995D7011E910E917D019D
:101BB0003BCECF91DF9138CE0150104051CEE6EDB3
:101BC000FBE048C0D7019E918E9104C0892F9927D0
:101BD000085F1F4F08301005C8F702C0969587951B
:101BE0000A95E2F78C017D013BCED7019E918E9143
:101BF00004C0982F8827085F1F4F08301005C8F7CA
:101C000002C0880F991F0A95E2F78C017D0128CE4A
:101C1000299885E08EBDD7011E910E917D0104CEDD
:101C2000C8010E9455088C0180E09EEF6EE171E0D2
:101C300040E052E00E94E703F7CDC801D7017E9152
:101C40006E914EE151E07D010E94BF07E1CFEDE7CB
:101C5000FBE000C0A801D7017E916E919E918E910C
:101C60007D010995D8CFE5E9F9E098CFC8010E9438
:101C7000EA0AD1CFF5CDC8013ACED7010D931D9315
:101C80007D018E0196CFD7010D931D937D01E2DC7E
:101C9000182FE0DC082F8DCFB9CDE2CD1FCE09CEB5
:101CA00026CE2ACE31CE33CE41CE50CE5BCE71CEB3
:101CB0007FCE9BCEA1CEA7CEADCEAECEADCEB3CE97
:101CC000BBCEC1CEC6CECACED0CEDECEE1CEEECE1B
:101CD000F5CEFBCEFFCE01CF0ACF0ECF1BCF20CF4C
:101CE00022CF26CF29CF3ECF43CF4ECF39CF50CFB3
:101CF000ECCDF2CD51CF5DCF5FCF61CF37CF62CF8B
:101D000074CF8ECF9ACFA3CFAECFB0CFB3CFB3CF58
:101D1000B4CFB9CFE0E0F8E524913196E491922F69
:101D200080E02E2F30E0282B392BC901089583E85D
:101D300083BD83E38093B0008AE08093B10010926A
:101D4000B2008FE98093B3008BE08093B4001092CF
:101D5000800022E020938100109285001092840080
:101D60008BE090E0909389008093880020936F002F
:101D700050988AB18A608AB98BB1857F8BB988E027
:101D800080931D01E4ECF0E01182108280EC8093DE
:101D9000C2001092C10081E090E09183808378942A
:101DA00013BC08951F920F920FB60F9211248F93B8
:101DB0009F9380911D01873009F043C00E94F40F6A
:101DC00080910201882389F58091070187FD07C072
:101DD00080918800909189008151984D06C0809132
:101DE0008800909189008953924E90938900809346
:101DF0008800F09B0AC080918800909189008050F3
:101E0000964F909389008093880088E080931D010D
:101E100080911B0190911C01019690931C0180936D
:101E20001B010E94B40ADE09C9C08091880090910C
:101E3000890081579F4F909389008093880086E0A6
:101E400028C0833009F442C0843028F4813021F165
:101E5000823088F50DC0853009F472C0853008F4F1
:101E600044C0863009F489C0883009F0A7C09AC000
:101E70008FE48093B30085E08093B4008091880064
:101E800090918900845B9E4F909389008093880095
:101E900081E080931D0192C089E48093B400809119
:101EA00088009091890080579E4F9093890080937D
:101EB000880082E0EECF8091880090918900CE96D4
:101EC000909389008093880083E0E3CF85E080933E
:101ED000B40080918800909189008A569E4F90931B
:101EE00089008093880084E0D4CF8FE98093B30089
:101EF0008BE08093B400F09B0FC080E180930201DF
:101F0000809188009091890084549D4D9093890020
:101F10008093880085E00DC01092020180918800B6
:101F2000909189008454924E909389008093880008
:101F300086E080931D0178940E94B40ADE093EC0B9
:101F4000809188009091890080509B4F90938900E8
:101F50008093880086E080931D0180916B008260F1
:101F600080936B0080916800816080936800D89AAC
:101F7000299B24C02998299A21C080916B008D7FCC
:101F800080936B00D89A8091880090918900419647
:101F9000909389008093880087E080931D01789456
:101FA00088950CC080918800909189008C569F4F35
:101FB000909389008093880010921D019F918F91CA
:101FC0000F900FBE0F901F90189527EA31E0A6E7FB
:101FD000B3E005C0F90184918D932F5F3F4FF3E08B
:101FE000A63FBF07B8F308950F921F92EF93FF9398
:101FF0000F93AF93BF93CF93DF93D0910201D03C67
:10200000A0F5F39998C0A9E1BD2FB695B695B69500
:10201000AB9FAEE1B1E0A00DB11DD7701F9318E1E9
:1020200008E0F0E0E8E0F093C600E093C100ED9135
:10203000CE2FEF770E9F0D0EE03130F0E7EAF1E0A2
:10204000E00DF11DE49106C0E6E7F3E0E00DF11DBF
:10205000E08100C0C7FDE095F091C000F5FFFCCF26
:10206000E093C60011501AF73CC01F93E09106019F
:10207000E0FDE0E4F0910501FF0FFF0FFF0FEF0F10
:10208000F0E0D3FDEC5FA8E7B0E0AE0FBF1FE7EADA
:10209000F1E0CD2FC770D0E0CE0FDF1F10E0E8E0F9
:1020A000E093C100FD010491003208F400E2E8E091
:1020B000F02FFF77EF9FFE01E00DF11D049007FF69
:1020C0000094F091C000F5FFFCCF0092C60011967D
:1020D0001F5F143038F3D0910201DF5FD03D48F428
:1020E00009C0D0910201DF5FD03C20F0F0910701E0
:1020F000F7FFD0E0F091C000F5FFFCCFA0E0A09387
:10210000C100D03C51F4E0918800F0918900E85D75
:10211000FF4FF0938900E0938800D09302011F9154
:10212000DF91CF91BF91AF910F91FF91EF911F90F0
:102130000F90089500001F93F49B3DC0AEE1B1E005
:102140000EEB11E0F801D3FD8D01D3FDDF01F0E0CE
:10215000D770AD0FBF1FE4E1DE9FE801C00DD11DB8
:1021600014E1E8E0F093C600E093C1000DB507FF6D
:10217000FDCF0EB50EBD0993EC9118960091C000ED
:1021800005FFFCCFE093C6001A9581F7D0910201BC
:10219000DF3A08F4A6CF0DB507FFFDCFF2990EB5D3
:1021A000D05F299AF49B05C09ECFC0E405C0C0E271
:1021B00003C0C0E101C0C8E0DC2FB09BFECFB09AE5
:1021C000DA95D9F7349AF8CF0F930FB70F930091A0
:1021D0000201003109F0EBCFF499E7CFF19829998A
:1021E000F19A00916B000D7F00936B001F93AF93EA
:1021F000BF931F9211240DB5F29807FDF29A299A08
:10220000F39AF49AA0E8B3E11BD000EAAEE1B1E0A2
:102210001DB517FFFDCF1EB50EBD1D930A95C1F765
:10222000D89A7894299BFECFF19B2998F398F4983B
:102230001F90BF91AF911F910F910FBF0F911895F4
:10224000299803E00EBD0DB507FFFDCFBEBD0DB54E
:1022500007FFFDCFAEBD0DB507FFFDCF0EBD089545
:10226000DC01CB01FC01F999FECF06C0F2BDE1BD56
:10227000F89A319600B40D9241505040B8F7089545
:04228000F894FFCF00
:042284000000000056
:1058000061B7046B65726E0000580223FE017E963C
:10581000E00FF11FE00FF11F17FD03C00591149178
:1058200002C0159104910C94D90D01A700978465CD
:105830007865635802582E028169582E58382185A0
:105840006C656176655838583F0F83616E64583FC8
:10585000584A0C826F72584A58530D83786F7258A9
:1058600053585B0E823E3E585B586432823C3C5833
:1058700064586C33823B73586C58742E82723E5855
:1058800074587C11823E72587C58841381725884FB
:10589000588C1282303D588C58931482303C589367
:1058A000589B15812B589B58A31682642B58A358DC
:1058B000AA17856D696E757358AA58B21886646DFB
:1058C000696E757358B258BD19846F76657258BD8C
:1058D00058C91A8464726F7058C958D30384737797
:1058E000617058D358DD1B8364757058DD58E71C10
:1058F000814058E758F01D82634058F058F71E81E8
:105900002158F758FF2082632158FF59061F8275DE
:105910002A5906590E0982752F590E59160B84659E
:105920006D69745916591E2884706C6F74591E590C
:10593000283782312B592859322285636D6F76655D
:105940005932593A368466696C6C593A59453083F4
:105950006963405945594F2483696321594F595808
:1059600025826940595859612682692159615969CE
:1059700027863E706F72743E596959710A8373703D
:10598000695971597D3882312D597D59862F82612F
:10599000745986598E2D842E686578598E59962AA9
:1059A00084626C6B3E599659A034843E626C6B598C
:1059B000A059AA35826C3E59AA59B429823E6C5925
:1059C000B459BC31046C6F637359BC59C4111B5B6F
:1059D00069261B181A161C5B69275B5526135B5535
:1059E0002713132E046C6F633B59C459E411111132
:1059F0005B55275B6927032E036B657959E459F8DA
:105A000023000E94110509C005696E6B657959F87C
:105A10005A0823000E94010500C09927D7010D9361
:105A20001D938C017D010C94D90D03636C735A088E
:105A30005A2A23000E94DC080C94D90D0263725A82
:105A40002A5A3C2C0D282E05636F756E745A3C5AE9
:105A5000471C221B1E2E04747970655A475A565CE7
:105A6000F0045A711A161B08211E28065A68055A96
:105A700072032E0573706163655A565A735B23284F
:105A80002E067370616365735A735A812B621C5CB6
:105A9000F0045A9B2B085A7D065A962E04282E2273
:105AA000295A815A9C125A511C221116135A5F2EE0
:105AB000422E225A9C5AB02C225BFD1D045ACE5E07
:105AC000575AA55FE05C6C1E225C7A055AD65FE0EF
:105AD0005C6C5A515A5F2E0565726173655AB05AF3
:105AE000D72B302E06626C616E6B735AD75AE45B0B
:105AF00023302E037661725AE45AF32C3B055B0C7B
:105B000005636F6E73745AF35B002C3C606B5E84AC
:105B10005C945C852E81305B005B152B02626C5BB4
:105B2000155B1C3C0020047672616D5B1C5B263C9F
:105B3000011E05636C6F636B5B265B323C011B07C8
:105B4000737973766172735B325B3F3C010D027354
:105B5000665B3F5B4E3C01190269275B4E5B583C1C
:105B6000000A0272705B585B623C005D0273705BFE
:105B7000625B6C3C000E037370305B6C5B763C03C5
:105B8000F68022001F00018082800C800C6A4E0388
:105B90007469625B765B8F3C80000577696474682A
:105BA0005B8F5B9A3C8002077761726E696E675B00
:105BB0009A5BA73C80040264705BA75BB63C8006DE
:105BC00007636F6E746578745BB65BC03C800807D2
:105BD00063757272656E745BC05BCF3C800A02694C
:105BE0006E5BCF5BDE3C8012036F75745BDE5BE83F
:105BF0003C80140573746174655BE85BF33C80164C
:105C000004626173655BF35C003C80180364706C34
:105C10005C005C0C3C801A03666C645C0C5C173C9A
:105C2000801C03686C645C175C223C801E04626C00
:105C30006B235C225C2D3C8020022B215C2D5C3987
:105C40001B1A1D161B202E06746F67676C655C3966
:105C50005C471A1E0E1B1F2E02322B5C475C582C11
:105C600002162E04686572655C585C635BBD1D2E70
:105C700005616C6C6F745C635C705BBD5C402E0195
:105C80002C5C705C7F5C6C202C025C7A2E02632C96
:105C90005C7F5C8D5C6C1F2C015C7A2E012D5C8D11
:105CA0005C9C18162E013D5C9C5CA55CA2142E0128
:105CB0003C5CA55CAF5CA2152E013E5CAF5CB91BE1
:105CC0005CB52E03726F745CB95CC3131B111B2E81
:105CD00004326475705CC35CD01A1A2E036E69704E
:105CE0005CD05CDC1B032E043F6475705CDC5CE7FD
:105CF0001C045CF51C2E02753C5CE75CF65CD90E5E
:105D000015045D081B03152E5CA2152E066C61742C
:105D10006573745CF65D0C5BDB1D1D2E07706661A0
:105D20003E6366615D0C5D1C1C5D401E2C800C0496
:105D30005D331E2E077066613E6E66615D1C5D34CC
:105D40002C025CA21D2E076E66613E6C66615D349E
:105D50005D461C1E2C1F0C16222E076E66613E70BF
:105D600066615D465D5A5D522C04162E0369642EF1
:105D70005D5A5D6C1C221B1E2C1F0C5A5F5A7D2E17
:105D8000076D6573736167655D6C5D805AA5064537
:105D9000727220232064A22E056572726F725D807C
:105DA0005D985BB31D15045DAB617B5C6C5A515A09
:105DB0005F5AA5013F5D8C6155063F6572726F7237
:105DC0005D985DB91B045DCA5DA2032E053F636F3C
:105DD0006D705DB95DCC5BFD1D142C115DC42E058D
:105DE0003F657865635DCC5DDF5BFD1D2C125DC496
:105DF0002E063F70616972735DDF5DF15CA22C134A
:105E00005DC42E413A5DF15E035DE9606B5E732E09
:105E1000413B5E035E105E57002E5E845E682E0975
:105E2000696D6D6564696174655E105E1F5D172C38
:105E3000405C522E02782C5E1F5E341C01FF000C69
:105E4000045E485C85055E4A5C942E07636F6D7046
:105E5000696C655E345E4B5DD6111C1D5E3B5C5FFC
:105E6000132E415B5E4B5E622B5BFD202E015D5E5F
:105E7000625E6D2C405BFD202E06736D7564676558
:105E80005E6D5E795D172C205C522E073C62756951
:105E90006C64735E795E8B606B5E842B5C852E45D3
:105EA000646F65733E5E8B5E9F015EB35C852C10F4
:105EB0005C942E115D175D66202E41285E9F5EBAB0
:105EC0002C295FE02E036865785EBA5EC52C105CF5
:105ED00009202E07646563696D616C5EC55ED32C15
:105EE0000A5C09202E0564696769745ED35EE51358
:105EF0002C305CA22C091A5CB5045F062C075CA24E
:105F00001C2C0A5CB50D1C115CFD2E08286E756DED
:105F1000626572295EE55F0B221C131E5C091D5E23
:105F2000EF045F421B5C091D09035CCB5C091D0982
:105F3000175C141D22045F3E2C015C145C401105AB
:105F40005F1803112E066E756D6265725F0B5F45FB
:105F50002B2B5CCB1C221E2C2D5CAB1C135CA201DA
:105F6000FFFF5C14205F181C1E5B235CA2045F7D96
:105F70001C1E2C3A5CA22B5DC42B055F620311042E
:105F80005F83192E03626C3F5F455F842E07656E49
:105F9000636C6F73655F845F8D131C1C055FA022AB
:105FA0001C1E2F2CE00C045F9F5CD91B5CA25CCBF9
:105FB0005CCB1C1E2C1F5CBF045FD01C1E125CA29D
:105FC00014045FCC11031B5CA21C222E22055FB2BD
:105FD0001B5CA21C11032E04776F72645F8D5FD768
:105FE0005B971D5BE51D161B5F995C6C2C225AEFBD
:105FF0005BE55C401A5CA213125C6C1F165C6C22A1
:1060000011362E1305600E112F131B221B221A1E90
:106010001A1E5CA212140D0460070303112E052D35
:1060200066696E645FD7601E5B235FE05C6C5D1722
:106030001A1E1A1E2C3F0C5CAB0460571A221A1C45
:10604000221B1E2C1F0C6003140460575CE41C5DB3
:10605000661B1E01FFFF2E5D521D1C140460302EB6
:1060600006637265617465601E6060602804607D0F
:10607000035D405D742C045D8C5A7D5C6C1C1C1EA1
:106080005BA41D620A1C225C7A2C200D1A1F5D176E
:106090005C855C855BDB1D202E495B636F6D7069E1
:1060A0006C655D606060996028142B5DC4035D2899
:1060B0005E3B2E476C69746572616C609960B35B7E
:1060C000FD1D0460E45CF00460E01C01FF000C04B2
:1060D00060D92C015C945C852E2C2C5C945C942EF5
:1060E0002C2B5C942E48646C69746572616C60B38F
:1060F00060E55BFD1D0460FD1B60BF60BF2E40605E
:10610000B360FE0180225B972011032E09696E7433
:1061100065727072657460FE610C60280461372CD2
:106120007F0C5BFD1D5CB50461315D285E3B056144
:10613000345D28020561485F505C141D22046145EE
:1061400060F20561480360BF05611A2E047175692C
:1061500074610C614C5E685A436A582C015BE520FF
:10616000611A5BFD1D1404616E5AA5024F4B056157
:10617000570561626F7274614C61715B7E5B73275E
:106180005EDF5A435A325AA5234649476E697469FD
:106190006F6E200D7F6E696368656D616368696EFF
:1061A000657320323031312D323031326155046324
:1061B0006F6C64617161AE015B810180002C0E36F1
:1061C000617B04732D3E6461AE61C21C152E022BEF
:1061D0002D61C261CE150461DA182E03642B2D6186
:1061E000CE61DB150461E8192E0361627361DB6126
:1061F000E91C61D52E046461627361E961F51C617B
:10620000E32E036D696E61F562021A1A5CBF0462C7
:10621000121B032E036D6178620262141A1A5CB5B8
:106220000462241B032E026D2A621462261A1A0EBF
:106230001361F11B61F1091161E32E012A622662EB
:106240003B09032E052A2F6D6F64623B6244136283
:106250002D1162682E022A2F62446255624E1B0382
:106260002E026D2F625562611A131361FE1261F1E5
:106270000B11120E61D51B1161D51B2E042F6D6FF2
:10628000646261627C1361CB1162682E012F627CB3
:10629000628C62851B032E036D6F64628C62976251
:1062A00085032E056D2F6D6F64629762A3132B1209
:1062B0000B111B130B112E412762A362B760281428
:1062C0002B5DC40360BF2E046261636B62B762C75B
:1062D0005C852E45626567696E62C762D35DD65C78
:1062E0006C2C012E45656E64696662D362E45DD6EE
:1062F0002C025DFC5C6C1B202E447468656E62E4AD
:1063000062F962EE2E42646F62F963055E5700081F
:106310005C6C2C032E446C6F6F70630563152C034B
:106320005DFC5E57000662D02E452B6C6F6F70636C
:106330001563292C035DFC5E57000762D02E45755E
:106340006E74696C6329633E2C015DFC5E5700042A
:1063500062D02E43656E64633E635363482E45618D
:106360006761696E6353635E2C015DFC5E570005D7
:1063700062D02E46726570656174635E6373131339
:10638000636811112C025CA262EE2E42696663738F
:10639000638B5E5700045C6C2B5C852C022E44657D
:1063A0006C7365638B639E2C025DFC5E5700055C1D
:1063B0006C2B5C851B2C0262EE2C022E45776869E3
:1063C0006C65639E63BC63925C5F2E1A5CAB111BB1
:1063D0000463DB1B032C02160563DC1D132E04680B
:1063E0006F6C6463BC63DE01FFFF5C2A5C405C2A67
:1063F0001D1F2E0370616463DE63F35C6C2C441616
:106400002E023C2363F3640163FB5C2A202E0223EB
:106410003E6401640E03035C2A1D63FB1A5CA22E1A
:10642000047369676E640E64205CCB150464332CBE
:106430002D63E72E0123642064345C091D62AD5C8A
:10644000CB2C091A5CB504644C2C07162C3016634F
:10645000E72E02237364346452643A1A1A0D14044A
:1064600064592E03642E7264526463131B1A61FE16
:106470006408645964296415111A5CA25A8C5A5F25
:106480002E02642E646364812B646B5A7D2E022E6F
:10649000726481648E1361CB11646B2E012E648E45
:1064A000649C61CB64882E013F649C64A71D64A238
:1064B0002E046C6F616464A764B101FE005B971CDD
:1064C0001D13202B5BE51C1D13205C361D131C5C6B
:1064D0003620342B01FFFF1F03611A11115BE520E9
:1064E000111C5B972001FDFF5CBF0464F91C5C3646
:1064F0002034032B01FFFF1F2E032E046D6F7265E6
:1065000064B164FB01010D265B2F01023E165CBFE6
:106510000465215AA5066D6F72653E3E5A00035A06
:10652000322E05766C69737464FB65225A325D17EE
:1065300065041C5D745D521D5CF0140465302E060C
:10654000666F726765746522653F602804655E0347
:106550005D401C5BBD205D521D5BDB1D202E032EAC
:106560000370656E653F656001004A252E05766DF6
:106570006F64656560656D01011D242C085CAB04CA
:1065800065772CE10C2C1E01003E0A032EFFFD0056
:1065900000000000FE0000FFFF00000000000019E6
:1065A000001300FF010361743E656D65A52C19623F
:1065B00041165B2F162E06637572736F7265A565A3
:1065C000B601010F2401010D265B2F5CA22C19627C
:1065D000922E05636C426F7865A565D2131365AD85
:1065E000111B112B081A1A1B2C20302C19160665AA
:1065F000E503032E0463496E2265D265F4131A186D
:1066000015161A161C1E1C125CAB1B140D04660218
:1066100011031B032E04226C656E65F466152C01B4
:106620001A2B65FD1B5CA22E131A1B1165FD1B1591
:106630005CA22E1B15161E2E01FFFF1A2C0D6628BC
:106640005CA22912629F2E131A1514120C131A1A27
:106650002C0D66281A5CA21C61F129122F115CA274
:106660005CBF04667E1C61F12912620A1B61D51BA6
:106670001A161B61F1111629125CA20566C61C13BD
:10668000161A131A1A66331C1414110C130466BF5D
:106690001A16111103131A1A2C0D66281A5CA2611E
:1066A000F15CCB150466B02912629F1B1A5CA21B19
:1066B000115CCB5CCB11620A1B1A161B0566C61B4C
:1066C00003111B1111162E290C29165CB50466E660
:1066D00029061C221A1829001622290C221C310C0A
:1066E00016361C29061F032E1A131C131A13151411
:1066F000132912620A111B130466FF1A1A12362C90
:1067000019161B12161B1118111611221A141A2908
:10671000142F5CBF0D0466EA1B03111C2912629F33
:106720001312140C04672D1B2C19161B221C291480
:10673000225CB51A18150C0467491A2C195CA212B0
:106740001612182912162C203011032E2900222986
:106750000E291029085CA265AD2908181305677A6F
:106760001A1C2C011B2C0D65FD1B5CA21166E81385
:106770001B1C1E2C0D5CAB5CA21B1A1E14122914D0
:106780002F5CBF0D04676003031129141A5CBF045A
:1067900067A313290E1229101629122914115CA2BD
:1067A00065DC2B032E290E290216291029041665F3
:1067B000AD1C13245B3C261C5B3C265CA2150467C5
:1067C000CB12242C800E12252C32165A125CF004A7
:1067D00067B71B031B11252E2F1A620A2B621C1B85
:1067E0001A5CA22E31023106290416291467D81C1E
:1067F00029081631081B31042E290629026647672D
:10680000E42E29061A1A66331C04683E2C0D5CAB74
:106810000468291A161B150468231C663801FFFF3B
:106820000568262B2C010568371A161B2902162924
:1068300012162B29120B2F5CCB5CCB67E42E0303C3
:10684000032B2E66C72C016802032C012E29062F6C
:1068500029005CA21C0468711329061C2F290C1145
:106860005CA22201FFFF68020336290C2F310C2C99
:10687000012E2906310A2B2E2B290A2204688903AE
:10688000290A1C22310A1E68432E2C0763CB689507
:10689000684D0568FE2C0863CB68A301FFFF680202
:1068A0000568FE2C0963CB68B02C0168020568FE00
:1068B0002C0A63CB68BD2C0167F90568FE2C0B63BD
:1068C000CB68CB01FFFF67F90568FE2C0D63CB6831
:1068D000D82C0D68430568FE2CCD63CB68E3687245
:1068E0000568FE2CC363CB68EE68780568FE2CABA8
:1068F00063CB68FC032C8D2C010568FE032B2E1C3A
:106900002C1F5CBF1A2C805CB50C0469126843050F
:106910006914688A2E04691A674C67A51C68FF1BF6
:106920002C8D5CAB0469152E1C2C2F5CBF1A2C38E7
:106930005CB50C0469452C305CA229061E2C03337F
:106940000D29061F2B032E01658D010119262C1818
:10695000362B2900202E23000E94FD070C94D90D10
:106960002C142C132D5AA504436D643F5A001C2887
:106970002C7763CB698D5A322900225B2F290C2298
:1069800036291A291835674C032B0569AE2C7A6312
:10699000CB699869470569AE2C4563CB69AC5A0051
:1069A0002C595CAB0469A969560569AE69282E04A7
:1069B00065646974661569AF2C1C59CD69471C6103
:1069C000F1311834311A2B01FFFF1F29061C1E2C30
:1069D000FF5CAB0469DA2B290020661E310C2B2CDE
:1069E000132D5AA506506167653A2029182C0464B6
:1069F000955A7D5AA5044C656E3A290C2C03649572
:106A00002C075A8C2C0169151C046A0E6960140449
:106A100069DE59ED05626F78656469AF6A142C18F8
:106A200059CD694765C13110310E3114311231161B
:106A30001C31001C223106661E310C2C01691559CF
:106A4000ED2382E193E00E949A080C94D90D057120
:106A5000756572796A146A4E6A4165C12B2C142DD2
:106A60005B971D2B1A202C4F2C192C046A1E032D0A
:026A70002E00F6
:00000001FF
:000000