:100000000C947C000E943C050E943C050C94860CDC
:100010000E943C050C94D90C0E943C050E943C05B2
:100020000E943C050E943C050E943C050C942E0A4F
:100030000E943C050E943C050C94BB0D0C94CE051F
:100040000E943C050E943C050E943C050E943C0524
:100050000E943C050E943C050E943C050E943C0514
:100060000E943C050E943C0508D2313233D234351F
:100070002D0B2EDE2C213AAB3B22096162736364A7
:10008000657366076D6E6F7A7071727A00C336376A
:1000900038C339302B0A2ACD2F2428CD293D20679B
:1000A0006873696A6B736C0D7475767A7778797A90
:1000B0000E007C4023001B5F7E117F00253F7B19D3
:1000C0007D270F41425343444553461B4D4E4F5AE3
:1000D0005051525A00001C1E1F001D3C3E105E0075
:1000E0005C605B005D26A0474853494A4B534C8DEA
:1000F0005455565A5758595A11241FBECFEFD4E0C1
:10010000DEBFCDBF13E0A0E0B1E01D92AF3FB1076D
:10011000E0F30C94D20C2A9885E00E9488050E9496
:100120008D052A9A08950E948B0080FDFCCF0895CA
:100130002A9886E00E9488052A9A0895CF93DF9333
:100140002A988FE90E9488050E948D0590E08F37DC
:10015000910519F40E948D0590E08733910559F4BB
:100160000E948D05D82F80E0C82F0E948D0590E059
:100170008C2B9D2B02C08FEF9FEF2A9ADF91CF919E
:1001800008951F93CF93DF930F92CDB7DEB7182F4B
:10019000862F2A9899830E9488059981892F0E9429
:1001A0008805812F0E94880580E00E9488050F90B5
:1001B000DF91CF911F9108950F931F93CF93DF93FA
:1001C0008C010E949E00807020E28030920719F01E
:1001D000C0E2D0E002C0C8EDD0E00E949800C801A3
:1001E0006C2F0E94C1002A9A0E949300DF91CF9148
:1001F0001F910F9108950F931F93CF93DF938B015E
:1002000063E00E94C100C0E0D1E00E948D05F801CA
:1002100081938F012197C9F72A9ADF91CF911F917E
:100220000F9108950F931F93CF93DF93EC018B01F0
:100230000E949800CE0162E00E94C100C0E0D1E0BF
:10024000F80181918F010E9488052197C9F72A9AA8
:100250000E949300DF91CF911F910F910895839594
:100260008894982F82E092FF80E291FD02C0880F6F
:10027000880F90FF880F90E0891F089598E0890209
:1002800087E692E0800D911D11240895887F962FB6
:100290009770890F99278851914174E1687F679F12
:1002A000800D911D11240895695F687F795F7695AF
:1002B00076957695679F9C01CA01A001DFDFBC019E
:1002C000C90111240C9431069091080190931401F6
:1002D000890F809315019091060190930701690F92
:1002E000609316010895E42D1C15E8F42DB527FF41
:1002F000FDCF2EB52EBD2D93219613951C15B0F371
:100300001F1500F500C000000EC02DB52EB52EBD86
:1003100024233885369D152221253991369D0522C5
:1003200020252D9313951E1780F3E42DE760E395A8
:100330001E17A8F4EF1508F0EF2D1F1518F4C30DC4
:10034000D51DE3CFE760E3952DB527FFFDCF2EB593
:100350002EBD2D93219613951E17B0F34F10C31980
:10036000D5095A2D4F2F1850085008F0BCCF093F1F
:1003700020F000275B214829B6CF0895FF91EF9127
:100380002F923F924F925F926F927F928F929F92A5
:10039000AF92BF92CF92DF920F931F93CF93DF93D1
:1003A000EF92FF920994FF91EF91FF90EF90DF9110
:1003B000CF911F910F91DF90CF90BF90AF909F9002
:1003C0008F907F906F905F904F903F902F9011246F
:1003D00009945524D09008016D2CED2C2091140126
:1003E000D21608F4D22E9D2D987FDE2DD87F9D1B2E
:1003F000CE2DC77009F48395C0900601FC2C3324E0
:10040000E60EE0920801695F687F762E3F2D377017
:10041000432E19F028EF260F322E3C2D2091070194
:10042000C21608F4C22ECC2DC87F1C2F410EDF2D22
:10043000D87FCD1B4112C850C595C595C595C6023C
:10044000E001C90FD51D98E0989FC00DD11DC15A7C
:10045000DD4F209115012E1508F4E22EAFEFB3E029
:1004600087E08E0D887F9D2D987F891BA81BB0404B
:100470003F2D31953770C30FC51DF70E2091160122
:100480002F1508F4F22E862DEBDE682E8D2DE8DE7A
:100490008A9509F48FEF982E8E2DE2DE8195B82E85
:1004A0002FEFA22E8D2D6C2D687FF0DECC010D2D4F
:1004B000087F0195E00E0895FFEF2F2E822C2F93D9
:1004C0002DB527FFFDCF299A000029980E946B05C2
:1004D0002F916C2F7A2F592D422D0E2D45DF6C1B3D
:1004E0006195C61BD0407A1B7195A71BB040C70D04
:1004F000D51D472F5527BD010E94000680569F4FEE
:1005000028E0420E4F1408F04F2C185F1F15B8F268
:10051000089534DF5EDF08F4CFDF45DF0895B801CA
:100520009E918E917D012ADF54DF08F4C5DFA091F2
:100530001701A0930801A0911801A0930601BF9193
:10054000AF917E916E9111978E91AF93BF9341DFE2
:1005500008F4B2DF28DF089511DF7F936F93909145
:1005600008019F938F932F934F934F9332DF30F473
:10057000292C2094FF278B2C8094A1DFCDB7DEB7E8
:100580008C816E817F814F9141507AF74F912F91ED
:1005900021504AF09D819093080190910601970F98
:1005A00090930601E0CF8F919F916F917F91FBDE39
:1005B000089583B7816083BF1092C10080E187B93D
:1005C0003D98459A8AB18E7B8AB98BB181648BB98B
:1005D0001EBA0E9485030E947A050E94620510924D
:1005E0006B00109268000895982F907F19F0829503
:1005F00094E001C090E082FF02C0926002C081FDE1
:10060000916083FD9360892F089590E0FC0123E0C1
:10061000EE0FFF1F2A95E1F7E80FF91FE60FF11D16
:10062000E859FF4F84910895CF93DF93D091020151
:10063000C0910301909111018917C1F42091220109
:100640008D2F90E0837090708230910514F027FF19
:1006500004C0D13041F4263014F0215004C085E0AC
:100660008093020126E0209322014CC08093110167
:10067000D13039F0D13038F0D23059F0D330C1F523
:100680001EC08823E9F10E94F402C87FC82BDE5FF8
:100690002FC08823B1F48091220187FD31C08C2FB7
:1006A0008770843019F488E0C8272AC08C2F60E056
:1006B0000E94050380932101C0E0D4E019C0882383
:1006C000F9F09C2F977021E030E002C0220F331F19
:1006D0009A95E2F7821B0E94F402682F6F5F8C2FBD
:1006E0000E940503823D19F080932101C77FD5E068
:1006F000C093030180E180932201D093020102C0E4
:10070000D0E0F6CFDF91CF91089587B1807F87B990
:1007100088B18F6088B957985F9A2098289A089571
:100720008091220185FD0AC086B180958F708093EB
:1007300000012098289A579A5F980EC096B190951C
:100740009F70809100018295807F892B80930001AA
:1007500057985F9A209A28988091220190E28927E1
:10076000809322018091000108952F933F936F930E
:100770008F939F93EF93FF930E9490039091220198
:1007800095FD09C090910101891719F40E94140385
:1007900002C080930101FF91EF919F918F916F9122
:1007A0003F912F9108959091020192FF06C0809190
:1007B00021019B7F90930201089580E00895E6E077
:1007C000F1E0F09B08C09281918B9081928B685CE4
:1007D0006083885C08C099E1699FB0011124695D5C
:1007E0007E4F7183608382830895CF93DF93EC0102
:1007F00014C04997909307018093060180E491E02B
:1008000067E271E04FE352E00E94EB0686E693E078
:1008100069E170E040E20E944307809106019091F7
:1008200007018C179D0728F7DF91CF91089590E07D
:1008300023E0880F991F2A95E1F78E58934E68E0C0
:1008400078E040E30E94540180E368E078E040E013
:1008500020E00E94AC0280910801883D60F0809108
:100860000601885F8093060198E390930801883D14
:1008700010F0109206010895CF93DF93EC01F09BE6
:1008800003C00E9417042BC08D30910529F489E123
:1008900080930801C0E0D0E080910801893158F0D0
:1008A000109208018091060190910701499690935A
:1008B0000701809306018FE793E00E94F5032097DC
:1008C00071F080910801E0910601F0910701E80FB5
:1008D000F11DC083809108018F5F80930801DF9133
:1008E000CF9108950F931F93CF93DF93EC0184E290
:1008F0000E94F00500E010E08D2F82958F70082B8C
:10090000133011F0002331F08A300CF0895D805DE6
:100910000E94F00534E0CC0FDD1F3A95E1F71F5F30
:10092000143051F780E20E94F005DF91CF911F91C2
:100930000F9108950F931F93CF93DF93182F803A51
:10094000C8F5603AB8F5685C885C0E944601EC0125
:10095000812F0E942F010AB401FC02C000E001C0F7
:10096000082F0AB400FC02C010E001C0182F84E078
:100970000DB407FC02C08150D9F78EB5299A00004A
:100980002998CE010E946B050DB407FEFDCF9EB5E0
:10099000812F892B202F20958223909590239123BE
:1009A000892B80930901CE0169E071E041E050E0BC
:1009B0000E942506DF91CF911F910F9108958233F8
:1009C00008F051C0603308F04EC0262F269599E1FB
:1009D000299F90011124982F9695290F311D60FFB2
:1009E00002C098E001C092E080FD96950AB401FC37
:1009F00002C050E001C0592F0AB400FC02C040E020
:100A000001C0492FF901E95DFE4F8081803A21F054
:100A1000282F2877203121F4877887FF05C002C06E
:100A200080E002C02FE88227392F30953523242F0C
:100A3000252B2095232B2823352F3095392334233C
:100A4000232B942380959823292B23FF02C08FE822
:100A50002827322F305F832F90E0877090700097A7
:100A600009F4305F30830895F09B03C00E949A041C
:100A700008950E94DF04089578949F939FB79F93F1
:100A80008F93FF93EF93EDB7FEB7878186958250E2
:100A90000E942F01978194311CF480931D0107C09F
:100AA00094321CF480931E0102C080931F019F9119
:100AB00096839F9197838F919F919FBF9F91EF9175
:100AC000FF910895299881E00E94880581E40E94A1
:100AD0008805299A089523E02EBD0DB407FEFDCFA9
:100AE0009EBD0DB407FEFDCF8EBD0DB407FEFDCF3C
:100AF0001EBC089584B1817C8E6284B985B1817CED
:100B0000866085B98DB581608DBD80E58CBD089509
:100B10008EBD0DB407FEFDCF08951EBC0DB407FEBB
:100B2000FDCF8EB50895EF92FF920F931F93CF9351
:100B3000DF93EC010E947207E881F0E099819095C3
:100B40008081892380830C811D81EA80FB8007C01E
:100B500001501040F70181917F010E948805011525
:100B60001105B1F708851985EE80FF8007C0015097
:100B700010400E948D05F70181937F010115110539
:100B8000B1F7E881F0E080819981892B8083DF9142
:100B9000CF911F910F91FF90EF90089578948F93CC
:100BA0008FB78F939F9380911A018A9580931A0132
:100BB00071F0905E80FD9F5D98BD90911901089441
:100BC00097959093190180E228F480E303C080E0B8
:100BD00085BD82E084BD9F918F918FBF8F910895D5
:100BE00099270C943C04D7FD04C0FE018591219601
:100BF00006C021968DB587FFFDCF8EB58EBD0895B9
:100C0000EF93FF93E42FE52BE9F0FB017DB577FF30
:100C1000FDCF299A0000299862E06EBD7DB577FF6F
:100C2000FDCF9EBD7DB577FFFDCF8EBDF03110F0BD
:100C3000659101C061917DB577FFFDCF6EBD4150DB
:100C40005040A1F7FF91EF910895EF93FF93E42FA8
:100C5000E52BC1F3FB01299ADDCFC80170E050E01C
:100C60007D0197FF1BC06F936DB567FFFDCF299A7C
:100C70007F934F935F9329980E946B059F918F916B
:100C8000BF91AF9101C06EBD6DB567FFFDCF6EB571
:100C90006D930197C1F7299A6EBD0895FC01DB01A0
:100CA000CA0145914D930197E1F7089500C0299835
:100CB00000C02DC02EBD08942DC0FF91EF9120F4EF
:100CC0002197332444245524DF93CF93EF93FF934C
:100CD000C0911B01D0911C01EDE1F1E00D931D933A
:100CE000F8940281128278940D93F8940381128211
:100CF00078940D93F894008110827894F89411817F
:100D0000118278942DB527FFFDCF299ACFCF23E00C
:100D10002EBD889420911D0130911E01232B30910E
:100D20001F01232B3DB537FFFDCFDEBD30912001E4
:100D3000232B19F623E0AF3FB207A8F02DB73EB73B
:100D400028523040A217B30788F42DB527FFFDCFF6
:100D5000CEBD309111013639F79B59F02DB527FFE3
:100D6000FDCFCEBD089502E516E505C00EE516E5FA
:100D700002C009E616E52DB527FFFDCF299A24E02C
:100D8000F8942EBF2FEF2DBF78946E01AFEFB3E034
:100D90008FE696E5B0C0299A8EBD08956C0C7D1C37
:100DA0008C0C9D1CA6014830510508F048E0641ADF
:100DB0007108841A9108A42E50E0C30169E071E023
:100DC00050DFC40169E071E04A2D50E019DFCA1814
:100DD000D10841F72CC04115510581F1903178F1CE
:100DE000703198F1DF92CF92AF929F928F927F9263
:100DF0006F926A013C014B018617970778F2A601B2
:100E00004830510508F048E0A42E50E0C30169E0E5
:100E100071E027DFC40169E071E04A2D50E0F0DEA7
:100E20006A0C711C8A0C911CCA18D10841F76F908A
:100E30007F908F909F90AF90CF90DF90089570310A
:100E400030F0FC01CB01BF01DBCE0BDF0895FC01CC
:100E5000DB01CA01EA17FB0728F061916D93019746
:100E6000E1F70895E80FF91FA80FB91F62916E937B
:100E70000197E1F7089529988EBD05D08DB587FFBC
:100E8000FDCF299A08956115710529F1903120F15E
:100E9000DF92CF92BF92AF926C015B016830710517
:100EA00008F068E070E0A9E0B1E017D0C60148E0C2
:100EB00050E0A416B50608F4A501A41AB50AC40E9C
:100EC000D51E69E071E09CDEA114B10479F7AF9002
:100ED000BF90CF90DF900895DC01CB014D93019737
:100EE000E9F708950DB407FEFDCF299A08950E94F1
:100EF0002B0AAFEFB3E0EC014424552480E090E0EE
:100F000029980E946B0581EE99E03C01D7FF52C001
:100F10008DB587FFFDCF299A23E02998F9DE32C0ED
:100F2000D7FF27C08DB587FFFDCF8EB5299AC80F93
:100F3000D11D87FF11C0DA95C415D50531F421966E
:100F400023E02998B7DE832D23C02E0123E02998C2
:100F5000DFDE49DE382E1CC023E02998D9DE12C01E
:100F6000CDB5C7FFFDCFCEB5299A23E02998D0DEB5
:100F700009C0FE01849187FDDA95C80FD11D1AC002
:100F8000D7FF18C021968DB587FFFDCF8EB58EBDDA
:100F90008A3420F4F301E80FF11D09942196DF93C0
:100FA000CF93D82F87FDDCCFCDB5C7FFFDCFCEB512
:100FB000299ACEBDFE01859121968A3420F4F30151
:100FC000E80FF11D09942196DF93CF93D82FC59197
:100FD000F1CFC8011E910E918A34910580F3DF9301
:100FE000CF93EC0193CF0D931D9310E000E0C8CF99
:100FF00090E002C0F8DD982F0D931D93F4DD8C0175
:10100000BFCF1E910E91BCCF012B1E910E9161F4AA
:1010100087CFF60131966F01CA14DB040AF480CF42
:10102000CF90DF90AF90BF90DEDDAACFF601E00F4A
:10103000F11F6F01EA19FB09F1271E910E91F7FDCF
:10104000EECFEECFBF92AF92DF92CF926801BE900B
:10105000AE901E910E9194CF7E916E914427069F83
:101060004001169F612D900C641F079F900C611D1D
:10107000179F712D600D741F8B018D929D9211240D
:101080007FCF11978E9111976E91F801F89400819E
:101090008023862B80837894112772CF9E918E9126
:1010A0007E916E918017910798F441E107C0881FE7
:1010B000991F8017910710F0801B910B661F771FF7
:1010C0004A95A9F7609570958D939D938B0158CFA4
:1010D0008FEF9FEFF9CF9E918E910823192350CF68
:1010E0009E918E91082B192B4BCF9E918E910827A4
:1010F000192746CF650144CF0D931D930F911F9182
:101100003FCF0D931D93EDB7FEB70181128138CF0C
:101110001F930F931E910E9133CF012B09F00FEF08
:101120000095102F2DCF002717FD0095102F28CFE9
:10113000109501951F4F9E918E91080F191F20CF7A
:101140009E918E917E916E915E914E91840F951F2E
:10115000061F171F8D939D9313CF109501951F4F59
:101160000FCF9E918E9190950095109581959F4FF0
:101170000F4F1F4F8D939D9303CF9E918E9112968B
:101180000D931D938C01FCCE0D931D93FD0138979B
:1011900000800D9201800D9202811381F1CE9E910B
:1011A0008E910D931D938C01EBCEFD0136978281BC
:1011B0009381028313838C01808194818483908343
:1011C0008181958185839183DBCE0D931D93D8CE4C
:1011D00042E068E003C041E069E088243EDDD701D9
:1011E000092D182D93CE60E144E037DDD7011D9322
:1011F0000D93032F122F8ACE41E0C8011E910E914C
:1012000008C02E913E9144E001C042E0C8010E9119
:101210001E9160E170E050E0F3DC1E910E910DB480
:1012200007FEFDCF299ACEBD71CE0D931D93860189
:10123000A7CE0F5F1F4FA4CEFE013196F695E7951E
:101240000994F801008111279BCE11978E91F80126
:101250001E910E91808394CE0D931D9300911201E7
:1012600010911301080F111D0895BDDCF5DFF80181
:10127000F89401911081789483CEB5DCEDDF9E91D6
:101280008E91F8011E910E91F89481939083789439
:1012900077CEC8017D010E943C04D701F09BB1CEFE
:1012A00060C0C8017D010E947204D701F09BA9CEE5
:1012B00058C0EFEDF3E0B8014FC0CF91DF9126CEDB
:1012C000015010405DCEE3E4F7E043C09E918E9163
:1012D00004C0892F99270850104008301105C8F71D
:1012E00002C0969587950A95E2F78C0149CE9E91AA
:1012F0008E9104C0982F882708501040083011059F
:10130000C8F702C0880F991F0A95E2F78C0138CE02
:10131000EBEFF0E0B8019E918E917D01E3DD099540
:10132000299885E08EBD1CC0E2E1F1E0F3CFECED41
:10133000F0E0C801F2CF7D01D5DD0E949E00D7010B
:101340000D931D938C01299885E08EBDDFCDEBEECA
:10135000F6E0A8017E916E919E918E917D01099596
:10136000D7011E910E91D2CDE4E3F5E0A4CFC801E0
:101370007D010E949305D701F4CF02CEC80141CE72
:101380000D931D938E0199CF02D001D096CF0D936E
:101390001D9329DC182F27DC082F0895E4E5F1E0E0
:1013A000D8CFE9E8F2E087CF0E948F02E4CFECEAE1
:1013B000F2E098015E914E91CDCFE4E6F1E07BCF73
:1013C00096CDDECD17CE05CE1CCE1ECE21CE21CEA3
:1013D0002DCE38CE41CE55CE61CE7DCE81CE85CEBE
:1013E00089CE8ACE89CE8DCE93CE97CE9CCEA3CEFB
:1013F000A7CEB3CEB6CEC1CED2CEE7CEE9CEEBCE1F
:10140000FBCE03CF12CF15CF17CF1BCF1ECF2FCFC1
:1014100036CF3FCF2ACF45CFE6CDEACD4ACF4DCF0D
:101420004FCF51CF2ACF52CF62CF72CF7DCF8FCF48
:101430009BCF9DCFA2CFA2CFA3CFA7CFAFCFB1CF0E
:10144000B3CFB5CFBACF74CE72CF75CFCCCED9CE05
:101450009BCF9ACEAACE83E69CE508951F920F9269
:101460000FB60F9211242F938F939F938091260193
:10147000873009F03FC00E94720B809123018823BE
:1014800071F58091220187FD07C0809188009091BD
:1014900089008E52974E06C08091880090918900F5
:1014A0008654914F9093890080938800F09B0AC0E6
:1014B00080918800909189008051964F9093890087
:1014C0008093880088E08093260180912401909188
:1014D0002501019690932501809324018FC080916E
:1014E00088009091890081569F4F90938900809346
:1014F0008800F0C0843009F45AC0853050F481303F
:1015000069F18130C8F08230C1F1833009F0E2C066
:101510003FC0893009F49FC08A3038F4853009F41F
:1015200070C0883009F0D6C089C08A3009F4A4C0E0
:101530008B3009F0CFC0B2C08FE48093B30085E058
:101540008093B4008091880090918900845B9E4FC5
:10155000909389008093880081E0BAC089E48093E9
:10156000B400809188009091890080579E4F90939D
:1015700089008093880082E0ABC0809188009091C0
:101580008900CE96909389008093880083E0A0C064
:1015900085E08093B40080918800909189008A56FC
:1015A0009E4F909389008093880084E091C08EE9DB
:1015B0008093B3008BE08093B400F09B0FC080E178
:1015C00080932301809188009091890083509D4EE3
:1015D000909389008093880085E00DC010922301CC
:1015E0008091880090918900855F914F9093890048
:1015F0008093880087E08093260178940E94B50349
:1016000069C0809188009091890082509B4F90938F
:1016100089008093880087E08093260180916B0089
:10162000826080936B008091680081608093680085
:10163000D89A299B4FC02998299A4CC0809188003C
:10164000909189008D569F4F9093890080938800D8
:10165000109226013FC080918800909189004896A1
:10166000909389008093880080917E03869586956B
:10167000809323018AE02CC088E08093C100809190
:10168000880090918900209123014896820F911D36
:1016900090938900809388008BE01AC01092C1005B
:1016A00080918800909189002091230181599F4F5A
:1016B000821B91099093890080938800B09B07C09A
:1016C000B09A209880E889B98AB180588AB989E0AF
:1016D000809326019F918F912F910F900FBE0F90B5
:1016E0001F9018950F921F92EF93FF930F93AF9354
:1016F000BF93CF93DF93E4E8F0E000801080C081D7
:10170000D08103940081A081B081E081C01529F0CF
:10171000D01541F0E01579F40EC0101431F0A01589
:1017200041F407C0B01521F403C0001521F403C033
:1017300000C0000000C000918800025FA0918400FA
:1017400000C00000A017D2F3D0912301D03CA0F537
:10175000F39993C0A9E1BD2FB695B695B695AB9F09
:10176000A7E2B1E0A00DB11DD7701F9318E108E00A
:10177000F0E0E8E0F093C600E093C100ED91CE2FD9
:10178000EF770E9F0D0EE03130F0E2E7FCE1E00D67
:10179000F11DE49106C0EFE7F3E0E00DF11DE081FB
:1017A00000C0C7FDE095F091C000F5FFFCCFE093CD
:1017B000C60011501AF737C01F93F0910301A9E03A
:1017C000FA9FE02DF0E0D3FDEC5FA9E6B0E0AE0FAC
:1017D000BF1FE2E7FCE1CD2FC770D0E0CE0FDF1FC7
:1017E00010E0E8E0E093C100FD010491003108F44D
:1017F00000E2E8E0F02FFF77EF9FFE01E00DF11D22
:10180000049007FF0094F091C000F5FFFCCF009218
:10181000C60011961F5F143038F3D0912301DF5FAB
:10182000D03D48F409C0D0912301DF5FD03C20F0C7
:10183000F0912201F7FFD0E0F091C000F5FFFCCF5E
:10184000A0E0A093C100D03C51F4E0918800F09159
:101850008900E85DFF4FF0938900E0938800D09302
:1018600023011F91DF91CF91BF91AF910F91FF9114
:10187000EF911F900F90089500001F93F49B3DC0BF
:10188000A7E2B1E007EC11E0F801D3FD8D01D3FD33
:10189000DF01F0E0D770AD0FBF1FE4E1DE9FE8018C
:1018A000C00DD11D14E1E8E0F093C600E093C10043
:1018B0000DB507FFFDCF0EB50EBD0993EC9118963F
:1018C0000091C00005FFFCCFE093C6001A9581F798
:1018D000D0912301DF3A08F4A6CF0DB507FFFDCF65
:1018E000F29B0EB5D05F299AF49B05C09ECFC0E451
:1018F00005C0C0E203C0C0E101C0C8E0DC2FB09B5E
:10190000FECFB09ADA95D9F7349AF8CF0F930FB784
:101910000F9300912301003109F0EBCFF499E7CF49
:10192000F1982999F19A00916B000D7F00936B005B
:101930001F93AF93BF931F9211240DB5F29807FD2B
:10194000F29A299AF39AF49AA0E8B3E71BD000EA36
:10195000A7E2B1E01DB517FFFDCF1EB50EBD1D936B
:101960000A95C1F7D89A7894299BFECFF19B2998C4
:10197000F398F4981F90BF91AF911F910F910FBFF3
:101980000F911895299803E00EBD0DB507FFFDCF07
:10199000BEBD0DB507FFFDCFAEBD0DB507FFFDCF39
:1019A0000EBD08950E94D9028FEF8DBF0C9477076A
:1019B00008951F920F920FB60F9211242F933F9309
:1019C0008F939F93AF93BF93EF93FF9326B580912F
:1019D00068008B7F809368007894EFE7F3E0818163
:1019E000322F381B21838081982F96959695920FE0
:1019F00097BDA99A90818695890F879590E49093D9
:101A00001A0190916E00926090936E00958121E092
:101A1000831708F420E030937E038481823099F0AC
:101A2000833018F4882331F023C08B3079F08C3068
:101A3000F9F425C0903118F0213009F51DC022239A
:101A4000E9F49F5F1CC084E0821B19C0990F922BA0
:101A5000A281B3819D93808591858E5B9F4FA8174E
:101A6000B90711F480E001C082E0B383A28306C00D
:101A7000990F922B8F5F03C083E001C090E08483B5
:101A80009583FF91EF91BF91AF919F918F913F917E
:101A90002F910F900FBE0F901F9018959C01832FD0
:101AA000922F862730E1389F8125389F902520E2AC
:101AB000289F8025912511240895AF92BF92CF923F
:101AC000DF92EF92FF920F931F93CF93DF93082F34
:101AD000CFE7D3E0C884D9848C818823E9F38C8153
:101AE0008823E9F7EA81FB81B290A2908A859B85E1
:101AF0009C0120503F4FE217F30708F0FC01FB83E5
:101B0000EA83F987E887760110E08FEF9FEFF7010E
:101B100061917F010E944E0D1F5F1034C1F78A153D
:101B20009B05D9F4202F269526952695077081E0F0
:101B300090E0382F01C0330F0A95EAF7FE01E20F5B
:101B4000F11D2785832F822329F48D859E8501969B
:101B50009E878D87232B278702C0CC24DD24C601D6
:101B6000DF91CF911F910F91FF90EF90DF90CF9079
:101B7000BF90AF90089578948F938FB78F939F9372
:101B800080911A0186FD22C0982F9F71903129F40F
:101B900087504AF48AE090EC06C09F7098309BB55D
:101BA00011F490911901990F9BBD96E108F097E30C
:101BB00097BD90937E03982F81509F7011F0809372
:101BC0001A019F918F918FBF8F910895897F809384
:101BD0001A0180916E008D7F80936E008BB38460BC
:101BE0008BBB80916800846080936800EACFE3003B
:101BF0002701000002002701270100000003100553
:101C0000050E01050B64848484060784848484841F
:101C1000848406848484840784848484848484A063
:101C20002020159500A00115A0A0011595A0201554
:101C30009500A00115A0A001A020201595A020A02E
:101C4000159520A01595A0201595A020A0159520EC
:101C5000A0A02020159502A0A0159520A015950202
:101C6000A0159502A003159520A06B01A01802A055
:101C700003003F7FFFFFFFFFFFFFFCFEFFFFFFFFB3
:101C8000FFFFFFFFFFFFFFFF7F3FFFFFFFFFFFFFA4
:101C9000FEFC00FF00FF00FF00FFFFFFFFFFFFFF54
:101CA000FF000F0F0F0F0F0F0F00F0F0F0F0F0F02C
:101CB000F000FF80808080808080FF0000000000B6
:101CC0000000FF010101010101018080808080800E
:101CD00080800101010101010101808080808080FC
:101CE00080FF00000000000000FF01010101010170
:101CF00001FF3F7FFFFFFFFFFF000F0F0F0F0000EF
:101D00000000F0F0F0F000000000FFFFFFFF000017
:101D10000000000000000F0F0F0F0F0F0F0F0F0F2D
:101D20000F0FF0F0F0F00F0F0F0FFFFFFFFF0F0F7F
:101D30000F0F0000000055AA55AA55AA55AA000089
:101D40000000505050505050505055AA55AA55AA16
:101D500055AA0000183C3C1800003C7EFFFFFFFF26
:101D60007E3C3E419CAC9F403F0000008E9526C8C3
:101D7000F000000000000000000000101010100033
:101D80001000002424000000000000247E24247E93
:101D9000240000081E281C0A3C0800626408102663
:101DA0004600001028102A443A00000810000000E5
:101DB000000000040808080804000020101010109B
:101DC0002000000014083E081400000008083E0827
:101DD00008000000000000080810000000003E009D
:101DE00000000000000000181800000002040810A5
:101DF0002000003C464A52623C00001828080808AF
:101E00003E00003C42023C407E00003C420C02424C
:101E10003C0000081828487E0800007E407C0242F2
:101E20003C00003C407C42423C00007E0204081022
:101E30001000003C423C42423C00003C42423E0218
:101E40003C00000000100000100000001000001016
:101E5000102000000408100804000000003E003EAE
:101E600000000000100804081000003C42040800B4
:101E70000800003C4A565E403C00003C42427E4224
:101E80004200007C427C42427C00003C4240404296
:101E90003C000078444242447800007E407C404050
:101EA0007E00007E407C40404000003C42404E426C
:101EB0003C000042427E42424200003E08080808C0
:101EC0003E000002020242423C0000444870484486
:101ED00042000040404040407E000042665A42427C
:101EE0004200004262524A464200003C42424242A4
:101EF0003C00007C42427C404000003C4242524A4E
:101F00003C00007C42427C444200003C403C024297
:101F10003C0000FE101010101000004242424242ED
:101F20003C0000424242422418000041412A2A1447
:101F30001400004224181824420000824428101083
:101F40001000007E040810207E00000E080808081B
:101F50000E00000040201008040000701010101047
:101F60007000001028440000000000000000000085
:101F700000FF001C227820207E00000038043C4432
:101F80003C000020203C22223C0000001C2020209D
:101F90001C000004043C44443C00000038447840E9
:101FA0003C00000C10181010100000003C44443C91
:101FB00004380040407844444400001000301010C1
:101FC00038000004000404042418002028303028BD
:101FD00024000010101010100C000000685454541D
:101FE0005400000078444444440000003844444411
:101FF0003800000078444478404000003C44443CB1
:10200000040600001C202020200000003840380476
:1020100078000010381010100C00000044444444B4
:102020003800000044442828100000004454545450
:102030002800000044281028440000004444443C88
:10204000043800007C0810207C00040808300808D0
:10205000040000080808080808002010100C1010E0
:10206000200000142800000000003C4299A1A19922
:04207000423CFFCF20
:105000005C630000006B65726E001C161C5CA601E0
:105010005022161D1B15040A1C2C08321B2C0833A9
:105020000D2E1C720101533854CC57D857FD5FAF79
:1050300063C853665216558567EF6D606E746E10C7
:105040006D206D7A6D0F6E4C037F50028065786520
:10505000630082504A806900A15053806C6561767C
:1050600065008F505980616E64008C5063806F7250
:10507000008D506B80786F72008E5072803E3E00C3
:10508000B2507A803C3C00B35081803B7300AE50FC
:105090008880723E0091508F803E720093509680BF
:1050A000720092509D80303D009450A380303C00AF
:1050B0009550AA802B009650B1802D00C250B78029
:1050C000642B009750BD806E6567009850C4806463
:1050D0006E6567009950CC806F766572009A50D5E6
:1050E0008064726F70008350DE8073776170009B04
:1050F00050E780647570009C50F08040009D50F82F
:10510000806340009E50FE802100A05105806321F5
:10511000009F510B80644000C5511280642100C67D
:10512000511980752A0089512080752F008B5127D5
:1051300080656D697400A8512E80706C6F7400B723
:10514000513780312B00A2514080636D6F7665002E
:10515000B651478066696C6C00B0515180696340FC
:1051600000A4515A8069632100A551628069400002
:10517000A6516A80692100A75171803E706F7274D8
:105180003E008A51788073706900B8518380312D58
:1051900000AF518B80617400AD5192802E686578AC
:1051A00000AA51998074696C6500BD51A280626C3F
:1051B0007400BE51AB8032626C7400BF51B3806228
:1051C0006C747300C051BC80636C697000C151C5C0
:1051D000802A00090351CE80322B00222251D58033
:1051E000732D3E64001C1551DD802D31002B2F5195
:1051F000E780322A001C1651EF006C6F63730011B8
:105200001B53ED261B181A161C53ED2753E42613C7
:1052100053E42713132E11111153E42753ED2703E1
:105220002E51F7406C6F633B00572E5216573E2E9F
:1052300054FF548F1D573E53F62613135AC9115469
:105240008F2053F6261142015649568D54FF2E5297
:1052500021406C3E002C2952302E524F403E6C00B3
:105260002C3152302E525A006B6579000152845312
:10527000DB1C261B2222241662532E526500696E07
:105280006B65790023007D010E94D3039927D70124
:105290000D931D938C01CF91DF910E9488060C9491
:1052A000860701003E242C010C2E527B00636C7398
:1052B000002B2B2D52A2040F2CA02CA04101F38017
:1052C000010C802B050853C10102582C20302E52AE
:1052D000AA0069270023C501DBCF52CF006372000B
:1052E0002C0D282E52DA007479706500553C040CA0
:1052F0001A161B08211E2806FC0502032E52E40084
:1053000073706163650053B6282E52FD007370619F
:10531000636573002B5CCD553C04072B08530606D0
:10532000FD2E050328221C1E1C1404F9032E530A0B
:1053300000222E005322032E11532222132E2C2240
:10534000592854DA58972254E72E532E402E220023
:10535000548F1D0409572E5338533E05092C2259EA
:105360002854DA53342E111C1D1322222E534A4086
:105370002200548F1D0412572E536654DA2B54F119
:10538000533E54DA1B200503533E2E536D007661C5
:1053900072002C3B050C538B00636F6E7374002CF2
:1053A0003C5A2A54DA2F1F54F12E5396803000AB0A
:1053B00053AA00626C003C002053B0007672616D0D
:1053C000003C012753B900636C6F636B003C012400
:1053D00053C40073797376617273003C010653D035
:1053E000007366003C011253DE007270003C005DE9
:1053F00053E7007370003C001A53F00073703000E4
:105400003C03FF6EB80001FFFFFFFF00000000003B
:105410000000008080002B000A802053F900637593
:105420007272656E74003C8000541B007761726E6E
:10543000696E67003C80025429006D61726B657271
:10544000003C8004543700746F70003C8006544464
:1054500000626C6B2A003C8008544E00626C6B73D7
:105460002A003C800A545900626C6B23003C800C7B
:10547000546500667061727365003C800E54700064
:105480006470003C8010547D007374617465003C4E
:10549000801254860062617365003C80145492004F
:1054A000686C64003C8016549D00746962003C8006
:1054B0001854A7006C61746573740054261D2E5433
:1054C000B1002B21001B1A1D161B202E1A1E0E1BAD
:1054D0001F2E54BF00686572650054831D2E54D280
:1054E00000616C6C6F7400548354C52E54DE002C24
:1054F0000054DA202C0254E72E54EC00632C0054A4
:10550000DA1F2C0154E72E54F9803D004214550750
:10551000803C004215550E003E001B42152E5515CD
:1055200000726F7400131B111B2E551E80326475A0
:1055300070001A1A552A003F647570001C04021C82
:105540002E553400753C002B1B2B19171B032E2CDA
:105550003F242C020C1404F81C2C08322C42252C5D
:1055600041252E55410065634000554F2C0101FF38
:10557000FE2C3F0A032C40242E5563006563210056
:10558000554F2C402523F894FA9AF99A789483CEB3
:10559000557900656D6F76653E002B081A556A1ABD
:1055A0001F1B221B2206F603032E23008BE193E030
:1055B0007D010E94F503D7010C945D095590006CA4
:1055C00066613E6366610055EA1C56071B1E2C800F
:1055D0000C040C1D1C1504072C08322C7F0C2E55B6
:1055E000BC006C66613E6666610022222E55DF00BB
:1055F0006C66613E6E6661002C03162E55ED0066EA
:1056000066613E70666100221C589716222E55FC7A
:10561000003E6C66610054BB05021D1A1A55471402
:105620001A1D140D04F51B032E576861742773208F
:10563000004D69736D6174636865640057726F6EC5
:10564000672073746174653A004261642052656634
:105650003A00537461636B20456D70747900537424
:1056600061636B2046756C6C00427265616B005320
:105670003453065338696E200021561655F85334BA
:105680005B862E560E003F6572726F72001B041E01
:10569000548F1D040F5338496E200054BB55F853E6
:1056A0003453065334530654DA53345B86032E5670
:1056B00083003F636F6D7000548F1D1401563C567C
:1056C0008D2E548F1D01563C568D2E56AF003F70C7
:1056D000616972730042015631568D2E56CB403AA5
:1056E0000056C25A2A01FFFF54E757482E56DC40A5
:1056F0003B00572E002E573E2E56ED00696D6D650E
:1057000064696174650054BB55EA2C4054CC2E5634
:10571000F900782C001C01FF000C040554F105036E
:1057200054FF2E570F00636F6D70696C650056B89B
:10573000111C1D57152222132E5723405B002B549A
:105740008F202E5739005D002C40548F202E574358
:1057500000736D756467650054BB55EA2C2054CC0A
:105760002E574E003C6275696C6473005A2A2B54A4
:10577000FF2E576140646F65733E0001578554F1F9
:105780002C1054FF2E1154BB55EA5607202E577289
:105790004028002C2959282E578E00686578002C47
:1057A00010549A202E579800646563696D616C00EF
:1057B0002C0A549A202E57A5006469676974001357
:1057C0002C30422C091A4215040A2C07421C2C0AC0
:1057D00042150D1C1155472E05141B549A1D090323
:1057E0005525549A1D09171122111C1516131C1347
:1057F0001E549A1D57BF1404E20311112E131C1ED0
:105800002C2D42141B1A422B2B55251157D81A1E2A
:105810002C2E42141A0C0407181B221B57D81313E2
:10582000552504021911112E57B6006E756D62656B
:105830007200549A1D131C1E2C2442140404579FFA
:10584000222C0157FD1A1E2C644214040703222C3B
:105850000205151C1504111B1C1E2C654214422B3D
:1058600057FD031B036C0C1B1E140C11549A202EA5
:1058700058280063496E2200131A1815161A161CB0
:105880001E1C1242141B140D04F411031B032E588A
:105890007000226C656E002C011A2B58781B422E6A
:1058A0001C1E1C140437031C54561D010200164212
:1058B000140427546D1D042254561D010100161CAA
:1058C00065E84201010036546D1D221C546D2068AC
:1058D000F21B65E8421B65E8421C1E142E588F001F
:1058E00022736B6970426C001C0502221C1E2F2C57
:1058F000E00C04F858A004F21B032E58DD00656E7E
:10590000636C6F736500131C0502221C1E1C2C0E99
:1059100042151B1242140D04F258A004EC11032E80
:1059200058FB00776F72640054AE1D58E81B59068F
:105930001C1C1E14144254AE201A421C1354DA1BB1
:10594000362B1154DA161F2E592000223C3E00053A
:1059500006031B221B221A1E1C131A1E421C1114A2
:105960000D04EF1B031C151B1815421B1E142C08DD
:105970000C332E594840617363002C20592854DAA7
:105980001E548F1D04072C2C54FF54FF2E597300F6
:105990002221001A589722362E598D00222B001CE6
:1059A00058971659932E5999002263757400162B37
:1059B0001B1F2E59A6002266726F6D001A58975C45
:1059C000BD162E59B30061727200576C1C1654E755
:1059D0005785101A16162E59C30062797465730024
:1059E000576C54E7578510162E59D70066696E64B8
:1059F0000053B6592854DA54BB1C55EA1E2C200C0F
:105A000004021D0505110311031C131A1A55F85938
:105A10004F14131D1C14120D04EC030311110C2E52
:105A200059E9006372656174650054BB54F154DA3E
:105A30002C02425426202B54FF53B6592854DA58CE
:105A4000972254E701003B54FF2E5A20405B636FBE
:105A50006D70696C655D0059F11C142B568D55C72E
:105A600057152E5A4A406C69746572616C00548FE8
:105A70001D041E553C04161C01FF000C04082C01DB
:105A800054FF54F12E2C2C54FF54FF2E2C2B54FF7A
:105A90002E5A6340646C69746572616C00548F1D8A
:105AA00004061B5A6E5A6E2E5A91006279650011D7
:105AB0000305055AA84000110311032E5AB30069CB
:105AC0006E746572707265740059F11C042F1C5558
:105AD000EA1E2C7F0C548F1D4215040755C757151D
:105AE000051955C71C014A004215040E1C01010985
:105AF000252C0832020101092402051F0354DA583B
:105B0000321C1404090354DA015629568D2C014223
:105B1000140406035A6E05035A9D2E5ABC002272C5
:105B2000756E005AC905FD2E5B1B00746F70210055
:105B300001FFFF1C131E2B121F019FFF1C1E1A12B8
:105B40001B1F1A121E140D544B201B1F111F2E5BFE
:105B50002800636C61696D00222218544B1D1C13D0
:105B6000161C544B20111A2022222E5B4F00726506
:105B7000636C61696D002C02421D544B202E5B6BDF
:105B8000007175697400540053F6270104FF53ED4A
:105B900027573E52E00180201C54AE2065C52C01E1
:105BA00054AE54C55B23548F1D14040653384F4B19
:105BB0000005E15B7E0061626F727400540053F671
:105BC000270104FF53ED275B3057B052E02B60688C
:105BD0002C01600853384649476E6974696F6E201E
:105BE00056312E302E310D7F6E696368656D6163AD
:105BF00068696E657320323031312D323031340DA9
:105C000000544B1D54DA425EE35338627974657375
:105C100020667265652E005B865BB30070617573EC
:105C200065001C5CA653CD26161A15040A01011145
:105C300024040403032E1C53CD26421504EC030355
:105C40002E2B161B221C1E13221A1A1B123611167B
:105C50001B1A1E553C1404EB03032E5C1900636FE2
:105C60006C64000154030180002C1836603F52B16F
:105C7000011C7201037F2C8036011BFC0101EF5CCB
:105C80004101FF9C5C225BBC5C5B002B2D0015047A
:105C900002182E5C8800642B2D00150402192E5C5E
:105CA0009300616273001C5C8E2E5C9F00646162D5
:105CB00073001C5C9A2E5CAA006D696E001A1A555E
:105CC0001A04021B032E5CB6006D6178001A1A429A
:105CD0001504021B032E5CC6006D2A001A1A0E134F
:105CE0005CA61B5CA609115C9A2E5CD6002A2F6D5F
:105CF0006F6400135CDC115D0B2E5CEA002A2F0040
:105D00005CF31B032E5CFA006D2F001A13135CB2B8
:105D1000125CA60B11120E5C8E1B115C8E1B2E5D8D
:105D200005002F6D6F6400131C15115D0B2E5D1F98
:105D3000002F005D271B032E5D2E006D6F64005D3C
:105D400027032E5D38006D2F6D6F6400132B120B2F
:105D5000111B130B112E552556D554FF54DA4254FE
:105D6000FF2E5D4340696600572E000454DA2B5421
:105D7000FF2C022E5D62407468656E0056B82C02DE
:105D800056D554DA1A421B1F2E5D7440656C73653C
:105D9000002C0256D5572E000554DA2B54FF1B2C2D
:105DA000025D7C2C022E5D8940646F00572E000836
:105DB00054DA2C032E5DA6406C6F6F70002C062CFD
:105DC000035D562E5DB5402B6C6F6F70002C072C59
:105DD000035D562E5DC440626567696E0056B85417
:105DE000DA2C012E5DD440756E74696C002C042C85
:105DF000015D562E5DE4407768696C65005D682240
:105E0000222E5DF4407265706561740013132C05D9
:105E10002C015D5611112C02425D7C2E1A42141188
:105E20001B04071B03222205021D132E5E020068BD
:105E30006F6C640001FFFF54A454C554A41D1F2EB1
:105E40005E2C007061640054DA2C43162E5E400014
:105E50003C23005E472B1A1F54A4202E5E4D0023C6
:105E60003E00030354A41D5E471A422E5E5C00737D
:105E700069676E0055251504052C2D5E342E5E6C69
:105E8000002300549A1D5D4C55252C091A42150417
:105E9000042C07162C30165E342E5E7E0023730011
:105EA0005E831A1A0D1404F92E5E9A00642E720095
:105EB000131B1A5CB25E535EA05E745E62111A42DE
:105EC000531452EC2E5EA900642E002B5EB05306D4
:105ED0002E5EC5002E7200131C15115EB02E5ED111
:105EE000002E001C155ECB2E5EDE003F001D5EE323
:105EF0002E52B153384C6F6164696E672000546D47
:105F00001D5EE32E5EE8006C6F616473001B5456E7
:105F10001D13546D1D1C1404142B0103015B580147
:105F20000100161C545620010200161F54AE1D130A
:105F3000131B2B0854561D54AE201C546D2068F2C0
:105F40005EF15B23546D1D2206EB03111154AE204C
:105F50001C546D20553C040768F25EF1050A545646
:105F60001D010100425B76115456202E5F04006C27
:105F70006F6164002C015F0D2E5F6C006370001B6D
:105F800068F2691752B12E0101062653C101023E83
:105F900016551A2E5F79006D6F7265005F87040FCA
:105FA00053386D6F72653E3E00526C0352B12E1332
:105FB00012021A1A55F8594F2CFF0C1404081C55DC
:105FC000F8533453061D553C1404E60311032E5FA9
:105FD0009440766C6973740052B12C20592854DABD
:105FE00054BB015F9C5FAF2E5FCF00666F72676529
:105FF000740059F1553C04091C1D5426205483207B
:106000002E5FE80070656E0001004A252E1C221EDE
:106010001A1E2522221C1E1404F4032EB033B10ACA
:10602000B200B39EB40B8000810285008400890019
:10603000880B6F02C2C0C100C500C4014300002C20
:10604000832C43252C0A2CFE2C2A0A032B2CFD2CF6
:106050002B0A032C080101262501601C600D2E600F
:106060000100766D6F6465002C610C2C43240403E1
:10607000603F2B5C221C2C9E01003E0A031404038B
:1060800052B12E0000000000FE00000000000000E1
:1060900000190013008452605F0061743E002C19E7
:1060A00009031653C1162E609700637572736F72E1
:1060B00000010108240101062653C1422C195D3359
:1060C0002E60A700636C426F78001313609E111B53
:1060D000112B081A1A1B2C20302C191606F6030354
:1060E0002E131A1B1158781B15422E1B15161E2E27
:1060F00001FFFF1A2C0D60E14229135D3F2E131A98
:106100001514120C131A1A2C0D60E11A421C5CA60D
:1061100029132F1142551A04181C5CA629135CBDC3
:106120001B5C8E1B1A161B5CA61116291342054414
:106130001C13161A131A1A60EB1C1414110C1304F6
:106140002C1A16111103131A1A2C0D60E11A425C55
:10615000A6552515040929135D3F1B1A421B11552D
:10616000255525115CBD1B1A161B05081B03111BA9
:106170001111162E290D29034215041729091C2275
:106180001A1829011622290D221C310D16361C2938
:10619000091F032E1A131C131A1315141329135C49
:1061A000BD111B1304051A1A12362C19161B1216D0
:1061B0001B1118111611221A141A29152F551A0D10
:1061C00004D51B03111C29135D3F1312140C040783
:1061D0001B2C19161B221C29152242151A18150CE6
:1061E000040F1A2C1942121612182913162C2030DB
:1061F00011032E290122290F2911290B42609E2902
:106200000B181305191A1C2C011B2C0D58781B4256
:10621000116194131B1C1E2C0D4214421B1A1E14D8
:106220001229152F551A0D04DD03031129151A55CE
:106230001A041113290F12291116291329151142B5
:1062400060CA2B032E2917290F29051629112907A2
:1062500016609E1C13241B53CD261C53CD264215BD
:10626000041052A214040812242C800E12252C3281
:10627000161A02553C04E41B031B031B1152A21403
:106280000403252E03032E2F1A5CBD2B5CCD1B1A95
:10629000422E31053109290716291562871C290B61
:1062A00016310B1B31072E2909290560FE62922E3B
:1062B00029091A1A60EB1C042F2C0D421404141A1D
:1062C000161B1504091C60F001FFFF05042B2C01AF
:1062D000050F1A161B2905162913162B29130B2F28
:1062E0005525552562922E0303032B2E61742C0134
:1062F00062B0032C012E29092F2901421C04191315
:1063000029091C2F290D11422201FFFF62B003361B
:10631000290D2F310D2C012E2909647F2B2E2B5492
:10632000411D1C221B1E14140C04130354411D1C7C
:106330001C29094215162222647F1E62EC2E2C07AE
:106340005E1C634862F6056C2C085E1C635501FFF9
:10635000FF62B0055F2C095E1C63612C0162B00511
:10636000532C0A5E1C636D2C0162A705472C0B5E43
:106370001C637A01FFFF62A7053A2C0D5E1C638641
:106380002C0D62EC052E2CCD5E1C63906318052449
:106390002CC35E1C639A631E051A2CAB5E1C63A79C
:1063A000032C8D2C01050D2CA05E1C63B12C010566
:1063B00003032B2E1C2C0F551A1A2C8042150C048B
:1063C0000562EC0503633E2E040361F362451C6322
:1063D000B41B2C8D421404F12E1C2C2F551A1A2C90
:1063E0003842150C040F2C304229091E2C03330DA2
:1063F00029091F2B032E016083010112262C05168B
:106400002C143631031C31012231092E2C09322E75
:106410002C122C131A1A2D2C0753142D5338436D9C
:10642000643F00526C1C282C775E1C644252B129D8
:1064300019290122290D0101FF16640C699F032B04
:1064400005352C245E1C645B2C122C132D5338282C
:106450005368656C6C29005B91051C2C7A5E1C648A
:10646000742B2901221C31091F2B310D2B31052BD7
:106470003107050363D92E60C1006D61726B005452
:1064800041202E5F87040311112E53C10101F41620
:106490000100642C20302B2C142D2E52841C045F00
:1064A0001C2C1142151A2C2042140D040C291B041B
:1064B00003648A2B311B05471C2CA0421404252998
:1064C0001B041B53C10101F316291B1654DA422287
:1064D0001C241C62EC032C20421404F40354DA3113
:1064E0001B051C291B0418291B1A1A1F2B1A221FF3
:1064F00022311B648A54DA54BB0164835FAF2E647B
:10650000770065646974002C1C51FF544B1D54DAEC
:10651000420101424265E8180C1C5B581B2C0242E8
:1065200063F629012B1A2001649B31172B311B1AAA
:106530005CA63119222903640C6966032B29012901
:106540000316221F29091C1E2CFF421404052B29A7
:1065500001205897310D2B2C132D5338426C6B3A78
:10656000200029192C045ED7530653384C656E3A27
:1065700000290D2C055ED72C2F2829032C055ED76A
:106580002C0163C81C040364101404CB29015B763E
:10659000521664FF00626F786564002C1851FF1377
:1065A000131A58971363F611310D11113115311368
:1065B00060B13111310F2C0163C852166592007120
:1065C00075657279001355AA60B12B2C142D112B0F
:1065D0001A202C4F2C192C04659B032D2E65BC0012
:1065E000626C6B73697A65003C0200440120135EA3
:1065F0001C65F801010005190130135E1C66032CAF
:1066000080050E0130145E1C660E2C800503032BE2
:106610002E440120135E1C661E0101000519013085
:10662000135E1C66292C10050E0130145E1C6634A6
:106630002C100503032B2E440120135E1C6644011D
:106640000800051B0130135E1C6650010800050F91
:106650000130145E1C665C0110000503032B65EB22
:10666000422E2C01322E013FFF0C1C1665EB162E1C
:10667000663766622E663766114266622E013FFFFC
:106680000C66371A1A2F551A0C421C1665EB162E7B
:1066900065DD00666469736B004401201342661176
:1066A000663765EB162B081A1A212F0C140D2114CE
:1066B0000D212C1042140D212C2042140D212C40B0
:1066C00042140D04092B2C142D212A21432C1007D0
:1066D000D703032E1A16162E66702F13122C0732AC
:1066E000161A34112C7F0C1B66D4262E1C2B66D850
:1066F00001FFFF42141B1A042166702F2F2C7F0C00
:106700001A66D42601FFFF4204101B031C0100106F
:1067100066D801FFFF4214141B032C100C2E01013C
:1067200000162E671E1A1616262E1A66EC04050190
:1067300040000E1C013FFF0C2C07321B0140000CD7
:1067400014142C100C161B1A1B342E23F8019E91C6
:106750008E917E916E9111974E915FEF21913191C3
:106760002F3F350729F48D3F950741F40CD006C023
:106770002617370709F407D0415081F714968D93F7
:106780009D930C944B292C919E918E91241B820FEA
:10679000911D1296089501FFFD13131366702B1AB5
:1067A0001A013FFF0C224215040901C0000C0140F0
:1067B0000016121A672A031A1A013FFF0C422C8096
:1067C0005CBD11111B111B674B1B131B13131B1AF1
:1067D000161B2F1C1612162601FFFF42141A0180E9
:1067E000005547140D04B9030311031103112E675B
:1067F0009666662E1C0140000C0407013FFF0C0545
:106800000C1A1B67EF1A671E1A221B341B1A1B3443
:106810002E1C66755547141B66112F66620C140CEE
:106820002E1A01FFFF67961C66376662013FFF164E
:10683000554714040B131A66EC43110140000E1364
:106840001A1201007F0C1A66D41B11672A13271134
:106850001B352E66116662136637666212421A0194
:106860003FFF0C1A5547140406181A160509031C95
:1068700012160140000E131A671E111B1A672A0315
:106880001B667D1A667D111B131B1A2B0813131A26
:106890001A131201007F0C1A67231B1A1A1B679622
:1068A0001C114214111A0C13041E66661A1A1B34AA
:1068B0001A111B121B3513221A34111A12221B35FE
:1068C000131B68212B2B2B030303221111222206F9
:1068D000BD1143031B031B032E54561D553C1404CA
:1068E0000965E85B581C5456202E669000626C6B5C
:1068F0003E0068D91A15040A2B1B65E8559A030552
:106900000E1353C11B67F40353C11165E8362E689B
:10691000EA003E626C6B001353C11C01FFFF67EF7E
:106920001A54561D1B65E8361A1A1B351C01C00087
:106930000C014000420422221A671E351C116821F6
:106940001C01FFFF67961C68111C0406031A1A68D5
:10695000531B031404EB032E030311032E690F00D2
:10696000626C6B733E0054561D131B5456202B0350
:106970001A68F21B221B2F1C1454561C1D0101FF08
:10698000161B1A221B201E141B1A0D04E3130303EB
:1069900011115456202E695D003E626C6B730054D9
:1069A000561D131B5456202B081C69172201020088
:1069B000545654C506F403115456202E00000C946E
:1069C000C037E150204030400040E09520953095A0
:1069D000009508950F01F701700109019B01B001B5
:1069E00008018A01A001112408950695379527957D
:1069F000E795089581E0E8943E912E91F12FE0E82B
:106A00000E0F0E2BE0E0111F19F40F770EF020FB94
:106A10000895EBDFEADFF7FDD4DF0895DBDF0695AD
:106A200037952795E79513951517C8F3B9F7089586
:106A30009927E0DFFF2EEE2EB901A8011E910E91DD
:106A4000DBDF0895FF25150F911D1F57910908954C
:106A50001124F6F004C0EE0F221F331F001F115047
:106A6000904007FFC2F71F5F9F4FEE0FE0E0211D30
:106A7000311D011DC0F3992351F4112351F0000F72
:106A8000FF0F179507952D933D930C944B290AF012
:106A9000689411270027980120F9EE27F4CF699612
:106AA00000662B002300C4DF6EF0BEDFB2DF92DF92
:106AB000B0DFEE0D261F371F041F1E5F9F4FF02F04
:106AC00007FD7FDFC5CF6A9E00662F002300B0DF81
:106AD00001F35030E9F25095B5DF87DF7BDF85DFCA
:106AE00079DF81E208C0FF1C001C111C551FEE0F4E
:106AF000221F331F001FEE1526073707040720F05B
:106B0000EE19260B370B040B8A9569F7EF2D9001D0
:106B1000052F5BDF9DCF6AC600662A00230088DF51
:106B200091DFEE245527FF24F07FF6608827EE2DB5
:106B3000E52E5F2DFF24269FE00DE11C581FF81E57
:106B4000279FE00C511DF81E249F500DF11C232F90
:106B5000302FFA95F2FDEBCF2E2D352F0F2D78CF5C
:106B60006B1600666E656700230010588ECF6B6051
:106B700000662D006B686AA42E6B6E803264726FA3
:106B8000700003036B7980326F76657200C86B8486
:106B900080327377617000C96B8E80643E7200131F
:106BA000136B988064723E0011116BA100642C007D
:106BB0001B54F154F12E6BAA0064303C001B0315EA
:106BC0002E6BB600663C006B746BBD2E6BC100660D
:106BD000696E740023000EDF5FE926DF1CDFED9392
:106BE0002D93102F032F51CF6BCC00666C6F617407
:106BF00000232E91EE91302F012F1FE99927E89461
:106C00005ECF470000400047000041A0131622134A
:106C10006BF16C0212040C125CA62B086C076B1C47
:106C200006FB111504056ACC05036B1C1101FFFF5F
:106C30002E2B2B2B2C272B0803211303031A1A139B
:106C4000136C076B1C48486BC704020F1111110627
:106C5000E813490303112E6BE80023666400131A3E
:106C60001A6BD41A2C3016121F6BF16B746C076BF5
:106C70001C11222E6C57002366001A1A0D04186C82
:106C80000248486BC71C13040A030301FFFF0141BC
:106C90009F496C3105071A1A2B2C01132B5E835E5A
:106CA0008303032C2B12151C16425E342C655E34B4
:106CB00011040649030305036ACC54A401FFF81A22
:106CC00054C51D6C5E2C2E1A1F222C062B086C5EE0
:106CD00006FD032E6C7400662E001B1A017FFF0C4C
:106CE0005E536C7A5E745E6252EC53062E3C037FF8
:106CF0002C09010126252E2C832C432503603F2ED1
:106D00002CBF2C6D0A032E01038C2C222B302E233A
:106D1000C8017D010E945D0DD7018C010C944B29A7
:106D20006CF02B2C44251C2C023222222C452501F0
:106D30001BEE6CED2C10361C6CED2C0716252CE38D
:106D40001B2C030C326CED252C042CFB2C680A0345
:106D50002C406D006D072B6D0F553C04FA6D072E0E
:106D60002300C8017E916E917D010E944E0DD4CF0B
:106D700054617065203A2D2820002B6D002B6CF794
:106D80006CED2C0D162642016D70568D2E6CD400C4
:106D9000656172006D201C242C024214042E1C2CF0
:106DA0000316261B2C01162613553C140409544BBC
:106DB0001D122C063342122B08216D0F553C04087E
:106DC0001A2C40362C401606F103116D7A2E230042
:106DD000112768E01195000F10406A95D9F79ECFF2
:106DE0001B1301011A242C08421504F71C01011978
:106DF000256DCE1A1A0E1C1116152C800C2C100D98
:106E00002C0F01011A0A0315141C16220903162E51
:106E10002C06331A161B0801C0002B2F212C4016FC
:106E200021081321241C136DE02B11116D6006F352
:106E30002C052B0813126DE01C14140140000C11DA
:106E40002C083206F003032C4007CD2E2B2C6E2588
:106E50002C45252B6CF72E032C402CBF2C2A0A0323
:106E60002C422C44252C036E4C2C372C47252B010F
:106E7000011A252E6E5752B1533853746172742023
:106E80005265632C20686974206B65792E00526C02
:106E9000036CF02C022C6E256CED131225122227A8
:106EA000122C0316272C22592854DA1C5897221228
:106EB0002C05161B362B112E6D8D006D696300138A
:106EC0001A4201003F162C06321A1A2C02116E7457
:106ED0002C016E101B2B081A212C0633166CED2C7E
:106EE00040366CED2C016E1006EE03032B6E4C2E1B
:026EF0000000A0
:00000001FF
:000000