:100000000C94D4020C94E6020C94E6020C94AF110A
:100010000C94E6020C94E6020C94E6020C94E602C0
:100020000C94E6020C94E6020C94E6020C949D0FEC
:100030000C94E6020C94E6020C942F0B0C94E6024E
:100040000C94E6020C94E6020C94E6020C94E60290
:100050000C94E6020C94E6020C94E6020C94E60280
:100060000C94E6020C94E602080B0907000A200D26
:100070000F0B0F1B000AA08DD2313233D234352D35
:100080002EDE2C213AAB3B2261627363646573669A
:100090006D6E6F7A7071727AC3363738C339302B10
:1000A0002ACD2F2428CD293D676873696A6B736C4C
:1000B0007475767A7778797A007C40230034352D10
:1000C0007F00253F7B007D274142534344455346F3
:1000D0004D4E4F5A5051525A0036373800393C3E37
:1000E0005E005C605B005D26474853494A4B534CB9
:1000F0005455565A5758595A10050520202020208B
:10010000202020202020052020202020202020200A
:10011000208484840607848484848484840684847C
:1001200084840784848484848484A020201595009A
:10013000A00115A0A0011595A020159500A00115FE
:10014000A0A001A020201595A020A0159520A01505
:1001500095A0201595A020A0159520A0A0202015E1
:100160009502A0A0159520A0159502A0159502A0B6
:1001700003159520A020202020202020A020202032
:10018000202020202020202020202020202020206F
:1001900020202020A00320202020202020202020FC
:1001A000202020202020203F7FFFFFFFFFFFFFFCBB
:1001B000FEFFFFFFFFFFFFFFFFFFFFFFFF7F3FFF90
:1001C000FFFFFFFFFFFEFC00FF00FF00FF00FFFF3F
:1001D000FFFFFFFFFFFF000F0F0F0F0F0F0F00F0CC
:1001E000F0F0F0F0F0F000FF80808080808080FFF1
:1001F00000000000000000FF010101010101018079
:1002000080808080808080010101010101010180E6
:10021000808080808080FF00000000000000FF01DF
:10022000010101010101FF3F7FFFFFFFFFFF000F01
:100230000F0F0F00000000F0F0F0F000000000FFD2
:10024000FFFFFF00000000000000000F0F0F0F0F66
:100250000F0F0F0F0F0F0FF0F0F0F00F0F0F0FFF3A
:10026000FFFFFF0F0F0F0F0000000055AA55AA5502
:10027000AA55AA0000000050505050505050505500
:10028000AA55AA55AA55AA0000183C3C1800003CE3
:100290007EFFFFFFFF7E3C3E419CAC9F403F000045
:1002A000008E9526C8F0000000000000000000004D
:1002B00010101010001000002424000000000000A6
:1002C000247E24247E240000081E281C0A3C0800EA
:1002D00062640810264600001028102A443A0000E4
:1002E00008100000000000000408080808040000CE
:1002F00020101010102000000014083E0814000008
:100300000008083E0808000000000000080810006F
:100310000000003E0000000000000000181800006F
:1003200000020408102000003C464A52623C0000D3
:1003300018280808083E00003C42023C407E0000AD
:100340003C420C02423C0000081828487E0800008D
:100350007E407C02423C00003C407C42423C00002B
:100360007E020408101000003C423C42423C000067
:100370003C42423E023C0000000010000010000021
:1003800000100000101020000004081008040000F5
:1003900000003E003E0000000010080408100000AD
:1003A0003C420408000800003C4A565E403C000005
:1003B0003C42427E424200007C427C42427C000041
:1003C0003C424040423C00007844424244780000B5
:1003D0007E407C40407E00007E407C4040400000EB
:1003E0003C42404E423C000042427E4242420000BB
:1003F0003E080808083E000002020242423C00009B
:10040000444870484442000040404040407E000064
:1004100042665A42424200004262524A464200004C
:100420003C424242423C00007C42427C4040000050
:100430003C4242524A3C00007C42427C4442000022
:100440003C403C02423C0000FE1010101010000026
:1004500042424242423C00004242424224180000D2
:1004600041412A2A14140000422418182442000092
:1004700082442810101000007E040810207E000026
:100480000E080808080E00000040201008040000B4
:1004900070101010107000001028440000000000C0
:1004A000000000000000FF001C227820207E0000D9
:1004B0000038043C443C000020203C22223C000048
:1004C000001C2020201C000004043C44443C00008C
:1004D00000384478403C00000C1018101010000048
:1004E000003C44443C04380040407844444400000C
:1004F0001000301010380000040004040424180018
:10050000202830302824000010101010100C00009B
:10051000006854545454000000784444444400009B
:100520000038444444380000007844447840400097
:10053000003C44443C040600001C20202020000015
:10054000003840380478000010381010100C0000FB
:10055000004444444438000000444428281000006B
:10056000004454545428000000442810284400003B
:10057000004444443C043800007C0810207C000403
:1005800008083008080400000808080808080020C7
:1005900010100C1010200000142800000000003C77
:1005A0004299A1A199423C0011241FBECFEFD4E093
:1005B000DEBFCDBF13E0A4E0B1E001C01D92A63FB5
:1005C000B107E1F70E946C040C940B120C9400002C
:1005D0002A9886E00E94F50A2A9A08950F931F939D
:1005E000CF93DF938C01EB012A9883E00E94F50AF8
:1005F000812F0E94F50A802F0E94F50A80E00E9458
:10060000F50A00E010E00E94FA0A89930F5F1F4F7D
:1006100081E000301807B9F72A9ADF91CF911F9136
:100620000F9108950F931F932A988FE90E94F50A5E
:100630000E94FA0A90E08F37910519F40E94FA0A95
:1006400090E0C79719F02FEF3FEF0AC00E94FA0A17
:10065000182F00E00E94FA0A282F30E0202B312BBF
:100660002A9AC9011F910F9108952A9885E00E9446
:10067000F50A0E94FA0A2A9A08950E94350380FD1D
:10068000FCCF08950F931F93CF93DF938C01EB0161
:100690000E94E8022A9882E00E94F50A812F0E94B7
:1006A000F50A802F0E94F50A80E00E94F50A00E01A
:1006B00010E089910E94F50A0F5F1F4F81E0003022
:1006C0001807B9F72A9A0E943D03DF91CF911F9135
:1006D0000F9108950F931F93CF93DF938C010E9486
:1006E000120380708050904219F4C8EDD0E002C02F
:1006F000C0E2D0E00E94E8022A988C2F0E94F50AFE
:10070000812F0E94F50A802F0E94F50A80E00E9446
:10071000F50A2A9A0E943D03DF91CF911F910F9114
:100720000895982F80E892FD88E091FF02C0869599
:10073000869590FD86959927089598E0899F8EE586
:1007400092E0800D911D11240895782F887F962FB7
:100750009770890F992780589C4144E1687F649F76
:10076000800D911D11240895660F660F770F679F06
:100770009C01CA01A001E1DFBC01C9010C94F60B88
:1007800080931C0160931D0180910F0180931B01D8
:1007900080910D0180930E010895782CD02E0AC00F
:1007A00007E0A02E0DB507FFFDCF0EB50EBD0C93D3
:1007B0002196AA94AB14B4F30DB507FFFDCF0EB587
:1007C0000EBD1885169D1D2001251881169D0D2032
:1007D00000250D932196AA947AF3DE2C7A9402F7E1
:1007E000DF2CF1F2CC19C5099A9408959A940895D2
:1007F0005F926F927F928F929F92AF92BF92CF92B1
:10080000DF92EF92FF92CF93DF935524C72ECC0C4B
:10081000CC0CCC0CC71A91DFEC0180910F018770D2
:1008200009F473957EDF880F991F862B682E8091BF
:100830000D01877009F4639597E0981BB92E4B0161
:1008400083E3871B7ADFDC0180910F019927609198
:100850000D0177277ADF6F936DB567FFFDCF7F932B
:100860004F935F9329980E94990A9F918F910FEF60
:10087000E02EF02EDF91CF91FF90EF90DF90CF90A0
:10088000BF90AF909F908F907F906F905F900895F2
:100890000895089583B7816083BF1092C10080E1FD
:1008A00087B93D98459A8AB18E7B8AB98BB18164AC
:1008B0008BB91EBA0E94B0100E947A050E94E70A06
:1008C0000E94D60A1EBA10926B00109268000E9415
:1008D000620F0E94000B08950E944A040E949B0927
:1008E0008FEF8DBF0C94C50C08950CC080911B0137
:1008F00090911C0124E0959587952A95E1F78170E8
:100900000E94920A0E94BA05882381F30895299AC9
:100910008CB58F7B8CBD20918400309185002F5F3A
:100920003F4F8DB58EB58091840090918500A901CF
:10093000481B590B57FFF5CF8CB580648CBD0895CB
:10094000FB014115510501F19C013F7784E00DB495
:1009500007FC02C08150D9F78EB5299A000029986A
:1009600082E08EBD0DB407FEFDCF3EBD0DB407FE87
:10097000FDCF2EBD0DB407FEFDCF80818EBD415051
:10098000504011F03196F6CF0895482F282F30E0CF
:1009900082FF02C082E004C0C901969587958170EC
:1009A00023FD83E024FD84E025FD85E026FD86E02F
:1009B00047FD87E008951F93CF93DF93282FC091C1
:1009C0000801D091090110910501809118012817A3
:1009D000F1F4CE0183709070029720F080910701AE
:1009E00087FF07C0219709F081C0809107018630F9
:1009F00024F081508093070179C086E0809307013D
:100A000085E090E090930901809308016FC02093E6
:100A10001801C130D10559F0C130D10558F0C230AC
:100A2000D10579F0C330D10509F059C02BC022237C
:100A300009F453C0822F0E94C504809305012296B9
:100A40004EC0222309F58091070187FD46C0E09141
:100A50000601143029F481E08E1B809306013DC00D
:100A6000F0E063E0EE0FFF1F6A95E1F7E10FF11D83
:100A7000E859FF4FE491E093040110920601C4E0AD
:100A8000D0E02DC0222349F181E090E0012E02C088
:100A9000880F991F0A94E2F7281B822F0E94C50431
:100AA000E0910601F0E053E0EE0FFF1F5A95E1F7E9
:100AB000E10FF11D43E0EE0FFF1F4A95E1F7E80F4C
:100AC000F11DE858FF4F8491823D21F0809304018D
:100AD00010920601C5E0D0E002C0C0E0D0E080E1A5
:100AE00080930701D0930901C0930801DF91CF9152
:100AF0001F91089587B1807F87B988B18F6088B9C9
:100B000057985F9A2098289A089520910B012223E4
:100B100051F486B180958F7080930C012098289AAB
:100B2000579A5F980EC096B190959F7080910C0176
:100B30008295807F892B80930C0157985F9A209A29
:100B400028982F5F217020930B0180910C0108954C
:100B50000E948505982F80910B01882351F4809184
:100B60000A01981721F4892F0E94DB0408959093BD
:100B70000A010895209108013091090122FD02C067
:100B800080E00895809104012B7F30930901209328
:100B900008010895CF93DF9380910F01C0910D015B
:100BA000D0910E01C80FD11D8881805888830E9482
:100BB000BA05982F8823D9F3888180588883892F94
:100BC000DF91CF9108950E94120320E283319207B2
:100BD00049F020E28331920740F08351904302971D
:100BE00020F406C020E031E005C020E030E002C083
:100BF00020E130E0C90108950E94120320E2833110
:100C0000920749F020E28331920740F083519043EC
:100C1000029720F406C020E031E005C020E030E07B
:100C200002C020E830E0C9010895CF93DF930E940D
:100C3000120320E38331920739F020E384319207D5
:100C400049F08351904219F4C0E0D8E005C0C0E0FB
:100C5000D0E002C0C0E0D0E10E94FC059E01281B4C
:100C6000390BC901DF91CF9108950F931F93CF9353
:100C7000DF93EC010E9415068C010E94E305081B1E
:100C8000190B16950795C017D10710F420E00BC07B
:100C90000E94E30520E00197969587958C239D237C
:100CA000892B09F421E0822FDF91CF911F910F91C1
:100CB0000895CF92DF92EF92FF920F931F936C01F2
:100CC0007B010E9415068C01169507950150104076
:100CD000C801880F892F881F990B91958E0D9F1D34
:100CE000B6010E94EE020F771070000F111F0C0D5D
:100CF0001D1DF801808191811F910F91FF90EF9050
:100D0000DF90CF900895CF93DF93EC010E9487048A
:100D1000CE0160E070E00E9459068F5F9F4FE1F4C2
:100D20000E941506FC01F695E7953297EF77F07073
:100D3000EE0FFF1FEC0FFD1F808191818F5F9F4F92
:100D400041F0CE0160E170E00E9459068F5F9F4F35
:100D500019F020E130E002C020E030E0C901DF916D
:100D6000CF910895EF92FF921F93CF93DF93EC0101
:100D70007B01CB010E948306892B21F080E090E467
:100D8000C827D927D6FD02C010E001C010E1DF73EB
:100D9000CC0FCD2FCC1FDD0BD1951C0F812F90E0F8
:100DA000B7010E94EE02812FDF91CF911F91FF903A
:100DB000EF900895CF93DF930E9487040E949B09D0
:100DC000C0E0D0E015C080E065E10E942C098EE112
:100DD00091E00E9483068C0F9D1F0E945C0ACE0149
:100DE00040966EE171E00E94EE020E94CA052196D3
:100DF0000E94150696958795C817D90720F3DF91AD
:100E0000CF9108958F929F92AF92BF92CF92DF922F
:100E1000EF92FF920F931F93CF93DF935C016B01CF
:100E20000E9415064C0196948794E12C40E8F42E1C
:100E3000C0E0D0E0CE019F738815990520F0C07006
:100E4000D07CC050D04C8E010F7710700115110569
:100E500021F4CE01B6010E94B206000F111F0C0D45
:100E60001D1DF801808191818A159B0549F08F5FD6
:100E70009F4F61F420E0E21620E8F20651F417C01B
:100E80008FEFA8168FEFB80691F07E012196D7FF5D
:100E9000D1CFC701DF91CF911F910F91FF90EF90BC
:100EA000DF90CF90BF90AF909F908F9008957E017C
:100EB000F0CFCF92DF92EF92FF920F931F938C01AE
:100EC0007B010E9487040E94FC056C01C801B701E8
:100ED0000E9402079C013F73220F331F2C0D3D1D02
:100EE000C9011F910F91FF90EF90DF90CF9008956F
:100EF0000F931F93CF93DF93EC018B0196FF04C0F8
:100F00000E948704DF7309C00E945907EC01B801F1
:100F100060507F4F01960E94EE02CE01B8010E9400
:100F2000EE02CE01DF91CF911F910F910895EF92C4
:100F3000FF920F931F93CF93DF937C018B018FEF71
:100F40009FEF0E940207EC010E9415069695879577
:100F50008150904CC817D90748F0C8010E948306F9
:100F60000E946A0380E090E4C827D927CE01B80127
:100F70000E94B206CF77D070CC0FDD1FC00FD11FFB
:100F8000F982E88290E0B8010E944203DF91CF919C
:100F90001F910F91FF90EF900895CF93DF93EC0195
:100FA000DF730E941506C817D90720F00E941506A6
:100FB000C81BD90B0E94FC059E01220F331F280F6E
:100FC000391FC901DF91CF9108954F925F926F92BF
:100FD0007F928F929F92AF92BF92CF92DF92EF92C9
:100FE000FF920F931F93CF93DF938C016B010E94AD
:100FF000E30596958795782E0E941506272D30E0FB
:10100000FC01F695E795E21BF30BC8019F738E1761
:101010009F0720F0E801CE1BDF0B07C0E901C00FDE
:10102000D11F80E090E4C827D927672CCE010E9409
:10103000CD072C01C8010E94CD075C01B6016050AC
:101040007F4FCE010E94B206FE01EF77F070E058AC
:10105000FF4FEE0FFF1FEC0DFD1D80809180C4013E
:10106000B6010E940207C817D90731F50E94FC0596
:101070008E011F73000F111F080F191FC801B60141
:101080000E94EE0275010894E11CF11CC501B60135
:101090000E944203C8010196B6010E94EE02570168
:1010A0000894A11CB11CC701B6010E944203C401EF
:1010B000B6010E9497076A947A9411F02196C4CFE2
:1010C000C2010E946A0380E016140CF081E0DF91F7
:1010D000CF911F910F91FF90EF90DF90CF90BF9035
:1010E000AF909F908F907F906F905F904F900895FA
:1010F000CF92DF92EF92FF920F931F93CF93DF93E4
:101100007C018B01EA010E948704C801BE010E9494
:101110004203C12C31E0D32ECC0EDD1EC801019656
:10112000B6010E944203C701BE010E949707EE2448
:10113000E3948FEF9FEFBE010E9402078C01B6017E
:101140000E943506882349F0EE2039F0C801BE011F
:101150000E94E507E82E882361F7DF91CF911F9168
:101160000F91FF90EF90DF90CF900895CF92DF9294
:10117000EF92FF920F931F93CF93DF930E9412037E
:101180006C010E94E305C0E0D0E07C010894E10816
:10119000F10820C083E1C81680E2D80681F42097C8
:1011A00071F0C031D10559F0C032D10541F0C034E1
:1011B000D10529F0CE018E219F21892B51F480E0A9
:1011C00064E10E942C09CE010E945C0ACE010E94BB
:1011D0006A0360960E9415068C010E94FC05080FA8
:1011E000191FC017D107B0F2DF91CF911F910F9156
:1011F000FF90EF90DF90CF9008950E9475040895BE
:1012000097FD02C080E008958EE191E060E070E01B
:1012100040E052E00E94FB1181E008950F931F937C
:10122000CF93DF93EC018FEF9FEF6EE171E00E94AF
:101230005907182F092FCE010E940009882329F48D
:10124000CE016EE171E00E947807812F902FDF912F
:10125000CF911F910F910895282FF09B03C06093A9
:101260000D010AC089E1689FC0011124825E9E4F72
:1012700090930E0180930D0120930F010895EEE1EC
:10128000F1E0818D819383E0ED35F807D0F302C062
:10129000819301C080E293E0E637F907C8F38091BB
:1012A0000D0190910E01499790930E0180930D01CD
:1012B0000895CF93DF93EC0103C081E00E943F09C2
:1012C00080910D0190910E018C179D07B0F7DF9171
:1012D000CF910895CF93DF93EC018D30910529F4E0
:1012E00089E180930F01C0E0D0E080910F01893146
:1012F00058F010920F0180910D0190910E014996C6
:1013000090930E0180930D0186E793E00E945909A6
:10131000209771F080910F01E0910D01F0910E0185
:10132000E80FF11DC08380910F018F5F80930F0143
:10133000DF91CF910895EEE1F1E080E2819393E0B7
:10134000E637F907D8F380E060E00E942C090895A1
:10135000282F823308F04FC0603308F04CC0862F2E
:10136000869599E1899FF0011124822F8695E80FD7
:10137000F11DE25EFE4F60FD02C052E001C058E088
:1013800020FD56950AB401FC02C030E001C0352FA3
:101390000AB400FC02C040E001C0452F9081903AA1
:1013A00031F0892F8877803111F020E006C0292F95
:1013B000277827FF02C08FE82827852F8095832371
:1013C000942F932B9095982B92233095352334238B
:1013D000932B452320954223942B93FF02C08FE843
:1013E0009827292F205F822F90E087709070892B9B
:1013F00009F4205F208308950F931F93CF93DF9309
:101400008F3908F04CC06F3908F049C090E0EC010A
:10141000C87FD070C058DC41262F2770C20FD11D65
:1014200024E1687F629FC00DD11D112487709070E8
:1014300040E850E002C0559547958A95E2F7242F81
:101440000AB401FC02C010E001C0142F0AB400FC71
:1014500002C000E001C0022F84E00DB407FC02C00E
:101460008150D9F78EB5299A00002998CE010E94A3
:10147000990A0DB407FEFDCF8EB5202F282B912F92
:1014800090952923809518231023212B2093100158
:10149000CE0160E171E041E050E00E94A004DF91E4
:1014A000CF911F910F910895F09B03C00E94FC09FA
:1014B00008950E94A8090895EF92FF920F931F9339
:1014C000CF93DF93EC0180E30E94E60B88E70E9454
:1014D000E60B10E000E07E019F2D92959F70905DDD
:1014E000892F91332CF4133019F0002341F001C0FF
:1014F00001E09A3314F0892F895D0E94E60B1F5F8B
:10150000143031F084E0CC0FDD1F8A95E1F7E3CF92
:1015100080E20E94E60BDF91CF911F910F91FF9027
:10152000EF90089598B1811180E19F7E892B88B951
:101530000895282F83E08EBD0DB407FEFDCF9EBD1C
:101540000DB407FEFDCF2EBD0DB407FEFDCF1EBCB2
:101550000895FF920F931F93182F092FF62E2998A5
:1015600082E00E94F50A802F0E94F50A812F0E94D6
:10157000F50AFEBC1F910F91FF900895FF920F9303
:101580001F93182F092FF62E299882E00E94F50A42
:10159000802F0E94F50A812F0E94F50A8F2D0E944C
:1015A000F50A299A1F910F91FF900895299881E0DB
:1015B0000E94F50A81E40E94F50A299A0895299863
:1015C00085E00E94F50A0E94FA0A299A089584B1DA
:1015D000817C8E6284B985B1817C866085B98DB548
:1015E00081608DBD80E58CBD08958EBD0DB407FE74
:1015F000FDCF08951EBC0DB407FEFDCF8EB5089536
:10160000CF93DF93C8EFD0E00E949B0926EE31E034
:1016100013C0FE01E80FF91FE491D901A80FB91F0B
:10162000EC93019689319105A1F7699682E02C37F8
:10163000380729F0275E3F4F80E090E0EACF209105
:101640001B0130911C012C593F4F80911B0190913F
:101650001C0128173907C9F7DF91CF9108957894B5
:101660008F939F93809100018A958093000171F080
:1016700090E280FD91E297BD9091010108949795C9
:101680009093010182E828F482EC03C080E085BDDC
:1016900082E084BD9F918F9118958F930F9385B5AC
:1016A0008823E9F7009301010BE00093000180E239
:1016B00087BD82E884BD80E086BD83E085BD0F9153
:1016C0008F910895082FE9CF8F939F935E9A569A32
:1016D000882785BD80916E00826080936E0078942B
:1016E0009F918F910895CF93DF93CDB7DEB7EF939E
:1016F000FF932F933F934F935F936F937F938F93BA
:101700009F93AF93BF930F921F921FB61F92112406
:10171000FB81EC81EE0FFF1F25913591F695E79542
:10172000EC83FB83F901F695E79509951F901FBEA1
:101730001F900F90BF91AF919F918F917F916F916B
:101740005F914F913F912F91FF91EF91DF91CF9159
:1017500008950F931F93CF93DF93EC010E948704AA
:10176000E881F0E0998190958081892380830CC085
:10177000EA81FB818191FB83EA830E94F50A8C81D7
:101780009D8101979D838C838C819D81892B81F71D
:101790000EC01E810F810E94FA0AE12FF02F819363
:1017A000FF83EE8388859985019799878887888547
:1017B0009985892B71F7E881F0E080819981892BE7
:1017C0008083DF91CF911F910F91089599270C94F9
:1017D0006A09D7FD04C0FE018591219606C02196B5
:1017E0008DB587FFFDCF8EB58EBD089597FF1BC0C9
:1017F0006F936DB567FFFDCF299A7F934F935F93EA
:1018000029980E94990A9F918F91BF91AF9101C031
:101810006EBD6DB567FFFDCF6EB56D930197C1F7D6
:10182000299A6EBD0895FC01DB01CA0145914D93D3
:101830000197E1F70895299A8EBD08956C0C7D1CDF
:101840008C0C9D1CA6014830510508F048E0641A34
:101850007108841A9108A42E50E0C30160E171E080
:10186000C5DFC40160E171E04A2D50E00E94A00490
:10187000CA18D10839F72DC04115510589F19031A9
:1018800080F17031A8F1DF92CF92AF929F928F9248
:101890007F926F926A013C014B018617970770F2A5
:1018A000A6014830510508F048E0A42E50E0C301DD
:1018B00060E171E09BDFC40160E171E04A2D50E01E
:1018C0000E94A0046A0C711C8A0C911CCA18D108D1
:1018D00039F76F907F908F909F90AF90CF90DF906F
:1018E0000895703130F0FC01CB01BF010C94A004CD
:1018F0007DCFFC01DB01CA01EA17FB0728F06191EB
:101900006D930197E1F70895E80FF91FA80FB91F2C
:1019100062916E930197E1F7089529988EBD05D0E5
:101920008DB587FFFDCF299A08956115710531F1B5
:10193000903128F1DF92CF92BF92AF926C015B01A0
:101940006830710508F068E070E0A0E1B1E018D0FF
:10195000C60148E050E0A416B50608F4A501A41A93
:10196000B50AC40ED51E60E171E00E94A004A11466
:10197000B10471F7AF90BF90CF90DF900895DC0174
:10198000CB014D930197E9F708950E94550FEC01A3
:1019900080E090E029980E94990A86EF93E07C010C
:1019A00083E19FE03C01D7FF34C08DB587FFFDCFB9
:1019B000299ACE0129980E94990A13C0D7FF0BC01B
:1019C000D82DCDB5C7FFFDCFCEB5299ACE01299828
:1019D0000E94990A06C0FE01C491D82D1AC0D7FFF3
:1019E00018C021968DB587FFFDCF8EB58EBD823490
:1019F00020F4F301E80FF11D09942196DF93CF93B2
:101A0000D82F87FDDECFCDB5C7FFFDCFCEB5299A44
:101A1000CEBDFE0185912196823420F4F301E80FBA
:101A2000F11D09942196DF93CF93D82FC591F1CF63
:101A3000C801D7011E910E917D018234910570F38A
:101A4000DF93CF93EC01AFCFD7010D931D937D01B1
:101A500010E000E0C4CF90E002C0BBDE982FD701B9
:101A60000D931D937D01B5DE8C01B9CFD7011E9179
:101A70000E917D01B4CF012BD7011E910E917D01F6
:101A800011F0229690CFA5DE882E98CFA2DE882E68
:101A9000D60111966D01CA14DB040AF48FCF99DECA
:101AA000CF90DF90AF90BF909ACF93DE882ED60173
:101AB000A00FB11F6D01AA19BB09B127F70112913F
:101AC00002917F01B7FDEACFEACFBF92AF92DF92DA
:101AD000CF92D7016801BE90AE901E910E917D010C
:101AE0007ECFD7017E916E914427069F4001169FBD
:101AF000612D900C641F079F900C611D179F712D25
:101B0000600D741F8B018D929D9211247D0167CF12
:101B1000D70111978E9111976E91F801F894008179
:101B20008023862B8083789411277D0158CFD7019D
:101B30009E918E917E916E9121E2441B551B07C0B0
:101B4000441F551F4017510710F0401B510B661FD3
:101B5000771F881F991F2A9599F7609570954D9367
:101B60005D938B017D013BCFD7019E918E91082320
:101B700019237D0134CFD7019E918E91082B192B0B
:101B80007D012DCFD7019E918E91082719277D01C8
:101B900026CF650124CFD7010D931D937D010F91B1
:101BA0001F911DCFD7010D931D937D01EDB7FEB79A
:101BB0000181128114CF1F930F93D7011E910E91B3
:101BC0007D010DCF012B09F00FEF0095102F07CFEE
:101BD000002717FD0095102F02CFD7019E918E91FF
:101BE000080F191F7D01FBCED7019E918E917E912A
:101BF0006E915E914E91840F951F061F171F8D9356
:101C00009D937D01ECCE109501951F4FE8CED70135
:101C10009E918E9190950095109581959F4F0F4FB5
:101C20001F4F8D939D937D01DACED7010D931D93A8
:101C30007D0114970D911D91D2CED7019E918E9169
:101C40000D931D938C01CBCED7010D931D937D0178
:101C5000C6CE42E068E003C041E069E08824C801E4
:101C600070E050E0C3DD092D182D9DCE41E0D70175
:101C700011978E9004C042E0D7018E909E90C801CB
:101C80001E910E9168E070E050E07D010E94A0047A
:101C90008ACED7010D931D9386017D01A0CE0F5FE3
:101CA0001F4F9DCEFE013196F695E7950994D80118
:101CB0000C91112794CED70111978E91F8011E91A6
:101CC0000E917D0180838BCED7010D931D937D01F5
:101CD0000091190110911A01080F111D089579DD65
:101CE000F3DFD8010D911C917ACE73DDEDDFD701C2
:101CF0009E918E91F8011E910E917D01F894819331
:101D0000908378946CCEC8010E946A09AFCEC80156
:101D10000E945C0AABCEECE2F9E0D7019E918E9175
:101D20007D01B8010995D7011E910E917D013BCE31
:101D3000CF91DF9138CE0150104051CEE5E9FCE063
:101D400048C0D7019E918E9104C0892F9927085FC2
:101D50001F4F08301005C8F702C0969587950A9561
:101D6000E2F78C017D013BCED7019E918E9104C09C
:101D7000982F8827085F1F4F08301005C8F702C04A
:101D8000880F991F0A95E2F78C017D0128CE2998CA
:101D900085E08EBDD7011E910E917D0104CEC80154
:101DA0000E940E098C0180E09EEF6EE171E040E040
:101DB00052E00E94A004F7CDC801D7017E916E9138
:101DC0004EE151E07D010E947808E1CFECE3FCE0B8
:101DD00000C0A801D7017E916E919E918E917D01E8
:101DE0000995D8CFE4E5FAE098CFC8010E94A90B85
:101DF000D1CFF5CDC8013ACED7010D931D937D010A
:101E00008E0196CFD7010D931D937D01E2DC182F33
:101E1000E0DC082F8DCFE4EBF3E0DBCFE0CDE0ECAE
:101E2000F3E07BCFB2CDDBCD18CE02CE1FCE23CEDA
:101E30002ACE2CCE3ACE49CE54CE6ACE78CE94CE8F
:101E40009ACEA0CEA6CEA7CEA6CEACCEB4CEBACEDB
:101E5000BFCEC3CEC9CED7CEDACEE7CEEECEF4CE4D
:101E6000F8CEFACE03CF07CF14CF19CF1BCF1FCF99
:101E700022CF37CF3CCF47CF32CF49CFE5CDEBCDC7
:101E80004ACF56CF58CF5ACF30CF5BCF6DCF87CF09
:101E900093CF9CCFA7CFA9CFACCFACCFADCFB2CF94
:101EA000BACFBCCFBBCFBACFBACFE0E0F8E5249130
:101EB0003196E491922F80E02E2F30E0282B392BA1
:101EC000C901089583E883BD83E38093B0008AE06D
:101ED0008093B1001092B2008EE98093B3008BE042
:101EE0008093B4001092800022E020938100109231
:101EF0008500109284008BE090E09093890080939D
:101F0000880020936F0050988AB18A608AB98BB19B
:101F1000857F8BB988E080931D01E4ECF0E01182AD
:101F2000108280EC8093C2001092C10081E090E0AA
:101F300091838083789413BC08951F920F920FB6FB
:101F40000F9211248F939F9380911D01873009F088
:101F500043C00E94BF1080910201882389F58091BF
:101F6000070187FD07C08091880090918900855303
:101F7000974E06C080918800909189008D54914FB2
:101F80009093890080938800F09B0AC0809188001C
:101F9000909189008051964F90938900809388009A
:101FA00088E080931D0180911B0190911C01019696
:101FB00090931C0180931B010E94730B500BC9C0AE
:101FC00080918800909189008E569F4F9093890050
:101FD0008093880086E028C0833009F442C08430B2
:101FE00028F4813021F1823088F50DC0853009F464
:101FF00072C0853008F444C0863009F489C0883046
:1020000009F0A7C09AC08FE48093B30085E0809365
:10201000B4008091880090918900845B9E4F9093DA
:1020200089008093880081E080931D0192C089E43B
:102030008093B400809188009091890080579E4FD2
:10204000909389008093880082E0EECF8091880091
:1020500090918900CE96909389008093880083E0C8
:10206000E3CF85E08093B40080918800909189004F
:102070008A569E4F909389008093880084E0D4CF45
:102080008EE98093B3008BE08093B400F09B0FC087
:1020900080E18093020180918800909189008350B3
:1020A0009D4E909389008093880085E00DC010922A
:1020B000020180918800909189008B5F914F9093ED
:1020C00089008093880086E080931D0178940E94A7
:1020D000730B500B3EC0809188009091890088500E
:1020E0009B4F909389008093880086E080931D0128
:1020F00080916B00826080936B00809168008160AA
:1021000080936800D89A299B24C02998299A21C0D5
:1021100080916B008D7F80936B00D89A80918800AE
:10212000909189000D96909389008093880087E0B4
:1021300080931D01789488950CC0809188009091BF
:1021400089008D569F4F909389008093880010924C
:102150001D019F918F910F900FBE0F901F901895AA
:1021600027EA31E0A6E7B3E005C0F90184918D9339
:102170002F5F3F4FF3E0A63FBF07B8F308950F92DC
:102180001F92EF93FF930F93AF93BF93CF93DF9380
:10219000D0910201D03CA0F5F39998C0A9E1BD2FE0
:1021A000B695B695B695AB9FAEE1B1E0A00DB11D69
:1021B000D7701F9318E108E0F0E0E8E0F093C60064
:1021C000E093C100ED91CE2FEF770E9F0D0EE03121
:1021D00030F0E7EAF1E0E00DF11DE49106C0E6E73A
:1021E000F3E0E00DF11DE08100C0C7FDE095F09146
:1021F000C000F5FFFCCFE093C60011501AF73CC0B9
:102200001F93E0910601E0FDE0E4F0910501FF0F6E
:10221000FF0FFF0FEF0FF0E0D3FDEC5FA8E7B0E09A
:10222000AE0FBF1FE7EAF1E0CD2FC770D0E0CE0FB1
:10223000DF1F10E0E8E0E093C100FD0104910032EF
:1022400008F400E2E8E0F02FFF77EF9FFE01E00DD9
:10225000F11D049007FF0094F091C000F5FFFCCF42
:102260000092C60011961F5F143038F3D09102011E
:10227000DF5FD03D48F409C0D0910201DF5FD03C60
:1022800020F0F0910701F7FFD0E0F091C000F5FFDA
:10229000FCCFA0E0A093C100D03C51F4E0918800B5
:1022A000F0918900E85DFF4FF0938900E09388008A
:1022B000D09302011F91DF91CF91BF91AF910F9108
:1022C000FF91EF911F900F90089500001F93F49BD2
:1022D0003DC0AEE1B1E00EEB11E0F801D3FD8D01A0
:1022E000D3FDDF01F0E0D770AD0FBF1FE4E1DE9F4B
:1022F000E801C00DD11D14E1E8E0F093C600E093C1
:10230000C1000DB507FFFDCF0EB50EBD0993EC91D1
:1023100018960091C00005FFFCCFE093C6001A9507
:1023200081F7D0910201DF3A08F4A6CF0DB507FF7F
:10233000FDCFF2990EB5D05F299AF49B05C09ECFD0
:10234000C0E405C0C0E203C0C0E101C0C8E0DC2FAA
:10235000B09BFECFB09ADA95D9F7349AF8CF0F93A5
:102360000FB70F9300910201003109F0EBCFF49900
:10237000E7CFF1982999F19A00916B000D7F0093B6
:102380006B001F93AF93BF931F9211240DB5F2986A
:1023900007FDF29A299AF39AF49AA0E8B3E11BD0C8
:1023A00000EAAEE1B1E01DB517FFFDCF1EB50EBDD1
:1023B0001D930A95C1F7D89A7894299BFECFF19B7B
:1023C0002998F398F4981F90BF91AF911F910F91A6
:1023D0000FBF0F911895299803E00EBD0DB507FFAB
:1023E000FDCFBEBD0DB507FFFDCFAEBD0DB507FFDF
:1023F000FDCF0EBD0895DC01CB01FC01F999FECFA4
:1024000006C0F2BDE1BDF89A319600B40D9241507C
:0A2410005040B8F70895F894FFCF8C
:04241A0000000000BE
:1058000061AE046B65726E0000580223FE017E9645
:10581000E00FF11FE00FF11F17FD03C00591149178
:1058200002C0159104910C94980E01A7009884650C
:105830007865635802582E028169582E58382185A0
:105840006C656176655838583F0F83616E64583FC8
:10585000584A0C826F72584A58530D83786F7258A9
:1058600053585B0E823E3E585B586432823C3C5833
:1058700064586C33823B73586C58742E82723E5855
:1058800074587C11823E72587C58841381725884FB
:10589000588C1282303D588C58931482303C589367
:1058A000589B15812B589B58A31682642B58A358DC
:1058B000AA17856D696E757358AA58B21886646DFB
:1058C000696E757358B258BD19846F76657258BD8C
:1058D00058C91A8464726F7058C958D30384737797
:1058E000617058D358DD1B8364757058DD58E71C10
:1058F000814058E758F01D82634058F058F71E81E8
:105900002158F758FF2082632158FF59061F8275DE
:105910002A5906590E0982752F590E59160B84659E
:105920006D69745916591E2884706C6F74591E590C
:10593000283782312B592859322285636D6F76655D
:105940005932593A368466696C6C593A59453083F4
:105950006963405945594F2483696321594F595808
:1059600025826940595859612682692159615969CE
:1059700027863E706F72743E596959710A8373703D
:10598000695971597D3882312D597D59862F82612F
:10599000745986598E2D842E686578598E59962AA9
:1059A00084626C6B3E599659A034843E626C6B598C
:1059B000A059AA35826C3E59AA59B429823E6C5925
:1059C000B459BC31046C6F637359BC59C4111B5B6F
:1059D00069261B181A161C5B69275B5526135B5535
:1059E0002713132E046C6F633B59C459E411111132
:1059F0005B55275B6927032E036B657959E459F8DA
:105A000023000E94CA0509C005696E6B657959F8C3
:105A10005A0823000E94BA0500C09927D7010D93A8
:105A20001D938C017D010C94980E03636C735A08CE
:105A30005A2A23000E949B090C94980E0263725A02
:105A40002A5A3C2C0D282E05636F756E745A3C5AE9
:105A5000471C221B1E2E04747970655A475A565CE7
:105A6000F0045A711A161B08211E28065A68055A96
:105A700072032E0573706163655A565A735B23284F
:105A80002E067370616365735A735A812B62135CBF
:105A9000F0045A9B2B085A7D065A962E04282E2273
:105AA000295A815A9C125A511C221116135A5F2EE0
:105AB000422E225A9C5AB02C225BFD1D045ACE5E07
:105AC000575AA55FD75C6C1E225C7A055AD65FD701
:105AD0005C6C5A515A5F2E0565726173655AB05AF3
:105AE000D72B302E06626C616E6B735AD75AE45B0B
:105AF00023302E037661725AE45AF32C3B055B0C7B
:105B000005636F6E73745AF35B002C3C60625E84B5
:105B10005C945C852E81305B005B152B02626C5BB4
:105B2000155B1C3C0020047672616D5B1C5B263C9F
:105B3000011E05636C6F636B5B265B323C011B07C8
:105B4000737973766172735B325B3F3C010D027354
:105B5000665B3F5B4E3C01190269275B4E5B583C1C
:105B6000000A0272705B585B623C005D0273705BFE
:105B7000625B6C3C000E037370305B6C5B763C03C5
:105B8000F68022001F00018082800C800C6A440392
:105B90007469625B765B8F3C80000577696474682A
:105BA0005B8F5B9A3C8002077761726E696E675B00
:105BB0009A5BA73C80040264705BA75BB63C8006DE
:105BC00007636F6E746578745BB65BC03C800807D2
:105BD00063757272656E745BC05BCF3C800A02694C
:105BE0006E5BCF5BDE3C8012036F75745BDE5BE83F
:105BF0003C80140573746174655BE85BF33C80164C
:105C000004626173655BF35C003C80180364706C34
:105C10005C005C0C3C801A03666C645C0C5C173C9A
:105C2000801C03686C645C175C223C801E04626C00
:105C30006B235C225C2D3C8020022B215C2D5C3987
:105C40001B1A1D161B202E06746F67676C655C3966
:105C50005C471A1E0E1B1F2E02322B5C475C582C11
:105C600002162E04686572655C585C635BBD1D2E70
:105C700005616C6C6F745C635C705BBD5C402E0195
:105C80002C5C705C7F5C6C202C025C7A2E02632C96
:105C90005C7F5C8D5C6C1F2C015C7A2E012D5C8D11
:105CA0005C9C18162E013D5C9C5CA55CA2142E0128
:105CB0003C5CA55CAF5CA2152E013E5CAF5CB91BE1
:105CC0005CB52E03726F745CB95CC3131B111B2E81
:105CD00004326475705CC35CD01A1A2E036E69704E
:105CE0005CD05CDC1B032E043F6475705CDC5CE7FD
:105CF0001C045CF51C2E02753C5CE75CF65CD90E5E
:105D000015045D081B03152E5CA2152E066C61742C
:105D10006573745CF65D0C5BDB1D1D2E07706661A0
:105D20003E6366615D0C5D1C1C5D401E2C800C0496
:105D30005D331E2E077066613E6E66615D1C5D34CC
:105D40002C025CA21D2E076E66613E6C66615D349E
:105D50005D461C1E2C1F0C16222E076E66613E70BF
:105D600066615D465D5A5D522C04162E0369642EF1
:105D70005D5A5D6C1C221B1E2C1F0C5A5F5A7D2E17
:105D8000076D6573736167655D6C5D805AA5064537
:105D9000727220232064992E056572726F725D8085
:105DA0005D985BB31D15045DAB61725C6C5A515A12
:105DB0005F5AA5013F5D8C614C063F6572726F7240
:105DC0005D985DB91B045DCA5DA2032E053F636F3C
:105DD0006D705DB95DCC5BFD1D142C115DC42E058D
:105DE0003F657865635DCC5DDF5BFD1D2C125DC496
:105DF0002E063F70616972735DDF5DF15CA22C134A
:105E00005DC42E413A5DF15E035DE960625E732E12
:105E1000413B5E035E105E57002E5E845E682E0975
:105E2000696D6D6564696174655E105E1F5D172C38
:105E3000405C522E02782C5E1F5E341C01FF000C69
:105E4000045E485C85055E4A5C942E07636F6D7046
:105E5000696C655E345E4B5DD6111C1D5E3B5C5FFC
:105E6000132E415B5E4B5E622B5BFD202E015D5E5F
:105E7000625E6D2C405BFD202E06736D7564676558
:105E80005E6D5E795D172C205C522E073C62756951
:105E90006C64735E795E8B60625E842B5C852E45DC
:105EA000646F65733E5E8B5E9F015EB35C852C10F4
:105EB0005C942E115D175D66202E41285E9F5EBAB0
:105EC0002C295FD72E036865785EBA5EC52C105CFE
:105ED00009202E07646563696D616C5EC55ED32C15
:105EE0000A5C09202E0564696769745ED35EE51358
:105EF0002C305CA22C091A5CB5045F062C075CA24E
:105F00001C2C0A5CB50D1C115CFD2E08286E756DED
:105F1000626572295EE55F0B221C131E5C091D5E23
:105F2000EF045F421B5C091D09035CCB5C091D0982
:105F3000175C141D22045F3E2C015C145C401105AB
:105F40005F1803112E066E756D6265725F0B5F45FB
:105F50002B2B5CCB1C221E2C2D5CAB1C135CA201DA
:105F6000FFFF5C14205F181C1E5B235CA2045F7D96
:105F70001C1E2C3A5CA22B5DC42B055F620311042E
:105F80005F83192E07656E636C6F73655F455F8471
:105F9000131C1C055F97221C1E2F2CE00C045F961F
:105FA0005CD91B5CA25CCB5CCB1C1E2C1F5CBF04B1
:105FB0005FC71C1E125CA214045FC311031B5CA20A
:105FC0001C222E22055FA91B5CA21C11032E047744
:105FD0006F72645F845FCE5B971D5BE51D161B5F70
:105FE000905C6C2C225AEF5BE55C401A5CA21312A9
:105FF0005C6C1F165C6C2211362E13056005112F88
:10600000131B221B221A1E1A1E5CA212140D045FFF
:10601000FE0303112E052D66696E645FCE60155B6D
:10602000235FD75C6C5D171A1E1A1E2C3F0C5CABED
:1060300004604E1A221A1C221B1E2C1F0C5FFA141D
:1060400004604E5CE41C5D661B1E01FFFF2E5D526A
:106050001D1C140460272E0663726561746560154B
:106060006057601F046074035D405D742C045D8C98
:106070005A7D5C6C1C1C1E5BA41D62011C225C7A98
:106080002C200D1A1F5D175C855C855BDB1D202EA7
:10609000495B636F6D70696C655D60576090601FF0
:1060A000142B5DC4035D285E3B2E476C69746572DA
:1060B000616C609060AA5BFD1D0460DB5CF00460B5
:1060C000D71C01FF000C0460D02C015C945C852E71
:1060D0002C2C5C945C942E2C2B5C942E48646C6964
:1060E000746572616C60AA60DC5BFD1D0460F41B6A
:1060F00060B660B62E4060AA60F50180225B9720F2
:1061000011032E09696E7465727072657460F561B1
:1061100003601F04612E2C7F0C5BFD1D5CB50461C8
:10612000285D285E3B05612B5D280205613F5F50BD
:106130005C141D2204613C60E905613F0360B60503
:1061400061112E0471756974610361435E685A437D
:106150006A4E2C015BE52061115BFD1D1404616535
:106160005AA5024F4B05614E0561626F727461431F
:1061700061685B7E5B73275EDF5A435A325AA52300
:106180004649476E6974696F6E200D7F6E6963685A
:10619000656D616368696E657320323031312D320F
:1061A000303132614C04636F6C64616861A5015BDE
:1061B000810180002C0E36617204732D3E6461A54E
:1061C00061B91C152E022B2D61B961C5150461D171
:1061D000182E03642B2D61C561D2150461DF192EC1
:1061E0000361627361D261E01C61CC2E0464616260
:1061F0007361E061EC1C61DA2E036D696E61EC6124
:10620000F91A1A5CBF0462091B032E036D617861E1
:10621000F9620B1A1A5CB504621B1B032E026D2A6D
:10622000620B621D1A1A0E1361E81B61E809116105
:10623000DA2E012A621D623209032E052A2F6D6FA4
:10624000646232623B13622411625F2E022A2F6263
:106250003B624C62451B032E026D2F624C62581A42
:10626000131361F51261E80B11120E61CC1B116161
:10627000CC1B2E042F6D6F64625862731361C211C0
:10628000625F2E012F62736283627C1B032E036D9B
:106290006F646283628E627C032E056D2F6D6F6466
:1062A000628E629A132B120B111B130B112E4127B6
:1062B000629A62AE601F142B5DC40360B62E046246
:1062C00061636B62AE62BE5C852E45626567696E16
:1062D00062BE62CA5DD65C6C2C012E45656E646937
:1062E0006662CA62DB5DD62C025DFC5C6C1B202EF4
:1062F000447468656E62DB62F062E52E42646F6230
:10630000F062FC5E5700085C6C2C032E446C6F6FCF
:106310007062FC630C2C035DFC5E57000662C72EA6
:10632000452B6C6F6F70630C63202C035DFC5E5714
:10633000000762C72E45756E74696C632063352C47
:10634000015DFC5E57000462C72E43656E646335D1
:10635000634A633F2E45616761696E634A63552CEA
:10636000015DFC5E57000562C72E4672657065616F
:10637000746355636A1313635F11112C025CA2628C
:10638000E52E426966636A63825E5700045C6C2B8B
:106390005C852C022E44656C7365638263952C02C8
:1063A0005DFC5E5700055C6C2B5C851B2C0262E576
:1063B0002C022E457768696C65639563B363895CCD
:1063C0005F2E1A5CAB111B0463D21B032C02160553
:1063D00063D31D132E04686F6C6463B363D501FF30
:1063E000FF5C2A5C405C2A1D1F2E0370616463D52C
:1063F00063EA5C6C2C44162E023C2363EA63F86368
:10640000F25C2A202E02233E63F8640503035C2A13
:106410001D63F21A5CA22E047369676E640564172B
:106420005CCB1504642A2C2D63DE2E0123641764D3
:106430002B5C091D62A45CCB2C091A5CB504644377
:106440002C07162C301663DE2E022373642B64494E
:1064500064311A1A0D140464502E03642E726449B8
:10646000645A131B1A61F563FF64506420640C11B5
:106470001A5CA25A8C5A5F2E02642E645A64782BDE
:1064800064625A7D2E022E72647864851361C21193
:1064900064622E012E6485649361C2647F2E013F85
:1064A0006493649E1D64992E046C6F6164649E64A1
:1064B000A801FE005B971C1D13202B5BE51C1D1320
:1064C000205C361D131C5C3620342B01FFFF1F039C
:1064D000611111115BE520111C5B972001FDFF5C30
:1064E000BF0464F01C5C362034032B01FFFF1F2E19
:1064F000032E046D6F726564A864F201010D265BC2
:106500002F01023E165CBF0465185AA5066D6F7216
:10651000653E3E5A00035A322E05766C69737464E8
:10652000F265195A325D1764FB1C5D745D521D5C87
:10653000F0140465272E06666F7267657465196529
:1065400036601F046555035D401C5BBD205D521D18
:106550005BDB1D202E032E0370656E6536655701CB
:10656000004A252E05766D6F6465655765640101E7
:106570001D242C085CAB04656E2CE10C2C1E010064
:106580003E0A032EFFFD0000000000FE0000FFFF9A
:1065900000000000000019001300FF010361743EB9
:1065A0006564659C2C196238165B2F162E06637580
:1065B00072736F72659C65AD01010F2401010D2698
:1065C0005B2F5CA22C1962892E05636C426F786583
:1065D0009C65C9131365A4111B112B081A1A1B2CD7
:1065E00020302C19160665DC03032E0463496E2245
:1065F00065C965EB131A1815161A161C1E1C125CB9
:10660000AB1B140D0465F911031B032E04226C65EA
:106610006E65EB660C2C011A2B65F41B5CA22E1325
:106620001A1B1165F41B155CA22E1B15161E2E01DC
:10663000FFFF1A2C0D661F5CA2291262962E131AF8
:106640001514120C131A1A2C0D661F1A5CA21C6169
:10665000E829122F115CA25CBF0466751C61E82951
:106660001262011B61CC1B1A161B61E8111629125C
:106670005CA20566BD1C13161A131A1A662A1C148E
:1066800014110C130466B61A16111103131A1A2CDE
:106690000D661F1A5CA261E85CCB150466A729127F
:1066A00062961B1A5CA21B115CCB5CCB1162011BB6
:1066B0001A161B0566BD1B03111B1111162E290C82
:1066C00029165CB50466DD29061C221A1829001655
:1066D00022290C221C310C16361C29061F032E1AE7
:1066E000131C131A1315141329126201111B13041E
:1066F00066F61A1A12362C19161B12161B111811CF
:106700001611221A141A29142F5CBF0D0466E11BFE
:1067100003111C291262961312140C0467241B2CFB
:1067200019161B221C2914225CB51A18150C0467B3
:10673000401A2C195CA2121612182912162C20309D
:1067400011032E290022290E291029085CA265A414
:10675000290818130567711A1C2C011B2C0D65F4F0
:106760001B5CA21166DF131B1C1E2C0D5CAB5CA214
:106770001B1A1E141229142F5CBF0D046757030344
:106780001129141A5CBF04679A13290E12291016D6
:1067900029122914115CA265D32B032E290E29027C
:1067A00016291029041665A41C13245B3C261C5BC7
:1067B0003C265CA2150467C212242C800E12252CE4
:1067C00032165A125CF00467AE1B031B11252E2FE4
:1067D0001A62012B62131B1A5CA22E3102310629A8
:1067E0000416291467CF1C29081631081B31042E02
:1067F00029062902663E67DB2E29061A1A662A1C1C
:106800000468352C0D5CAB0468201A161B1504684F
:106810001A1C662F01FFFF05681D2B2C0105682E31
:106820001A161B2902162912162B29120B2F5CCBC4
:106830005CCB67DB2E0303032B2E66BE2C0167F9AE
:10684000032C012E29062F29005CA21C0468681362
:1068500029061C2F290C115CA22201FFFF67F903F6
:1068600036290C2F310C2C012E2906310A2B2E2B08
:10687000290A2204688003290A1C22310A1E683A68
:106880002E2C0763C2688C68440568F52C0863C227
:10689000689A01FFFF67F90568F52C0963C268A7CC
:1068A0002C0167F90568F52C0A63C268B42C0167EE
:1068B000F00568F52C0B63C268C201FFFF67F005A5
:1068C00068F52C0D63C268CF2C0D683A0568F52C6D
:1068D000CD63C268DA68690568F52CC363C268E5F0
:1068E000686F0568F52CAB63C268F3032C8D2C012F
:1068F0000568F5032B2E1C2C1F5CBF1A2C805CB581
:106900000C046909683A05690B68812E04691167EE
:1069100043679C1C68F61B2C8D5CAB04690C2E1C19
:106920002C2F5CBF1A2C385CB50C04693C2C305CF5
:10693000A229061E2C03330D29061F2B032E0165E9
:1069400084010119262C18362B2900202E230E94A1
:10695000B6080C94980E2C142C132D5AA504436DD4
:10696000643F5A001C282C7763C269835A3229007D
:10697000225B2F290C2236291A2918356743032B4D
:106980000569A42C7A63C2698E693E0569A42C4509
:1069900063C269A25A002C595CAB04699F694D051A
:1069A00069A4691F2E0465646974660C69A52C1CB2
:1069B00059CD693E1C61E8311834311A2B01FFFFB3
:1069C0001F29061C1E2CFF5CAB0469D02B2900205C
:1069D0006615310C2B2C132D5AA506506167653AAC
:1069E0002029182C04648C5A7D5AA5044C656E3AF3
:1069F000290C2C03648C2C075A8C2C01690C1C0468
:106A00006A046956140469D459ED05626F786564A7
:106A100069A56A0A2C1859CD693E65B83110310E46
:106A20003114311231161C31001C22310666153129
:106A30000C2C01690C59ED2382E193E00E94590965
:106A40000C94980E0571756572796A0A6A446A3702
:106A500065B82B2C142D5B971D2B1A202C4F2C194D
:086A60002C046A14032D2E0022
:00000001FF
:000000