:100000000C94C8020C94E5020C94E5020C94E502F1
:100010000C94E5020C94E5020C94E5020C94E502C4
:100020000C94E5020C94E5020C94E5020C94A303F5
:100030000C94E5020C94E5020C94A6100C94E502D5
:100040000C94E5020C94E5020C94E5020C94E50294
:100050000C94E5020C94E5020C94E5020C94E50284
:100060000C94E5020C94E5020F0C2B0CA70E450C2A
:10007000600C6F0C900CB90CCC0CF40BE00C070D61
:10008000110D1B0D250D270D330D3F0D4D0D500D81
:10009000540D570D610D910D960DA80DB00DB80DB5
:1000A000C20DD30DD70DE70DF80D020EF30E0D0E98
:1000B000100E160E1A0E220E260E2A0E2E0E3A0EB6
:1000C000480E510E540E610E6F0E720E800E8F0E82
:1000D0009C0EAF0EF40BA70E303132333435363769
:1000E0003839414243444546003078002000000042
:1000F0000000000000000F0F0F0F00000000F0F0E4
:10010000F0F000000000FFFFFFFF00000000000013
:1001100000000F0F0F0F0F0F0F0F0F0F0F0FF0F04B
:10012000F0F00F0F0F0FFFFFFFFF0F0F0F0F00007B
:100130000000000000000F0F0F0F00000000F0F0A3
:10014000F0F000000000FFFFFFFF000000000000D3
:1001500000000F0F0F0F0F0F0F0F0F0F0F0FF0F00B
:10016000F0F00F0F0F0FFFFFFFFF0F0F0F0FFF80BC
:10017000808080808080FF00000000000000FF0180
:100180000101010101018080808080808080010167
:1001900001010101010180808080808080FF0000DA
:1001A0000000000000FF01010101010101FF00004A
:1001B000000055AA55AA55AA55AA000000005050A3
:1001C00050505050505055AA55AA55AA55AA000053
:1001D000183C3C1800003C7EFFFFFFFF7E3C3E4188
:1001E0009CAC9F403F0000008E9526C8F0000000A8
:1001F000000000000000001010101000100000248B
:1002000024000000000000247E24247E2400000836
:100210003E283E0A3E080062640810264600001090
:1002200028102A443A0000081000000000000004D2
:10023000080808080400002010101010200000001A
:1002400014083E081400000008083E0808000000DA
:10025000000000080810000000003E000000000040
:100260000000001818000000020408102000003CE4
:10027000464A52623C000018280808083E00003C2C
:1002800042023C407E00003C420C02423C0000081E
:100290001828487E0800007E407C02423C00003C5A
:1002A000407C42423C00007E020408101000003CEA
:1002B000423C42423C00003C42423E023C000000C4
:1002C00000100000100000001000001010200000BE
:1002D0000408100804000000003E003E000000007A
:1002E000100804081000003C420408000800003C0C
:1002F0004A565E403C00003C42427E424200007C46
:10030000427C42427C00003C424040423C0000783B
:10031000444242447800007E407C40407E00007EA3
:10032000407C40404000003C42404E423C00004285
:10033000427E42424200003E080808083E00000299
:10034000020242423C0000444870484442000040DF
:10035000404040407E000042665A42424200004215
:1003600062524A464200003C424242423C00007C0B
:1003700042427C404000003C4242524A3C00007CE9
:1003800042427C444200003C403C02423C0000FEB1
:100390001010101010000042424242423C00004245
:1003A00042424224180000424242425A2400004283
:1003B0002418182442000082442810101000007EE7
:1003C000040810207E00000E080808080E00000037
:1003D0004020100804000070101010107000001071
:1003E00038541010100000000000000000FF001C36
:1003F000227820207E00000038043C443C0000208D
:10040000203C22223C0000001C2020201C00000474
:10041000043C44443C000000384478403C00000C5C
:1004200010181010100000003C44443C04380040F8
:10043000407844444400001000301010380000049C
:100440000004040424180020283030282400001060
:10045000101010100C000000685454545400000098
:1004600078444444440000003844444438000000C8
:1004700078444478404000003C44443C040600007A
:100480001C20202020000000384038047800001094
:10049000381010100C0000004444444438000000A0
:1004A00044442828100000004454545428000000FC
:1004B00044281028440000004444443C0438000010
:1004C0007C0810207C00000E083008080E00000890
:1004D0000808080808000070100C101070000014C4
:1004E0002800000000003C4299A1A199423C0D2047
:1004F0000A0007090B087A7978777A7675746C7335
:100500006B6A697368673D29CD28242FCD2A2B306B
:1005100039C3383736C37A7271707A6F6E6D66730D
:10052000656463736261223BAB3A212CDE2E2D356C
:100530003400333231000A200A007F090B085A596F
:1005400058575A5655544C534B4A49534847265DC1
:10055000005B605C005E3E3C3900383736005A5222
:1005600051505A4F4E4D4653454443534241277BC9
:10057000007D3F25007F7E35340033407C000F072F
:100580000B030D0509010E060A020C0408002300E6
:1005900011241FBECFEFD4E0DEBFCDBF11E0A0E03D
:1005A000B1E0E0E8F1E302C005900D92A034B1079C
:1005B000D9F713E0A0E4B1E001C01D92AC3CB10753
:1005C000E1F70E94BC0B0C9443120C9400000895B8
:1005D000FC0101C0319680818823E1F7CF010895A5
:1005E000DC01FB0180818D9381918823D9F70895E7
:1005F0000F931F938B010E94E802B8010E94F00242
:100600001F910F910895CF93DF93EB010E94E802B1
:10061000DC01FE012196E491ED93EE23D1F7DF9109
:10062000CF910895DF92EF92FF920F931F93CF9394
:10063000DF937C01EB01D42E422F04E511E01092F0
:100640005401CE016D2D70E00E940D12FC01E852A4
:10065000FF4FE491D801EE938D01CE016D2D70E036
:100660000E940D12EB016115710559F741501416E6
:1006700044F3C701B8010E94F802DF91CF911F91A6
:100680000F91FF90EF90DF90089521E00E941203F8
:100690000895DF92EF92FF920F931F938C017B01DD
:1006A000D42E69EE70E00E940303C801B70140E157
:1006B0002D2D0E9412031F910F91FF90EF90DF905C
:1006C000089541E00E94490308954AE00E944503CD
:1006D000089583E883BD83E38093B0008AE080932C
:1006E000B1001092B2008FE98093B3008BE0809349
:1006F000B4001092800022E02093810010928500C7
:10070000109284008BE090E09093890080938800A1
:1007100020936F0050988AB18A608AB98BB1857F27
:100720008BB988E080933901E4ECF0E0118210820B
:1007300080EC8093C2001092C10081E090E0918330
:10074000808313BC08951F920F920FB60F9211244D
:100750002F938F939F9380913901873069F50E9481
:10076000F21082E080936E0080913A0190913B01FB
:10077000855C9340D0F080918800909189008151F0
:100780009D4D909389008093880088E08093390183
:100790008091570190915801019690935801809350
:1007A00057010E94C111180FB1C08091880090912B
:1007B000890081579F4F85C0833009F45AC0843027
:1007C00030F48130D1F1823008F046C00AC0863062
:1007D00009F47FC0883009F48DC0843009F096C0D8
:1007E0005AC08FE48093B30085E08093B400809179
:1007F00088009091890084519E4F90938900809346
:10080000880081E08093390120914001223008F076
:100810007DC08091C8039091C90390935A01809341
:10082000590180918400909185009093C903809331
:10083000C8032F5F2093400169C089E48093B4000E
:100840008091880090918900805C9E4F90938900F0
:100850008093880082E03AC010926E0080918800F8
:1008600090918900CE96909389008093880083E0D0
:100870002DC082E080936E0085E08093B40080916B
:100880008800909189008E559E4F909389008093A7
:10089000880084E01BC08FE98093B3008BE08093D5
:1008A000B4008DE691E090933B0180933A01109261
:1008B0003C0110923E018091880090918900805502
:1008C0009D4D909389008093880086E08093390144
:1008D0001DC0809188009091890041969093890075
:1008E0008093880010926E0087E08093390178949D
:1008F00088950CC080918800909189008C569F4FFC
:100900009093890080938800109239019F918F9174
:100910002F910F900FBE0F901F90189528EC33E089
:100920004EEE50E0D90180E090E0FA01E80FF91FA7
:10093000E491EC93189680589F4F64E080309607BE
:10094000A1F7285F3F4F485F5F4F84E0283C38079E
:1009500049F7089529E1629F90011124280F311D64
:1009600023593E4F30935601209355018093C50380
:10097000609363010895EDE6F1E0818D819383E05A
:10098000EC3AF807D0F302C0819301C080E293E013
:10099000E53CF907C8F308951F93182F873041F0FD
:1009A0008D3011F51092C503809163018F5F16C0E1
:1009B000E0915501F091560180E280838091C5035A
:1009C000882321F081508093C5030DC088E1809376
:1009D000C50380916301181624F48150809363014C
:1009E00002C01092630110E08091C503893168F064
:1009F0001092C503809163018F5F05C00E94BB0404
:100A0000809163018150809363016091630168313B
:100A1000A8F78091C5030E94AA04112371F0E09108
:100A20005501F09156011193F0935601E093550151
:100A30008091C5038F5F8093C5031F910895CF9365
:100A4000DF93EC0103C021960E94CC0488818823A7
:100A5000D1F7DF91CF9108950F931F93BC0105E665
:100A600011E010926501C8010E946103C8010E9453
:100A70001F051F910F9108950F931F93BC0105E669
:100A800011E080E28093650110926601C8010E9426
:100A90006503C8010E941F051F910F91089580E012
:100AA00060E00E94AA0480E090E020E2E09155011D
:100AB000F09156012193F0935601E0935501019670
:100AC00032E08835930791F780E060E00E94AA0445
:100AD000089598B1811180E19F7E892B88B908958E
:100AE000BF92CF92DF92EF92FF920F931F93CF931B
:100AF000DF93E0905501F0905601C090C503D0906F
:100B0000630106E1C4E0D0E099E0B92E8BE0602FEC
:100B10000E94AA04CE018450182F23C0E091440102
:100B2000F0E03196809145018B9DC0011124E80FC2
:100B3000F91F83E0EE0FFF1F8A95E1F7EA1BFB0B1D
:100B4000EB50FB4F84918058E0915501F091560194
:100B5000E081E81719F0A55ABE4FEC930E94CC042F
:100B60001F5FA12FB0E0AC17BD07C4F20F5F249642
:100B7000083161F6F0925601E0925501C092C5032A
:100B8000D0926301DF91CF911F910F91FF90EF9071
:100B9000DF90CF90BF900895CF92DF92EF92FF92B7
:100BA0000F931F93CF93DF93E0905501F090560180
:100BB000C090C503D090630106E1C4E0D0E08BE0B3
:100BC000602F0E94AA04CE018450182F06C0E55A57
:100BD000FE4F80810E94CC041F5FE12FF0E0EC17F4
:100BE000FD07ACF30F5F2496083149F7F0925601E8
:100BF000E0925501C092C503D0926301DF91CF917D
:100C00001F910F91FF90EF90DF90CF900895282FC4
:100C100030E0C901019782239323892B19F049E021
:100C200050E016C0822F807F49F0822F807C19F41B
:100C300045E050E00DC047E050E00AC0C9018C70AB
:100C40009070892B19F441E050E002C043E050E07D
:100C5000042E02C0359527950A94E2F74150504082
:100C6000240F351FC90108958091460190914701D5
:100C70008130910511F0039769F480912C0188234C
:100C800021F0815080932C0108958FEF80932C01E7
:100C90000E94700508950F931F93082F80914301C0
:100CA000081719F40E943406C0C080912C01181650
:100CB0008CF080914601909147018130910511F0AF
:100CC000039741F40E94CC05002321F410924701C0
:100CD0001092460188E080932C01209146013091CA
:100CE000470121303105C9F02130310548F022306B
:100CF000310509F451C02330310509F094C05CC0BE
:100D000080914301801708F08EC0802F0E94070653
:100D10008093440181E090E07DC080914301109177
:100D20004401801710F5012E02C0220F331F0A94D0
:100D3000E2F7802F821B0E940706E12FF0E0319638
:100D40002091450149E0249F90011124E20FF31FF7
:100D500033E0EE0FFF1F3A95E1F7E80FF91FE2517C
:100D6000FB4FE491E093420151C090914501133053
:100D700029F481E0891B8093450151C0E8E49E9FDE
:100D8000F0011124E10FF11DE251FB4FE491E093DA
:100D900042011092450143C0002309F440C08091F4
:100DA0004301081708F03FC0802F0E940706809378
:100DB000440183E090E02EC080914301801778F5D4
:100DC0001091440181E090E0012E02C0880F991F2C
:100DD0000A94E2F7202F281B822F0E940706E12F9A
:100DE000F0E031962091450149E0249F90011124C3
:100DF000E20FF31F23E0EE0FFF1F2A95E1F7E80F44
:100E0000F91FE251FB4F84918093420110924501FA
:100E100082E090E0909347018093460104C01092D5
:100E2000470110924601009343011F910F910895CD
:100E300087B1807F87B988B18F6088B957985F9AEA
:100E40002098289A0895CF92DF92EF92FF920F9305
:100E50001F93182FF62ED42EC22E8DE00E94CC04A4
:100E6000812F90E00E942C0580E20E94CC048F2DFF
:100E700090E00E942C0580E20E94CC048D2D90E031
:100E80000E942C0580E20E94CC048C2D90E00E94F0
:100E90002C0580E20E94CC04802F90E00E942C055B
:100EA00080E20E94CC048E2D90E00E942C0580E20E
:100EB0000E94CC041F910F91FF90EF90DF90CF9094
:100EC000089590914901992371F4E6B1F0E0EF7033
:100ED000F070E258FA4FE491E0934A0157985F9A14
:100EE000209A289812C0E6B1F0E0EF70F070E25856
:100EF000FA4FE49180914A018295807F8E2B8093F6
:100F00004A012098289A579A5F989F5F9170909312
:100F1000490180914A0108950E946107982F8091AC
:100F20004901882351F480914801981721F4892FB1
:100F30000E944B06089590934801089580914201C4
:100F400008951F93E0915501F091560180818058DA
:100F500080830E949E07182F8823D9F3E0915501C2
:100F6000F0915601808180588083809149010E94D0
:100F7000690510924201812F1F9108950CC0809144
:100F800057019091580144E0959587954A95E1F76E
:100F900081700E9469050E949E07882381F30E9448
:100FA000A10708951F93CF93DF93182FC091570186
:100FB000D0915801C853DF4F0E944F0580E091E067
:100FC0000E941F050CC0809157019091580164E068
:100FD000959587956A95E1F781700E9469058091E2
:100FE0005701909158019E01281B390B37FFEBCF19
:100FF000112379F080915701909158019E01281B8F
:10100000390B37FF06C00E948C07C0915701D09161
:101010005801809157019091580154E0959587951A
:101020005A95E1F781700E9469050E949E07882306
:10103000F9F20E94A1070E94CC04DACF1F93CF934C
:10104000DF93C0915701D09158010E944F050E9433
:10105000180783E091E00E941F058091570190914D
:101060005801C817D907A9F00E946107182FC0912D
:101070005701D091580180914901882351F461E0D2
:101080000E94AA04812F90E00E942C0580E20E9419
:10109000CC04809157019091580174E09595879503
:1010A0007A95E1F781700E946905D7CF90E044EF0F
:1010B00051E009C024EF31E0FA013197F1F72150F6
:1010C0003040D1F79F5F9817A8F3089594E1899F66
:1010D000802D11240E9456080895EF92FF920F93DD
:1010E0001F9320914B0130914C012F5F3F4F4BE4F8
:1010F00050E0249F7001259FF00C349FF00C1124C8
:10110000F0924C01E0924B0100E010E09C0140E0C5
:1011100050E0C801B7010E94EE119C0144275527F9
:10112000C9011F910F91FF90EF90089584B1817CC8
:101130008E6284B985B1817C866085B981E58CBD7C
:101140000895CF93DF938EBD31C080915701909168
:101150005801F4E095958795FA95E1F781700E9422
:10116000690580915701909158019E01281B390B08
:1011700037FF21C080E40E94CC048CB590E00E942F
:101180002C0580E20E94CC048DB590E00E942C05D5
:1011900080E20E94CC0484B190E00E942C0580E2A1
:1011A0000E94CC0485B190E00E942C05C0915701AB
:1011B000D0915801E2960DB407FEC7CFDF91CF91D1
:1011C000089580E00E94A1088EB50895299881E0D5
:1011D0000E94A10881E40E94A108299A08952998F3
:1011E00085E00E94A1080E94E108299A0895FF92D3
:1011F0000F931F93182F092FF62E299882E00E9433
:10120000A108802F0E94A108812F0E94A1088F2D84
:101210000E94A108299A1F910F91FF900895FF92B3
:101220000F931F93182F092FF62E299882E00E9402
:10123000A108802F0E94A108812F0E94A1088F2D54
:101240000E94A1081F910F91FF9008950F931F9383
:101250008C01299883E00E94A108812F0E94A10897
:10126000802F0E94A1080E94E108299A1F910F91E6
:1012700008950F931F938C01299883E00E94A10881
:10128000812F0E94A108802F0E94A1080E94E108DE
:101290001F910F9108950F931F93CF93DF930E9497
:1012A0004F0586E091E00E941F0584E392E1909350
:1012B0004C0180934B01C0E0D0E080E091E00E94BF
:1012C0006D08682FCE010E94F708219680E2C03099
:1012D000D80799F784E392E190934C0180934B01F6
:1012E000C0E0D0E080E091E00E946D08082FCE01C0
:1012F0000E942609182F80E061E00E94AA048BE07A
:1013000091E00E941F05CE010E943C0580E20E94F0
:10131000CC04802F90E00E943C058EE091E00E947A
:101320001F05812F90E00E943C05219680E2C0308D
:10133000D80711F00117B1F2FFCF0F931F93CF938E
:10134000DF930E944F0581E060E00E94AA0481E1E2
:1013500091E00E941F0504EDC0E0D0E0CE01602FB7
:101360000E94F708CE010E942609182F8AE20E94E7
:10137000CC04812F90E00E943C05802F880F001F35
:101380000027001F082B2196C830D10539F7DF91BF
:10139000CF911F910F9108952A9885E00E94A1088E
:1013A0000E94E1082A9A08950E94CC0980FDFCCF92
:1013B00008952A9886E00E94A1082A9A08950F931A
:1013C0001F938C010E94D9092A9888ED0E94A108D8
:1013D000812F0E94A108802F0E94A10880E00E9416
:1013E000A1082A9A0E94D4091F910F9108950F9382
:1013F0001F93CF93DF938C01EB012A9883E00E9427
:10140000A108812F0E94A108802F0E94A10880E0DE
:101410000E94A10800E010E00E94E10889930F5F9C
:101420001F4F81E000301807B9F72A9ADF91CF915A
:101430001F910F9108950F931F93CF93DF938C010A
:10144000EB010E94D9092A9882E00E94A108812F0D
:101450000E94A108802F0E94A10880E00E94A1089C
:1014600000E010E089910E94A1080F5F1F4F81E00A
:1014700000301807B9F72A9A0E94D409DF91CF915A
:101480001F910F9108950E944F0584E191E00E9401
:101490001F0584B18B7E846084B92C9880E061E064
:1014A0000E94AA0485E291E00E941F0583B190E0AA
:1014B000807190700E943C052A9A85E00E9466081F
:1014C00080E061E00E94AA0488E291E00E941F058A
:1014D00083B190E0807190700E943C052A9885E06D
:1014E0000E946608DBCFEAE8F4E224913196E491A9
:1014F000922F80E02E2F30E0282B392BC901089540
:10150000299A8CB58F7B8CBD209184003091850009
:101510002F5F3F4F8DB58EB58091840090918500EF
:10152000A901481B590B57FFF5CF8CB580648CBDC2
:101530000895FC0197FD05C0FF71E657FB4D8491AE
:1015400008958091CA039091CB033196F093CB0319
:10155000E093CA033197E817F90729F40DB407FEA1
:10156000FDCF8EB51CC0299A8CB58F7B8CBD209188
:101570008400309185002F5F3F4F8DB58EB58091EF
:10158000840090918500A901481B590B57FFF5CFA6
:101590008CB580648CBDCF019F770E9439091EBC39
:1015A00008950F931F93CF93DF93FC01EB018A0102
:1015B0004115510559F1299A8CB58F7B8CBD20912D
:1015C0008400309185002F5F3F4F8DB58EB580919F
:1015D000840090918500A901481B590B57FFF5CF56
:1015E0008CB580648CBDCF019F7768810E940F0904
:1015F00003C088810E94A108015010402196011566
:101600001105B9F71092CB031092CA03DF91CF9165
:101610001F910F9108950E944F050895CF93DF9376
:10162000EC01FE0121968491882319F00E94D910C3
:10163000F8CFDF91CF910895CF93DF93EC0103C0F2
:1016400021960E94D91088818823D1F7DF91CF910C
:1016500008950F931F93DF93CF93CDB7DEB72897ED
:101660000FB6F894DEBF0FBECDBFBC0119828E014C
:101670000F5F1F4FC8010E946103C8016CEE70E04C
:101680000E940303C8010E941C0B28960FB6F89411
:10169000DEBF0FBECDBFCF91DF911F910F91089597
:1016A0000F931F93DF93CF93CDB7DEB728970FB675
:1016B000F894DEBF0FBECDBFBC0119828E010F5F53
:1016C0001F4FC8010E946503C8016CEE70E00E94C4
:1016D0000303C8010E941C0B28960FB6F894DEBFC6
:1016E0000FBECDBFCF91DF911F910F9108950F9342
:1016F0001F9383B7816083BF1092C10080E187B9D7
:101700000E94DB1020E044EF51E008C0FA0131975D
:10171000F1F70197D9F72F5F243619F08CE291E0A9
:10172000F5CF87E40E94D91000E017E41F5F1F3750
:1017300009F411E2812F0E94D9100F5F0832B1F72E
:1017400082E70E94D9108091B60090E00E94290B98
:1017500085E50E94D91086E70E94D91083E50E9492
:10176000D9100E9418070E9496080E94E6080E945D
:1017700069031F910F9108952F923F924F925F92AC
:101780006F927F928F929F92AF92BF92CF92DF9291
:10179000EF92FF920F931F93DF93CF93CDB7DEB7F6
:1017A0002E970FB6F894DEBF0FBECDBF0E94770B09
:1017B0000E944F050E94730A9C018FEF9FEF909348
:1017C000CB038093CA038CEC93E09E878D87CC2457
:1017D000DD24662477244424552407C0CC24CA94ED
:1017E000DC2C02C0CC24DD24940149010894811C26
:1017F000911CC9010E94990A182F893308F0DFC291
:10180000812F90E0FC013197E833F10568F7EC5C3B
:10181000FF4FEE0FFF1F0590F491E02D0994ED8529
:10182000FE853296FE87ED87D182C08284010F5FEC
:101830001F4FC4010E94990AF82E48010894811C88
:10184000911CC8010E94990A3F2C2224C82EDD2435
:10185000C228D328C9CF2D853E8522503040F9E3D8
:10186000CF16D10440F41C2DED85FE85C080D180BB
:101870003E872D87C5CF8F929F92ED85FE85808113
:1018800091813E872D87460171C174010894E11C46
:10189000F11CC4010E94990A182FC7010E94990ADD
:1018A000CD2829F047010894811C911C50C21E8349
:1018B0001D82882E99242D813E81822A932A47C237
:1018C000C4010E94990A182FC40101960E94990A26
:1018D00018871F82882E99242F8138853EC008944E
:1018E000611C711C74010894E11CF11CC4010E946C
:1018F000990A182FC7010E94990A641475043CF4D0
:101900001C831B82882E99248B819C8169C247018C
:101910000894811C911C7F906F905F904F9064CFD2
:101920006C0C7D1CED85FE85C080D1803297FE87D2
:10193000ED8774010894E11CF11CC4010E94990A0E
:10194000182FC7010E94990A641475044CF41A8375
:101950001982882E992429813A81822A932A44CF98
:1019600047010894811C911C7F906F905F904F906D
:101970003BCF4F925F926F927F92ED85FE854080C4
:10198000518032979F01225030403E872D8736018B
:1019900020813181C901EAC0ED85FE8560817181B8
:1019A00080E090E0960140E050E00E94EE11ED856D
:1019B000FE8571836083BC01882799276B0114CF52
:1019C000ED85FE8580819181A0E0B0E0DC01992762
:1019D0008827F290E290FE87ED8700E010E0E82A89
:1019E000F92A0A2B1B2B5601CC24DD24C801B70190
:1019F000A60195010E942112ED85FE857183608309
:101A0000C801B701A60195010E94211286C1ED858A
:101A1000FE85808191813297FE87ED87C822D92289
:101A2000E3CEED85FE85808191813297FE87ED873B
:101A3000C82AD92AD9CEED85FE8580819181329739
:101A4000FE87ED87C826D926CFCE3201CDCE2D8593
:101A50003E852E5F3F4F3E872D87F901D182C082A0
:101A6000DF90CF90C1CE2D853E852E5F3F4F3E87C4
:101A70002D87F901D182C082DF90CF90B5CE2D8520
:101A80003E852E5F3F4F3E872D87F901D182C08270
:101A9000DF90CF90CF92DF92A7CECF92DF9257C147
:101AA000CD2809F49BCE9ECED7FE9CCE97CEED8559
:101AB000FE85808191813297FE87ED87C80ED91E01
:101AC00093CE2D853E8522503040C601A0E0B0E087
:101AD000DC0199278827ED85FE85E080F18000E014
:101AE00010E0E82AF92A0A2B1B2BF9012081318109
:101AF00040E050E0A9013327222792918291FE878E
:101B0000ED87A0E0B0E0822B932BA42BB52B8E0D9C
:101B10009F1DA01FB11F91838083CD01AA27BB27E2
:101B200025C0D094C194D108D3945ECEED85FE85B6
:101B300080819181909581959F4F91838083C094FE
:101B4000D094892B09F050CE0894C11CD11C4CCEE6
:101B5000ED85FE85808191813296FE87ED8704C0F8
:101B6000ED85FE8580819181D182C0826C013CCE61
:101B70002D853E852E5F3F4F3E872D87F901C08220
:101B8000D18232CEC6010E94990A182FC601019651
:101B90000E94990A1A871986C82EDD2429853A855C
:101BA000C22AD32A21CEC6010E94990A6EC0C6015C
:101BB0006D857E8541E050E00E94D10AED85FE856D
:101BC000D290C290CF0102979E878D870DCE0D8552
:101BD0001E85F801908181818093C6039093C7038D
:101BE000C60166EC73E042E050E00E94D10A9FC05B
:101BF0008D859E8502969E878D87FC01D182C0824D
:101C00006301F2CD2D853E852E5F3F4F3E872D87A8
:101C1000F901D182C0826201E7CDF601808135C031
:101C2000ED85FE858081F601808338C0F601C08095
:101C3000D180DACDED85FE8580819181F601918399
:101C400080832CC08C2D0E94CC0481C0C6010E94D0
:101C50003C057DC0C6010E942C0579C02D853E85BE
:101C60002E5F3F4F3E872D87F901D182C0820E94AF
:101C70009E070BC02D853E852E5F3F4F3E872D87EB
:101C8000F901D182C0820E94A107C82EDD24ACCD0B
:101C9000ED85FE8580816C2D0E94AA04ED85FE8570
:101CA00086C09F908F90A0CD8D859E8502969E8741
:101CB0008D87FC01D182C082BDE6CB2EB1E0DB2E48
:101CC00093CD2D853E852E5F3F4F3E872D87F901B1
:101CD000D182C082A7E5CA2EA1E0DA2E85CD0E946E
:101CE0004F0582CDED85FE85808191813297FE87FB
:101CF000ED879C0102C036952795CA94E2F70DC086
:101D0000ED85FE85808191813297FE87ED879C016C
:101D100002C0220F331FCA94E2F7690165CD0D8519
:101D20001E85F80180819181B6010E94FA0FF801A9
:101D3000D290C2909F013EC0C6010E947B0F80E0FE
:101D40009EE96DE671E040E052E00E94D10AED8527
:101D5000FE85C080D1803297FE87ED8745CDED8529
:101D6000FE85008111817F012EEF3FEFE20EF31E11
:101D7000F701808191810E94990A8093C603109295
:101D8000C703F70180819181019691838083C80107
:101D900066EC73E041E050E00E94D10A0F5F1F4FF4
:101DA0000894C108D108C114D10411F7F701D290E9
:101DB000C2909F01225030403E872D8715CD089458
:101DC000811C911C8F929F92089481089108C401F4
:101DD0000E94990A882E99241C871B868B859C85D6
:101DE000882A992A01CD2E960FB6F894DEBF0FBE31
:101DF000CDBFCF91DF911F910F91FF90EF90DF90BA
:101E0000CF90BF90AF909F908F907F906F905F909A
:101E10004F903F902F90089599E16902B0011124ED
:101E2000992787FD9095680F791F63597E4FCB01E5
:101E300008950F931F93CF93DF93EC01062F0A3081
:101E4000D1F00B3040F4083019F10930D8F40730E4
:101E500009F045C03CC00D30F9F00E3018F40B30DD
:101E6000F1F505C0033CD1F00D3CC9F52BC08981CB
:101E7000815089833BC089818F5F89838431B0F130
:101E8000198234C088818F5F8883893128F42EC0FD
:101E90008881815088832AC01882EDCF1A81812FD2
:101EA0006B810E940C0FFC0100811F5F1A831931A6
:101EB00030F21A828B818F5F8B83843108F4BFCF1D
:101EC0001B82BDCF88818A8389818B830FC08881E3
:101ED00069810E940C0FFC0180E28083D9CF888148
:101EE00069810E940C0FFC010083CCCFDF91CF9160
:101EF0001F910F9108950F931F938C010E94800AE8
:101F0000C80180589F4F880F991F6DE671E00E94AD
:101F1000F709000F111FC8018F5F9E4F6DE672E039
:101F20000E94F7091092CB031092CA031F910F91E0
:101F300008950F931F938C010E94800AC801805856
:101F40009F4F880F991F6DE671E00E941B0A000FDA
:101F5000111FC8018F5F9E4F6DE672E00E941B0A41
:101F60001092CB031092CA031F910F910895CF9244
:101F7000DF92EF92FF920F931F93DF93CF930F9215
:101F8000CDB7DEB76C017B0180E065E10E940C0FEC
:101F90008C018FE3F80180830E94A107F801808300
:101FA000873559F0883518F4853429F40BC0883505
:101FB00039F08A3589F080E013C0C7010E94990F7B
:101FC0008BE10EC080E890E0C80ED91EC601880FD4
:101FD000991F0E94DF09F4CF89830E944F058981F0
:101FE0000F90CF91DF911F910F91FF90EF90DF90B5
:101FF000CF9008954F925F926F927F928F929F92AF
:10200000AF92BF92CF92DF92EF92FF920F931F9306
:10201000DF93CF9300D000D0CDB7DEB75C013B019A
:1020200019821A828FEF8B830E944F05C5010E948F
:102030007B0F80E065E10E94AA04C5010E942C0587
:1020400080E20E94CC04C3010E942C0563E8862E26
:102050002E010894411C511C009157011091580108
:1020600089816A810E940C0F6C018B816C810E94B6
:102070000C0F7C01FC0190801DC080915701909154
:1020800058019801281B390B37FF14C0F6019081C5
:10209000905890838B818F3F39F097FF03C0F701F1
:1020A000808202C0F701908200915701109158017F
:1020B0000E5C1F4F0E949E078823F9F2F601808173
:1020C0008F778083F70190820E94A107682F8B3A57
:1020D00031F4C501B3010E94B70F182F04C0182FA7
:1020E000C2010E94190F1B3109F0B6CF80E064E1F4
:1020F0000E94AA040F900F900F900F90CF91DF9144
:102100001F910F91FF90EF90DF90CF90BF90AF9015
:102110009F908F907F906F905F904F9008950F9356
:102120001F930BB1102F037F1C5F1C70012B0BB989
:10213000009135010A95009335011F910F91089583
:102140000F9304E6009335010F91089578944F930F
:102150005F93409136014A954093360171F050E209
:1021600040FD51E257BD5091380108945795509366
:10217000380142E828F442EC03C040E045BD42E0AB
:1021800044BD5F914F9118954F936F9345B544238C
:10219000E9F7609338016BE06093360140E247BD98
:1021A00042E844BD40E046BD43E045BD6F914F91DC
:1021B0000895682FE9CF4F935F935E9A569A44270C
:1021C00045BD40916E00426040936E0078945F91EF
:1021D0004F910895EF770E9FFE01E00DF11DE49100
:1021E000E0952AC00F921F920F9300E0AF93BF9328
:1021F000CF93DF93CEEED0E0EF93FF931F93E8E011
:102200000093C600E093C10018E1A0913A01B0919B
:102210003B01E0913C01F0E0CE0FDF1F08E0ED91C3
:10222000EE23C2F200000E9FFE01E00DF11DE491CD
:102230000000000000000000E093C60001C001C0E3
:1022400001C001C00000000000000000000000000C
:1022500011502AF7C0913C01CF5FC0933C010000B0
:10226000000000000000C7700000A0E0A093C100C3
:1022700071F4A0913A01B0913B015996A0933A01B3
:10228000B0933B01C0913C01C850C0933C011F91E9
:10229000FF91EF91DF91CF91BF91AF910F911F907F
:1022A0000F900895AF93BF93CF93DF93EF93FF9376
:1022B0001F9318E1A0913A01B0913B01ED91EE0F0F
:1022C000C0F0E03450F0F0913C01F695E795E491D0
:1022D000E093C600115090F725C0E695C0913E01ED
:1022E000CE0FD091C803E881E093C600115030F7BB
:1022F00019C0E03458F0F0913C01F695E795E4916F
:10230000E095E093C6001150C8F60CC0E695C09168
:102310003E01CE0FD091C803E881E095E093C6005E
:10232000115060F6C0913C01C150C0933C01C09176
:102330003E01C05EC0933E0121F4A0933A01B093E8
:102340003A011F91FF91EF91DF91CF91BF91AF9132
:102350001895BF93AF931F93A0913A01B0913B01A1
:102360001D911093C600A0933A01B0933B011091C8
:102370003D01115000F410933D011F91AF91BF91A9
:102380001895CF93DF93CDB7DEB7EF93FF932F93DD
:102390003F934F935F936F937F938F939F93AF93ED
:1023A000BF93FB81EC81EE0FFF1F25913591F695D0
:1023B000E795EC83FB83F901F695E7950995BF91C5
:1023C000AF919F918F917F916F915F914F913F91CD
:1023D0002F91FF91EF91DF91CF910895629FD001EE
:1023E000739FF001829FE00DF11D649FE00DF11DD0
:1023F000929FF00D839FF00D749FF00D659FF00D7F
:102400009927729FB00DE11DF91F639FB00DE11D6B
:10241000F91FBD01CF0111240895AA1BBB1B51E177
:1024200007C0AA1FBB1FA617B70710F0A61BB70B44
:10243000881F991F5A95A9F780959095BC01CD01E9
:102440000895A1E21A2EAA1BBB1BFD010DC0AA1FF5
:10245000BB1FEE1FFF1FA217B307E407F50720F00D
:10246000A21BB30BE40BF50B661F771F881F991F88
:102470001A9469F760957095809590959B01AC01D1
:0A248000BD01CF010895F894FFCFCD
:10248A0049E7836C697400004002018765786563D7
:10249A007574654002400B02866272616E63684021
:1024AA000B40180587306272616E636840184024D9
:1024BA000486286C6F6F7029402440310687282BC8
:1024CA006C6F6F70294031403D078428646F294042
:1024DA003D404A088169404A405421856C656176CD
:1024EA00654054405B0F83616E64405B40660C82BA
:1024FA006F724066406F0D83786F72406F40770E3F
:10250A00823E3E4077408032823C3C408040883365
:10251A00823B73408840902E8628646F65732940F9
:10252A009040981082723E409840A411823E7240B8
:10253A00A440AC13817240AC40B41282303D40B426
:10254A0040BB1482303C40BB40C315812B40C34082
:10255A00CB1682642B40CB40D217856D696E75739A
:10256A0040D240DA1886646D696E757340DA40E5C8
:10257A0019846F76657240E540F11A8464726F704F
:10258A0040F140FB03847377617040FB41051B8374
:10259A006475704105410F1C8140410F41181D822D
:1025AA0063404118411F1E8121411F412720826338
:1025BA00214127412E1F82752A412E4136098275F3
:1025CA002F4136413E0B84656D6974413E41462870
:1025DA00836B6579414641502C893F7465726D69F8
:1025EA006E616C415041592B8269274159416822D9
:1025FA008369634041684170248369632141704162
:10260A007925826940417941822682692141824144
:10261A008A2789766964656F42756666418A41923E
:10262A002F85636C6F636B419241A1308261744163
:10263A00A141AC2D83636C7341AC41B431842E68E3
:10264A00657841B441BD2A846564697441BD41C756
:10265A003485626C6B496E41C741D13585747261AC
:10266A00636541D141DC3702637241DC41E7010015
:10267A000D282E05636F756E7441E741F31C4411F2
:10268A001B1E2E047479706541F3420344AF044261
:10269A001F1A161B08211E00280642150542200390
:1026AA002E05737061636542034221432E282E066C
:1026BA007370616365734221422F43054A4E44AFEA
:1026CA0004424B430508422B0642462E04282E227A
:1026DA0029422F424C1241FD1C4411111613420C7F
:1026EA002E422E22424C426101002243B61D044270
:1026FA00814621425547B444291E441144370542B4
:10270A008947B4442941FD420C2E05636D6F7665F5
:10271A004261428A4305081A21161E1A21161F060B
:10272A00429703032E0466696C6C428A42A51B1306
:10273A001A1F1C441111430F445F42942E056572FF
:10274A0061736542A542BD430542AE2E06626C61C5
:10275A006E6B7342BD42CC432E42AE2E037661723B
:10276A0042CC42DC466444424682102E05636F6EB8
:10277A00737442DC42EC466444424682101D2E01C8
:10278A003042EC42FF42FC0000013142FF43094261
:10279A00FC000101324309431342FC0002013343A6
:1027AA0013431D42FC000302626C431D432742FC93
:1027BA0000208020001F00018080800C800C4CDAF1
:1027CA00037469624327434042FC800005776964C9
:1027DA0074684340434C42FC8002077761726E6919
:1027EA006E67434C435A42FC8004026470435A4366
:1027FA006A42FC800607636F6E74657874436A43A5
:10280A007542FC80080763757272656E744375437E
:10281A008542FC800A02696E4385439542FC801218
:10282A00036F7574439543A042FC80140573746169
:10283A00746543A043AC42FC80160462617365432D
:10284A00AC43BA42FC80180364706C43BA43C74273
:10285A00FC801A03666C6443C743D342FC801C03A2
:10286A00686C6443D343DF42FC801E022B2143DFA2
:10287A0043EB1B1A1D161B202E06746F67676C65C7
:10288A0043EB43F91A1E0E1B1F2E02312B43F94448
:10289A000A430F162E02322B440A44154319162EE8
:1028AA0004686572654415442043711D2E05616CE8
:1028BA006C6F744420442D437143F22E012C442D35
:1028CA00443C442920431944372E02632C443C4497
:1028DA004A44291F430F44372E012D444A445918AC
:1028EA00162E013D44594462445F142E013C446251
:1028FA00446C445F15002E00013E446C44781B442E
:10290A00722E03726F7444784482131B111B2E04B7
:10291A00326475704482448F1A1A2E036E697044A9
:10292A008F449B1B032E043F647570449B44A61C72
:10293A000444B41C2E02753C44A644B544980E15B2
:10294A000444C71B03152E445F152E066C6174657B
:10295A00737444B544CB43911D1D2E077066613EC6
:10296A0063666144CB44DB1C45001E0100800C04F5
:10297A0044F31E2E077066613E6E666144DB44F4C2
:10298A004319445F1D2E076E66613E6C666144F40E
:10299A0045061C1E01001F0C1644112E076E6661A7
:1029AA003E7066614506451C4512010004162E0359
:1029BA0069642E451C452F1C44111B1E01001F0C67
:1029CA00420C422B2E076D657373616765452F456F
:1029DA00454255064D53472023204CCB2E056572A0
:1029EA00726F724545455D43661D1504457049B7CA
:1029FA00442941FD420C4255023F20455149950662
:102A0A003F6572726F72455D457F1B04459045674D
:102A1A00032E053F636F6D70457F459243B61D14C3
:102A2A00010011458A2E053F65786563459245A6E2
:102A3A0043B61D010012458A2E063F706169727302
:102A4A0045A645B9445F010013458A2E413A45B966
:102A5A0045CC45B04857463E2E413B45CC45D94624
:102A6A0021002E465046322E09696D6D65646961F2
:102A7A00746545D945E844D601004044042E0278DD
:102A8A002C45E845FE1C01FF000C04461244420591
:102A9A00461444512E07636F6D70696C6545FE4696
:102AAA0015459C111C1D4605441C132E415B4615F9
:102ABA00462C430543B6202E015D462C46380100BC
:102ACA004043B6202E06736D7564676546384645E1
:102ADA0044D601002044042E073C6275696C647375
:102AEA004645465848574650430544422E45646F6A
:102AFA0065733E4658466D014682444201001044C1
:102B0A00512E1144D64528202E4128466D4689016A
:102B1A00002947B42E036865784689469501001056
:102B2A0043C3202E07646563696D616C469546A4AC
:102B3A0001000A43C3202E05646967697446A446E6
:102B4A00B713010030445F0100091A44720446DCDD
:102B5A00010007445F1C01000A44720D1C1144BCA9
:102B6A002E08286E756D6265722946B746E14411D2
:102B7A001C131E43C31D46C104471A1B43C31D0928
:102B8A0003448A43C31D091743CF1D441104471642
:102B9A00430F43CF43F2110546EE03112E066E751D
:102BAA006D62657246E1471D43054305448A1C442C
:102BBA00111E01002D44681C13445F01FFFF43CF1F
:102BCA002046EE1C1E432E445F04475C1C1E010077
:102BDA002E445F4305458A430505473E03110447D2
:102BEA0062192E07656E636C6F7365471D47631321
:102BFA001C1C1C1E432E446804478044110547725E
:102C0A0044981B445F448A448A1C1E04479B1C1E2A
:102C1A0012445F0447A244110547891B445F1C11F3
:102C2A00032E11031B445F1C44112E04776F726438
:102C3A00476347AB43481D439C1D161B476F4429F6
:102C4A0001002242D7439C43F21A445F13124429DB
:102C5A001F16442944111142942E448A448A1A1E8A
:102C6A001A1E445F0447EA03032E448A430F445F53
:102C7A001C044801448A430F16448A430F16054729
:102C8A00DE44A344A32E052D66696E6447AB48064D
:102C9A00432E47B4442944D61A1E1A1E01002F0C8B
:102CAA0044680448371A44111A1C44111B1E0100B7
:102CBA001F0C47DA04484145121D1C04484B0548BD
:102CCA001844A31C45281B1E01FFFF2E06637265CC
:102CDA006174654806484C481004486A0345004533
:102CEA00370100044551422B44291C1C1E43561D22
:102CFA004A3C1C441144370100200D1A1F44D64493
:102D0A0042444243911D202E495B636F6D70696C8A
:102D1A00655D484C48884810144305458A0344E7D2
:102D2A0046052E476C69746572616C488848A343EE
:102D3A00B61D0448BB4621000144422E48646C6912
:102D4A00746572616C48A348BC43B61D0448D41B21
:102D5A0048AF48AF2E0665787065637448BC48D59D
:102D6A001A161A082C1C01000744680449040301B6
:102D7A0000071A214468141C0448FD1A281B03077B
:102D8A0048E4032E1C01000D44680449160F03434E
:102D9A002E43050549171C211F43052144111F28ED
:102DAA000648E4032E4048D549250180204348209F
:102DBA0011032E09696E746572707265744925492A
:102DCA0033481004495F01007F0C43B61D44720466
:102DDA00495944E7460505494144E702054941473F
:102DEA002843CF1D441104496E48C9054941034887
:102DFA00AF0549410571756572794933497443488C
:102E0A001D01005048E04305439C202E047175695A
:102E1A00744974498C463241EE497E494143B61D94
:102E2A00140449AA425503204F4B0549970561628C
:102E3A006F7274498C49AD46B041EE42551E4649FF
:102E4A00476E6974696F6E200D7F6E696368656D80
:102E5A00616368696E657320323031314995046364
:102E6A006F6C6449AD49DE01433201800001000EF6
:102E7A00429449B704732D3E6449DE49F41C152E69
:102E8A00022B2D49F44A0015044A0C182E03642B10
:102E9A002D4A004A0D15044A1A192E036162734A13
:102EAA000D4A1B1C4A072E04646162734A1B4A2797
:102EBA001C4A152E036D696E4A274A341A1A447E33
:102ECA00044A441B032E036D61784A344A461A1A8F
:102EDA004472044A561B032E026D2A4A464A581A5D
:102EEA001A0E134A231B4A2309114A152E012A4A8C
:102EFA00584A6D09032E052A2F6D6F644A6D4A766A
:102F0A00134A5F114A9A2E022A2F4A764A874A8022
:102F1A001B032E026D2F4A874A931A13134A301243
:102F2A004A230B11120E4A071B114A071B2E042FA4
:102F3A006D6F644A934AAE1349FD114A9A2E012FC6
:102F4A004AAE4ABE4AB71B032E036D6F644ABE4A95
:102F5A00C94AB7032E056D2F6D6F644AC94AD51346
:102F6A004305120B111B130B112E41274AD54AEAAE
:102F7A004810144305458A0348AF2E046261636B07
:102F8A004AEA4AFB44422E45626567696E4AFB4B30
:102F9A0007459C4429430F2E45656E6469664B07B5
:102FAA004B18459C431945C444291B202E44746878
:102FBA00656E4B184B2D4B222E42646F4B2D4B39AD
:102FCA0046210008442943232E446C6F6F704B3905
:102FDA004B49432345C4462100064B042E452B6C1E
:102FEA006F6F704B494B5D432345C4462100074B25
:102FFA00042E45756E74696C4B5D4B72430F45C464
:10300A00462100044B042E43656E644B724B874B7A
:10301A007C2E45616761696E4B874B92430F45C4AD
:10302A00462100054B042E467265706561744B9209
:10303A004BA713134B9C11114319445F4B222E4289
:10304A0069664BA74BBF4621000444294305444205
:10305A0043192E44656C73654BBF4BD3431945C462
:10306A00462100054429430544421B43194B224388
:10307A00192E457768696C654BD34BF24BC6441CD5
:10308A002E04686F6C644BF24C0101FFFF43E74367
:10309A00F243E71D1F2E037061644C014C1644294C
:1030AA00010044162E023C234C164C254C1E43E7C5
:1030BA00202E02233E4C254C32030343E71D4C1EAF
:1030CA001A445F2E047369676E4C324C44448A1565
:1030DA00044C5801002D4C0A2E01234C444C5943F0
:1030EA00C31D4ADF448A0100091A4472044C730161
:1030FA00000716010030164C0A2E0223734C594C55
:10310A007A4C5F1A1A0D14044C812E03642E724CE9
:10311A007A4C8B131B1A4A304C2C4C814C4D4C392F
:10312A00111A445F423A420C2E02642E4C8B4CA96F
:10313A0043054C93422B2E022E724CA94CB71349CD
:10314A00FD114C932E012E4CB74CC549FD4CB02EA7
:10315A00013F4CC54CD01D4CCB2E046C6F61644CA6
:10316A00D04CDA019E004348204305439C20354356
:06317A0005019FF41F2E69
:103180004B50004B52005372616D004164003D3E54
:1031900000533100546573742053504920536967BC
:1031A0006E616C73006869006C6F00A60800000017
:1031B00000000000006400000000000000000000AB
:00000001FF
:000000