:100000000C94CF000C940C060C940C060C94080D68
:100010000C940C060C940C060C940C060C940C0618
:100020000C940C060C940C060C940C060C94F80A18
:100030000C940C060C940C060C9463060C940C06A1
:100040000C940C060C940C060C940C060C940C06E8
:100050000C940C060C940C060C940C060C940C06D8
:100060000C940C060C940C060C94B0000E940C0628
:100070000E940C060C94080D0E940C060E940C06AF
:100080000E940C060E940C060E940C060E940C06A0
:100090000E940C060C94F80A0E940C060E940C06A2
:1000A0000C9463060E940C060E940C060E940C062B
:1000B0000E940C060E940C060E940C060E940C0670
:1000C0000E940C060E940C060E940C060E940C0660
:1000D000D2313233D234352D2EDE2C213AAB3B22B5
:1000E00061627363646573666D6E6F7A7071727A44
:1000F000C3363738C339302B2ACD2F2428CD293D9C
:10010000676873696A6B736C7475767A7778797AD5
:10011000007C402300345F7E7F00253F7B607D278D
:1001200041425343444553464D4E4F5A5051525A03
:100130000036373800393C3E5E005C605B005D266F
:10014000474853494A4B534C5455565A5758595A95
:10015000080B0907000A200D0E110F1B0010A08DBF
:1001600011241FBECFEFD4E0DEBFCDBF11E0A0E071
:10017000B1E0EEE6FFE102C005900D92A230B107BA
:10018000D9F714E0A2E0B1E001C01D92A030B107A0
:10019000E1F70E94540D0C94B30F0C943400112419
:1001A0001FBECFEFD4E0DEBFCDBF11E0A0E0B1E0D5
:1001B000EEE6FFE102C005900D92A230B107D9F73B
:1001C00014E0A2E0B1E001C01D92A030B107E1F758
:1001D0000E94540D0C94B50F0C9400002A9885E0F1
:1001E0000E9458060E945D062A9A08950E94EE0019
:1001F00080FDFCCF08952A9886E00E9458062A9A2E
:100200000895CF93DF932A988FE90E9458060E94A1
:100210005D0690E08F37910519F40E945D0690E02D
:100220008733910559F40E945D06D82F80E0C82FCE
:100230000E945D0690E08C2B9D2B02C08FEF9FEFFC
:100240002A9ADF91CF9108950F931F93CF93DF9355
:10025000182F092F0E9401019C01207080E220309C
:10026000380719F0C0E2D0E002C0C8EDD0E00E942B
:10027000FB002A988C2F0E945806802F0E94580657
:10028000812F0E94580680E00E9458062A9A0E94F8
:10029000F600DF91CF911F910F910895EF92FF9299
:1002A0000F931F93CF93DF930F92CDB7DEB7E82E56
:1002B0008B012A9883E099830E9458069981892F9F
:1002C0000E9458068E2D0E94580680E00E94580613
:1002D000E12C81E0F82E0E945D06F80181938F01E8
:1002E0000894E108F108E114F104A9F72A9A0F90A3
:1002F000DF91CF911F910F91FF90EF900895EF92B2
:10030000FF920F931F93CF93DF930F92CDB7DEB77A
:10031000E82E8B0199830E94FB002A9882E00E94BC
:1003200058069981892F0E9458068E2D0E945806E2
:1003300080E00E945806E12C91E0F92EF8018191AD
:100340008F010E9458060894E108F108E114F104B5
:10035000A9F72A9A0E94F6000F90DF91CF911F9182
:100360000F91FF90EF90089583958894982F82E0E5
:1003700092FF80E291FD02C0880F880F90FF880FE6
:1003800090E0891F089598E0890288E692E0800D48
:10039000911D11240895887F962F9770890F9927B2
:1003A0008851914174E1687F679F800D911D1124F0
:1003B0000895695F687F795F769576957695679FF2
:1003C0009C01CA01A001DFDFBC01C90111240C940A
:1003D000340790910D0190931901890F80931A01B0
:1003E00090910B0190930C01690F60931B0108958C
:1003F000E42D1C15E8F42DB527FFFDCF2EB52EBD3D
:100400002D93219613951C15B0F31F1500F500C010
:1004100000000EC02DB52EB52EBD24233885369D87
:10042000152221253991369D052220252D931395DE
:100430001E1780F3E42DE760E3951E17A8F4EF156F
:1004400008F0EF2D1F1518F4C30DD51DE3CFE7609D
:10045000E3952DB527FFFDCF2EB52EBD2D9321960B
:1004600013951E17B0F34F10C319D5095A2D4F2FEE
:100470001850085008F0BCCF093F20F000275B213E
:100480004829B6CF0895FF91EF912F923F924F9256
:100490005F926F927F928F929F92AF92BF92CF9214
:1004A000DF920F931F93CF93DF93EF92FF92099404
:1004B000FF91EF91FF90EF90DF91CF911F910F91FE
:1004C000DF90CF90BF90AF909F908F907F906F9074
:1004D0005F904F903F902F90112409945524D09015
:1004E0000D016D2CED2C20911901D21608F4D22E9D
:1004F0009D2D987FDE2DD87F9D1BCE2DC77009F4D2
:100500008395C0900B01FC2C3324E60EE0920D0184
:10051000695F687F762E3F2D3770432E19F028EFE4
:10052000260F322E3C2D20910C01C21608F4C22E4B
:10053000CC2DC87F1C2F410EDF2DD87FCD1B411243
:10054000C850C595C595C595C602E001C90FD51D12
:1005500098E0989FC00DD11DC05ADD4F20911A011F
:100560002E1508F4E22EA0E0B4E087E08E0D887F1F
:100570009D2D987F891BA81BB0403F2D319537706A
:10058000C30FC51DF70E20911B012F1508F4F22E85
:10059000862DEBDE682E8D2DE8DE8A9509F48FEF2F
:1005A000982E8E2DE2DE8195B82E2FEFA22E8D2D66
:1005B0006C2D687FF0DECC010D2D087F0195E00EDB
:1005C0000895FFEF2F2E822C2F932DB527FFFDCFFF
:1005D000299A000029980E943B062F916C2F7A2FB0
:1005E000592D422D0E2D45DF6C1B6195C61BD04049
:1005F0007A1B7195A71BB040C70DD51D472F5527F6
:10060000BD010E94070780569F4F28E0420E4F14FD
:1006100008F04F2C185F1F15B8F2089534DF5EDF25
:1006200008F4CFDF45DF0895B8019E918E917D01DA
:100630002ADF54DF08F4C5DFA0911C01A0930D014F
:10064000A0911D01A0930B01BF91AF917E916E917E
:1006500011978E91AF93BF9341DF08F4B2DF28DF8B
:10066000089511DF7F936F9390910D019F938F9366
:100670002F934F934F9332DF30F4292C2094FF2790
:100680008B2C8094A1DFCDB7DEB78C816E817F810A
:100690004F9141507AF74F912F9121504AF09D810F
:1006A00090930D0190910B01970F90930B01E0CF68
:1006B0008F919F916F917F91FBDE089583B7816049
:1006C00083BF1092C10080E187B93D98459A8AB1F5
:1006D0008E7B8AB98BB181648BB91EBA0E944704A4
:1006E0000E944A060E9432061EBA10926B001092B7
:1006F00068000895299A8CB58F7B8CBD8091840009
:100700009091850001962DB52EB5209184003091F1
:100710008500AC01421B530B57FFF5CF8CB58064AD
:100720008CBD0895282F982F82FD05C081E021FD02
:1007300003C080E001C082E093FD83E094FD84E08B
:1007400095FD85E096FD86E027FD87E008951F93DF
:10075000CF93DF93C0910501D0910601109109015B
:1007600090911601891701F5CE0183709070823047
:10077000910520F08091070187FF08C0C130D105A5
:1007800009F081C080910701863024F08150809368
:10079000070179C086E08093070185E090E090939F
:1007A0000601809305016FC080931601C130D10509
:1007B00059F0C130D10558F0C230D10571F0C330C5
:1007C000D10509F055C02AC0882309F459C00E94F8
:1007D00092038093090122964BC0882309F58091EA
:1007E000070187FD4DC0E0910801143029F481E034
:1007F0008E1B8093080144C0F0E033E0EE0FFF1F32
:100800003A95E1F7E10FF11DE05BFE4FE491E093D3
:100810000A0110920801C4E0D0E02AC0882381F1C7
:10082000C091080121E030E0012E02C0220F331FE9
:100830000A94E2F7821B0E949203EC2FF0E093E00F
:10084000EE0FFF1F9A95E1F7E10FF11D23E0EE0F88
:10085000FF1F2A95E1F7E80FF11DE053FF4FE491E8
:10086000E23D21F0E0930A0110920801C5E0D0E0DA
:1008700080E180930701D0930601C093050103C076
:10088000C0E0D0E0F5CFDF91CF911F91089587B1FF
:10089000807F87B988B18F6088B957985F9A209810
:1008A000289A089580910301882351F486B1809598
:1008B0008F70809302012098289A579A5F980EC0F3
:1008C00096B190959F70809102018295807F892BCF
:1008D0008093020157985F9A209A2898809103018B
:1008E0008F5F8170809303018091020108950E94BF
:1008F000520490910301992349F4909104018917BE
:1009000019F40E94A703089580930401089520918B
:1009100005013091060122FF08C080910A012B7F5A
:100920003093060120930501089580E00895F09B1F
:100930000DC090910D0190931C0190910B0190932B
:100940001D01685C60930B01885C0AC099E1699F96
:10095000B0011124685D7E4F70930C0160930B0110
:1009600080930D010895A8E2B1E059968C915997B2
:10097000FD018193DF0183E0E736F807B0F302C0A1
:10098000819301C080E293E0E038F907C8F38091D9
:100990000B0190910C01499790930C0180930B01EE
:1009A0000895CF93DF93EC0103C081E00E94B3046C
:1009B00080910B0190910C018C179D07B0F7DF918E
:1009C000CF91089590E023E0880F991F2A95E1F7D1
:1009D0008B59944E68E078E040E30E94D90180E3AF
:1009E00068E078E040E020E00E94310380910D0152
:1009F000883D60F080910B01885F80930B0198E344
:100A000090930D01883D10F010920B010895CF9343
:100A1000DF93EC01F09B03C00E94E2042BC08D30F9
:100A2000910529F489E180930D01C0E0D0E0809127
:100A30000D01893158F010920D0180910B019091B8
:100A40000C01499690930C0180930B0180E893E090
:100A50000E94D104209771F080910D01E0910B016B
:100A6000F0910C01E80FF11DC08380910D018F5FA3
:100A700080930D01DF91CF9108950F931F93CF9332
:100A8000DF93EC0184E20E94F70600E010E09D2F66
:100A900092959F70892F805D81332CF4133039F04B
:100AA000002341F005C08A3314F0892F895A01E0F0
:100AB0000E94F70634E0CC0FDD1F3A95E1F71F5F87
:100AC000143029F780E20E94F706DF91CF911F9141
:100AD0000F9108950F931F93CF93DF93182F803AB0
:100AE000C8F5603AB8F5685C885C0E94CB01EC01FF
:100AF000812F0E94B4010AB401FC02C000E001C0D1
:100B0000082F0AB400FC02C010E001C0182F84E0D6
:100B10000DB407FC02C08150D9F78EB5299A0000A8
:100B20002998CE010E943B060DB407FEFDCF9EB56D
:100B3000812F892B202F209582239095902391231C
:100B4000892B80930E01CE016EE071E041E050E010
:100B50000E942C07DF91CF911F910F91089582334E
:100B600008F051C0603308F04EC0262F269599E159
:100B7000299F90011124982F9695290F311D60FF10
:100B800002C098E001C092E080FD96950AB401FC95
:100B900002C050E001C0592F0AB400FC02C040E07E
:100BA00001C0492FF901E85DFE4F8081803A21F0B4
:100BB000282F2877203121F4877887FF05C002C0CD
:100BC00080E002C02FE88227392F30953523242F6B
:100BD000252B2095232B2823352F3095392334239B
:100BE000232B942380959823292B23FF02C08FE881
:100BF0002827322F305F832F90E087709070009706
:100C000009F4305F30830895F09B03C00E946A05A9
:100C100008950E94AF05089578949F939FB79F937E
:100C20008F93FF93EF93EDB7FEB787818695825040
:100C30000E94B401978194311CF48093220107C073
:100C400094321CF48093230102C0809324019F916D
:100C500096839F9197838F919F919FBF9F91EF91D3
:100C6000FF910895299881E00E94580681E40E942E
:100C70005806299A089523E02EBD0DB407FEFDCF36
:100C80009EBD0DB407FEFDCF8EBD0DB407FEFDCF9A
:100C90001EBC089584B1817C8E6284B985B1817C4B
:100CA000866085B98DB581608DBD80E58CBD089568
:100CB0008EBD0DB407FEFDCF08951EBC0DB407FE1A
:100CC000FDCF8EB5089578948F938FB78F939F93B0
:100CD00080911F018A9580931F0171F090E280FD41
:100CE00091E297BD90911E010894979590931E01F3
:100CF00082E828F482EC03C080E085BD82E084BDF8
:100D00009F918F918FBF8F910895CF93DF93CDB730
:100D1000DEB7EF93FF932F933F934F935F936F93C0
:100D20007F938F939F93AF93BF930F921F921FB6A2
:100D30001F921124FB81EC81EE0FFF1F259135914D
:100D4000F695E795EC83FB83F901F695E795099510
:100D50001F901FBE1F900F90BF91AF919F918F91D9
:100D60007F916F915F914F913F912F91FF91EF9103
:100D7000DF91CF9108950F931F93CF93DF93EC01F1
:100D80000E947A03E881F0E099819095808189231F
:100D900080830CC0EA81FB818191FB83EA830E94FE
:100DA00058068C819D8101979D838C838C819D81C8
:100DB000009781F70DC00E811F810E945D06F8012A
:100DC0008193FF83EE83888599850197998788872A
:100DD00088859985009779F7E881F0E0808199818D
:100DE000892B8083DF91CF911F910F9108959927CF
:100DF0000C940705D7FD04C0FE018591219606C01D
:100E000021968DB587FFFDCF8EB58EBD0895EF93EA
:100E1000FF93E42FE52BE9F0FB017DB577FFFDCFD4
:100E2000299A0000299862E06EBD7DB577FFFDCF5D
:100E30009EBD7DB577FFFDCF8EBDF03110F0659181
:100E400001C061917DB577FFFDCF6EBD415050402F
:100E5000A1F7FF91EF910895EF93FF93E42FE52B16
:100E6000C1F3FB01299ADDCF97FF1BC06F936DB5CE
:100E700067FFFDCF299A7F934F935F9329980E9434
:100E80003B069F918F91BF91AF9101C06EBD6DB533
:100E900067FFFDCF6EB56D930197C1F7299A6EBDBF
:100EA0000895FC01DB01CA0145914D930197E1F7DB
:100EB0000895FF91EF9120F4219733244424552481
:100EC000DF93CF93EF93FF93C0912001D091210145
:100ED000E2E2F1E00D931D93F8940281128278947E
:100EE0000D931D92F894008110827894F8941181EA
:100EF000118278942DB527FFFDCF299A00C000C03C
:100F0000299800C003C02EBD089403C023E02EBD65
:100F100088942091220130912301232B30912401C8
:100F2000232B39F62DB527FFFDCFDEBD24E0A03001
:100F3000B207A8F02DB73EB728523040A217B3072A
:100F400088F42DB527FFFDCFCEBD3091160136397F
:100F5000F79B59F02DB527FFFDCFCEBD08950BE2CD
:100F600016E505C007E316E502C002E416E52DB557
:100F700027FFFDCF299A24E0F8942EBF2FEF2DBF35
:100F800078946E01A0E0B4E088E496E5B0C0299AB8
:100F90008EBD08956C0C7D1C8C0C9D1CA6014830E8
:100FA000510508F048E0641A7108841A9108A42ECB
:100FB00050E0C3016EE071E057DFC4016EE071E004
:100FC0004A2D50E024DFCA18D10841F72CC0411542
:100FD000510581F1903178F1703198F1DF92CF9223
:100FE000AF929F928F927F926F926A013C014B0168
:100FF0008617970778F2A6014830510508F048E0B7
:10100000A42E50E0C3016EE071E02EDFC4016EE05B
:1010100071E04A2D50E0FBDE6A0C711C8A0C911CB9
:10102000CA18D10841F76F907F908F909F90AF9032
:10103000CF90DF900895703130F0FC01CB01BF01FB
:10104000E6CE12DF0895FC01DB01CA01EA17FB07B7
:1010500028F061916D930197E1F70895E80FF91F6A
:10106000A80FB91F62916E930197E1F7089529982F
:101070008EBD05D08DB587FFFDCF299A08956115E6
:10108000710529F1903120F1DF92CF92BF92AF929A
:101090006C015B016830710508F068E070E0AEE05B
:1010A000B1E017D0C60148E050E0A416B50608F438
:1010B000A501A41AB50AC40ED51E6EE071E0A7DE24
:1010C000A114B10479F7AF90BF90CF90DF9008954D
:1010D000DC01CB014D930197E9F708950DB407FEAC
:1010E000FDCF299A08950E94F50AA0E0B4E0EC0132
:1010F0004424552480E090E029980E943B0680EB30
:101100009AE03C01D7FF52C08DB587FFFDCF299AE9
:1011100023E02998FCDE32C0D7FF27C08DB587FFBA
:10112000FDCF8EB5299AC80FD11D87FF11C0DA9562
:10113000C415D50531F4219623E02998E4DE832DEA
:1011400023C02E0123E02998E2DE54DE382E1CC095
:1011500023E02998DCDE12C0CDB5C7FFFDCFCEB5A8
:10116000299A23E02998D3DE09C0FE01849187FDE6
:10117000DA95C80FD11D1AC0D7FF18C021968DB5BA
:1011800087FFFDCF8EB58EBD853420F4F301E80FC7
:10119000F11D09942196DF93CF93D82F87FDDCCFE3
:1011A000CDB5C7FFFDCFCEB5299ACEBDFE01859145
:1011B0002196853420F4F301E80FF11D099421965E
:1011C000DF93CF93D82FC591F1CFC8011E910E9117
:1011D0008534910580F3DF93CF93EC0193CF0D938A
:1011E0001D9310E000E0C8CF90E002C003DE982F0E
:1011F0000D931D93FFDD8C01BFCF1E910E91BCCFCF
:10120000012B1E910E9161F487CFF60131966F018B
:10121000CA14DB040AF480CFCF90DF90AF90BF9068
:10122000E9DDAACFF601E00FF11F6F01EA19FB0912
:10123000F1271E910E91F7FDEECFEECFBF92AF9248
:10124000DF92CF926801BE90AE901E910E9194CF26
:101250007E916E914427069F4001169F612D900C50
:10126000641F079F900C611D179F712D600D741FE7
:101270008B018D929D9211247FCF11978E911197A2
:101280006E91F801F89400818023862B80837894F6
:10129000112772CF9E918E917E916E91801791074A
:1012A00098F441E107C0881F991F8017910710F03B
:1012B000801B910B661F771F4A95A9F76095709563
:1012C0008D939D938B0158CF8FEF9FEFF9CF9E9118
:1012D0008E910823192350CF9E918E91082B192BA4
:1012E0004BCF9E918E910827192746CF650144CF99
:1012F0000D931D930F911F913FCF0D931D93EDB74C
:10130000FEB70181128138CF1F930F931E910E916A
:1013100033CF012B09F00FEF0095102F2DCF0027B1
:1013200017FD0095102F28CF109501951F4F9E9106
:101330008E91080F191F20CF9E918E917E916E91F4
:101340005E914E91840F951F061F171F8D939D93DD
:1013500013CF109501951F4F0FCF9E918E919095B1
:101360000095109581959F4F0F4F1F4F8D939D9323
:1013700003CF9E918E9112960D931D938C01FCCEFE
:101380009E918E910D931D938C01F6CE0D931D931E
:10139000F3CE42E068E003C041E069E08824C80180
:1013A00070E050E07D0160DDD701092D182DAACE37
:1013B00041E011978E9003C042E08E909E90C8014C
:1013C0001E910E9168E070E050E021DD9BCE0D9300
:1013D0001D938601D1CE0F5F1F4FCECEFE013196F9
:1013E000F695E7950994F80100811127C5CE11976C
:1013F0008E91F8011E910E918083BECE0D931D93A8
:101400000091170110911801080F111D0895F2DCC9
:10141000F5DFF801F894019110817894ADCEEADC03
:10142000EDDF9E918E91F8011E910E91F8948193BB
:1014300090837894A1CEC8017D010E940705D70151
:10144000F09BDBCE60C0C8017D010E943D05D70145
:10145000F09BD3CE58C0E7E9F4E0B8014FC0CF917C
:10146000DF9150CE0150104087CEEFE3F8E043C04B
:101470009E918E9104C0892F992708501040083002
:101480001105C8F702C0969587950A95E2F78C0179
:1014900073CE9E918E9104C0982F882708501040DB
:1014A00008301105C8F702C0880F991F0A95E2F7A6
:1014B0008C0162CEEEE4F1E0B8019E918E917D0147
:1014C0000DDE0995299885E08EBD1CC0EFE7F1E09F
:1014D000F3CFE4E2F1E0C801F2CF7D01FFDD0E942D
:1014E0000101D7010D931D938C01299885E08EBDD4
:1014F00009CEE7EEF7E0A8017E916E919E918E9164
:101500007D010995D7011E910E91FCCDE4E0F6E036
:10151000A4CFC8017D010E94BB06D701F4CF2CCE19
:10152000C8016BCE0D931D938E0199CF0D931D9322
:1015300061DC182F5FDC082F92CFE9EDF1E0DBCF03
:10154000EEE0F3E08ACF0E941403E7CFE1E3F3E09B
:1015500098015E914E91D0CFE9EEF1E07ECFC3CD00
:101560000BCE44CE32CE49CE4BCE4ECE4ECE5ACE00
:1015700065CE6ECE82CE8ECEAACEAECEB2CEB6CE58
:10158000B7CEB6CEBACEC0CEC4CEC9CED0CED4CED3
:10159000E0CEE3CEEECEF4CEF9CEFBCEFDCE08CF3C
:1015A0000BCF15CF18CF1ACF1ECF21CF32CF39CFC7
:1015B00042CF2DCF48CF13CE17CE4DCF50CF52CFE5
:1015C00054CF2DCF55CF65CF75CF80CF92CF9ECF43
:1015D000A0CFA5CFA5CFA6CFA9CFAFCFB1CFB3CF47
:1015E000B5CFBACFA1CE75CF78CF85EF9BE5089563
:1015F0001F920F920FB60F9211248F939F93809199
:101600002701873009F03FC00E94EF0B8091000155
:10161000882371F58091070187FD07C080918800BC
:10162000909189008E52974E06C0809188009091CB
:1016300089008654914F9093890080938800F09B95
:101640000AC080918800909189008051964F9093B4
:1016500089008093880088E080932701809125018C
:10166000909126010196909326018093250183C0D5
:10167000809188009091890081569F4F90938900B6
:1016800080938800A5C0833009F43FC0843028F4DB
:101690008130F9F0823070F50AC0853009F46FC0EE
:1016A000853008F441C0883009F092C085C08FE4CD
:1016B0008093B30085E08093B4008091880090917E
:1016C0008900845B9E4F909389008093880081E01D
:1016D0000EC089E48093B4008091880090918900C5
:1016E00080579E4F909389008093880082E080937A
:1016F00027016EC08091880090918900CE969093CA
:1017000089008093880083E0F2CF85E08093B40065
:1017100080918800909189008A569E4F909389000D
:101720008093880084E0E3CF8EE98093B3008BE060
:101730008093B400F09B0FC080E180930001809102
:1017400088009091890083509D4E909389008093EA
:10175000880085E00DC01092000180918800909172
:101760008900855F914F909389008093880087E07E
:101770008093270178940E948506EE0829C0809105
:1017800088009091890082509B4F909389008093AC
:10179000880087E08093270180916B0082608093AE
:1017A0006B0080916800816080936800D89A299BC3
:1017B0000FC02998299A0CC08091880090918900C7
:1017C0008D569F4F90938900809388001092270137
:1017D0009F918F910F900FBE0F901F9018950F92B1
:1017E0001F92EF93FF930F93AF93BF93CF93DF932A
:1017F000E4E8F0E000801080C081D0810394008193
:10180000A081B081E081C01529F0D01541F0E0152C
:1018100079F40EC0101431F0A01541F407C0B015D2
:1018200021F403C0001521F403C000C0000000C073
:1018300000918800025FA091840000C00000A01702
:10184000D2F3D0910001D03CA0F5F39998C0A9E162
:10185000BD2FB695B695B695AB9FA8E2B1E0A00DA9
:10186000B11DD7701F9318E108E0F0E0E8E0F093B5
:10187000C600E093C100ED91CE2FEF770E9F0D0EC5
:10188000E03130F0E5E6FBE1E00DF11DE49106C04A
:10189000E0E8F3E0E00DF11DE08100C0C7FDE09558
:1018A000F091C000F5FFFCCFE093C60011501AF78D
:1018B0003CC01F93E0910801E0FDE0E4F0910901D4
:1018C000FF0FFF0FFF0FEF0FF0E0D3FDEC5FA0ED78
:1018D000B0E0AE0FBF1FE5E6FBE1CD2FC770D0E053
:1018E000CE0FDF1F10E0E8E0E093C100FD0104919E
:1018F000003208F400E2E8E0F02FFF77EF9FFE01EE
:10190000E00DF11D049007FF0094F091C000F5FF79
:10191000FCCF0092C60011961F5F143038F3D091AF
:101920000001DF5FD03D48F409C0D0910001DF5FC6
:10193000D03C20F0F0910701F7FFD0E0F091C0001B
:10194000F5FFFCCFA0E0A093C100D03C51F4E091A2
:101950008800F0918900E85DFF4FF0938900E093E3
:101960008800D09300011F91DF91CF91BF91AF917B
:101970000F91FF91EF911F900F90089500001F931A
:10198000F49B3DC0A8E2B1E008EC11E0F801D3FD02
:101990008D01D3FDDF01F0E0D770AD0FBF1FE4E193
:1019A000DE9FE801C00DD11D14E1E8E0F093C60010
:1019B000E093C1000DB507FFFDCF0EB50EBD099335
:1019C000EC9118960091C00005FFFCCFE093C60093
:1019D0001A9581F7D0910001DF3A08F4A6CF0DB532
:1019E00007FFFDCFF29B0EB5D05F299AF49B05C08F
:1019F0009ECFC0E405C0C0E203C0C0E101C0C8E0A2
:101A0000DC2FB09BFECFB09ADA95D9F7349AF8CF95
:101A10000F930FB70F9300910001003109F0EBCF46
:101A2000F499E7CFF1982999F19A00916B000D7F15
:101A300000936B001F93AF93BF931F9211240DB5BA
:101A4000F29807FDF29A299AF39AF49AA0E8B3E77C
:101A50001BD000EAA8E2B1E01DB517FFFDCF1EB50F
:101A60000EBD1D930A95C1F7D89A7894299BFECF95
:101A7000F19B2998F398F4981F90BF91AF911F9113
:101A80000F910FBF0F911895299803E00EBD0DB56A
:101A900007FFFDCFBEBD0DB507FFFDCFAEBD0DB538
:101AA00007FFFDCF0EBD08950E945E038FEF8DBF2F
:101AB0000C94730808951005052020202020202074
:101AC00020202020052020202020202020202084CD
:101AD000848406078484848484848406848484843F
:101AE0000784848484848484A02020159500A00128
:101AF00015A0A0011595A020159500A00115A0A086
:101B000001A020201595A020A0159520A01595A036
:101B1000201595A020A0159520A0A02020159502A5
:101B2000A0A0159520A0159502A0159502A003155B
:101B30009520A020202020202020A0202020202030
:101B40002020202020202020202020202020202095
:101B50002020A00320202020202020202020202022
:101B600020202020203F7FFFFFFFFFFFFFFCFEFF24
:101B7000FFFFFFFFFFFFFFFFFFFFFF7F3FFFFFFFB5
:101B8000FFFFFFFEFC00FF00FF00FF00FFFFFFFF65
:101B9000FFFFFFFF000F0F0F0F0F0F0F00F0F0F010
:101BA000F0F0F0F000FF80808080808080FF0000F7
:101BB0000000000000FF010101010101018080809F
:101BC000808080808001010101010101018080800D
:101BD00080808080FF00000000000000FF01010104
:101BE00001010101FF3F7FFFFFFFFFFF000F0F0F0C
:101BF0000F00000000F0F0F0F000000000FFFFFF19
:101C0000FF00000000000000000F0F0F0F0F0F0F6C
:101C10000F0F0F0F0FF0F0F0F00F0F0F0FFFFFFF80
:101C2000FF0F0F0F0F0000000055AA55AA55AA5527
:101C3000AA00000000505050505050505055AA5526
:101C4000AA55AA55AA0000183C3C1800003C7EFF8B
:101C5000FFFFFF7E3C3E419CAC9F403F0000008E5A
:101C60009526C8F0000000000000000000001010E1
:101C70001010001000002424000000000000247E4A
:101C800024247E240000081E281C0A3C08006264EC
:101C90000810264600001028102A443A00000810B8
:101CA00000000000000004080808080400002010DC
:101CB0001010102000000014083E08140000000856
:101CC000083E08080000000000000808100000009E
:101CD000003E000000000000000018180000000294
:101CE0000408102000003C464A52623C00001828BC
:101CF0000808083E00003C42023C407E00003C4296
:101D00000C02423C0000081828487E0800007E4073
:101D10007C02423C00003C407C42423C00007E028F
:101D20000408101000003C423C42423C00003C428F
:101D3000423E023C000000001000001000000010B5
:101D4000000010102000000408100804000000002B
:101D50003E003E00000000100804081000003C4255
:101D60000408000800003C4A565E403C00003C422B
:101D7000427E424200007C427C42427C00003C4267
:101D80004040423C000078444242447800007E409B
:101D90007C40407E00007E407C40404000003C4251
:101DA000404E423C000042427E42424200003E0819
:101DB0000808083E000002020242423C000044487B
:101DC00070484442000040404040407E000042666F
:101DD0005A42424200004262524A464200003C429D
:101DE0004242423C00007C42427C404000003C4277
:101DF00042524A3C00007C42427C444200003C404B
:101E00003C02423C0000FE10101010100000424244
:101E10004242423C000042424242241800004141FA
:101E20002A2A141400004224181824420000824474
:101E30002810101000007E040810207E00000E08FC
:101E40000808080E00000040201008040000701070
:101E50001010107000001028440000000000000066
:101E600000000000FF001C227820207E00000038C7
:101E7000043C443C000020203C22223C0000001C8A
:101E80002020201C000004043C44443C0000003896
:101E90004478403C00000C10181010100000003C6A
:101EA00044443C043800404078444444000010005E
:101EB0003010103800000400040404241800202806
:101EC00030302824000010101010100C00000068A2
:101ED00054545454000000784444444400000038F2
:101EE0004444443800000078444478404000003CBA
:101EF00044443C040600001C202020200000003840
:101F000040380478000010381010100C0000004415
:101F10004444443800000044442828100000004491
:101F20005454542800000044281028440000004461
:101F300044443C043800007C0810207C000408085D
:101F400030080804000008080808080800201010DD
:101F50000C1010200000142800000000003C4299E2
:0E1F6000A1A199423C00F894FFCFF894FFCF66
:021F6E00000071
:105000005BF50000006B65726E001C161C5C3A01BB
:105010005022161D1B15040A1C2C08321B2C0833A9
:105020000D2E1B6500005318549657B157D65F4399
:10503000635D534651F6554F5002806578656300B5
:10504000825038806900A15041806C6561766500AE
:105050008F504780616E64008C5051806F72008D5C
:10506000505980786F72008E5060803E3E00B25082
:1050700068803C3C00B3506F803B7300AE5076803C
:10508000723E0091507D803E720093508480720089
:1050900092508B80303D0094509180303C00955070
:1050A00098802B0096509F802D00C250A580642BC5
:1050B000009750AB806E6567009850B280646E6553
:1050C00067009950BA806F766572009A50C3806409
:1050D000726F70008350CC8073776170009B50D5E5
:1050E00080647570009C50DE8040009D50E68063B7
:1050F00040009E50EC802100A050F3806321009F6F
:1051000050F980752A0089510080752F008B510756
:1051100080656D697400A8510E80706C6F7400B763
:10512000511780312B00A2512080636D6F7665008E
:10513000B651278066696C6C00B05131806963405C
:1051400000A4513A8069632100A551428069400062
:10515000A6514A80692100A75151803E706F727438
:105160003E008A51588073706900B8516380312DB8
:1051700000AF516B80617400AD5172802E6865780C
:1051800000AA51798074696C6500BD518280626C9F
:105190007400BE518B8032626C7400BF5193806288
:1051A0006C747300C0519C80636C697000C151A520
:1051B000802A00090351AE80322B00222251B58093
:1051C000732D3E64001C1551BD802D31002B2F51D5
:1051D000C780322A001C1651CF006C6F6373001118
:1051E0001B53CD261B181A161C53CD2753C4261348
:1051F00053C42713132E11111153C42753CD270362
:105200002E51D7406C6F633B00570751F657172E4E
:1052100054C954711D571753D62613135A7B115472
:10522000712053D6261142015622566654C92E5279
:1052300001406C3E002C2952102E522F403E6C0033
:105240002C3152102E523A006B6579000152645392
:10525000BB1C261B2222241661E82E524500696ED3
:105260006B65790023007D010E9487049927D7018F
:105270000D931D938C01CF91DF910E9487070C94B1
:10528000820801003E242C010C2E525B00636C73DB
:10529000002B2B2D5282040F2CA02CA04101F38057
:1052A000010C802B050853A10102582C20302E52EE
:1052B0008A0069270023C501DBCF52AF006372006B
:1052C0002C0D282E52BA0074797065005506040C16
:1052D0001A161B08211E2806FC0502032E52C400C4
:1052E0007370616365005396282E52DD0073706100
:1052F000636573002B5C61550604072B0852E606B4
:10530000FD2E050328221C1E1C1404F9032E52EA4C
:1053100000222E005302032E11530222132E2C22A0
:1053200058D954A458482254B12E530E402E22006E
:1053300054711D040957075318531E05092C225890
:10534000D954A453142E111C1D1322222E532A406B
:10535000220054711D04125707534654A42B54BB0A
:10536000531E54A41B200503531E2E534D0076617B
:1053700072002C3B050C536B00636F6E7374002C32
:105380003C59DB54A42F1F54BB2E5376803000AB06
:10539000538A00626C003C00205390007672616D6D
:1053A000003C0128539900636C6F636B003C01253E
:1053B00053A40073797376617273003C010B53B090
:1053C000007366003C011753BE007270003C005D24
:1053D00053C7007370003C001A53D0007370300044
:1053E0003C040080220001FFFFFFFF0000000000DE
:1053F000008082801268F853D900746962003C8092
:105400000053F7007761726E696E67003C8002544A
:1054100001006D61726B6572003C8004540F007472
:105420006F70003C8006541C00626C6B2A003C804C
:1054300008542600626C6B732A003C800A543100C9
:10544000626C6B23003C800C543D006470003C8017
:105450000E54480063757272656E74003C8010547F
:105460005100696E003C8012545F00737461746572
:10547000003C801454680062617365003C801654DF
:105480007400686C64003C8018547F002B21001B62
:105490001A1D161B202E1A1E0E1B1F2E5489006863
:1054A00065726500544E1D2E549C00616C6C6F74C7
:1054B00000544E548F2E54A8002C0054A4202C02CB
:1054C00054B12E54B600632C0054A41F2C0154B1C7
:1054D0002E54C3803D00421454D1803C00421554E8
:1054E000D8003E001B42152E54DF00726F7400136B
:1054F0001B111B2E54E88032647570001A1A54F484
:10550000003F647570001C04021C2E54FE00753CA4
:10551000002B1B2B19171B032E2C3F242C020C14C1
:1055200004F81C2C08322C42252C41252E550B004A
:105530006563400055192C0101FFFE2C3F0A032C26
:1055400040242E552D006563210055192C4025233C
:10555000F894FA9AF99A78948ECE554300656D6F57
:1055600076653E002B081A55341A1F1B221B220693
:10557000F603032E23008CE193E07D010E94D10409
:10558000D7010C942F0A555A006C6174657374002E
:10559000545C1D1D2E5586006C66613E636661007D
:1055A00055C31C55E01B1E2C800C040C1D1C15043F
:1055B000072C08322C7F0C2E5595006C66613E66D8
:1055C00066610022222E55B8006C66613E6E6661EF
:1055D000002C03162E55C6006666613E706661009B
:1055E000221C584816222E55D5003E6C6661005587
:1055F0009005021D1A1A5511141A1D140D04F51BDD
:10560000032E57686174277320004D69736D6174B0
:10561000636865640057726F6E67207374617465A8
:105620003A00426164205265663A00537461636BCC
:1056300020456D70747900537461636B2046756CFE
:105640006C00427265616B00531452E65318696E28
:1056500020002155EF55D153145B382E55E7003FFC
:105660006572726F72001B041E54711D040F531873
:10567000496E2000559055D1531452E6531452E60A
:1056800054A453145B38032E565C003F636F6D7057
:105690000054711D1401561556662E54711D015685
:1056A0001556662E5688003F70616972730042017C
:1056B000560A56662E56A4403A00569B59DB01FF07
:1056C000FF54B157212E56B5403B005707002E57C7
:1056D000172E56C600696D6D656469617465005565
:1056E0009055C32C4054962E56D200782C001C01A5
:1056F000FF000C040554BB050354C92E56E8006393
:105700006F6D70696C65005691111C1D56EE22225A
:10571000132E56FC405B002B5471202E5712005D57
:10572000002C405471202E571C00736D7564676502
:1057300000559055C32C2054962E5727003C627577
:10574000696C64730059DB2B54C92E573A40646F5F
:1057500065733E0001575E54BB2C1054C92E115581
:105760009055C355E0202E574B4028002C2958D97E
:105770002E576700686578002C10547C202E5771D6
:1057800000646563696D616C002C0A547C202E579F
:105790007E00646967697400132C30422C091A4238
:1057A00015040A2C07421C2C0A42150D1C11551118
:1057B0002E05141B547C1D090354EF547C1D09173E
:1057C0001122111C1516131C131E547C1D579814FE
:1057D00004E20311112E1C1E2C2D42141B1A422B05
:1057E0002B54EF2C0157B1131354EF04021911116C
:1057F0002E578F006E756D62657200547C1D131CF0
:105800001E2C244214040457782257D61A1E2C64E6
:105810004214040503222C021B1E140C11547C207C
:105820002E57F10063496E2200131A1815161A1626
:105830001C1E1C1242141B140D04F411031B032E16
:10584000582100226C656E002C011A2B58291B422E
:105850002E1C1E1C140437031C542E1D010200169E
:105860004214042754451D0422542E1D0101001624
:105870001C6577420101003654451D221C54452009
:1058800068461B6577421B6577421C1E142E5840E4
:105890000022736B6970426C001C0502221C1E2FD3
:1058A0002CE00C04F8585104F21B032E588E0065AE
:1058B0006E636C6F736500131C0502221C1E1C2C8A
:1058C0000E42151B1242140D04F2585104EC110340
:1058D0002E58AC00776F72640053FE1D58991B5808
:1058E000B71C1C1E14144253FE201A421C1354A44D
:1058F0001B362B1154A4161F2E58D100223C3E00FB
:105900000506031B221B221A1E1C131A1E421C1101
:10591000140D04EF1B031C151B1815421B1E142C21
:10592000080C332E58F940617363002C2058D95469
:10593000A41E54711D04072C2C54C954C92E59247B
:10594000002221001A584822362E593E00222B00F0
:105950001C58481659442E594A0022637574001683
:105960002B1B1F2E5957002266726F6D001A584864
:105970005C51162E5964006172720057451C165412
:10598000B1575E101A16162E597400627974657339
:1059900000574554B1575E10162E59880066696E3F
:1059A0006400539658D954A455901C55C31E2C20FE
:1059B0000C04021D0505110311031C131A1A55D1FD
:1059C000590014131D1C14120D04EC030311110CC7
:1059D0002E599A0063726561746500559054BB54EA
:1059E000A42C0242545C1D202B54C9539658D95400
:1059F000A458482254B101003B54C92E59D1405BF0
:105A0000636F6D70696C655D0059A21C142B56663E
:105A100055A056EE2E59FC406C69746572616C009D
:105A200054711D041E550604161C01FF000C0408C9
:105A30002C0154C954BB2E2C2C54C954C92E2C2BC8
:105A400054C92E5A1540646C69746572616C0054B7
:105A5000711D04061B5A205A202E5A1500627965C2
:105A600000110305055A5A4000110311032E5A650F
:105A700000696E746572707265740059A21C042FFF
:105A80001C55C31E2C7F0C54711D4215040755A0D4
:105A900056EE051955A01C0145004215040E1C01C7
:105AA000010E252C08320201010E2402051F0354A9
:105AB000A457FB1C1404090354A401560256662C77
:105AC0000142140406035A2005035A4F2E5A6E0051
:105AD0002272756E005A7B05FD2E5ACD00746F70D0
:105AE000210001FFFF1C131E2B121F019FFF1C1E14
:105AF0001A121B1F1A121E140D5423201B1F111FD4
:105B00002E5ADA00636C61696D0022221854231D3D
:105B10001C13161C542320111A2022222E5B010074
:105B20007265636C61696D002C02421D5423202E46
:105B30005B1D00717569740053E053D6270104FFA3
:105B400053CD27571752C00180221C53FE206554A5
:105B50002C0153FE548F5AD554711D14040653184A
:105B60004F4B0005E15B300061626F72740053E0DF
:105B700053D6270104FF53CD275AE2578952C02B31
:105B80005FFD2C015F9D53184649476E6974696F2C
:105B90006E200D7F6E696368656D616368696E650F
:105BA0007320323031312D323031340D0054231D09
:105BB00054A4425E775318627974657320667265E7
:105BC000652E005B385B65007061757365001C5C59
:105BD0003A53AD26161A15040A01011624040403CB
:105BE000032E1C53AD26421504EC03032E5BC500A7
:105BF000636F6C64000153E30180002C14365FD4A2
:105C00005291011B650103802C8036011AB60101F7
:105C1000F00100AF3601FF9C5BCE5B6E5BED002BAD
:105C20002D00150402182E5C1C00642B2D00150499
:105C300002192E5C2700616273001C5C222E5C330B
:105C40000064616273001C5C2E2E5C3E006D696E08
:105C5000001A1A54E404021B032E5C4A006D61789A
:105C6000001A1A421504021B032E5C5A006D2A000A
:105C70001A1A0E135C3A1B5C3A09115C2E2E5C6AF0
:105C8000002A2F6D6F6400135C70115C9F2E5C7E88
:105C9000002A2F005C871B032E5C8E006D2F001ADC
:105CA00013135C46125C3A0B11120E5C221B115C42
:105CB000221B2E5C99002F6D6F6400131C15115C64
:105CC0009F2E5CB3002F005CBB1B032E5CC2006DDB
:105CD0006F64005CBB032E5CCC006D2F6D6F6400A5
:105CE000132B120B111B130B112E54EF56AE54C96C
:105CF00054A44254C92E5CD740696600570700047B
:105D000054A42B54C92C022E5CF6407468656E00B6
:105D100056912C0256AE54A41A421B1F2E5D084009
:105D2000656C7365002C0256AE5707000554A42B12
:105D300054C91B2C025D102C022E5D1D40646F00A7
:105D40005707000854A42C032E5D3A406C6F6F7007
:105D5000002C062C035CEA2E5D49402B6C6F6F70A3
:105D6000002C072C035CEA2E5D5840626567696E63
:105D700000569154A42C012E5D6840756E74696CB8
:105D8000002C042C015CEA2E5D78407768696C6514
:105D9000005CFC22222E5D88407265706561740093
:105DA00013132C052C015CEA11112C02425D102EFC
:105DB0001A4214111B04071B03222205021D132E75
:105DC0005D9600686F6C640001FFFF5486548F5429
:105DD000861D1F2E5DC0007061640054A42C431604
:105DE0002E5DD4003C23005DDB2B1A1F5486202E31
:105DF0005DE100233E00030354861D5DDB1A422E45
:105E00005DF0007369676E0054EF1504052C2D5D7D
:105E1000C82E5E00002300547C1D5CE054EF2C096A
:105E20001A421504042C07162C30165DC82E5E127B
:105E3000002373005E171A1A0D1404F92E5E2E004B
:105E4000642E7200131B1A5C465DE75E345E085DCB
:105E5000F6111A4252F452CC2E5E3D00642E002BF5
:105E60005E4452E62E5E59002E7200131C15115E20
:105E7000442E5E65002E001C155E5F2E5E72003F94
:105E8000001D5E772E529153184C6F6164696E67E6
:105E9000200054451D5E772E5E7C006C6F6164733C
:105EA000001B542E1D1354451D1C1404142B0103F8
:105EB000015B0A010100161C542E20010200161F6E
:105EC00053FE1D13131B2B08542E1D53FE201C5470
:105ED000452068465E855AD554451D2206EB0311C0
:105EE0001153FE201C5445205506040768465E8564
:105EF000050A542E1D010100425B2811542E202E4C
:105F00005E98006C6F6164002C015EA12E5F000042
:105F10006370001B6846687952912E01010B26536D
:105F2000A101023E1654E42E5F0D006D6F726500F4
:105F30005F1B040F53186D6F72653E3E00524C0399
:105F400052912E1312021A1A55D159002CFF0C141B
:105F500004081C55D1531452E61D55061404E603DB
:105F600011032E5F2840766C6973740052912C20C7
:105F700058D954A45590015F305F432E5F6300668B
:105F80006F726765740059A25506040A1C1D545CA3
:105F90001D20544E202E5F7C0070656E0001004A6B
:105FA000252E1C221E1A1E2522221C1E1404F40358
:105FB0002EB033B10AB200B39EB40B8000810285CB
:105FC0000084008900880B6F02C2C0C100C500C4F4
:105FD000014300002C832C43252C0A2CFE2C2A0A7A
:105FE000032B2CFD2C2B0A032C0801012725015F14
:105FF000B15FA22E5F9600766D6F6465002C610C18
:106000002C432404035FD42B5BCE1C2C9E01003E4A
:106010000A0314040352912E0000000000FE000049
:106020000000000000001900130064525FF40061DA
:10603000743E002C1909031653A1162E602C006320
:106040007572736F720001010D2401010B2653A1BB
:10605000422C195CC72E602C00636C426F780013D1
:10606000136033111B112B081A1A1B2C20302C190A
:106070001606F603032E131A1B1158291B15422E60
:106080001B15161E2E01FFFF1A2C0D6076422913D8
:106090005CD32E131A1514120C131A1A2C0D6076D9
:1060A0001A421C5C3A29132F114254E404181C5C58
:1060B0003A29135C511B5C221B1A161B5C3A111601
:1060C00029134205441C13161A131A1A60801C1453
:1060D00014110C13042C1A16111103131A1A2C0D77
:1060E00060761A425C3A54EF15040929135CD31BFD
:1060F0001A421B1154EF54EF115C511B1A161B0569
:10610000081B03111B1111162E290D29034215041A
:106110001729091C221A1829011622290D221C31BF
:106120000D16361C29091F032E1A131C131A1315DA
:10613000141329135C51111B1304051A1A12362C5F
:1061400019161B12161B1118111611221A141A29CE
:10615000152F54E40D04D51B03111C29135CD31314
:1061600012140C04071B2C19161B221C2915224281
:10617000151A18150C040F1A2C1942121612182988
:1061800013162C203011032E290122290F29112941
:106190000B426033290B181305191A1C2C011B2CF8
:1061A0000D58291B42116129131B1C1E2C0D421472
:1061B000421B1A1E141229152F54E40D04DD03038B
:1061C0001129151A54E4041113290F122911162943
:1061D0001329151142605F2B032E2917290F29055A
:1061E00016291129071660331C13241B53AD261CD6
:1061F00053AD2642150410528214040812242C8038
:106200000E12252C32161A02550604E41B031B033A
:106210001B115282140403252E03032E2F1A5C51E6
:106220002B5C611B1A422E310531092907162915ED
:10623000621C1C290B16310B1B31072E290929055D
:10624000609362272E29091A1A60801C042F2C0DD6
:10625000421404141A161B1504091C608501FFFF63
:1062600005042B2C01050F1A161B290516291316D8
:106270002B29130B2F54EF54EF62272E0303032B0C
:106280002E61092C016245032C012E29092F2901B9
:10629000421C04191329091C2F290D11422201FF48
:1062A000FF62450336290D2F310D2C012E2909647B
:1062B000142B2E2B54191D1C221B1E14140C0413FA
:1062C0000354191D1C1C2909421516222264141E90
:1062D00062812E2C075DB062DD628B056C2C085D3F
:1062E000B062EA01FFFF6245055F2C095DB062F60E
:1062F0002C01624505532C0A5DB063022C01623CFF
:1063000005472C0B5DB0630F01FFFF623C053A2C83
:106310000D5DB0631B2C0D6281052E2CCD5DB0632D
:106320002562AD05242CC35DB0632F62B3051A2C22
:10633000AB5DB0633C032C8D2C01050D2CA05DB032
:1063400063462C010503032B2E1C2C1F54E41A2C2E
:106350008042150C04056281050362D32E0403619B
:106360008861DA1C63491B2C8D421404F12E1C2C0D
:106370002F54E41A2C3842150C040F2C30422909F2
:106380001E2C03330D29091F2B032E016018010158
:1063900017262C05162C143631031C310122310925
:1063A0002E2C09322E2C122C131A1A2D2C0752F4D3
:1063B0002D5318436D643F00524C1C282C775DB060
:1063C00063D752912919290122290D0101FF166372
:1063D000A16901032B05352C245DB063F02C122C30
:1063E000132D5318285368656C6C29005B43051CFA
:1063F0002C7A5DB064092B2901221C31091F2B3135
:106400000D2B31052B31070503636E2E6056006D91
:1064100061726B005419202E5F1B040311112E535F
:10642000A10101F4160100642C20302B2C142D2E18
:1064300052641C04591C2C214215040C291B040312
:10644000641F2B311B05471C2CA042140425291B5B
:10645000041B53A10101F316291B1654A442221C4C
:10646000241C6281032C20421404F40354A4311B25
:10647000051C291B0418291B1A1A1F2B1A221F225C
:10648000311B641F54A455900164185F432E640CA3
:106490000065646974002C1C51DF54231D54A44210
:1064A000010142426577180C1C5B0A1B2C024263F7
:1064B0008B29012B1A2001643031172B311B1A5CF8
:1064C0003A311922290363A168C8032B2901290342
:1064D00016221F29091C1E2CFF421404052B29011A
:1064E000205848310D2B2C132D5318426C6B3A2039
:1064F0000029192C045E6B52E653184C656E3A0065
:10650000290D2C055E6B2C2F2829032C055E6B2C86
:1065100001635D1C040363A51404CB29015B2851AE
:10652000F6648E00626F786564002C1851DF1313D7
:106530001A584813638B11310D1111311531136045
:10654000463111310F2C01635D51F66521007175E3
:106550006572790013557460462B2C142D112B1A7B
:10656000202C4F2C192C04652A032D2E654B00621C
:106570006C6B73697A65003C0200440120135DB0C6
:10658000658701010005190130135DB065922C800B
:10659000050E0130145DB0659D2C800503032B2E84
:1065A000440120135DB065AD0101000519013013F0
:1065B0005DB065B82C10050E0130145DB065C32CBC
:1065C000100503032B2E440120135DB065D3010891
:1065D00000051B0130135DB065DF010800050F01E8
:1065E00030145DB065EB0110000503032B657A42A2
:1065F0002E2C01322E013FFF0C1C16657A162E65DB
:10660000C665F12E65C665A04265F12E013FFF0CFF
:1066100065C61A1A2F54E40C421C16657A162E65AC
:106620006C00666469736B00440120134265A065C9
:10663000C6657A162B081A1A212F0C140D21140D79
:10664000212C1042140D212C2042140D212C4042EB
:10665000140D04092B2C142D212A21432C1007D7AB
:1066600003032E1A16162E65FF2F13122C0732164F
:106670001A34112C7F0C1B6663262E1C2B666701B7
:10668000FFFF42141B1A042165FF2F2F2C7F0C1AC9
:1066900066632601FFFF4204101B031C0100106605
:1066A0006701FFFF4214141B032C100C2E01010084
:1066B000162E66AD1A1616262E1A667B04050140A4
:1066C000000E1C013FFF0C2C07321B0140000C1474
:1066D000142C100C161B1A1B342E3B28746F7029B7
:1066E000003B28626F74290001800013131365FFBB
:1066F0002B1A1A013FFF0C224215040901C0000C9D
:10670000014000161C2C7F0C1C1404071A121B6677
:10671000B903126663261A1A111B1C1242141B01BC
:10672000FFFF4214111201800042141B130C0D04D0
:10673000081A1111031B131313031B221B01FFFF64
:1067400042141A0180005511140D04A603031111FF
:106750000303112E66E865F52E1C0140000C0407AA
:10676000013FFF0C050C1A1B67541A66AD1A221B59
:10677000341B1A1B342E1C66045511141B65A02FE4
:1067800065F10C140C2E1A01FFFF66E81C65C66546
:10679000F1013FFF16551114040B131A667B4311C8
:1067A0000140000E131A1201007F0C1A66631B11C0
:1067B00066B91327111B352E65A065F11365C665F3
:1067C000F112421A013FFF0C1A5511140406181A4F
:1067D000160509031C12160140000E131A66AD11AE
:1067E0001B1A66B9031B660C1A660C111B131B1AC5
:1067F0002B0813131A1A131201007F0C1A66B21B0E
:106800001A1A1B66E81C114214111A0C13041E6597
:10681000F51A1A1B341A111B121B3513221A3411C4
:106820001A12221B35131B67862B2B2B0303032203
:106830001111222206BD1143031B031B032E661FE9
:1068400000626C6B3E00542E1D55061404096577DA
:106850005B0A1C542E201A15040A2B1B65775564FD
:1068600003050E1353A11B67590353A11165773616
:106870002E683E003E626C6B001353A11C01FFFFAB
:1068800067541A542E1D1B6577361A1A1B351C01C6
:10689000C0000C014000420422221A66AD351C11D2
:1068A00067861C01FFFF66E81C67761C0406031A56
:1068B0001A67B81B031404EB032E030311032E689D
:1068C0007100626C6B733E00542E1D131B542E20FE
:1068D0002B031A68461B221B2F1C14542E1C1D014F
:1068E00001FF161B1A221B201E141B1A0D04E31392
:1068F00003031111542E202E68BF003E626C6B738F
:1069000000542E1D131B542E202B081C68792201C5
:0E6910000200542E548F06F40311542E202E34
:00000001FF
:000000