:100000000C9417030C9434030C9434030C943403B1
:100010000C9434030C9434030C9434030C94340384
:100020000C9434030C9434030C9434030C94780330
:100030000C9434030C9434030C94AA110C943403E0
:100040000C9434030C9434030C9434030C94340354
:100050000C9434030C9434030C9434030C94340344
:100060000C9434030C943403E40801096F0B1B094E
:100070003609450968098F09A209C908B609DD09C9
:10008000E709F109FB09FD09090A150A230A260AED
:100090002A0A2D0A370A670A6C0A7E0A860A8E0A1D
:1000A000980AA90AAD0ABD0AD20ADC0ABD0BE70A02
:1000B000EA0AF00AF40AFC0A000B000B040B100B0E
:1000C0001E0B2E0B310B3E0B4C0B4F0B5D0B6C0BB9
:1000D000770B830B960BA50BC9086F0B3F7FFFFFB8
:1000E000FFFFFFFFFCFEFFFFFFFFFFFFFFFFFFFF24
:1000F000FFFF7F3FFFFFFFFFFFFFFEFC00FF00FF52
:1001000000FF00FFFFFFFFFFFFFFFF000F0F0F0FBC
:100110000F0F0F00F0F0F0F0F0F0F000FF808080A3
:1001200080808080FF00000000000000FF010101CE
:1001300001010101808080808080808001010101B7
:100140000101010180808080808080FF000000002C
:10015000000000FF01010101010101FF3F7FFFFFDE
:10016000FFFFFF000F0F0F0F00000000F0F0F0F096
:1001700000000000FFFFFFFF000000000000000083
:100180000F0F0F0F0F0F0F0F0F0F0F0FF0F0F0F0FB
:100190000F0F0F0FFFFFFFFF0F0F0F0F00000000EB
:1001A00055AA55AA55AA55AA000000005050505013
:1001B0005050505055AA55AA55AA55AA0000183CAF
:1001C0003C1800003C7EFFFFFFFF7E3C3E419CACA4
:1001D0009F403F0000008E9526C8F0000000000000
:1001E0000000000000101010100010000024240077
:1001F0000000000000247E24247E240000083E2805
:100200003E0A3E08006264081026460000102810CE
:100210002A443A000008100000000000000408080A
:10022000080804000020101010102000000014081E
:100230003E081400000008083E0808000000000006
:1002400000080810000000003E0000000000000050
:10025000001818000000020408102000003C464A64
:1002600052623C000018280808083E00003C420288
:100270003C407E00003C420C02423C000008182832
:10028000487E0800007E407C02423C00003C407CEE
:1002900042423C00007E020408101000003C423C38
:1002A00042423C00003C42423E023C000000001042
:1002B00000001000000010000010102000000408D2
:1002C000100804000000003E003E0000000010087E
:1002D00004081000003C420408000800003C4A5694
:1002E0005E403C00003C42427E424200007C427C38
:1002F00042427C00003C424040423C000078444284
:1003000042447800007E407C40407E00007E407C7D
:1003100040404000003C42404E423C000042427E91
:1003200042424200003E080808083E000002020265
:1003300042423C0000444870484442000040404073
:1003400040407E000042665A4242420000426252F1
:100350004A464200003C424242423C00007C42424B
:100360007C404000003C4242524A3C00007C4242F9
:100370007C444200003C403C02423C0000FE101025
:10038000101010000042424242423C0000424242F1
:100390004224180000424242425A240000422418DB
:1003A000182442000082442810101000007E040827
:1003B00010207E00000E080808080E0000004020F3
:1003C0001008040000701010101070000010385455
:1003D0001010100000000000000000FF001C227838
:1003E00020207E00000038043C443C000020203CDB
:1003F00022223C0000001C2020201C000004043CA1
:1004000044443C000000384478403C00000C101884
:100410001010100000003C44443C04380040407878
:100420004444440000100030101038000004000460
:100430000404241800202830302824000010101054
:1004400010100C000000685454545400000078440C
:1004500044444400000038444444380000007844D8
:100460004478404000003C44443C040600001C200A
:100470002020200000003840380478000010381098
:1004800010100C0000004444444438000000444470
:100490002828100000004454545428000000442828
:1004A0001028440000004444443C043800007C0808
:1004B00010207C00000E083008080E000008080814
:1004C000080808000070100C1010700000142800BC
:1004D000000000003C4299A1A199423C2300100574
:1004E0000520202020202020202020200520202042
:1004F0002020202020202084848406078484848473
:1005000084848406848484840784848484848484A6
:10051000A02020159500A00115A0A0011595A020F0
:10052000159500A00115A0A001A020201595A020E0
:10053000A0159520A01595A0201595A020A0159593
:1005400020A0A02020159502A0A0159520A015950B
:1005500002A0159502A003159520A02020202020A0
:100560002020A0202020202020202020202020200B
:1005700020202020202020202020A0032020202018
:10058000202020202020202020202020200D200A94
:100590000007090B087A7978777A7675746C736B33
:1005A0006A697368673D29CD28242FCD2A2B3039FD
:1005B000C3383736C37A7271707A6F6E6D66736541
:1005C0006463736261223BAB3A212CDE2E2D3534FD
:1005D00000333231000A200A007F090B085A5958AB
:1005E000575A5655544C534B4A49534847265D0079
:1005F0005B605C005E3E3C3900383736005A525131
:10060000505A4F4E4D4653454443534241277B0079
:100610007D3F25007F7E35340033407C000F070B83
:10062000030D0509010E060A020C0408000011243E
:100630001FBECFEFD4E0DEBFCDBF11E0A0E0B1E040
:10064000ECEFF2E302C005900D92A830B107D9F7A4
:1006500013E0A8E0B1E001C01D92AD3FB107E1F7A2
:100660000E9490080C94C1120C9400000895FC01A3
:100670000196E491EE23D9F7089583E883BD83E3DF
:100680008093B0008AE08093B1001092B2008FE9AD
:100690008093B3008BE08093B4001092800022E03E
:1006A0002093810010928500109284008BE090E0EE
:1006B000909389008093880020936F0050988AB1AE
:1006C0008A608AB98BB1857F8BB988E080930301FA
:1006D000E4ECF0E01182108280EC8093C200109272
:1006E000C10081E090E091838083789413BC0895E9
:1006F0001F920F920FB60F9211242F938F939F93F7
:1007000080910301873069F50E94EE1182E08093A9
:100710006E0080910401909105018E569340D0F0B7
:10072000809188009091890081519D4D909389001E
:100730008093880088E08093030180911301909159
:100740001401019690931401809313010E94531297
:10075000281C94C0809188009091890081579F4FF8
:1007600068C0833009F43FC0843028F48130F9F048
:10077000823060F50AC0863009F463C0883009F41D
:1007800071C0843009F07AC040C08FE48093B30018
:1007900085E08093B4008091880090918900845115
:1007A0009E4F909389008093880081E047C089E440
:1007B0008093B4008091880090918900805C9E4F66
:1007C000909389008093880082E038C010926E0078
:1007D0008091880090918900CE96909389008093B3
:1007E000880083E02BC082E080936E0085E08093D8
:1007F000B40080918800909189008E559E4F90930F
:1008000089008093880084E019C08FE98093B30049
:100810008BE08093B40086E191E090930501809392
:100820000401109206018091880090918900805502
:100830009D4D909389008093880086E0809303010A
:100840001DC0809188009091890041969093890005
:100850008093880010926E0087E080930301789463
:1008600088950CC080918800909189008C569F4F8C
:100870009093890080938800109203019F918F913B
:100880002F910F900FBE0F901F9018952CED30E018
:10089000AEE6B3E005C0F90184918D932F5F3F4F21
:1008A000F3E0AE3EBF07B8F3089529E1629F9001DF
:1008B0001124280F311D2A5E3E4F3093EF03209301
:1008C000EE038093F003609315010895E6E1F1E0F3
:1008D000818D819383E0E535F807D0F302C08193E1
:1008E00001C080E293E0EE36F907C8F308951F9344
:1008F000182F873041F08D3011F51092F003809160
:1009000015018F5F16C0E091EE03F091EF0380E2D6
:1009100080838091F003882321F081508093F0033D
:100920000DC088E18093F00380911501181624F41E
:1009300081508093150102C01092150110E0809142
:10094000F003893168F01092F003809115018F5FF8
:1009500005C00E94660480911501815080931501A5
:10096000609115016831A8F78091F0030E94550449
:10097000112371F0E091EE03F091EF031193F093E6
:10098000EF03E093EE038091F0038F5F8093F00319
:100990001F910895CF93DF93EC0103C021960E942D
:1009A000770488818823D1F7DF91CF910895EF9262
:1009B000FF921F93CF93DF93EC0180E30E947704B3
:1009C00088E70E947704CE018070907F892B11F018
:1009D00010E01EC034E0CC0FDD1F3A95E1F7CE01E8
:1009E0008070907F892B11F011E012C024E0CC0FB1
:1009F000DD1F2A95E1F7CE018070907F892B39F4B5
:100A000094E0CC0FDD1F9A95E1F713E001C012E0EE
:100A10007E019F2D92959F70892F805D8A330CF007
:100A2000895D0E94770484E0CC0FDD1F8A95E1F791
:100A30001F5F143069F780E20E947704DF91CF9145
:100A40001F91FF90EF90089580E060E00E945504B0
:100A500080E090E020E2E091EE03F091EF0321933B
:100A6000F093EF03E093EE03019632E088359307AD
:100A700091F780E060E00E9455040895282F8233AA
:100A800008F04DC0603308F04AC0862F869599E182
:100A9000899FF0011124822F8695E80FF11DEA5EEF
:100AA000FE4F60FD02C052E001C058E020FD5695A7
:100AB000F19902C030E001C0352FF09902C040E04A
:100AC00001C0452F9081903A31F0892F887780318D
:100AD00011F020E006C0292F277827FF02C08FE8F9
:100AE0002827852F80958323942F932B9095982BDF
:100AF0009223309535233423932B4523209542238D
:100B0000942B93FF02C08FE89827292F205F822F14
:100B100090E087709070892B09F4205F20830895FE
:100B200098B1811180E19F7E892B88B9089590E06A
:100B300044EF51E009C024EF31E0FA013197F1F7B9
:100B400021503040D1F79F5F9817A8F3089594E1A2
:100B5000899F802D11240E9497050895EF92FF929E
:100B60000F931F9320910801309109012F5F3F4F90
:100B70004BE450E0249F7001259FF00C349FF00C53
:100B80001124F0920901E092080100E010E09C01BC
:100B900040E050E0C801B7010E9480129B01AC0107
:100BA0009A0144275527C9011F910F91FF90EF909B
:100BB000089584B1817C8E6284B985B1817C866020
:100BC00085B98DB581608DBD80E58CBD08958EBDE4
:100BD0000DB407FEFDCF089580E00E94E7058EB5B5
:100BE0000895299881E00E94E70581E40E94E705C5
:100BF000299A0895299885E00E94E7050E94EC054E
:100C0000299A0895FF920F931F93182F092FF62EFC
:100C1000299882E00E94E705802F0E94E705812F36
:100C20000E94E7058F2D0E94E705299A1F910F91D9
:100C3000FF900895FF920F931F93182F092FF62E00
:100C4000299882E00E94E705802F0E94E705812F06
:100C50000E94E7058F2D0E94E7051F910F91FF90DD
:100C600008950F931F938C01299883E00E94E70554
:100C7000812F0E94E705802F0E94E7050E94EC0566
:100C8000299A1F910F9108950F931F938C01299812
:100C900083E00E94E705812F0E94E705802F0E94D4
:100CA000E7050E94EC051F910F9108952A9885E0B1
:100CB0000E94E7050E94EC052A9A08950E945606B4
:100CC00080FDFCCF08952A9886E00E94E7052A9AC5
:100CD00008950F931F938C010E9463062A9888ED54
:100CE0000E94E705812F0E94E705802F0E94E705FB
:100CF00080E00E94E7052A9A0E945E061F910F91EC
:100D000008950F931F93CF93DF938C01EB012A98E3
:100D100083E00E94E705812F0E94E705802F0E9453
:100D2000E70580E00E94E70500E010E00E94EC0586
:100D300089930F5F1F4F81E000301807B9F72A9A97
:100D4000DF91CF911F910F9108950F931F93CF9330
:100D5000DF938C01EB010E9463062A9882E00E94D7
:100D6000E705812F0E94E705802F0E94E70580E0BC
:100D70000E94E70500E010E089910E94E7050F5FFF
:100D80001F4F81E000301807B9F72A9A0E945E06CB
:100D9000DF91CF911F910F9108950F931F932A9880
:100DA0008FE90E94E7050E94EC0590E08F379105DE
:100DB00019F40E94EC0590E0C79719F02FEF3FEF70
:100DC0000AC00E94EC05182F00E00E94EC05282FB5
:100DD00030E0202B312B2A9AC9011F910F910895E1
:100DE000E6E8F5E224913196E491922F80E02E2FEF
:100DF00030E0282B392BC9010895299A8CB58F7BB7
:100E00008CBD20918400309185002F5F3F4F8DB5C0
:100E10008EB58091840090918500A901481B590BE3
:100E200057FFF5CF8CB580648CBD0895FC0197FD0C
:100E300005C0FF71EA57FA4D849108958091F3033C
:100E40009091F4033196F093F403E093F303319718
:100E5000E817F90729F40DB407FEFDCF8EB51CC0C5
:100E6000299A8CB58F7B8CBD2091840030918500B0
:100E70002F5F3F4F8DB58EB5809184009091850096
:100E8000A901481B590B57FFF5CF8CB580648CBD69
:100E9000CF019F770E9444061EBC08950F931F93B5
:100EA000CF93DF93FC01EB018A014115510559F104
:100EB000299A8CB58F7B8CBD209184003091850060
:100EC0002F5F3F4F8DB58EB5809184009091850046
:100ED000A901481B590B57FFF5CF8CB580648CBD19
:100EE000CF019F7768810E941A0603C088810E9403
:100EF000E70501501040219601151105B9F7109230
:100F0000F4031092F303DF91CF911F910F91089595
:100F10000E94240508951F93CF93DF93CEEDD4E074
:100F20000E94240518E080E0612F0E94550480E0B3
:100F300090E0FE01E80FF91F2491E091EE03F0919B
:100F4000EF032193F093EF03E093EE0301968931D1
:100F5000910579F769961F5F1F3029F720911301DA
:100F6000309114012C593F4F80911301909114013D
:100F700028173907C9F7DF91CF911F910895EF9294
:100F8000FF920F931F93CF93DF937C018B01EA01B4
:100F9000C7010E9416078093F1031092F203089490
:100FA000E11CF11CC80161EF73E041E050E00E94D8
:100FB0004E070F5F1F4F219759F7DF91CF911F9178
:100FC0000F91FF90EF900895AF92BF92CF92DF9272
:100FD000EF92FF920F931F93DF93CF93CDB7DEB7BE
:100FE0002A970FB6F894DEBF0FBECDBF8C010E94CA
:100FF0001607E82EC80101960E941607F82EC801B0
:1010000002960E9416078C83C80103960E94160759
:101010008B83C80104960E9416078E83C80105962B
:101020000E9416078D83C80106960E941607A82EF7
:10103000C80107960E941607B82EC80108960E949C
:101040001607C82EC80109960E941607D82E0E94BE
:10105000FD06EE2DF0E0F09480818F2180830D81DC
:101060001E81EB80FC8007C0F70181917F010E9407
:10107000E7050150104001151105B1F7A886BF82A0
:10108000CA86D98609851A85EF80F88407C00E9430
:10109000EC05F70181937F01015010400115110506
:1010A000B1F72A960FB6F894DEBF0FBECDBFCF9131
:1010B000DF911F910F91FF90EF90DF90CF90BF9045
:1010C000AF9008950CC0809113019091140174E0C9
:1010D000959587957A95E1F781700E9490050E9419
:1010E000390C882381F3089583B7816083BF109200
:1010F000C10080E187B93D98459A8AB18E7B8AB953
:101100008BB181648BB90E9446040E94030C0E943B
:10111000D9050E94F1050E943D030E948B070895A6
:101120002F923F924F925F926F927F928F929F92F7
:10113000AF92BF92CF92DF92EF92FF920F931F93E5
:10114000DF93CF93CDB7DEB72E970FB6F894DEBFFF
:101150000FBECDBF0E9474080E9424050E94F006B5
:101160008C011092F4031092F3032DEF33E03E87CD
:101170002D8780E20E947704CC24DD246624772426
:101180004424552407C0CC24CA94DC2C02C0CC24AF
:10119000DD24840148010894811C911CC8010E942F
:1011A0001607182F8B3308F0D4C2812F90E0FC0172
:1011B0003197EA33F10568F7EC5CFF4FEE0FFF1F44
:1011C0000590F491E02D09948D859E8502969E8769
:1011D0008D87FC01D182C08284010F5F1F4FC40143
:1011E0000E941607F82E48010894811C911CC80122
:1011F0000E9416073F2C2224C82EDD24C228D328A3
:10120000C8CF2D853E8522503040FBE3CF16D10458
:1012100040F41C2DED85FE85C080D1803E872D8752
:10122000C4CF8F929F92ED85FE85808191813E870C
:101230002D87460171C174010894E11CF11CC401A1
:101240000E941607182FC7010E941607CD2829F003
:1012500047010894811C911C42C21E831D82882E66
:1012600099242D813E81822A932A39C2C4010E9489
:101270001607182FC40101960E94160718871F82AF
:10128000882E99242F81388575C20894611C711CA1
:1012900074010894E11CF11CC4010E941607182F68
:1012A000C7010E941607641475044CF41C831B824A
:1012B000882E99248B819C81882A992A6ACF47019C
:1012C0000894811C911C7F906F905F904F9061CF2C
:1012D0006C0C7D1CED85FE85C080D1803297FE8729
:1012E000ED8774010894E11CF11CC4010E941607EB
:1012F000182FC7010E941607641475043CF41A8362
:101300001982882E992429813A8134C24701089490
:10131000811C911C7F906F905F904F903ACF4F92BD
:101320005F926F927F92ED85FE854080518032976B
:101330009F01225030403E872D8736012081318128
:10134000C901EAC0ED85FE856081718180E090E091
:10135000960140E050E00E948012ED85FE85718389
:101360006083BC01882799276B0113CFED85FE852B
:1013700080819181A0E0B0E0DC0199278827F2907C
:10138000E290FE87ED8700E010E0E82AF92A0A2BB8
:101390001B2B5601CC24DD24C801B701A601950101
:1013A0000E949F12ED85FE8571836083C801B7019D
:1013B000A60195010E949F128DC1ED85FE85808159
:1013C00091813297FE87ED87C822D922E2CEED8542
:1013D000FE85808191813297FE87ED87C82AD92AC0
:1013E000D8CEED85FE85808191813297FE87ED878D
:1013F000C826D926CECE3201CCCE2D853E852E5F95
:101400003F4F3E872D87F901D182C082DF90CF9078
:10141000C0CE2D853E852E5F3F4F3E872D87F9013B
:10142000D182C082DF90CF90B4CE2D853E852E5FD5
:101430003F4F3E872D87F901D182C082DF90CF9048
:10144000CF92DF92A6CECF92DF9249C1CD2809F488
:101450009ACE9DCED7FE9BCE96CEED85FE85808121
:1014600091813297FE87ED87C80ED91E92CE2D85C9
:101470003E8522503040C601A0E0B0E0DC01992753
:101480008827ED85FE85E080F18000E010E0E82A05
:10149000F92A0A2B1B2BF9012081318140E050E011
:1014A000A9013327222792918291FE87ED87A0E040
:1014B000B0E0822B932BA42BB52B8E0D9F1DA01F6C
:1014C000B11F91838083CD01AA27BB2725C0D0946B
:1014D000C194D108D3945DCEED85FE858081918144
:1014E000909581959F4F91838083C094D094892B50
:1014F00009F04FCE0894C11CD11C4BCEED85FE8562
:10150000808191813296FE87ED8704C0ED85FE854E
:1015100080819181D182C0826C013BCE2D853E8538
:101520002E5F3F4F3E872D87F901C082D18231CE99
:10153000C6010E941607182FC60101960E941607C1
:101540001A871986C82EDD2429853A85C22AD32A0E
:1015500020CEC6010E9416076EC0C6016D857E852D
:1015600041E050E00E944E07ED85FE85D290C2908A
:10157000CF0102979E878D870CCE0D851E85F801C1
:10158000908181818093F1039093F203C60161EF12
:1015900073E042E050E00E944E07F801D290C29002
:1015A0009F0157C08D859E8502969E878D87FC0181
:1015B000D182C0826301EDCD2D853E852E5F3F4FE8
:1015C0003E872D87F901D182C0826201E2CDF6010A
:1015D000808131C0ED85FE858081F601808334C035
:1015E000F601C080D180D5CDED85FE8580819181C9
:1015F000F6019183808328C08C2D0E9477046FC0F0
:10160000C6010E94D7046BC02D853E852E5F3F4FDB
:101610003E872D87F901D182C0820E94390C0BC010
:101620002D853E852E5F3F4F3E872D87F901D18264
:10163000C0820E94400CC82EDD24ABCDED85FE8516
:1016400080816C2D0E945504ED85FE85D290C2905C
:101650009F01225030403E872D879BCD9F908F90D9
:1016600098CD8D859E8502969E878D87FC01D182BF
:10167000C082F6E1CF2EF1E0DF2E8BCD2D853E85A9
:101680002E5F3F4F3E872D87F901D182C082E3E173
:10169000CE2EE1E0DE2E7DCD0E9424057ACDED85B3
:1016A000FE85808191813297FE87ED879C0102C083
:1016B00036952795CA94E2F70DC0ED85FE858081A9
:1016C00091813297FE87ED879C0102C0220F331F64
:1016D000CA94E2F769015DCDC6010E94A10FED85B4
:1016E000FE85C080D1803297FE87ED8752CDC6013E
:1016F0000E94A20E80E09EE966E171E040E052E0C7
:101700000E944E07ECCF0D851E85F8016081718126
:10171000929182918F01A6010E94BF07F801D29099
:10172000C2909F01225030403E872D87ED85FE8577
:1017300080816C2D0E943E05ED85FE85D290C29081
:101740009F01225030403E872D87C6010E94E4074A
:10175000C6CF0894811C911C8F929F920894810897
:101760009108C4010E941607882E99241C871B86A5
:101770002B853C85822A932A0CCD2E960FB6F894A1
:10178000DEBF0FBECDBFCF91DF911F910F91FF90B4
:10179000EF90DF90CF90BF90AF909F908F907F9011
:1017A0006F905F904F903F902F900895282F30E0DA
:1017B000C901019782239323892B19F049E050E056
:1017C00016C0822F807F49F0822F807C19F445E07B
:1017D00050E00DC047E050E00AC0C9018C70907025
:1017E000892B19F441E050E002C043E050E0042EA0
:1017F00002C0359527950A94E2F741505040240FD6
:10180000351FC901089587B1807F87B988B18F607E
:1018100088B957985F9A2098289A08959091110155
:10182000992371F4E6B1F0E0EF70F070E35EF94FE8
:10183000E491E093120157985F9A209A289812C079
:10184000E6B1F0E0EF70F070E35EF94FE491809163
:1018500012018295807F8E2B809312012098289A06
:10186000579A5F989F5F9170909311018091120138
:10187000089580910A01882311F010920A010895B9
:101880001F93E091EE03F091EF03808180588083F5
:101890000E94390C182F8823D9F3E091EE03F091C0
:1018A000EF03808180588083809111010E94900510
:1018B000812F1F910895CF92DF92EF92FF920F93A5
:1018C0001F93182FF62ED42EC22E8DE00E9477047F
:1018D000812F90E00E94D70480E20E9477048F2D30
:1018E00090E00E94D70480E20E9477048D2D90E062
:1018F0000E94D70480E20E9477048C2D90E00E9421
:10190000D70480E20E947704802F90E00E94D704E1
:1019100080E20E9477048E2D90E00E94D70480E23E
:101920000E9477041F910F91FF90EF90DF90CF906E
:101930000895CF92DF92EF92FF920F931F93CF9370
:10194000DF93E090EE03F090EF03C090F003D090AF
:10195000150106E1C4E0D0E08BE0602F0E94550441
:10196000CE018450182F06C0EB50FC4F80810E949E
:1019700077041F5FE12FF0E0EC17FD07ACF30F5F7A
:101980002496083149F7F092EF03E092EE03C092FB
:10199000F003D0921501DF91CF911F910F91FF902D
:1019A000EF90DF90CF900895BF92CF92DF92EF92A9
:1019B000FF920F931F93CF93DF93E090EE03F0908D
:1019C000EF03C090F003D090150106E1C4E0D0E031
:1019D00099E0B92E8BE0602F0E945504CE0184500F
:1019E000182F23C0E0910C01F0E0319680910D0199
:1019F0008B9DC0011124E80FF91F83E0EE0FFF1F3C
:101A00008A95E1F7EA1BFB0BEC56FA4F849180585C
:101A1000E091EE03F091EF03E081E81719F0AB508D
:101A2000BC4FEC930E9477041F5FA12FB0E0AC176E
:101A3000BD07C4F20F5F2496083161F6F092EF0300
:101A4000E092EE03C092F003D0921501DF91CF91A6
:101A50001F910F91FF90EF90DF90CF90BF9008956E
:101A600080910E0190910F018130910511F0039743
:101A700069F480910001882321F081508093000156
:101A800008958FEF809300010E94D40C08950F9366
:101A90001F93082F80910B01081719F40E94300D35
:101AA000C0C08091000118168CF080910E019091B9
:101AB0000F018130910511F0039741F40E94990CB8
:101AC000002321F410920F0110920E0188E0809300
:101AD000000120910E0130910F0121303105C9F034
:101AE0002130310548F02230310509F451C023304E
:101AF000310509F094C05CC080910B01801708F09B
:101B00008EC0802F0E94D60B80930C0181E090E064
:101B10007DC080910B0110910C01801710F5012EF2
:101B200002C0220F331F0A94E2F7802F821B0E940B
:101B3000D60BE12FF0E0319620910D0149E0249F72
:101B400090011124E20FF31F33E0EE0FFF1F3A95CF
:101B5000E1F7E80FF91FE357FA4FE491E0930A0128
:101B600051C090910D01133029F481E0891B8093BD
:101B70000D0151C0E8E49E9FF0011124E10FF11D19
:101B8000E357FA4FE491E0930A0110920D0143C02C
:101B9000002309F440C080910B01081708F03FC0F2
:101BA000802F0E94D60B80930C0183E090E02EC022
:101BB00080910B01801778F510910C0181E090E085
:101BC000012E02C0880F991F0A94E2F7202F281BCC
:101BD000822F0E94D60BE12FF0E0319620910D016B
:101BE00049E0249F90011124E20FF31F23E0EE0F40
:101BF000FF1F2A95E1F7E80FF91FE357FA4F849189
:101C000080930A0110920D0182E090E090930F0101
:101C100080930E0104C010920F0110920E010093E8
:101C20000B011F910F9108950E940E0C982F809127
:101C30001101882351F480911001981721F4892F04
:101C40000E94470D089590931001089599E169024B
:101C5000B0011124992787FD9095680F791F6A5E5E
:101C60007E4FCB0108950F931F93CF93DF93EC0129
:101C7000062F60C00A3001F10B3040F4083049F102
:101C8000093008F5073009F04EC045C00D3049F164
:101C90000E3020F40B3009F046C006C0033C19F1A9
:101CA0000D3C09F040C032C089818150898387FF93
:101CB00044C083E1898341C089818F5F89838431F6
:101CC000E4F119823AC088818F5F88838931ACF151
:101CD00008C088818150888387FF2FC088E188836E
:101CE000E3CF1882E9CF1A81812F6B810E94260EE3
:101CF000FC0100811F5F1A831931E4F01A828B8185
:101D00008F5F8B838431B4F01B8214C088818A83F7
:101D100089818B8312C0888169810E94260EFC0113
:101D200080E28083D6CF888169810E94260EFC01E3
:101D30000083C9CF002309F09DCFDF91CF911F9180
:101D40000F910895EF92FF920F931F93CF93DF931C
:101D50007C018FEF9FEF66E171E00E949E10EC0125
:101D6000C70166E171E00E9451118C018C179D073B
:101D700011F40E94240581E065E10E945504C70129
:101D80000E94D70480E40E947704C8010E94D7040F
:101D900081E20E947704CE010E94D704CE01DF9138
:101DA000CF911F910F91FF90EF90089546E151E080
:101DB0000E942C110895AF92BF92CF92DF92EF92C2
:101DC000FF920F93DF93CF9300D0CDB7DEB77C01A6
:101DD0006B015A0180E065E10E94260E9A83898397
:101DE0008FE3E981FA8180830E94400C082FE9810A
:101DF000FA818083873509F44EC0883550F48534E4
:101E000009F44FC0843509F452C0873009F088C006
:101E100024C08A3509F448C0893621F0883509F094
:101E20007FC03DC080E0F50161810E94260E7C01EB
:101E300088E162E10E94260EFC0103C08081818F4F
:101E40003197EE15FF05D0F7C701499620E201C092
:101E50002193E817F907E0F367C080E0F50161819D
:101E60000E94260E7C0180E063E10E94260E9C0108
:101E700004C0F701818D81937F01E216F306C8F358
:101E8000C901499620E203C0F70121937F01E816BA
:101E9000F906D0F349C0C701B6010E94D60E0BE186
:101EA00043C00E946D11FBCF0E9424053DC00E94DB
:101EB000FD060E942405EE24FF2417C080E065E1A2
:101EC0000E94550486E191E00E942E108E0D9F1D08
:101ED0000E94D704C701409666E171E00E94810626
:101EE0000E94400C0894E11CF11C0E94751096950C
:101EF0008795E816F90610F31092F4031092F30395
:101F000013C0F501808161810E94260EFC01808151
:101F1000880F880F880F802B80830E94400C082F29
:101F20000053083070F300E0802F0F900F90CF9196
:101F3000DF910F91FF90EF90DF90CF90BF90AF9027
:101F400008952F923F924F925F926F927F928F925D
:101F50009F92AF92BF92CF92DF92EF92FF920F9338
:101F60001F93DF93CF9300D000D0CDB7DEB74C01E5
:101F700019821A828FEF8B830E942405C4010E946C
:101F8000A20E2C0133E8632E1E010894211C311C83
:101F9000E0901301F090140189816A810E94260E5D
:101FA0005C018B816C810E94260E6C01F5017080B2
:101FB000FC0100811FC080911301909114019701D1
:101FC000281B390B37FF16C0F5019081905890837C
:101FD0008B818F3F39F097FF03C0F601608202C00A
:101FE000F6010083E0901301F090140122E330E049
:101FF000E20EF31E0E94390C182F8823E1F2F5013E
:102000007082F60100838B3A39F4C401B201A10158
:102010000E94DB0E182F04C0C101612F0E94330EF5
:102020001B3109F0B5CF80E064E10E9455040F90A8
:102030000F900F900F90CF91DF911F910F91FF9014
:10204000EF90DF90CF90BF90AF909F908F907F9058
:102050006F905F904F903F902F9008950F931F9334
:102060008C010E94FD0680E090E0B8010E9481068C
:10207000F801808191818F5F9F4F19F020E030E05F
:1020800002C020E130E0C9011F910F9108950E9424
:10209000CD0620E28431920769F020E38331920774
:1020A00049F08351904219F420E031E005C020E06E
:1020B00030E002C020E130E0C90108950E94CD0661
:1020C00020E28431920769F020E38331920749F0DE
:1020D0008351904219F420E031E005C020E030E067
:1020E00002C020E830E0C90108950F931F93CF93F9
:1020F000DF930E94CD0620E28431920769F020E34D
:102100008331920719F08351904219F4C0E0D0E472
:1021100005C0C0E0D0E002C0C0E0D0E80E945E1080
:102120008C010E9447109E01201B310B281B390B8C
:10213000C901DF91CF911F910F9108956F927F9206
:102140008F929F92BF92CF92DF92EF92FF920F9366
:102150001F93CF93DF933C016B010E94FD060E9409
:102160005E10EC01C6010E942E104C01EE24EA9490
:10217000FE2CBB2423C0C801880D991DB6010E9406
:10218000810680E0E82FF0E0EE0FFF1FEC0DFD1D53
:102190000190F081E02DE615F70509F47E01EF5F6F
:1021A000FF4F39F48FEFE8168FEFF80691F0E70153
:1021B00010C022968F5F803829F7B3940B2D10E062
:1021C0000E9475109695879508171907A0F2CEEF13
:1021D000DFEFCE01DF91CF911F910F91FF90EF9034
:1021E000DF90CF90BF909F908F907F906F900895D9
:1021F000CF92DF92EF92FF920F931F93CF93DF93D3
:102200006C018B01CB010E942E107C018FEF9FEFA0
:10221000B8010E949E10EC018FEFCE3FD80791F0DD
:102220000E945E10C81BD90BFE01EE7FF070E00F1C
:10223000F11FD182C0828D2F99278E0D9F1DB8016D
:102240000E94A506CE01DF91CF911F910F91FF90C3
:10225000EF90DF90CF900895CF92DF92EF92FF92B0
:102260000F931F936C017B018A010E94FD06C70139
:10227000B8010E94A506B80160507F4FC7010196C2
:102280000E94A506C601B8010E94F8101092F4033E
:102290001092F3031F910F91FF90EF90DF90CF907A
:1022A0000895EF92FF920F931F938B010E949E104F
:1022B0007C01B8010E94810600501F4FC7010196A2
:1022C000B8010E9481061092F4031092F303C70133
:1022D0001F910F91FF90EF900895EF92FF920F934F
:1022E0001F93CF93DF930E94CD067C010E9447107D
:1022F000C0E0D0E08C010150104020C083E1E8161E
:1023000080E2F80681F4209771F0C031D10559F0D0
:10231000C032D10541F0C034D10529F0CE0180236F
:102320009123892B51F480E065E10E945504CE0190
:102330000E94D704CE010E94690660960E94751023
:10234000C817D907D8F2DF91CF911F910F91FF9055
:10235000EF90089578944F935F93409101014A95CF
:102360004093010171F050E240FD51E257BD5091A0
:102370000201089457955093020142E828F442EC78
:1023800003C040E045BD42E044BD5F914F911895C8
:102390004F936F9345B54423E9F7609302016BE0D7
:1023A0006093010140E247BD42E844BD40E046BDC4
:1023B00043E045BD6F914F910895682FE9CF4F934A
:1023C0005F935E9A569A442745BD40916E004260E5
:1023D00040936E0078945F914F9108950F921F92F1
:1023E000EF93FF930F9300E0E8E0AF93BF93CF9399
:1023F000DF930093C600E093C100D0910601D7702F
:102400001F9318E1A0910401B091050108E0ED913E
:10241000CE2FEF770E9F0D0EE83030F0ECEDF0E0B0
:10242000E00DF11DE49106C0EEE6F3E0E00DF11DD4
:10243000E08100C0C7FDE095E093C600000000C049
:1024400000C000C011501AF7D73024F0A093040147
:10245000B0930501D0910601DF5FD093060100C063
:10246000A0E0A093C1001F91DF91CF91BF91AF91E8
:102470000F91FF91EF911F900F9008950000BF936F
:10248000AF931F93A0910401B09105011D9110938A
:10249000C600A0930401B0930501115000F41F91F0
:1024A000AF91BF911895CF93DF93CDB7DEB7EF9380
:1024B000FF932F933F934F935F936F937F938F93EC
:1024C0009F93AF93BF93FB81EC81EE0FFF1F25918C
:1024D0003591F695E795EC83FB83F901F695E79541
:1024E0000995BF91AF919F918F917F916F915F916E
:1024F0004F913F912F91FF91EF91DF91CF910895EF
:10250000629FD001739FF001829FE00DF11D649FD7
:10251000E00DF11D929FF00D839FF00D749FF00D63
:10252000659FF00D9927729FB00DE11DF91F639F04
:10253000B00DE11DF91FBD01CF0111240895A1E2E5
:102540001A2EAA1BBB1BFD010DC0AA1FBB1FEE1F2D
:10255000FF1FA217B307E407F50720F0A21BB30B78
:10256000E40BF50B661F771F881F991F1A9469F7F4
:1025700060957095809590959B01AC01BD01CF0150
:062580000895F894FFCF5E
:10258600ED49836C697400000240018765786563D4
:1025960075746502400B4002866272616E63680B59
:1025A6004018400587306272616E636818402440A7
:1025B6000486286C6F6F7029244031400687282BCB
:1025C6006C6F6F702931403D40078428646F293D48
:1025D600404A400881694A40544021856C656176CD
:1025E6006554405B400F83616E645B4066400C82BD
:1025F6006F7266406F400D83786F726F4077400E42
:10260600823E3E7740804032823C3C804088403368
:10261600823B73884090402E8628646F65732990AC
:102626004098401082723E9840A44011823E72A4A7
:1026360040AC40138172AC40B4401282303DB4408D
:10264600BB401482303CBB40C34015812BC340CBFA
:10265600401682642BCB40D24017856D696E757328
:10266600D240DA401886646D696E7573DA40E540CB
:1026760019846F766572E540F1401A8464726F7052
:10268600F140FB40038473776170FB4005411B8377
:1026960064757005410F411C81400F4118411D8230
:1026A600634018411F411E81211F4127412082633B
:1026B6002127412E411F82752A2E413641098275F6
:1026C6002F36413E410B84656D69743E4146412873
:1026D600836B6579464150412C85696E6B657950EF
:1026E6004159412B84706C6F74594164413782693A
:1026F6002764416E4122836963406E41764124839B
:1027060069632176417F41258269407F4188412660
:102716008269218841904127847672616D90419843
:10272600412F85636C6F636B9841A241308261745F
:10273600A241AD412D83636C73AD41B54131842E09
:10274600686578B541BE412A8465646974BE41C82E
:102756004134846C697374C841D2413585747261A1
:102766006365D241DC4139026372DC41E741010015
:102776000D282E05636F756E74E741F3411C1144F5
:102786001B1E2E0474797065F3410342AF44041F87
:10279600421A161B08211E00280615420520420370
:1027A6002E057370616365034221422E43282E066F
:1027B60073706163657321422F420543544AAF44E7
:1027C600044B420543082B420646422E04282E227D
:1027D600292F424C4212FD411C11441116130C4282
:1027E6002E422E224C426142010022B6431D048134
:1027F6004221465542B44729441E114437440589AF
:1028060042B4472944FD410C422E05636D6F76653F
:1028160061428A420543081A21161E1A21161F060E
:10282600974203032E0466696C6C8A42A5421B1309
:102836001A1F1C1144110F435F4494422E05657202
:10284600617365A542BD420543AE422E06626C61C8
:102856006E6B73BD42CC422E43AE422E037661723E
:10286600CC42DC42644642448246102E05636F6EBB
:102876007374DC42EC42644642448246101D2E01CB
:1028860030EC42FF42FC4200000131FF420943FCAA
:10289600420001013209431343FC42000201331393
:1028A600431D43FC42000302626C1D432743FC4266
:1028B60000202080001F000180800C800C80684D65
:1028C6000374696227434043FC42008005776964CC
:1028D600746840434C43FC420280077761726E691C
:1028E6006E674C435A43FC4204800264705A436A42
:1028F60043FC42068007636F6E746578746A43759D
:1029060043FC4208800763757272656E7475438571
:1029160043FC420A8002696E85439543FC4212805D
:10292600036F75749543A043FC421480057374616C
:102936007465A043AC43FC4216800462617365ACC7
:1029460043BA43FC4218800364706CBA43C743FC25
:10295600421A8003666C64C743D343FC421C80035F
:10296600686C64D343DF43FC421E80022B21DF43A5
:10297600EB431B1A1D161B202E06746F67676C65CA
:10298600EB43F9431A1E0E1B1F2E02312BF9430A85
:10299600440F43162E02322B0A4415441943162EB1
:1029A60004686572651544204471431D2E05616CEB
:1029B6006C6F7420442D447143F2432E012C2D4438
:1029C6003C44294420194337442E02632C3C444A94
:1029D6004429441F0F4337442E012D4A44594418B5
:1029E600162E013D594462445F44142E013C624454
:1029F6006C445F4415002E00013E6C4478441B7203
:102A0600442E03726F7478448244131B111B2E04E8
:102A16003264757082448F441A1A2E036E69708F61
:102A2600449B441B032E043F6475709B44A6441CC0
:102A360004B4441C2E02753CA644B54498440E15B5
:102A460004C7441B03152E5F44152E066C6174657E
:102A56007374B544CB4491431D1D2E077066613EC9
:102A6600636661CB44DB441C00451E0100800C04F8
:102A7600F3441E2E077066613E6E6661DB44F444C5
:102A860019435F441D2E076E66613E6C6661F44411
:102A960006451C1E01001F0C1611442E076E6661AA
:102AA6003E70666106451C451245010004162E035C
:102AB60069642E1C452F451C11441B1E01001F0C6A
:102AC6000C422B422E076D6573736167652F454572
:102AD60045554206457272202320D14C2E0565725B
:102AE600726F7245455D4566431D15047045BD49C7
:102AF6002944FD410C425542023F2051459B49065F
:102B06003F6572726F725D457F451B049045674550
:102B1600032E053F636F6D707F459245B6431D14C6
:102B26000100118A452E053F657865639245A645E5
:102B3600B6431D0100128A452E063F706169727305
:102B4600A645B9455F440100138A452E413AB94569
:102B5600CC45B04557483E462E413BCC45D945214C
:102B660046002E504632462E09696D6D65646961D0
:102B76007465D945E845D64401004004442E0278E0
:102B86002CE845FE451C01FF000C04124642440594
:102B9600144651442E07636F6D70696C65FE4515CA
:102BA600469C45111C1D05461C44132E415B1546CB
:102BB6002C460543B643202E015D2C4638460100BF
:102BC60040B643202E06736D7564676538464546E4
:102BD600D64401002004442E073C6275696C647378
:102BE6004546584657485046054342442E45646F6D
:102BF60065733E58466D46018246424401001051B7
:102C0600442E11D6442845202E41286D468946017A
:102C16000029B4472E036865788946954601001059
:102C2600C343202E07646563696D616C9546A446AF
:102C360001000AC343202E056469676974A446B778
:102C460046130100305F440100091A724404DC4651
:102C56000100075F441C01000A72440D1C11BC44AC
:102C66002E08286E756D62657229B746E1461144D5
:102C76001C131EC3431DC146041A471BC3431D092B
:102C8600038A44C3431D0917CF431D114404164745
:102C96000F43CF43F2431105EE4603112E066E7520
:102CA6006D626572E1461D47054305438A441C1162
:102CB600441E01002D68441C135F4401FFFFCF43EF
:102CC60020EE461C1E2E435F44045C471C1E01007A
:102CD6003A5F4405438A450543053E4703110462AE
:102CE60047192E07656E636C6F73651D476347133F
:102CF6001C1C1C1E2E436844048047114405724761
:102D060098441B5F448A448A441C1E049B471C1E2D
:102D1600125F4404A24711440589471B5F441C11F6
:102D2600032E11031B5F441C11442E04776F72643B
:102D36006347AB4748431D9C431D161B6F472944F9
:102D4600010022D7429C43F2431A5F4413122944DE
:102D56001F16294411441194422E8A448A441A1E8D
:102D66001A1E5F4404EA4703032E8A440F435F4456
:102D76001C0401488A440F43168A440F431605DE95
:102D860047A344A3442E052D66696E64AB470648E7
:102D96002E43B4472944D6441A1E1A1E01002F0C8E
:102DA60068440437481A11441A1C11441B1E0100BA
:102DB6001F0CDA4704414812451D1C044B480518F0
:102DC60048A3441C28451B1E01FFFF2E066372659F
:102DD60061746506484C481048046A480300453744
:102DE6004501000451452B4229441C1C1E56431D17
:102DF600424A1C114437440100200D1A1FD6444292
:102E060044424491431D202E495B636F6D70696C8B
:102E1600655D4C48884810481405438A4503E744D5
:102E260005462E476C69746572616C8848A348B67E
:102E3600431D04BB482146000142442E48646C6988
:102E4600746572616CA348BC48B6431D04D4481B24
:102E5600AF48AF482E06657870656374BC48D548A0
:102E66001A16131C05431A1F2C1C0100076844047C
:102E76000549031A1A72440402490F435F440100CC
:102E8600072805E4481A1272441A01000D68441412
:102E96000C041C491C281A1F1144054301000D6827
:102EA6004404E448110303032B422E40D5482B4922
:102EB60001208048432011032E09696E74657270E3
:102EC6007265742B493949104804654901007F0C25
:102ED600B6431D7244045F49E7440546054749E782
:102EE60044020547492847CF431D1144047449C984
:102EF6004805474903AF4805474905717565727925
:102F060039497A4948431D010050E04805439C432E
:102F1600202E04717569747A4992493246EE4184CD
:102F2600494749B6431D1404B049554203204F4B47
:102F3600059D490561626F72749249B349B046EEC8
:102F46004155421E4649476E6974696F6E200D7F72
:102F56006E696368656D616368696E65732032309A
:102F660031319B4904636F6C64B349E449013243D0
:102F760001008001000E9442BD4904732D3E64E4B5
:102F860049FA491C152E022B2DFA49064A15041238
:102F96004A182E03642B2D064A134A1504204A1993
:102FA6002E03616273134A214A1C0D4A2E04646182
:102FB6006273214A2D4A1C1B4A2E036D696E2D4AE7
:102FC6003A4A1A1A7E44044A4A1B032E036D617854
:102FD6003A4A4C4A1A1A7244045C4A1B032E026D82
:102FE6002A4C4A5E4A1A1A0E13294A1B294A091103
:102FF6001B4A2E012A5E4A734A09032E052A2F6DA3
:103006006F64734A7C4A13654A11A04A2E022A2F1E
:103016007C4A8D4A864A1B032E026D2F8D4A994A99
:103026001A1313364A12294A0B11120E0D4A1B1196
:103036000D4A1B2E042F6D6F64994AB44A13034A36
:1030460011A04A2E012FB44AC44ABD4A1B032E03BF
:103056006D6F64C44ACF4ABD4A032E056D2F6D6F4E
:1030660064CF4ADB4A130543120B111B130B112EB7
:103076004127DB4AF04A10481405438A4503AF4806
:103086002E046261636BF04A014B42442E45626531
:1030960067696E014B0D4B9C4529440F432E4565D0
:1030A6006E6469660D4B1E4B9C451943C445294405
:1030B6001B202E447468656E1E4B334B284B2E42E4
:1030C600646F334B3F4B21460008294423432E446B
:1030D6006C6F6F703F4B4F4B2343C4452146000630
:1030E6000A4B2E452B6C6F6F704F4B634B2343C4BB
:1030F60045214600070A4B2E45756E74696C634B75
:10310600784B0F43C445214600040A4B2E43656E97
:1031160064784B8D4B824B2E45616761696E8D4B92
:10312600984B0F43C445214600050A4B2E4672654F
:1031360070656174984BAD4B1313A24B1111194373
:103146005F44284B2E426966AD4BC54B21460004B1
:1031560029440543424419432E44656C7365C54BA7
:10316600D94B1943C4452146000529440543424429
:103176001B1943284B19432E457768696C65D94B53
:10318600F84BCC4B1C442E04686F6C64F84B074C10
:1031960001FFFFE743F243E7431D1F2E03706164FF
:1031A600074C1C4C2944010044162E023C231C4C9F
:1031B6002B4C244CE743202E02233E2B4C384C0349
:1031C60003E7431D244C1A5F442E047369676E3867
:1031D6004C4A4C8A4415045E4C01002D104C2E01BD
:1031E600234A4C5F4CC3431DE54A8A440100091A31
:1031F600724404794C0100071601003016104C2E5B
:103206000223735F4C804C654C1A1A0D1404874CCC
:103216002E03642E72804C914C131B1A364A324C84
:10322600874C534C3F4C111A5F443A420C422E02D3
:10323600642E914CAF4C0543994C2B422E022E72B4
:10324600AF4CBD4C13034A11994C2E012EBD4CCBED
:103256004C034AB64C2E013FCB4CD64C1DD14C2EBE
:10326600046C6F6164D64CE04C019E004843200517
:10327600439C4320350543019FF41F2E046D6F7256
:1032860065E04CFC4C01EE031C010008321B0100FA
:1032960008330D262F01023F167E44042A4D55425F
:1032A600066D6F72653E3E2C03312E05766C697392
:1032B60074FC4C2B4D31D644054D1C374512451D2B
:1032C600AF441404384D2E06666F726765742B4D35
:1032D600474D104804654D0300451C12451D91439A
:1032E6001D2005674D03032E0370656E474D684D1F
:0632F60001003E252E0040
:0832FC000800000000000000C2
:00000001FF
