:100000000C94D4020C94E6020C94E6020C94A51213
:100010000C94E6020C94E6020C94E6020C94E602C0
:100020000C94E6020C94E6020C94E6020C94831005
:100030000C94E6020C94E6020C94690C0C94E60213
:100040000C94E6020C94E6020C94E6020C94E60290
:100050000C94E6020C94E6020C94E6020C94E60280
:100060000C94E6020C94E602080B0907000A200D26
:10007000080B097F000A1B0AD2313233D234352DE6
:100080002EDE2C213AAB3B2261627363646573669A
:100090006D6E6F7A7071727AC3363738C339302B10
:1000A0002ACD2F2428CD293D676873696A6B736C4C
:1000B0007475767A7778797A007C40230034352D10
:1000C0007F00253F7B007D274142534344455346F3
:1000D0004D4E4F5A5051525A0036373800393C3E37
:1000E0005E005C605B005D26474853494A4B534CB9
:1000F0005455565A5758595A10050520202020208B
:10010000202020202020052020202020202020200A
:10011000208484840607848484848484840684847C
:1001200084840784848484848484A020201595009A
:10013000A00115A0A0011595A020159500A00115FE
:10014000A0A001A020201595A020A0159520A01505
:1001500095A0201595A020A0159520A0A0202015E1
:100160009502A0A0159520A0159502A0159502A0B6
:1001700003159520A020202020202020A020202032
:10018000202020202020202020202020202020206F
:1001900020202020A00320202020202020202020FC
:1001A000202020202020203F7FFFFFFFFFFFFFFCBB
:1001B000FEFFFFFFFFFFFFFFFFFFFFFFFF7F3FFF90
:1001C000FFFFFFFFFFFEFC00FF00FF00FF00FFFF3F
:1001D000FFFFFFFFFFFF000F0F0F0F0F0F0F00F0CC
:1001E000F0F0F0F0F0F000FF80808080808080FFF1
:1001F00000000000000000FF010101010101018079
:1002000080808080808080010101010101010180E6
:10021000808080808080FF00000000000000FF01DF
:10022000010101010101FF3F7FFFFFFFFFFF000F01
:100230000F0F0F00000000F0F0F0F000000000FFD2
:10024000FFFFFF00000000000000000F0F0F0F0F66
:100250000F0F0F0F0F0F0FF0F0F0F00F0F0F0FFF3A
:10026000FFFFFF0F0F0F0F0000000055AA55AA5502
:10027000AA55AA0000000050505050505050505500
:10028000AA55AA55AA55AA0000183C3C1800003CE3
:100290007EFFFFFFFF7E3C3E419CAC9F403F000045
:1002A000008E9526C8F0000000000000000000004D
:1002B00010101010001000002424000000000000A6
:1002C000247E24247E240000081E281C0A3C0800EA
:1002D00062640810264600001028102A443A0000E4
:1002E00008100000000000000408080808040000CE
:1002F00020101010102000000014083E0814000008
:100300000008083E0808000000000000080810006F
:100310000000003E0000000000000000181800006F
:1003200000020408102000003C464A52623C0000D3
:1003300018280808083E00003C42023C407E0000AD
:100340003C420C02423C0000081828487E0800008D
:100350007E407C02423C00003C407C42423C00002B
:100360007E020408101000003C423C42423C000067
:100370003C42423E023C0000000010000010000021
:1003800000100000101020000004081008040000F5
:1003900000003E003E0000000010080408100000AD
:1003A0003C420408000800003C4A565E403C000005
:1003B0003C42427E424200007C427C42427C000041
:1003C0003C424040423C00007844424244780000B5
:1003D0007E407C40407E00007E407C4040400000EB
:1003E0003C42404E423C000042427E4242420000BB
:1003F0003E080808083E000002020242423C00009B
:10040000444870484442000040404040407E000064
:1004100042665A42424200004262524A464200004C
:100420003C424242423C00007C42427C4040000050
:100430003C4242524A3C00007C42427C4442000022
:100440003C403C02423C0000FE1010101010000026
:1004500042424242423C00004242424224180000D2
:1004600041412A2A14140000422418182442000092
:1004700082442810101000007E040810207E000026
:100480000E080808080E00000040201008040000B4
:1004900070101010107000001028440000000000C0
:1004A000000000000000FF001C227820207E0000D9
:1004B0000038043C443C000020203C22223C000048
:1004C000001C2020201C000004043C44443C00008C
:1004D00000384478403C00000C1018101010000048
:1004E000003C44443C04380040407844444400000C
:1004F0001000301010380000040004040424180018
:10050000202830302824000010101010100C00009B
:10051000006854545454000000784444444400009B
:100520000038444444380000007844447840400097
:10053000003C44443C040600001C20202020000015
:10054000003840380478000010381010100C0000FB
:10055000004444444438000000444428281000006B
:10056000004454545428000000442810284400003B
:10057000004444443C043800007C0810207C000403
:1005800008083008080400000808080808080020C7
:1005900010100C1010200000142800000000003C77
:1005A0004299A1A199423C0011241FBECFEFD4E093
:1005B000DEBFCDBF13E0A6E0B1E001C01D92A83FB1
:1005C000B107E1F70E94B3030C9401130C940000EF
:1005D0002A9886E00E94230C2A9A08950F931F936D
:1005E000CF93DF938C01EB012A9883E00E94230CC8
:1005F000812F0E94230C802F0E94230C80E00E94F8
:10060000230C00E010E00E94280C89930F5F1F4F1D
:1006100081E000301807B9F72A9ADF91CF911F9136
:100620000F9108950F931F932A988FE90E94230C2E
:100630000E94280C90E08F37910519F40E94280C35
:1006400090E0C79719F02FEF3FEF0AC00E94280CE7
:10065000182F00E00E94280C282F30E0202B312B8F
:100660002A9AC9011F910F9108952A9885E00E9446
:10067000230C0E94280C2A9A08950E94350380FDBD
:10068000FCCF08950F931F93CF93DF938C01EB0161
:100690000E94E8022A9882E00E94230C812F0E9487
:1006A000230C802F0E94230C80E00E94230C00E08A
:1006B00010E089910E94230C0F5F1F4F81E00030F2
:1006C0001807B9F72A9A0E943D03DF91CF911F9135
:1006D0000F9108950F931F93CF93DF938C010E9486
:1006E000120380708050904219F4C8EDD0E002C02F
:1006F000C0E2D0E00E94E8022A988C2F0E94230CCE
:10070000812F0E94230C802F0E94230C80E00E94E6
:10071000230C2A9A0E943D03DF91CF911F910F91E4
:10072000089583B7816083BF1092C10080E187B9CB
:100730003D98459A8AB18E7B8AB98BB181648BB919
:100740001EBA0E94A6110E94BD060E94150C0E94AE
:10075000040C1EBA10926B00109268000E944810A0
:100760000E942E0C08950E9491030E94C90A8FEFE7
:100770008DBF0C94C70D08950CC08091F503909126
:10078000F60324E0959587952A95E1F781700E94FC
:10079000C00B0E94FD06882381F30895299A8CB529
:1007A0008F7B8CBD20918400309185002F5F3F4F5F
:1007B0008DB58EB58091840090918500A901481B6C
:1007C000590B57FFF5CF8CB580648CBD0895FB01A4
:1007D0004115510501F19C013F7784E00DB407FC00
:1007E00002C08150D9F78EB5299A0000299882E07D
:1007F0008EBD0DB407FEFDCF3EBD0DB407FEFDCF8F
:100800002EBD0DB407FEFDCF80818EBD41505040FE
:1008100011F03196F6CF089599E16902B0011124E3
:10082000992787FD9095680F791F615F7E4FCB01F7
:1008300008950F931F93CF93DF93EC01062F60C0B1
:100840000A3001F10B3040F4083049F1093008F565
:10085000073009F04EC045C00D3049F10E3020F48C
:100860000B3009F046C006C0033C19F10D3C09F0FD
:1008700040C032C089818150898387FF44C083E1B1
:10088000898341C089818F5F89838431E4F1198232
:100890003AC088818F5F88838931ACF108C0888134
:1008A0008150888387FF2FC088E18883E3CF188237
:1008B000E9CF1A81812F6B810E940C04FC01008119
:1008C0001F5F1A831931E4F01A828B818F5F8B834B
:1008D0008431B4F01B8214C088818A8389818B8320
:1008E00012C0888169810E940C04FC0180E280832F
:1008F000D6CF888169810E940C04FC010083C9CF96
:10090000002309F09DCFDF91CF911F910F910895A2
:10091000AF92BF92CF92DF92EF92FF920F93DF934D
:10092000CF9300D0CDB7DEB77C016B015A0180E0D8
:1009300065E10E940C049A8389838FE3E981FA813F
:1009400080830E940D07082FE981FA818083873513
:1009500009F450C0883550F4853409F453C0843507
:1009600009F456C0873009F065C024C08A3509F4FF
:100970004CC0893621F0883509F05CC041C080E068
:10098000F50161810E940C047C0188E162E10E9412
:100990000C04FC0103C08081818F3197EE15FF05A7
:1009A000D0F7C701499620E201C02193E817F90763
:1009B000E0F344C080E0F50161810E940C047C01F9
:1009C00080E063E10E940C049C0104C0F701818D6A
:1009D00081937F01E216F306C8F3C901499620E22C
:1009E00005C00894E11CF11CF7012083E816F90604
:1009F000C0F324C0C701B6014FE051E00E94BB091B
:100A00000BE11CC00E94F909FBCF0E94C90A16C065
:100A10000E941D0813C0F501808161810E940C04B1
:100A2000FC018081880F880F880F802B80830E94B3
:100A30000D07082F0053083070F300E0802F0F904F
:100A40000F90CF91DF910F91FF90EF90DF90CF90BB
:100A5000BF90AF90089597FD02C080E008958FE0A9
:100A600091E060E070E040E052E00E94F11281E02D
:100A70000895EF92FF920F931F93CF93DF938C0112
:100A80008FEF9FEF6FE071E00E949C087C01C8012E
:100A90000E942B05882319F0CEEFDFEF06C0C801B6
:100AA0006FE071E00E94BB08EC01CE15DF0511F488
:100AB0000E94C90A81E065E10E94430AC8010E94C0
:100AC0008A0B80E40E94200DCE010E948A0B81E2F5
:100AD0000E94200DC7010E948A0BC701DF91CF91B0
:100AE0001F910F91FF90EF9008952F923F924F9298
:100AF0005F926F927F928F929F92AF92BF92CF92AE
:100B0000DF92EF92FF920F931F93DF93CF9300D06A
:100B100000D0CDB7DEB74C0119821A828FEF8B83DC
:100B20000E94C90AC4010E9439052C0197FE04C025
:100B3000909481949108939483E9682E1E010894FF
:100B4000211C311CE090F503F090F60389816A8145
:100B50000E940C045C018B816C810E940C046C016E
:100B6000F5017080FC0100818091F5039091F603FE
:100B70009701281B390B12161306B4F0F50190816A
:100B8000905890838B818F3F39F097FF03C0F60117
:100B9000608202C0F6010083E090F503F090F60356
:100BA00022E330E0E20EF31E0E94FD06182F882398
:100BB000D9F2F5017082F60100838B3A39F4C40151
:100BC000B201A1010E948804182F04C0C101612F45
:100BD0000E9419041B3109F0B5CF80E064E10E9446
:100BE000430A0F900F900F900F90CF91DF911F91BC
:100BF0000F91FF90EF90DF90CF90BF90AF909F90BC
:100C00008F907F906F905F904F903F902F900895BE
:100C1000482F282F30E082FF02C082E004C0C901C3
:100C200096958795817023FD83E024FD84E025FD62
:100C300085E026FD86E047FD87E008951F93CF936A
:100C4000DF93282FC0910A01D0910B011091070169
:100C50008091F2032817F1F4CE018370907002970F
:100C600020F08091090187FF07C0219709F081C01A
:100C700080910901863024F081508093090179C068
:100C800086E08093090185E090E090930B018093CA
:100C90000A016FC02093F203C130D10559F0C13071
:100CA000D10558F0C230D10579F0C330D10509F033
:100CB00059C02BC0222309F453C0822F0E9408067A
:100CC0008093070122964EC0222309F580910901E5
:100CD00087FD46C0E0910801143029F481E08E1BA5
:100CE000809308013DC0F0E063E0EE0FFF1F6A95BE
:100CF000E1F7E10FF11DE859FF4FE491E0930601A0
:100D000010920801C4E0D0E02DC0222349F181E017
:100D100090E0012E02C0880F991F0A94E2F7281B69
:100D2000822F0E940806E0910801F0E053E0EE0FE8
:100D3000FF1F5A95E1F7E10FF11D43E0EE0FFF1F92
:100D40004A95E1F7E80FF11DE858FF4F8491823D85
:100D500021F08093060110920801C5E0D0E002C0A6
:100D6000C0E0D0E080E180930901D0930B01C093F3
:100D70000A01DF91CF911F91089587B1807F87B9D4
:100D800088B18F6088B957985F9A2098289A0895FB
:100D900020910D01222351F486B180958F708093AC
:100DA0000E012098289A579A5F980EC096B1909598
:100DB0009F7080910E018295807F892B80930E0118
:100DC00057985F9A209A28982F5F217020930D01E1
:100DD00080910E0108950E94C806982F80910D0100
:100DE000882351F480910C01981721F4892F0E94D7
:100DF0001E06089590930C01089520910A013091E8
:100E00000B0122FD02C080E00895809106012B7F36
:100E100030930B0120930A010895CF93DF938091C3
:100E2000E903C091E703D091E803C80FD11D888181
:100E3000805888830E94FD06982F8823D9F38881E3
:100E400080588883892FDF91CF9108950E941203E3
:100E500020E28331920749F020E28331920740F08B
:100E600083519043029720F406C020E031E005C092
:100E700020E030E002C020E130E0C90108950E9486
:100E8000120320E28331920749F020E28331920776
:100E900040F083519043029720F406C020E031E0F7
:100EA00005C020E030E002C020E830E0C90108952C
:100EB000CF93DF930E94120320E38331920739F02E
:100EC00020E38431920749F08351904219F4C0E045
:100ED000D8E005C0C0E0D0E002C0C0E0D0E10E9490
:100EE0003F079E01281B390BC901DF91CF9108955F
:100EF0000F931F93CF93DF93EC010E9458078C014F
:100F00000E942607081B190B16950795C017D107D5
:100F100010F420E00BC00E94260720E00197969570
:100F200087958C239D23892B09F421E0822FDF9163
:100F3000CF911F910F910895CF92DF92EF92FF9280
:100F40000F931F936C017B010E9458078C0116952B
:100F5000079501501040C801880F892F881F990BF1
:100F600091958E0D9F1DB6010E94EE020F771070B5
:100F7000000F111F0C0D1D1DF801808191811F9123
:100F80000F91FF90EF90DF90CF900895CF93DF9374
:100F9000EC010E94CE03CE0160E070E00E949C074D
:100FA0008F5F9F4FE1F40E945807FC01F695E7958B
:100FB0003297EF77F070EE0FFF1FEC0FFD1F80816F
:100FC00091818F5F9F4F41F0CE0160E170E00E9400
:100FD0009C078F5F9F4F19F020E130E002C020E0B6
:100FE00030E0C901DF91CF910895EF92FF921F93F6
:100FF000CF93DF93EC017B01CB010E94C607892BC5
:1010000021F080E090E4C827D927D6FD02C010E087
:1010100001C010E1DF73CC0FCD2FCC1FDD0BD195BC
:101020001C0F812F90E0B7010E94EE02812FDF910B
:10103000CF911F91FF90EF900895CF93DF930E947F
:10104000CE030E94C90AC0E0D0E015C080E065E18F
:101050000E94430A8FE091E00E94C6078C0F9D1FFB
:101060000E948A0BCE0140966FE071E00E94EE0272
:101070000E940D0721960E94580796958795C817DC
:10108000D90720F3DF91CF9108958F929F92AF926D
:10109000BF92CF92DF92EF92FF920F931F93CF9365
:1010A000DF935C016B010E9458074C019694879472
:1010B000E12C40E8F42EC0E0D0E0CE019F7388150B
:1010C000990520F0C070D07CC050D04C8E010F77B5
:1010D00010700115110521F4CE01B6010E94F5072B
:1010E000000F111F0C0D1D1DF801808191818A15C3
:1010F0009B0549F08F5F9F4F61F420E0E21620E8E6
:10110000F20651F417C08FEFA8168FEFB80691F0D2
:101110007E012196D7FFD1CFC701DF91CF911F91DB
:101120000F91FF90EF90DF90CF90BF90AF909F9086
:101130008F9008957E01F0CFCF92DF92EF92FF92D1
:101140000F931F938C017B010E94CE030E943F07E7
:101150006C01C801B7010E9445089C013F73220F32
:10116000331F2C0D3D1DC9011F910F91FF90EF9072
:10117000DF90CF9008950F931F93CF93DF93EC01EF
:101180008B0196FF04C00E94CE03DF7309C00E944A
:101190009C08EC01B80160507F4F01960E94EE025E
:1011A000CE01B8010E94EE02CE01DF91CF911F91D6
:1011B0000F910895EF92FF920F931F93CF93DF93B8
:1011C0007C018B018FEF9FEF0E944508EC010E948C
:1011D0005807969587958150904CC817D90748F0C5
:1011E000C8010E94C6070E946A0380E090E4C827F5
:1011F000D927CE01B8010E94F507CF77D070CC0F68
:10120000DD1FC00FD11FF982E88290E0B8010E9473
:101210004203DF91CF911F910F91FF90EF900895BE
:10122000CF93DF93EC01DF730E945807C817D907EB
:1012300020F00E945807C81BD90B0E943F079E014F
:10124000220F331F280F391FC901DF91CF91089555
:101250004F925F926F927F928F929F92AF92BF92C6
:10126000CF92DF92EF92FF920F931F93CF93DF9372
:101270008C016B010E94260796958795782E0E9417
:101280005807272D30E0FC01F695E795E21BF30B9C
:10129000C8019F738E179F0720F0E801CE1BDF0B5C
:1012A00007C0E901C00FD11F80E090E4C827D9270B
:1012B000672CCE010E9410092C01C8010E94100960
:1012C0005C01B60160507F4FCE010E94F507FE0120
:1012D000EF77F070E058FF4FEE0FFF1FEC0DFD1D94
:1012E00080809180C401B6010E944508C817D907C3
:1012F00031F50E943F078E011F73000F111F080F69
:10130000191FC801B6010E94EE0275010894E11C84
:10131000F11CC501B6010E944203C8010196B60145
:101320000E94EE0257010894A11CB11CC701B6012E
:101330000E944203C401B6010E94DA086A947A94BA
:1013400011F02196C4CFC2010E946A0380E01614F6
:101350000CF081E0DF91CF911F910F91FF90EF9002
:10136000DF90CF90BF90AF909F908F907F906F90C5
:101370005F904F900895CF92DF92EF92FF920F937C
:101380001F93CF93DF937C018B01EA010E94CE0370
:10139000C801BE010E944203C12C31E0D32ECC0E05
:1013A000DD1EC8010196B6010E944203C701BE01BD
:1013B0000E94DA08EE24E3948FEF9FEFBE010E94B3
:1013C00045088C01B6010E947807882349F0EE2079
:1013D00039F0C801BE010E942809E82E882361F770
:1013E000DF91CF911F910F91FF90EF90DF90CF9001
:1013F0000895CF92DF92EF92FF920F931F93CF93B6
:10140000DF930E9412036C010E942607C0E0D0E027
:101410007C010894E108F10820C083E1C81680E24D
:10142000D80681F4209771F0C031D10559F0C0324F
:10143000D10541F0C034D10529F0CE018E219F2184
:10144000892B51F480E065E10E94430ACE010E949D
:101450008A0BCE010E946A0360960E9458078C0195
:101460000E943F07080F191FC017D107B0F2DF9184
:10147000CF911F910F91FF90EF90DF90CF90089543
:101480000E94BC03089599E1699FB0011124615F36
:101490007E4F7093E8036093E7038093E903089518
:1014A000EFE0F1E0818D819383E0EE34F807D0F333
:1014B00002C0819301C080E293E0E736F907C8F3E8
:1014C0008091E7039091E80349979093E803809314
:1014D000E70308951F93CF93DF93EC0187309105C5
:1014E00051F08D30910529F489E18093E903C0E042
:1014F000D0E011E017C08091E903882321F08150EA
:101500008093E9030CC088E18093E9038091E703AD
:101510009091E80349979093E8038093E703C0E232
:10152000D0E010E08091E903893170F01092E90376
:101530008091E7039091E80349969093E8038093A4
:10154000E70302C00E94500A8091E7039091E803EC
:1015500023E087369207B0F78F50914030F48FE048
:1015600091E09093E8038093E703209771F08091D6
:10157000E903E091E703F091E803E80FF11DC08370
:101580008091E903180F1093E903DF91CF911F9128
:101590000895EFE0F1E080E2819393E0E736F90708
:1015A000D8F380E060E00E94430A0895282F823338
:1015B00008F04FC0603308F04CC0862F869599E143
:1015C000899FF0011124822F8695E80FF11DE15FBC
:1015D000FE4F60FD02C052E001C058E020FD56956C
:1015E0000AB401FC02C030E001C0352F0AB400FC8F
:1015F00002C040E001C0452F9081903A31F0892F20
:101600008877803111F020E006C0292F277827FF46
:1016100002C08FE82827852F80958323942F932B52
:101620009095982B9223309535233423932B452383
:1016300020954223942B93FF02C08FE89827292FEF
:10164000205F822F90E087709070892B09F4205FD3
:10165000208308950F931F93CF93DF938F3908F062
:101660004CC06F3908F049C090E0EC01C87FD070E1
:10167000C058DC46262F2770C20FD11D24E1687F99
:10168000629FC00DD11D11248770907040E850E01A
:1016900002C0559547958A95E2F7242F0AB401FCBC
:1016A00002C010E001C0142F0AB400FC02C000E028
:1016B00001C0022F84E00DB407FC02C08150D9F7AD
:1016C0008EB5299A00002998CE010E94C70B0DB44F
:1016D00007FEFDCF8EB5202F282B912F9095292323
:1016E000809518231023212B2093EA03CE016AEE64
:1016F00073E041E050E00E94E703DF91CF911F913A
:101700000F910895F09B03C00E942A0B08950E9438
:10171000D60A0895EF92FF920F931F93CF93DF9312
:10172000EC0180E30E94200D88E70E94200D10E06C
:1017300000E07E019F2D92959F70905D892F9133DF
:101740002CF4133019F0002341F001C001E09A336A
:1017500014F0892F895D0E94200D1F5F143031F035
:1017600084E0CC0FDD1F8A95E1F7E3CF80E20E9491
:10177000200DDF91CF911F910F91FF90EF90089571
:1017800098B1811180E19F7E892B88B90895282F17
:1017900083E08EBD0DB407FEFDCF9EBD0DB407FEE8
:1017A000FDCF2EBD0DB407FEFDCF1EBC0895FF92E8
:1017B0000F931F93182F092FF62E299882E00E946D
:1017C000230C802F0E94230C812F0E94230CFEBC2F
:1017D0001F910F91FF900895FF920F931F93182F61
:1017E000092FF62E299882E00E94230C802F0E9458
:1017F000230C812F0E94230C8F2D0E94230C299AE9
:101800001F910F91FF900895299881E00E94230C69
:1018100081E40E94230C299A0895299885E00E946A
:10182000230C0E94280C299A089584B1817C8E6231
:1018300084B985B1817C866085B98DB581608DBDA7
:1018400080E58CBD08958EBD0DB407FEFDCF0895D3
:101850001EBC0DB407FEFDCF8EB508950F931F93E8
:10186000CF93DF93C8EFD0E00E94C90A08E010E0F0
:1018700080E090E0B8010E94430A80E090E0FE0121
:10188000E80FF91F2491E091E703F091E803219319
:10189000F093E803E093E70301968931910579F726
:1018A00069960F5F1F4F81E0C73AD80709F720916B
:1018B000F5033091F6032C593F4F8091F503909139
:1018C000F60328173907C9F7DF91CF911F910F91C0
:1018D000089578948F939F93809100018A958093C7
:1018E000000171F090E280FD91E297BD90910101BD
:1018F000089497959093010182E828F482EC03C044
:1019000080E085BD82E084BD9F918F9118958F9373
:101910000F9385B58823E9F7009301010BE000934D
:10192000000180E287BD82E884BD80E086BD83E05F
:1019300085BD0F918F910895082FE9CF8F939F93C5
:101940005E9A569A882785BD80916E00826080934A
:101950006E0078949F918F910895CF93DF93CDB7C8
:10196000DEB7EF93FF932F933F934F935F936F9364
:101970007F938F939F93AF93BF930F921F921FB646
:101980001F921124FB81EC81EE0FFF1F25913591F1
:10199000F695E795EC83FB83F901F695E7950995B4
:1019A0001F901FBE1F900F90BF91AF919F918F917D
:1019B0007F916F915F914F913F912F91FF91EF91A7
:1019C000DF91CF9108950F931F93CF93DF93EC0195
:1019D0000E94CE03E881F0E099819095808189236F
:1019E00080830CC0EA81FB818191FB83EA830E94A2
:1019F000230C8C819D8101979D838C838C819D819B
:101A0000892B81F70EC01E810F810E94280CE12FC7
:101A1000F02F8193FF83EE838885998501979987BD
:101A2000888788859985892B71F7E881F0E0808126
:101A30009981892B8083DF91CF911F910F91089518
:101A400099270C946A0AD7FD04C0FE01859121965E
:101A500006C021968DB587FFFDCF8EB58EBD08954A
:101A600097FF1BC06F936DB567FFFDCF299A7F93DA
:101A70004F935F9329980E94C70B9F918F91BF91BD
:101A8000AF9101C06EBD6DB567FFFDCF6EB56D93B3
:101A90000197C1F7299A6EBD0895FC01DB01CA01C7
:101AA00045914D930197E1F708954115510571F165
:101AB000903168F1703190F1DF92CF92AF929F92A6
:101AC0008F927F926F926A013C014B01A6014830D0
:101AD000510508F048E0A42E50E0C3016AEE73E01F
:101AE000BFDFC4016AEE73E04A2D50E00E94E703B5
:101AF0006A0C711C8A0C911CCA18D10839F76F90B6
:101B00007F908F909F90AF90CF90DF90089570312D
:101B100030F0FC01CB01BF010C94E703A1CFFC0125
:101B2000DB01CA0181918D930197E1F70895611559
:101B3000710531F1903128F1DF92CF92BF92AF92CF
:101B40006C015B016830710508F068E070E0AAEE96
:101B5000B3E018D0C60148E050E0A416B50608F47A
:101B6000A501A41AB50AC40ED51E6AEE73E00E9440
:101B7000E703A114B10471F7AF90BF90CF90DF904D
:101B80000895DC01CB014D930197E9F708950E9478
:101B90003B10EC0180E090E029980E94C70B88EF91
:101BA00093E07C018DEF9FE03C01D7FF34C08DB501
:101BB00087FFFDCF299ACE0129980E94C70B13C039
:101BC000D7FF0BC0D82DCDB5C7FFFDCFCEB5299A15
:101BD000CE0129980E94C70B06C0FE01C491D82DE2
:101BE0001AC0D7FF18C021968DB587FFFDCF8EB5DF
:101BF0008EBD8E3320F4F301E80FF11D0994219678
:101C0000DF93CF93D82F87FDDECFCDB5C7FFFDCFB4
:101C1000CEB5299ACEBDFE01859121968E3320F452
:101C2000F301E80FF11D09942196DF93CF93D82F8C
:101C3000C591F1CFC801D7011E910E917D018E3360
:101C4000910570F3DF93CF93EC01AFCFD7010D93E4
:101C50001D937D01F8DE182FF6DE082FC2CFD701C5
:101C60001E910E917D01BDCF012BD7011E910E91CA
:101C70007D0111F0229699CFE6DE882EA1CFE3DE1A
:101C8000882ED60111966D01CA14DB040AF498CF90
:101C9000DADECF90DF90AF90BF90A3CFD4DE882E56
:101CA000D601A00FB11F6D01AA19BB09B127F70119
:101CB000129102917F01B7FDEACFEACFBF92AF92B6
:101CC000DF92CF92D7016801BE90AE901E910E9127
:101CD0007D0187CFD7017E916E914427069F4001F9
:101CE000169F612D900C641F079F900C611D179F1C
:101CF000712D600D741F8B018D929D9211247D01B9
:101D000070CFD70111978E9111976E91F801F894C9
:101D100000818023862B8083789411277D0161CFF9
:101D2000D7019E918E917E916E9121E2441B551BAD
:101D300007C0441F551F4017510710F0401B510B9F
:101D4000661F771F881F991F2A9599F760957095D0
:101D50004D935D938B017D0144CFD7019E918E9170
:101D6000082319237D013DCFD7019E918E91082B29
:101D7000192B7D0136CFD7019E918E910827192707
:101D80007D012FCF65012DCFD7010D931D937D01CF
:101D90000F911F9126CFD7010D931D937D01EDB7B4
:101DA000FEB7018112811DCF1F930F93D7011E91A2
:101DB0000E917D0116CF012B09F00FEF0095102F2A
:101DC00010CF002717FD0095102F0BCFD7019E9144
:101DD0008E91080F191F7D0104CFD7019E918E911E
:101DE0007E916E915E914E91840F951F061F171F75
:101DF0008D939D937D01F5CE109501951F4FF1CEEA
:101E0000D7019E918E9190950095109581959F4F49
:101E10000F4F1F4F8D939D937D01E3CED7010D93FF
:101E20001D937D0114970D911D91DBCED7019E91DD
:101E30008E910D931D938C01D4CED7010D931D93DC
:101E40007D01CFCE42E068E003C041E069E0882434
:101E5000C80170E050E004DE092D182DA6CE41E047
:101E6000D70111978E9004C042E0D7018E909E90CA
:101E7000C8011E910E9168E070E050E07D010E9463
:101E8000E70393CED7010D931D9386017D01A9CE63
:101E90000F5F1F4FA6CEFE013196F695E795099488
:101EA000D8010C9111279DCED70111978E91F80181
:101EB0001E910E917D01808394CED8010D911C91CD
:101EC00090CED7019E918E91F8011E910E917D01C9
:101ED0008193908386CEC8010E946A0AC0CEC80151
:101EE0000E948A0BBCCEE3E4FAE0D7019E918E916A
:101EF0007D01B8010995D7011E910E917D0155CE46
:101F0000CF91DF9152CE015010406BCEE7E9FDE05A
:101F100051C00E94C90A65CED7019E918E9104C01E
:101F2000892F9927085F1F4F08301005C8F702C096
:101F3000969587950A95E2F78C017D0152CED701DF
:101F40009E918E9104C0982F8827085F1F4F0830FC
:101F50001005C8F702C0880F991F0A95E2F78C0197
:101F60007D013FCEC8010E94750580912D0090E053
:101F7000299885E08EBDD7011E910E917D0115CE69
:101F8000C8010E9439058C0180E09EE96FE071E094
:101F900040E052E00E94E70308CEC801D7017E91DD
:101FA0006E914FE051E07D010E94BB09E1CFE5E574
:101FB000FDE000C0A801D7017E916E919E918E91A7
:101FC0007D010995D8CFE2E8FBE08FCFC8010E94E0
:101FD000E30CD1CF06CEC80142CED7010D931D939D
:101FE0007D018E018DCFD7010D931D937D012BDDDA
:101FF000182F29DD082F84CFCACDF3CD27CE1ACED6
:102000002ECE32CE39CE3BCE49CE58CE63CE79CE0F
:1020100087CEA3CEA9CEAFCEB5CEB6CEB5CEBBCEF3
:10202000C3CEC9CECECED2CED8CEE6CEE9CEF6CE77
:10203000FDCE03CF07CF09CF12CF16CF23CF28CFA6
:102040002ACF2ECF31CF39CF3CCF45CF48CF47CF46
:102050004ACF49CF48CF54CF56CF58CF5ACF5CCF75
:102060006ECF80CF8DCF99CFA2CFADCFAFCFB2CF34
:10207000B2CFB3CFB8CFE6E0F6E224913196E49147
:10208000922F80E02E2F30E0282B392BC9010895A4
:1020900083E883BD83E38093B0008AE08093B1003E
:1020A0001092B2008FE98093B3008BE08093B4006C
:1020B0001092800022E020938100109285001092FF
:1020C00084008BE090E090938900809388002093B7
:1020D0006F0050988AB18A608AB98BB1857F8BB9BD
:1020E00088E08093F703E4ECF0E01182108280EC4A
:1020F0008093C2001092C10081E090E091838083C0
:10210000789413BC08951F920F920FB60F9211246A
:102110008F939F938091F703873009F046C00E9408
:10212000B51182E080936E0080910401882389F5C7
:102130008091090187FD07C08091880090918900F6
:102140008151984D06C080918800909189008953F3
:10215000924E9093890080938800F09B0AC08091F2
:102160008800909189008050964F909389008093C9
:10217000880088E08093F7038091F5039091F6033F
:1021800001969093F6038093F5030E94AD0CD60D53
:10219000D6C0809188009091890081579F4F90937D
:1021A00089008093880086E028C0833009F444C009
:1021B000843028F4813021F1823088F50DC08530DB
:1021C00009F47DC0853008F449C0863009F494C014
:1021D000883009F0B4C0A7C08FE48093B30085E0D5
:1021E0008093B400809188009091890084569E4F1E
:1021F000909389008093880081E08093F7039FC0CB
:1022000089E48093B4008091880090918900805780
:102210009E4F909389008093880082E0EECF1092C9
:102220006E008091880090918900CE9690938900ED
:102230008093880083E0E1CF82E080936E0085E0A8
:102240008093B40080918800909189008A569E4FB7
:10225000909389008093880084E0CFCF8FE98093AA
:10226000B3008BE08093B4008FE091E09093030182
:1022700080930201F09B0FC080E180930401809164
:1022800088009091890084549D4D9093890080939B
:10229000880085E00DC01092040180918800909123
:1022A00089008454924E909389008093880086E040
:1022B0008093F70378940E94AD0CD60D40C08091B6
:1022C00088009091890080509B4F90938900809363
:1022D000880086E08093F70380916B008260809392
:1022E0006B0080916800816080936800D89A299B78
:1022F00026C02998299A23C080916B008D7F8093F6
:102300006B00D89A809188009091890041969093B3
:1023100089008093880010926E0087E08093F70315
:10232000789488950CC080918800909189008C5693
:102330009F4F90938900809388001092F7039F919C
:102340008F910F900FBE0F901F90189527EA31E0E4
:10235000A7E6B3E005C0F90184918D932F5F3F4F4D
:10236000F3E0A73EBF07B8F308950F921F92EF93D3
:10237000FF930F93AF93BF93CF93DF93D09104015B
:10238000D03C70F5F39998C0D7701F9318E1A091D5
:102390000201B091030108E0F0E0E8E0F093C6002C
:1023A000E093C100ED91CE2FEF770E9F0D0EE0313F
:1023B00030F0E7EAF1E0E00DF11DE49106C0E7E658
:1023C000F3E0E00DF11DE08100C0C7FDE095F09164
:1023D000C000F5FFFCCFE093C60011501AF73CC0D7
:1023E0001F93E0910801E0FDE0E4F0910701FF0F89
:1023F000FF0FFF0FEF0FF0E0D3FDEC5FA8E7B0E0B9
:10240000AE0FBF1FE7EAF1E0CD2FC770D0E0CE0FCF
:10241000DF1F10E0E8E0E093C100FD01049100320D
:1024200008F400E2E8E0F02FFF77EF9FFE01E00DF7
:10243000F11D049007FF0094F091C000F5FFFCCF60
:102440000092C60011961F5F143038F3D09104013A
:10245000DF5FD03D78F40FC0D73024F0A0930201A5
:10246000B0930301D0910401DF5FD03C20F0F091E4
:102470000901F7FFD0E0F091C000F5FFFCCFA0E02C
:10248000A093C100D03C51F4E0918800F091890004
:10249000E85DFF4FF0938900E0938800D09304013A
:1024A0001F91DF91CF91BF91AF910F91FF91EF916C
:1024B0001F900F90089500001F93F49B3DC0AFE064
:1024C000B1E00FEA11E0F801D3FD8D01D3FDDF018A
:1024D000F0E0D770AD0FBF1FE4E1DE9FE801C00D53
:1024E000D11D14E1E8E0F093C600E093C1000DB502
:1024F00007FFFDCF0EB50EBD0993EC911896009124
:10250000C00005FFFCCFE093C6001A9581F7D0917B
:102510000401DF3A08F4A6CF0DB507FFFDCFF2990D
:102520000EB5D05F299AF49B05C09ECFC0E405C0CC
:10253000C0E203C0C0E101C0C8E0DC2FB09BFECF09
:10254000B09ADA95D9F7349AF8CF0F930FB70F9363
:1025500000910401003109F0EBCFF499E7CFF19835
:102560002999F19A00916B000D7F00936B001F93E6
:10257000AF93BF931F9211240DB5F29807FDF29A05
:10258000299AF39AF49AA0E8B3E11BD000EAAFE0ED
:10259000B1E01DB517FFFDCF1EB50EBD1D930A9509
:1025A000C1F7D89A7894299BFECFF19B2998F3988C
:1025B000F4981F90BF91AF911F910F910FBF0F9192
:1025C0001895299803E00EBD0DB507FFFDCFBEBDE0
:1025D0000DB507FFFDCFAEBD0DB507FFFDCF0EBD9D
:1025E0000895DC01CB01FC01F999FECF06C0F2BDD4
:1025F000E1BDF89A319600B40D9241505040B8F7C1
:062600000895F894FFCFDD
:102606007006046B65726E0000660823FE017E96F6
:10261600E00FF11FE00FF11F17FD03C005911491A4
:1026260002C0159104910C94800FA701600987657B
:102636007865637574656608663402816966346612
:102646004121856C65617665664166480F83616EDA
:1026560064664866530C826F726653665C0D8378B7
:102666006F72665C66640E823E3E6664666D32829A
:102676003C3C666D667533823B736675667D2E825D
:10268600723E667D668511823E726685668D138111
:1026960072668D66951282303D6695669C14823010
:1026A6003C669C66A415812B66A466AC1682642BD8
:1026B60066AC66B317856D696E757366B366BB18CF
:1026C60086646D696E757366BB66C619846F7665BA
:1026D6007266C666D21A8464726F7066D266DC034E
:1026E600847377617066DC66E61B8364757066E6E4
:1026F60066F01C814066F066F91D82634066F967E4
:10270600001E812167006708208263216708670F22
:102716001F82752A670F67170982752F6717671F4C
:102726000B84656D6974671F67272884706C6F74E6
:10273600672767313882312B6731673B2285636DA6
:102746006F7665673B6743378466696C6C6743677A
:102756004E3083696340674E6758248369632167F7
:10276600586761258269406761676A2682692167C1
:102776006A677227863E706F72743E6772677A0A5E
:1027860083737069677A67863982312D6786678FAA
:102796002F826174678F67972D83636C7367976762
:1027A6009F31842E686578679F67A82A8465646967
:1027B6007467A867B23484626C6B3E67B267BC35D7
:1027C600843E626C6B67BC67C636857472616365EE
:1027D60067C667D03A036B657967D067DB230E94CB
:1027E6000D0708C005696E6B657967DB67EA23002C
:1027F6000E94FD069927D7010D931D938C017D013B
:102806000C94800F02637267EA680A01000D282E95
:1028160005636F756E74680A68161C221B1E2E04EB
:1028260074797065681668256AE20468401A161B92
:1028360008211E28066837056841032E0573706156
:10284600636568256842691D282E06737061636595
:10285600736842685068F8706C6AE204686C68F8DD
:1028660008684C0668672E04282E22296850686D71
:102876001268201C22111613682E2E422E22686D15
:10288600688101002269ED1D0468A06C5268766DAE
:10289600DF6A5C1E226A6A0568A86DDF6A5C6820CA
:1028A600682E2E056572617365688168A968F830BF
:1028B6002E06626C616E6B7368A968B7691D302E4F
:1028C6000376617268B768C66C956A756CB3102E2C
:1028D60005636F6E737468C668D60568E6101D2EAC
:1028E60001003D6E6D6C816A846A752E013068D672
:1028F60068F23D0000013168F268FB3D00010132DB
:1029060068FB69043D000201336904690D3D00035B
:1029160002626C690D69163D0020047672616D696C
:102926001669203D010F05636C6F636B6920692C86
:102936003D03F50773797376617273692C69393DC6
:1029460003E7026927693969483D000A027270691E
:102956004869523D005D0273706952695C3D000E24
:1029660003737030695C69663D03F88022001F00BE
:10297600018082800C800C73D80374696269666971
:102986007F3D8000057769647468697F698A3D8048
:1029960002077761726E696E67698A69973D80047E
:1029A600026470699769A63D800607636F6E746559
:1029B600787469A669B03D80080763757272656EA2
:1029C6007469B069BF3D800A02696E69BF69CE3D10
:1029D6008012036F757469CE69D83D8014057374CF
:1029E60061746569D869E33D80160462617365693F
:1029F600E369F03D80180364706C69F069FC3D8002
:102A06001A03666C6469FC6A073D801C03686C6483
:102A16006A076A123D801E04626C6B236A126A1D85
:102A26003D8020022B216A1D6A291B1A1D161B20B8
:102A36002E06746F67676C656A296A371A1E0E1B45
:102A46001F2E02322B6A376A48690A162E046865F9
:102A560072656A486A5369AD1D2E05616C6C6F74A8
:102A66006A536A6069AD6A302E012C6A606A6F6AC1
:102A76005C20690A6A6A2E02632C6A6F6A7D6A5C48
:102A86001F69016A6A2E012D6A7D6A8C18162E014D
:102A96003D6A8C6A956A92142E013C6A956A9F6A11
:102AA6009215002E00013E6A9F6AAB1B6AA52E0393
:102AB600726F746AAB6AB5131B111B2E04326475F0
:102AC600706AB56AC21A1A2E036E69706AC26ACE35
:102AD6001B032E043F6475706ACE6AD91C046AE72C
:102AE6001C2E02753C6AD96AE86ACB0E15046AFA8E
:102AF6001B03152E6A92152E066C61746573746A33
:102B0600E86AFE69CB1D1D2E077066613E6366612D
:102B16006AFE6B0E1C6B331E0100800C046B261EB6
:102B26002E077066613E6E66616B0E6B27690A6AD8
:102B3600921D2E076E66613E6C66616B276B391CB3
:102B46001E01001F0C16222E076E66613E7066611E
:102B56006B396B4E6B45010004162E0369642E6BB0
:102B66004E6B611C221B1E01001F0C682E684C2E2A
:102B7600076D6573736167656B616B76687606458D
:102B8600727220232072E92E056572726F726B765F
:102B96006B8E69A31D15046BA16FD16A5C682068F2
:102BA6002E6876023F206B826FAF063F6572726FAA
:102BB600726B8E6BB01B046BC16B98032E053F6363
:102BC6006F6D706BB06BC369ED1D140100116BBBAB
:102BD6002E053F657865636BC36BD769ED1D0100F4
:102BE600126BBB2E063F70616972736BD76BEA6A14
:102BF600920100136BBB2E413A6BEA6BFD6BE16EE3
:102C06006D6C6F2E413B6BFD6C0A6C52002E6C8115
:102C16006C632E09696D6D6564696174656C0A6C17
:102C2600196B090100406A422E02782C6C196C2F30
:102C36001C01FF000C046C436A75056C456A842E02
:102C460007636F6D70696C656C2F6C466BCD111CDC
:102C56001D6C366A4F132E415B6C466C5D68F869D5
:102C6600ED202E015D6C5D6C6901004069ED202E42
:102C760006736D756467656C696C766B0901002077
:102C86006A422E073C6275696C64736C766C896E59
:102C96006D6C8168F86A752E45646F65733E6C8944
:102CA6006C9E016CB36A750100106A842E116B0963
:102CB6006B5A202E41286C9E6CBA0100296DDF2EBE
:102CC600036865786CBA6CC601001069F9202E0796
:102CD600646563696D616C6CC66CD501000A69F93F
:102CE600202E0564696769746CD56CE813010030A1
:102CF6006A920100091A6AA5046D0D0100076A921D
:102D06001C01000A6AA50D1C116AEF2E08286E75B3
:102D16006D626572296CE86D12221C131E69F91D1D
:102D26006CF2046D491B69F91D09036ABD69F91D39
:102D360009176A041D22046D4569016A046A301187
:102D4600056D1F03112E066E756D6265726D126D2F
:102D56004C68F868F86ABD1C221E01002D6A9B1C8F
:102D6600136A9201FFFF6A04206D1F1C1E691D6A0B
:102D760092046D8A1C1E01003A6A9268F86BBB6861
:102D8600F8056D6C0311046D90192E07656E636C62
:102D96006F73656D4C6D91131C1C1C1E691D6A9B1F
:102DA600046DAD22056DA06ACB1B6A926ABD6ABD31
:102DB6001C1E046DC71C1E126A92046DCE22056D80
:102DC600B61B6A921C11032E11031B6A921C222E3B
:102DD60004776F72646D916DD669871D69D51D166E
:102DE6001B6D9D6A5C01002268C269D56A301A6A49
:102DF6009213126A5C1F166A5C2211372E13056E37
:102E06000E112F131B221B221A1E1A1E6A9212144F
:102E16000D046E070303112E052D66696E646DD6CB
:102E26006E1E691D6DDF6A5C6B091A1E1A1E010093
:102E36002F0C6A9B046E4D1A221A1C221B1E0100BF
:102E46001F0C6E03046E576B451D1C046E61056EE8
:102E5600306AD61C6B5A1B1E01FFFF2E0663726575
:102E66006174656E1E6E626E28046E80036B336B32
:102E7600690100046B82684C6A5C1C1C1E69941D07
:102E8600705A1C226A6A0100200D1A1F6B096A75A6
:102E96006A7569CB1D202E495B636F6D70696C6521
:102EA6005D6E626E9D6E281468F86BBB036B1A6CC0
:102EB600362E476C69746572616C6E9D6EB869EDED
:102EC6001D046ED06C5200016A752E48646C6974DC
:102ED6006572616C6EB86ED169ED1D046EE91B6E8C
:102EE600C46EC42E066578706563746ED16EEA1A78
:102EF60016131C68F81A1F67E31C0100076A9B0477
:102F06006F1B031A1A6AA5046F1869016A920100F9
:102F16000728056EF91A126AA51A01000D6A9B1494
:102F26000C046F311C281A1F2268F801000D6A9BD9
:102F3600046EF911030303684C2E406EEA6F4001DC
:102F4600802269872011032E09696E74657270727A
:102F560065746F406F4E6E28046F7A01007F0C69AE
:102F6600ED1D6AA5046F746B1A6C36056F5C6B1ADF
:102F760002056F5C6D576A041D22046F886EDE05BC
:102F86006F5C036EC4056F5C0571756572796F4E73
:102F96006F8E69871D0100506EF568F869D5202E81
:102FA60004717569746F8E6FA66C6368116F986F84
:102FB6005C69ED1D14046FC4687603204F4B056FE2
:102FC600B10561626F72746FA66FC7696E69632718
:102FD6006CE1681168761E4649476E6974696F6EC2
:102FE600200D7F6E696368656D616368696E6573E0
:102FF60020323031316FAF04636F6C646FC76FFD81
:1030060001697101800001000E376FD104732D3EF6
:10301600646FFD70121C152E022B2D7012701E157A
:1030260004702A182E03642B2D701E702B15047045
:1030360038192E03616273702B70391C70252E04AB
:1030460064616273703970451C70332E036D696E4E
:10305600704570521A1A6AB10470621B032E036D12
:103066006178705270641A1A6AA50470741B032E74
:10307600026D2A706470761A1A0E1370411B704125
:10308600091170332E012A7076708B09032E052ADA
:103096002F6D6F64708B709413707D1170B82E0253
:1030A6002A2F709470A5709E1B032E026D2F70A59B
:1030B60070B11A1313704E1270410B11120E702557
:1030C6001B1170251B2E042F6D6F6470B170CC130D
:1030D600701B1170B82E012F70CC70DC70D51B03DD
:1030E6002E036D6F6470DC70E770D5032E056D2FAF
:1030F6006D6F6470E770F31368F8120B111B130BF6
:10310600112E412770F371086E281468F86BBB0303
:103116006EC42E046261636B710871196A752E455F
:10312600626567696E711971256BCD6A5C69012EDE
:1031360045656E646966712571366BCD690A6BF5F6
:103146006A5C1B202E447468656E7136714B714043
:103156002E42646F714B71576C5200086A5C69139A
:103166002E446C6F6F707157716769136BF56C52F3
:10317600000671222E452B6C6F6F707167717B692B
:10318600136BF56C52000771222E45756E74696CCF
:10319600717B719069016BF56C52000471222E43AC
:1031A600656E64719071A5719A2E45616761696E4D
:1031B60071A571B069016BF56C52000571222E463E
:1031C60072657065617471B071C5131371BA1111AE
:1031D600690A6A9271402E42696671C571DD6C5248
:1031E60000046A5C68F86A75690A2E44656C736542
:1031F60071DD71F1690A6BF56C5200056A5C68F85D
:103206006A751B690A7140690A2E457768696C659B
:1032160071F1721071E46A4F2E04686F6C6472105B
:10322600721F01FFFF6A1A6A306A1A1D1F2E037089
:103236006164721F72346A5C010044162E023C23DC
:1032460072347243723C6A1A202E02233E72437213
:103256005003036A1A1D723C1A6A922E0473696738
:103266006E725072626ABD1504727601002D722864
:103276002E01237262727769F91D70FD6ABD010025
:10328600091A6AA504729101000716010030167228
:10329600282E02237372777298727D1A1A0D1404FF
:1032A600729F2E03642E72729872A9131B1A704EA7
:1032B600724A729F726B7257111A6A92685B682E15
:1032C6002E02642E72A972C768F872B1684C2E027B
:1032D6002E7272C772D513701B1172B12E012E7227
:1032E600D572E3701B72CE2E013F72E372EE1D7231
:1032F600E92E046C6F616472EE72F8019E006987B4
:103306001C1D132068F869D51C1D13206A261D1381
:103316001C6A26203568F8019FF41F036F5C1111A3
:1033260069D520111C698720019DFF6AB10473438A
:103336001C6A2620350368F8019FF41F2E032E040D
:103346006D6F726572F873450103E72669290102FC
:103356003E166AB104736A6876066D6F72653E3E04
:1033660067E303312E05766C6973747345736B31AD
:103376006B09734E1C6B696B451D6AE21404737806
:103386002E06666F72676574736B73876E28047397
:10339600A6036B331C69AD206B451D69CB1D202E22
:1033A600032E0370656E738773A801004A252E05E8
:1033B600766D6F646573A873B50103F72401000881
:1033C6006A9B0473BF0100E10C01001E01003E0A66
:0E33D600032E046C69737473B573D835032E1F
:0633E400000000000000E3
:00000001FF
:000000