:100000000C94D4020C94E6020C94E6020C94E602E2
:100010000C94E6020C94E6020C94E6020C94E602C0
:100020000C94E6020C94E6020C94E6020C942F1059
:100030000C94E6020C94E6020C94170C0C94E60265
:100040000C94E6020C94E6020C94E6020C94E60290
:100050000C94E6020C94E6020C94E6020C94E60280
:100060000C94E6020C94E602080B0907000A200D26
:10007000080B097F000A1B0AD2313233D234352DE6
:100080002EDE2C213AAB3B2261627363646573669A
:100090006D6E6F7A7071727AC3363738C339302B10
:1000A0002ACD2F2428CD293D676873696A6B736C4C
:1000B0007475767A7778797A007C40330034352D00
:1000C0007F00253F7B007D274142534344455346F3
:1000D0004D4E4F5A5051525A0036373800393C3E37
:1000E0005E005C605B005D26474853494A4B534CB9
:1000F0005455565A5758595A10050520202020208B
:10010000202020202020052020202020202020200A
:10011000208484840607848484848484840684847C
:1001200084840784848484848484A020201595009A
:10013000A00115A0A0011595A020159500A00115FE
:10014000A0A001A020201595A020A0159520A01505
:1001500095A0201595A020A0159520A0A0202015E1
:100160009502A0A0159520A0159502A0159502A0B6
:1001700003159520A020202020202020A020202032
:10018000202020202020202020202020202020206F
:1001900020202020A00320202020202020202020FC
:1001A000202020202020203F7FFFFFFFFFFFFFFCBB
:1001B000FEFFFFFFFFFFFFFFFFFFFFFFFF7F3FFF90
:1001C000FFFFFFFFFFFEFC00FF00FF00FF00FFFF3F
:1001D000FFFFFFFFFFFF000F0F0F0F0F0F0F00F0CC
:1001E000F0F0F0F0F0F000FF80808080808080FFF1
:1001F00000000000000000FF010101010101018079
:1002000080808080808080010101010101010180E6
:10021000808080808080FF00000000000000FF01DF
:10022000010101010101FF3F7FFFFFFFFFFF000F01
:100230000F0F0F00000000F0F0F0F000000000FFD2
:10024000FFFFFF00000000000000000F0F0F0F0F66
:100250000F0F0F0F0F0F0FF0F0F0F00F0F0F0FFF3A
:10026000FFFFFF0F0F0F0F0000000055AA55AA5502
:10027000AA55AA0000000050505050505050505500
:10028000AA55AA55AA55AA0000183C3C1800003CE3
:100290007EFFFFFFFF7E3C3E419CAC9F403F000045
:1002A000008E9526C8F0000000000000000000004D
:1002B00010101010001000002424000000000000A6
:1002C000247E24247E240000081E281C0A3C0800EA
:1002D00062640810264600001028102A443A0000E4
:1002E00008100000000000000408080808040000CE
:1002F00020101010102000000014083E0814000008
:100300000008083E0808000000000000080810006F
:100310000000003E0000000000000000181800006F
:1003200000020408102000003C464A52623C0000D3
:1003300018280808083E00003C42023C407E0000AD
:100340003C420C02423C0000081828487E0800008D
:100350007E407C02423C00003C407C42423C00002B
:100360007E020408101000003C423C42423C000067
:100370003C42423E023C0000000010000010000021
:1003800000100000101020000004081008040000F5
:1003900000003E003E0000000010080408100000AD
:1003A0003C420408000800003C4A565E403C000005
:1003B0003C42427E424200007C427C42427C000041
:1003C0003C424040423C00007844424244780000B5
:1003D0007E407C40407E00007E407C4040400000EB
:1003E0003C42404E423C000042427E4242420000BB
:1003F0003E080808083E000002020242423C00009B
:10040000444870484442000040404040407E000064
:1004100042665A42424200004262524A464200004C
:100420003C424242423C00007C42427C4040000050
:100430003C4242524A3C00007C42427C4442000022
:100440003C403C02423C0000FE1010101010000026
:1004500042424242423C00004242424224180000D2
:1004600041412A2A14140000422418182442000092
:1004700082442810101000007E040810207E000026
:100480000E080808080E00000040201008040000B4
:1004900070101010107000001028440000000000C0
:1004A000000000000000FF001C227820207E0000D9
:1004B0000038043C443C000020203C22223C000048
:1004C000001C2020201C000004043C44443C00008C
:1004D00000384478403C00000C1018101010000048
:1004E000003C44443C04380040407844444400000C
:1004F0001000301010380000040004040424180018
:10050000202830302824000010101010100C00009B
:10051000006854545454000000784444444400009B
:100520000038444444380000007844447840400097
:10053000003C44443C040600001C20202020000015
:10054000003840380478000010381010100C0000FB
:10055000004444444438000000444428281000006B
:10056000004454545428000000442810284400003B
:10057000004444443C043800007C0810207C000403
:1005800008083008080400000808080808080020C7
:1005900010100C1010200000142800000000003C77
:1005A0004299A1A199423C0011241FBECFEFD4E093
:1005B000DEBFCDBF13E0A6E0B1E001C01D92A73FB2
:1005C000B107E1F70E94AD030C94E4110C94000014
:1005D0002A9886E00E94D90B2A9A08950F931F93B8
:1005E000CF93DF938C01EB012A9883E00E94D90B13
:1005F000812F0E94D90B802F0E94D90B80E00E948E
:10060000D90B00E010E00E94DE0B89930F5F1F4FB3
:1006100081E000301807B9F72A9ADF91CF911F9136
:100620000F9108950F931F932A988FE90E94D90B79
:100630000E94DE0B90E08F37910519F40E94DE0BCB
:1006400090E0C79719F02FEF3FEF0AC00E94DE0B32
:10065000182F00E00E94DE0B282F30E0202B312BDA
:100660002A9AC9011F910F9108952A9885E00E9446
:10067000D90B0E94DE0B2A9A08950E94350380FD53
:10068000FCCF08950F931F93CF93DF938C01EB0161
:100690000E94E8022A9882E00E94D90B812F0E94D2
:1006A000D90B802F0E94D90B80E00E94D90B00E06B
:1006B00010E089910E94D90B0F5F1F4F81E000303D
:1006C0001807B9F72A9A0E943D03DF91CF911F9135
:1006D0000F9108950F931F93CF93DF938C010E9486
:1006E000120380708050904219F4C8EDD0E002C02F
:1006F000C0E2D0E00E94E8022A988C2F0E94D90B19
:10070000812F0E94D90B802F0E94D90B80E00E947C
:10071000D90B2A9A0E943D03DF91CF911F910F912F
:10072000089583B7816083BF1092C10080E187B9CB
:100730003D98459A8AB18E7B8AB98BB181648BB919
:100740000E940D110E94CC060E94CB0B0E94BA0B96
:100750000E94F60F0E94E30B08950E9491030E94ED
:10076000140B8FEF8DBF0C94740D08950CC0809105
:10077000F5039091F60324E0959587952A95E1F786
:1007800081700E94730B0E940C07882381F30895E7
:10079000299A8CB58F7B8CBD209184003091850087
:1007A0002F5F3F4F8DB58EB580918400909185006D
:1007B000A901481B590B57FFF5CF8CB580648CBD40
:1007C00008950F931F93CF93DF93FC01EB018A01F0
:1007D0004115510559F1299A8CB58F7B8CBD20911B
:1007E0008400309185002F5F3F4F8DB58EB580918D
:1007F000840090918500A901481B590B57FFF5CF44
:100800008CB580648CBDCF019F7768810E948B0B73
:1008100003C088810E94D90B015010402196011518
:100820001105B9F71092F4031092F303DF91CF9101
:100830001F910F9108959EE16902B001112499273B
:1008400087FD9095680F791F615F7E4FCB010895FA
:100850000F931F93CF93DF93EC01062F60C00A30F4
:1008600001F10B3040F4083049F1093008F5073048
:1008700009F04EC045C00D3049F10E3020F40B3068
:1008800009F046C006C0033C19F10D3C09F040C018
:1008900032C089818150898387FF44C083E1898385
:1008A00041C089818F5F89838431E4F119823AC024
:1008B00088818F5F88838E31ACF108C08881815038
:1008C000888387FF2FC08DE18883E3CF1882E9CF2B
:1008D0001A81812F6B810E941B04FC0100811F5F24
:1008E0001A831E31E4F01A828B818F5F8B838431EF
:1008F000B4F01B8214C088818A8389818B8312C0E3
:10090000888169810E941B04FC0180E28083D6CF2C
:10091000888169810E941B04FC010083C9CF0023E8
:1009200009F09DCFDF91CF911F910F910895AF9264
:10093000BF92CF92DF92EF92FF920F93DF93CF930C
:1009400000D0CDB7DEB77C016B015A0180E065E1D4
:100950000E941B049A8389838FE3E981FA81808353
:100960000E941C07082FE981FA818083873509F4EA
:1009700050C0883550F4853409F453C0843509F4E7
:1009800056C0873009F065C024C08A3509F44CC0D0
:10099000893621F0883509F05CC041C080E0F5015E
:1009A00061810E941B047C018DE162E10E941B04B5
:1009B000FC0103C08081868F3197EE15FF05D0F7CB
:1009C000C7014E9620E201C02193E817F907E0F332
:1009D00044C080E0F50161810E941B047C0180E03D
:1009E00063E10E941B049C0104C0F701868D819382
:1009F0007F01E216F306C8F3C9014E9620E205C056
:100A00000894E11CF11CF7012083E816F906C0F3F5
:100A100024C0C701B6014FE051E00E94D2090BE1AA
:100A20001CC00E94140AFBCF0E94140B16C00E9427
:100A30002C0813C0F501808161810E941B04FC0118
:100A40008081880F880F880F802B80830E941C076D
:100A5000082F0053083070F300E0802F0F900F90A4
:100A6000CF91DF910F91FF90EF90DF90CF90BF90EB
:100A7000AF90089597FD02C080E008958FE091E067
:100A800060E070E040E052E00E94D41181E00895FF
:100A9000EF92FF920F931F93CF93DF938C018FEF11
:100AA0009FEF6FE071E00E94AF087C01C8010E94D7
:100AB0003A05882319F0CEEFDFEF06C0C8016FE0DA
:100AC00071E00E94CE08EC01CE15DF0511F40E9402
:100AD000140B81E065E10E945E0AC8010E94DE0AF3
:100AE00080E40E94850ACE010E94DE0A81E20E9413
:100AF000850AC7010E94DE0AC701DF91CF911F91CD
:100B00000F91FF90EF9008952F923F924F925F9236
:100B10006F927F928F929F92AF92BF92CF92DF920D
:100B2000EF92FF920F931F93DF93CF9300D000D0EB
:100B3000CDB7DEB74C0119821A828FEF8B830E94EA
:100B4000140BC4010E9448052C0197FE04C0909428
:100B500081949108939483E9682E1E010894211CC6
:100B6000311CE090F503F090F60389816A810E94C0
:100B70001B045C018B816C810E941B046C01F501DC
:100B80007080FC0100818091F5039091F60397013C
:100B9000281B390B12161306B4F0F50190819058FA
:100BA00090838B818F3F39F097FF03C0F6016082FD
:100BB00002C0F6010083E090F503F090F60322E313
:100BC00030E0E20EF31E0E940C07182F8823D9F2A2
:100BD000F5017082F60100838B3A39F4C401B20149
:100BE000A1010E949704182F04C0C101612F0E9427
:100BF00028041B3109F0B5CF80E064E10E945E0A51
:100C00000F900F900F900F90CF91DF911F910F9148
:100C1000FF90EF90DF90CF90BF90AF909F908F901C
:100C20007F906F905F904F903F902F900895482F46
:100C3000282F30E082FF02C082E004C0C9019695EF
:100C40008795817023FD83E024FD84E025FD85E008
:100C500026FD86E047FD87E008951F93CF93DF933D
:100C6000282FC0910A01D0910B01109107018091AA
:100C7000F2032817F1F4CE0183709070029720F0F0
:100C80008091090187FF07C0219709F081C08091F9
:100C90000901863024F081508093090179C086E0F3
:100CA0008093090185E090E090930B0180930A0105
:100CB0006FC02093F203C130D10559F0C130D10586
:100CC00058F0C230D10579F0C330D10509F059C0D0
:100CD0002BC0222309F453C0822F0E941706809351
:100CE000070122964EC0222309F58091090187FD54
:100CF00046C0E0910801143029F481E08E1B8093F6
:100D000008013DC0F0E063E0EE0FFF1F6A95E1F7D8
:100D1000E10FF11DE859FF4FE491E09306011092B5
:100D20000801C4E0D0E02DC0222349F181E090E029
:100D3000012E02C0880F991F0A94E2F7281B822F08
:100D40000E941706E0910801F0E053E0EE0FFF1F4C
:100D50005A95E1F7E10FF11D43E0EE0FFF1F4A95B1
:100D6000E1F7E80FF11DE858FF4F8491823D21F033
:100D70008093060110920801C5E0D0E002C0C0E0F7
:100D8000D0E080E180930901D0930B01C0930A0168
:100D9000DF91CF911F91089587B1807F87B988B186
:100DA0008F6088B957985F9A2098289A0895209163
:100DB0000D01222351F486B180958F7080930E012E
:100DC0002098289A579A5F980EC096B190959F7078
:100DD00080910E018295807F892B80930E01579818
:100DE0005F9A209A28982F5F217020930D0180919F
:100DF0000E0108950E94D706982F80910D01882337
:100E000051F480910C01981721F4892F0E942D062E
:100E1000089590930C01089520910A0130910B01DF
:100E200022FD02C080E00895809106012B7F30935F
:100E30000B0120930A010895CF93DF938091E9037A
:100E4000C091E703D091E803C80FD11D8881805875
:100E500088830E940C07982F8823D9F388818058B3
:100E60008883892FDF91CF9108950E94120320E299
:100E70008331920749F020E28331920740F0835199
:100E80009043029720F406C020E031E005C020E046
:100E900030E002C020E130E0C90108950E94120351
:100EA00020E28331920749F020E28331920740F03B
:100EB00083519043029720F406C020E031E005C042
:100EC00020E030E002C020E830E0C9010895CF936F
:100ED000DF930E94120320E38331920739F020E36D
:100EE0008431920749F08351904219F4C0E0D8E070
:100EF00005C0C0E0D0E002C0C0E0D0E10E944E07D3
:100F00009E01281B390BC901DF91CF9108950F93E2
:100F10001F93CF93DF93EC010E9467078C010E941F
:100F20003507081B190B16950795C017D10710F444
:100F300020E00BC00E94350720E001979695879529
:100F40008C239D23892B09F421E0822FDF91CF91FF
:100F50001F910F910895CF92DF92EF92FF920F931E
:100F60001F936C017B010E9467078C011695079502
:100F700001501040C801880F892F881F990B919547
:100F80008E0D9F1DB6010E94EE020F771070000FAC
:100F9000111F0C0D1D1DF801808191811F910F9172
:100FA000FF90EF90DF90CF900895CF93DF93EC0107
:100FB0000E94C803CE0160E070E00E94AB078F5F23
:100FC0009F4FE1F40E946707FC01F695E795329781
:100FD000EF77F070EE0FFF1FEC0FFD1F8081918106
:100FE0008F5F9F4F41F0CE0160E170E00E94AB0740
:100FF0008F5F9F4F19F020E130E002C020E030E029
:10100000C901DF91CF910895EF92FF921F93CF9383
:10101000DF93EC017B01CB010E94D507892B21F0E6
:1010200080E090E4C827D927D6FD02C010E001C0B7
:1010300010E1DF73CC0FCD2FCC1FDD0BD1951C0F32
:10104000812F90E0B7010E94EE02812FDF91CF91B6
:101050001F91FF90EF900895CF93DF930E94C803F4
:101060000E94140BC0E0D0E015C080E065E10E9452
:101070005E0A8FE091E00E94D5078C0F9D1F0E94B1
:10108000DE0ACE0140966FE071E00E94EE020E94FF
:101090001C0721960E94670796958795C817D90760
:1010A00020F31092F4031092F303DF91CF9108958F
:1010B0008F929F92AF92BF92CF92DF92EF92FF9268
:1010C0000F931F93CF93DF935C016B010E9467071F
:1010D0004C0196948794E12C40E8F42EC0E0D0E0D7
:1010E000CE019F738815990520F0C070D07CC05048
:1010F000D04C8E010F7710700115110521F4CE012F
:10110000B6010E940408000F111F0C0D1D1DF801EF
:10111000808191818A159B0549F08F5F9F4F61F413
:1011200020E0E21620E8F20651F417C08FEFA8166F
:101130008FEFB80691F07E012196D7FFD1CFC7017E
:10114000DF91CF911F910F91FF90EF90DF90CF90A3
:10115000BF90AF909F908F9008957E01F0CFCF9277
:10116000DF92EF92FF920F931F938C017B010E94FD
:10117000C8030E944E076C01C801B7010E945808BD
:101180009C013F73220F331F2C0D3D1DC9011F9180
:101190000F91FF90EF90DF90CF9008950F931F93E2
:1011A000CF93DF93EC018B0196FF04C00E94C8032C
:1011B000DF7309C00E94AF08EC01B80160507F4F97
:1011C00001960E94EE02CE01B8010E94EE0210923A
:1011D000F4031092F303CE01DF91CF911F910F9191
:1011E0000895EF92FF920F931F93CF93DF937C01AB
:1011F0008B018FEF9FEF0E945808EC010E94670758
:10120000969587958150904CC817D90748F0C8012A
:101210000E94D5070E946A0380E090E4C827D9277E
:10122000CE01B8010E940408CF77D070CC0FDD1F2B
:10123000C00FD11FF982E88290E0B8010E944203FA
:10124000DF91CF911F910F91FF90EF900895CF9371
:10125000DF93EC01DF730E946707C817D90720F0FE
:101260000E946707C81BD90B0E944E079E01220FE0
:10127000331F280F391FC901DF91CF9108954F9275
:101280005F926F927F928F929F92AF92BF92CF9216
:10129000DF92EF92FF920F931F93CF93DF938C0116
:1012A0006B010E94350796958795782E0E946707F7
:1012B000272D30E0FC01F695E795E21BF30BC80102
:1012C0009F738E179F0720F0E801CE1BDF0B07C02E
:1012D000E901C00FD11F80E090E4C827D927672C0F
:1012E000CE010E9427092C01C8010E9427095C0138
:1012F000B60160507F4FCE010E940408FE01EF77D7
:10130000F070E058FF4FEE0FFF1FEC0DFD1D8080C9
:101310009180C401B6010E945808C817D90731F559
:101320000E944E078E011F73000F111F080F191F17
:10133000C801B6010E94EE0275010894E11CF11C7F
:10134000C501B6010E944203C8010196B6010E9480
:10135000EE0257010894A11CB11CC701B6010E94FE
:101360004203C401B6010E94F1086A947A9411F014
:101370002196C4CFC2010E946A0380E016140CF0CB
:1013800081E0DF91CF911F910F91FF90EF90DF905F
:10139000CF90BF90AF909F908F907F906F905F9015
:1013A0004F900895CF92DF92EF92FF920F931F9389
:1013B000CF93DF937C018B01EA010E94C803C8012F
:1013C000BE010E944203C12C31E0D32ECC0EDD1EA3
:1013D000C8010196B6010E944203C701BE010E94E6
:1013E000F108EE24E3948FEF9FEFBE010E945808AE
:1013F0008C01B6010E948707882349F0EE2039F05E
:10140000C801BE010E943F09E82E882361F71092AF
:10141000F4031092F303DF91CF911F910F91FF908E
:10142000EF90DF90CF900895CF92DF92EF92FF92EE
:101430000F931F93CF93DF930E9412036C010E94BE
:101440003507C0E0D0E07C010894E108F10820C035
:1014500083E1C81680E2D80681F4209771F0C0318C
:10146000D10559F0C032D10541F0C034D10529F081
:10147000CE018E219F21892B51F480E065E10E94ED
:101480005E0ACE010E94DE0ACE010E946A036096C7
:101490000E9467078C010E944E07080F191FC01792
:1014A000D107B0F2DF91CF911F910F91FF90EF9094
:1014B000DF90CF9008950E94B60308959EE1699F42
:1014C000B0011124615F7E4F7093E8036093E703DE
:1014D0008093E9030895EFE0F1E0868D819383E046
:1014E000E13CF807D0F302C0819301C080E293E0B1
:1014F000EF3DF907C8F38091E7039091E8034E9719
:101500009093E8038093E70308950F931F93182F98
:10151000873041F08D3021F48EE18093E90310E0B3
:1015200001E016C08091E903882321F08150809367
:10153000E9030CC08DE18093E9038091E70390916A
:10154000E8034E979093E8038093E70310E200E0EE
:101550008091E9038E3170F01092E9038091E703E6
:101560009091E8034E969093E8038093E70302C0BE
:101570000E946B0A8091E7039091E80323E08F3D7E
:101580009207B0F78F50914030F48FE091E0909344
:10159000E8038093E703112371F08091E903E09160
:1015A000E703F091E803E80FF11D10838091E90350
:1015B000080F0093E9031F910F910895EF92FF9296
:1015C0000F931F93CF93DF93EC0180E30E94850A72
:1015D00088E70E94850A10E000E07E019F2D929529
:1015E0009F70905D892F91332CF4133019F00023F4
:1015F00041F001C001E09A3314F0892F895D0E9407
:10160000850A1F5F143031F084E0CC0FDD1F8A950E
:10161000E1F7E3CF80E20E94850ADF91CF911F912D
:101620000F91FF90EF900895EFE0F1E080E2819359
:1016300093E0EF3DF907D8F380E060E00E945E0A96
:101640000895282F8C3308F04DC0603308F04AC04D
:10165000862F86959EE1899FF0011124822F869521
:10166000E80FF11DE15FFE4F60FD02C052E001C0D6
:1016700058E020FD5695F19902C030E001C0352FA9
:10168000F09902C040E001C0452F9081903A31F0BE
:10169000892F8877803111F020E006C0292F277824
:1016A00027FF02C08FE82827852F80958323942F5A
:1016B000932B9095982B9223309535233423932B9D
:1016C000452320954223942B93FF02C08FE898274F
:1016D000292F205F822F90E087709070892B09F46A
:1016E000205F2083089598B1811180E19F7E892B2E
:1016F00088B908950F931F938C01299883E00E9465
:10170000D90B812F0E94D90B802F0E94D90B1EBCB0
:101710001F910F910895FF920F931F93182F092F78
:10172000F62E299882E00E94D90B802F0E94D90BB7
:10173000812F0E94D90B8F2D0E94D90B1F910F91E1
:10174000FF900895FF920F931F93182F092FF62EE5
:10175000299882E00E94D90B802F0E94D90B812FFB
:101760000E94D90B8F2D0E94D90B299A1F910F919E
:10177000FF900895299881E00E94D90B81E40E948E
:10178000D90B299A0895299885E00E94D90B0E94C7
:10179000DE0B299A089584B1817C8E6284B985B16B
:1017A000817C866085B98DB581608DBD80E58CBDFD
:1017B00008958EBD0DB407FEFDCF089580E00E9410
:1017C000D90B8EB508951F93CF93DF93C8EFD0E068
:1017D0000E94140B18E082E0612F0E945E0A80E0F4
:1017E00090E0FE01E80FF91F2491E091E703F091EA
:1017F000E8032193F093E803E093E703019689312E
:10180000910579F769961F5F1F3029F72091F5033D
:101810003091F6032C593F4F8091F5039091F603D8
:1018200028173907C9F7DF91CF911F910895789450
:101830008F939F93809100018A958093000171F0AE
:1018400092E180FD93E197BD9091010108949795F5
:101850009093010182E828F482EC03C080E085BD0A
:1018600082E084BD9F918F9118958F930F9385B5DA
:101870008823E9F7009301010BE00093000182E166
:1018800087BD82E884BD80E086BD83E085BD0F9181
:101890008F910895082FE9CF8F939F935E9A569A60
:1018A000882785BD80916E00826080936E00789459
:1018B0009F918F910895CF93DF93CDB7DEB7EF93CC
:1018C000FF932F933F934F935F936F937F938F93E8
:1018D0009F93AF93BF93FB81EC81EE0FFF1F259188
:1018E0003591F695E795EC83FB83F901F695E7953D
:1018F0000995BF91AF919F918F917F916F915F916A
:101900004F913F912F91FF91EF91DF91CF910895EA
:101910000F931F93CF93DF93EC010E94C803E881DC
:10192000F0E0998190958081892380830CC0EA81C1
:10193000FB818191FB83EA830E94D90B8C819D817D
:1019400001979D838C838C819D81892B81F70EC0AB
:101950001E810F810E94DE0BE12FF02F8193FF8308
:10196000EE838885998501979987888788859985E9
:10197000892B71F7E881F0E080819981892B808340
:101980001092F4031092F303DF91CF911F910F9106
:101990000895D7FD04C0FE01849121960AC02196C6
:1019A000C093F303D093F4038DB587FFFDCF8EB5BD
:1019B0008EBD089597FF1EC06F936DB567FFFDCF75
:1019C000299A7F934F935F930E947A0B9F918F91F7
:1019D000BF91AF9101C06EBD6DB567FFFDCF6EB514
:1019E0006D930197C1F7299A6EBD1092F30310927F
:1019F000F4030895FC01DB01CA0145914D93019761
:101A0000E1F708954115510571F1903168F1703198
:101A100090F1DF92CF92AF929F928F927F926F92CE
:101A20006A013C014B01A6014830510508F048E02D
:101A3000A42E50E0C3016AEE73E0BCDFC4016AEE7D
:101A400073E04A2D50E00E94E1036A0C711C8A0C7D
:101A5000911CCA18D10839F76F907F908F909F9092
:101A6000AF90CF90DF900895703130F0FC01CB0142
:101A7000BF010C94E1039ECFFC01DB01CA018191FF
:101A80008D930197E1F708956115710531F190315A
:101A900028F1DF92CF92BF92AF926C015B01683068
:101AA000710508F068E070E0AAEEB3E018D0C60156
:101AB00048E050E0A416B50608F4A501A41AB50A3A
:101AC000C40ED51E6AEE73E00E94E103A114B104B6
:101AD00071F7AF90BF90CF90DF900895DC01CB01FC
:101AE0004D930197E9F708950E94E90FEC011092D8
:101AF000F3031092F40380E090E00E947A0B87EFEA
:101B000093E07C018BEA9FE03C01D7FF2AC08DB5B2
:101B100087FFFDCF299ACE010E947A0B12C0D7FF12
:101B20000AC0CDB5C7FFFDCFCEB5299AD82DCE01BD
:101B30000E947A0B06C0FE01C491D82D12C0D7FFB7
:101B400010C02196C093F303D093F4038DB587FFA3
:101B5000FDCF8EB58EBD8E3368F4F301E80FF11D15
:101B60000994FE01849121968E3320F4F301E80F4D
:101B7000F11D0994882E0DDF982DCF93DF93EC0192
:101B8000C4CFD7010D931D937D0103DF182F01DF13
:101B9000082FD5CFC801D7011E910E917D018E333C
:101BA000910520F3CF93DF93EC01AFCFD7011E91C6
:101BB0000E917D01C4CF012BD7011E910E917D01A5
:101BC00011F02296A2CFE5DE882EA9CFE2DE882E84
:101BD000D60111966D01CA14DB040AF4A0CFD9DE38
:101BE000DF90CF90BF90AF90AACFD3DE882ED601E2
:101BF000A00FB11F6D01AA19BB09B127F7011291FE
:101C000002917F01B7FDEACFEACFAF92BF92CF92A8
:101C1000DF92D7016801BE90AE901E910E917D01BA
:101C20008ECFD7017E916E914427069F4001169F6B
:101C3000612D900C641F079F900C611D179F712DE3
:101C4000600D741F8B018D929D9211247D0177CFC1
:101C5000D70111978E9111976E91F801F894008138
:101C60008023862B8083789411277D0168CFD7014C
:101C70009E918E917E916E9121E2441B551B07C06F
:101C8000441F551F4017510710F0401B510B661F92
:101C9000771F881F991F2A9599F7609570954D9326
:101CA0005D938B017D014BCFD7019E918E910823CF
:101CB00019237D0144CFD7019E918E91082B192BBA
:101CC0007D013DCFD7019E918E91082719277D0177
:101CD00036CF650134CFD7010D931D937D011F9140
:101CE0000F912DCFD7010D931D937D01EDB7FEB759
:101CF0001181028124CF0F931F93D7011E910E9162
:101D00007D011DCF012B09F00FEF0095102F17CF8C
:101D1000002717FD0095102F12CFD7019E918E91AD
:101D2000080F191F7D010BCFD7019E918E917E91D7
:101D30006E915E914E91840F951F061F171F8D9314
:101D40009D937D01FCCE109501951F4FF8CED701D4
:101D50009E918E9190950095109581959F4F0F4F74
:101D60001F4F8D939D937D01EACED7010D931D9357
:101D70007D0114970D911D91E2CED7019E918E9118
:101D80000D931D938C01DBCED7010D931D937D0127
:101D9000D6CE42E068E003C041E069E08824C80193
:101DA00070E050E007DE092D182DAFCE41E0D701DD
:101DB00011978E9004C042E0D7018E909E90C8018A
:101DC0001E910E9168E070E050E07D010E94E103F9
:101DD0009CCED7010D931D9386017D01B0CE0F5F80
:101DE0001F4FADCEFE01F695E7950994D8010C91F1
:101DF0001127A5CED70111978E91F8011E910E9152
:101E00007D0180839CCED8010D911C9198CED70185
:101E10009E918E91F8011E910E917D018193908388
:101E20008ECEC8010E94850AC1CEC8010E94DE0A7A
:101E3000BDCE0E940C079927D7010D931D938C01ED
:101E40007D017DCE0E941C07F6CFEEE5FAE0D701BA
:101E50009E918E917D01B8010995A8CEDF91CF9119
:101E600054CE015010406BCEE4E4FDE051C00E941E
:101E7000140B65CED7019E918E9104C0892F9927AE
:101E8000085F1F4F08301005C8F702C09695879568
:101E90000A95E2F78C017D0152CED7019E918E9179
:101EA00004C0982F8827085F1F4F08301005C8F717
:101EB00002C0880F991F0A95E2F78C017D013FCE81
:101EC000C8010E94840580912D0090E0299885E04A
:101ED0008EBDD7011E910E917D0117CEC8010E94C3
:101EE00048058C0180E09EE96FE071E040E052E03F
:101EF0000E94E1030ACEC801D7017E916E914FE0A6
:101F000051E07D010E94D209E1CFE2E0FDE000C096
:101F1000A801D7017E916E919E918E917D010995C8
:101F2000D8CFE1E2FBE093CFC8010E94880CD1CF6B
:101F300006CEC8013BCED7010D931D937D018E01C6
:101F40008DCFD7010D931D937D0123DD182F21DD4A
:101F5000082F84CFC9CDF3CD14CE1CCE27CE2BCEE7
:101F600032CE34CE42CE51CE5CCE72CE80CE9CCE1E
:101F7000A2CEA8CEAECEAFCEAECEB4CEBCCEC2CE6A
:101F8000C7CECBCED1CEDFCEE2CEEFCEF6CEFCCEDC
:101F900000CF02CF0BCF0FCF1CCF21CF23CF26CF27
:101FA00029CF31CF34CF3DCF40CF3FCF42CF4ACFE3
:101FB0004CCF54CF56CF58CF5ACF5CCF6ECF80CFB7
:101FC0008DCF99CFA2CFADCFAFCFB2CFB2CFB3CF5E
:101FD000B8CFECECF3E224913196E491922F80E0BB
:101FE0002E2F30E0282B392BC901089583E883BDBB
:101FF00083E38093B0008AE08093B1001092B20036
:102000008FE58093B30086E08093B4001092800047
:1020100022E020938100109285001092840086E0D7
:1020200090E0909389008093880020936F005098EF
:102030008AB18A608AB98BB1857F8BB988E0809339
:102040000201E4ECF0E01182108280EC8093C20087
:102050001092C10011821082789413BC08951F92CF
:102060000F920FB60F9211242F938F939F939091FD
:1020700002019730D1F50E941C1182E080936E001E
:1020800080910501882329F58091090187FD07C00A
:1020900080918800909189008850984E06C0809168
:1020A0008800909189008C519E4E90938900809376
:1020B000880088E0809302018091F5039091F603F7
:1020C00001969093F6038093F5030E945B0CF40D48
:1020D0009CC08091880090918900885A9F4F90936E
:1020E00089008093880086E025C0933009F441C0C0
:1020F000943028F4913009F1923070F50AC096308E
:1021000009F466C0983009F474C0943009F07DC0B9
:1021100041C08FE28093B30083E08093B40080914C
:1021200088009091890089509F4F909389008093F7
:10213000880081E08093020168C08BE28093B40044
:10214000809188009091890080519F4F90938900E1
:102150008093880082E0EECF10926E00809188001C
:10216000909189008596909389008093880083E000
:10217000E1CF82E080936E009093B400809188005C
:10218000909189008C509F4F909389008093880094
:1021900084E0D0CF8FE58093B30026E02093B40095
:1021A0008FE091E090930401809303011092050168
:1021B000809188009091890089529E4E9093890069
:1021C00080938800209302010E945B0CF40D1DC0D7
:1021D000809188009091890008969093890080935F
:1021E000880010926E0087E08093020178948895B1
:1021F0000CC08091880090918900875A9F4F9093DE
:10220000890080938800109202019F918F912F91F5
:102210000F900FBE0F901F90189527EA31E0AFED99
:10222000B3E005C0F90184918D932F5F3F4FF3E038
:10223000A73EBF07B8F308950F921F92EF93FF9345
:102240000F932F933F93AF93BF93CF93DF9320913F
:102250000501203CB8F5C7EAD1E02770C20FD11DB7
:102260002BEF1F931DE1A0910301B091040108E041
:10227000F0E0E8E0F093C600E093C1003D91039FD9
:10228000FE011222E00DF11D049037FD0094009232
:10229000C6003D91039FFE011222E00DF11D049046
:1022A00037FD00940092C6003D91039FFE0112226B
:1022B000E00DF11D049037FD00940092C60013500C
:1022C000EAF640C01F93E0910801E0FDE0E4F091E0
:1022D0000701FF0FFF0FFF0FEF0FF0E023FDEC5F93
:1022E000A8E7B0E0AE0FBF1FE7EAF1E0C22FC7706A
:1022F000D0E0CE0FDF1F10E0E8E0E093C100E0E0A7
:10230000E093C600FD010491E8E0F02F11240000E5
:1023100000001092C600FF77EF9FFE01E00DF11D57
:10232000049007FF00940000000000000092C60027
:1023300011961F5F143030F3C0910501CF5FC03D8F
:1023400098F413C0C75AC73024F0A0930301B09388
:102350000401A0E0A093C600C0910501CF5FC03C7E
:1023600020F0F0910901F7FFC0E0A0E0A093C100C8
:10237000C03C51F4E0918800F0918900EC5EFF4F81
:10238000F0938900E0938800C09305011F91DF91CD
:10239000CF91BF91AF913F912F910F91FF91EF910D
:1023A0001F900F9008950000DC01CB01FC01F9990A
:1023B000FECF06C0F2BDE1BDF89A319600B40D9291
:0C23C00041505040B8F70895F894FFCF4A
:1023CC006DB3046B65726E000063CE1C160163EA7C
:1023DC00161D1C010008321B010008330D2EA7012D
:1023EC00876578656375746563CE63EC0281696398
:1023FC00EC63F921856C6561766563F964000F8384
:10240C00616E646400640B0C826F72640B64140D57
:10241C0083786F726414641C0E823E3E641C6425C7
:10242C0032823C3C6425642D33823B73642D6435CD
:10243C002E82723E6435643D11823E72643D644569
:10244C001381726445644D1282303D644D645414A2
:10245C0082303C6454645C15812B645C6464168229
:10246C00642B6464646B17856D696E7573646B643F
:10247C00731886646D696E75736473647E19846FEA
:10248C00766572647E648A1A8464726F70648A647E
:10249C00940384737761706494649E1B8364757079
:1024AC00649E64A81C814064A864B11D826340646E
:1024BC00B164B81E812164B864C02082632164C0F9
:1024CC0064C71F82752A64C764CF0982752F64CFD5
:1024DC0064D70B84656D697464D764DF28836B657E
:1024EC007964DF64E92C85696E6B657964E964F263
:1024FC002B84706C6F7464F264FD3882312B64FD34
:10250C0065072285636D6F76656507650F37846691
:10251C00696C6C650F651A3083696340651A6524B4
:10252C0024836963216524652D25826940652D65A9
:10253C0036268269216536653E27863E706F727439
:10254C003E653E65460A83737069654665523982FD
:10255C00312D6552655B2F826174655B65632D83DC
:10256C00636C736563656B31842E686578656B6528
:10257C00742A84656469746574657E3484626C6BDA
:10258C003E657E658835843E626C6B6588659236E7
:10259C008574726163656592659C3A026372659C91
:1025AC0065A701000D282E05636F756E7465A76510
:1025BC00B31C221B1E2E047479706565B365C2684A
:1025CC007F0465DD1A161B08211E280665D40565D7
:1025DC00DE032E05737061636565C265DF66BA281C
:1025EC002E0673706163657365DF65ED66956E1914
:1025FC00687F04660966950865E90666042E04285A
:10260C002E222965ED660A1265BD1C221116136572
:10261C00CB2E422E22660A661E010022678A1D04FA
:10262C00663D69EF66136B7C67F91E2268070566C9
:10263C00456B7C67F965BD65CB2E0565726173656D
:10264C00661E66466695302E06626C616E6B73660E
:10265C0046665466BA302E03766172665466636AB7
:10266C003268126A50102E05636F6E73746663665F
:10267C0073056683101D2E01003D6C1B6A1E6821BC
:10268C0068122E01306673668F3D00000131668F33
:10269C0066983D00010132669866A13D0002013347
:1026AC0066A166AA3D000302626C66AA66B33D0091
:1026BC0020047672616D66B366BD3D010F05636CD7
:1026CC006F636B66BD66C93D03F5077379737661FD
:1026DC00727366C966D63D03E702692766D666E55E
:1026EC003D000A02727066E566EF3D005D02737094
:1026FC0066EF66F93D000E0373703066F967033DB3
:10270C0003F78022001F00018082800C800C715F17
:10271C00037469626703671C3D8000057769647404
:10272C0068671C67273D8002077761726E696E6768
:10273C00672767343D8004026470673467433D80CB
:10274C000607636F6E746578746743674D3D800848
:10275C000763757272656E74674D675C3D800A0223
:10276C00696E675C676B3D8012036F7574676B678E
:10277C00753D8014057374617465677567803D8061
:10278C001604626173656780678D3D801803647001
:10279C006C678D67993D801A03666C64679967A4B2
:1027AC003D801C03686C6467A467AF3D801E0462A7
:1027BC006C6B2367AF67BA3D8020022B2167BA6729
:1027CC00C61B1A1D161B202E06746F67676C656777
:1027DC00C667D41A1E0E1B1F2E02322B67D467E558
:1027EC0066A7162E046865726567E567F0674A1D73
:1027FC002E05616C6C6F7467F067FD674A67CD2EB0
:10280C00012C67FD680C67F92066A768072E026328
:10281C002C680C681A67F91F669E68072E012D68D4
:10282C001A682918162E013D68296832682F142E53
:10283C00013C6832683C682F15002E00013E683C54
:10284C0068481B68422E03726F7468486852131BE9
:10285C00111B2E04326475706852685F1A1A2E03AD
:10286C006E6970685F686B1B032E043F647570683B
:10287C006B68761C0468841C2E02753C687668852F
:10288C0068680E150468971B03152E682F152E0605
:10289C006C61746573746885689B67681D1D2E0771
:1028AC007066613E636661689B68AB1C68D01E01F4
:1028BC0000800C0468C31E2E077066613E6E666154
:1028CC0068AB68C466A7682F1D2E076E66613E6CE8
:1028DC00666168C468D61C1E01001F0C16222E07E8
:1028EC006E66613E70666168D668EB68E201000452
:1028FC00162E0369642E68EB68FE1C221B1E010059
:10290C001F0C65CB65E92E076D6573736167656890
:10291C00FE691366130645727220232070962E05ED
:10292C006572726F726913692B67401D1504693EDD
:10293C006D7E67F965BD65CB6613023F20691F6D1F
:10294C005C063F6572726F72692B694D1B04695E80
:10295C006935032E053F636F6D70694D6960678A39
:10296C001D1401001169582E053F65786563696077
:10297C006974678A1D01001269582E063F706169DF
:10298C00727369746987682F01001369582E413A74
:10299C006987699A697E6C1B6A0C2E413B699A693E
:1029AC00A769EF002E6A1E6A002E09696D6D6564B9
:1029BC006961746569A769B668A601004067DF2E76
:1029CC0002782C69B669CC1C01FF000C0469E06824
:1029DC00120569E268212E07636F6D70696C656979
:1029EC00CC69E3696A111C1D69D367EC132E415B3A
:1029FC0069E369FA6695678A202E015D69FA6A06B1
:102A0C00010040678A202E06736D756467656A063F
:102A1C006A1368A601002067DF2E073C6275696C9B
:102A2C0064736A136A266C1B6A1E669568122E45BF
:102A3C00646F65733E6A266A3B016A506812010036
:102A4C001068212E1168A668F7202E41286A3B6A6F
:102A5C00570100296B7C2E036865786A576A6301FD
:102A6C0000106796202E07646563696D616C6A635C
:102A7C006A7201000A6796202E0564696769746A98
:102A8C00726A8513010030682F0100091A6842042C
:102A9C006AAA010007682F1C01000A68420D1C116C
:102AAC00688C2E08286E756D626572296A856AAF0E
:102ABC00221C131E67961D6A8F046AE61B67961DFF
:102ACC000903685A67961D091767A11D22046AE25B
:102ADC00669E67A167CD11056ABC03112E066E7543
:102AEC006D6265726AAF6AE966956695685A1C22D2
:102AFC001E01002D68381C13682F01FFFF67A120F1
:102B0C006ABC1C1E66BA682F046B271C1E01003A97
:102B1C00682F669569586695056B090311046B2D32
:102B2C00192E07656E636C6F73656AE96B2E131C47
:102B3C001C1C1E66BA6838046B4A22056B3D68681B
:102B4C001B682F685A685A1C1E046B641C1E126882
:102B5C002F046B6B22056B531B682F1C11032E115A
:102B6C00031B682F1C222E04776F72646B2E6B7301
:102B7C0067241D67721D161B6B3A67F901002266EC
:102B8C005F677267CD1A682F131267F91F1667F902
:102B9C002211372E685A685A1A1E1A1E682F046B97
:102BAC00B003032E685A669E682F1C046BC7685AC4
:102BBC00669E16685A669E16056BA4687368732E1B
:102BCC00052D66696E646B736BCC66BA6B7C67F9AA
:102BDC0068A61A1E1A1E01002F0C6838046BFB1A0B
:102BEC00221A1C221B1E01001F0C6BA0046C056812
:102BFC00E21D1C046C0F056BDE68731C68F71B1E52
:102C0C0001FFFF2E066372656174656BCC6C106BF3
:102C1C00D6046C2E0368D06906010004691F65E9AF
:102C2C0067F91C1C1E67311D6E071C22680701000A
:102C3C00200D1A1F68A66812681267681D202E499D
:102C4C005B636F6D70696C655D6C106C4B6BD6144F
:102C5C00669569580368B769D32E476C69746572B9
:102C6C00616C6C4B6C66678A1D046C7E69EF0001AD
:102C7C0068122E48646C69746572616C6C666C7F4A
:102C8C00678A1D046C971B6C726C722E06657870CB
:102C9C006563746C7F6C981A16131C66951A1F2C3E
:102CAC001C0100076838046CC8031A1A6842046CCB
:102CBC00C5669E682F01000728056CA71A1268428A
:102CCC001A01000D6838140C046CDE1C281A1F2223
:102CDC00669501000D6838046CA71103030365E9C0
:102CEC002E406C986CED01802267242011032E0974
:102CFC00696E746572707265746CED6CFB6BD604E6
:102D0C006D2701007F0C678A1D6842046D2168B72E
:102D1C0069D3056D0968B702056D096AF467A11DD1
:102D2C0022046D356C8C056D09036C72056D0905FB
:102D3C0071756572796CFB6D3B67241D0100506CDD
:102D4C00A366956772202E04717569746D3B6D5383
:102D5C006A0065AE6D456D09678A1D14046D716658
:102D6C001303204F4B056D5E0561626F72746D53DA
:102D7C006D74670B6700206A7E65AE66131E46494C
:102D8C00476E6974696F6E200D7F6E696368656D3F
:102D9C00616368696E657320323031316D5C046338
:102DAC006F6C646D746DAA01670E01800001000EDA
:102DBC00376D7E04732D3E646DAA6DBF1C152E02FB
:102DCC002B2D6DBF6DCB15046DD7182E03642B2DD9
:102DDC006DCB6DD815046DE5192E036162736DD83A
:102DEC006DE61C6DD22E04646162736DE66DF21C8F
:102DFC006DE02E036D696E6DF26DFF1A1A684E044C
:102E0C006E0F1B032E036D61786DFF6E111A1A681D
:102E1C0042046E211B032E026D2A6E116E231A1AA8
:102E2C000E136DEE1B6DEE09116DE02E012A6E2353
:102E3C006E3809032E052A2F6D6F646E386E4113A0
:102E4C006E2A116E652E022A2F6E416E526E4B1B2E
:102E5C00032E026D2F6E526E5E1A13136DFB126DE4
:102E6C00EE0B11120E6DD21B116DD21B2E042F6D99
:102E7C006F646E5E6E79136DC8116E652E012F6EC8
:102E8C00796E896E821B032E036D6F646E896E944E
:102E9C006E82032E056D2F6D6F646E946EA013669B
:102EAC0095120B111B130B112E41276EA06EB56BD7
:102EBC00D61466956958036C722E046261636B6E4E
:102ECC00B56EC668122E45626567696E6EC66ED2A7
:102EDC00696A67F9669E2E45656E6469666ED26E88
:102EEC00E3696A66A7699267F91B202E44746865CA
:102EFC006E6EE36EF86EED2E42646F6EF86F0469C1
:102F0C00EF000867F966B02E446C6F6F706F046F3A
:102F1C001466B0699269EF00066ECF2E452B6C6F6C
:102F2C006F706F146F2866B0699269EF00076ECFEF
:102F3C002E45756E74696C6F286F3D669E6992693B
:102F4C00EF00046ECF2E43656E646F3D6F526F477A
:102F5C002E45616761696E6F526F5D669E699269FD
:102F6C00EF00056ECF2E467265706561746F5D6FF4
:102F7C007213136F67111166A7682F6EED2E4269DD
:102F8C00666F726F8A69EF000467F966956812665E
:102F9C00A72E44656C73656F8A6F9E66A7699269EC
:102FAC00EF000567F9669568121B66A76EED66A7BC
:102FBC002E457768696C656F9E6FBD6F9167EC2EBF
:102FCC0004686F6C646FBD6FCC01FFFF67B767CD92
:102FDC0067B71D1F2E037061646FCC6FE167F90139
:102FEC000044162E023C236FE16FF06FE967B720A7
:102FFC002E02233E6FF06FFD030367B71D6FE91AB6
:10300C00682F2E047369676E6FFD700F685A150474
:10301C00702301002D6FD52E0123700F702467963D
:10302C001D6EAA685A0100091A684204703E01001C
:10303C000716010030166FD52E02237370247045CD
:10304C00702A1A1A0D1404704C2E03642E727045DB
:10305C007056131B1A6DFB6FF7704C7018700411BF
:10306C001A682F65F865CB2E02642E705670746644
:10307C0095705E65E92E022E7270747082136DC8A5
:10308C0011705E2E012E708270906DC8707B2E01B7
:10309C003F7090709B1D70962E046C6F6164709BDA
:1030AC0070A5019E0067241C1D1320669567721C79
:1030BC001D132067C31D131C67C320356695019F24
:1030CC00F41F6D091111677220111C672420019DDA
:1030DC00FF684E0470EE1C67C320356695019FF4A3
:1030EC001F2E032E046D6F726570A570F00103E73F
:1030FC002666C601023E16684E0471146613066DF0
:10310C006F72653E3E2C03312E05766C69737470BC
:10311C00F071153168A670F91C690668E21D687FAC
:10312C00140471222E06666F726765747115713105
:10313C006BD60471500368D01C674A2068E21D6787
:10314C00681D202E032E0370656E713171520100C3
:10315C003E252E046C6973747152715F35032E0019
:06316C000000000000005D
:00000001FF
:000000