:100000000C947C000E943C050E943C050C94860CDC
:100010000E943C050C949A3E0E943C050E943C05BF
:100020000E943C050E943C050E943C050C942E0A4F
:100030000E943C050E943C050C947C3F0C94CE052C
:100040000E943C050E943C050E943C050E943C0524
:100050000E943C050E943C050E943C050E943C0514
:100060000E943C050E943C0508D2313233D234351F
:100070002D0B2EDE2C213AAB3B22096162736364A7
:10008000657366076D6E6F7A7071727A00C336376A
:1000900038C339302B0A2ACD2F2428CD293D20679B
:1000A0006873696A6B736C0D7475767A7778797A90
:1000B0000E007C4023001B5F7E117F00253F7B19D3
:1000C0007D270F41425343444553461B4D4E4F5AE3
:1000D0005051525A00001C1E1F001D3C3E105E0075
:1000E0005C605B005D26A0474853494A4B534C8DEA
:1000F0005455565A5758595A11241FBECFEFD4E0C1
:10010000DEBFCDBF13E0A0E0B1E01D92AF3FB1076D
:10011000E0F30C94D20C2A9885E00E9488050E9496
:100120008D052A9A08950E948B0080FDFCCF0895CA
:100130002A9886E00E9488052A9A0895CF93DF9333
:100140002A988FE90E9488050E948D0590E08F37DC
:10015000910519F40E948D0590E08733910559F4BB
:100160000E948D05D82F80E0C82F0E948D0590E059
:100170008C2B9D2B02C08FEF9FEF2A9ADF91CF919E
:1001800008951F93CF93DF930F92CDB7DEB7182F4B
:10019000862F2A9899830E9488059981892F0E9429
:1001A0008805812F0E94880580E00E9488050F90B5
:1001B000DF91CF911F9108950F931F93CF93DF93FA
:1001C0008C010E949E00807020E28030920719F01E
:1001D000C0E2D0E002C0C8EDD0E00E949800C801A3
:1001E0006C2F0E94C1002A9A0E949300DF91CF9148
:1001F0001F910F9108950F931F93CF93DF938B015E
:1002000063E00E94C100C0E0D1E00E948D05F801CA
:1002100081938F012197C9F72A9ADF91CF911F917E
:100220000F9108950F931F93CF93DF93EC018B01F0
:100230000E949800CE0162E00E94C100C0E0D1E0BF
:10024000F80181918F010E9488052197C9F72A9AA8
:100250000E949300DF91CF911F910F910895839594
:100260008894982F82E092FF80E291FD02C0880F6F
:10027000880F90FF880F90E0891F089598E0890209
:1002800087E692E0800D911D11240895887F962FB6
:100290009770890F99278851914174E1687F679F12
:1002A000800D911D11240895695F687F795F7695AF
:1002B00076957695679F9C01CA01A001DFDFBC019E
:1002C000C90111240C9431069091080190931401F6
:1002D000890F809315019091060190930701690F92
:1002E000609316010895E42D1C15E8F42DB527FF41
:1002F000FDCF2EB52EBD2D93219613951C15B0F371
:100300001F1500F500C000000EC02DB52EB52EBD86
:1003100024233885369D152221253991369D0522C5
:1003200020252D9313951E1780F3E42DE760E395A8
:100330001E17A8F4EF1508F0EF2D1F1518F4C30DC4
:10034000D51DE3CFE760E3952DB527FFFDCF2EB593
:100350002EBD2D93219613951E17B0F34F10C31980
:10036000D5095A2D4F2F1850085008F0BCCF093F1F
:1003700020F000275B214829B6CF0895FF91EF9127
:100380002F923F924F925F926F927F928F929F92A5
:10039000AF92BF92CF92DF920F931F93CF93DF93D1
:1003A000EF92FF920994FF91EF91FF90EF90DF9110
:1003B000CF911F910F91DF90CF90BF90AF909F9002
:1003C0008F907F906F905F904F903F902F9011246F
:1003D00009945524D09008016D2CED2C2091140126
:1003E000D21608F4D22E9D2D987FDE2DD87F9D1B2E
:1003F000CE2DC77009F48395C0900601FC2C3324E0
:10040000E60EE0920801695F687F762E3F2D377017
:10041000432E19F028EF260F322E3C2D2091070194
:10042000C21608F4C22ECC2DC87F1C2F410EDF2D22
:10043000D87FCD1B4112C850C595C595C595C6023C
:10044000E001C90FD51D98E0989FC00DD11DC15A7C
:10045000DD4F209115012E1508F4E22EAFEFB3E029
:1004600087E08E0D887F9D2D987F891BA81BB0404B
:100470003F2D31953770C30FC51DF70E2091160122
:100480002F1508F4F22E862DEBDE682E8D2DE8DE7A
:100490008A9509F48FEF982E8E2DE2DE8195B82E85
:1004A0002FEFA22E8D2D6C2D687FF0DECC010D2D4F
:1004B000087F0195E00E0895FFEF2F2E822C2F93D9
:1004C0002DB527FFFDCF299A000029980E946B05C2
:1004D0002F916C2F7A2F592D422D0E2D45DF6C1B3D
:1004E0006195C61BD0407A1B7195A71BB040C70D04
:1004F000D51D472F5527BD010E94000680569F4FEE
:1005000028E0420E4F1408F04F2C185F1F15B8F268
:10051000089534DF5EDF08F4CFDF45DF0895B801CA
:100520009E918E917D012ADF54DF08F4C5DFA091F2
:100530001701A0930801A0911801A0930601BF9193
:10054000AF917E916E9111978E91AF93BF9341DFE2
:1005500008F4B2DF28DF089511DF7F936F93909145
:1005600008019F938F932F934F934F9332DF30F473
:10057000292C2094FF278B2C8094A1DFCDB7DEB7E8
:100580008C816E817F814F9141507AF74F912F91ED
:1005900021504AF09D819093080190910601970F98
:1005A00090930601E0CF8F919F916F917F91FBDE39
:1005B000089583B7816083BF1092C10080E187B93D
:1005C0003D98459A8AB18E7B8AB98BB181648BB98B
:1005D0001EBA0E9485030E947A050E94620510924D
:1005E0006B00109268000895982F907F19F0829503
:1005F00094E001C090E082FF02C0926002C081FDE1
:10060000916083FD9360892F089590E0FC0123E0C1
:10061000EE0FFF1F2A95E1F7E80FF91FE60FF11D16
:10062000E859FF4F84910895CF93DF93D091020151
:10063000C0910301909111018917C1F42091220109
:100640008D2F90E0837090708230910514F027FF19
:1006500004C0D13041F4263014F0215004C085E0AC
:100660008093020126E0209322014CC08093110167
:10067000D13039F0D13038F0D23059F0D330C1F523
:100680001EC08823E9F10E94F402C87FC82BDE5FF8
:100690002FC08823B1F48091220187FD31C08C2FB7
:1006A0008770843019F488E0C8272AC08C2F60E056
:1006B0000E94050380932101C0E0D4E019C0882383
:1006C000F9F09C2F977021E030E002C0220F331F19
:1006D0009A95E2F7821B0E94F402682F6F5F8C2FBD
:1006E0000E940503823D19F080932101C77FD5E068
:1006F000C093030180E180932201D093020102C0E4
:10070000D0E0F6CFDF91CF91089587B1807F87B990
:1007100088B18F6088B957985F9A2098289A089571
:100720008091220185FD0AC086B180958F708093EB
:1007300000012098289A579A5F980EC096B190951C
:100740009F70809100018295807F892B80930001AA
:1007500057985F9A209A28988091220190E28927E1
:10076000809322018091000108952F933F936F930E
:100770008F939F93EF93FF930E9490039091220198
:1007800095FD09C090910101891719F40E94140385
:1007900002C080930101FF91EF919F918F916F9122
:1007A0003F912F9108959091020192FF06C0809190
:1007B00021019B7F90930201089580E00895E6E077
:1007C000F1E0F09B08C09281918B9081928B685CE4
:1007D0006083885C08C099E1699FB0011124695D5C
:1007E0007E4F7183608382830895CF93DF93EC0102
:1007F00014C04997909307018093060180E491E02B
:1008000067E271E04FE352E00E94EB0686E693E078
:1008100069E170E040E20E944307809106019091F7
:1008200007018C179D0728F7DF91CF91089590E07D
:1008300023E0880F991F2A95E1F78A5C954E68E0BE
:1008400078E040E30E94540180E368E078E040E013
:1008500020E00E94AC0280910801883D60F0809108
:100860000601885F8093060198E390930801883D14
:1008700010F0109206010895CF93DF93EC01F09BE6
:1008800003C00E9417042BC08D30910529F489E123
:1008900080930801C0E0D0E080910801893158F0D0
:1008A000109208018091060190910701499690935A
:1008B0000701809306018FE793E00E94F5032097DC
:1008C00071F080910801E0910601F0910701E80FB5
:1008D000F11DC083809108018F5F80930801DF9133
:1008E000CF9108950F931F93CF93DF93EC0184E290
:1008F0000E94F00500E010E08D2F82958F70082B8C
:10090000133011F0002331F08A300CF0895D805DE6
:100910000E94F00534E0CC0FDD1F3A95E1F71F5F30
:10092000143051F780E20E94F005DF91CF911F91C2
:100930000F9108950F931F93CF93DF93182F803A51
:10094000C8F5603AB8F5685C885C0E944601EC0125
:10095000812F0E942F010AB401FC02C000E001C0F7
:10096000082F0AB400FC02C010E001C0182F84E078
:100970000DB407FC02C08150D9F78EB5299A00004A
:100980002998CE010E946B050DB407FEFDCF9EB5E0
:10099000812F892B202F20958223909590239123BE
:1009A000892B80930901CE0169E071E041E050E0BC
:1009B0000E942506DF91CF911F910F9108958233F8
:1009C00008F051C0603308F04EC0262F269599E1FB
:1009D000299F90011124982F9695290F311D60FFB2
:1009E00002C098E001C092E080FD96950AB401FC37
:1009F00002C050E001C0592F0AB400FC02C040E020
:100A000001C0492FF901E95DFE4F8081803A21F054
:100A1000282F2877203121F4877887FF05C002C06E
:100A200080E002C02FE88227392F30953523242F0C
:100A3000252B2095232B2823352F3095392334233C
:100A4000232B942380959823292B23FF02C08FE822
:100A50002827322F305F832F90E0877090700097A7
:100A600009F4305F30830895F09B03C00E949A041C
:100A700008950E94DF04089578949F939FB79F93F1
:100A80008F93FF93EF93EDB7FEB7878186958250E2
:100A90000E942F01978194311CF480931D0107C09F
:100AA00094321CF480931E0102C080931F019F9119
:100AB00096839F9197838F919F919FBF9F91EF9175
:100AC000FF910895299881E00E94880581E40E94A1
:100AD0008805299A089523E02EBD0DB407FEFDCFA9
:100AE0009EBD0DB407FEFDCF8EBD0DB407FEFDCF3C
:100AF0001EBC089584B1817C8E6284B985B1817CED
:100B0000866085B98DB581608DBD80E58CBD089509
:100B10008EBD0DB407FEFDCF08951EBC0DB407FEBB
:100B2000FDCF8EB50895EF92FF920F931F93CF9351
:100B3000DF93EC010E947207E881F0E099819095C3
:100B40008081892380830C811D81EA80FB8007C01E
:100B500001501040F70181917F010E948805011525
:100B60001105B1F708851985EE80FF8007C0015097
:100B700010400E948D05F70181937F010115110539
:100B8000B1F7E881F0E080819981892B8083DF9142
:100B9000CF911F910F91FF90EF90089578948F93CC
:100BA0008FB78F939F9380911A018A9580931A0132
:100BB00071F0905E80FD9F5D98BD90911901089441
:100BC00097959093190180E228F480E303C080E0B8
:100BD00085BD82E084BD9F918F918FBF8F910895D5
:100BE00099270C943C04D7FD04C0FE018591219601
:100BF00006C021968DB587FFFDCF8EB58EBD0895B9
:100C0000EF93FF93E42FE52BE9F0FB017DB577FF30
:100C1000FDCF299A0000299862E06EBD7DB577FF6F
:100C2000FDCF9EBD7DB577FFFDCF8EBDF03110F0BD
:100C3000659101C061917DB577FFFDCF6EBD4150DB
:100C40005040A1F7FF91EF910895EF93FF93E42FA8
:100C5000E52BC1F3FB01299ADDCFC80170E050E01C
:100C60007D0197FF1BC06F936DB567FFFDCF299A7C
:100C70007F934F935F9329980E946B059F918F916B
:100C8000BF91AF9101C06EBD6DB567FFFDCF6EB571
:100C90006D930197C1F7299A6EBD0895FC01DB01A0
:100CA000CA0145914D930197E1F7089500C0299835
:100CB00000C02DC02EBD08942DC0FF91EF9120F4EF
:100CC0002197332444245524DF93CF93EF93FF934C
:100CD000C0911B01D0911C01EDE1F1E00D931D933A
:100CE000F8940281128278940D93F8940381128211
:100CF00078940D93F894008110827894F89411817F
:100D0000118278942DB527FFFDCF299ACFCF23E00C
:100D10002EBD889420911D0130911E01232B30910E
:100D20001F01232B3DB537FFFDCFDEBD30912001E4
:100D3000232B19F623E0AF3FB207A8F02DB73EB73B
:100D400028523040A217B30788F42DB527FFFDCFF6
:100D5000CEBD309111013639F79B59F02DB527FFE3
:100D6000FDCFCEBD08950AE814E605C006E914E6F5
:100D700002C001EA14E62DB527FFFDCF299A24E031
:100D8000F8942EBF2FEF2DBF78946E01AFEFB3E034
:100D900087EA94E6B0C0299A8EBD08956C0C7D1C3C
:100DA0008C0C9D1CA6014830510508F048E0641ADF
:100DB0007108841A9108A42E50E0C30169E071E023
:100DC00050DFC40169E071E04A2D50E019DFCA1814
:100DD000D10841F72CC04115510581F1903178F1CE
:100DE000703198F1DF92CF92AF929F928F927F9263
:100DF0006F926A013C014B018617970778F2A601B2
:100E00004830510508F048E0A42E50E0C30169E0E5
:100E100071E027DFC40169E071E04A2D50E0F0DEA7
:100E20006A0C711C8A0C911CCA18D10841F76F908A
:100E30007F908F909F90AF90CF90DF90089570310A
:100E400030F0FC01CB01BF01DBCE0BDF0895FC01CC
:100E5000DB01CA01EA17FB0728F061916D93019746
:100E6000E1F70895E80FF91FA80FB91F62916E937B
:100E70000197E1F7089529988EBD05D08DB587FFBC
:100E8000FDCF299A08956115710529F1903120F15E
:100E9000DF92CF92BF92AF926C015B016830710517
:100EA00008F068E070E0A9E0B1E017D0C60148E0C2
:100EB00050E0A416B50608F4A501A41AB50AC40E9C
:100EC000D51E69E071E09CDEA114B10479F7AF9002
:100ED000BF90CF90DF900895DC01CB014D93019737
:100EE000E9F708950DB407FEFDCF299A08950E94F1
:100EF0002B0AAFEFB3E0EC014424552480E090E0EE
:100F000029980E946B0581EE99E03C01D7FF52C001
:100F10008DB587FFFDCF299A23E02998F9DE32C0ED
:100F2000D7FF27C08DB587FFFDCF8EB5299AC80F93
:100F3000D11D87FF11C0DA95C415D50531F421966E
:100F400023E02998B7DE832D23C02E0123E02998C2
:100F5000DFDE49DE382E1CC023E02998D9DE12C01E
:100F6000CDB5C7FFFDCFCEB5299A23E02998D0DEB5
:100F700009C0FE01849187FDDA95C80FD11D1AC002
:100F8000D7FF18C021968DB587FFFDCF8EB58EBDDA
:100F90008A3420F4F301E80FF11D09942196DF93C0
:100FA000CF93D82F87FDDCCFCDB5C7FFFDCFCEB512
:100FB000299ACEBDFE01859121968A3420F4F30151
:100FC000E80FF11D09942196DF93CF93D82FC59197
:100FD000F1CFC8011E910E918A34910580F3DF9301
:100FE000CF93EC0193CF0D931D9310E000E0C8CF99
:100FF00090E002C0F8DD982F0D931D93F4DD8C0175
:10100000BFCF1E910E91BCCF012B1E910E9161F4AA
:1010100087CFF60131966F01CA14DB040AF480CF42
:10102000CF90DF90AF90BF90DEDDAACFF601E00F4A
:10103000F11F6F01EA19FB09F1271E910E91F7FDCF
:10104000EECFEECFBF92AF92DF92CF926801BE900B
:10105000AE901E910E9194CF7E916E914427069F83
:101060004001169F612D900C641F079F900C611D1D
:10107000179F712D600D741F8B018D929D9211240D
:101080007FCF11978E9111976E91F801F89400819E
:101090008023862B80837894112772CF9E918E9126
:1010A0007E916E918017910798F441E107C0881FE7
:1010B000991F8017910710F0801B910B661F771FF7
:1010C0004A95A9F7609570958D939D938B0158CFA4
:1010D0008FEF9FEFF9CF9E918E910823192350CF68
:1010E0009E918E91082B192B4BCF9E918E910827A4
:1010F000192746CF650144CF0D931D930F911F9182
:101100003FCF0D931D93EDB7FEB70181128138CF0C
:101110001F930F931E910E9133CF012B09F00FEF08
:101120000095102F2DCF002717FD0095102F28CFE9
:10113000109501951F4F9E918E91080F191F20CF7A
:101140009E918E917E916E915E914E91840F951F2E
:10115000061F171F8D939D9313CF109501951F4F59
:101160000FCF9E918E9190950095109581959F4FF0
:101170000F4F1F4F8D939D9303CF9E918E9112968B
:101180000D931D938C01FCCE0D931D93FD0138979B
:1011900000800D9201800D9202811381F1CE9E910B
:1011A0008E910D931D938C01EBCEFD0136978281BC
:1011B0009381028313838C01808194818483908343
:1011C0008181958185839183DBCE0D931D93D8CE4C
:1011D00042E068E003C041E069E088243EDDD701D9
:1011E000092D182D93CE60E144E037DDD7011D9322
:1011F0000D93032F122F8ACE41E0C8011E910E914C
:1012000008C02E913E9144E001C042E0C8010E9119
:101210001E9160E170E050E0F3DC1E910E910DB480
:1012200007FEFDCF299ACEBD71CE0D931D93860189
:10123000A7CE0F5F1F4FA4CEFE013196F695E7951E
:101240000994F801008111279BCE11978E91F80126
:101250001E910E91808394CE0D931D9300911201E7
:1012600010911301080F111D0895BDDCF5DFF80181
:10127000F89401911081789483CEB5DCEDDF9E91D6
:101280008E91F8011E910E91F89481939083789439
:1012900077CEC8017D010E943C04D701F09BB1CEFE
:1012A00060C0C8017D010E947204D701F09BA9CEE5
:1012B00058C0EFEDF3E0B8014FC0CF91DF9126CEDB
:1012C000015010405DCEE3E4F7E043C09E918E9163
:1012D00004C0892F99270850104008301105C8F71D
:1012E00002C0969587950A95E2F78C0149CE9E91AA
:1012F0008E9104C0982F882708501040083011059F
:10130000C8F702C0880F991F0A95E2F78C0138CE02
:10131000EBEFF0E0B8019E918E917D01E3DD099540
:10132000299885E08EBD1CC0E2E1F1E0F3CFECED41
:10133000F0E0C801F2CF7D01D5DD0E949E00D7010B
:101340000D931D938C01299885E08EBDDFCDEBEECA
:10135000F6E0A8017E916E919E918E917D01099596
:10136000D7011E910E91D2CDE4E3F5E0A4CFC801E0
:101370007D010E949305D701F4CF02CEC80141CE72
:101380000D931D938E0199CF02D001D096CF0D936E
:101390001D9329DC182F27DC082F0895E4E5F1E0E0
:1013A000D8CFE9E8F2E087CF0E948F02E4CFECEAE1
:1013B000F2E098015E914E91CDCFE4E6F1E07BCF73
:1013C00096CDDECD17CE05CE1CCE1ECE21CE21CEA3
:1013D0002DCE38CE41CE55CE61CE7DCE81CE85CEBE
:1013E00089CE8ACE89CE8DCE93CE97CE9CCEA3CEFB
:1013F000A7CEB3CEB6CEC1CED2CEE7CEE9CEEBCE1F
:10140000FBCE03CF12CF15CF17CF1BCF1ECF2FCFC1
:1014100036CF3FCF2ACF45CFE6CDEACD4ACF4DCF0D
:101420004FCF51CF2ACF52CF62CF72CF7DCF8FCF48
:101430009BCF9DCFA2CFA2CFA3CFA7CFAFCFB1CF0E
:10144000B3CFB5CFBACF74CE72CF75CFCCCED9CE05
:101450009BCF9ACEAACE8BE99AE608951F920F925F
:101460000FB60F9211242F938F939F938091260193
:10147000873009F03FC00E94720B809123018823BE
:1014800071F58091220187FD07C0809188009091BD
:1014900089008E52974E06C08091880090918900F5
:1014A0008654914F9093890080938800F09B0AC0E6
:1014B00080918800909189008051964F9093890087
:1014C0008093880088E08093260180912401909188
:1014D0002501019690932501809324018FC080916E
:1014E00088009091890081569F4F90938900809346
:1014F0008800F0C0843009F45AC0853050F481303F
:1015000069F18130C8F08230C1F1833009F0E2C066
:101510003FC0893009F49FC08A3038F4853009F41F
:1015200070C0883009F0D6C089C08A3009F4A4C0E0
:101530008B3009F0CFC0B2C08FE48093B30085E058
:101540008093B4008091880090918900845B9E4FC5
:10155000909389008093880081E0BAC089E48093E9
:10156000B400809188009091890080579E4F90939D
:1015700089008093880082E0ABC0809188009091C0
:101580008900CE96909389008093880083E0A0C064
:1015900085E08093B40080918800909189008A56FC
:1015A0009E4F909389008093880084E091C08EE9DB
:1015B0008093B3008BE08093B400F09B0FC080E178
:1015C00080932301809188009091890083509D4EE3
:1015D000909389008093880085E00DC010922301CC
:1015E0008091880090918900855F914F9093890048
:1015F0008093880087E08093260178940E94B50349
:1016000069C0809188009091890082509B4F90938F
:1016100089008093880087E08093260180916B0089
:10162000826080936B008091680081608093680085
:10163000D89A299B4FC02998299A4CC0809188003C
:10164000909189008D569F4F9093890080938800D8
:10165000109226013FC080918800909189004896A1
:10166000909389008093880080917E03869586956B
:10167000809323018AE02CC088E08093C100809190
:10168000880090918900209123014896820F911D36
:1016900090938900809388008BE01AC01092C1005B
:1016A00080918800909189002091230181599F4F5A
:1016B000821B91099093890080938800B09B07C09A
:1016C000B09A209880E889B98AB180588AB989E0AF
:1016D000809326019F918F912F910F900FBE0F90B5
:1016E0001F9018950F921F92EF93FF930F93AF9354
:1016F000BF93CF93DF93E4E8F0E000801080C081D7
:10170000D08103940081A081B081E081C01529F0CF
:10171000D01541F0E01579F40EC0101431F0A01589
:1017200041F407C0B01521F403C0001521F403C033
:1017300000C0000000C000918800025FA0918400FA
:1017400000C00000A017D2F3D0912301D03CA0F537
:10175000F39993C0A9E1BD2FB695B695B695AB9F09
:10176000A7E2B1E0A00DB11DD7701F9318E108E00A
:10177000F0E0E8E0F093C600E093C100ED91CE2FD9
:10178000EF770E9F0D0EE03130F0E6E3FAE1E00D69
:10179000F11DE49106C0EFE7F3E0E00DF11DE081FB
:1017A00000C0C7FDE095F091C000F5FFFCCFE093CD
:1017B000C60011501AF737C01F93F0910301A9E03A
:1017C000FA9FE02DF0E0D3FDEC5FA9E6B0E0AE0FAC
:1017D000BF1FE6E3FAE1CD2FC770D0E0CE0FDF1FC9
:1017E00010E0E8E0E093C100FD010491003108F44D
:1017F00000E2E8E0F02FFF77EF9FFE01E00DF11D22
:10180000049007FF0094F091C000F5FFFCCF009218
:10181000C60011961F5F143038F3D0912301DF5FAB
:10182000D03D48F409C0D0912301DF5FD03C20F0C7
:10183000F0912201F7FFD0E0F091C000F5FFFCCF5E
:10184000A0E0A093C100D03C51F4E0918800F09159
:101850008900E85DFF4FF0938900E0938800D09302
:1018600023011F91DF91CF91BF91AF910F91FF9114
:10187000EF911F900F90089500001F93F49B3DC0BF
:10188000A7E2B1E007EC11E0F801D3FD8D01D3FD33
:10189000DF01F0E0D770AD0FBF1FE4E1DE9FE8018C
:1018A000C00DD11D14E1E8E0F093C600E093C10043
:1018B0000DB507FFFDCF0EB50EBD0993EC9118963F
:1018C0000091C00005FFFCCFE093C6001A9581F798
:1018D000D0912301DF3A08F4A6CF0DB507FFFDCF65
:1018E000F29B0EB5D05F299AF49B05C09ECFC0E451
:1018F00005C0C0E203C0C0E101C0C8E0DC2FB09B5E
:10190000FECFB09ADA95D9F7349AF8CF0F930FB784
:101910000F9300912301003109F0EBCFF499E7CF49
:10192000F1982999F19A00916B000D7F00936B005B
:101930001F93AF93BF931F9211240DB5F29807FD2B
:10194000F29A299AF39AF49AA0E8B3E71BD000EA36
:10195000A7E2B1E01DB517FFFDCF1EB50EBD1D936B
:101960000A95C1F7D89A7894299BFECFF19B2998C4
:10197000F398F4981F90BF91AF911F910F910FBFF3
:101980000F911895299803E00EBD0DB507FFFDCF07
:10199000BEBD0DB507FFFDCFAEBD0DB507FFFDCF39
:1019A0000EBD08950E94D9028FEF8DBF0C9477076A
:1019B0000895E3002701000002002701270100002D
:1019C00000031005050E01050B648484840607845A
:1019D00084848484848406848484840784848484C2
:1019E000848484A02020159500A00115A0A00115D5
:1019F00095A020159500A00115A0A001A0202015FC
:101A000095A020A0159520A01595A0201595A020A3
:101A1000A0159520A0A02020159502A0A015952026
:101A2000A0159502A0159502A003159520A06B01A5
:101A3000A01802A003003F7FFFFFFFFFFFFFFCFE97
:101A4000FFFFFFFFFFFFFFFFFFFFFFFF7F3FFFFFE6
:101A5000FFFFFFFFFEFC00FF00FF00FF00FFFFFF96
:101A6000FFFFFFFFFF000F0F0F0F0F0F0F00F0F032
:101A7000F0F0F0F0F000FF80808080808080FF0038
:101A8000000000000000FF01010101010101808050
:101A9000808080808080010101010101010180803E
:101AA0008080808080FF00000000000000FF0101B6
:101AB0000101010101FF3F7FFFFFFFFFFF000F0F4B
:101AC0000F0F00000000F0F0F0F000000000FFFF3A
:101AD000FFFF00000000000000000F0F0F0F0F0FAE
:101AE0000F0F0F0F0F0FF0F0F0F00F0F0F0FFFFFA2
:101AF000FFFF0F0F0F0F0000000055AA55AA55AAAF
:101B000055AA00000000505050505050505055AA57
:101B100055AA55AA55AA0000183C3C1800003C7E66
:101B2000FFFFFFFF7E3C3E419CAC9F403F0000001A
:101B30008E9526C8F0000000000000000000001094
:101B400010101000100000242400000000000024E9
:101B50007E24247E240000081E281C0A3C08006203
:101B6000640810264600001028102A443A00000895
:101B7000100000000000000408080808040000200D
:101B8000101010102000000014083E08140000007F
:101B900008083E08080000000000000808100000C7
:101BA00000003E00000000000000001818000000C7
:101BB000020408102000003C464A52623C00001813
:101BC000280808083E00003C42023C407E00003CE1
:101BD000420C02423C0000081828487E0800007EA3
:101BE000407C02423C00003C407C42423C00007E83
:101BF000020408101000003C423C42423C00003C01
:101C000042423E023C0000000010000010000000B4
:101C1000100000101020000004081008040000004C
:101C2000003E003E00000000100804081000003CC8
:101C3000420408000800003C4A565E403C00003C5C
:101C400042427E424200007C427C42427C00003C98
:101C5000424040423C000078444242447800007ECA
:101C6000407C40407E00007E407C40404000003C84
:101C700042404E423C000042427E42424200003E10
:101C8000080808083E000002020242423C000044EC
:101C90004870484442000040404040407E000042BE
:101CA000665A42424200004262524A464200003CAA
:101CB000424242423C00007C42427C404000003CA8
:101CC0004242524A3C00007C42427C444200003C7A
:101CD000403C02423C0000FE101010101000004278
:101CE000424242423C00004242424224180000412B
:101CF000412A2A14140000422418182442000082A9
:101D0000442810101000007E040810207E00000EF1
:101D1000080808080E0000004020100804000070A9
:101D20001010101070000010284400000000000087
:101D30000000000000FF001C227820207E00000030
:101D400038043C443C000020203C22223C0000009F
:101D50001C2020201C000004043C44443C000000E3
:101D6000384478403C00000C10181010100000009F
:101D70003C44443C04380040407844444400001053
:101D8000003010103800000400040404241800205F
:101D90002830302824000010101010100C00000013
:101DA00068545454540000007844444444000000F3
:101DB00038444444380000007844447840400000EF
:101DC0003C44443C040600001C202020200000006D
:101DD0003840380478000010381010100C00000053
:101DE00044444444380000004444282810000000C3
:101DF0004454545428000000442810284400000093
:101E00004444443C043800007C0810207C00040852
:101E10000830080804000008080808080800201016
:101E2000100C1010200000142800000000003C429C
:081E300099A1A199423CFFCFEA
:101E38006A9B0000006B65726E001C161C6ADE014E
:101E48005E5A161D1B15040A1C2C08321B2C08335D
:101E58000D2E1A36010161706304661066356DE750
:101E68007200619E604E63BD76277BA27CB67C5271
:101E78007B627BBC7B517C8E037F5E3A8065786594
:101E88006300825E82806900A15E8B806C656176EA
:101E980065008F5E9180616E64008C5E9B806F72BE
:101EA800008D5EA380786F72008E5EAA803E3E0031
:101EB800B25EB2803C3C00B35EB9803B7300AE5E5C
:101EC800C080723E00915EC7803E7200935ECE80F5
:101ED8007200925ED580303D00945EDB80303C001D
:101EE800955EE2802B00965EE9802D00C25EEF8051
:101EF800642B00975EF5806E656700985EFC8064D1
:101F08006E656700995F04806F766572009A5F0D51
:101F18008064726F7000835F168073776170009BB6
:101F28005F1F80647570009C5F288040009D5F3053
:101F3800806340009E5F36802100A05F3D80632162
:101F4800009F5F4380644000C55F4A80642100C6EB
:101F58005F5180752A00895F5880752F008B5F5FFD
:101F680080656D697400A85F6680706C6F7400B7D7
:101F78005F6F80312B00A25F7880636D6F7665009C
:101F8800B65F7F8066696C6C00B05F89806963406A
:101F980000A45F928069632100A55F9A8069400070
:101FA800A65FA280692100A75FA9803E706F727446
:101FB8003E008A5FB08073706900B85FBB80312DC6
:101FC80000AF5FC380617400AD5FCA802E6865781A
:101FD80000AA5FD18074696C6500BD5FDA80626CAD
:101FE8007400BE5FE38032626C7400BF5FEB806296
:101FF8006C747300C05FF480636C697000C15FFD2E
:10200800802A000903600680322B002222600D809E
:10201800732D3E64001C156015802D31002B2F6038
:102028001F80322A001C166027006C6F6373001132
:102038001B6225261B181A161C622527621C2613EC
:10204800621C2713132E111111621C276225270306
:102058002E602F406C6F633B006566604E65762E80
:10206800633762C71D6576622E26131369011162F4
:10207800C720622E26114201648164C563372E6031
:1020880059406C3E002C2960682E6087403E6C00E9
:102098002C3160682E6092006B6579000160BC622B
:1020A800131C261B22222416708B2E609D00696E3D
:1020B8006B65790023007D010E94D3039927D7011E
:1020C8000D931D938C01CF91DF910E9488060C948B
:1020D800860701003E242C010C2E60B300636C734C
:1020E800002B2B2D60DA040F2CA02CA04101F380CB
:1020F800010C802B050861F90102582C20302E6054
:10210800E20069270023C501DBCF61070063720085
:102118002C0D282E61120074797065006374040C0C
:102128001A161B08211E2806FC0502032E611C0036
:1021380073706163650061EE282E6135007370610C
:10214800636573002B6B05637404072B08613E06F7
:10215800FD2E050328221C1E1C1404F9032E6142BF
:1021680000222E00615A032E11615A22132E2C22AE
:102178006760631266CF22631F2E6166402E2200BD
:1021880062C71D040965666170617605092C2267BE
:10219800606312616C2E111C1D1322222E61824075
:1021A800220062C71D04126566619E63122B6329B3
:1021B800617663121B20050361762E61A5007661A6
:1021C80072002C3B050C61C300636F6E7374002CA6
:1021D8003C686263122F1F63292E61CE803000ABEA
:1021E80061E200626C003C002061E8007672616D7B
:1021F800003C012761F100636C6F636B003C0124B4
:1022080061FC0073797376617273003C01066208A1
:10221800007366003C01126216007270003C005D9B
:10222800621F007370003C001A622800737030004F
:102238003C03FF7CFA0001FFFFFFFF0000000000E5
:102248000000008080002B000A8020623100637546
:102258007272656E74003C80006253007761726E22
:10226800696E67003C80026261006D61726B657225
:10227800003C8004626F00746F70003C8006627CD2
:1022880000626C6B2A003C8008628600626C6B738B
:102298002A003C800A629100626C6B23003C800C2F
:1022A800629D00667061727365003C800E62A800D2
:1022B8006470003C801062B5007374617465003C02
:1022C800801262BE0062617365003C801462CA00BD
:1022D800686C64003C801662D500746962003C80BA
:1022E8001862DF006C617465737400625E1D2E6293
:1022F800E9002B21001B1A1D161B202E1A1E0E1B6F
:102308001F2E62F700686572650062BB1D2E630AA6
:1023180000616C6C6F740062BB62FD2E6316002C4A
:10232800006312202C02631F2E632400632C0063B9
:10233800121F2C01631F2E6331803D004214633F3E
:10234800803C0042156346003E001B42152E634D3B
:1023580000726F7400131B111B2E63568032647554
:1023680070001A1A6362003F647570001C04021C36
:102378002E636C00753C002B1B2B19171B032E2C8E
:102388003F242C020C1404F81C2C08322C42252C57
:1023980041252E6379006563400063872C0101FFA6
:1023A800FE2C3F0A032C40242E639B00656321000A
:1023B80063872C402523F894FA9AF99A789483CE67
:1023C80063B100656D6F76653E002B081A63A21A2B
:1023D8001F1B221B2206F603032E23008BE193E02A
:1023E8007D010E94F503D7010C945D0963C8006C58
:1023F80066613E6366610064221C643F1B1E2C807C
:102408000C040C1D1C1504072C08322C7F0C2E63A1
:10241800F4006C66613E6666610022222E64170035
:102428006C66613E6E6661002C03162E642500669C
:1024380066613E70666100221C66CF16222E6434E7
:10244800003E6C66610062F305021D1A1A637F1470
:102458001A1D140D04F51B032E5768617427732089
:10246800004D69736D6174636865640057726F6EBF
:10247800672073746174653A00426164205265662E
:102488003A00537461636B20456D7074790053741E
:1024980061636B2046756C6C00427265616B00610C
:1024A8006C613E6170696E200021644E6430616C1D
:1024B80069BE2E6446003F6572726F72001B041E6F
:1024C80062C71D040F6170496E200062F3643061B9
:1024D8006C613E616C613E6312616C69BE032E647F
:1024E800BB003F636F6D700062C71D1401647464A4
:1024F800C52E62C71D01647464C52E64E7003F7071
:1025080061697273004201646964C52E6503403ACB
:102518000064FA686201FFFF631F65802E6514403E
:102528003B006566002E65762E652500696D6D6534
:1025380064696174650062F364222C4063042E654B
:102548003100782C001C01FF000C040563290503E9
:1025580063372E654700636F6D70696C650064F0C2
:10256800111C1D654D2222132E655B405B002B62FA
:10257800C7202E6571005D002C4062C7202E657B48
:1025880000736D756467650062F364222C20630430
:102598002E6586003C6275696C64730068622B6303
:1025A800372E659940646F65733E000165BD6329E8
:1025B8002C1063372E1162F36422643F202E65AA23
:1025C8004028002C2967602E65C600686578002CB5
:1025D8001062D2202E65D000646563696D616C005D
:1025E8002C0A62D2202E65DD0064696769740013C5
:1025F8002C30422C091A4215040A2C07421C2C0ABA
:1026080042150D1C11637F2E05141B62D21D090390
:10261800635D62D21D09171122111C1516131C13B4
:102628001E62D21D65F71404E20311112E131C1E3D
:102638002C2D42141B1A422B2B635D1166101A1E97
:102648002C2E42141A0C0407181B221B6610131395
:10265800635D04021911112E65EE006E756D6265D9
:10266800720062D21D131C1E2C244214040465D768
:10267800222C0166351A1E2C644214040703222CEE
:102688000205151C1504111B1C1E2C654214422B37
:102698006635031B037A4E1B1E140C1162D2202EC2
:1026A80066600063496E2200131A1815161A161C64
:1026B8001E1C1242141B140D04F411031B032E6676
:1026C800A800226C656E002C011A2B66B01B422EE6
:1026D8001C1E1C140437031C628E1D0102001642C6
:1026E80014042762A51D0422628E1D010100161C18
:1026F8007420420101003662A51D221C62A52077C4
:102708002A1B7420421B7420421C1E142E66C7000C
:1027180022736B6970426C001C0502221C1E2F2C50
:10272800E00C04F866D804F21B032E671500656EEA
:10273800636C6F736500131C0502221C1E1C2C0E93
:1027480042151B1242140D04F266D804EC11032E34
:10275800673300776F72640062E61D67201B673E6F
:102768001C1C1E14144262E6201A421C1363121B1E
:10277800362B116312161F2E675800223C3E0005A7
:1027880006031B221B221A1E1C131A1E421C11149C
:102798000D04EF1B031C151B1815421B1E142C08D7
:1027A8000C332E678040617363002C2067606312CE
:1027B8001E62C71D04072C2C633763372E67AB00D6
:1027C8002221001A66CF22362E67C500222B001C54
:1027D80066CF1667CB2E67D1002263757400162B5F
:1027E8001B1F2E67DE002266726F6D001A66CF6AA5
:1027F800F5162E67EB006172720065A41C16631F44
:1028080065BD101A16162E67FB0062797465730091
:1028180065A4631F65BD10162E680F0066696E6497
:102828000061EE6760631262F31C64221E2C200CA8
:1028380004021D0505110311031C131A1A643067DD
:102848008714131D1C14120D04EC030311110C2E14
:102858006821006372656174650062F3632963121D
:102868002C0242625E202B633761EE67606312665A
:10287800CF22631F01003B63372E6858405B636FAC
:102888006D70696C655D0068291C142B64C563FF55
:10289800654D2E6882406C69746572616C0062C710
:1028A8001D041E637404161C01FF000C04082C018F
:1028B800633763292E2C2C633763372E2C2B633711
:1028C8002E689B40646C69746572616C0062C71DF8
:1028D80004061B68A668A62E68C9006279650011FF
:1028E80003050568E04000110311032E68EB006939
:1028F8006E746572707265740068291C042F1C64FC
:10290800221E2C7F0C62C71D4215040763FF654D0C
:10291800051963FF1C014A004215040E1C01010938
:10292800252C0832020101092402051F03631266DF
:102938006A1C14040903631201646164C52C014212
:102948001404060368A6050368D52E68F4002272ED
:10295800756E00690105FD2E695300746F702100C2
:1029680001FFFF1C131E2B121F019FFF1C1E1A12B2
:102978001B1F1A121E140D6283201B1F111F2E69A4
:102988006000636C61696D0022221862831D1C134C
:10299800161C628320111A2022222E698700726574
:1029A800636C61696D002C02421D6283202E69A34D
:1029B8000071756974006238622E270104FF622570
:1029C80027657661180180201C62E62073FD2C01C2
:1029D80062E662FD695B62C71D14040661704F4BB5
:1029E8000005E169B60061626F7274006238622E98
:1029F800270104FF622527696865E861182B6EA026
:102A08002C016E4061704649476E6974696F6E208B
:102A180056312E302E310D7F6E696368656D6163A6
:102A280068696E657320323031312D323031340DA2
:102A38000062831D6312426D1B6170627974657355
:102A480020667265652E0069BE69EB00706175735A
:102A580065001C6ADE620526161A15040A010111B2
:102A680024040403032E1C620526421504EC030308
:102A78002E2B161B221C1E13221A1A1B1236111675
:102A88001B1A1E63741404EB03032E6A5100636F50
:102A98006C640001623B0180002C18366E7760E997
:102AA800011A3601037F2C80360119C00101EF6A33
:102AB8007901FF9C6A5A69F46A93002B2D0015046A
:102AC80002182E6AC000642B2D00150402192E6A04
:102AD800CB00616273001C6AC62E6AD7006461620B
:102AE80073001C6AD22E6AE2006D696E001A1A63BE
:102AF8005204021B032E6AEE006D6178001A1A4216
:102B08001504021B032E6AFE006D2A001A1A0E1302
:102B18006ADE1B6ADE09116AD22E6B0E002A2F6D3F
:102B28006F6400136B14116B432E6B22002A2F0065
:102B38006B2B1B032E6B32006D2F001A13136AEADE
:102B4800126ADE0B11120E6AC61B116AC61B2E6BA7
:102B58003D002F6D6F6400131C15116B432E6B57CE
:102B6800002F006B5F1B032E6B66006D6F64006B9C
:102B78005F032E6B70006D2F6D6F6400132B120BAB
:102B8800111B130B112E635D650D633763124263CE
:102B9800372E6B7B406966006566000463122B6301
:102BA800372C022E6B9A407468656E0064F02C0214
:102BB800650D63121A421B1F2E6BAC40656C736562
:102BC800002C02650D6566000563122B63371B2C0C
:102BD800026BB42C022E6BC140646F00656600085E
:102BE80063122C032E6BDE406C6F6F70002C062C6A
:102BF800036B8E2E6BED402B6C6F6F70002C072CC7
:102C0800036B8E2E6BFC40626567696E0064F0632F
:102C1800122C012E6C0C40756E74696C002C042CFF
:102C2800016B8E2E6C1C407768696C65006BA02266
:102C3800222E6C2C407265706561740013132C058C
:102C48002C016B8E11112C02426BB42E1A421411F6
:102C58001B04071B03222205021D132E6C3A006871
:102C68006F6C640001FFFF62DC62FD62DC1D1F2ED9
:102C78006C64007061640063122C43162E6C78003B
:102C88003C23006C7F2B1A1F62DC202E6C850023EE
:102C98003E00030362DC1D6C7F1A422E6C940073A5
:102CA80069676E00635D1504052C2D6C6C2E6CA491
:102CB80000230062D21D6B84635D2C091A4215043F
:102CC800042C07162C30166C6C2E6CB6002373007F
:102CD8006CBB1A1A0D1404F92E6CD200642E720003
:102CE800131B1A6AEA6C8B6CD86CAC6C9A111A427A
:102CF800614C61242E6CE100642E002B6CE8613E6F
:102D08002E6CFD002E7200131C15116CE82E6D0937
:102D1800002E001C156D032E6D16003F001D6D1B47
:102D28002E60E961704C6F6164696E67200062A56E
:102D38001D6D1B2E6D20006C6F616473001B628E0D
:102D48001D1362A51D1C1404142B010301699001B5
:102D58000100161C628E20010200161F62E61D1378
:102D6800131B2B08628E1D62E6201C62A520772AA1
:102D78006D29695B62A51D2206EB03111162E6202D
:102D88001C62A52063740407772A6D29050A628EE0
:102D98001D0101004269AE11628E202E6D3C006C4F
:102DA8006F6164002C016D452E6DA4006370001BDB
:102DB800772A774F60E92E0101062661F901023E64
:102DC8001663522E6DB1006D6F7265006DBF040FF2
:102DD80061706D6F72653E3E0060A40360E92E135A
:102DE80012021A1A643067872CFF0C1404081C643A
:102DF80030616C613E1D63741404E60311032E6D8B
:102E0800CC40766C6973740060E92C2067606312AB
:102E180062F3016DD46DE72E6E0700666F72676509
:102E280074006829637404091C1D625E2062BB205B
:102E38002E6E200070656E0001004A252E1C221E91
:102E48001A1E2522221C1E1404F4032EB033B10AC4
:102E5800B200B39EB40B8000810285008400890013
:102E6800880B6F02C2C0C100C500C4014300002C1A
:102E7800832C43252C0A2CFE2C2A0A032B2CFD2CF0
:102E88002B0A032C0801012625016E546E452E6E6F
:102E98003900766D6F6465002C610C2C43240403A3
:102EA8006E772B6A5A1C2C9E01003E0A03140403F9
:102EB80060E92E0000000000FE0000000000000095
:102EC8000019001300BC606E970061743E002C1955
:102ED80009031661F9162E6ECF00637572736F724F
:102EE80000010108240101062661F9422C196B6BC7
:102EF8002E6EDF00636C426F780013136ED6111BC1
:102F0800112B081A1A1B2C20302C191606F603034D
:102F18002E131A1B1166B01B15422E1B15161E2EDA
:102F280001FFFF1A2C0D6F194229136B772E131A04
:102F38001514120C131A1A2C0D6F191A421C6ADE7A
:102F480029132F1142635204181C6ADE29136AF5EB
:102F58001B6AC61B1A161B6ADE1116291342054482
:102F68001C13161A131A1A6F231C1414110C1304A9
:102F78002C1A16111103131A1A2C0D6F191A426AFA
:102F8800DE635D15040929136B771B1A421B116355
:102F98005D635D116AF51B1A161B05081B03111BDF
:102FA8001111162E290D29034215041729091C226F
:102FB8001A1829011622290D221C310D16361C2932
:102FC800091F032E1A131C131A1315141329136A35
:102FD800F5111B1304051A1A12362C19161B121692
:102FE8001B1118111611221A141A29152F63520DC4
:102FF80004D51B03111C29136B771312140C040737
:103008001B2C19161B221C29152242151A18150CDF
:10301800040F1A2C1942121612182913162C2030D4
:1030280011032E290122290F2911290B426ED629B5
:103038000B181305191A1C2C011B2C0D66B01B420A
:10304800116FCC131B1C1E2C0D4214421B1A1E148C
:103058001229152F63520D04DD03031129151A6374
:1030680052041113290F1229111629132915114277
:103078006F022B032E2917290F2905162911290755
:10308800166ED61C13241B6205261C6205264215E3
:10309800041060DA14040812242C800E12252C3235
:1030A800161A02637404E41B031B031B1160DA1471
:1030B8000403252E03032E2F1A6AF52B6B051B1A02
:1030C800422E31053109290716291570BF1C290B15
:1030D80016310B1B31072E290929056F3670CA2EA8
:1030E80029091A1A6F231C042F2C0D421404141AD0
:1030F800161B1504091C6F2801FFFF05042B2C0162
:10310800050F1A161B2905162913162B29130B2F21
:10311800635D635D70CA2E0303032B2E6FAC2C0115
:1031280070E8032C012E29092F2901421C041913C8
:1031380029091C2F290D11422201FFFF70E80336CF
:10314800290D2F310D2C012E290972B72B2E2B6238
:10315800791D1C221B1E14140C04130362791D1CF8
:103168001C2909421516222272B71E71242E2C071B
:103178006C547180712E056C2C086C54718D01FF94
:10318800FF70E8055F2C096C5471992C0170E805F3
:10319800532C0A6C5471A52C0170DF05472C0B6C5D
:1031A8005471B201FFFF70DF053A2C0D6C5471BEEB
:1031B8002C0D7124052E2CCD6C5471C8715005242A
:1031C8002CC36C5471D27156051A2CAB6C5471DF38
:1031D800032C8D2C01050D2CA06C5471E92C0105D4
:1031E80003032B2E1C2C0F63521A2C8042150C043F
:1031F800057124050371762E0403702B707D1C71F4
:10320800EC1B2C8D421404F12E1C2C2F63521A2C0B
:103218003842150C040F2C304229091E2C03330D9B
:1032280029091F2B032E016EBB010112262C05163E
:103238002C143631031C31012231092E2C09322E6F
:103248002C122C131A1A2D2C07614C2D6170436D0A
:10325800643F0060A41C282C776C54727A60E929BA
:1032680019290122290D0101FF16724477D7032B72
:1032780005352C246C5472932C122C132D61702854
:103288005368656C6C290069C9051C2C7A6C5472EA
:10329800AC2B2901221C31091F2B310D2B31052B99
:1032A8003107050372112E6EF9006D61726B0062B1
:1032B80079202E6DBF040311112E61F90101F41656
:1032C8000100642C20302B2C142D2E60BC1C045FB4
:1032D8001C2C1142151A2C2042140D040C291B0415
:1032E8000372C22B311B05471C2CA042140425294C
:1032F8001B041B61F90101F316291B1663124222F4
:103308001C241C7124032C20421404F4036312317E
:103318001B051C291B0418291B1A1A1F2B1A221FEC
:1033280022311B72C2631262F30172BB6DE72E7207
:10333800AF0065646974002C1C603762831D6312DA
:1033480042010142427420180C1C69901B2C024255
:10335800722E29012B1A200172D331172B311B1A17
:103368006ADE31192229037244779E032B29012929
:103378000316221F29091C1E2CFF421404052B29A1
:10338800012066CF310D2B2C132D6170426C6B3AE6
:10339800200029192C046D0F613E61704C656E3A4E
:1033A80000290D2C056D0F2C2F2829032C056D0FD6
:1033B8002C0172001C040372481404CB290169AE65
:1033C800604E733700626F786564002C186037139D
:1033D800131A66CF13722E11310D111131153113D5
:1033E8006EE93111310F2C017200604E73CA007101
:1033F80075657279001363E26EE92B2C142D112B7D
:103408001A202C4F2C192C0473D3032D2E73F4007F
:10341800626C6B73697A65003C0200440120136C8E
:1034280054743001010005190130136C54743B2C9D
:1034380080050E0130146C5474462C800503032B50
:103448002E440120136C54745601010005190130F3
:10345800136C5474612C10050E0130146C54746C88
:103468002C100503032B2E440120136C54747C018B
:103478000800051B0130136C547488010800050FFF
:103488000130146C5474940110000503032B742349
:10349800422E2C01322E013FFF0C1C167423162ECF
:1034A800746F749A2E746F744942749A2E013FFF98
:1034B8000C746F1A1A2F63520C421C167423162EA2
:1034C800741500666469736B0044012013427449E3
:1034D800746F7423162B081A1A212F0C140D21143B
:1034E8000D212C1042140D212C2042140D212C40AA
:1034F80042140D04092B2C142D212A21432C1007CA
:10350800D703032E1A16162E74A82F13122C07325F
:10351800161A34112C7F0C1B750C262E1C2B7510BB
:1035280001FFFF42141B1A042174A82F2F2C7F0CB3
:103538001A750C2601FFFF4204101B031C01001022
:10354800751001FFFF4214141B032C100C2E0101EF
:1035580000162E75561A1616262E1A7524040501FD
:1035680040000E1C013FFF0C2C07321B0140000CD1
:1035780014142C100C161B1A1B342E23F8019E91C0
:103588008E917E916E9111974E915FEF21913191BD
:103598002F3F350729F48D3F950741F40CD006C01D
:1035A8002617370709F407D0415081F714968D93F1
:1035B8009D930C9467302C919E918E91241B820FC1
:1035C800911D1296089501FFFD13131374A82B1A69
:1035D8001A013FFF0C224215040901C0000C0140EA
:1035E8000016121A7562031A1A013FFF0C422C804A
:1035F8006AF511111B111B75831B131B13131B1A5F
:10360800161B2F1C1612162601FFFF42141A0180E2
:1036180000637F140D04B9030311031103112E7500
:10362800CE749E2E1C0140000C0407013FFF0C05C0
:103638000C1A1B76271A75561A221B341B1A1B34B0
:103648002E1C74AD637F141B74492F749A0C140CD0
:103658002E1A01FFFF75CE1C746F749A013FFF1676
:10366800637F14040B131A752443110140000E13D1
:103678001A1201007F0C1A750C1B117562132711A1
:103688001B352E7449749A13746F749A12421A0176
:103698003FFF0C1A637F140406181A160509031C49
:1036A80012160140000E131A7556111B1A75620383
:1036B8001B74B51A74B5111B131B1A2B0813131A94
:1036C8001A131201007F0C1A755B1B1A1A1B75CE90
:1036D8001C114214111A0C13041E749E1A1A1B345E
:1036E8001A111B121B3513221A34111A12221B35F8
:1036F800131B76592B2B2B030303221111222206AD
:10370800BD1143031B031B032E628E1D6374140437
:1037180009742069901C628E202E74C800626C6B3C
:103728003E0077111A15040A2B1B742063D2030577
:103738000E1361F91B762C0361F9117420362E776C
:1037480022003E626C6B001361F91C01FFFF7627B3
:103758001A628E1D1B7420361A1A1B351C01C000F4
:103768000C014000420422221A7556351C11765964
:103778001C01FFFF75CE1C76491C0406031A1A7635
:103788008B1B031404EB032E030311032E7747004E
:10379800626C6B733E00628E1D131B628E202B03BE
:1037A8001A772A1B221B2F1C14628E1C1D0101FF75
:1037B800161B1A221B201E141B1A0D04E3130303E5
:1037C8001111628E202E7795003E626C6B73006239
:1037D8008E1D131B628E202B081C774F22010200BE
:0E37E800628E62FD06F40311628E202E000038
:103800000C94C03FE150204030400040E0952095AE
:103810003095009508950F01F701700109019B0192
:10382000B00108018A01A001112408950695379579
:103830002795E795089581E0E8943E912E91F12F28
:10384000E0E80E0F0E2BE0E0111F19F40F770EF0D9
:1038500020FB0895EBDFEADFF7FDD4DF0895DBDF1F
:10386000069537952795E79513951517C8F3B9F77A
:1038700008959927E0DFFF2EEE2EB901A8011E91D1
:103880000E91DBDF0895FF25150F911D1F5791093C
:1038900008951124F6F004C0EE0F221F331F001FFD
:1038A0001150904007FFC2F71F5F9F4FEE0FE0E0FF
:1038B000211D311D011DC0F3992351F4112351F035
:1038C000000FFF0F179507952D933D930C946730CC
:1038D0000AF0689411270027980120F9EE27F4CF09
:1038E00077CE00662B002300C4DF6EF0BEDFB2DFB0
:1038F00092DFB0DFEE0D261F371F041F1E5F9F4FA4
:10390000F02F07FD7FDFC5CF78E000662F00230092
:10391000B0DF01F35030E9F25095B5DF87DF7BDF90
:1039200085DF79DF81E208C0FF1C001C111C551FD8
:10393000EE0F221F331F001FEE152607370704075F
:1039400020F0EE19260B370B040B8A9569F7EF2D43
:103950009001052F5BDF9DCF790800662A002300C8
:1039600088DF91DFEE245527FF24F07FF66088275B
:10397000EE2DE52E5F2DFF24269FE00DE11C581F44
:10398000F81E279FE00C511DF81E249F500DF11CBE
:10399000232F302FFA95F2FDEBCF2E2D352F0F2D43
:1039A00078CF795800666E656700230010588ECF77
:1039B00079A200662D0079AA78E62E79B08032646B
:1039C000726F7000030379BB80326F76657200C836
:1039D00079C680327377617000C979D080643E7295
:1039E00000131379DA8064723E00111179E30064E8
:1039F0002C001B632963292E79EC0064303C001BEA
:103A000003152E79F800663C0079B679FF2E7A030B
:103A10000066696E740023000EDF5FE926DF1CDF9D
:103A2000ED932D93102F032F51CF7A0E00666C6FFC
:103A3000617400232E91EE91302F012F1FE99927F9
:103A4000E8945ECF470000400047000041A01316F5
:103A500022137A337A4412040C126ADE2B087A4954
:103A6000795E06FB11150405790E0503795E1101D7
:103A7000FFFF2E2B2B2B2C272B0803211303031ABC
:103A80001A13137A49795E48487A0904020F111112
:103A90001106E813490303112E7A2A0023666400F5
:103AA000131A1A7A161A2C3016121F7A3379B67A2C
:103AB00049795E11222E7A99002366001A1A0D04A4
:103AC000187A4448487A091C13040A030301FFFFCB
:103AD00001419F497A7305071A1A2B2C01132B6C8D
:103AE000BB6CBB03032C2B12151C16426C6C2C6593
:103AF0006C6C1104064903030503790E62DC01FFB7
:103B0000F81A62FD1D7AA02C2E1A1F222C062B08F3
:103B10007AA006FD032E7AB600662E001B1A017FDE
:103B2000FF0C6C8B7ABC6CAC6C9A6124613E2E3CB1
:103B3000037F2C09010126252E2C832C4325036E9F
:103B4000772E2CBF2C6D0A032E01038C2C222B30D8
:103B50002E23C8017D010E941E3FD7018C010C94C9
:103B600067307B322B2C44251C2C023222222C4520
:103B7000250119B27B2F2C10361C7B2F2C07162504
:103B80002CE31B2C030C327B2F252C042CFB2C68E4
:103B90000A032C407B427B492B7B51637404FA7BE4
:103BA000492E2300C8017E916E917D010E940F3F36
:103BB000D4CF54617065203A2D2820002B7B422BF6
:103BC0007B397B2F2C0D162642017BB264C52E7BE0
:103BD0001600656172007B621C242C024214042EC4
:103BE0001C2C0316261B2C011626136374140409BF
:103BF00062831D122C063342122B08217B51637401
:103C000004081A2C40362C401606F103117BBC2EFA
:103C10002300112768E01195000F10406A95D9F72D
:103C20009ECF1B1301011A242C08421504F71C0116
:103C30000119257C101A1A0E1C1116152C800C2C3B
:103C4000100D2C0F01011A0A0315141C162209036A
:103C5000162E2C06331A161B0801C0002B2F212C00
:103C6000401621081321241C137C222B11117BA246
:103C700006F32C052B0813127C221C14140140009F
:103C80000C112C083206F003032C4007CD2E2B2CF0
:103C90006E252C45252B7B392E032C402CBF2C2A3E
:103CA0000A032C422C44252C037C8E2C372C4725D0
:103CB0002B01011A252E7C9960E9617053746172A1
:103CC00074205265632C20686974206B65792E001E
:103CD00060A4037B322C022C6E257B2F131225123D
:103CE0002227122C0316272C22676063121C66CF32
:103CF00022122C05161B362B112E7BCF006D69630B
:103D000000131A4201003F162C06321A1A2C021117
:103D10007CB62C017C521B2B081A212C0633167BF7
:103D20002F2C40367B2F2C017C5206EE03032B7C7C
:103D30008E2E00001F920F920FB60F9211242F9318
:103D40003F938F939F93AF93BF93EF93FF9326B5CA
:103D5000809168008B7F809368007894EFE7F3E0B0
:103D60008181322F381B21838081982F96959695DB
:103D7000920F97BDA99A90818695890F879590E4B7
:103D800090931A0190916E00926090936E009581CD
:103D900021E0831708F420E030937E038481823091
:103DA00099F0833018F4882331F023C08B3079F0F8
:103DB0008C30F9F425C0903118F0213009F51DC080
:103DC0002223E9F49F5F1CC084E0821B19C0990F75
:103DD000922BA281B3819D93808591858E5B9F4FAD
:103DE000A817B90711F480E001C082E0B383A28371
:103DF00006C0990F922B8F5F03C083E001C090E053
:103E000084839583FF91EF91BF91AF919F918F91A3
:103E10003F912F910F900FBE0F901F9018959C010E
:103E2000832F922F862730E1389F8125389F902558
:103E300020E2289F8025912511240895AF92BF92FA
:103E4000CF92DF92EF92FF920F931F93CF93DF9366
:103E5000082FCFE7D3E0C884D9848C818823E9F385
:103E60008C818823E9F7EA81FB81B290A2908A8550
:103E70009B859C0120503F4FE217F30708F0FC019F
:103E8000FB83EA83F987E887760110E08FEF9FEFE5
:103E9000F70161917F010E940F3F1F5F1034C1F74E
:103EA0008A159B05D9F4202F26952695269507700F
:103EB00081E090E0382F01C0330F0A95EAF7FE0148
:103EC000E20FF11D2785832F822329F48D859E859E
:103ED00001969E878D87232B278702C0CC24DD2463
:103EE000C601DF91CF911F910F91FF90EF90DF906E
:103EF000CF90BF90AF90089578948F938FB78F93A2
:103F00009F9380911A0186FD22C0982F9F71903156
:103F100029F487504AF48AE090EC06C09F709830EC
:103F20009BB511F490911901990F9BBD96E108F092
:103F300097E397BD90937E03982F81509F7011F067
:103F400080931A019F918F918FBF8F910895897FE0
:103F500080931A0180916E008D7F80936E008BB3E9
:103F600084608BBB80916800846080936800EACF96
:103F8000F0E1F7B9EFE0E8B90EE204B90EE205B9E5
:103F9000579A5F983196F1F730990994449A32997B
:103FA000FBCF02E50CBD2A9843E04EBD1AD0E0E2FB
:103FB00018D0EE2716D015D032974FE730E432965E
:103FC00010D0012C0ED051E012D03A95C1F7349A9E
:103FD00053E00DD055E00BD04A9581F751E107D061
:103FE000D9CF2DB527FFFDCF1EB4EEBD089507B77D
:0A3FF00000FDFDCF57BFE8950895CE
:00000001FF
:000000