:100000000C94D4020C94E6020C94E6020C94E602E2
:100010000C94E6020C94E6020C94E6020C94E602C0
:100020000C94E6020C94E6020C94E6020C94311057
:100030000C94E6020C94E6020C94170C0C94E60265
:100040000C94E6020C94E6020C94E6020C94E60290
:100050000C94E6020C94E6020C94E6020C94E60280
:100060000C94E6020C94E602080B0907000A200D26
:10007000080B097F000A1B0AD2313233D234352DE6
:100080002EDE2C213AAB3B2261627363646573669A
:100090006D6E6F7A7071727AC3363738C339302B10
:1000A0002ACD2F2428CD293D676873696A6B736C4C
:1000B0007475767A7778797A007C40230034352D10
:1000C0007F00253F7B007D274142534344455346F3
:1000D0004D4E4F5A5051525A0036373800393C3E37
:1000E0005E005C605B005D26474853494A4B534CB9
:1000F0005455565A5758595A10050520202020208B
:10010000202020202020052020202020202020200A
:10011000208484840607848484848484840684847C
:1001200084840784848484848484A020201595009A
:10013000A00115A0A0011595A020159500A00115FE
:10014000A0A001A020201595A020A0159520A01505
:1001500095A0201595A020A0159520A0A0202015E1
:100160009502A0A0159520A0159502A0159502A0B6
:1001700003159520A020202020202020A020202032
:10018000202020202020202020202020202020206F
:1001900020202020A00320202020202020202020FC
:1001A000202020202020203F7FFFFFFFFFFFFFFCBB
:1001B000FEFFFFFFFFFFFFFFFFFFFFFFFF7F3FFF90
:1001C000FFFFFFFFFFFEFC00FF00FF00FF00FFFF3F
:1001D000FFFFFFFFFFFF000F0F0F0F0F0F0F00F0CC
:1001E000F0F0F0F0F0F000FF80808080808080FFF1
:1001F00000000000000000FF010101010101018079
:1002000080808080808080010101010101010180E6
:10021000808080808080FF00000000000000FF01DF
:10022000010101010101FF3F7FFFFFFFFFFF000F01
:100230000F0F0F00000000F0F0F0F000000000FFD2
:10024000FFFFFF00000000000000000F0F0F0F0F66
:100250000F0F0F0F0F0F0FF0F0F0F00F0F0F0FFF3A
:10026000FFFFFF0F0F0F0F0000000055AA55AA5502
:10027000AA55AA0000000050505050505050505500
:10028000AA55AA55AA55AA0000183C3C1800003CE3
:100290007EFFFFFFFF7E3C3E419CAC9F403F000045
:1002A000008E9526C8F0000000000000000000004D
:1002B00010101010001000002424000000000000A6
:1002C000247E24247E240000081E281C0A3C0800EA
:1002D00062640810264600001028102A443A0000E4
:1002E00008100000000000000408080808040000CE
:1002F00020101010102000000014083E0814000008
:100300000008083E0808000000000000080810006F
:100310000000003E0000000000000000181800006F
:1003200000020408102000003C464A52623C0000D3
:1003300018280808083E00003C42023C407E0000AD
:100340003C420C02423C0000081828487E0800008D
:100350007E407C02423C00003C407C42423C00002B
:100360007E020408101000003C423C42423C000067
:100370003C42423E023C0000000010000010000021
:1003800000100000101020000004081008040000F5
:1003900000003E003E0000000010080408100000AD
:1003A0003C420408000800003C4A565E403C000005
:1003B0003C42427E424200007C427C42427C000041
:1003C0003C424040423C00007844424244780000B5
:1003D0007E407C40407E00007E407C4040400000EB
:1003E0003C42404E423C000042427E4242420000BB
:1003F0003E080808083E000002020242423C00009B
:10040000444870484442000040404040407E000064
:1004100042665A42424200004262524A464200004C
:100420003C424242423C00007C42427C4040000050
:100430003C4242524A3C00007C42427C4442000022
:100440003C403C02423C0000FE1010101010000026
:1004500042424242423C00004242424224180000D2
:1004600041412A2A14140000422418182442000092
:1004700082442810101000007E040810207E000026
:100480000E080808080E00000040201008040000B4
:1004900070101010107000001028440000000000C0
:1004A000000000000000FF001C227820207E0000D9
:1004B0000038043C443C000020203C22223C000048
:1004C000001C2020201C000004043C44443C00008C
:1004D00000384478403C00000C1018101010000048
:1004E000003C44443C04380040407844444400000C
:1004F0001000301010380000040004040424180018
:10050000202830302824000010101010100C00009B
:10051000006854545454000000784444444400009B
:100520000038444444380000007844447840400097
:10053000003C44443C040600001C20202020000015
:10054000003840380478000010381010100C0000FB
:10055000004444444438000000444428281000006B
:10056000004454545428000000442810284400003B
:10057000004444443C043800007C0810207C000403
:1005800008083008080400000808080808080020C7
:1005900010100C1010200000142800000000003C77
:1005A0004299A1A199423C0011241FBECFEFD4E093
:1005B000DEBFCDBF13E0A6E0B1E001C01D92A73FB2
:1005C000B107E1F70E94AD030C94D3110C94000025
:1005D0002A9886E00E94D90B2A9A08950F931F93B8
:1005E000CF93DF938C01EB012A9883E00E94D90B13
:1005F000812F0E94D90B802F0E94D90B80E00E948E
:10060000D90B00E010E00E94DE0B89930F5F1F4FB3
:1006100081E000301807B9F72A9ADF91CF911F9136
:100620000F9108950F931F932A988FE90E94D90B79
:100630000E94DE0B90E08F37910519F40E94DE0BCB
:1006400090E0C79719F02FEF3FEF0AC00E94DE0B32
:10065000182F00E00E94DE0B282F30E0202B312BDA
:100660002A9AC9011F910F9108952A9885E00E9446
:10067000D90B0E94DE0B2A9A08950E94350380FD53
:10068000FCCF08950F931F93CF93DF938C01EB0161
:100690000E94E8022A9882E00E94D90B812F0E94D2
:1006A000D90B802F0E94D90B80E00E94D90B00E06B
:1006B00010E089910E94D90B0F5F1F4F81E000303D
:1006C0001807B9F72A9A0E943D03DF91CF911F9135
:1006D0000F9108950F931F93CF93DF938C010E9486
:1006E000120380708050904219F4C8EDD0E002C02F
:1006F000C0E2D0E00E94E8022A988C2F0E94D90B19
:10070000812F0E94D90B802F0E94D90B80E00E947C
:10071000D90B2A9A0E943D03DF91CF911F910F912F
:10072000089583B7816083BF1092C10080E187B9CB
:100730003D98459A8AB18E7B8AB98BB181648BB919
:100740000E940F110E94CC060E94CB0B0E94BA0B94
:100750000E94F60F0E94E30B08950E9491030E94ED
:10076000140B8FEF8DBF0C94740D08950CC0809105
:10077000F5039091F60324E0959587952A95E1F786
:1007800081700E94730B0E940C07882381F30895E7
:10079000299A8CB58F7B8CBD209184003091850087
:1007A0002F5F3F4F8DB58EB580918400909185006D
:1007B000A901481B590B57FFF5CF8CB580648CBD40
:1007C00008950F931F93CF93DF93FC01EB018A01F0
:1007D0004115510559F1299A8CB58F7B8CBD20911B
:1007E0008400309185002F5F3F4F8DB58EB580918D
:1007F000840090918500A901481B590B57FFF5CF44
:100800008CB580648CBDCF019F7768810E948B0B73
:1008100003C088810E94D90B015010402196011518
:100820001105B9F71092F4031092F303DF91CF9101
:100830001F910F91089599E16902B0011124992740
:1008400087FD9095680F791F615F7E4FCB010895FA
:100850000F931F93CF93DF93EC01062F60C00A30F4
:1008600001F10B3040F4083049F1093008F5073048
:1008700009F04EC045C00D3049F10E3020F40B3068
:1008800009F046C006C0033C19F10D3C09F040C018
:1008900032C089818150898387FF44C083E1898385
:1008A00041C089818F5F89838431E4F119823AC024
:1008B00088818F5F88838931ACF108C0888181503D
:1008C000888387FF2FC088E18883E3CF1882E9CF30
:1008D0001A81812F6B810E941B04FC0100811F5F24
:1008E0001A831931E4F01A828B818F5F8B838431F4
:1008F000B4F01B8214C088818A8389818B8312C0E3
:10090000888169810E941B04FC0180E28083D6CF2C
:10091000888169810E941B04FC010083C9CF0023E8
:1009200009F09DCFDF91CF911F910F910895AF9264
:10093000BF92CF92DF92EF92FF920F93DF93CF930C
:1009400000D0CDB7DEB77C016B015A0180E065E1D4
:100950000E941B049A8389838FE3E981FA81808353
:100960000E941C07082FE981FA818083873509F4EA
:1009700050C0883550F4853409F453C0843509F4E7
:1009800056C0873009F065C024C08A3509F44CC0D0
:10099000893621F0883509F05CC041C080E0F5015E
:1009A00061810E941B047C0188E162E10E941B04BA
:1009B000FC0103C08081818F3197EE15FF05D0F7D0
:1009C000C701499620E201C02193E817F907E0F337
:1009D00044C080E0F50161810E941B047C0180E03D
:1009E00063E10E941B049C0104C0F701818D819387
:1009F0007F01E216F306C8F3C901499620E205C05B
:100A00000894E11CF11CF7012083E816F906C0F3F5
:100A100024C0C701B6014FE051E00E94D2090BE1AA
:100A20001CC00E94140AFBCF0E94140B16C00E9427
:100A30002C0813C0F501808161810E941B04FC0118
:100A40008081880F880F880F802B80830E941C076D
:100A5000082F0053083070F300E0802F0F900F90A4
:100A6000CF91DF910F91FF90EF90DF90CF90BF90EB
:100A7000AF90089597FD02C080E008958FE091E067
:100A800060E070E040E052E00E94C31181E0089510
:100A9000EF92FF920F931F93CF93DF938C018FEF11
:100AA0009FEF6FE071E00E94AF087C01C8010E94D7
:100AB0003A05882319F0CEEFDFEF06C0C8016FE0DA
:100AC00071E00E94CE08EC01CE15DF0511F40E9402
:100AD000140B81E065E10E945E0AC8010E94DE0AF3
:100AE00080E40E94850ACE010E94DE0A81E20E9413
:100AF000850AC7010E94DE0AC701DF91CF911F91CD
:100B00000F91FF90EF9008952F923F924F925F9236
:100B10006F927F928F929F92AF92BF92CF92DF920D
:100B2000EF92FF920F931F93DF93CF9300D000D0EB
:100B3000CDB7DEB74C0119821A828FEF8B830E94EA
:100B4000140BC4010E9448052C0197FE04C0909428
:100B500081949108939483E9682E1E010894211CC6
:100B6000311CE090F503F090F60389816A810E94C0
:100B70001B045C018B816C810E941B046C01F501DC
:100B80007080FC0100818091F5039091F60397013C
:100B9000281B390B12161306B4F0F50190819058FA
:100BA00090838B818F3F39F097FF03C0F6016082FD
:100BB00002C0F6010083E090F503F090F60322E313
:100BC00030E0E20EF31E0E940C07182F8823D9F2A2
:100BD000F5017082F60100838B3A39F4C401B20149
:100BE000A1010E949704182F04C0C101612F0E9427
:100BF00028041B3109F0B5CF80E064E10E945E0A51
:100C00000F900F900F900F90CF91DF911F910F9148
:100C1000FF90EF90DF90CF90BF90AF909F908F901C
:100C20007F906F905F904F903F902F900895482F46
:100C3000282F30E082FF02C082E004C0C9019695EF
:100C40008795817023FD83E024FD84E025FD85E008
:100C500026FD86E047FD87E008951F93CF93DF933D
:100C6000282FC0910A01D0910B01109107018091AA
:100C7000F2032817F1F4CE0183709070029720F0F0
:100C80008091090187FF07C0219709F081C08091F9
:100C90000901863024F081508093090179C086E0F3
:100CA0008093090185E090E090930B0180930A0105
:100CB0006FC02093F203C130D10559F0C130D10586
:100CC00058F0C230D10579F0C330D10509F059C0D0
:100CD0002BC0222309F453C0822F0E941706809351
:100CE000070122964EC0222309F58091090187FD54
:100CF00046C0E0910801143029F481E08E1B8093F6
:100D000008013DC0F0E063E0EE0FFF1F6A95E1F7D8
:100D1000E10FF11DE859FF4FE491E09306011092B5
:100D20000801C4E0D0E02DC0222349F181E090E029
:100D3000012E02C0880F991F0A94E2F7281B822F08
:100D40000E941706E0910801F0E053E0EE0FFF1F4C
:100D50005A95E1F7E10FF11D43E0EE0FFF1F4A95B1
:100D6000E1F7E80FF11DE858FF4F8491823D21F033
:100D70008093060110920801C5E0D0E002C0C0E0F7
:100D8000D0E080E180930901D0930B01C0930A0168
:100D9000DF91CF911F91089587B1807F87B988B186
:100DA0008F6088B957985F9A2098289A0895209163
:100DB0000D01222351F486B180958F7080930E012E
:100DC0002098289A579A5F980EC096B190959F7078
:100DD00080910E018295807F892B80930E01579818
:100DE0005F9A209A28982F5F217020930D0180919F
:100DF0000E0108950E94D706982F80910D01882337
:100E000051F480910C01981721F4892F0E942D062E
:100E1000089590930C01089520910A0130910B01DF
:100E200022FD02C080E00895809106012B7F30935F
:100E30000B0120930A010895CF93DF938091E9037A
:100E4000C091E703D091E803C80FD11D8881805875
:100E500088830E940C07982F8823D9F388818058B3
:100E60008883892FDF91CF9108950E94120320E299
:100E70008331920749F020E28331920740F0835199
:100E80009043029720F406C020E031E005C020E046
:100E900030E002C020E130E0C90108950E94120351
:100EA00020E28331920749F020E28331920740F03B
:100EB00083519043029720F406C020E031E005C042
:100EC00020E030E002C020E830E0C9010895CF936F
:100ED000DF930E94120320E38331920739F020E36D
:100EE0008431920749F08351904219F4C0E0D8E070
:100EF00005C0C0E0D0E002C0C0E0D0E10E944E07D3
:100F00009E01281B390BC901DF91CF9108950F93E2
:100F10001F93CF93DF93EC010E9467078C010E941F
:100F20003507081B190B16950795C017D10710F444
:100F300020E00BC00E94350720E001979695879529
:100F40008C239D23892B09F421E0822FDF91CF91FF
:100F50001F910F910895CF92DF92EF92FF920F931E
:100F60001F936C017B010E9467078C011695079502
:100F700001501040C801880F892F881F990B919547
:100F80008E0D9F1DB6010E94EE020F771070000FAC
:100F9000111F0C0D1D1DF801808191811F910F9172
:100FA000FF90EF90DF90CF900895CF93DF93EC0107
:100FB0000E94C803CE0160E070E00E94AB078F5F23
:100FC0009F4FE1F40E946707FC01F695E795329781
:100FD000EF77F070EE0FFF1FEC0FFD1F8081918106
:100FE0008F5F9F4F41F0CE0160E170E00E94AB0740
:100FF0008F5F9F4F19F020E130E002C020E030E029
:10100000C901DF91CF910895EF92FF921F93CF9383
:10101000DF93EC017B01CB010E94D507892B21F0E6
:1010200080E090E4C827D927D6FD02C010E001C0B7
:1010300010E1DF73CC0FCD2FCC1FDD0BD1951C0F32
:10104000812F90E0B7010E94EE02812FDF91CF91B6
:101050001F91FF90EF900895CF93DF930E94C803F4
:101060000E94140BC0E0D0E015C080E065E10E9452
:101070005E0A8FE091E00E94D5078C0F9D1F0E94B1
:10108000DE0ACE0140966FE071E00E94EE020E94FF
:101090001C0721960E94670796958795C817D90760
:1010A00020F31092F4031092F303DF91CF9108958F
:1010B0008F929F92AF92BF92CF92DF92EF92FF9268
:1010C0000F931F93CF93DF935C016B010E9467071F
:1010D0004C0196948794E12C40E8F42EC0E0D0E0D7
:1010E000CE019F738815990520F0C070D07CC05048
:1010F000D04C8E010F7710700115110521F4CE012F
:10110000B6010E940408000F111F0C0D1D1DF801EF
:10111000808191818A159B0549F08F5F9F4F61F413
:1011200020E0E21620E8F20651F417C08FEFA8166F
:101130008FEFB80691F07E012196D7FFD1CFC7017E
:10114000DF91CF911F910F91FF90EF90DF90CF90A3
:10115000BF90AF909F908F9008957E01F0CFCF9277
:10116000DF92EF92FF920F931F938C017B010E94FD
:10117000C8030E944E076C01C801B7010E945808BD
:101180009C013F73220F331F2C0D3D1DC9011F9180
:101190000F91FF90EF90DF90CF9008950F931F93E2
:1011A000CF93DF93EC018B0196FF04C00E94C8032C
:1011B000DF7309C00E94AF08EC01B80160507F4F97
:1011C00001960E94EE02CE01B8010E94EE0210923A
:1011D000F4031092F303CE01DF91CF911F910F9191
:1011E0000895EF92FF920F931F93CF93DF937C01AB
:1011F0008B018FEF9FEF0E945808EC010E94670758
:10120000969587958150904CC817D90748F0C8012A
:101210000E94D5070E946A0380E090E4C827D9277E
:10122000CE01B8010E940408CF77D070CC0FDD1F2B
:10123000C00FD11FF982E88290E0B8010E944203FA
:10124000DF91CF911F910F91FF90EF900895CF9371
:10125000DF93EC01DF730E946707C817D90720F0FE
:101260000E946707C81BD90B0E944E079E01220FE0
:10127000331F280F391FC901DF91CF9108954F9275
:101280005F926F927F928F929F92AF92BF92CF9216
:10129000DF92EF92FF920F931F93CF93DF938C0116
:1012A0006B010E94350796958795782E0E946707F7
:1012B000272D30E0FC01F695E795E21BF30BC80102
:1012C0009F738E179F0720F0E801CE1BDF0B07C02E
:1012D000E901C00FD11F80E090E4C827D927672C0F
:1012E000CE010E9427092C01C8010E9427095C0138
:1012F000B60160507F4FCE010E940408FE01EF77D7
:10130000F070E058FF4FEE0FFF1FEC0DFD1D8080C9
:101310009180C401B6010E945808C817D90731F559
:101320000E944E078E011F73000F111F080F191F17
:10133000C801B6010E94EE0275010894E11CF11C7F
:10134000C501B6010E944203C8010196B6010E9480
:10135000EE0257010894A11CB11CC701B6010E94FE
:101360004203C401B6010E94F1086A947A9411F014
:101370002196C4CFC2010E946A0380E016140CF0CB
:1013800081E0DF91CF911F910F91FF90EF90DF905F
:10139000CF90BF90AF909F908F907F906F905F9015
:1013A0004F900895CF92DF92EF92FF920F931F9389
:1013B000CF93DF937C018B01EA010E94C803C8012F
:1013C000BE010E944203C12C31E0D32ECC0EDD1EA3
:1013D000C8010196B6010E944203C701BE010E94E6
:1013E000F108EE24E3948FEF9FEFBE010E945808AE
:1013F0008C01B6010E948707882349F0EE2039F05E
:10140000C801BE010E943F09E82E882361F71092AF
:10141000F4031092F303DF91CF911F910F91FF908E
:10142000EF90DF90CF900895CF92DF92EF92FF92EE
:101430000F931F93CF93DF930E9412036C010E94BE
:101440003507C0E0D0E07C010894E108F10820C035
:1014500083E1C81680E2D80681F4209771F0C0318C
:10146000D10559F0C032D10541F0C034D10529F081
:10147000CE018E219F21892B51F480E065E10E94ED
:101480005E0ACE010E94DE0ACE010E946A036096C7
:101490000E9467078C010E944E07080F191FC01792
:1014A000D107B0F2DF91CF911F910F91FF90EF9094
:1014B000DF90CF9008950E94B603089599E1699F47
:1014C000B0011124615F7E4F7093E8036093E703DE
:1014D0008093E9030895EFE0F1E0818D819383E04B
:1014E000EE34F807D0F302C0819301C080E293E0AC
:1014F000E736F907C8F38091E7039091E80349972D
:101500009093E8038093E70308950F931F93182F98
:10151000873041F08D3021F489E18093E90310E0B8
:1015200001E016C08091E903882321F08150809367
:10153000E9030CC088E18093E9038091E70390916F
:10154000E80349979093E8038093E70310E200E0F3
:101550008091E903893170F01092E9038091E703EB
:101560009091E80349969093E8038093E70302C0C3
:101570000E946B0A8091E7039091E80323E087368D
:101580009207B0F78F50914030F48FE091E0909344
:10159000E8038093E703112371F08091E903E09160
:1015A000E703F091E803E80FF11D10838091E90350
:1015B000080F0093E9031F910F910895EF92FF9296
:1015C0000F931F93CF93DF93EC0180E30E94850A72
:1015D00088E70E94850A10E000E07E019F2D929529
:1015E0009F70905D892F91332CF4133019F00023F4
:1015F00041F001C001E09A3314F0892F895D0E9407
:10160000850A1F5F143031F084E0CC0FDD1F8A950E
:10161000E1F7E3CF80E20E94850ADF91CF911F912D
:101620000F91FF90EF900895EFE0F1E080E2819359
:1016300093E0E736F907D8F380E060E00E945E0AA5
:101640000895282F823308F04DC0603308F04AC057
:10165000862F869599E1899FF0011124822F869526
:10166000E80FF11DE15FFE4F60FD02C052E001C0D6
:1016700058E020FD5695F19902C030E001C0352FA9
:10168000F09902C040E001C0452F9081903A31F0BE
:10169000892F8877803111F020E006C0292F277824
:1016A00027FF02C08FE82827852F80958323942F5A
:1016B000932B9095982B9223309535233423932B9D
:1016C000452320954223942B93FF02C08FE898274F
:1016D000292F205F822F90E087709070892B09F46A
:1016E000205F2083089598B1811180E19F7E892B2E
:1016F00088B908950F931F938C01299883E00E9465
:10170000D90B812F0E94D90B802F0E94D90B1EBCB0
:101710001F910F910895FF920F931F93182F092F78
:10172000F62E299882E00E94D90B802F0E94D90BB7
:10173000812F0E94D90B8F2D0E94D90B1F910F91E1
:10174000FF900895FF920F931F93182F092FF62EE5
:10175000299882E00E94D90B802F0E94D90B812FFB
:101760000E94D90B8F2D0E94D90B299A1F910F919E
:10177000FF900895299881E00E94D90B81E40E948E
:10178000D90B299A0895299885E00E94D90B0E94C7
:10179000DE0B299A089584B1817C8E6284B985B16B
:1017A000817C866085B98DB581608DBD80E58CBDFD
:1017B00008958EBD0DB407FEFDCF089580E00E9410
:1017C000D90B8EB508951F93CF93DF93C8EFD0E068
:1017D0000E94140B18E080E0612F0E945E0A80E0F6
:1017E00090E0FE01E80FF91F2491E091E703F091EA
:1017F000E8032193F093E803E093E703019689312E
:10180000910579F769961F5F1F3029F72091F5033D
:101810003091F6032C593F4F8091F5039091F603D8
:1018200028173907C9F7DF91CF911F910895789450
:101830008F939F93809100018A958093000171F0AE
:1018400090E280FD91E297BD9091010108949795F7
:101850009093010182E828F482EC03C080E085BD0A
:1018600082E084BD9F918F9118958F930F9385B5DA
:101870008823E9F7009301010BE00093000180E267
:1018800087BD82E884BD80E086BD83E085BD0F9181
:101890008F910895082FE9CF8F939F935E9A569A60
:1018A000882785BD80916E00826080936E00789459
:1018B0009F918F910895CF93DF93CDB7DEB7EF93CC
:1018C000FF932F933F934F935F936F937F938F93E8
:1018D0009F93AF93BF93FB81EC81EE0FFF1F259188
:1018E0003591F695E795EC83FB83F901F695E7953D
:1018F0000995BF91AF919F918F917F916F915F916A
:101900004F913F912F91FF91EF91DF91CF910895EA
:101910000F931F93CF93DF93EC010E94C803E881DC
:10192000F0E0998190958081892380830CC0EA81C1
:10193000FB818191FB83EA830E94D90B8C819D817D
:1019400001979D838C838C819D81892B81F70EC0AB
:101950001E810F810E94DE0BE12FF02F8193FF8308
:10196000EE838885998501979987888788859985E9
:10197000892B71F7E881F0E080819981892B808340
:101980001092F4031092F303DF91CF911F910F9106
:101990000895D7FD04C0FE01849121960AC02196C6
:1019A000C093F303D093F4038DB587FFFDCF8EB5BD
:1019B0008EBD089597FF1EC06F936DB567FFFDCF75
:1019C000299A7F934F935F930E947A0B9F918F91F7
:1019D000BF91AF9101C06EBD6DB567FFFDCF6EB514
:1019E0006D930197C1F7299A6EBD1092F30310927F
:1019F000F4030895FC01DB01CA0145914D93019761
:101A0000E1F708954115510571F1903168F1703198
:101A100090F1DF92CF92AF929F928F927F926F92CE
:101A20006A013C014B01A6014830510508F048E02D
:101A3000A42E50E0C3016AEE73E0BCDFC4016AEE7D
:101A400073E04A2D50E00E94E1036A0C711C8A0C7D
:101A5000911CCA18D10839F76F907F908F909F9092
:101A6000AF90CF90DF900895703130F0FC01CB0142
:101A7000BF010C94E1039ECFFC01DB01CA018191FF
:101A80008D930197E1F708956115710531F190315A
:101A900028F1DF92CF92BF92AF926C015B01683068
:101AA000710508F068E070E0AAEEB3E018D0C60156
:101AB00048E050E0A416B50608F4A501A41AB50A3A
:101AC000C40ED51E6AEE73E00E94E103A114B104B6
:101AD00071F7AF90BF90CF90DF900895DC01CB01FC
:101AE0004D930197E9F708950E94E90FEC011092D8
:101AF000F3031092F40380E090E00E947A0B87EFEA
:101B000093E07C018BEA9FE03C01D7FF2AC08DB5B2
:101B100087FFFDCF299ACE010E947A0B12C0D7FF12
:101B20000AC0CDB5C7FFFDCFCEB5299AD82DCE01BD
:101B30000E947A0B06C0FE01C491D82D12C0D7FFB7
:101B400010C02196C093F303D093F4038DB587FFA3
:101B5000FDCF8EB58EBD8E3368F4F301E80FF11D15
:101B60000994FE01849121968E3320F4F301E80F4D
:101B7000F11D0994882E0DDF982DDF93CF93EC0192
:101B8000C4CFD7010D931D937D0103DF182F01DF13
:101B9000082FD5CFC801D7011E910E917D018E333C
:101BA000910520F3DF93CF93EC01AFCFD7011E91C6
:101BB0000E917D01C4CF012BD7011E910E917D01A5
:101BC00011F02296A2CFE5DE882EA9CFE2DE882E84
:101BD000D60111966D01CA14DB040AF4A0CFD9DE38
:101BE000CF90DF90AF90BF90AACFD3DE882ED601E2
:101BF000A00FB11F6D01AA19BB09B127F7011291FE
:101C000002917F01B7FDEACFEACFBF92AF92DF9298
:101C1000CF92D7016801BE90AE901E910E917D01CA
:101C20008ECFD7017E916E914427069F4001169F6B
:101C3000612D900C641F079F900C611D179F712DE3
:101C4000600D741F8B018D929D9211247D0177CFC1
:101C5000D70111978E9111976E91F801F894008138
:101C60008023862B8083789411277D0168CFD7014C
:101C70009E918E917E916E9121E2441B551B07C06F
:101C8000441F551F4017510710F0401B510B661F92
:101C9000771F881F991F2A9599F7609570954D9326
:101CA0005D938B017D014BCFD7019E918E910823CF
:101CB00019237D0144CFD7019E918E91082B192BBA
:101CC0007D013DCFD7019E918E91082719277D0177
:101CD00036CF650134CFD7010D931D937D010F9150
:101CE0001F912DCFD7010D931D937D01EDB7FEB749
:101CF0000181128124CF1F930F93D7011E910E9162
:101D00007D011DCF012B09F00FEF0095102F17CF8C
:101D1000002717FD0095102F12CFD7019E918E91AD
:101D2000080F191F7D010BCFD7019E918E917E91D7
:101D30006E915E914E91840F951F061F171F8D9314
:101D40009D937D01FCCE109501951F4FF8CED701D4
:101D50009E918E9190950095109581959F4F0F4F74
:101D60001F4F8D939D937D01EACED7010D931D9357
:101D70007D0114970D911D91E2CED7019E918E9118
:101D80000D931D938C01DBCED7010D931D937D0127
:101D9000D6CE42E068E003C041E069E08824C80193
:101DA00070E050E007DE092D182DAFCE41E0D701DD
:101DB00011978E9004C042E0D7018E909E90C8018A
:101DC0001E910E9168E070E050E07D010E94E103F9
:101DD0009CCED7010D931D9386017D01B0CE0F5F80
:101DE0001F4FADCEFE01F695E7950994D8010C91F1
:101DF0001127A5CED70111978E91F8011E910E9152
:101E00007D0180839CCED8010D911C9198CED70185
:101E10009E918E91F8011E910E917D018193908388
:101E20008ECEC8010E94850AC1CEC8010E94DE0A7A
:101E3000BDCE0E940C079927D7010D931D938C01ED
:101E40007D017DCE0E941C07F6CFEEE5FAE0D701BA
:101E50009E918E917D01B8010995A8CECF91DF9119
:101E600054CE015010406BCEE4E4FDE051C00E941E
:101E7000140B65CED7019E918E9104C0892F9927AE
:101E8000085F1F4F08301005C8F702C09695879568
:101E90000A95E2F78C017D0152CED7019E918E9179
:101EA00004C0982F8827085F1F4F08301005C8F717
:101EB00002C0880F991F0A95E2F78C017D013FCE81
:101EC000C8010E94840580912D0090E0299885E04A
:101ED0008EBDD7011E910E917D0117CEC8010E94C3
:101EE00048058C0180E09EE96FE071E040E052E03F
:101EF0000E94E1030ACEC801D7017E916E914FE0A6
:101F000051E07D010E94D209E1CFE2E0FDE000C096
:101F1000A801D7017E916E919E918E917D010995C8
:101F2000D8CFE1E2FBE093CFC8010E94880CD1CF6B
:101F300006CEC8013BCED7010D931D937D018E01C6
:101F40008DCFD7010D931D937D0123DD182F21DD4A
:101F5000082F84CFC9CDF3CD14CE1CCE27CE2BCEE7
:101F600032CE34CE42CE51CE5CCE72CE80CE9CCE1E
:101F7000A2CEA8CEAECEAFCEAECEB4CEBCCEC2CE6A
:101F8000C7CECBCED1CEDFCEE2CEEFCEF6CEFCCEDC
:101F900000CF02CF0BCF0FCF1CCF21CF23CF26CF27
:101FA00029CF31CF34CF3DCF40CF3FCF42CF4ACFE3
:101FB0004CCF54CF56CF58CF5ACF5CCF6ECF80CFB7
:101FC0008DCF99CFA2CFADCFAFCFB2CFB2CFB3CF5E
:101FD000B8CFEAEAF3E224913196E491922F80E0BF
:101FE0002E2F30E0282B392BC901089583E883BDBB
:101FF00083E38093B0008AE08093B1001092B20036
:102000008FE98093B3008BE08093B400109280003E
:1020100022E02093810010928500109284008BE0D2
:1020200090E0909389008093880020936F005098EF
:102030008AB18A608AB98BB1857F8BB988E0809339
:102040000201E4ECF0E01182108280EC8093C20087
:102050001092C10081E090E091838083789413BC5A
:1020600008951F920F920FB60F9211248F939F9392
:10207000809102018730D1F50E941E1182E0809389
:102080006E0080910501882329F58091090187FD63
:1020900007C080918800909189008151984D06C0B9
:1020A00080918800909189008953924E9093890085
:1020B0008093880088E0809302018091F5039091DD
:1020C000F60301969093F6038093F5030E945B0C50
:1020D000F40D9EC0809188009091890081579F4F98
:1020E000909389008093880086E025C0833009F4AE
:1020F00041C0843028F4813009F1823070F50AC083
:10210000863009F468C0883009F476C0843009F05C
:102110007FC042C08FE48093B30085E08093B40019
:10212000809188009091890084569E4F90938900F9
:102130008093880081E0809302016AC089E48093E3
:10214000B400809188009091890080579E4F9093B1
:1021500089008093880082E0EECF10926E0080911B
:10216000880090918900CE96909389008093880092
:1021700083E0E1CF82E080936E0085E08093B4003D
:1021800080918800909189008A569E4F9093890093
:102190008093880084E0CFCF8FE98093B3008BE0F9
:1021A0008093B4008FE091E0909304018093030149
:1021B0001092050180918800909189008454924E7C
:1021C000909389008093880086E0809302010E94AA
:1021D0005B0CF40D1DC080918800909189004196A0
:1021E000909389008093880010926E0087E080931E
:1021F0000201789488950CC08091880090918900A4
:102200008C569F4F90938900809388001092020112
:102210009F918F910F900FBE0F901F90189527EAF6
:1022200031E0A7E6B3E005C0F90184918D932F5FFB
:102230003F4FF3E0A73EBF07B8F308950F921F92F8
:10224000EF93FF930F93AF93BF93CF93DF93D0910F
:102250000501D03C60F5D7701F9318E1A0910301F0
:10226000B091040108E0F0E0E8E0F093C600E093EC
:10227000C100ED91CE2FEF770E9F0D0EE03130F0C3
:10228000E7EAF1E0E00DF11DE49106C0E7E6F3E0D6
:10229000E00DF11DE08100C0C7FDE095F091C000A8
:1022A000F5FFFCCFE093C60011501AF73CC01F9316
:1022B000E0910801E0FDE0E4F0910701FF0FFF0F5E
:1022C000FF0FEF0FF0E0D3FDEC5FA8E7B0E0AE0F3B
:1022D000BF1FE7EAF1E0CD2FC770D0E0CE0FDF1FC0
:1022E00010E0E8E0E093C100FD010491003208F441
:1022F00000E2E8E0F02FFF77EF9FFE01E00DF11D17
:10230000049007FF0094F091C000F5FFFCCF00920D
:10231000C60011961F5F143038F3D0910501DF5FBE
:10232000D03D78F40FC0D73024F0A0930301B093D0
:102330000401D0910501DF5FD03C20F0F09109014C
:10234000F7FFD0E0F091C000F5FFFCCFA0E0A09334
:10235000C100D03C51F4E0918800F0918900E85D23
:10236000FF4FF0938900E0938800D09305011F91FF
:10237000DF91CF91BF91AF910F91FF91EF911F909E
:102380000F9008950000DC01CB01FC01F999FECF0C
:1023900006C0F2BDE1BDF89A319600B40D924150ED
:0A23A0005040B8F70895F894FFCFFD
:1023AA00916D046B65726E0000AC631C1601C86304
:1023BA00161D1C010008321B010008330D2EA7014F
:1023CA008765786563757465AC63CA63028169CA97
:1023DA0063D76321856C65617665D763DE630F8396
:1023EA00616E64DE63E9630C826F72E963F2630D06
:1023FA0083786F72F263FA630E823E3EFA63036475
:10240A0032823C3C03640B6433823B730B64136477
:10241A002E82723E13641B6411823E721B64236413
:10242A0013817223642B641282303D2B643264144C
:10243A0082303C32643A6415812B3A6442641682D3
:10244A00642B4264496417856D696E7573496451DA
:10245A00641886646D696E757351645C6419846F5F
:10246A007665725C6468641A8464726F70686472F8
:10247A006403847377617072647C641B836475700F
:10248A007C6486641C814086648F641D8263408FED
:10249A006496641E812196649E64208263219E64F0
:1024AA00A5641F82752AA564AD640982752FAD647F
:1024BA00B5640B84656D6974B564BD6428836B6506
:1024CA0079BD64C7642C85696E6B6579C764D0640D
:1024DA002B84706C6F74D064DB643882312BDB64BC
:1024EA00E5642285636D6F7665E564ED643784661D
:1024FA00696C6CED64F8643083696340F864026562
:10250A00248369632102650B65258269400B651482
:10251A00652682692114651C6527863E706F727470
:10252A003E1C6524650A83737069246530653982A7
:10253A00312D306539652F826174396541652D8386
:10254A00636C734165496531842E686578496552C3
:10255A00652A846564697452655C653484626C6B4F
:10256A003E5C65666535843E626C6B666570653691
:10257A0085747261636570657A653A0263727A6519
:10258A00856501000D282E05636F756E748565914A
:10259A00651C221B1E2E04747970659165A0655D09
:1025AA006804BB651A161B08211E2806B26505BCFD
:1025BA0065032E057370616365A065BD659866281D
:1025CA002E06737061636573BD65CB657366F76DBF
:1025DA005D6804E765736608C76506E2652E042828
:1025EA002E2229CB65E865129B651C22111613A9B8
:1025FA00652E422E22E865FC6501002268671D04EB
:10260A001B66CD69F1655A6BD7671E22E5670523FC
:10261A00665A6BD7679B65A9652E056572617365F6
:10262A00FC6524667366302E06626C616E6B7324D9
:10263A006632669866302E0376617232664166109B
:10264A006AF0672E6A102E05636F6E7374416651C5
:10265A0066056166101D2E01003DF96BFC69FF6776
:10266A00F0672E013051666D663D000001316D66DE
:10267A0076663D0001013276667F663D00020133CF
:10268A007F6688663D000302626C886691663D003B
:10269A0020047672616D91669B663D0F0105636C3D
:1026AA006F636B9B66A7663DF50307737973766163
:1026BA007273A766B4663DE703026927B466C36608
:1026CA003D000A027270C366CD663D005D027370FA
:1026DA00CD66D7663D000E03737030D766E1663D5E
:1026EA00F7038022001F00018082800C800C3F715A
:1026FA0003746962E166FA663D800005776964746D
:10270A0068FA6605673D8002077761726E696E67CF
:10271A00056712673D8004026470126721673D8075
:10272A000607636F6E7465787421672B673D8008AE
:10273A000763757272656E742B673A673D800A0289
:10274A00696E3A6749673D8012036F75744967532A
:10275A00673D801405737461746553675E673D80D5
:10276A001604626173655E676B673D801803647067
:10277A006C6B6777673D801A03666C64776782675C
:10278A003D801C03686C6482678D673D801E04620D
:10279A006C6B238D6798673D8020022B219867A474
:1027AA00671B1A1D161B202E06746F67676C65A4BB
:1027BA0067B2671A1E0E1B1F2E02322BB267C3673F
:1027CA008566162E0468657265C367CE6728671D1D
:1027DA002E05616C6C6F74CE67DB672867AB672E5A
:1027EA00012CDB67EA67D767208566E5672E0263F7
:1027FA002CEA67F867D7671F7C66E5672E012DF814
:10280A0067076818162E013D076810680D68142EB0
:10281A00013C10681A680D6815002E00013E1A68FE
:10282A0026681B20682E03726F7426683068131B93
:10283A00111B2E043264757030683D681A1A2E0313
:10284A006E69703D6849681B032E043F64757049C0
:10285A006854681C0462681C2E02753C54686368DC
:10286A0046680E150475681B03152E0D68152E068D
:10287A006C61746573746368796846671D1D2E07F9
:10288A007066613E636661796889681CAE681E017C
:10289A0000800C04A1681E2E077066613E6E666198
:1028AA008968A26885660D681D2E076E66613E6C92
:1028BA006661A268B4681C1E01001F0C16222E074E
:1028CA006E66613E706661B468C968C068010004DA
:1028DA00162E0369642EC968DC681C221B1E0100BF
:1028EA001F0CA965C7652E076D657373616765DC83
:1028FA0068F168F1650645727220232074702E050E
:10290A006572726F72F16809691E671D15041C6988
:10291A005C6DD7679B65A965F165023F20FD683A42
:10292A006D063F6572726F7209692B691B043C69F7
:10293A001369032E053F636F6D702B693E696867E3
:10294A001D1401001136692E053F657865633E69DD
:10295A00526968671D01001236692E063F70616967
:10296A007273526965690D6801001336692E413A1E
:10297A00656978695C69F96BEA692E413B78698512
:10298A0069CD69002EFC69DE692E09696D6D656481
:10299A0069617465856994698468010040BD672E20
:1029AA0002782C9469AA691C01FF000C04BE69F024
:1029BA006705C069FF672E07636F6D70696C65AA4A
:1029CA0069C1694869111C1DB169CA67132E415B47
:1029DA00C169D86973666867202E015DD869E469A0
:1029EA000100406867202E06736D75646765E469A7
:1029FA00F1698468010020BD672E073C6275696C25
:102A0A006473F169046AF96BFC697366F0672E45B1
:102A1A00646F65733E046A196A012E6AF0670100E1
:102A2A0010FF672E118468D568202E4128196A354F
:102A3A006A0100295A6B2E03686578356A416A0172
:102A4A0000107467202E07646563696D616C416AC2
:102A5A00506A01000A7467202E0564696769745018
:102A6A006A636A130100300D680100091A206804BC
:102A7A00886A0100070D681C01000A20680D1C11F4
:102A8A006A682E08286E756D62657229636A8D6A96
:102A9A00221C131E74671D6D6A04C46A1B74671DA9
:102AAA000903386874671D09177F671D2204C06A05
:102ABA007C667F67AB6711059A6A03112E066E75ED
:102ACA006D6265728D6AC76A7366736638681C229E
:102ADA001E01002D16681C130D6801FFFF7F672079
:102AEA009A6A1C1E98660D6804056B1C1E01003A42
:102AFA000D6873663669736605E76A0311040B6B22
:102B0A00192E07656E636C6F7365C76A0C6B131CAD
:102B1A001C1C1E9866166804286B22051B6B4668E7
:102B2A001B0D68386838681C1E04426B1C1E120D87
:102B3A006804496B2205316B1B0D681C11032E11A9
:102B4A00031B0D681C222E04776F72640C6B516B89
:102B5A0002671D50671D161B186BD7670100223DBF
:102B6A00665067AB671A0D681312D7671F16D767C7
:102B7A002211372E386838681A1E1A1E0D68048EFC
:102B8A006B03032E38687C660D681C04A56B3868D5
:102B9A007C661638687C661605826B516851682E09
:102BAA00052D66696E64516BAA6B98665A6BD76776
:102BBA0084681A1E1A1E01002F0C166804D96B1A93
:102BCA00221A1C221B1E01001F0C7E6B04E36BC021
:102BDA00681D1C04ED6B05BC6B51681CD5681B1E77
:102BEA0001FFFF2E06637265617465AA6BEE6BB412
:102BFA006B040C6C03AE68E468010004FD68C765E9
:102C0A00D7671C1C1E0F671DE56D1C22E5670100B6
:102C1A00200D1A1F8468F067F06746671D202E4949
:102C2A005B636F6D70696C655DEE6B296CB46B14D8
:102C3A0073663669039568B1692E476C6974657263
:102C4A00616C296C446C68671D045C6CCD69000179
:102C5A00F0672E48646C69746572616C446C5D6CD3
:102C6A0068671D04756C1B506C506C2E0665787075
:102C7A006563745D6C766C1A16131C73661A1F2CC6
:102C8A001C010007166804A66C031A1A206804A31C
:102C9A006C7C660D680100072805856C1A1220688D
:102CAA001A01000D1668140C04BC6C1C281A1F2289
:102CBA00736601000D166804856C11030303C7656A
:102CCA002E40766CCB6C01802202672011032E09FC
:102CDA00696E74657270726574CB6CD96CB46B046E
:102CEA00056D01007F0C68671D206804FF6C9568FC
:102CFA00B16905E76C95680205E76CD26A7F671DC2
:102D0A002204136D6A6C05E76C03506C05E76C05C9
:102D1A007175657279D96C196D02671D0100508150
:102D2A006C73665067202E0471756974196D316D64
:102D3A00DE698C65236DE76C68671D14044F6DF1BD
:102D4A006503204F4B053C6D0561626F7274316DEE
:102D5A00526DE966DE66205C6A8C65F1651E46493D
:102D6A00476E6974696F6E200D7F6E696368656D61
:102D7A00616368696E657320323031313A6D04637C
:102D8A006F6C64526D886D01EC6601800001000E63
:102D9A00375C6D04732D3E64886D9D6D1C152E0283
:102DAA002B2D9D6DA96D1504B56D182E03642B2D61
:102DBA00A96DB66D1504C36D192E03616273B66DE4
:102DCA00C46D1CB06D2E0464616273C46DD06D1C39
:102DDA00BE6D2E036D696ED06DDD6D1A1A2C6804F6
:102DEA00ED6D1B032E036D6178DD6DEF6D1A1A20F0
:102DFA006804FF6D1B032E026D2AEF6D016E1A1A0D
:102E0A000E13CC6D1BCC6D0911BE6D2E012A016EFD
:102E1A00166E09032E052A2F6D6F64166E1F6E1328
:102E2A00086E11436E2E022A2F1F6E306E296E1BFA
:102E3A00032E026D2F306E3C6E1A1313D96D12CC0D
:102E4A006D0B11120EB06D1B11B06D1B2E042F6D80
:102E5A006F643C6E576E13A66D11436E2E012F5789
:102E6A006E676E606E1B032E036D6F64676E726E03
:102E7A00606E032E056D2F6D6F64726E7E6E137316
:102E8A0066120B111B130B112E41277E6E936EB423
:102E9A006B147366366903506C2E046261636B931C
:102EAA006EA46EF0672E45626567696EA46EB06E99
:102EBA004869D7677C662E45656E646966B06EC1DF
:102ECA006E486985667069D7671B202E44746865E9
:102EDA006EC16ED66ECB6E2E42646FD66EE26ECD2A
:102EEA00690008D7678E662E446C6F6F70E26EF2C7
:102EFA006E8E667069CD690006AD6E2E452B6C6FBD
:102F0A006F70F26E066F8E667069CD690007AD6EDE
:102F1A002E45756E74696C066F1B6F7C667069CD81
:102F2A00690004AD6E2E43656E641B6F306F256FAA
:102F3A002E45616761696E306F3B6F7C667069CD43
:102F4A00690005AD6E2E467265706561743B6F50FF
:102F5A006F1313456F111185660D68CB6E2E42698A
:102F6A0066506F686FCD690004D7677366F067852E
:102F7A00662E44656C7365686F7C6F85667069CD73
:102F8A00690005D7677366F0671B8566CB6E856631
:102F9A002E457768696C657C6F9B6F6F6FCA672E69
:102FAA0004686F6C649B6FAA6F01FFFF9567AB673C
:102FBA0095671D1F2E03706164AA6FBF6FD76701E3
:102FCA000044162E023C23BF6FCE6FC76F95672051
:102FDA002E02233ECE6FDB6F030395671DC76F1A60
:102FEA000D682E047369676EDB6FED6F3868150420
:102FFA00017001002DB36F2E0123ED6F027074670B
:10300A001D886E38680100091A2068041C700100C6
:10301A00071601003016B36F2E0223730270237055
:10302A0008701A1A0D14042A702E03642E72237063
:10303A003470131B1AD96DD56F2A70F66FE26F11AF
:10304A001A0D68D665A9652E02642E347052707303
:10305A00663C70C7652E022E725270607013A66DA0
:10306A00113C702E012E60706E70A66D59702E0183
:10307A003F6E7079701D74702E046C6F6164797084
:10308A008370019E0002671C1D1320736650671C23
:10309A001D1320A1671D131CA16720357366019FAC
:1030AA00F41F03E76C1111506720111C02672001FD
:1030BA009DFF2C6804CE701CA1672035037366013E
:1030CA009FF41F2E032E046D6F72658370D07001FA
:1030DA00E70326A46601023E162C6804F470F16523
:1030EA00066D6F72653E3E2C03312E05766C697350
:1030FA0074D070F570318468D9701CE468C0681D9A
:10310A005D68140402712E06666F72676574F57045
:10311A001171B46B04307103AE681C286720C06853
:10312A001D46671D202E032E0370656E11713271C4
:10313A0001003E252E046C69737432713F713503A8
:02314A002E0055
:06314C000000000000007D
:00000001FF
