:100000000C947C000E943C050E943C050C94860CDC
:100010000E943C050C94D90C0E943C050E943C05B2
:100020000E943C050E943C050E943C050C942E0A4F
:100030000E943C050E943C050C94BB0D0C94CE051F
:100040000E943C050E943C050E943C050E943C0524
:100050000E943C050E943C050E943C050E943C0514
:100060000E943C050E943C0508D2313233D234351F
:100070002D0B2EDE2C213AAB3B22096162736364A7
:10008000657366076D6E6F7A7071727A00C336376A
:1000900038C339302B0A2ACD2F2428CD293D20679B
:1000A0006873696A6B736C0D7475767A7778797A90
:1000B0000E007C4023001B5F7E117F00253F7B19D3
:1000C0007D270F41425343444553461B4D4E4F5AE3
:1000D0005051525A00001C1E1F001D3C3E105E0075
:1000E0005C605B005D26A0474853494A4B534C8DEA
:1000F0005455565A5758595A11241FBECFEFD4E0C1
:10010000DEBFCDBF13E0A0E0B1E01D92AF3FB1076D
:10011000E0F30C94D20C2A9885E00E9488050E9496
:100120008D052A9A08950E948B0080FDFCCF0895CA
:100130002A9886E00E9488052A9A0895CF93DF9333
:100140002A988FE90E9488050E948D0590E08F37DC
:10015000910519F40E948D0590E08733910559F4BB
:100160000E948D05D82F80E0C82F0E948D0590E059
:100170008C2B9D2B02C08FEF9FEF2A9ADF91CF919E
:1001800008951F93CF93DF930F92CDB7DEB7182F4B
:10019000862F2A9899830E9488059981892F0E9429
:1001A0008805812F0E94880580E00E9488050F90B5
:1001B000DF91CF911F9108950F931F93CF93DF93FA
:1001C0008C010E949E00807020E28030920719F01E
:1001D000C0E2D0E002C0C8EDD0E00E949800C801A3
:1001E0006C2F0E94C1002A9A0E949300DF91CF9148
:1001F0001F910F9108950F931F93CF93DF938B015E
:1002000063E00E94C100C0E0D1E00E948D05F801CA
:1002100081938F012197C9F72A9ADF91CF911F917E
:100220000F9108950F931F93CF93DF93EC018B01F0
:100230000E949800CE0162E00E94C100C0E0D1E0BF
:10024000F80181918F010E9488052197C9F72A9AA8
:100250000E949300DF91CF911F910F910895839594
:100260008894982F82E092FF80E291FD02C0880F6F
:10027000880F90FF880F90E0891F089598E0890209
:1002800087E692E0800D911D11240895887F962FB6
:100290009770890F99278851914174E1687F679F12
:1002A000800D911D11240895695F687F795F7695AF
:1002B00076957695679F9C01CA01A001DFDFBC019E
:1002C000C90111240C9431069091080190931401F6
:1002D000890F809315019091060190930701690F92
:1002E000609316010895E42D1C15E8F42DB527FF41
:1002F000FDCF2EB52EBD2D93219613951C15B0F371
:100300001F1500F500C000000EC02DB52EB52EBD86
:1003100024233885369D152221253991369D0522C5
:1003200020252D9313951E1780F3E42DE760E395A8
:100330001E17A8F4EF1508F0EF2D1F1518F4C30DC4
:10034000D51DE3CFE760E3952DB527FFFDCF2EB593
:100350002EBD2D93219613951E17B0F34F10C31980
:10036000D5095A2D4F2F1850085008F0BCCF093F1F
:1003700020F000275B214829B6CF0895FF91EF9127
:100380002F923F924F925F926F927F928F929F92A5
:10039000AF92BF92CF92DF920F931F93CF93DF93D1
:1003A000EF92FF920994FF91EF91FF90EF90DF9110
:1003B000CF911F910F91DF90CF90BF90AF909F9002
:1003C0008F907F906F905F904F903F902F9011246F
:1003D00009945524D09008016D2CED2C2091140126
:1003E000D21608F4D22E9D2D987FDE2DD87F9D1B2E
:1003F000CE2DC77009F48395C0900601FC2C3324E0
:10040000E60EE0920801695F687F762E3F2D377017
:10041000432E19F028EF260F322E3C2D2091070194
:10042000C21608F4C22ECC2DC87F1C2F410EDF2D22
:10043000D87FCD1B4112C850C595C595C595C6023C
:10044000E001C90FD51D98E0989FC00DD11DC15A7C
:10045000DD4F209115012E1508F4E22EAFEFB3E029
:1004600087E08E0D887F9D2D987F891BA81BB0404B
:100470003F2D31953770C30FC51DF70E2091160122
:100480002F1508F4F22E862DEBDE682E8D2DE8DE7A
:100490008A9509F48FEF982E8E2DE2DE8195B82E85
:1004A0002FEFA22E8D2D6C2D687FF0DECC010D2D4F
:1004B000087F0195E00E0895FFEF2F2E822C2F93D9
:1004C0002DB527FFFDCF299A000029980E946B05C2
:1004D0002F916C2F7A2F592D422D0E2D45DF6C1B3D
:1004E0006195C61BD0407A1B7195A71BB040C70D04
:1004F000D51D472F5527BD010E94000680569F4FEE
:1005000028E0420E4F1408F04F2C185F1F15B8F268
:10051000089534DF5EDF08F4CFDF45DF0895B801CA
:100520009E918E917D012ADF54DF08F4C5DFA091F2
:100530001701A0930801A0911801A0930601BF9193
:10054000AF917E916E9111978E91AF93BF9341DFE2
:1005500008F4B2DF28DF089511DF7F936F93909145
:1005600008019F938F932F934F934F9332DF30F473
:10057000292C2094FF278B2C8094A1DFCDB7DEB7E8
:100580008C816E817F814F9141507AF74F912F91ED
:1005900021504AF09D819093080190910601970F98
:1005A00090930601E0CF8F919F916F917F91FBDE39
:1005B000089583B7816083BF1092C10080E187B93D
:1005C0003D98459A8AB18E7B8AB98BB181648BB98B
:1005D0001EBA0E9485030E947A050E94620510924D
:1005E0006B00109268000895982F907F19F0829503
:1005F00094E001C090E082FF02C0926002C081FDE1
:10060000916083FD9360892F089590E0FC0123E0C1
:10061000EE0FFF1F2A95E1F7E80FF91FE60FF11D16
:10062000E859FF4F84910895CF93DF93D091020151
:10063000C0910301909111018917C1F42091220109
:100640008D2F90E0837090708230910514F027FF19
:1006500004C0D13041F4263014F0215004C085E0AC
:100660008093020126E0209322014CC08093110167
:10067000D13039F0D13038F0D23059F0D330C1F523
:100680001EC08823E9F10E94F402C87FC82BDE5FF8
:100690002FC08823B1F48091220187FD31C08C2FB7
:1006A0008770843019F488E0C8272AC08C2F60E056
:1006B0000E94050380932101C0E0D4E019C0882383
:1006C000F9F09C2F977021E030E002C0220F331F19
:1006D0009A95E2F7821B0E94F402682F6F5F8C2FBD
:1006E0000E940503823D19F080932101C77FD5E068
:1006F000C093030180E180932201D093020102C0E4
:10070000D0E0F6CFDF91CF91089587B1807F87B990
:1007100088B18F6088B957985F9A2098289A089571
:100720008091220185FD0AC086B180958F708093EB
:1007300000012098289A579A5F980EC096B190951C
:100740009F70809100018295807F892B80930001AA
:1007500057985F9A209A28988091220190E28927E1
:10076000809322018091000108952F933F936F930E
:100770008F939F93EF93FF930E9490039091220198
:1007800095FD09C090910101891719F40E94140385
:1007900002C080930101FF91EF919F918F916F9122
:1007A0003F912F9108959091020192FF06C0809190
:1007B00021019B7F90930201089580E00895E6E077
:1007C000F1E0F09B08C09281918B9081928B685CE4
:1007D0006083885C08C099E1699FB0011124695D5C
:1007E0007E4F7183608382830895CF93DF93EC0102
:1007F00014C04997909307018093060180E491E02B
:1008000067E271E04FE352E00E94EB0686E693E078
:1008100069E170E040E20E944307809106019091F7
:1008200007018C179D0728F7DF91CF91089590E07D
:1008300023E0880F991F2A95E1F78E58934E68E0C0
:1008400078E040E30E94540180E368E078E040E013
:1008500020E00E94AC0280910801883D60F0809108
:100860000601885F8093060198E390930801883D14
:1008700010F0109206010895CF93DF93EC01F09BE6
:1008800003C00E9417042BC08D30910529F489E123
:1008900080930801C0E0D0E080910801893158F0D0
:1008A000109208018091060190910701499690935A
:1008B0000701809306018FE793E00E94F5032097DC
:1008C00071F080910801E0910601F0910701E80FB5
:1008D000F11DC083809108018F5F80930801DF9133
:1008E000CF9108950F931F93CF93DF93EC0184E290
:1008F0000E94F00500E010E08D2F82958F70082B8C
:10090000133011F0002331F08A300CF0895D805DE6
:100910000E94F00534E0CC0FDD1F3A95E1F71F5F30
:10092000143051F780E20E94F005DF91CF911F91C2
:100930000F9108950F931F93CF93DF93182F803A51
:10094000C8F5603AB8F5685C885C0E944601EC0125
:10095000812F0E942F010AB401FC02C000E001C0F7
:10096000082F0AB400FC02C010E001C0182F84E078
:100970000DB407FC02C08150D9F78EB5299A00004A
:100980002998CE010E946B050DB407FEFDCF9EB5E0
:10099000812F892B202F20958223909590239123BE
:1009A000892B80930901CE0169E071E041E050E0BC
:1009B0000E942506DF91CF911F910F9108958233F8
:1009C00008F051C0603308F04EC0262F269599E1FB
:1009D000299F90011124982F9695290F311D60FFB2
:1009E00002C098E001C092E080FD96950AB401FC37
:1009F00002C050E001C0592F0AB400FC02C040E020
:100A000001C0492FF901E95DFE4F8081803A21F054
:100A1000282F2877203121F4877887FF05C002C06E
:100A200080E002C02FE88227392F30953523242F0C
:100A3000252B2095232B2823352F3095392334233C
:100A4000232B942380959823292B23FF02C08FE822
:100A50002827322F305F832F90E0877090700097A7
:100A600009F4305F30830895F09B03C00E949A041C
:100A700008950E94DF04089578949F939FB79F93F1
:100A80008F93FF93EF93EDB7FEB7878186958250E2
:100A90000E942F01978194311CF480931D0107C09F
:100AA00094321CF480931E0102C080931F019F9119
:100AB00096839F9197838F919F919FBF9F91EF9175
:100AC000FF910895299881E00E94880581E40E94A1
:100AD0008805299A089523E02EBD0DB407FEFDCFA9
:100AE0009EBD0DB407FEFDCF8EBD0DB407FEFDCF3C
:100AF0001EBC089584B1817C8E6284B985B1817CED
:100B0000866085B98DB581608DBD80E58CBD089509
:100B10008EBD0DB407FEFDCF08951EBC0DB407FEBB
:100B2000FDCF8EB50895EF92FF920F931F93CF9351
:100B3000DF93EC010E947207E881F0E099819095C3
:100B40008081892380830C811D81EA80FB8007C01E
:100B500001501040F70181917F010E948805011525
:100B60001105B1F708851985EE80FF8007C0015097
:100B700010400E948D05F70181937F010115110539
:100B8000B1F7E881F0E080819981892B8083DF9142
:100B9000CF911F910F91FF90EF90089578948F93CC
:100BA0008FB78F939F9380911A018A9580931A0132
:100BB00071F0905E80FD9F5D98BD90911901089441
:100BC00097959093190180E228F480E303C080E0B8
:100BD00085BD82E084BD9F918F918FBF8F910895D5
:100BE00099270C943C04D7FD04C0FE018591219601
:100BF00006C021968DB587FFFDCF8EB58EBD0895B9
:100C0000EF93FF93E42FE52BE9F0FB017DB577FF30
:100C1000FDCF299A0000299862E06EBD7DB577FF6F
:100C2000FDCF9EBD7DB577FFFDCF8EBDF03110F0BD
:100C3000659101C061917DB577FFFDCF6EBD4150DB
:100C40005040A1F7FF91EF910895EF93FF93E42FA8
:100C5000E52BC1F3FB01299ADDCFC80170E050E01C
:100C60007D0197FF1BC06F936DB567FFFDCF299A7C
:100C70007F934F935F9329980E946B059F918F916B
:100C8000BF91AF9101C06EBD6DB567FFFDCF6EB571
:100C90006D930197C1F7299A6EBD0895FC01DB01A0
:100CA000CA0145914D930197E1F7089500C0299835
:100CB00000C02DC02EBD08942DC0FF91EF9120F4EF
:100CC0002197332444245524DF93CF93EF93FF934C
:100CD000C0911B01D0911C01EDE1F1E00D931D933A
:100CE000F8940281128278940D93F8940381128211
:100CF00078940D93F894008110827894F89411817F
:100D0000118278942DB527FFFDCF299ACFCF23E00C
:100D10002EBD889420911D0130911E01232B30910E
:100D20001F01232B3DB537FFFDCFDEBD30912001E4
:100D3000232B19F623E0AF3FB207A8F02DB73EB73B
:100D400028523040A217B30788F42DB527FFFDCFF6
:100D5000CEBD309111013639F79B59F02DB527FFE3
:100D6000FDCFCEBD089502E516E505C00EE516E5FA
:100D700002C009E616E52DB527FFFDCF299A24E02C
:100D8000F8942EBF2FEF2DBF78946E01AFEFB3E034
:100D90008FE696E5B0C0299A8EBD08956C0C7D1C37
:100DA0008C0C9D1CA6014830510508F048E0641ADF
:100DB0007108841A9108A42E50E0C30169E071E023
:100DC00050DFC40169E071E04A2D50E019DFCA1814
:100DD000D10841F72CC04115510581F1903178F1CE
:100DE000703198F1DF92CF92AF929F928F927F9263
:100DF0006F926A013C014B018617970778F2A601B2
:100E00004830510508F048E0A42E50E0C30169E0E5
:100E100071E027DFC40169E071E04A2D50E0F0DEA7
:100E20006A0C711C8A0C911CCA18D10841F76F908A
:100E30007F908F909F90AF90CF90DF90089570310A
:100E400030F0FC01CB01BF01DBCE0BDF0895FC01CC
:100E5000DB01CA01EA17FB0728F061916D93019746
:100E6000E1F70895E80FF91FA80FB91F62916E937B
:100E70000197E1F7089529988EBD05D08DB587FFBC
:100E8000FDCF299A08956115710529F1903120F15E
:100E9000DF92CF92BF92AF926C015B016830710517
:100EA00008F068E070E0A9E0B1E017D0C60148E0C2
:100EB00050E0A416B50608F4A501A41AB50AC40E9C
:100EC000D51E69E071E09CDEA114B10479F7AF9002
:100ED000BF90CF90DF900895DC01CB014D93019737
:100EE000E9F708950DB407FEFDCF299A08950E94F1
:100EF0002B0AAFEFB3E0EC014424552480E090E0EE
:100F000029980E946B0581EE99E03C01D7FF52C001
:100F10008DB587FFFDCF299A23E02998F9DE32C0ED
:100F2000D7FF27C08DB587FFFDCF8EB5299AC80F93
:100F3000D11D87FF11C0DA95C415D50531F421966E
:100F400023E02998B7DE832D23C02E0123E02998C2
:100F5000DFDE49DE382E1CC023E02998D9DE12C01E
:100F6000CDB5C7FFFDCFCEB5299A23E02998D0DEB5
:100F700009C0FE01849187FDDA95C80FD11D1AC002
:100F8000D7FF18C021968DB587FFFDCF8EB58EBDDA
:100F90008A3420F4F301E80FF11D09942196DF93C0
:100FA000CF93D82F87FDDCCFCDB5C7FFFDCFCEB512
:100FB000299ACEBDFE01859121968A3420F4F30151
:100FC000E80FF11D09942196DF93CF93D82FC59197
:100FD000F1CFC8011E910E918A34910580F3DF9301
:100FE000CF93EC0193CF0D931D9310E000E0C8CF99
:100FF00090E002C0F8DD982F0D931D93F4DD8C0175
:10100000BFCF1E910E91BCCF012B1E910E9161F4AA
:1010100087CFF60131966F01CA14DB040AF480CF42
:10102000CF90DF90AF90BF90DEDDAACFF601E00F4A
:10103000F11F6F01EA19FB09F1271E910E91F7FDCF
:10104000EECFEECFBF92AF92DF92CF926801BE900B
:10105000AE901E910E9194CF7E916E914427069F83
:101060004001169F612D900C641F079F900C611D1D
:10107000179F712D600D741F8B018D929D9211240D
:101080007FCF11978E9111976E91F801F89400819E
:101090008023862B80837894112772CF9E918E9126
:1010A0007E916E918017910798F441E107C0881FE7
:1010B000991F8017910710F0801B910B661F771FF7
:1010C0004A95A9F7609570958D939D938B0158CFA4
:1010D0008FEF9FEFF9CF9E918E910823192350CF68
:1010E0009E918E91082B192B4BCF9E918E910827A4
:1010F000192746CF650144CF0D931D930F911F9182
:101100003FCF0D931D93EDB7FEB70181128138CF0C
:101110001F930F931E910E9133CF012B09F00FEF08
:101120000095102F2DCF002717FD0095102F28CFE9
:10113000109501951F4F9E918E91080F191F20CF7A
:101140009E918E917E916E915E914E91840F951F2E
:10115000061F171F8D939D9313CF109501951F4F59
:101160000FCF9E918E9190950095109581959F4FF0
:101170000F4F1F4F8D939D9303CF9E918E9112968B
:101180000D931D938C01FCCE0D931D93FD0138979B
:1011900000800D9201800D9202811381F1CE9E910B
:1011A0008E910D931D938C01EBCEFD0136978281BC
:1011B0009381028313838C01808194818483908343
:1011C0008181958185839183DBCE0D931D93D8CE4C
:1011D00042E068E003C041E069E088243EDDD701D9
:1011E000092D182D93CE60E144E037DDD7011D9322
:1011F0000D93032F122F8ACE41E0C8011E910E914C
:1012000008C02E913E9144E001C042E0C8010E9119
:101210001E9160E170E050E0F3DC1E910E910DB480
:1012200007FEFDCF299ACEBD71CE0D931D93860189
:10123000A7CE0F5F1F4FA4CEFE013196F695E7951E
:101240000994F801008111279BCE11978E91F80126
:101250001E910E91808394CE0D931D9300911201E7
:1012600010911301080F111D0895BDDCF5DFF80181
:10127000F89401911081789483CEB5DCEDDF9E91D6
:101280008E91F8011E910E91F89481939083789439
:1012900077CEC8017D010E943C04D701F09BB1CEFE
:1012A00060C0C8017D010E947204D701F09BA9CEE5
:1012B00058C0EFEDF3E0B8014FC0CF91DF9126CEDB
:1012C000015010405DCEE3E4F7E043C09E918E9163
:1012D00004C0892F99270850104008301105C8F71D
:1012E00002C0969587950A95E2F78C0149CE9E91AA
:1012F0008E9104C0982F882708501040083011059F
:10130000C8F702C0880F991F0A95E2F78C0138CE02
:10131000EBEFF0E0B8019E918E917D01E3DD099540
:10132000299885E08EBD1CC0E2E1F1E0F3CFECED41
:10133000F0E0C801F2CF7D01D5DD0E949E00D7010B
:101340000D931D938C01299885E08EBDDFCDEBEECA
:10135000F6E0A8017E916E919E918E917D01099596
:10136000D7011E910E91D2CDE4E3F5E0A4CFC801E0
:101370007D010E949305D701F4CF02CEC80141CE72
:101380000D931D938E0199CF02D001D096CF0D936E
:101390001D9329DC182F27DC082F0895E4E5F1E0E0
:1013A000D8CFE9E8F2E087CF0E948F02E4CFECEAE1
:1013B000F2E098015E914E91CDCFE4E6F1E07BCF73
:1013C00096CDDECD17CE05CE1CCE1ECE21CE21CEA3
:1013D0002DCE38CE41CE55CE61CE7DCE81CE85CEBE
:1013E00089CE8ACE89CE8DCE93CE97CE9CCEA3CEFB
:1013F000A7CEB3CEB6CEC1CED2CEE7CEE9CEEBCE1F
:10140000FBCE03CF12CF15CF17CF1BCF1ECF2FCFC1
:1014100036CF3FCF2ACF45CFE6CDEACD4ACF4DCF0D
:101420004FCF51CF2ACF52CF62CF72CF7DCF8FCF48
:101430009BCF9DCFA2CFA2CFA3CFA7CFAFCFB1CF0E
:10144000B3CFB5CFBACF74CE72CF75CFCCCED9CE05
:101450009BCF9ACEAACE83E69CE508951F920F9269
:101460000FB60F9211242F938F939F938091260193
:10147000873009F03FC00E94720B809123018823BE
:1014800071F58091220187FD07C0809188009091BD
:1014900089008750984D06C08091880090918900FE
:1014A0008F52924E9093890080938800F09B0AC0DF
:1014B00080918800909189008050964F9093890088
:1014C0008093880088E08093260180912401909188
:1014D0002501019690932501809324018FC080916E
:1014E00088009091890080569F4F90938900809347
:1014F0008800F0C0843009F45AC0853050F481303F
:1015000069F18130C8F08230C1F1833009F0E2C066
:101510003FC0893009F49FC08A3038F4853009F41F
:1015200070C0883009F0D6C089C08A3009F4A4C0E0
:101530008B3009F0CFC0B2C08FE48093B30085E058
:101540008093B4008091880090918900845B9E4FC5
:10155000909389008093880081E0BAC089E48093E9
:10156000B400809188009091890080579E4F90939D
:1015700089008093880082E0ABC0809188009091C0
:101580008900CE96909389008093880083E0A0C064
:1015900085E08093B40080918800909189008A56FC
:1015A0009E4F909389008093880084E091C08FE9DA
:1015B0008093B3008BE08093B400F09B0FC080E178
:1015C00080932301809188009091890084549D4DDF
:1015D000909389008093880085E00DC010922301CC
:1015E00080918800909189008D53924E909389004C
:1015F0008093880087E08093260178940E94B50349
:1016000069C08091880090918900895F9A4F90937A
:1016100089008093880087E08093260180916B0089
:10162000826080936B008091680081608093680085
:10163000D89A299B4FC02998299A4CC0809188003C
:10164000909189008C569F4F9093890080938800D9
:10165000109226013FC080918800909189004896A1
:10166000909389008093880080917E03869586956B
:10167000809323018AE02CC088E08093C100809190
:10168000880090918900209123014896820F911D36
:1016900090938900809388008BE01AC01092C1005B
:1016A00080918800909189002091230180599F4F5B
:1016B000821B91099093890080938800B09B07C09A
:1016C000B09A209880E889B98AB180588AB989E0AF
:1016D000809326019F918F912F910F900FBE0F90B5
:1016E0001F9018950F921F92EF93FF930F93AF9354
:1016F000BF93CF93DF93E4E8F0E000801080C081D7
:10170000D08103940081A081B081E081C01529F0CF
:10171000D01541F0E01579F40EC0101431F0A01589
:1017200041F407C0B01521F403C0001521F403C033
:1017300000C0000000C000918800025FA0918400FA
:1017400000C00000A017D2F3D0912301D03CA0F537
:10175000F39993C0A9E1BD2FB695B695B695AB9F09
:10176000A7E2B1E0A00DB11DD7701F9318E108E00A
:10177000F0E0E8E0F093C600E093C100ED91CE2FD9
:10178000EF770E9F0D0EE03130F0E2E7FCE1E00D67
:10179000F11DE49106C0EFE7F3E0E00DF11DE081FB
:1017A00000C0C7FDE095F091C000F5FFFCCFE093CD
:1017B000C60011501AF737C01F93F0910301A9E03A
:1017C000FA9FE02DF0E0D3FDEC5FA9E6B0E0AE0FAC
:1017D000BF1FE2E7FCE1CD2FC770D0E0CE0FDF1FC7
:1017E00010E0E8E0E093C100FD010491003108F44D
:1017F00000E2E8E0F02FFF77EF9FFE01E00DF11D22
:10180000049007FF0094F091C000F5FFFCCF009218
:10181000C60011961F5F143038F3D0912301DF5FAB
:10182000D03D48F409C0D0912301DF5FD03C20F0C7
:10183000F0912201F7FFD0E0F091C000F5FFFCCF5E
:10184000A0E0A093C100D03C51F4E0918800F09159
:101850008900E85DFF4FF0938900E0938800D09302
:1018600023011F91DF91CF91BF91AF910F91FF9114
:10187000EF911F900F90089500001F93F49B3DC0BF
:10188000A7E2B1E007EC11E0F801D3FD8D01D3FD33
:10189000DF01F0E0D770AD0FBF1FE4E1DE9FE8018C
:1018A000C00DD11D14E1E8E0F093C600E093C10043
:1018B0000DB507FFFDCF0EB50EBD0993EC9118963F
:1018C0000091C00005FFFCCFE093C6001A9581F798
:1018D000D0912301DF3A08F4A6CF0DB507FFFDCF65
:1018E000F29B0EB5D05F299AF49B05C09ECFC0E451
:1018F00005C0C0E203C0C0E101C0C8E0DC2FB09B5E
:10190000FECFB09ADA95D9F7349AF8CF0F930FB784
:101910000F9300912301003109F0EBCFF499E7CF49
:10192000F1982999F19A00916B000D7F00936B005B
:101930001F93AF93BF931F9211240DB5F29807FD2B
:10194000F29A299AF39AF49AA0E8B3E71BD000EA36
:10195000A7E2B1E01DB517FFFDCF1EB50EBD1D936B
:101960000A95C1F7D89A7894299BFECFF19B2998C4
:10197000F398F4981F90BF91AF911F910F910FBFF3
:101980000F911895299803E00EBD0DB507FFFDCF07
:10199000BEBD0DB507FFFDCFAEBD0DB507FFFDCF39
:1019A0000EBD08950E94D9028FEF8DBF0C9477076A
:1019B00008951F920F920FB60F9211242F933F9309
:1019C0008F939F93AF93BF93EF93FF9326B580912F
:1019D00068008B7F809368007894EFE7F3E0818163
:1019E000322F381B21838081982F96959695920FE0
:1019F00097BDA99A90818695890F879590E49093D9
:101A00001A0190916E00926090936E00958121E092
:101A1000831708F420E030937E038481823099F0AC
:101A2000833018F4882331F023C08B3079F08C3068
:101A3000F9F425C0903118F0213009F51DC022239A
:101A4000E9F49F5F1CC084E0821B19C0990F922BA0
:101A5000A281B3819D93808591858E5B9F4FA8174E
:101A6000B90711F480E001C082E0B383A28306C00D
:101A7000990F922B8F5F03C083E001C090E08483B5
:101A80009583FF91EF91BF91AF919F918F913F917E
:101A90002F910F900FBE0F901F9018959C01832FD0
:101AA000922F862730E1389F8125389F902520E2AC
:101AB000289F8025912511240895AF92BF92CF923F
:101AC000DF92EF92FF920F931F93CF93DF93082F34
:101AD000CFE7D3E0C884D9848C818823E9F38C8153
:101AE0008823E9F7EA81FB81B290A2908A859B85E1
:101AF0009C0120503F4FE217F30708F0FC01FB83E5
:101B0000EA83F987E887760110E08FEF9FEFF7010E
:101B100061917F010E944E0D1F5F1034C1F78A153D
:101B20009B05D9F4202F269526952695077081E0F0
:101B300090E0382F01C0330F0A95EAF7FE01E20F5B
:101B4000F11D2785832F822329F48D859E8501969B
:101B50009E878D87232B278702C0CC24DD24C601D6
:101B6000DF91CF911F910F91FF90EF90DF90CF9079
:101B7000BF90AF90089578948F938FB78F939F9372
:101B800080911A0186FD22C0982F9F71903129F40F
:101B900087504AF48AE090EC06C09F7098309BB55D
:101BA00011F490911901990F9BBD96E108F097E30C
:101BB00097BD90937E03982F81509F7011F0809372
:101BC0001A019F918F918FBF8F910895897F809384
:101BD0001A0180916E008D7F80936E008BB38460BC
:101BE0008BBB80916800846080936800EACFE3003B
:101BF0002701000002002701270100000003100553
:101C0000050E01050B64848484060784848484841F
:101C1000848406848484840784848484848484A063
:101C20002020159500A00115A0A0011595A0201554
:101C30009500A00115A0A001A020201595A020A02E
:101C4000159520A01595A0201595A020A0159520EC
:101C5000A0A02020159502A0A0159520A015950202
:101C6000A0159502A003159520A06B01A01802A055
:101C700003003F7FFFFFFFFFFFFFFCFEFFFFFFFFB3
:101C8000FFFFFFFFFFFFFFFF7F3FFFFFFFFFFFFFA4
:101C9000FEFC00FF00FF00FF00FFFFFFFFFFFFFF54
:101CA000FF000F0F0F0F0F0F0F00F0F0F0F0F0F02C
:101CB000F000FF80808080808080FF0000000000B6
:101CC0000000FF010101010101018080808080800E
:101CD00080800101010101010101808080808080FC
:101CE00080FF00000000000000FF01010101010170
:101CF00001FF3F7FFFFFFFFFFF000F0F0F0F0000EF
:101D00000000F0F0F0F000000000FFFFFFFF000017
:101D10000000000000000F0F0F0F0F0F0F0F0F0F2D
:101D20000F0FF0F0F0F00F0F0F0FFFFFFFFF0F0F7F
:101D30000F0F0000000055AA55AA55AA55AA000089
:101D40000000505050505050505055AA55AA55AA16
:101D500055AA0000183C3C1800003C7EFFFFFFFF26
:101D60007E3C3E419CAC9F403F0000008E9526C8C3
:101D7000F000000000000000000000101010100033
:101D80001000002424000000000000247E24247E93
:101D9000240000081E281C0A3C0800626408102663
:101DA0004600001028102A443A00000810000000E5
:101DB000000000040808080804000020101010109B
:101DC0002000000014083E081400000008083E0827
:101DD00008000000000000080810000000003E009D
:101DE00000000000000000181800000002040810A5
:101DF0002000003C464A52623C00001828080808AF
:101E00003E00003C42023C407E00003C420C02424C
:101E10003C0000081828487E0800007E407C0242F2
:101E20003C00003C407C42423C00007E0204081022
:101E30001000003C423C42423C00003C42423E0218
:101E40003C00000000100000100000001000001016
:101E5000102000000408100804000000003E003EAE
:101E600000000000100804081000003C42040800B4
:101E70000800003C4A565E403C00003C42427E4224
:101E80004200007C427C42427C00003C4240404296
:101E90003C000078444242447800007E407C404050
:101EA0007E00007E407C40404000003C42404E426C
:101EB0003C000042427E42424200003E08080808C0
:101EC0003E000002020242423C0000444870484486
:101ED00042000040404040407E000042665A42427C
:101EE0004200004262524A464200003C42424242A4
:101EF0003C00007C42427C404000003C4242524A4E
:101F00003C00007C42427C444200003C403C024297
:101F10003C0000FE101010101000004242424242ED
:101F20003C0000424242422418000041412A2A1447
:101F30001400004224181824420000824428101083
:101F40001000007E040810207E00000E080808081B
:101F50000E00000040201008040000701010101047
:101F60007000001028440000000000000000000085
:101F700000FF001C227820207E00000038043C4432
:101F80003C000020203C22223C0000001C2020209D
:101F90001C000004043C44443C00000038447840E9
:101FA0003C00000C10181010100000003C44443C91
:101FB00004380040407844444400001000301010C1
:101FC00038000004000404042418002028303028BD
:101FD00024000010101010100C000000685454541D
:101FE0005400000078444444440000003844444411
:101FF0003800000078444478404000003C44443CB1
:10200000040600001C202020200000003840380476
:1020100078000010381010100C00000044444444B4
:102020003800000044442828100000004454545450
:102030002800000044281028440000004444443C88
:10204000043800007C0810207C00040808300808D0
:10205000040000080808080808002010100C1010E0
:10206000200000142800000000003C4299A1A19922
:04207000423CFFCF20
:10500000635C0000006B65726E001C161CA65C01E0
:105010002250161D1B15040A1C2C08321B2C0833A9
:105020000D2E721C01013853CC54D857FD57AF5F79
:10503000C863665316528555EF67606D746E106EC7
:10504000206D7A6D0F6D4C6E7F0302508065786520
:105050006300824A50806900A15350806C6561767C
:1050600065008F595080616E64008C6350806F7250
:10507000008D6B5080786F72008E7250803E3E00C3
:10508000B27A50803C3C00B38150803B7300AE88C4
:105090005080723E00918F50803E720093965080F7
:1050A0007200929D5080303D0094A35080303C00AF
:1050B00095AA50802B0096B150802D00C2B7508029
:1050C000642B0097BD50806E65670098C450806463
:1050D0006E65670099CC50806F766572009AD550E6
:1050E0008064726F700083DE508073776170009B04
:1050F000E75080647570009CF0508040009DF8502F
:10510000806340009EFE50802100A00551806321F5
:10511000009F0B5180644000C5125180642100C67D
:10512000195180752A0089205180752F008B2751D5
:1051300080656D697400A82E5180706C6F7400B723
:10514000375180312B00A2405180636D6F7665002E
:10515000B647518066696C6C00B0515180696340FC
:1051600000A45A518069632100A562518069400002
:10517000A66A5180692100A77151803E706F7274D8
:105180003E008A78518073706900B8835180312D58
:1051900000AF8B5180617400AD9251802E686578AC
:1051A00000AA99518074696C6500BDA25180626C3F
:1051B0007400BEAB518032626C7400BFB351806228
:1051C0006C747300C0BC5180636C697000C1C551C0
:1051D000802A000309CE5180322B002222D5518033
:1051E000732D3E6400151CDD51802D31002F2BE7FF
:1051F0005180322A00161CEF51006C6F637300114E
:105200001BED53261B181A161CED5327E4532613C7
:10521000E4532713132E111111E45327ED532703E1
:105220002EF751406C6F633B002E5716523E572E9F
:10523000FF548F541D3E57F653261313C95A118F2E
:105240005420F6532611420149568D56FF542E2103
:1052500052406C3E002C2930522E4F52403E6C0082
:105260002C3130522E5A52006B657900018452DB8A
:10527000531C261B2222241653622E655200696E8F
:105280006B65790023007D010E94D3039927D70124
:105290000D931D938C01CF91DF910E9488060C9491
:1052A0008607013E00242C010C2E7B5200636C7398
:1052B000002B2B2DA252040F2CA02CA0410180F317
:1052C00001800C2B0508C1530158022C20302EAA56
:1052D000520069270023C501DBCFCF520063720063
:1052E0002C0D282EDA520074797065003C55040CA0
:1052F0001A161B08211E2806FC0502032EE4520084
:10530000737061636500B653282EFD52007370619F
:10531000636573002BCD5C3C5504072B08065306D0
:10532000FD2E050328221C1E1C1404F9032E0A530B
:1053300000222E002253032E11225322132E2C2240
:105340002859DA54975822E7542E2E53402E220023
:105350008F541D04092E5738533E5305092C22281B
:1053600059DA5434532E111C1D1322222E4A534055
:1053700022008F541D04122E576653DA542BF15419
:105380003E53DA541B2005033E532E6D53007661C5
:1053900072002C3B050C8B5300636F6E7374002CF2
:1053A0003C2A5ADA542F1FF1542E9653803000AB0A
:1053B000AA5300626C003C2000B053007672616D0D
:1053C000003C2701B95300636C6F636B003C240100
:1053D000C4530073797376617273003C0601D05335
:1053E000007366003C1201DE53007270003C5D00E9
:1053F000E753007370003C1A00F0530073703000E4
:105400003CFF03B86E0100FFFFFFFF00000000003B
:1054100000000080802B000A002080F95300637593
:105420007272656E74003C00801B54007761726E6E
:10543000696E67003C02802954006D61726B657271
:10544000003C0480375400746F70003C0680445464
:1054500000626C6B2A003C08804E5400626C6B73D7
:105460002A003C0A80595400626C6B23003C0C807B
:10547000655400667061727365003C0E8070540064
:105480006470003C10807D54007374617465003C4E
:10549000128086540062617365003C14809254004F
:1054A000686C64003C16809D5400746962003C186E
:1054B00080A754006C61746573740026541D2EB16E
:1054C00054002B21001B1A1D161B202E1A1E0E1B0A
:1054D0001F2EBF5400686572650083541D2ED25480
:1054E00000616C6C6F74008354C5542EDE54002C24
:1054F00000DA54202C02E7542EEC5400632C00DA1E
:10550000541F2C01E7542EF954803D0014420755D6
:10551000803C0015420E55003E001B15422E1555CD
:1055200000726F7400131B111B2E1E5580326475A0
:1055300070001A1A2A55003F647570001C04021C82
:105540002E345500753C002B1B2B19171B032E2CDA
:105550003F242C020C1404F81C2C08322C42252C5D
:1055600041252E415500656340004F552C0101FE39
:10557000FF2C3F0A032C40242E6355006563210055
:105580004F552C402523F894FA9AF99A789483CEB3
:10559000795500656D6F76653E002B081A6A551ABD
:1055A0001F1B221B2206F603032E23008BE193E030
:1055B0007D010E94F503D7010C945D099055006CA4
:1055C00066613E63666100EA551C07561B1E2C800F
:1055D0000C040C1D1C1504072C08322C7F0C2EBC4F
:1055E00055006C66613E6666610022222EDF550022
:1055F0006C66613E6E6661002C03162EED550066EA
:1056000066613E70666100221C975816222EFC557A
:10561000003E6C666100BB5405021D1A1A47551402
:105620001A1D140D04F51B032E576861742773208F
:10563000004D69736D6174636865640057726F6EC5
:10564000672073746174653A004261642052656634
:105650003A00537461636B20456D70747900537424
:1056600061636B2046756C6C00427265616B00343F
:105670005306533853696E2000211656F85534539B
:10568000865B2E0E56003F6572726F72001B041E01
:105690008F541D040F3853496E2000BB54F8553405
:1056A00053065334530653DA543453865B032E8324
:1056B00056003F636F6D70008F541D14013C568D72
:1056C000562E8F541D013C568D562EAF56003F70FE
:1056D0006169727300420131568D562ECB56403AA5
:1056E00000C2562A5A01FFFFE75448572EDC5640A5
:1056F0003B002E572E003E572EED5600696D6D650E
:10570000646961746500BB54EA552C40CC542EF991
:105710005600782C001C0100FF0C0405F154050311
:10572000FF542E0F5700636F6D70696C6500B8569B
:10573000111C1D15572222132E2357405B002B8F5F
:1057400054202E3957005D002C408F54202E435793
:1057500000736D7564676500BB54EA552C20CC540A
:105760002E4E57003C6275696C6473002A5A2BFFF9
:10577000542E615740646F65733E00018557F154A4
:105780002C10FF542E11BB54EA550756202E725789
:105790004028002C2928592E8E5700686578002C47
:1057A000109A54202E985700646563696D616C00EF
:1057B0002C0A9A54202EA557006469676974001357
:1057C0002C30422C091A1542040A2C07421C2C0AC0
:1057D00015420D1C1147552E05141B9A541D090323
:1057E00025559A541D09171122111C1516131C1347
:1057F0001E9A541DBF571404E20311112E131C1ED0
:105800002C2D14421B1A422B2B255511D8571A1E2A
:105810002C2E14421A0C0407181B221BD8571313E2
:10582000255504021911112EB657006E756D62656B
:1058300072009A541D131C1E2C24144204049F57FA
:10584000222C01FD571A1E2C641442040703222C3B
:105850000205151C1504111B1C1E2C651442422B3D
:10586000FD57031B030C6C1B1E140C119A54202EA5
:1058700028580063496E2200131A1815161A161CB0
:105880001E1C1214421B140D04F411031B032E7072
:105890005800226C656E002C011A2B78581B422E82
:1058A0001C1E1C140437031C56541D010002161440
:1058B0004204276D541D042256541D010001161C7C
:1058C000E86542010001366D541D221C6D5420F222
:1058D000681BE865421BE865421C1E142E8F5800A9
:1058E00022736B6970426C001C0502221C1E2F2C57
:1058F000E00C04F8A05804F21B032EDD5800656E7E
:10590000636C6F736500131C0502221C1E1C2C0E99
:1059100015421B1214420D04F2A05804EC11032E80
:10592000FB5800776F726400AE541DE8581B06598F
:105930001C1C1E141442AE54201A421C13DA541BB1
:10594000362B11DA54161F2E205900223C3E00053A
:1059500006031B221B221A1E1C131A1E421C1114A2
:105960000D04EF1B031C151B1815421B1E142C08DD
:105970000C332E485940617363002C202859DA54A7
:105980001E8F541D04072C2CFF54FF542E735900F6
:105990002221001A975822362E8D5900222B001CE6
:1059A00097581693592E9959002263757400162B37
:1059B0001B1F2EA659002266726F6D001A9758BDE4
:1059C0005C162EB35900617272006C57161CE754B6
:1059D0008557101A16162EC3590062797465730024
:1059E0006C57E754855710162ED7590066696E64B8
:1059F00000B6532859DA54BB541CEA551E2C200C0F
:105A000004021D0505110311031C131A1AF8554F42
:105A10005914131D1C14120D04EC030311110C2E48
:105A2000E9590063726561746500BB54F154DA543E
:105A30002C02422654202BFF54B6532859DA54978F
:105A40005822E754013B00FF542E205A405B636FFD
:105A50006D70696C655D00F1591C142B8D56C7552E
:105A600015572E4A5A406C69746572616C008F54E8
:105A70001D041E3C5504161C0100FF0C04082C01DB
:105A8000FF54F1542E2C2CFF54FF542E2C2BFF547A
:105A90002E635A40646C69746572616C008F541D8A
:105AA00004061B6E5A6E5A2E915A006279650011D7
:105AB000030505A85A4000110311032EB35A0069CB
:105AC0006E7465727072657400F1591C042F1CEAC3
:105AD000551E2C7F0C8F541D15420407C7551557B2
:105AE0000519C7551C01004A1542040E1C01090185
:105AF000252C0832020109012402051F03DA543261
:105B0000581C14040903DA540129568D562C01142B
:105B1000420406036E5A05039D5A2EBC5A00227297
:105B2000756E00C95A05FD2E1B5B00746F70210055
:105B300001FFFF1C131E2B121F01FF9F1C1E1A12B8
:105B40001B1F1A121E140D4B54201B1F111F2E2831
:105B50005B00636C61696D002222184B541D1C139D
:105B6000161C4B5420111A2022222E4F5B00726506
:105B7000636C61696D002C02421D4B54202E6B5BDF
:105B80000071756974000054F6532701FF04ED534A
:105B9000273E57E0520120801CAE5420C5652C01E1
:105BA000AE54C554235B8F541D14040638534F4B19
:105BB0000005E17E5B0061626F7274000054F65371
:105BC0002701FF04ED5327305BB057E0522B68608C
:105BD0002C01086038534649476E6974696F6E201E
:105BE00056312E302E310D7F6E696368656D6163AD
:105BF00068696E657320323031312D323031340DA9
:105C0000004B541DDA5442E35E3853627974657375
:105C100020667265652E00865BB35B0070617573EC
:105C200065001CA65CCD5326161A15040A01110145
:105C300024040403032E1CCD5326421504EC030355
:105C40002E2B161B221C1E13221A1A1B123611167B
:105C50001B1A1E3C551404EB03032E195C00636FE2
:105C60006C64000103540100802C18363F60B1526F
:105C700001721C017F032C803601FC1B01EF0141E6
:105C80005C019CFF225CBC5B5B5C002B2D0015045F
:105C900002182E885C00642B2D00150402192E9327
:105CA0005C00616273001C8E5C2E9F5C006461620C
:105CB00073001C9A5C2EAA5C006D696E001A1A1A99
:105CC0005504021B032EB65C006D6178001A1A158C
:105CD0004204021B032EC65C006D2A001A1A0E1322
:105CE000A65C1BA65C09119A5C2ED65C002A2F6D5F
:105CF0006F640013DC5C110B5D2EEA5C002A2F0040
:105D0000F35C1B032EFA5C006D2F001A1313B25CB8
:105D100012A65C0B11120E8E5C1B118E5C1B2E05E5
:105D20005D002F6D6F640013151C110B5D2E1F5D40
:105D3000002F00275D1B032E2E5D006D6F64002772
:105D40005D032E385D006D2F6D6F6400132B120BF9
:105D5000111B130B112E2555D556FF54DA5442FF53
:105D6000542E435D406966002E570400DA542BFF21
:105D7000542C022E625D407468656E00B8562C0289
:105D8000D556DA541A421B1F2E745D40656C73653C
:105D9000002C02D5562E570500DA542BFF541B2C2D
:105DA000027C5D2C022E895D40646F002E57080036
:105DB000DA542C032EA65D406C6F6F70002C062CFD
:105DC00003565D2EB55D402B6C6F6F70002C072C59
:105DD00003565D2EC45D40626567696E00B856DA91
:105DE000542C012ED45D40756E74696C002C042C0B
:105DF00001565D2EE45D407768696C6500685D2240
:105E0000222EF45D407265706561740013132C05D9
:105E10002C01565D11112C02427C5D2E1A14421188
:105E20001B04071B03222205021D132E025E0068BD
:105E30006F6C640001FFFFA454C554A4541D1F2EB1
:105E40002C5E0070616400DA542C43162E405E0014
:105E50003C2300475E2B1A1FA454202E4D5E0023C6
:105E60003E000303A4541D475E1A422E5C5E00737D
:105E700069676E0025551504052C2D345E2E6C5E69
:105E80000023009A541D4C5D25552C091A15420417
:105E9000042C07162C3016345E2E7E5E0023730011
:105EA000835E1A1A0D1404F92E9A5E00642E720095
:105EB000131B1AB25C535EA05E745E625E111A42DE
:105EC0001453EC522EA95E00642E002BB05E0653D4
:105ED0002EC55E002E720013151C11B05E2ED15E11
:105EE000002E00151CCB5E2EDE5E003F001DE35E23
:105EF0002EB15238534C6F6164696E6720006D5447
:105F00001DE35E2EE85E006C6F616473001B5654E7
:105F10001D136D541D1C1404142B010103585B0147
:105F20000001161C565420010002161FAE541D130A
:105F3000131B2B0856541DAE54201C6D5420F268C0
:105F4000F15E235B6D541D2206EB031111AE54204C
:105F50001C6D54203C550407F268F15E050A565446
:105F60001D01000142765B115654202E045F006C27
:105F70006F6164002C010D5F2E6C5F006370001B6D
:105F8000F2681769B1522E01060126C153013E0283
:105F9000161A552E795F006D6F726500875F040FCA
:105FA00038536D6F72653E3E006C5203B1522E1332
:105FB00012021A1AF8554F592CFF0C1404081CF839
:105FC00055345306531D3C551404E60311032E9417
:105FD0005F40766C69737400B1522C202859DA54F2
:105FE000BB54019C5FAF5F2ECF5F00666F72676529
:105FF0007400F1593C5504091C1D2654208354207B
:106000002EE85F0070656E00014A00252E1C221EDE
:106010001A1E2522221C1E1404F4032EB033B10ACA
:10602000B200B39FB40B8000810285008400890018
:10603000880B6F02C2C0C100C500C4014300002C20
:10604000832C43252C0A2CFE2C2A0A032B2CFD2CF6
:106050002B0A032C0801260125011C600D602E016E
:106060006000766D6F6465002C610C2C4324040382
:106070003F602B225C1C2C9E013E000A031404038B
:10608000B1522E0000000000FE00000000000000E1
:10609000001900130084525F600061743E002C19E7
:1060A000030916C153162E976000637572736F72E1
:1060B000000108012401060126C153422C19335D59
:1060C0002EA76000636C426F780013139E60111B53
:1060D000112B081A1A1B2C20302C191606F6030354
:1060E0002E131A1B1178581B15422E1B15161E2E27
:1060F00001FFFF1A2C0DE1604229133F5D2E131A98
:106100001514120C131A1A2C0DE1601A421CA65C0D
:1061100029132F11421A5504181CA65C2913BD5CC3
:106120001B8E5C1B1A161BA65C1116291342054414
:106130001C13161A131A1AEB601C1414110C1304F6
:106140002C1A16111103131A1A2C0DE1601A42A60B
:106150005C255515040929133F5D1B1A421B1125A7
:1061600055255511BD5C1B1A161B05081B03111B79
:106170001111162E290D29031542041729091C2275
:106180001A1829011622290D221C310D16361C2938
:10619000091F032E1A131C131A131514132913BDE8
:1061A0005C111B1304051A1A12362C19161B121631
:1061B0001B1118111611221A141A29152F1A550D10
:1061C00004D51B03111C29133F5D1312140C040783
:1061D0001B2C19161B221C29152215421A18150CE6
:1061E000040F1A2C1942121612182913162C2030DB
:1061F00011032E290122290F2911290B429E602902
:106200000B181305191A1C2C011B2C0D78581B4256
:10621000119461131B1C1E2C0D1442421B1A1E14D8
:106220001229152F1A550D04DD03031129151A1A09
:1062300055041113290F122911162913291511427A
:10624000CA602B032E2917290F29051629112907A2
:10625000169E601C13241BCD53261CCD53264215BD
:106260000410A25214040812242C800E12252C3281
:10627000161A023C5504E41B031B031B11A2521403
:106280000403252E03032E2F1ABD5C2BCD5C1B1A95
:10629000422E31053109290716291587621C290B61
:1062A00016310B1B31072E29092905FE6092622E3B
:1062B00029091A1AEB601C042F2C0D144204141A1D
:1062C000161B1504091CF06001FFFF05042B2C01AF
:1062D000050F1A161B2905162913162B29130B2F28
:1062E0002555255592622E0303032B2E74612C0134
:1062F000B062032C012E29092F2901421C04191315
:1063000029091C2F290D11422201FFFFB06203361B
:10631000290D2F310D2C012E29097F642B2E2B41A5
:10632000541D1C221B1E14140C04130341541D1C69
:106330001C290915421622227F641EEC622E2C07AE
:106340001C5E4863F662056C2C081C5E556301FFF9
:10635000FFB062055F2C091C5E61632C01B0620511
:10636000532C0A1C5E6D632C01A76205472C0B1C85
:106370005E7A6301FFFFA762053A2C0D1C5E8663FF
:106380002C0DEC62052E2CCD1C5E90631863052449
:106390002CC31C5E9A631E63051A2CAB1C5EA7639C
:1063A000032C8D2C01050D2CA01C5EB1632C010566
:1063B00003032B2E1C2C0F1A551A2C8015420C048B
:1063C00005EC6205033E632E0403F36145621CB4D1
:1063D000631B2C8D144204F12E1C2C2F1A551A2CE1
:1063E0003815420C040F2C304229091E2C03330DA2
:1063F00029091F2B032E018360011201262C05168B
:106400002C143631031C31012231092E2C09322E75
:106410002C122C131A1A2D2C0714532D3853436D9C
:10642000643F006C521C282C771C5E4264B15229D8
:1064300019290122290D01FF01160C649F69032B04
:1064400005352C241C5E5B642C122C132D3853282C
:106450005368656C6C2900915B051C2C7A1C5E747A
:10646000642B2901221C31091F2B310D2B31052BE7
:1064700031070503D9632EC160006D61726B004165
:1064800054202E875F040311112EC15301F401160D
:106490000164002C20302B2C142D2E84521C045F00
:1064A0001C2C1115421A2C2014420D040C291B041B
:1064B000038A642B311B05471C2CA0144204252998
:1064C0001B041BC15301F30116291B16DA54422287
:1064D0001C241CEC62032C20144204F403DA543113
:1064E0001B051C291B0418291B1A1A1F2B1A221FF3
:1064F00022311B8A64DA54BB54018364AF5F2E7768
:10650000640065646974002C1CFF514B541DDA54FF
:106510004201420142E865180C1C585B1B2C0242E8
:10652000F66329012B1A20019B6431172B311B1AAA
:10653000A65C31192229030C646669032B29012901
:106540000316221F29091C1E2CFF144204052B29A7
:1065500001209758310D2B2C132D3853426C6B3A78
:10656000200029192C04D75E065338534C656E3A27
:1065700000290D2C05D75E2C2F2829032C05D75E6A
:106580002C01C8631C040310641404CB2901765B3E
:106590001652FF6400626F786564002C18FF511377
:1065A000131A975813F66311310D11113115311368
:1065B000B1603111310F2C01C86316529265007120
:1065C000756572790013AA55B1602B2C142D112B0F
:1065D0001A202C4F2C192C049B65032D2EBC650012
:1065E000626C6B73697A65003C0002440113201CE5
:1065F0005EF86501000105190113301C5E03662C6D
:1066000080050E0114301C5E0E662C800503032BE2
:106610002E440113201C5E1E6601000105190113A2
:10662000301C5E29662C10050E0114301C5E346689
:106630002C100503032B2E440113201C5E4466011D
:106640000008051B0113301C5E5066010008050F91
:106650000114301C5E5C660100100503032BEB6522
:10666000422E2C01322E01FF3F0C161CEB65162E1C
:10667000376662662E376611664262662E01FF3FFC
:106680000C37661A1A2F1A550C42161CEB65162E7B
:10669000DD6500666469736B004401132042116676
:1066A0003766EB65162B081A1A212F0C140D2114CE
:1066B0000D212C1014420D212C2014420D212C40B0
:1066C00014420D04092B2C142D212A21432C1007D0
:1066D000D703032E1A16162E70662F13122C0732AC
:1066E000161A34112C7F0C1BD466262E1C2BD86650
:1066F00001FFFF14421B1A042170662F2F2C7F0C00
:106700001AD4662601FFFF4204101B031C0110006F
:10671000D86601FFFF1442141B032C100C2E01003D
:1067200001162E1E671A1616262E1AEC660405018F
:1067300000400E1C01FF3F0C2C07321B0100400CD7
:1067400014142C100C161B1A1B342E23F8019E91C6
:106750008E917E916E9111974E915FEF21913191C3
:106760002F3F350729F48D3F950741F40CD006C023
:106770002617370709F407D0415081F714968D93F7
:106780009D930C944B292C919E918E91241B820FEA
:10679000911D1296089501FDFF13131370662B1AB5
:1067A0001A01FF3F0C22154204090100C00C010030
:1067B0004016121A2A67031A1A01FF3F0C422C8056
:1067C000BD5C11111B111B4B671B131B13131B1AF1
:1067D000161B2F161C12162601FFFF14421A010069
:1067E000804755140D04B9030311031103112E96AC
:1067F0006766662E1C0100400C040701FF3F0C0574
:106800000C1A1BEF671A1E671A221B341B1A1B3443
:106810002E1C75664755141B11662F62660C140CEE
:106820002E1A01FFFF96671C3766626601FF3F164E
:10683000475514040B131AEC6643110100400E1364
:106840001A12017F000C1AD4661B112A6713271134
:106850001B352E11666266133766626612421A0194
:10686000FF3F0C1A4755140406181A160509031C95
:1068700012160100400E131A1E67111B1A2A670315
:106880001B7D661A7D66111B131B1A2B0813131A26
:106890001A1312017F000C1A23671B1A1A1B966722
:1068A0001C111442111A0C13041E66661A1A1B34AA
:1068B0001A111B121B3513221A34111A12221B35FE
:1068C000131B21682B2B2B030303221111222206F9
:1068D000BD1143031B031B032E56541D3C551404CA
:1068E00009E865585B1C5654202E906600626C6B5C
:1068F0003E00D9681A15040A2B1BE8659A55030552
:106900000E13C1531BF46703C15311E865362EEA19
:1069100068003E626C6B0013C1531C01FFFFEF6700
:106920001A56541D1BE865361A1A1B351C0100C087
:106930000C010040420422221A1E67351C112168F6
:106940001C01FFFF96671C11681C0406031A1A53EA
:10695000681B031404EB032E030311032E0F6900BD
:10696000626C6B733E0056541D131B5654202B0350
:106970001AF2681B221B2F1C1456541C1D01FF0108
:10698000161B1A221B201E141B1A0D04E3130303EB
:1069900011115654202E5D69003E626C6B730056D7
:1069A000541D131B5654202B081C1769220100028A
:1069B0005654C55406F403115654202E00000C946E
:1069C000C037E150204030400040E09520953095A0
:1069D000009508950F01F701700109019B01B001B5
:1069E00008018A01A001112408950695379527957D
:1069F000E795089581E0E8943E912E91F12FE0E82B
:106A00000E0F0E2BE0E0111F19F40F770EF020FB94
:106A10000895EBDFEADFF7FDD4DF0895DBDF0695AD
:106A200037952795E79513951517C8F3B9F7089586
:106A30009927E0DFFF2EEE2EB901A8011E910E91DD
:106A4000DBDF0895FF25150F911D1F57910908954C
:106A50001124F6F004C0EE0F221F331F001F115047
:106A6000904007FFC2F71F5F9F4FEE0FE0E0211D30
:106A7000311D011DC0F3992351F4112351F0000F72
:106A8000FF0F179507952D933D930C944B290AF012
:106A9000689411270027980120F9EE27F4CF966912
:106AA00000662B002300C4DF6EF0BEDFB2DF92DF92
:106AB000B0DFEE0D261F371F041F1E5F9F4FF02F04
:106AC00007FD7FDFC5CF9E6A00662F002300B0DF81
:106AD00001F35030E9F25095B5DF87DF7BDF85DFCA
:106AE00079DF81E208C0FF1C001C111C551FEE0F4E
:106AF000221F331F001FEE1526073707040720F05B
:106B0000EE19260B370B040B8A9569F7EF2D9001D0
:106B1000052F5BDF9DCFC66A00662A00230088DF51
:106B200091DFEE245527FF24F07FF6608827EE2DB5
:106B3000E52E5F2DFF24269FE00DE11C581FF81E57
:106B4000279FE00C511DF81E249F500DF11C232F90
:106B5000302FFA95F2FDEBCF2E2D352F0F2D78CF5C
:106B6000166B00666E656700230010588ECF606B51
:106B700000662D00686BA46A2E6E6B803264726FA3
:106B800070000303796B80326F76657200C8846B86
:106B900080327377617000C98E6B80643E7200131F
:106BA00013986B8064723E001111A16B00642C007D
:106BB0001BF154F1542EAA6B0064303C001B0315EA
:106BC0002EB66B00663C00746BBD6B2EC16B00660D
:106BD000696E740023000EDF5FE926DF1CDFED9392
:106BE0002D93102F032F51CFCC6B00666C6F617407
:106BF00000232E91EE91302F012F1FE99927E89461
:106C00005ECF4700000040470000A041131622134A
:106C1000F16B026C12040C12A65C2B08076C1C6B47
:106C200006FB11150405CC6A05031C6B1101FFFF5F
:106C30002E2B2B2B2C272B0803211303031A1A139B
:106C400013076C1C6B4848C76B04020F1111110627
:106C5000E813490303112EE86B0023666400131A3E
:106C60001AD46B1A2C3016121FF16B746B076C1C44
:106C70006B11222E576C002366001A1A0D0418029D
:106C80006C4848C76B1C13040A030301FFFF019FF4
:106C90004149316C05071A1A2B2C01132B835E8393
:106CA0005E03032C2B1215161C42345E2C65345ED9
:106CB0001104064903030503CC6AA45401F8FF1A22
:106CC000C5541D5E6C2C2E1A1F222C062B085E6CE0
:106CD00006FD032E746C00662E001B1A01FF7F0C4C
:106CE000535E7A6C745E625EEC5206532E3C7F03F8
:106CF0002C09012601252E2C832C4325033F602ED1
:106D00002CBF2C6D0A032E018C032C222B302E233A
:106D1000C8017D010E945D0DD7018C010C944B29A7
:106D2000F06C2B2C44251C2C023222222C452501F0
:106D3000EE1BED6C2C10361CED6C2C0716252CE38D
:106D40001B2C030C32ED6C252C042CFB2C680A0345
:106D50002C40006D076D2B0F6D3C5504FA076D2E0E
:106D60002300C8017E916E917D010E944E0DD4CF0B
:106D700054617065203A2D2820002B006D2BF76C94
:106D8000ED6C2C0D16264201706D8D562ED46C00C4
:106D900065617200206D1C242C021442042E1C2CF0
:106DA0000316261B2C011626133C551404094B54BC
:106DB0001D122C063342122B08210F6D3C5504087E
:106DC0001A2C40362C401606F103117A6D2E230042
:106DD000112768E01195000F10406A95D9F79ECFF2
:106DE0001B13011A01242C08154204F71C01190178
:106DF00025CE6D1A1A0E1C1116152C800C2C100D98
:106E00002C0F011A010A031514161C220309162E51
:106E10002C06331A161B080100C02B2F212C4016FC
:106E200021081321241C13E06D2B1111606D06F352
:106E30002C052B081312E06D1C14140100400C11DA
:106E40002C083206F003032C4007CD2E2B2C6E2588
:106E50002C45252BF76C2E032C402CBF2C2A0A0323
:106E60002C422C44252C034C6E2C372C47252B010F
:106E70001A01252E576EB152385353746172742023
:106E80005265632C20686974206B65792E006C5202
:106E900003F06C2C022C6E25ED6C131225122227A8
:106EA000122C0316272C222859DA541C9758221228
:106EB0002C05161B362B112E8D6D006D696300138A
:106EC0001A42013F00162C06321A1A2C0211746E57
:106ED0002C01106E1B2B081A212C063316ED6C2C7E
:106EE0004036ED6C2C01106E06EE03032B4C6E2E1B
:026EF0000000A0
:00000001FF
